{
  "abi": [
    {
      "anonymous": false,
      "inputs": [
        {
          "indexed": false,
          "internalType": "address",
          "name": "account",
          "type": "address"
        }
      ],
      "name": "AuthorizedSendersActive",
      "type": "event"
    },
    {
      "anonymous": false,
      "inputs": [
        {
          "indexed": false,
          "internalType": "address[]",
          "name": "senders",
          "type": "address[]"
        },
        {
          "indexed": false,
          "internalType": "address",
          "name": "changedBy",
          "type": "address"
        }
      ],
      "name": "AuthorizedSendersChanged",
      "type": "event"
    },
    {
      "anonymous": false,
      "inputs": [
        {
          "indexed": false,
          "internalType": "address",
          "name": "account",
          "type": "address"
        }
      ],
      "name": "AuthorizedSendersDeactive",
      "type": "event"
    },
    {
      "anonymous": false,
      "inputs": [
        {
          "indexed": false,
          "internalType": "uint32",
          "name": "previousConfigBlockNumber",
          "type": "uint32"
        },
        {
          "indexed": false,
          "internalType": "bytes32",
          "name": "configDigest",
          "type": "bytes32"
        },
        {
          "indexed": false,
          "internalType": "uint64",
          "name": "configCount",
          "type": "uint64"
        },
        {
          "indexed": false,
          "internalType": "address[]",
          "name": "signers",
          "type": "address[]"
        },
        {
          "indexed": false,
          "internalType": "address[]",
          "name": "transmitters",
          "type": "address[]"
        },
        {
          "indexed": false,
          "internalType": "uint8",
          "name": "f",
          "type": "uint8"
        },
        {
          "indexed": false,
          "internalType": "bytes",
          "name": "onchainConfig",
          "type": "bytes"
        },
        {
          "indexed": false,
          "internalType": "uint64",
          "name": "offchainConfigVersion",
          "type": "uint64"
        },
        {
          "indexed": false,
          "internalType": "bytes",
          "name": "offchainConfig",
          "type": "bytes"
        }
      ],
      "name": "ConfigSet",
      "type": "event"
    },
    {
      "anonymous": false,
      "inputs": [
        {
          "indexed": false,
          "internalType": "uint8",
          "name": "version",
          "type": "uint8"
        }
      ],
      "name": "Initialized",
      "type": "event"
    },
    {
      "anonymous": false,
      "inputs": [
        {
          "indexed": true,
          "internalType": "bytes32",
          "name": "requestId",
          "type": "bytes32"
        }
      ],
      "name": "InvalidRequestID",
      "type": "event"
    },
    {
      "anonymous": false,
      "inputs": [
        {
          "indexed": true,
          "internalType": "bytes32",
          "name": "requestId",
          "type": "bytes32"
        },
        {
          "indexed": false,
          "internalType": "address",
          "name": "requestingContract",
          "type": "address"
        },
        {
          "indexed": false,
          "internalType": "address",
          "name": "requestInitiator",
          "type": "address"
        },
        {
          "indexed": false,
          "internalType": "uint64",
          "name": "subscriptionId",
          "type": "uint64"
        },
        {
          "indexed": false,
          "internalType": "address",
          "name": "subscriptionOwner",
          "type": "address"
        },
        {
          "indexed": false,
          "internalType": "bytes",
          "name": "data",
          "type": "bytes"
        }
      ],
      "name": "OracleRequest",
      "type": "event"
    },
    {
      "anonymous": false,
      "inputs": [
        {
          "indexed": true,
          "internalType": "bytes32",
          "name": "requestId",
          "type": "bytes32"
        }
      ],
      "name": "OracleResponse",
      "type": "event"
    },
    {
      "anonymous": false,
      "inputs": [
        {
          "indexed": true,
          "internalType": "address",
          "name": "from",
          "type": "address"
        },
        {
          "indexed": true,
          "internalType": "address",
          "name": "to",
          "type": "address"
        }
      ],
      "name": "OwnershipTransferRequested",
      "type": "event"
    },
    {
      "anonymous": false,
      "inputs": [
        {
          "indexed": true,
          "internalType": "address",
          "name": "from",
          "type": "address"
        },
        {
          "indexed": true,
          "internalType": "address",
          "name": "to",
          "type": "address"
        }
      ],
      "name": "OwnershipTransferred",
      "type": "event"
    },
    {
      "anonymous": false,
      "inputs": [
        {
          "indexed": true,
          "internalType": "bytes32",
          "name": "requestId",
          "type": "bytes32"
        },
        {
          "indexed": false,
          "internalType": "address",
          "name": "transmitter",
          "type": "address"
        }
      ],
      "name": "ResponseTransmitted",
      "type": "event"
    },
    {
      "anonymous": false,
      "inputs": [
        {
          "indexed": false,
          "internalType": "bytes32",
          "name": "configDigest",
          "type": "bytes32"
        },
        {
          "indexed": false,
          "internalType": "uint32",
          "name": "epoch",
          "type": "uint32"
        }
      ],
      "name": "Transmitted",
      "type": "event"
    },
    {
      "anonymous": false,
      "inputs": [
        {
          "indexed": true,
          "internalType": "bytes32",
          "name": "requestId",
          "type": "bytes32"
        },
        {
          "indexed": false,
          "internalType": "string",
          "name": "reason",
          "type": "string"
        }
      ],
      "name": "UserCallbackError",
      "type": "event"
    },
    {
      "anonymous": false,
      "inputs": [
        {
          "indexed": true,
          "internalType": "bytes32",
          "name": "requestId",
          "type": "bytes32"
        },
        {
          "indexed": false,
          "internalType": "bytes",
          "name": "lowLevelData",
          "type": "bytes"
        }
      ],
      "name": "UserCallbackRawError",
      "type": "event"
    },
    {
      "inputs": [
        {
          "internalType": "address",
          "name": "account",
          "type": "address"
        }
      ],
      "name": "emitAuthorizedSendersActive",
      "outputs": [],
      "stateMutability": "nonpayable",
      "type": "function"
    },
    {
      "inputs": [
        {
          "internalType": "address[]",
          "name": "senders",
          "type": "address[]"
        },
        {
          "internalType": "address",
          "name": "changedBy",
          "type": "address"
        }
      ],
      "name": "emitAuthorizedSendersChanged",
      "outputs": [],
      "stateMutability": "nonpayable",
      "type": "function"
    },
    {
      "inputs": [
        {
          "internalType": "address",
          "name": "account",
          "type": "address"
        }
      ],
      "name": "emitAuthorizedSendersDeactive",
      "outputs": [],
      "stateMutability": "nonpayable",
      "type": "function"
    },
    {
      "inputs": [
        {
          "internalType": "uint32",
          "name": "previousConfigBlockNumber",
          "type": "uint32"
        },
        {
          "internalType": "bytes32",
          "name": "configDigest",
          "type": "bytes32"
        },
        {
          "internalType": "uint64",
          "name": "configCount",
          "type": "uint64"
        },
        {
          "internalType": "address[]",
          "name": "signers",
          "type": "address[]"
        },
        {
          "internalType": "address[]",
          "name": "transmitters",
          "type": "address[]"
        },
        {
          "internalType": "uint8",
          "name": "f",
          "type": "uint8"
        },
        {
          "internalType": "bytes",
          "name": "onchainConfig",
          "type": "bytes"
        },
        {
          "internalType": "uint64",
          "name": "offchainConfigVersion",
          "type": "uint64"
        },
        {
          "internalType": "bytes",
          "name": "offchainConfig",
          "type": "bytes"
        }
      ],
      "name": "emitConfigSet",
      "outputs": [],
      "stateMutability": "nonpayable",
      "type": "function"
    },
    {
      "inputs": [
        {
          "internalType": "uint8",
          "name": "version",
          "type": "uint8"
        }
      ],
      "name": "emitInitialized",
      "outputs": [],
      "stateMutability": "nonpayable",
      "type": "function"
    },
    {
      "inputs": [
        {
          "internalType": "bytes32",
          "name": "requestId",
          "type": "bytes32"
        }
      ],
      "name": "emitInvalidRequestID",
      "outputs": [],
      "stateMutability": "nonpayable",
      "type": "function"
    },
    {
      "inputs": [
        {
          "internalType": "bytes32",
          "name": "requestId",
          "type": "bytes32"
        },
        {
          "internalType": "address",
          "name": "requestingContract",
          "type": "address"
        },
        {
          "internalType": "address",
          "name": "requestInitiator",
          "type": "address"
        },
        {
          "internalType": "uint64",
          "name": "subscriptionId",
          "type": "uint64"
        },
        {
          "internalType": "address",
          "name": "subscriptionOwner",
          "type": "address"
        },
        {
          "internalType": "bytes",
          "name": "data",
          "type": "bytes"
        }
      ],
      "name": "emitOracleRequest",
      "outputs": [],
      "stateMutability": "nonpayable",
      "type": "function"
    },
    {
      "inputs": [
        {
          "internalType": "bytes32",
          "name": "requestId",
          "type": "bytes32"
        }
      ],
      "name": "emitOracleResponse",
      "outputs": [],
      "stateMutability": "nonpayable",
      "type": "function"
    },
    {
      "inputs": [
        {
          "internalType": "address",
          "name": "from",
          "type": "address"
        },
        {
          "internalType": "address",
          "name": "to",
          "type": "address"
        }
      ],
      "name": "emitOwnershipTransferRequested",
      "outputs": [],
      "stateMutability": "nonpayable",
      "type": "function"
    },
    {
      "inputs": [
        {
          "internalType": "address",
          "name": "from",
          "type": "address"
        },
        {
          "internalType": "address",
          "name": "to",
          "type": "address"
        }
      ],
      "name": "emitOwnershipTransferred",
      "outputs": [],
      "stateMutability": "nonpayable",
      "type": "function"
    },
    {
      "inputs": [
        {
          "internalType": "bytes32",
          "name": "requestId",
          "type": "bytes32"
        },
        {
          "internalType": "address",
          "name": "transmitter",
          "type": "address"
        }
      ],
      "name": "emitResponseTransmitted",
      "outputs": [],
      "stateMutability": "nonpayable",
      "type": "function"
    },
    {
      "inputs": [
        {
          "internalType": "bytes32",
          "name": "configDigest",
          "type": "bytes32"
        },
        {
          "internalType": "uint32",
          "name": "epoch",
          "type": "uint32"
        }
      ],
      "name": "emitTransmitted",
      "outputs": [],
      "stateMutability": "nonpayable",
      "type": "function"
    },
    {
      "inputs": [
        {
          "internalType": "bytes32",
          "name": "requestId",
          "type": "bytes32"
        },
        {
          "internalType": "string",
          "name": "reason",
          "type": "string"
        }
      ],
      "name": "emitUserCallbackError",
      "outputs": [],
      "stateMutability": "nonpayable",
      "type": "function"
    },
    {
      "inputs": [
        {
          "internalType": "bytes32",
          "name": "requestId",
          "type": "bytes32"
        },
        {
          "internalType": "bytes",
          "name": "lowLevelData",
          "type": "bytes"
        }
      ],
      "name": "emitUserCallbackRawError",
      "outputs": [],
      "stateMutability": "nonpayable",
      "type": "function"
    }
  ],
  "bytecode": {
    "object": "0x608060405234801561001057600080fd5b50610cc1806100206000396000f3fe608060405234801561001057600080fd5b50600436106100ea5760003560e01c8063b019b4e81161008c578063ddd5603c11610066578063ddd5603c146101af578063df4a9fe0146101c2578063e055cff0146101d5578063f7420bc2146101e857600080fd5b8063b019b4e814610176578063bef9e18314610189578063c9d3d0811461019c57600080fd5b80632d6d80b3116100c85780632d6d80b31461012a5780636446fe921461013d5780638eb62eb6146101505780639784f15a1461016357600080fd5b806317472dac146100ef57806327a88d59146101045780632a7f477b14610117575b600080fd5b6101026100fd3660046105c8565b6101fb565b005b6101026101123660046105ea565b610248565b610102610125366004610717565b610276565b6101026101383660046107e5565b6102b2565b61010261014b36600461084b565b6102ef565b61010261015e3660046105ea565b610337565b6101026101713660046105c8565b610365565b6101026101843660046108d3565b6103ab565b61010261019736600461090e565b610409565b6101026101aa366004610929565b61043c565b6101026101bd36600461098e565b61046c565b6101026101d03660046109b1565b6104a7565b6101026101e33660046109d4565b6104ef565b6101026101f63660046108d3565b610541565b60405173ffffffffffffffffffffffffffffffffffffffff821681527fae51766a982895b0c444fc99fc1a560762b464d709e6c78376c85617f7eeb5ce906020015b60405180910390a150565b60405181907f9e9bc7616d42c2835d05ae617e508454e63b30b934be8aa932ebc125e0e58a6490600090a250565b817fe0b838ffe6ee22a0d3acf19a85db6a41b34a1ab739e2d6c759a2e42d95bdccb2826040516102a69190610b32565b60405180910390a25050565b7ff263cfb3e4298332e776194610cf9fdc09ccb3ada8b9aa39764d882e11fbf0a082826040516102e3929190610b96565b60405180910390a15050565b857fa1ec73989d79578cd6f67d4f593ac3e0a4d1020e5c0164db52108d7ff785406c8686868686604051610327959493929190610bce565b60405180910390a2505050505050565b60405181907fa1c120e327c9ad8b075793878c88d59b8934b97ae37117faa3bb21616237f7be90600090a250565b60405173ffffffffffffffffffffffffffffffffffffffff821681527fea3828816a323b8d7ff49d755efd105e7719166d6c76fad97a28eee5eccc3d9a9060200161023d565b8073ffffffffffffffffffffffffffffffffffffffff168273ffffffffffffffffffffffffffffffffffffffff167f8be0079c531659141344cd1fd0a4f28419497f9722a3daafe3b4186f6b6457e060405160405180910390a35050565b60405160ff821681527f7f26b83ff96e1f2b6a682f133852f6798a09c465da95921460cefb38474024989060200161023d565b817fb2931868c372fe17a25643458add467d60ec5c51125a99b7309f41f5bcd2da6c826040516102a69190610b32565b6040805183815263ffffffff831660208201527fb04e63db38c49950639fa09d29872f21f5d49d614f3a969d8adf3d4b52e41a6291016102e3565b60405173ffffffffffffffffffffffffffffffffffffffff8216815282907fdc941eddab34a6109ab77798299c6b1f035b125fd6f774d266ecbf9541d630a6906020016102a6565b7f1591690b8638f5fb2dbec82ac741805ac5da8b45dc5263f4875b0496fdce4e0589898989898989898960405161052e99989796959493929190610c1f565b60405180910390a1505050505050505050565b8073ffffffffffffffffffffffffffffffffffffffff168273ffffffffffffffffffffffffffffffffffffffff167fed8889f560326eb138920d842192f0eb3dd22b4f139c87a2c57538e05bae127860405160405180910390a35050565b803573ffffffffffffffffffffffffffffffffffffffff811681146105c357600080fd5b919050565b6000602082840312156105da57600080fd5b6105e38261059f565b9392505050565b6000602082840312156105fc57600080fd5b5035919050565b7f4e487b7100000000000000000000000000000000000000000000000000000000600052604160045260246000fd5b604051601f82017fffffffffffffffffffffffffffffffffffffffffffffffffffffffffffffffe016810167ffffffffffffffff8111828210171561067957610679610603565b604052919050565b600067ffffffffffffffff83111561069b5761069b610603565b6106cc60207fffffffffffffffffffffffffffffffffffffffffffffffffffffffffffffffe0601f86011601610632565b90508281528383830111156106e057600080fd5b828260208301376000602084830101529392505050565b600082601f83011261070857600080fd5b6105e383833560208501610681565b6000806040838503121561072a57600080fd5b82359150602083013567ffffffffffffffff81111561074857600080fd5b610754858286016106f7565b9150509250929050565b600082601f83011261076f57600080fd5b8135602067ffffffffffffffff82111561078b5761078b610603565b8160051b61079a828201610632565b92835284810182019282810190878511156107b457600080fd5b83870192505b848310156107da576107cb8361059f565b825291830191908301906107ba565b979650505050505050565b600080604083850312156107f857600080fd5b823567ffffffffffffffff81111561080f57600080fd5b61081b8582860161075e565b92505061082a6020840161059f565b90509250929050565b803567ffffffffffffffff811681146105c357600080fd5b60008060008060008060c0878903121561086457600080fd5b863595506108746020880161059f565b94506108826040880161059f565b935061089060608801610833565b925061089e6080880161059f565b915060a087013567ffffffffffffffff8111156108ba57600080fd5b6108c689828a016106f7565b9150509295509295509295565b600080604083850312156108e657600080fd5b6108ef8361059f565b915061082a6020840161059f565b803560ff811681146105c357600080fd5b60006020828403121561092057600080fd5b6105e3826108fd565b6000806040838503121561093c57600080fd5b82359150602083013567ffffffffffffffff81111561095a57600080fd5b8301601f8101851361096b57600080fd5b61075485823560208401610681565b803563ffffffff811681146105c357600080fd5b600080604083850312156109a157600080fd5b8235915061082a6020840161097a565b600080604083850312156109c457600080fd5b8235915061082a6020840161059f565b60008060008060008060008060006101208a8c0312156109f357600080fd5b6109fc8a61097a565b985060208a01359750610a1160408b01610833565b965060608a013567ffffffffffffffff80821115610a2e57600080fd5b610a3a8d838e0161075e565b975060808c0135915080821115610a5057600080fd5b610a5c8d838e0161075e565b9650610a6a60a08d016108fd565b955060c08c0135915080821115610a8057600080fd5b610a8c8d838e016106f7565b9450610a9a60e08d01610833565b93506101008c0135915080821115610ab157600080fd5b50610abe8c828d016106f7565b9150509295985092959850929598565b6000815180845260005b81811015610af457602081850181015186830182015201610ad8565b5060006020828601015260207fffffffffffffffffffffffffffffffffffffffffffffffffffffffffffffffe0601f83011685010191505092915050565b6020815260006105e36020830184610ace565b600081518084526020808501945080840160005b83811015610b8b57815173ffffffffffffffffffffffffffffffffffffffff1687529582019590820190600101610b59565b509495945050505050565b604081526000610ba96040830185610b45565b905073ffffffffffffffffffffffffffffffffffffffff831660208301529392505050565b600073ffffffffffffffffffffffffffffffffffffffff8088168352808716602084015267ffffffffffffffff8616604084015280851660608401525060a060808301526107da60a0830184610ace565b600061012063ffffffff8c1683528a602084015267ffffffffffffffff808b166040850152816060850152610c568285018b610b45565b91508382036080850152610c6a828a610b45565b915060ff881660a085015283820360c0850152610c878288610ace565b90861660e08501528381036101008501529050610ca48185610ace565b9c9b50505050505050505050505056fea164736f6c6343000815000a",
    "linkReferences": {}
  },
  "methodIdentifiers": {
    "emitAuthorizedSendersActive(address)": "17472dac",
    "emitAuthorizedSendersChanged(address[],address)": "2d6d80b3",
    "emitAuthorizedSendersDeactive(address)": "9784f15a",
    "emitConfigSet(uint32,bytes32,uint64,address[],address[],uint8,bytes,uint64,bytes)": "e055cff0",
    "emitInitialized(uint8)": "bef9e183",
    "emitInvalidRequestID(bytes32)": "8eb62eb6",
    "emitOracleRequest(bytes32,address,address,uint64,address,bytes)": "6446fe92",
    "emitOracleResponse(bytes32)": "27a88d59",
    "emitOwnershipTransferRequested(address,address)": "f7420bc2",
    "emitOwnershipTransferred(address,address)": "b019b4e8",
    "emitResponseTransmitted(bytes32,address)": "df4a9fe0",
    "emitTransmitted(bytes32,uint32)": "ddd5603c",
    "emitUserCallbackError(bytes32,string)": "c9d3d081",
    "emitUserCallbackRawError(bytes32,bytes)": "2a7f477b"
  },
  "id": 245
}