{
  "abi": [
    {
      "inputs": [
        {
          "internalType": "address",
          "name": "link",
          "type": "address"
        },
        {
          "internalType": "address",
          "name": "linkEthFeed",
          "type": "address"
        },
        {
          "internalType": "address",
          "name": "oracle",
          "type": "address"
        }
      ],
      "stateMutability": "nonpayable",
      "type": "constructor"
    },
    {
      "inputs": [
        {
          "internalType": "uint256",
          "name": "internalBalance",
          "type": "uint256"
        },
        {
          "internalType": "uint256",
          "name": "externalBalance",
          "type": "uint256"
        }
      ],
      "name": "BalanceInvariantViolated",
      "type": "error"
    },
    {
      "inputs": [],
      "name": "CannotSelfTransfer",
      "type": "error"
    },
    {
      "inputs": [],
      "name": "EmptySendersList",
      "type": "error"
    },
    {
      "inputs": [
        {
          "internalType": "uint32",
          "name": "have",
          "type": "uint32"
        },
        {
          "internalType": "uint32",
          "name": "want",
          "type": "uint32"
        }
      ],
      "name": "GasLimitTooBig",
      "type": "error"
    },
    {
      "inputs": [],
      "name": "InsufficientBalance",
      "type": "error"
    },
    {
      "inputs": [],
      "name": "InvalidCalldata",
      "type": "error"
    },
    {
      "inputs": [
        {
          "internalType": "uint64",
          "name": "subscriptionId",
          "type": "uint64"
        },
        {
          "internalType": "address",
          "name": "consumer",
          "type": "address"
        }
      ],
      "name": "InvalidConsumer",
      "type": "error"
    },
    {
      "inputs": [
        {
          "internalType": "int256",
          "name": "linkWei",
          "type": "int256"
        }
      ],
      "name": "InvalidLinkWeiPrice",
      "type": "error"
    },
    {
      "inputs": [],
      "name": "InvalidSubscription",
      "type": "error"
    },
    {
      "inputs": [
        {
          "internalType": "address",
          "name": "proposedOwner",
          "type": "address"
        }
      ],
      "name": "MustBeRequestedOwner",
      "type": "error"
    },
    {
      "inputs": [
        {
          "internalType": "address",
          "name": "owner",
          "type": "address"
        }
      ],
      "name": "MustBeSubOwner",
      "type": "error"
    },
    {
      "inputs": [],
      "name": "NotAllowedToSetSenders",
      "type": "error"
    },
    {
      "inputs": [],
      "name": "NotProposedOwner",
      "type": "error"
    },
    {
      "inputs": [],
      "name": "OnlyCallableByOwner",
      "type": "error"
    },
    {
      "inputs": [],
      "name": "OnlyCallableFromLink",
      "type": "error"
    },
    {
      "inputs": [],
      "name": "OwnerMustBeSet",
      "type": "error"
    },
    {
      "inputs": [],
      "name": "PaymentTooLarge",
      "type": "error"
    },
    {
      "inputs": [],
      "name": "PendingRequestExists",
      "type": "error"
    },
    {
      "inputs": [],
      "name": "Reentrant",
      "type": "error"
    },
    {
      "inputs": [],
      "name": "TooManyConsumers",
      "type": "error"
    },
    {
      "inputs": [],
      "name": "UnauthorizedSender",
      "type": "error"
    },
    {
      "anonymous": false,
      "inputs": [
        {
          "indexed": false,
          "internalType": "address[]",
          "name": "senders",
          "type": "address[]"
        },
        {
          "indexed": false,
          "internalType": "address",
          "name": "changedBy",
          "type": "address"
        }
      ],
      "name": "AuthorizedSendersChanged",
      "type": "event"
    },
    {
      "anonymous": false,
      "inputs": [
        {
          "indexed": true,
          "internalType": "bytes32",
          "name": "requestId",
          "type": "bytes32"
        },
        {
          "indexed": false,
          "internalType": "uint64",
          "name": "subscriptionId",
          "type": "uint64"
        },
        {
          "indexed": false,
          "internalType": "uint96",
          "name": "signerPayment",
          "type": "uint96"
        },
        {
          "indexed": false,
          "internalType": "uint96",
          "name": "transmitterPayment",
          "type": "uint96"
        },
        {
          "indexed": false,
          "internalType": "uint96",
          "name": "totalCost",
          "type": "uint96"
        },
        {
          "indexed": false,
          "internalType": "bool",
          "name": "success",
          "type": "bool"
        }
      ],
      "name": "BillingEnd",
      "type": "event"
    },
    {
      "anonymous": false,
      "inputs": [
        {
          "indexed": true,
          "internalType": "bytes32",
          "name": "requestId",
          "type": "bytes32"
        },
        {
          "components": [
            {
              "internalType": "uint64",
              "name": "subscriptionId",
              "type": "uint64"
            },
            {
              "internalType": "address",
              "name": "client",
              "type": "address"
            },
            {
              "internalType": "uint32",
              "name": "gasLimit",
              "type": "uint32"
            },
            {
              "internalType": "uint256",
              "name": "gasPrice",
              "type": "uint256"
            },
            {
              "internalType": "address",
              "name": "don",
              "type": "address"
            },
            {
              "internalType": "uint96",
              "name": "donFee",
              "type": "uint96"
            },
            {
              "internalType": "uint96",
              "name": "registryFee",
              "type": "uint96"
            },
            {
              "internalType": "uint96",
              "name": "estimatedCost",
              "type": "uint96"
            },
            {
              "internalType": "uint256",
              "name": "timestamp",
              "type": "uint256"
            }
          ],
          "indexed": false,
          "internalType": "struct FunctionsBillingRegistry.Commitment",
          "name": "commitment",
          "type": "tuple"
        }
      ],
      "name": "BillingStart",
      "type": "event"
    },
    {
      "anonymous": false,
      "inputs": [
        {
          "indexed": false,
          "internalType": "uint32",
          "name": "maxGasLimit",
          "type": "uint32"
        },
        {
          "indexed": false,
          "internalType": "uint32",
          "name": "stalenessSeconds",
          "type": "uint32"
        },
        {
          "indexed": false,
          "internalType": "uint256",
          "name": "gasAfterPaymentCalculation",
          "type": "uint256"
        },
        {
          "indexed": false,
          "internalType": "int256",
          "name": "fallbackWeiPerUnitLink",
          "type": "int256"
        },
        {
          "indexed": false,
          "internalType": "uint32",
          "name": "gasOverhead",
          "type": "uint32"
        }
      ],
      "name": "ConfigSet",
      "type": "event"
    },
    {
      "anonymous": false,
      "inputs": [
        {
          "indexed": false,
          "internalType": "address",
          "name": "to",
          "type": "address"
        },
        {
          "indexed": false,
          "internalType": "uint256",
          "name": "amount",
          "type": "uint256"
        }
      ],
      "name": "FundsRecovered",
      "type": "event"
    },
    {
      "anonymous": false,
      "inputs": [
        {
          "indexed": false,
          "internalType": "uint8",
          "name": "version",
          "type": "uint8"
        }
      ],
      "name": "Initialized",
      "type": "event"
    },
    {
      "anonymous": false,
      "inputs": [
        {
          "indexed": true,
          "internalType": "address",
          "name": "from",
          "type": "address"
        },
        {
          "indexed": true,
          "internalType": "address",
          "name": "to",
          "type": "address"
        }
      ],
      "name": "OwnershipTransferRequested",
      "type": "event"
    },
    {
      "anonymous": false,
      "inputs": [
        {
          "indexed": true,
          "internalType": "address",
          "name": "from",
          "type": "address"
        },
        {
          "indexed": true,
          "internalType": "address",
          "name": "to",
          "type": "address"
        }
      ],
      "name": "OwnershipTransferred",
      "type": "event"
    },
    {
      "anonymous": false,
      "inputs": [
        {
          "indexed": false,
          "internalType": "address",
          "name": "account",
          "type": "address"
        }
      ],
      "name": "Paused",
      "type": "event"
    },
    {
      "anonymous": false,
      "inputs": [
        {
          "indexed": true,
          "internalType": "bytes32",
          "name": "requestId",
          "type": "bytes32"
        }
      ],
      "name": "RequestTimedOut",
      "type": "event"
    },
    {
      "anonymous": false,
      "inputs": [
        {
          "indexed": true,
          "internalType": "uint64",
          "name": "subscriptionId",
          "type": "uint64"
        },
        {
          "indexed": false,
          "internalType": "address",
          "name": "to",
          "type": "address"
        },
        {
          "indexed": false,
          "internalType": "uint256",
          "name": "amount",
          "type": "uint256"
        }
      ],
      "name": "SubscriptionCanceled",
      "type": "event"
    },
    {
      "anonymous": false,
      "inputs": [
        {
          "indexed": true,
          "internalType": "uint64",
          "name": "subscriptionId",
          "type": "uint64"
        },
        {
          "indexed": false,
          "internalType": "address",
          "name": "consumer",
          "type": "address"
        }
      ],
      "name": "SubscriptionConsumerAdded",
      "type": "event"
    },
    {
      "anonymous": false,
      "inputs": [
        {
          "indexed": true,
          "internalType": "uint64",
          "name": "subscriptionId",
          "type": "uint64"
        },
        {
          "indexed": false,
          "internalType": "address",
          "name": "consumer",
          "type": "address"
        }
      ],
      "name": "SubscriptionConsumerRemoved",
      "type": "event"
    },
    {
      "anonymous": false,
      "inputs": [
        {
          "indexed": true,
          "internalType": "uint64",
          "name": "subscriptionId",
          "type": "uint64"
        },
        {
          "indexed": false,
          "internalType": "address",
          "name": "owner",
          "type": "address"
        }
      ],
      "name": "SubscriptionCreated",
      "type": "event"
    },
    {
      "anonymous": false,
      "inputs": [
        {
          "indexed": true,
          "internalType": "uint64",
          "name": "subscriptionId",
          "type": "uint64"
        },
        {
          "indexed": false,
          "internalType": "uint256",
          "name": "oldBalance",
          "type": "uint256"
        },
        {
          "indexed": false,
          "internalType": "uint256",
          "name": "newBalance",
          "type": "uint256"
        }
      ],
      "name": "SubscriptionFunded",
      "type": "event"
    },
    {
      "anonymous": false,
      "inputs": [
        {
          "indexed": true,
          "internalType": "uint64",
          "name": "subscriptionId",
          "type": "uint64"
        },
        {
          "indexed": false,
          "internalType": "address",
          "name": "from",
          "type": "address"
        },
        {
          "indexed": false,
          "internalType": "address",
          "name": "to",
          "type": "address"
        }
      ],
      "name": "SubscriptionOwnerTransferRequested",
      "type": "event"
    },
    {
      "anonymous": false,
      "inputs": [
        {
          "indexed": true,
          "internalType": "uint64",
          "name": "subscriptionId",
          "type": "uint64"
        },
        {
          "indexed": false,
          "internalType": "address",
          "name": "from",
          "type": "address"
        },
        {
          "indexed": false,
          "internalType": "address",
          "name": "to",
          "type": "address"
        }
      ],
      "name": "SubscriptionOwnerTransferred",
      "type": "event"
    },
    {
      "anonymous": false,
      "inputs": [
        {
          "indexed": false,
          "internalType": "address",
          "name": "account",
          "type": "address"
        }
      ],
      "name": "Unpaused",
      "type": "event"
    },
    {
      "inputs": [],
      "name": "MAX_CONSUMERS",
      "outputs": [
        {
          "internalType": "uint16",
          "name": "",
          "type": "uint16"
        }
      ],
      "stateMutability": "view",
      "type": "function"
    },
    {
      "inputs": [],
      "name": "acceptOwnership",
      "outputs": [],
      "stateMutability": "nonpayable",
      "type": "function"
    },
    {
      "inputs": [
        {
          "internalType": "uint64",
          "name": "subscriptionId",
          "type": "uint64"
        }
      ],
      "name": "acceptSubscriptionOwnerTransfer",
      "outputs": [],
      "stateMutability": "nonpayable",
      "type": "function"
    },
    {
      "inputs": [
        {
          "internalType": "uint64",
          "name": "subscriptionId",
          "type": "uint64"
        },
        {
          "internalType": "address",
          "name": "consumer",
          "type": "address"
        }
      ],
      "name": "addConsumer",
      "outputs": [],
      "stateMutability": "nonpayable",
      "type": "function"
    },
    {
      "inputs": [
        {
          "internalType": "uint64",
          "name": "subscriptionId",
          "type": "uint64"
        },
        {
          "internalType": "address",
          "name": "to",
          "type": "address"
        }
      ],
      "name": "cancelSubscription",
      "outputs": [],
      "stateMutability": "nonpayable",
      "type": "function"
    },
    {
      "inputs": [],
      "name": "createSubscription",
      "outputs": [
        {
          "internalType": "uint64",
          "name": "",
          "type": "uint64"
        }
      ],
      "stateMutability": "nonpayable",
      "type": "function"
    },
    {
      "inputs": [
        {
          "internalType": "uint32",
          "name": "gasLimit",
          "type": "uint32"
        },
        {
          "internalType": "uint256",
          "name": "gasPrice",
          "type": "uint256"
        },
        {
          "internalType": "uint96",
          "name": "donFee",
          "type": "uint96"
        },
        {
          "internalType": "uint96",
          "name": "registryFee",
          "type": "uint96"
        }
      ],
      "name": "estimateCost",
      "outputs": [
        {
          "internalType": "uint96",
          "name": "",
          "type": "uint96"
        }
      ],
      "stateMutability": "view",
      "type": "function"
    },
    {
      "inputs": [
        {
          "internalType": "bytes32",
          "name": "requestId",
          "type": "bytes32"
        },
        {
          "internalType": "bytes",
          "name": "response",
          "type": "bytes"
        },
        {
          "internalType": "bytes",
          "name": "err",
          "type": "bytes"
        },
        {
          "internalType": "address",
          "name": "transmitter",
          "type": "address"
        },
        {
          "internalType": "address[31]",
          "name": "signers",
          "type": "address[31]"
        },
        {
          "internalType": "uint8",
          "name": "signerCount",
          "type": "uint8"
        },
        {
          "internalType": "uint256",
          "name": "reportValidationGas",
          "type": "uint256"
        },
        {
          "internalType": "uint256",
          "name": "initialGas",
          "type": "uint256"
        }
      ],
      "name": "fulfillAndBill",
      "outputs": [
        {
          "internalType": "enum IFunctionsBillingRegistry.FulfillResult",
          "name": "",
          "type": "uint8"
        }
      ],
      "stateMutability": "nonpayable",
      "type": "function"
    },
    {
      "inputs": [],
      "name": "getAuthorizedSenders",
      "outputs": [
        {
          "internalType": "address[]",
          "name": "",
          "type": "address[]"
        }
      ],
      "stateMutability": "view",
      "type": "function"
    },
    {
      "inputs": [],
      "name": "getConfig",
      "outputs": [
        {
          "internalType": "uint32",
          "name": "maxGasLimit",
          "type": "uint32"
        },
        {
          "internalType": "uint32",
          "name": "stalenessSeconds",
          "type": "uint32"
        },
        {
          "internalType": "uint256",
          "name": "gasAfterPaymentCalculation",
          "type": "uint256"
        },
        {
          "internalType": "int256",
          "name": "fallbackWeiPerUnitLink",
          "type": "int256"
        },
        {
          "internalType": "uint32",
          "name": "gasOverhead",
          "type": "uint32"
        },
        {
          "internalType": "address",
          "name": "linkAddress",
          "type": "address"
        },
        {
          "internalType": "address",
          "name": "linkPriceFeed",
          "type": "address"
        }
      ],
      "stateMutability": "view",
      "type": "function"
    },
    {
      "inputs": [],
      "name": "getCurrentsubscriptionId",
      "outputs": [
        {
          "internalType": "uint64",
          "name": "",
          "type": "uint64"
        }
      ],
      "stateMutability": "view",
      "type": "function"
    },
    {
      "inputs": [],
      "name": "getRequestConfig",
      "outputs": [
        {
          "internalType": "uint32",
          "name": "",
          "type": "uint32"
        },
        {
          "internalType": "address[]",
          "name": "",
          "type": "address[]"
        }
      ],
      "stateMutability": "view",
      "type": "function"
    },
    {
      "inputs": [
        {
          "internalType": "bytes",
          "name": "",
          "type": "bytes"
        },
        {
          "components": [
            {
              "internalType": "uint64",
              "name": "subscriptionId",
              "type": "uint64"
            },
            {
              "internalType": "address",
              "name": "client",
              "type": "address"
            },
            {
              "internalType": "uint32",
              "name": "gasLimit",
              "type": "uint32"
            },
            {
              "internalType": "uint256",
              "name": "gasPrice",
              "type": "uint256"
            }
          ],
          "internalType": "struct IFunctionsBillingRegistry.RequestBilling",
          "name": "",
          "type": "tuple"
        }
      ],
      "name": "getRequiredFee",
      "outputs": [
        {
          "internalType": "uint96",
          "name": "",
          "type": "uint96"
        }
      ],
      "stateMutability": "pure",
      "type": "function"
    },
    {
      "inputs": [
        {
          "internalType": "uint64",
          "name": "subscriptionId",
          "type": "uint64"
        }
      ],
      "name": "getSubscription",
      "outputs": [
        {
          "internalType": "uint96",
          "name": "balance",
          "type": "uint96"
        },
        {
          "internalType": "address",
          "name": "owner",
          "type": "address"
        },
        {
          "internalType": "address[]",
          "name": "consumers",
          "type": "address[]"
        }
      ],
      "stateMutability": "view",
      "type": "function"
    },
    {
      "inputs": [
        {
          "internalType": "uint64",
          "name": "subscriptionId",
          "type": "uint64"
        }
      ],
      "name": "getSubscriptionOwner",
      "outputs": [
        {
          "internalType": "address",
          "name": "owner",
          "type": "address"
        }
      ],
      "stateMutability": "view",
      "type": "function"
    },
    {
      "inputs": [],
      "name": "getTotalBalance",
      "outputs": [
        {
          "internalType": "uint256",
          "name": "",
          "type": "uint256"
        }
      ],
      "stateMutability": "view",
      "type": "function"
    },
    {
      "inputs": [
        {
          "internalType": "address",
          "name": "link",
          "type": "address"
        },
        {
          "internalType": "address",
          "name": "linkEthFeed",
          "type": "address"
        },
        {
          "internalType": "address",
          "name": "oracle",
          "type": "address"
        }
      ],
      "name": "initialize",
      "outputs": [],
      "stateMutability": "nonpayable",
      "type": "function"
    },
    {
      "inputs": [
        {
          "internalType": "address",
          "name": "sender",
          "type": "address"
        }
      ],
      "name": "isAuthorizedSender",
      "outputs": [
        {
          "internalType": "bool",
          "name": "",
          "type": "bool"
        }
      ],
      "stateMutability": "view",
      "type": "function"
    },
    {
      "inputs": [
        {
          "internalType": "address",
          "name": "",
          "type": "address"
        },
        {
          "internalType": "uint256",
          "name": "amount",
          "type": "uint256"
        },
        {
          "internalType": "bytes",
          "name": "data",
          "type": "bytes"
        }
      ],
      "name": "onTokenTransfer",
      "outputs": [],
      "stateMutability": "nonpayable",
      "type": "function"
    },
    {
      "inputs": [
        {
          "internalType": "address",
          "name": "recipient",
          "type": "address"
        },
        {
          "internalType": "uint96",
          "name": "amount",
          "type": "uint96"
        }
      ],
      "name": "oracleWithdraw",
      "outputs": [],
      "stateMutability": "nonpayable",
      "type": "function"
    },
    {
      "inputs": [],
      "name": "owner",
      "outputs": [
        {
          "internalType": "address",
          "name": "",
          "type": "address"
        }
      ],
      "stateMutability": "view",
      "type": "function"
    },
    {
      "inputs": [
        {
          "internalType": "uint64",
          "name": "subscriptionId",
          "type": "uint64"
        }
      ],
      "name": "ownerCancelSubscription",
      "outputs": [],
      "stateMutability": "nonpayable",
      "type": "function"
    },
    {
      "inputs": [],
      "name": "pause",
      "outputs": [],
      "stateMutability": "nonpayable",
      "type": "function"
    },
    {
      "inputs": [],
      "name": "paused",
      "outputs": [
        {
          "internalType": "bool",
          "name": "",
          "type": "bool"
        }
      ],
      "stateMutability": "view",
      "type": "function"
    },
    {
      "inputs": [
        {
          "internalType": "uint64",
          "name": "subscriptionId",
          "type": "uint64"
        }
      ],
      "name": "pendingRequestExists",
      "outputs": [
        {
          "internalType": "bool",
          "name": "",
          "type": "bool"
        }
      ],
      "stateMutability": "view",
      "type": "function"
    },
    {
      "inputs": [
        {
          "internalType": "address",
          "name": "to",
          "type": "address"
        }
      ],
      "name": "recoverFunds",
      "outputs": [],
      "stateMutability": "nonpayable",
      "type": "function"
    },
    {
      "inputs": [
        {
          "internalType": "uint64",
          "name": "subscriptionId",
          "type": "uint64"
        },
        {
          "internalType": "address",
          "name": "consumer",
          "type": "address"
        }
      ],
      "name": "removeConsumer",
      "outputs": [],
      "stateMutability": "nonpayable",
      "type": "function"
    },
    {
      "inputs": [
        {
          "internalType": "uint64",
          "name": "subscriptionId",
          "type": "uint64"
        },
        {
          "internalType": "address",
          "name": "newOwner",
          "type": "address"
        }
      ],
      "name": "requestSubscriptionOwnerTransfer",
      "outputs": [],
      "stateMutability": "nonpayable",
      "type": "function"
    },
    {
      "inputs": [
        {
          "internalType": "address[]",
          "name": "senders",
          "type": "address[]"
        }
      ],
      "name": "setAuthorizedSenders",
      "outputs": [],
      "stateMutability": "nonpayable",
      "type": "function"
    },
    {
      "inputs": [
        {
          "internalType": "uint32",
          "name": "maxGasLimit",
          "type": "uint32"
        },
        {
          "internalType": "uint32",
          "name": "stalenessSeconds",
          "type": "uint32"
        },
        {
          "internalType": "uint256",
          "name": "gasAfterPaymentCalculation",
          "type": "uint256"
        },
        {
          "internalType": "int256",
          "name": "fallbackWeiPerUnitLink",
          "type": "int256"
        },
        {
          "internalType": "uint32",
          "name": "gasOverhead",
          "type": "uint32"
        },
        {
          "internalType": "uint32",
          "name": "requestTimeoutSeconds",
          "type": "uint32"
        }
      ],
      "name": "setConfig",
      "outputs": [],
      "stateMutability": "nonpayable",
      "type": "function"
    },
    {
      "inputs": [
        {
          "internalType": "bytes",
          "name": "data",
          "type": "bytes"
        },
        {
          "components": [
            {
              "internalType": "uint64",
              "name": "subscriptionId",
              "type": "uint64"
            },
            {
              "internalType": "address",
              "name": "client",
              "type": "address"
            },
            {
              "internalType": "uint32",
              "name": "gasLimit",
              "type": "uint32"
            },
            {
              "internalType": "uint256",
              "name": "gasPrice",
              "type": "uint256"
            }
          ],
          "internalType": "struct IFunctionsBillingRegistry.RequestBilling",
          "name": "billing",
          "type": "tuple"
        }
      ],
      "name": "startBilling",
      "outputs": [
        {
          "internalType": "bytes32",
          "name": "",
          "type": "bytes32"
        }
      ],
      "stateMutability": "nonpayable",
      "type": "function"
    },
    {
      "inputs": [
        {
          "internalType": "bytes32[]",
          "name": "requestIdsToTimeout",
          "type": "bytes32[]"
        }
      ],
      "name": "timeoutRequests",
      "outputs": [],
      "stateMutability": "nonpayable",
      "type": "function"
    },
    {
      "inputs": [
        {
          "internalType": "address",
          "name": "to",
          "type": "address"
        }
      ],
      "name": "transferOwnership",
      "outputs": [],
      "stateMutability": "nonpayable",
      "type": "function"
    },
    {
      "inputs": [],
      "name": "unpause",
      "outputs": [],
      "stateMutability": "nonpayable",
      "type": "function"
    }
  ],
  "bytecode": {
    "object": "0x60806040523480156200001157600080fd5b5060405162005735380380620057358339810160408190526200003491620003e8565b620000418383836200004a565b50505062000432565b600054610100900460ff16158080156200006b5750600054600160ff909116105b80620000875750303b15801562000087575060005460ff166001145b620000f05760405162461bcd60e51b815260206004820152602e60248201527f496e697469616c697a61626c653a20636f6e747261637420697320616c72656160448201526d191e481a5b9a5d1a585b1a5e995960921b60648201526084015b60405180910390fd5b6000805460ff19166001179055801562000114576000805461ff0019166101001790555b6200011e620001b5565b6200012b3360006200021d565b606980546001600160a01b038087166001600160a01b031992831617909255606a8054868416908316179055606b8054928516929091169190911790558015620001af576000805461ff0019169055604051600181527f7f26b83ff96e1f2b6a682f133852f6798a09c465da95921460cefb38474024989060200160405180910390a15b50505050565b600054610100900460ff16620002115760405162461bcd60e51b815260206004820152602b60248201526000805160206200571583398151915260448201526a6e697469616c697a696e6760a81b6064820152608401620000e7565b6200021b620002e1565b565b600054610100900460ff16620002795760405162461bcd60e51b815260206004820152602b60248201526000805160206200571583398151915260448201526a6e697469616c697a696e6760a81b6064820152608401620000e7565b6001600160a01b038216620002a157604051635b5a8afd60e11b815260040160405180910390fd5b600080546001600160a01b03808516620100000262010000600160b01b031990921691909117909155811615620002dd57620002dd8162000349565b5050565b600054610100900460ff166200033d5760405162461bcd60e51b815260206004820152602b60248201526000805160206200571583398151915260448201526a6e697469616c697a696e6760a81b6064820152608401620000e7565b6034805460ff19169055565b336001600160a01b03821603620003735760405163282010c360e01b815260040160405180910390fd5b600180546001600160a01b0319166001600160a01b038381169182179092556000805460405192936201000090910416917fed8889f560326eb138920d842192f0eb3dd22b4f139c87a2c57538e05bae12789190a350565b80516001600160a01b0381168114620003e357600080fd5b919050565b600080600060608486031215620003fe57600080fd5b6200040984620003cb565b92506200041960208501620003cb565b91506200042960408501620003cb565b90509250925092565b6152d380620004426000396000f3fe608060405234801561001057600080fd5b50600436106102255760003560e01c80638da5cb5b1161012a578063c0c53b8b116100bd578063e82ad7d41161008c578063f1e14a2111610071578063f1e14a211461053a578063f2fde38b14610551578063fa00763a1461056457600080fd5b8063e82ad7d414610514578063ee56997b1461052757600080fd5b8063c0c53b8b14610473578063c3f909d414610486578063d7ae1d30146104ee578063e72f6e301461050157600080fd5b8063a47c7696116100f9578063a47c769614610418578063a4c0ed361461043a578063a9d03c051461044d578063b2a489ff1461046057600080fd5b80638da5cb5b146103a25780639f87fad7146103cd578063a1a6d041146103e0578063a21a23e41461041057600080fd5b80633f4ba83a116101bd578063665871ec1161018c57806379ba50971161017157806379ba50971461037f57806382359740146103875780638456cb591461039a57600080fd5b8063665871ec146103595780637341c10c1461036c57600080fd5b80633f4ba83a1461030c5780635c975abb1461031457806364d51a2a1461032b57806366316d8d1461034657600080fd5b806312b58349116101f957806312b58349146102915780632408afaa146102bd57806327923e41146102d257806333652e3e146102e557600080fd5b80620122911461022a57806302bcc5b61461024957806304c357cb1461025e5780630739e4f114610271575b600080fd5b610232610577565b604051610240929190614723565b60405180910390f35b61025c610257366004614767565b610596565b005b61025c61026c366004614799565b610606565b61028461027f366004614855565b6107c0565b6040516102409190614974565b606f546801000000000000000090046bffffffffffffffffffffffff165b604051908152602001610240565b6102c5610e34565b60405161024091906149b5565b61025c6102e03660046149dc565b610e96565b606f5467ffffffffffffffff165b60405167ffffffffffffffff9091168152602001610240565b61025c610fe9565b60345460ff165b6040519015158152602001610240565b610333606481565b60405161ffff9091168152602001610240565b61025c610354366004614a5c565b610ffb565b61025c610367366004614ad8565b611248565b61025c61037a366004614799565b6114fa565b61025c611765565b61025c610395366004614767565b61183e565b61025c611b46565b6000546201000090046001600160a01b03165b6040516001600160a01b039091168152602001610240565b61025c6103db366004614799565b611b56565b6103f36103ee366004614b1a565b611f5b565b6040516bffffffffffffffffffffffff9091168152602001610240565b6102f361207f565b61042b610426366004614767565b6123c5565b60405161024093929190614b6b565b61025c610448366004614baa565b6124cf565b6102af61045b366004614c04565b61270e565b6103b561046e366004614767565b612ea4565b61025c610481366004614c81565b612f23565b607354607454607254607554606954606a546040805163ffffffff80891682526501000000000090980488166020820152908101959095526060850193909352931660808301526001600160a01b0392831660a08301529190911660c082015260e001610240565b61025c6104fc366004614799565b613118565b61025c61050f366004614cc4565b613258565b61031b610522366004614767565b613430565b61025c610535366004614ad8565b61362e565b6103f3610548366004614d58565b60009392505050565b61025c61055f366004614cc4565b613798565b61031b610572366004614cc4565b6137ac565b60735460009060609063ffffffff1661058e610e34565b915091509091565b61059e6137bf565b67ffffffffffffffff81166000908152606d60205260409020546001600160a01b0316806105f8576040517f1f6a65b600000000000000000000000000000000000000000000000000000000815260040160405180910390fd5b6106028282613809565b5050565b67ffffffffffffffff82166000908152606d602052604090205482906001600160a01b031680610662576040517f1f6a65b600000000000000000000000000000000000000000000000000000000815260040160405180910390fd5b336001600160a01b038216146106b4576040517fd8a3fb520000000000000000000000000000000000000000000000000000000081526001600160a01b03821660048201526024015b60405180910390fd5b607354640100000000900460ff16156106f9576040517fed3ba6a600000000000000000000000000000000000000000000000000000000815260040160405180910390fd5b610701613bc0565b67ffffffffffffffff84166000908152606d60205260409020600101546001600160a01b038481169116146107ba5767ffffffffffffffff84166000818152606d602090815260409182902060010180547fffffffffffffffffffffffff0000000000000000000000000000000000000000166001600160a01b0388169081179091558251338152918201527f69436ea6df009049404f564eff6622cd00522b0bd6a89efd9e52a355c4a879be91015b60405180910390a25b50505050565b60006107ca613c2d565b607354640100000000900460ff161561080f576040517fed3ba6a600000000000000000000000000000000000000000000000000000000815260040160405180910390fd5b610817613bc0565b60008b815260716020908152604091829020825161012081018452815467ffffffffffffffff811682526801000000000000000081046001600160a01b03908116948301949094527c0100000000000000000000000000000000000000000000000000000000900463ffffffff169381019390935260018101546060840152600281015491821660808401819052740100000000000000000000000000000000000000009092046bffffffffffffffffffffffff90811660a0850152600382015480821660c08601526c0100000000000000000000000090041660e08401526004015461010083015261090e576002915050610e26565b60008c81526071602052604080822082815560018101839055600281018390556003810180547fffffffffffffffff000000000000000000000000000000000000000000000000169055600401829055517f0ca761750000000000000000000000000000000000000000000000000000000090610997908f908f908f908f908f90602401614ded565b604080517fffffffffffffffffffffffffffffffffffffffffffffffffffffffffffffffe0818403018152918152602080830180517bffffffffffffffffffffffffffffffffffffffffffffffffffffffff167fffffffff0000000000000000000000000000000000000000000000000000000090951694909417909352607380547fffffffffffffffffffffffffffffffffffffffffffffffffffffff00ffffffff1664010000000017905584015191840151909250600091610a649163ffffffff9091169084613c6c565b607380547fffffffffffffffffffffffffffffffffffffffffffffffffffffff00ffffffff16905560745460a085015160c0860151929350600092610ab092899290918c908c3a613cb8565b604080820151865167ffffffffffffffff166000908152606e60205291909120549192506bffffffffffffffffffffffff90811691161015610b1e576040517ff4d678b800000000000000000000000000000000000000000000000000000000815260040160405180910390fd5b604080820151855167ffffffffffffffff166000908152606e602052918220805491929091610b5c9084906bffffffffffffffffffffffff16614e55565b92506101000a8154816bffffffffffffffffffffffff02191690836bffffffffffffffffffffffff16021790555060005b8860ff16811015610c3c578151607060008c84601f8110610bb057610bb0614e7a565b60200201516001600160a01b03166001600160a01b0316815260200190815260200160002060008282829054906101000a90046bffffffffffffffffffffffff16610bfb9190614ea9565b92506101000a8154816bffffffffffffffffffffffff02191690836bffffffffffffffffffffffff1602179055508080610c3490614ece565b915050610b8d565b508360c0015160706000610c5f6000546001600160a01b03620100009091041690565b6001600160a01b03168152602081019190915260400160009081208054909190610c989084906bffffffffffffffffffffffff16614ea9565b82546101009290920a6bffffffffffffffffffffffff8181021990931691831602179091556020838101516001600160a01b038e166000908152607090925260408220805491945092610ced91859116614ea9565b82546101009290920a6bffffffffffffffffffffffff81810219909316918316021790915560e0860151865167ffffffffffffffff166000908152606e60205260409020805491935091600c91610d569185916c01000000000000000000000000900416614e55565b92506101000a8154816bffffffffffffffffffffffff02191690836bffffffffffffffffffffffff1602179055508e7fc8dc973332de19a5f71b6026983110e9c2e04b0c98b87eb771ccb78607fd114f856000015183600001518460200151856040015187604051610e0895949392919067ffffffffffffffff9590951685526bffffffffffffffffffffffff9384166020860152918316604085015290911660608301521515608082015260a00190565b60405180910390a281610e1c576001610e1f565b60005b9450505050505b9a9950505050505050505050565b60606068805480602002602001604051908101604052809291908181526020018280548015610e8c57602002820191906000526020600020905b81546001600160a01b03168152600190910190602001808311610e6e575b5050505050905090565b610e9e6137bf565b60008313610edb576040517f43d4cf66000000000000000000000000000000000000000000000000000000008152600481018490526024016106ab565b6040805160c08101825263ffffffff888116808352600060208085019190915289831684860181905260608086018b9052888516608080880182905295891660a0978801819052607380547fffffffffffffffffffffffffffffffffffffffffffffff00000000000000000016871765010000000000860217905560748d9055607580547fffffffffffffffffffffffffffffffffffffffffffffffff000000000000000016831764010000000090920291909117905560728b9055875194855292840191909152948201899052938101879052908101929092527f24d3d934adfef9b9029d6ffa463c07d0139ed47d26ee23506f85ece2879d2bd4910160405180910390a1505050505050565b610ff16137bf565b610ff9613e38565b565b607354640100000000900460ff1615611040576040517fed3ba6a600000000000000000000000000000000000000000000000000000000815260040160405180910390fd5b611048613bc0565b806bffffffffffffffffffffffff1660000361107e5750336000908152607060205260409020546bffffffffffffffffffffffff165b336000908152607060205260409020546bffffffffffffffffffffffff808316911610156110d8576040517ff4d678b800000000000000000000000000000000000000000000000000000000815260040160405180910390fd5b33600090815260706020526040812080548392906111059084906bffffffffffffffffffffffff16614e55565b92506101000a8154816bffffffffffffffffffffffff02191690836bffffffffffffffffffffffff16021790555080606f60088282829054906101000a90046bffffffffffffffffffffffff1661115c9190614e55565b82546101009290920a6bffffffffffffffffffffffff8181021990931691831602179091556069546040517fa9059cbb0000000000000000000000000000000000000000000000000000000081526001600160a01b03868116600483015292851660248201529116915063a9059cbb906044016020604051808303816000875af11580156111ee573d6000803e3d6000fd5b505050506040513d601f19601f820116820180604052508101906112129190614f06565b610602576040517ff4d678b800000000000000000000000000000000000000000000000000000000815260040160405180910390fd5b611250613bc0565b60005b818110156114f557600083838381811061126f5761126f614e7a565b602090810292909201356000818152607184526040808220815161012081018352815467ffffffffffffffff81168083526801000000000000000082046001600160a01b03908116848b01527c010000000000000000000000000000000000000000000000000000000090920463ffffffff168386015260018401546060840152600284015480831660808501527401000000000000000000000000000000000000000090046bffffffffffffffffffffffff90811660a0850152600385015480821660c08601526c0100000000000000000000000090041660e0840152600490930154610100830152918452606d90965291205491945016331490506113ca57805167ffffffffffffffff166000908152606d6020526040908190205490517fd8a3fb520000000000000000000000000000000000000000000000000000000081526001600160a01b0390911660048201526024016106ab565b60755461010082015142916113ee9164010000000090910463ffffffff1690614f28565b11156114e05760e0810151815167ffffffffffffffff166000908152606e602052604090208054600c906114419084906c0100000000000000000000000090046bffffffffffffffffffffffff16614e55565b82546bffffffffffffffffffffffff9182166101009390930a92830291909202199091161790555060008281526071602052604080822082815560018101839055600281018390556003810180547fffffffffffffffff0000000000000000000000000000000000000000000000001690556004018290555183917ff1ca1e9147be737b04a2b018a79405f687a97de8dd8a2559bbe62357343af41491a25b505080806114ed90614ece565b915050611253565b505050565b67ffffffffffffffff82166000908152606d602052604090205482906001600160a01b031680611556576040517f1f6a65b600000000000000000000000000000000000000000000000000000000815260040160405180910390fd5b336001600160a01b038216146115a3576040517fd8a3fb520000000000000000000000000000000000000000000000000000000081526001600160a01b03821660048201526024016106ab565b607354640100000000900460ff16156115e8576040517fed3ba6a600000000000000000000000000000000000000000000000000000000815260040160405180910390fd5b6115f0613bc0565b67ffffffffffffffff84166000908152606d60205260409020600201547fffffffffffffffffffffffffffffffffffffffffffffffffffffffffffffff9c01611665576040517f05a48e0f00000000000000000000000000000000000000000000000000000000815260040160405180910390fd5b6001600160a01b0383166000908152606c6020908152604080832067ffffffffffffffff808916855292528220541690036107ba576001600160a01b0383166000818152606c6020908152604080832067ffffffffffffffff891680855290835281842080547fffffffffffffffffffffffffffffffffffffffffffffffff0000000000000000166001908117909155606d84528285206002018054918201815585529383902090930180547fffffffffffffffffffffffff000000000000000000000000000000000000000016851790555192835290917f43dc749a04ac8fb825cbd514f7c0e13f13bc6f2ee66043b76629d51776cff8e091016107b1565b6001546001600160a01b031633146117a9576040517f0f22ca5f00000000000000000000000000000000000000000000000000000000815260040160405180910390fd5b6000805433620100008181027fffffffffffffffffffff0000000000000000000000000000000000000000ffff8416178455600180547fffffffffffffffffffffffff00000000000000000000000000000000000000001690556040516001600160a01b03919093041692909183917f8be0079c531659141344cd1fd0a4f28419497f9722a3daafe3b4186f6b6457e091a350565b607354640100000000900460ff1615611883576040517fed3ba6a600000000000000000000000000000000000000000000000000000000815260040160405180910390fd5b61188b613bc0565b606b60009054906101000a90046001600160a01b03166001600160a01b0316634b4fa0c16040518163ffffffff1660e01b8152600401602060405180830381865afa1580156118de573d6000803e3d6000fd5b505050506040513d601f19601f820116820180604052508101906119029190614f06565b80156119905750606b546040517ffa00763a0000000000000000000000000000000000000000000000000000000081523360048201526001600160a01b039091169063fa00763a90602401602060405180830381865afa15801561196a573d6000803e3d6000fd5b505050506040513d601f19601f8201168201806040525081019061198e9190614f06565b155b156119c7576040517f0809490800000000000000000000000000000000000000000000000000000000815260040160405180910390fd5b67ffffffffffffffff81166000908152606d60205260409020546001600160a01b0316611a20576040517f1f6a65b600000000000000000000000000000000000000000000000000000000815260040160405180910390fd5b67ffffffffffffffff81166000908152606d60205260409020600101546001600160a01b03163314611aa85767ffffffffffffffff81166000908152606d6020526040908190206001015490517fd084e9750000000000000000000000000000000000000000000000000000000081526001600160a01b0390911660048201526024016106ab565b67ffffffffffffffff81166000818152606d60209081526040918290208054337fffffffffffffffffffffffff0000000000000000000000000000000000000000808316821784556001909301805490931690925583516001600160a01b03909116808252928101919091529092917f6f1dc65165ffffedfd8e507b4a0f1fcfdada045ed11f6c26ba27cedfe87802f0910160405180910390a25050565b611b4e6137bf565b610ff9613ea8565b67ffffffffffffffff82166000908152606d602052604090205482906001600160a01b031680611bb2576040517f1f6a65b600000000000000000000000000000000000000000000000000000000815260040160405180910390fd5b336001600160a01b03821614611bff576040517fd8a3fb520000000000000000000000000000000000000000000000000000000081526001600160a01b03821660048201526024016106ab565b607354640100000000900460ff1615611c44576040517fed3ba6a600000000000000000000000000000000000000000000000000000000815260040160405180910390fd5b611c4c613bc0565b6001600160a01b0383166000908152606c6020908152604080832067ffffffffffffffff80891685529252822054169003611cce576040517ff0019fe600000000000000000000000000000000000000000000000000000000815267ffffffffffffffff851660048201526001600160a01b03841660248201526044016106ab565b67ffffffffffffffff84166000908152606d6020908152604080832060020180548251818502810185019093528083529192909190830182828015611d3c57602002820191906000526020600020905b81546001600160a01b03168152600190910190602001808311611d1e575b50505050509050600060018251611d539190614f3b565b905060005b8251811015611eca57856001600160a01b0316838281518110611d7d57611d7d614e7a565b60200260200101516001600160a01b031603611eb8576000838381518110611da757611da7614e7a565b6020026020010151905080606d60008a67ffffffffffffffff1667ffffffffffffffff1681526020019081526020016000206002018381548110611ded57611ded614e7a565b600091825260208083209190910180547fffffffffffffffffffffffff0000000000000000000000000000000000000000166001600160a01b03949094169390931790925567ffffffffffffffff8a168152606d90915260409020600201805480611e5a57611e5a614f4e565b60008281526020902081017fffffffffffffffffffffffffffffffffffffffffffffffffffffffffffffffff90810180547fffffffffffffffffffffffff000000000000000000000000000000000000000016905501905550611eca565b80611ec281614ece565b915050611d58565b506001600160a01b0385166000818152606c6020908152604080832067ffffffffffffffff8b168085529083529281902080547fffffffffffffffffffffffffffffffffffffffffffffffff00000000000000001690555192835290917f182bff9831466789164ca77075fffd84916d35a8180ba73c27e45634549b445b91015b60405180910390a2505050505050565b600080611f66613f03565b905060008113611fa5576040517f43d4cf66000000000000000000000000000000000000000000000000000000008152600481018290526024016106ab565b60745460755460009163ffffffff808a1692611fc2929116614f28565b611fcc9190614f28565b905060008282611fe489670de0b6b3a7640000614f7d565b611fee9190614f7d565b611ff89190614fc3565b905060006120176bffffffffffffffffffffffff808816908916614f28565b905061202f816b033b2e3c9fd0803ce8000000614f3b565b821115612068576040517fe80fa38100000000000000000000000000000000000000000000000000000000815260040160405180910390fd5b6120728183614f28565b9998505050505050505050565b607354600090640100000000900460ff16156120c7576040517fed3ba6a600000000000000000000000000000000000000000000000000000000815260040160405180910390fd5b6120cf613bc0565b606b60009054906101000a90046001600160a01b03166001600160a01b0316634b4fa0c16040518163ffffffff1660e01b8152600401602060405180830381865afa158015612122573d6000803e3d6000fd5b505050506040513d601f19601f820116820180604052508101906121469190614f06565b80156121d45750606b546040517ffa00763a0000000000000000000000000000000000000000000000000000000081523360048201526001600160a01b039091169063fa00763a90602401602060405180830381865afa1580156121ae573d6000803e3d6000fd5b505050506040513d601f19601f820116820180604052508101906121d29190614f06565b155b1561220b576040517f0809490800000000000000000000000000000000000000000000000000000000815260040160405180910390fd5b606f805467ffffffffffffffff1690600061222583614fd7565b82546101009290920a67ffffffffffffffff818102199093169183160217909155606f54169050600080604051908082528060200260200182016040528015612278578160200160208202803683370190505b506040805180820182526000808252602080830182815267ffffffffffffffff8816808452606e83528584209451855492516bffffffffffffffffffffffff9081166c01000000000000000000000000027fffffffffffffffff000000000000000000000000000000000000000000000000909416911617919091179093558351606081018552338152808201838152818601878152948452606d835294909220825181546001600160a01b039182167fffffffffffffffffffffffff000000000000000000000000000000000000000091821617835595516001830180549190921696169590951790945591518051949550909361237d92600285019201906145cc565b505060405133815267ffffffffffffffff841691507f464722b4166576d3dcbba877b999bc35cf911f4eaf434b7eba68fa113951d0bf9060200160405180910390a250905090565b67ffffffffffffffff81166000908152606d602052604081205481906060906001600160a01b0316612423576040517f1f6a65b600000000000000000000000000000000000000000000000000000000815260040160405180910390fd5b67ffffffffffffffff84166000908152606e6020908152604080832054606d8352928190208054600290910180548351818602810186019094528084526bffffffffffffffffffffffff909516946001600160a01b039092169390929183918301828280156124bb57602002820191906000526020600020905b81546001600160a01b0316815260019091019060200180831161249d575b505050505090509250925092509193909250565b607354640100000000900460ff1615612514576040517fed3ba6a600000000000000000000000000000000000000000000000000000000815260040160405180910390fd5b61251c613bc0565b6069546001600160a01b03163314612560576040517f44b0e3c300000000000000000000000000000000000000000000000000000000815260040160405180910390fd5b6020811461259a576040517f8129bbcd00000000000000000000000000000000000000000000000000000000815260040160405180910390fd5b60006125a882840184614767565b67ffffffffffffffff81166000908152606d60205260409020549091506001600160a01b0316612604576040517f1f6a65b600000000000000000000000000000000000000000000000000000000815260040160405180910390fd5b67ffffffffffffffff81166000908152606e6020526040812080546bffffffffffffffffffffffff169186919061263b8385614ea9565b92506101000a8154816bffffffffffffffffffffffff02191690836bffffffffffffffffffffffff16021790555084606f60088282829054906101000a90046bffffffffffffffffffffffff166126929190614ea9565b92506101000a8154816bffffffffffffffffffffffff02191690836bffffffffffffffffffffffff1602179055508167ffffffffffffffff167fd39ec07f4e209f627a4c427971473820dc129761ba28de8906bd56f57101d4f88287846126f99190614f28565b60408051928352602083019190915201611f4b565b6000612718613c2d565b607354640100000000900460ff161561275d576040517fed3ba6a600000000000000000000000000000000000000000000000000000000815260040160405180910390fd5b612765613bc0565b6000606d816127776020860186614767565b67ffffffffffffffff1681526020810191909152604001600020546001600160a01b0316036127d2576040517f1f6a65b600000000000000000000000000000000000000000000000000000000815260040160405180910390fd5b6000606c816127e76040860160208701614cc4565b6001600160a01b0316815260208082019290925260400160009081209161281090860186614767565b67ffffffffffffffff9081168252602082019290925260400160009081205490911691508190036128a5576128486020840184614767565b6128586040850160208601614cc4565b6040517ff0019fe600000000000000000000000000000000000000000000000000000000815267ffffffffffffffff90921660048301526001600160a01b031660248201526044016106ab565b60735463ffffffff166128be6060850160408601614ffe565b63ffffffff16111561291f576128da6060840160408501614ffe565b6073546040517ff5d7e01e00000000000000000000000000000000000000000000000000000000815263ffffffff9283166004820152911660248201526044016106ab565b6040517ff1e14a21000000000000000000000000000000000000000000000000000000008152600090339063f1e14a219061296290899089908990600401615019565b602060405180830381865afa15801561297f573d6000803e3d6000fd5b505050506040513d601f19601f820116820180604052508101906129a3919061508a565b905060006129bb8787610548368990038901896150a7565b905060006129de6129d26060880160408901614ffe565b87606001358585611f5b565b90506000606e816129f260208a018a614767565b67ffffffffffffffff1681526020808201929092526040016000908120546c0100000000000000000000000090046bffffffffffffffffffffffff1691606e9190612a3f908b018b614767565b67ffffffffffffffff168152602081019190915260400160002054612a7291906bffffffffffffffffffffffff16614e55565b9050816bffffffffffffffffffffffff16816bffffffffffffffffffffffff161015612aca576040517ff4d678b800000000000000000000000000000000000000000000000000000000815260040160405180910390fd5b6000612ad78660016150c3565b90506000612b5233612aef60408c0160208d01614cc4565b612afc60208d018d614767565b85604080516001600160a01b03958616602080830191909152949095168582015267ffffffffffffffff928316606086015291166080808501919091528151808503909101815260a09093019052815191012090565b60408051610120810190915290915060009080612b7260208d018d614767565b67ffffffffffffffff1681526020018b6020016020810190612b949190614cc4565b6001600160a01b03168152602001612bb260608d0160408e01614ffe565b63ffffffff90811682526060808e0135602080850191909152336040808601919091526bffffffffffffffffffffffff808e16848701528c81166080808801919091528c821660a0808901919091524260c09889015260008b8152607186528481208a5181548c890151978d0151909a167c0100000000000000000000000000000000000000000000000000000000027bffffffffffffffffffffffffffffffffffffffffffffffffffffffff6001600160a01b0398891668010000000000000000027fffffffff00000000000000000000000000000000000000000000000000000000909c1667ffffffffffffffff909316929092179a909a171698909817885595890151600188015590880151908801518216740100000000000000000000000000000000000000000292169190911760028501559385015160038401805460e088015187166c01000000000000000000000000027fffffffffffffffff0000000000000000000000000000000000000000000000009091169290961691909117949094179093556101008401516004909201919091559192508691606e91612d5f908e018e614767565b67ffffffffffffffff16815260208101919091526040016000208054600c90612da79084906c0100000000000000000000000090046bffffffffffffffffffffffff16614ea9565b92506101000a8154816bffffffffffffffffffffffff02191690836bffffffffffffffffffffffff160217905550817f99f7f4e65b4b9fbabd4e357c47ed3099b36e57ecd3a43e84662f34c207d0ebe482604051612e0591906150e4565b60405180910390a282606c6000612e2260408e0160208f01614cc4565b6001600160a01b03168152602080820192909252604001600090812091612e4b908e018e614767565b67ffffffffffffffff9081168252602082019290925260400160002080547fffffffffffffffffffffffffffffffffffffffffffffffff00000000000000001692909116919091179055509a9950505050505050505050565b67ffffffffffffffff81166000908152606d60205260408120546001600160a01b0316612efd576040517f1f6a65b600000000000000000000000000000000000000000000000000000000815260040160405180910390fd5b5067ffffffffffffffff166000908152606d60205260409020546001600160a01b031690565b600054610100900460ff1615808015612f435750600054600160ff909116105b80612f5d5750303b158015612f5d575060005460ff166001145b612fe9576040517f08c379a000000000000000000000000000000000000000000000000000000000815260206004820152602e60248201527f496e697469616c697a61626c653a20636f6e747261637420697320616c72656160448201527f647920696e697469616c697a656400000000000000000000000000000000000060648201526084016106ab565b600080547fffffffffffffffffffffffffffffffffffffffffffffffffffffffffffffff00166001179055801561304757600080547fffffffffffffffffffffffffffffffffffffffffffffffffffffffffffff00ff166101001790555b61304f613fda565b61305a336000614079565b606980546001600160a01b038087167fffffffffffffffffffffffff000000000000000000000000000000000000000092831617909255606a8054868416908316179055606b80549285169290911691909117905580156107ba57600080547fffffffffffffffffffffffffffffffffffffffffffffffffffffffffffff00ff169055604051600181527f7f26b83ff96e1f2b6a682f133852f6798a09c465da95921460cefb3847402498906020015b60405180910390a150505050565b67ffffffffffffffff82166000908152606d602052604090205482906001600160a01b031680613174576040517f1f6a65b600000000000000000000000000000000000000000000000000000000815260040160405180910390fd5b336001600160a01b038216146131c1576040517fd8a3fb520000000000000000000000000000000000000000000000000000000081526001600160a01b03821660048201526024016106ab565b607354640100000000900460ff1615613206576040517fed3ba6a600000000000000000000000000000000000000000000000000000000815260040160405180910390fd5b61320e613bc0565b61321784613430565b1561324e576040517fb42f66e800000000000000000000000000000000000000000000000000000000815260040160405180910390fd5b6107ba8484613809565b6132606137bf565b6069546040517f70a082310000000000000000000000000000000000000000000000000000000081523060048201526000916001600160a01b0316906370a0823190602401602060405180830381865afa1580156132c2573d6000803e3d6000fd5b505050506040513d601f19601f820116820180604052508101906132e691906151ba565b606f549091506801000000000000000090046bffffffffffffffffffffffff168181111561334a576040517fa99da30200000000000000000000000000000000000000000000000000000000815260048101829052602481018390526044016106ab565b818110156114f557600061335e8284614f3b565b6069546040517fa9059cbb0000000000000000000000000000000000000000000000000000000081526001600160a01b0387811660048301526024820184905292935091169063a9059cbb906044016020604051808303816000875af11580156133cc573d6000803e3d6000fd5b505050506040513d601f19601f820116820180604052508101906133f09190614f06565b50604080516001600160a01b0386168152602081018390527f59bfc682b673f8cbf945f1e454df9334834abf7dfe7f92237ca29ecb9b436600910161310a565b67ffffffffffffffff81166000908152606d602090815260408083206002018054825181850281018501909352808352849383018282801561349b57602002820191906000526020600020905b81546001600160a01b0316815260019091019060200180831161347d575b5050505050905060006134ac610e34565b905060005b82518110156136235760005b82518110156136105760006135cd8483815181106134dd576134dd614e7a565b60200260200101518685815181106134f7576134f7614e7a565b602002602001015189606c60008a898151811061351657613516614e7a565b60200260200101516001600160a01b03166001600160a01b0316815260200190815260200160002060008c67ffffffffffffffff1667ffffffffffffffff16815260200190815260200160002060009054906101000a900467ffffffffffffffff16604080516001600160a01b03958616602080830191909152949095168582015267ffffffffffffffff928316606086015291166080808501919091528151808503909101815260a09093019052815191012090565b6000818152607160205260409020600201549091506001600160a01b0316156135fd575060019695505050505050565b508061360881614ece565b9150506134bd565b508061361b81614ece565b9150506134b1565b506000949350505050565b61363661419f565b61366c576040517fad77f06100000000000000000000000000000000000000000000000000000000815260040160405180910390fd5b60008190036136a7576040517f75158c3b00000000000000000000000000000000000000000000000000000000815260040160405180910390fd5b60005b6068548110156136fa576136e7606882815481106136ca576136ca614e7a565b6000918252602090912001546066906001600160a01b03166141af565b50806136f281614ece565b9150506136aa565b5060005b8181101561374b5761373883838381811061371b5761371b614e7a565b90506020020160208101906137309190614cc4565b6066906141cb565b508061374381614ece565b9150506136fe565b5061375860688383614645565b507ff263cfb3e4298332e776194610cf9fdc09ccb3ada8b9aa39764d882e11fbf0a082823360405161378c939291906151d3565b60405180910390a15050565b6137a06137bf565b6137a9816141e0565b50565b60006137b9606683614292565b92915050565b6000546201000090046001600160a01b03163314610ff9576040517f2b5c74de00000000000000000000000000000000000000000000000000000000815260040160405180910390fd5b607354640100000000900460ff161561384e576040517fed3ba6a600000000000000000000000000000000000000000000000000000000815260040160405180910390fd5b67ffffffffffffffff82166000908152606d60209081526040808320815160608101835281546001600160a01b039081168252600183015416818501526002820180548451818702810187018652818152929593948601938301828280156138df57602002820191906000526020600020905b81546001600160a01b031681526001909101906020018083116138c1575b5050509190925250505067ffffffffffffffff84166000908152606e60205260408120549192506bffffffffffffffffffffffff909116905b8260400151518110156139b157606c60008460400151838151811061393f5761393f614e7a565b6020908102919091018101516001600160a01b03168252818101929092526040908101600090812067ffffffffffffffff89168252909252902080547fffffffffffffffffffffffffffffffffffffffffffffffff0000000000000000169055806139a981614ece565b915050613918565b5067ffffffffffffffff84166000908152606d6020526040812080547fffffffffffffffffffffffff00000000000000000000000000000000000000009081168255600182018054909116905590613a0c60028301826146b0565b505067ffffffffffffffff84166000908152606e6020526040902080547fffffffffffffffff000000000000000000000000000000000000000000000000169055606f8054829190600890613a7c9084906801000000000000000090046bffffffffffffffffffffffff16614e55565b82546101009290920a6bffffffffffffffffffffffff8181021990931691831602179091556069546040517fa9059cbb0000000000000000000000000000000000000000000000000000000081526001600160a01b03878116600483015292851660248201529116915063a9059cbb906044016020604051808303816000875af1158015613b0e573d6000803e3d6000fd5b505050506040513d601f19601f82011682018060405250810190613b329190614f06565b613b68576040517ff4d678b800000000000000000000000000000000000000000000000000000000815260040160405180910390fd5b604080516001600160a01b03851681526bffffffffffffffffffffffff8316602082015267ffffffffffffffff8616917fe8ed5b475a5b5987aa9165e8731bb78043f39eee32ec5a1169a89e27fcd4981591016107b1565b60345460ff1615610ff9576040517f08c379a000000000000000000000000000000000000000000000000000000000815260206004820152601060248201527f5061757361626c653a207061757365640000000000000000000000000000000060448201526064016106ab565b613c36336137ac565b610ff9576040517f0809490800000000000000000000000000000000000000000000000000000000815260040160405180910390fd5b60005a611388811015613c7e57600080fd5b611388810390508460408204820311613c9657600080fd5b50823b613ca257600080fd5b60008083516020850160008789f1949350505050565b6040805160608101825260008082526020820181905291810182905290613cdd613f03565b905060008113613d1c576040517f43d4cf66000000000000000000000000000000000000000000000000000000008152600481018290526024016106ab565b6000815a8b613d2b8c89614f28565b613d359190614f28565b613d3f9190614f3b565b613d5186670de0b6b3a7640000614f7d565b613d5b9190614f7d565b613d659190614fc3565b90506000613d846bffffffffffffffffffffffff808916908b16614f28565b9050613d9c816b033b2e3c9fd0803ce8000000614f3b565b821115613dd5576040517fe80fa38100000000000000000000000000000000000000000000000000000000815260040160405180910390fd5b6000613de460ff8a168b615231565b9050826000613dfb613df68584614f28565b6142b4565b604080516060810182526bffffffffffffffffffffffff958616815293851660208501529316928201929092529c9b505050505050505050505050565b613e40614356565b603480547fffffffffffffffffffffffffffffffffffffffffffffffffffffffffffffff001690557f5db9ee0a495bf2e6ff9c91a7834c1ba4fdd244a5e8aa4e537bd38aeae4b073aa335b6040516001600160a01b03909116815260200160405180910390a1565b613eb0613bc0565b603480547fffffffffffffffffffffffffffffffffffffffffffffffffffffffffffffff001660011790557f62e78cea01bee320cd4e420270b5ea74000d11b0c9f74754ebdbfc544b05a258613e8b3390565b607354606a54604080517ffeaf968c000000000000000000000000000000000000000000000000000000008152905160009365010000000000900463ffffffff169283151592859283926001600160a01b03169163feaf968c9160048083019260a09291908290030181865afa158015613f81573d6000803e3d6000fd5b505050506040513d601f19601f82011682018060405250810190613fa59190615276565b50935050925050828015613fc75750613fbe8142614f3b565b8463ffffffff16105b15613fd25760725491505b509392505050565b600054610100900460ff16614071576040517f08c379a000000000000000000000000000000000000000000000000000000000815260206004820152602b60248201527f496e697469616c697a61626c653a20636f6e7472616374206973206e6f74206960448201527f6e697469616c697a696e6700000000000000000000000000000000000000000060648201526084016106ab565b610ff96143c2565b600054610100900460ff16614110576040517f08c379a000000000000000000000000000000000000000000000000000000000815260206004820152602b60248201527f496e697469616c697a61626c653a20636f6e7472616374206973206e6f74206960448201527f6e697469616c697a696e6700000000000000000000000000000000000000000060648201526084016106ab565b6001600160a01b038216614150576040517fb6b515fa00000000000000000000000000000000000000000000000000000000815260040160405180910390fd5b600080546001600160a01b0380851662010000027fffffffffffffffffffff0000000000000000000000000000000000000000ffff9092169190911790915581161561060257610602816141e0565b60006141a96137bf565b50600190565b60006141c4836001600160a01b038416614483565b9392505050565b60006141c4836001600160a01b03841661457d565b336001600160a01b03821603614222576040517f282010c300000000000000000000000000000000000000000000000000000000815260040160405180910390fd5b600180547fffffffffffffffffffffffff0000000000000000000000000000000000000000166001600160a01b038381169182179092556000805460405192936201000090910416917fed8889f560326eb138920d842192f0eb3dd22b4f139c87a2c57538e05bae12789190a350565b6001600160a01b038116600090815260018301602052604081205415156141c4565b60006bffffffffffffffffffffffff821115614352576040517f08c379a000000000000000000000000000000000000000000000000000000000815260206004820152602660248201527f53616665436173743a2076616c756520646f65736e27742066697420696e203960448201527f362062697473000000000000000000000000000000000000000000000000000060648201526084016106ab565b5090565b60345460ff16610ff9576040517f08c379a000000000000000000000000000000000000000000000000000000000815260206004820152601460248201527f5061757361626c653a206e6f742070617573656400000000000000000000000060448201526064016106ab565b600054610100900460ff16614459576040517f08c379a000000000000000000000000000000000000000000000000000000000815260206004820152602b60248201527f496e697469616c697a61626c653a20636f6e7472616374206973206e6f74206960448201527f6e697469616c697a696e6700000000000000000000000000000000000000000060648201526084016106ab565b603480547fffffffffffffffffffffffffffffffffffffffffffffffffffffffffffffff00169055565b6000818152600183016020526040812054801561456c5760006144a7600183614f3b565b85549091506000906144bb90600190614f3b565b90508181146145205760008660000182815481106144db576144db614e7a565b90600052602060002001549050808760000184815481106144fe576144fe614e7a565b6000918252602080832090910192909255918252600188019052604090208390555b855486908061453157614531614f4e565b6001900381819060005260206000200160009055905585600101600086815260200190815260200160002060009055600193505050506137b9565b60009150506137b9565b5092915050565b60008181526001830160205260408120546145c4575081546001818101845560008481526020808220909301849055845484825282860190935260409020919091556137b9565b5060006137b9565b828054828255906000526020600020908101928215614639579160200282015b8281111561463957825182547fffffffffffffffffffffffff0000000000000000000000000000000000000000166001600160a01b039091161782556020909201916001909101906145ec565b506143529291506146ca565b828054828255906000526020600020908101928215614639579160200282015b828111156146395781547fffffffffffffffffffffffff0000000000000000000000000000000000000000166001600160a01b03843516178255602090920191600190910190614665565b50805460008255906000526020600020908101906137a991905b5b8082111561435257600081556001016146cb565b600081518084526020808501945080840160005b838110156147185781516001600160a01b0316875295820195908201906001016146f3565b509495945050505050565b63ffffffff8316815260406020820152600061474260408301846146df565b949350505050565b803567ffffffffffffffff8116811461476257600080fd5b919050565b60006020828403121561477957600080fd5b6141c48261474a565b80356001600160a01b038116811461476257600080fd5b600080604083850312156147ac57600080fd5b6147b58361474a565b91506147c360208401614782565b90509250929050565b60008083601f8401126147de57600080fd5b50813567ffffffffffffffff8111156147f657600080fd5b60208301915083602082850101111561480e57600080fd5b9250929050565b7f4e487b7100000000000000000000000000000000000000000000000000000000600052604160045260246000fd5b803560ff8116811461476257600080fd5b6000806000806000806000806000806104c08b8d03121561487557600080fd5b8a35995060208b013567ffffffffffffffff8082111561489457600080fd5b6148a08e838f016147cc565b909b50995060408d01359150808211156148b957600080fd5b6148c58e838f016147cc565b90995097508791506148d960608e01614782565b96508d609f8e01126148ea57600080fd5b60405191506103e08201828110828211171561490857614908614815565b60405250806104608d018e81111561491f57600080fd5b60808e015b818110156149435761493581614782565b835260209283019201614924565b5082965061495081614844565b95505050506104808b013591506104a08b013590509295989b9194979a5092959850565b60208101600383106149af577f4e487b7100000000000000000000000000000000000000000000000000000000600052602160045260246000fd5b91905290565b6020815260006141c460208301846146df565b803563ffffffff8116811461476257600080fd5b60008060008060008060c087890312156149f557600080fd5b6149fe876149c8565b9550614a0c602088016149c8565b94506040870135935060608701359250614a28608088016149c8565b9150614a3660a088016149c8565b90509295509295509295565b6bffffffffffffffffffffffff811681146137a957600080fd5b60008060408385031215614a6f57600080fd5b614a7883614782565b91506020830135614a8881614a42565b809150509250929050565b60008083601f840112614aa557600080fd5b50813567ffffffffffffffff811115614abd57600080fd5b6020830191508360208260051b850101111561480e57600080fd5b60008060208385031215614aeb57600080fd5b823567ffffffffffffffff811115614b0257600080fd5b614b0e85828601614a93565b90969095509350505050565b60008060008060808587031215614b3057600080fd5b614b39856149c8565b9350602085013592506040850135614b5081614a42565b91506060850135614b6081614a42565b939692955090935050565b6bffffffffffffffffffffffff841681526001600160a01b0383166020820152606060408201526000614ba160608301846146df565b95945050505050565b60008060008060608587031215614bc057600080fd5b614bc985614782565b935060208501359250604085013567ffffffffffffffff811115614bec57600080fd5b614bf8878288016147cc565b95989497509550505050565b600080600083850360a0811215614c1a57600080fd5b843567ffffffffffffffff811115614c3157600080fd5b614c3d878288016147cc565b90955093505060807fffffffffffffffffffffffffffffffffffffffffffffffffffffffffffffffe082011215614c7357600080fd5b506020840190509250925092565b600080600060608486031215614c9657600080fd5b614c9f84614782565b9250614cad60208501614782565b9150614cbb60408501614782565b90509250925092565b600060208284031215614cd657600080fd5b6141c482614782565b600060808284031215614cf157600080fd5b6040516080810181811067ffffffffffffffff82111715614d1457614d14614815565b604052905080614d238361474a565b8152614d3160208401614782565b6020820152614d42604084016149c8565b6040820152606083013560608201525092915050565b600080600060a08486031215614d6d57600080fd5b833567ffffffffffffffff811115614d8457600080fd5b614d90868287016147cc565b9094509250614cbb90508560208601614cdf565b8183528181602085013750600060208284010152600060207fffffffffffffffffffffffffffffffffffffffffffffffffffffffffffffffe0601f840116840101905092915050565b858152606060208201526000614e07606083018688614da4565b8281036040840152614e1a818587614da4565b98975050505050505050565b7f4e487b7100000000000000000000000000000000000000000000000000000000600052601160045260246000fd5b6bffffffffffffffffffffffff82811682821603908082111561457657614576614e26565b7f4e487b7100000000000000000000000000000000000000000000000000000000600052603260045260246000fd5b6bffffffffffffffffffffffff81811683821601908082111561457657614576614e26565b60007fffffffffffffffffffffffffffffffffffffffffffffffffffffffffffffffff8203614eff57614eff614e26565b5060010190565b600060208284031215614f1857600080fd5b815180151581146141c457600080fd5b808201808211156137b9576137b9614e26565b818103818111156137b9576137b9614e26565b7f4e487b7100000000000000000000000000000000000000000000000000000000600052603160045260246000fd5b80820281158282048414176137b9576137b9614e26565b7f4e487b7100000000000000000000000000000000000000000000000000000000600052601260045260246000fd5b600082614fd257614fd2614f94565b500490565b600067ffffffffffffffff808316818103614ff457614ff4614e26565b6001019392505050565b60006020828403121561501057600080fd5b6141c4826149c8565b60a08152600061502d60a083018587614da4565b905067ffffffffffffffff6150418461474a565b1660208301526001600160a01b0361505b60208501614782565b16604083015263ffffffff615072604085016149c8565b16606083015260608301356080830152949350505050565b60006020828403121561509c57600080fd5b81516141c481614a42565b6000608082840312156150b957600080fd5b6141c48383614cdf565b67ffffffffffffffff81811683821601908082111561457657614576614e26565b60006101208201905067ffffffffffffffff83511682526001600160a01b0360208401511660208301526040830151615125604084018263ffffffff169052565b5060608301516060830152608083015161514a60808401826001600160a01b03169052565b5060a083015161516a60a08401826bffffffffffffffffffffffff169052565b5060c083015161518a60c08401826bffffffffffffffffffffffff169052565b5060e08301516151aa60e08401826bffffffffffffffffffffffff169052565b5061010092830151919092015290565b6000602082840312156151cc57600080fd5b5051919050565b6040808252810183905260008460608301825b86811015615214576001600160a01b036151ff84614782565b168252602092830192909101906001016151e6565b5080925050506001600160a01b0383166020830152949350505050565b60006bffffffffffffffffffffffff8084168061525057615250614f94565b92169190910492915050565b805169ffffffffffffffffffff8116811461476257600080fd5b600080600080600060a0868803121561528e57600080fd5b6152978661525c565b94506020860151935060408601519250606086015191506152ba6080870161525c565b9050929550929590935056fea164736f6c6343000815000a496e697469616c697a61626c653a20636f6e7472616374206973206e6f742069",
    "linkReferences": {}
  },
  "methodIdentifiers": {
    "MAX_CONSUMERS()": "64d51a2a",
    "acceptOwnership()": "79ba5097",
    "acceptSubscriptionOwnerTransfer(uint64)": "82359740",
    "addConsumer(uint64,address)": "7341c10c",
    "cancelSubscription(uint64,address)": "d7ae1d30",
    "createSubscription()": "a21a23e4",
    "estimateCost(uint32,uint256,uint96,uint96)": "a1a6d041",
    "fulfillAndBill(bytes32,bytes,bytes,address,address[31],uint8,uint256,uint256)": "0739e4f1",
    "getAuthorizedSenders()": "2408afaa",
    "getConfig()": "c3f909d4",
    "getCurrentsubscriptionId()": "33652e3e",
    "getRequestConfig()": "00012291",
    "getRequiredFee(bytes,(uint64,address,uint32,uint256))": "f1e14a21",
    "getSubscription(uint64)": "a47c7696",
    "getSubscriptionOwner(uint64)": "b2a489ff",
    "getTotalBalance()": "12b58349",
    "initialize(address,address,address)": "c0c53b8b",
    "isAuthorizedSender(address)": "fa00763a",
    "onTokenTransfer(address,uint256,bytes)": "a4c0ed36",
    "oracleWithdraw(address,uint96)": "66316d8d",
    "owner()": "8da5cb5b",
    "ownerCancelSubscription(uint64)": "02bcc5b6",
    "pause()": "8456cb59",
    "paused()": "5c975abb",
    "pendingRequestExists(uint64)": "e82ad7d4",
    "recoverFunds(address)": "e72f6e30",
    "removeConsumer(uint64,address)": "9f87fad7",
    "requestSubscriptionOwnerTransfer(uint64,address)": "04c357cb",
    "setAuthorizedSenders(address[])": "ee56997b",
    "setConfig(uint32,uint32,uint256,int256,uint32,uint32)": "27923e41",
    "startBilling(bytes,(uint64,address,uint32,uint256))": "a9d03c05",
    "timeoutRequests(bytes32[])": "665871ec",
    "transferOwnership(address)": "f2fde38b",
    "unpause()": "3f4ba83a"
  },
  "id": 179
}