{
  "abi": [
    {
      "inputs": [
        {
          "internalType": "address",
          "name": "router",
          "type": "address"
        },
        {
          "internalType": "address",
          "name": "link",
          "type": "address"
        }
      ],
      "stateMutability": "nonpayable",
      "type": "constructor"
    },
    {
      "inputs": [
        {
          "internalType": "address",
          "name": "owner",
          "type": "address"
        },
        {
          "internalType": "address",
          "name": "target",
          "type": "address"
        },
        {
          "internalType": "uint256",
          "name": "value",
          "type": "uint256"
        }
      ],
      "name": "FailedToWithdrawEth",
      "type": "error"
    },
    {
      "anonymous": false,
      "inputs": [
        {
          "indexed": false,
          "internalType": "bytes32",
          "name": "messageId",
          "type": "bytes32"
        }
      ],
      "name": "MessageSent",
      "type": "event"
    },
    {
      "anonymous": false,
      "inputs": [
        {
          "indexed": true,
          "internalType": "address",
          "name": "from",
          "type": "address"
        },
        {
          "indexed": true,
          "internalType": "address",
          "name": "to",
          "type": "address"
        }
      ],
      "name": "OwnershipTransferRequested",
      "type": "event"
    },
    {
      "anonymous": false,
      "inputs": [
        {
          "indexed": true,
          "internalType": "address",
          "name": "from",
          "type": "address"
        },
        {
          "indexed": true,
          "internalType": "address",
          "name": "to",
          "type": "address"
        }
      ],
      "name": "OwnershipTransferred",
      "type": "event"
    },
    {
      "inputs": [],
      "name": "acceptOwnership",
      "outputs": [],
      "stateMutability": "nonpayable",
      "type": "function"
    },
    {
      "inputs": [
        {
          "internalType": "uint64",
          "name": "destinationChainSelector",
          "type": "uint64"
        },
        {
          "internalType": "address",
          "name": "receiver",
          "type": "address"
        },
        {
          "internalType": "enum SourceMinter.PayFeesIn",
          "name": "payFeesIn",
          "type": "uint8"
        },
        {
          "components": [
            {
              "internalType": "enum SourceMinter.treasuryType",
              "name": "_type",
              "type": "uint8"
            },
            {
              "internalType": "uint24",
              "name": "_apy",
              "type": "uint24"
            },
            {
              "internalType": "uint256",
              "name": "_minInvestment",
              "type": "uint256"
            },
            {
              "internalType": "uint256",
              "name": "_validThru",
              "type": "uint256"
            },
            {
              "internalType": "uint256",
              "name": "_avlbTokens",
              "type": "uint256"
            },
            {
              "internalType": "uint256",
              "name": "_creation",
              "type": "uint256"
            }
          ],
          "internalType": "struct SourceMinter.treasuryData",
          "name": "_data",
          "type": "tuple"
        }
      ],
      "name": "emission",
      "outputs": [],
      "stateMutability": "nonpayable",
      "type": "function"
    },
    {
      "inputs": [],
      "name": "owner",
      "outputs": [
        {
          "internalType": "address",
          "name": "",
          "type": "address"
        }
      ],
      "stateMutability": "view",
      "type": "function"
    },
    {
      "inputs": [
        {
          "internalType": "address",
          "name": "to",
          "type": "address"
        }
      ],
      "name": "transferOwnership",
      "outputs": [],
      "stateMutability": "nonpayable",
      "type": "function"
    },
    {
      "inputs": [
        {
          "internalType": "address",
          "name": "beneficiary",
          "type": "address"
        }
      ],
      "name": "withdraw",
      "outputs": [],
      "stateMutability": "nonpayable",
      "type": "function"
    },
    {
      "inputs": [
        {
          "internalType": "address",
          "name": "beneficiary",
          "type": "address"
        },
        {
          "internalType": "address",
          "name": "token",
          "type": "address"
        }
      ],
      "name": "withdrawToken",
      "outputs": [],
      "stateMutability": "nonpayable",
      "type": "function"
    },
    {
      "stateMutability": "payable",
      "type": "receive"
    }
  ],
  "bytecode": {
    "object": "0x60c060405234801561001057600080fd5b50604051620010f3380380620010f383398101604081905261003191610196565b33806000816100875760405162461bcd60e51b815260206004820152601860248201527f43616e6e6f7420736574206f776e657220746f207a65726f000000000000000060448201526064015b60405180910390fd5b600080546001600160a01b0319166001600160a01b03848116919091179091558116156100b7576100b7816100d1565b5050506001600160a01b039182166080521660a0526101c9565b336001600160a01b038216036101295760405162461bcd60e51b815260206004820152601760248201527f43616e6e6f74207472616e7366657220746f2073656c66000000000000000000604482015260640161007e565b600180546001600160a01b0319166001600160a01b0383811691821790925560008054604051929316917fed8889f560326eb138920d842192f0eb3dd22b4f139c87a2c57538e05bae12789190a350565b80516001600160a01b038116811461019157600080fd5b919050565b600080604083850312156101a957600080fd5b6101b28361017a565b91506101c06020840161017a565b90509250929050565b60805160a051610ee86200020b600039600081816103bf015261053601526000818161041301528181610507015281816105e1015261069f0152610ee86000f3fe6080604052600436106100695760003560e01c806379ba50971161004357806379ba5097146100d75780638da5cb5b146100ec578063f2fde38b1461012557600080fd5b80633aeac4e114610075578063451f28d91461009757806351cff8d9146100b757600080fd5b3661007057005b600080fd5b34801561008157600080fd5b50610095610090366004610add565b610145565b005b3480156100a357600080fd5b506100956100b2366004610b32565b610281565b3480156100c357600080fd5b506100956100d2366004610c5a565b61075a565b3480156100e357600080fd5b5061009561082b565b3480156100f857600080fd5b506000546040805173ffffffffffffffffffffffffffffffffffffffff9092168252519081900360200190f35b34801561013157600080fd5b50610095610140366004610c5a565b610928565b61014d61093c565b6040517f70a0823100000000000000000000000000000000000000000000000000000000815230600482015260009073ffffffffffffffffffffffffffffffffffffffff8316906370a0823190602401602060405180830381865afa1580156101ba573d6000803e3d6000fd5b505050506040513d601f19601f820116820180604052508101906101de9190610c7c565b6040517fa9059cbb00000000000000000000000000000000000000000000000000000000815273ffffffffffffffffffffffffffffffffffffffff8581166004830152602482018390529192509083169063a9059cbb906044016020604051808303816000875af1158015610257573d6000803e3d6000fd5b505050506040513d601f19601f8201168201806040525081019061027b9190610c95565b50505050565b6040805160a0810190915273ffffffffffffffffffffffffffffffffffffffff841660c08201526000908060e081016040516020818303038152906040528152602001836040516024016102d59190610ce6565b604080517fffffffffffffffffffffffffffffffffffffffffffffffffffffffffffffffe0818403018152919052602080820180517bffffffffffffffffffffffffffffffffffffffffffffffffffffffff167fa768ef650000000000000000000000000000000000000000000000000000000017905290825201600060405190808252806020026020018201604052801561039757816020015b60408051808201909152600080825260208201528152602001906001900390816103705790505b50815260200160018560018111156103b1576103b1610cb7565b146103bd5760006103df565b7f00000000000000000000000000000000000000000000000000000000000000005b73ffffffffffffffffffffffffffffffffffffffff16815260200160405180602001604052806000815250815250905060007f000000000000000000000000000000000000000000000000000000000000000073ffffffffffffffffffffffffffffffffffffffff166320487ded87846040518363ffffffff1660e01b815260040161046c929190610dc9565b602060405180830381865afa158015610489573d6000803e3d6000fd5b505050506040513d601f19601f820116820180604052508101906104ad9190610c7c565b9050600060018560018111156104c5576104c5610cb7565b03610662576040517f095ea7b300000000000000000000000000000000000000000000000000000000815273ffffffffffffffffffffffffffffffffffffffff7f000000000000000000000000000000000000000000000000000000000000000081166004830152602482018490527f0000000000000000000000000000000000000000000000000000000000000000169063095ea7b3906044016020604051808303816000875af115801561057f573d6000803e3d6000fd5b505050506040513d601f19601f820116820180604052508101906105a39190610c95565b506040517f96f4e9f900000000000000000000000000000000000000000000000000000000815273ffffffffffffffffffffffffffffffffffffffff7f000000000000000000000000000000000000000000000000000000000000000016906396f4e9f990610618908a908790600401610dc9565b6020604051808303816000875af1158015610637573d6000803e3d6000fd5b505050506040513d601f19601f8201168201806040525081019061065b9190610c7c565b905061071e565b6040517f96f4e9f900000000000000000000000000000000000000000000000000000000815273ffffffffffffffffffffffffffffffffffffffff7f000000000000000000000000000000000000000000000000000000000000000016906396f4e9f99084906106d8908b908890600401610dc9565b60206040518083038185885af11580156106f6573d6000803e3d6000fd5b50505050506040513d601f19601f8201168201806040525081019061071b9190610c7c565b90505b6040518181527f54791b38f3859327992a1ca0590ad3c0f08feba98d1a4f56ab0dca74d203392a9060200160405180910390a150505050505050565b61076261093c565b604051479060009073ffffffffffffffffffffffffffffffffffffffff84169083908381818185875af1925050503d80600081146107bc576040519150601f19603f3d011682016040523d82523d6000602084013e6107c1565b606091505b5050905080610826576040517f9d11f56300000000000000000000000000000000000000000000000000000000815233600482015273ffffffffffffffffffffffffffffffffffffffff84166024820152604481018390526064015b60405180910390fd5b505050565b60015473ffffffffffffffffffffffffffffffffffffffff1633146108ac576040517f08c379a000000000000000000000000000000000000000000000000000000000815260206004820152601660248201527f4d7573742062652070726f706f736564206f776e657200000000000000000000604482015260640161081d565b60008054337fffffffffffffffffffffffff00000000000000000000000000000000000000008083168217845560018054909116905560405173ffffffffffffffffffffffffffffffffffffffff90921692909183917f8be0079c531659141344cd1fd0a4f28419497f9722a3daafe3b4186f6b6457e091a350565b61093061093c565b610939816109bf565b50565b60005473ffffffffffffffffffffffffffffffffffffffff1633146109bd576040517f08c379a000000000000000000000000000000000000000000000000000000000815260206004820152601660248201527f4f6e6c792063616c6c61626c65206279206f776e657200000000000000000000604482015260640161081d565b565b3373ffffffffffffffffffffffffffffffffffffffff821603610a3e576040517f08c379a000000000000000000000000000000000000000000000000000000000815260206004820152601760248201527f43616e6e6f74207472616e7366657220746f2073656c66000000000000000000604482015260640161081d565b600180547fffffffffffffffffffffffff00000000000000000000000000000000000000001673ffffffffffffffffffffffffffffffffffffffff83811691821790925560008054604051929316917fed8889f560326eb138920d842192f0eb3dd22b4f139c87a2c57538e05bae12789190a350565b803573ffffffffffffffffffffffffffffffffffffffff81168114610ad857600080fd5b919050565b60008060408385031215610af057600080fd5b610af983610ab4565b9150610b0760208401610ab4565b90509250929050565b803560058110610ad857600080fd5b803562ffffff81168114610ad857600080fd5b600080600080848603610120811215610b4a57600080fd5b853567ffffffffffffffff8082168214610b6357600080fd5b819650610b7260208901610ab4565b95506040880135915060028210610b8857600080fd5b81945060c07fffffffffffffffffffffffffffffffffffffffffffffffffffffffffffffffa084011215610bbb57600080fd5b604051925060c0830191508282108183111715610c01577f4e487b7100000000000000000000000000000000000000000000000000000000600052604160045260246000fd5b50604052610c1160608701610b10565b8152610c1f60808701610b1f565b602082015260a0860135604082015260c0860135606082015260e0860135608082015261010086013560a08201528091505092959194509250565b600060208284031215610c6c57600080fd5b610c7582610ab4565b9392505050565b600060208284031215610c8e57600080fd5b5051919050565b600060208284031215610ca757600080fd5b81518015158114610c7557600080fd5b7f4e487b7100000000000000000000000000000000000000000000000000000000600052602160045260246000fd5b815160c082019060058110610d24577f4e487b7100000000000000000000000000000000000000000000000000000000600052602160045260246000fd5b8083525062ffffff602084015116602083015260408301516040830152606083015160608301526080830151608083015260a083015160a083015292915050565b6000815180845260005b81811015610d8b57602081850181015186830182015201610d6f565b5060006020828601015260207fffffffffffffffffffffffffffffffffffffffffffffffffffffffffffffffe0601f83011685010191505092915050565b6000604067ffffffffffffffff8516835260208181850152845160a083860152610df660e0860182610d65565b9050818601517fffffffffffffffffffffffffffffffffffffffffffffffffffffffffffffffc080878403016060880152610e318383610d65565b88860151888203830160808a01528051808352908601945060009350908501905b80841015610e91578451805173ffffffffffffffffffffffffffffffffffffffff16835286015186830152938501936001939093019290860190610e52565b50606089015173ffffffffffffffffffffffffffffffffffffffff1660a08901526080890151888203830160c08a01529550610ecd8187610d65565b9a995050505050505050505056fea164736f6c6343000815000a",
    "linkReferences": {}
  },
  "methodIdentifiers": {
    "acceptOwnership()": "79ba5097",
    "emission(uint64,address,uint8,(uint8,uint24,uint256,uint256,uint256,uint256))": "451f28d9",
    "owner()": "8da5cb5b",
    "transferOwnership(address)": "f2fde38b",
    "withdraw(address)": "51cff8d9",
    "withdrawToken(address,address)": "3aeac4e1"
  },
  "id": 43
}