{
  "abi": [
    {
      "inputs": [
        {
          "internalType": "contract IBurnMintERC20",
          "name": "token",
          "type": "address"
        },
        {
          "internalType": "address[]",
          "name": "allowlist",
          "type": "address[]"
        },
        {
          "internalType": "address",
          "name": "armProxy",
          "type": "address"
        }
      ],
      "stateMutability": "nonpayable",
      "type": "constructor"
    },
    {
      "inputs": [
        {
          "internalType": "uint256",
          "name": "capacity",
          "type": "uint256"
        },
        {
          "internalType": "uint256",
          "name": "requested",
          "type": "uint256"
        }
      ],
      "name": "AggregateValueMaxCapacityExceeded",
      "type": "error"
    },
    {
      "inputs": [
        {
          "internalType": "uint256",
          "name": "minWaitInSeconds",
          "type": "uint256"
        },
        {
          "internalType": "uint256",
          "name": "available",
          "type": "uint256"
        }
      ],
      "name": "AggregateValueRateLimitReached",
      "type": "error"
    },
    {
      "inputs": [],
      "name": "AllowListNotEnabled",
      "type": "error"
    },
    {
      "inputs": [],
      "name": "BadARMSignal",
      "type": "error"
    },
    {
      "inputs": [],
      "name": "BucketOverfilled",
      "type": "error"
    },
    {
      "inputs": [
        {
          "internalType": "address",
          "name": "ramp",
          "type": "address"
        }
      ],
      "name": "NonExistentRamp",
      "type": "error"
    },
    {
      "inputs": [],
      "name": "PermissionsError",
      "type": "error"
    },
    {
      "inputs": [
        {
          "internalType": "address",
          "name": "ramp",
          "type": "address"
        }
      ],
      "name": "RampAlreadyExists",
      "type": "error"
    },
    {
      "inputs": [
        {
          "internalType": "address",
          "name": "sender",
          "type": "address"
        }
      ],
      "name": "SenderNotAllowed",
      "type": "error"
    },
    {
      "inputs": [
        {
          "internalType": "uint256",
          "name": "capacity",
          "type": "uint256"
        },
        {
          "internalType": "uint256",
          "name": "requested",
          "type": "uint256"
        },
        {
          "internalType": "address",
          "name": "tokenAddress",
          "type": "address"
        }
      ],
      "name": "TokenMaxCapacityExceeded",
      "type": "error"
    },
    {
      "inputs": [
        {
          "internalType": "uint256",
          "name": "minWaitInSeconds",
          "type": "uint256"
        },
        {
          "internalType": "uint256",
          "name": "available",
          "type": "uint256"
        },
        {
          "internalType": "address",
          "name": "tokenAddress",
          "type": "address"
        }
      ],
      "name": "TokenRateLimitReached",
      "type": "error"
    },
    {
      "inputs": [],
      "name": "ZeroAddressNotAllowed",
      "type": "error"
    },
    {
      "anonymous": false,
      "inputs": [
        {
          "indexed": false,
          "internalType": "address",
          "name": "sender",
          "type": "address"
        }
      ],
      "name": "AllowListAdd",
      "type": "event"
    },
    {
      "anonymous": false,
      "inputs": [
        {
          "indexed": false,
          "internalType": "address",
          "name": "sender",
          "type": "address"
        }
      ],
      "name": "AllowListRemove",
      "type": "event"
    },
    {
      "anonymous": false,
      "inputs": [
        {
          "indexed": true,
          "internalType": "address",
          "name": "sender",
          "type": "address"
        },
        {
          "indexed": false,
          "internalType": "uint256",
          "name": "amount",
          "type": "uint256"
        }
      ],
      "name": "Burned",
      "type": "event"
    },
    {
      "anonymous": false,
      "inputs": [
        {
          "components": [
            {
              "internalType": "bool",
              "name": "isEnabled",
              "type": "bool"
            },
            {
              "internalType": "uint128",
              "name": "capacity",
              "type": "uint128"
            },
            {
              "internalType": "uint128",
              "name": "rate",
              "type": "uint128"
            }
          ],
          "indexed": false,
          "internalType": "struct RateLimiter.Config",
          "name": "config",
          "type": "tuple"
        }
      ],
      "name": "ConfigChanged",
      "type": "event"
    },
    {
      "anonymous": false,
      "inputs": [
        {
          "indexed": true,
          "internalType": "address",
          "name": "sender",
          "type": "address"
        },
        {
          "indexed": false,
          "internalType": "uint256",
          "name": "amount",
          "type": "uint256"
        }
      ],
      "name": "Locked",
      "type": "event"
    },
    {
      "anonymous": false,
      "inputs": [
        {
          "indexed": true,
          "internalType": "address",
          "name": "sender",
          "type": "address"
        },
        {
          "indexed": true,
          "internalType": "address",
          "name": "recipient",
          "type": "address"
        },
        {
          "indexed": false,
          "internalType": "uint256",
          "name": "amount",
          "type": "uint256"
        }
      ],
      "name": "Minted",
      "type": "event"
    },
    {
      "anonymous": false,
      "inputs": [
        {
          "indexed": false,
          "internalType": "address",
          "name": "offRamp",
          "type": "address"
        },
        {
          "components": [
            {
              "internalType": "bool",
              "name": "isEnabled",
              "type": "bool"
            },
            {
              "internalType": "uint128",
              "name": "capacity",
              "type": "uint128"
            },
            {
              "internalType": "uint128",
              "name": "rate",
              "type": "uint128"
            }
          ],
          "indexed": false,
          "internalType": "struct RateLimiter.Config",
          "name": "rateLimiterConfig",
          "type": "tuple"
        }
      ],
      "name": "OffRampAdded",
      "type": "event"
    },
    {
      "anonymous": false,
      "inputs": [
        {
          "indexed": false,
          "internalType": "address",
          "name": "offRamp",
          "type": "address"
        },
        {
          "components": [
            {
              "internalType": "bool",
              "name": "isEnabled",
              "type": "bool"
            },
            {
              "internalType": "uint128",
              "name": "capacity",
              "type": "uint128"
            },
            {
              "internalType": "uint128",
              "name": "rate",
              "type": "uint128"
            }
          ],
          "indexed": false,
          "internalType": "struct RateLimiter.Config",
          "name": "rateLimiterConfig",
          "type": "tuple"
        }
      ],
      "name": "OffRampConfigured",
      "type": "event"
    },
    {
      "anonymous": false,
      "inputs": [
        {
          "indexed": false,
          "internalType": "address",
          "name": "offRamp",
          "type": "address"
        }
      ],
      "name": "OffRampRemoved",
      "type": "event"
    },
    {
      "anonymous": false,
      "inputs": [
        {
          "indexed": false,
          "internalType": "address",
          "name": "onRamp",
          "type": "address"
        },
        {
          "components": [
            {
              "internalType": "bool",
              "name": "isEnabled",
              "type": "bool"
            },
            {
              "internalType": "uint128",
              "name": "capacity",
              "type": "uint128"
            },
            {
              "internalType": "uint128",
              "name": "rate",
              "type": "uint128"
            }
          ],
          "indexed": false,
          "internalType": "struct RateLimiter.Config",
          "name": "rateLimiterConfig",
          "type": "tuple"
        }
      ],
      "name": "OnRampAdded",
      "type": "event"
    },
    {
      "anonymous": false,
      "inputs": [
        {
          "indexed": false,
          "internalType": "address",
          "name": "onRamp",
          "type": "address"
        },
        {
          "components": [
            {
              "internalType": "bool",
              "name": "isEnabled",
              "type": "bool"
            },
            {
              "internalType": "uint128",
              "name": "capacity",
              "type": "uint128"
            },
            {
              "internalType": "uint128",
              "name": "rate",
              "type": "uint128"
            }
          ],
          "indexed": false,
          "internalType": "struct RateLimiter.Config",
          "name": "rateLimiterConfig",
          "type": "tuple"
        }
      ],
      "name": "OnRampConfigured",
      "type": "event"
    },
    {
      "anonymous": false,
      "inputs": [
        {
          "indexed": false,
          "internalType": "address",
          "name": "onRamp",
          "type": "address"
        }
      ],
      "name": "OnRampRemoved",
      "type": "event"
    },
    {
      "anonymous": false,
      "inputs": [
        {
          "indexed": true,
          "internalType": "address",
          "name": "from",
          "type": "address"
        },
        {
          "indexed": true,
          "internalType": "address",
          "name": "to",
          "type": "address"
        }
      ],
      "name": "OwnershipTransferRequested",
      "type": "event"
    },
    {
      "anonymous": false,
      "inputs": [
        {
          "indexed": true,
          "internalType": "address",
          "name": "from",
          "type": "address"
        },
        {
          "indexed": true,
          "internalType": "address",
          "name": "to",
          "type": "address"
        }
      ],
      "name": "OwnershipTransferred",
      "type": "event"
    },
    {
      "anonymous": false,
      "inputs": [
        {
          "indexed": true,
          "internalType": "address",
          "name": "sender",
          "type": "address"
        },
        {
          "indexed": true,
          "internalType": "address",
          "name": "recipient",
          "type": "address"
        },
        {
          "indexed": false,
          "internalType": "uint256",
          "name": "amount",
          "type": "uint256"
        }
      ],
      "name": "Released",
      "type": "event"
    },
    {
      "anonymous": false,
      "inputs": [
        {
          "indexed": false,
          "internalType": "uint256",
          "name": "tokens",
          "type": "uint256"
        }
      ],
      "name": "TokensConsumed",
      "type": "event"
    },
    {
      "inputs": [],
      "name": "acceptOwnership",
      "outputs": [],
      "stateMutability": "nonpayable",
      "type": "function"
    },
    {
      "inputs": [
        {
          "internalType": "address[]",
          "name": "removes",
          "type": "address[]"
        },
        {
          "internalType": "address[]",
          "name": "adds",
          "type": "address[]"
        }
      ],
      "name": "applyAllowListUpdates",
      "outputs": [],
      "stateMutability": "nonpayable",
      "type": "function"
    },
    {
      "inputs": [
        {
          "components": [
            {
              "internalType": "address",
              "name": "ramp",
              "type": "address"
            },
            {
              "internalType": "bool",
              "name": "allowed",
              "type": "bool"
            },
            {
              "components": [
                {
                  "internalType": "bool",
                  "name": "isEnabled",
                  "type": "bool"
                },
                {
                  "internalType": "uint128",
                  "name": "capacity",
                  "type": "uint128"
                },
                {
                  "internalType": "uint128",
                  "name": "rate",
                  "type": "uint128"
                }
              ],
              "internalType": "struct RateLimiter.Config",
              "name": "rateLimiterConfig",
              "type": "tuple"
            }
          ],
          "internalType": "struct TokenPool.RampUpdate[]",
          "name": "onRamps",
          "type": "tuple[]"
        },
        {
          "components": [
            {
              "internalType": "address",
              "name": "ramp",
              "type": "address"
            },
            {
              "internalType": "bool",
              "name": "allowed",
              "type": "bool"
            },
            {
              "components": [
                {
                  "internalType": "bool",
                  "name": "isEnabled",
                  "type": "bool"
                },
                {
                  "internalType": "uint128",
                  "name": "capacity",
                  "type": "uint128"
                },
                {
                  "internalType": "uint128",
                  "name": "rate",
                  "type": "uint128"
                }
              ],
              "internalType": "struct RateLimiter.Config",
              "name": "rateLimiterConfig",
              "type": "tuple"
            }
          ],
          "internalType": "struct TokenPool.RampUpdate[]",
          "name": "offRamps",
          "type": "tuple[]"
        }
      ],
      "name": "applyRampUpdates",
      "outputs": [],
      "stateMutability": "nonpayable",
      "type": "function"
    },
    {
      "inputs": [
        {
          "internalType": "address",
          "name": "offRamp",
          "type": "address"
        }
      ],
      "name": "currentOffRampRateLimiterState",
      "outputs": [
        {
          "components": [
            {
              "internalType": "uint128",
              "name": "tokens",
              "type": "uint128"
            },
            {
              "internalType": "uint32",
              "name": "lastUpdated",
              "type": "uint32"
            },
            {
              "internalType": "bool",
              "name": "isEnabled",
              "type": "bool"
            },
            {
              "internalType": "uint128",
              "name": "capacity",
              "type": "uint128"
            },
            {
              "internalType": "uint128",
              "name": "rate",
              "type": "uint128"
            }
          ],
          "internalType": "struct RateLimiter.TokenBucket",
          "name": "",
          "type": "tuple"
        }
      ],
      "stateMutability": "view",
      "type": "function"
    },
    {
      "inputs": [
        {
          "internalType": "address",
          "name": "onRamp",
          "type": "address"
        }
      ],
      "name": "currentOnRampRateLimiterState",
      "outputs": [
        {
          "components": [
            {
              "internalType": "uint128",
              "name": "tokens",
              "type": "uint128"
            },
            {
              "internalType": "uint32",
              "name": "lastUpdated",
              "type": "uint32"
            },
            {
              "internalType": "bool",
              "name": "isEnabled",
              "type": "bool"
            },
            {
              "internalType": "uint128",
              "name": "capacity",
              "type": "uint128"
            },
            {
              "internalType": "uint128",
              "name": "rate",
              "type": "uint128"
            }
          ],
          "internalType": "struct RateLimiter.TokenBucket",
          "name": "",
          "type": "tuple"
        }
      ],
      "stateMutability": "view",
      "type": "function"
    },
    {
      "inputs": [],
      "name": "getAllowList",
      "outputs": [
        {
          "internalType": "address[]",
          "name": "",
          "type": "address[]"
        }
      ],
      "stateMutability": "view",
      "type": "function"
    },
    {
      "inputs": [],
      "name": "getAllowListEnabled",
      "outputs": [
        {
          "internalType": "bool",
          "name": "",
          "type": "bool"
        }
      ],
      "stateMutability": "view",
      "type": "function"
    },
    {
      "inputs": [],
      "name": "getArmProxy",
      "outputs": [
        {
          "internalType": "address",
          "name": "armProxy",
          "type": "address"
        }
      ],
      "stateMutability": "view",
      "type": "function"
    },
    {
      "inputs": [],
      "name": "getOffRamps",
      "outputs": [
        {
          "internalType": "address[]",
          "name": "",
          "type": "address[]"
        }
      ],
      "stateMutability": "view",
      "type": "function"
    },
    {
      "inputs": [],
      "name": "getOnRamps",
      "outputs": [
        {
          "internalType": "address[]",
          "name": "",
          "type": "address[]"
        }
      ],
      "stateMutability": "view",
      "type": "function"
    },
    {
      "inputs": [],
      "name": "getToken",
      "outputs": [
        {
          "internalType": "contract IERC20",
          "name": "token",
          "type": "address"
        }
      ],
      "stateMutability": "view",
      "type": "function"
    },
    {
      "inputs": [
        {
          "internalType": "address",
          "name": "offRamp",
          "type": "address"
        }
      ],
      "name": "isOffRamp",
      "outputs": [
        {
          "internalType": "bool",
          "name": "",
          "type": "bool"
        }
      ],
      "stateMutability": "view",
      "type": "function"
    },
    {
      "inputs": [
        {
          "internalType": "address",
          "name": "onRamp",
          "type": "address"
        }
      ],
      "name": "isOnRamp",
      "outputs": [
        {
          "internalType": "bool",
          "name": "",
          "type": "bool"
        }
      ],
      "stateMutability": "view",
      "type": "function"
    },
    {
      "inputs": [
        {
          "internalType": "address",
          "name": "originalSender",
          "type": "address"
        },
        {
          "internalType": "bytes",
          "name": "",
          "type": "bytes"
        },
        {
          "internalType": "uint256",
          "name": "amount",
          "type": "uint256"
        },
        {
          "internalType": "uint64",
          "name": "",
          "type": "uint64"
        },
        {
          "internalType": "bytes",
          "name": "",
          "type": "bytes"
        }
      ],
      "name": "lockOrBurn",
      "outputs": [
        {
          "internalType": "bytes",
          "name": "",
          "type": "bytes"
        }
      ],
      "stateMutability": "nonpayable",
      "type": "function"
    },
    {
      "inputs": [],
      "name": "owner",
      "outputs": [
        {
          "internalType": "address",
          "name": "",
          "type": "address"
        }
      ],
      "stateMutability": "view",
      "type": "function"
    },
    {
      "inputs": [
        {
          "internalType": "bytes",
          "name": "",
          "type": "bytes"
        },
        {
          "internalType": "address",
          "name": "receiver",
          "type": "address"
        },
        {
          "internalType": "uint256",
          "name": "amount",
          "type": "uint256"
        },
        {
          "internalType": "uint64",
          "name": "",
          "type": "uint64"
        },
        {
          "internalType": "bytes",
          "name": "",
          "type": "bytes"
        }
      ],
      "name": "releaseOrMint",
      "outputs": [],
      "stateMutability": "nonpayable",
      "type": "function"
    },
    {
      "inputs": [
        {
          "internalType": "address",
          "name": "offRamp",
          "type": "address"
        },
        {
          "components": [
            {
              "internalType": "bool",
              "name": "isEnabled",
              "type": "bool"
            },
            {
              "internalType": "uint128",
              "name": "capacity",
              "type": "uint128"
            },
            {
              "internalType": "uint128",
              "name": "rate",
              "type": "uint128"
            }
          ],
          "internalType": "struct RateLimiter.Config",
          "name": "config",
          "type": "tuple"
        }
      ],
      "name": "setOffRampRateLimiterConfig",
      "outputs": [],
      "stateMutability": "nonpayable",
      "type": "function"
    },
    {
      "inputs": [
        {
          "internalType": "address",
          "name": "onRamp",
          "type": "address"
        },
        {
          "components": [
            {
              "internalType": "bool",
              "name": "isEnabled",
              "type": "bool"
            },
            {
              "internalType": "uint128",
              "name": "capacity",
              "type": "uint128"
            },
            {
              "internalType": "uint128",
              "name": "rate",
              "type": "uint128"
            }
          ],
          "internalType": "struct RateLimiter.Config",
          "name": "config",
          "type": "tuple"
        }
      ],
      "name": "setOnRampRateLimiterConfig",
      "outputs": [],
      "stateMutability": "nonpayable",
      "type": "function"
    },
    {
      "inputs": [
        {
          "internalType": "bytes4",
          "name": "interfaceId",
          "type": "bytes4"
        }
      ],
      "name": "supportsInterface",
      "outputs": [
        {
          "internalType": "bool",
          "name": "",
          "type": "bool"
        }
      ],
      "stateMutability": "pure",
      "type": "function"
    },
    {
      "inputs": [
        {
          "internalType": "address",
          "name": "to",
          "type": "address"
        }
      ],
      "name": "transferOwnership",
      "outputs": [],
      "stateMutability": "nonpayable",
      "type": "function"
    },
    {
      "inputs": [],
      "name": "typeAndVersion",
      "outputs": [
        {
          "internalType": "string",
          "name": "",
          "type": "string"
        }
      ],
      "stateMutability": "view",
      "type": "function"
    }
  ],
  "bytecode": {
    "object": "0x60e06040523480156200001157600080fd5b5060405162002f2e38038062002f2e83398101604081905262000034916200051d565b82828233806000816200008e5760405162461bcd60e51b815260206004820152601860248201527f43616e6e6f7420736574206f776e657220746f207a65726f000000000000000060448201526064015b60405180910390fd5b600080546001600160a01b0319166001600160a01b0384811691909117909155811615620000c157620000c18162000133565b5050506001600160a01b038316620000ec576040516342bcdf7f60e11b815260040160405180910390fd5b6001600160a01b03808416608052811660a052815115801560c0526200012757604080516000815260208101909152620001279083620001de565b5050505050506200068e565b336001600160a01b038216036200018d5760405162461bcd60e51b815260206004820152601760248201527f43616e6e6f74207472616e7366657220746f2073656c66000000000000000000604482015260640162000085565b600180546001600160a01b0319166001600160a01b0383811691821790925560008054604051929316917fed8889f560326eb138920d842192f0eb3dd22b4f139c87a2c57538e05bae12789190a350565b60c051620001ff576040516335f4a7b360e01b815260040160405180910390fd5b60005b8251811015620002945760008382815181106200022357620002236200061a565b602090810291909101015190506200023d6002826200034f565b1562000280576040516001600160a01b03821681527f800671136ab6cfee9fbe5ed1fb7ca417811aca3cf864800d127b927adedf75669060200160405180910390a15b506200028c8162000646565b905062000202565b5060005b81518110156200034a576000828281518110620002b957620002b96200061a565b6020026020010151905060006001600160a01b0316816001600160a01b031603620002e5575062000337565b620002f26002826200036f565b1562000335576040516001600160a01b03821681527f2640d4d76caf8bf478aabfa982fa4e1c4eb71a37f93cd15e80dbc657911546d89060200160405180910390a15b505b620003428162000646565b905062000298565b505050565b600062000366836001600160a01b03841662000386565b90505b92915050565b600062000366836001600160a01b0384166200048a565b600081815260018301602052604081205480156200047f576000620003ad60018362000662565b8554909150600090620003c39060019062000662565b90508181146200042f576000866000018281548110620003e757620003e76200061a565b90600052602060002001549050808760000184815481106200040d576200040d6200061a565b6000918252602080832090910192909255918252600188019052604090208390555b855486908062000443576200044362000678565b60019003818190600052602060002001600090559055856001016000868152602001908152602001600020600090556001935050505062000369565b600091505062000369565b6000818152600183016020526040812054620004d35750815460018181018455600084815260208082209093018490558454848252828601909352604090209190915562000369565b50600062000369565b6001600160a01b0381168114620004f257600080fd5b50565b634e487b7160e01b600052604160045260246000fd5b80516200051881620004dc565b919050565b6000806000606084860312156200053357600080fd5b83516200054081620004dc565b602085810151919450906001600160401b03808211156200056057600080fd5b818701915087601f8301126200057557600080fd5b8151818111156200058a576200058a620004f5565b8060051b604051601f19603f83011681018181108582111715620005b257620005b2620004f5565b60405291825284820192508381018501918a831115620005d157600080fd5b938501935b82851015620005fa57620005ea856200050b565b84529385019392850192620005d6565b80975050505050505062000611604085016200050b565b90509250925092565b634e487b7160e01b600052603260045260246000fd5b634e487b7160e01b600052601160045260246000fd5b6000600182016200065b576200065b62000630565b5060010190565b8181038181111562000369576200036962000630565b634e487b7160e01b600052603160045260246000fd5b60805160a05160c051612838620006f6600039600081816103c301528181610a320152610f08015260008181610249015281816107d50152610ab60152600081816102020152818161092d01528181610bb201528181611348015261138f01526128386000f3fe608060405234801561001057600080fd5b50600436106101775760003560e01c80638627fad6116100d8578063a7cd63b71161008c578063d612b94511610066578063d612b945146103ae578063e0351e13146103c1578063f2fde38b146103e757600080fd5b8063a7cd63b714610380578063b3a3fb4114610388578063c49907b51461039b57600080fd5b80638da5cb5b116100bd5780638da5cb5b146103475780639687544514610365578063a40e69c71461037857600080fd5b80638627fad61461031f578063873813141461033257600080fd5b806354c8a4f31161012f5780637448b3c7116101145780637448b3c7146102955780637787e7ab146102a857806379ba50971461031757600080fd5b806354c8a4f31461026d5780636f32b8721461028257600080fd5b80631d7a74a0116101605780631d7a74a0146101ed57806321df0da7146102005780635246492f1461024757600080fd5b806301ffc9a71461017c578063181f5a77146101a4575b600080fd5b61018f61018a366004611ffb565b6103fa565b60405190151581526020015b60405180910390f35b6101e06040518060400160405280601781526020017f4275726e4d696e74546f6b656e506f6f6c20312e322e3000000000000000000081525081565b60405161019b91906120a1565b61018f6101fb3660046120dd565b610493565b7f00000000000000000000000000000000000000000000000000000000000000005b60405173ffffffffffffffffffffffffffffffffffffffff909116815260200161019b565b7f0000000000000000000000000000000000000000000000000000000000000000610222565b61028061027b366004612144565b6104a0565b005b61018f6102903660046120dd565b61051b565b6102806102a3366004612287565b610528565b6102bb6102b63660046120dd565b6105f8565b60405161019b919081516fffffffffffffffffffffffffffffffff908116825260208084015163ffffffff1690830152604080840151151590830152606080840151821690830152608092830151169181019190915260a00190565b6102806106d6565b61028061032d36600461237e565b6107d3565b61033a6109dd565b60405161019b919061240d565b60005473ffffffffffffffffffffffffffffffffffffffff16610222565b6101e06103733660046124a9565b6109ee565b61033a610c74565b61033a610c80565b6102bb6103963660046120dd565b610c8c565b6102806103a936600461258c565b610d6a565b6102806103bc366004612287565b610d7e565b7f000000000000000000000000000000000000000000000000000000000000000061018f565b6102806103f53660046120dd565b610e3d565b60007fffffffff0000000000000000000000000000000000000000000000000000000082167f317fa33400000000000000000000000000000000000000000000000000000000148061048d57507fffffffff0000000000000000000000000000000000000000000000000000000082167f01ffc9a700000000000000000000000000000000000000000000000000000000145b92915050565b600061048d600783610e51565b6104a8610e83565b61051584848080602002602001604051908101604052809392919081815260200183836020028082843760009201919091525050604080516020808802828101820190935287825290935087925086918291850190849080828437600092019190915250610f0692505050565b50505050565b600061048d600483610e51565b610530610e83565b6105398261051b565b61058c576040517f498f12f600000000000000000000000000000000000000000000000000000000815273ffffffffffffffffffffffffffffffffffffffff831660048201526024015b60405180910390fd5b73ffffffffffffffffffffffffffffffffffffffff821660009081526006602052604090206105bb90826110d1565b7f578db78e348076074dbff64a94073a83e9a65aa6766b8c75fdc89282b0e30ed682826040516105ec9291906125ec565b60405180910390a15050565b6040805160a08101825260008082526020820181905291810182905260608101829052608081019190915273ffffffffffffffffffffffffffffffffffffffff8216600090815260066020908152604091829020825160a08101845281546fffffffffffffffffffffffffffffffff808216835270010000000000000000000000000000000080830463ffffffff16958401959095527401000000000000000000000000000000000000000090910460ff16151594820194909452600190910154808416606083015291909104909116608082015261048d90611280565b60015473ffffffffffffffffffffffffffffffffffffffff163314610757576040517f08c379a000000000000000000000000000000000000000000000000000000000815260206004820152601660248201527f4d7573742062652070726f706f736564206f776e6572000000000000000000006044820152606401610583565b60008054337fffffffffffffffffffffffff00000000000000000000000000000000000000008083168217845560018054909116905560405173ffffffffffffffffffffffffffffffffffffffff90921692909183917f8be0079c531659141344cd1fd0a4f28419497f9722a3daafe3b4186f6b6457e091a350565b7f000000000000000000000000000000000000000000000000000000000000000073ffffffffffffffffffffffffffffffffffffffff1663397796f76040518163ffffffff1660e01b8152600401602060405180830381865afa15801561083e573d6000803e3d6000fd5b505050506040513d601f19601f820116820180604052508101906108629190612644565b15610899576040517fc148371500000000000000000000000000000000000000000000000000000000815260040160405180910390fd5b6108a233610493565b6108d8576040517f5307f5ab00000000000000000000000000000000000000000000000000000000815260040160405180910390fd5b6108e183611332565b6040517f40c10f1900000000000000000000000000000000000000000000000000000000815273ffffffffffffffffffffffffffffffffffffffff8581166004830152602482018590527f000000000000000000000000000000000000000000000000000000000000000016906340c10f1990604401600060405180830381600087803b15801561097157600080fd5b505af1158015610985573d6000803e3d6000fd5b505060405185815273ffffffffffffffffffffffffffffffffffffffff871692503391507f9d228d69b5fdb8d273a2336f8fb8612d039631024ea9bf09c424a9503aa078f09060200160405180910390a35050505050565b60606109e9600461136c565b905090565b60606109f93361051b565b610a2f576040517f5307f5ab00000000000000000000000000000000000000000000000000000000815260040160405180910390fd5b877f00000000000000000000000000000000000000000000000000000000000000008015610a655750610a63600282610e51565b155b15610ab4576040517fd0d2597600000000000000000000000000000000000000000000000000000000815273ffffffffffffffffffffffffffffffffffffffff82166004820152602401610583565b7f000000000000000000000000000000000000000000000000000000000000000073ffffffffffffffffffffffffffffffffffffffff1663397796f76040518163ffffffff1660e01b8152600401602060405180830381865afa158015610b1f573d6000803e3d6000fd5b505050506040513d601f19601f82011682018060405250810190610b439190612644565b15610b7a576040517fc148371500000000000000000000000000000000000000000000000000000000815260040160405180910390fd5b610b8386611379565b6040517f42966c68000000000000000000000000000000000000000000000000000000008152600481018790527f000000000000000000000000000000000000000000000000000000000000000073ffffffffffffffffffffffffffffffffffffffff16906342966c6890602401600060405180830381600087803b158015610c0b57600080fd5b505af1158015610c1f573d6000803e3d6000fd5b50506040518881523392507f696de425f79f4a40bc6d2122ca50507f0efbeabbff86a84871b7196ab8ea8df7915060200160405180910390a25050604080516020810190915260008152979650505050505050565b60606109e9600761136c565b60606109e9600261136c565b6040805160a08101825260008082526020820181905291810182905260608101829052608081019190915273ffffffffffffffffffffffffffffffffffffffff8216600090815260096020908152604091829020825160a08101845281546fffffffffffffffffffffffffffffffff808216835270010000000000000000000000000000000080830463ffffffff16958401959095527401000000000000000000000000000000000000000090910460ff16151594820194909452600190910154808416606083015291909104909116608082015261048d90611280565b610d72610e83565b610515848484846113b3565b610d86610e83565b610d8f82610493565b610ddd576040517f498f12f600000000000000000000000000000000000000000000000000000000815273ffffffffffffffffffffffffffffffffffffffff83166004820152602401610583565b73ffffffffffffffffffffffffffffffffffffffff82166000908152600960205260409020610e0c90826110d1565b7fb3ba339cfbb8ef80d7a29ce5493051cb90e64fcfa85d7124efc1adfa4c68399f82826040516105ec9291906125ec565b610e45610e83565b610e4e81611963565b50565b73ffffffffffffffffffffffffffffffffffffffff8116600090815260018301602052604081205415155b9392505050565b60005473ffffffffffffffffffffffffffffffffffffffff163314610f04576040517f08c379a000000000000000000000000000000000000000000000000000000000815260206004820152601660248201527f4f6e6c792063616c6c61626c65206279206f776e6572000000000000000000006044820152606401610583565b565b7f0000000000000000000000000000000000000000000000000000000000000000610f5d576040517f35f4a7b300000000000000000000000000000000000000000000000000000000815260040160405180910390fd5b60005b8251811015610ffb576000838281518110610f7d57610f7d612661565b60200260200101519050610f9b816002611a5890919063ffffffff16565b15610fea5760405173ffffffffffffffffffffffffffffffffffffffff821681527f800671136ab6cfee9fbe5ed1fb7ca417811aca3cf864800d127b927adedf75669060200160405180910390a15b50610ff4816126bf565b9050610f60565b5060005b81518110156110cc57600082828151811061101c5761101c612661565b60200260200101519050600073ffffffffffffffffffffffffffffffffffffffff168173ffffffffffffffffffffffffffffffffffffffff160361106057506110bc565b61106b600282611a7a565b156110ba5760405173ffffffffffffffffffffffffffffffffffffffff821681527f2640d4d76caf8bf478aabfa982fa4e1c4eb71a37f93cd15e80dbc657911546d89060200160405180910390a15b505b6110c5816126bf565b9050610fff565b505050565b81546000906110fa90700100000000000000000000000000000000900463ffffffff16426126f7565b9050801561119c5760018301548354611142916fffffffffffffffffffffffffffffffff80821692811691859170010000000000000000000000000000000090910416611a9c565b83546fffffffffffffffffffffffffffffffff919091167fffffffffffffffffffffffff0000000000000000000000000000000000000000909116177001000000000000000000000000000000004263ffffffff16021783555b602082015183546111c2916fffffffffffffffffffffffffffffffff9081169116611ac4565b83548351151574010000000000000000000000000000000000000000027fffffffffffffffffffffff00ffffffff000000000000000000000000000000009091166fffffffffffffffffffffffffffffffff92831617178455602083015160408085015183167001000000000000000000000000000000000291909216176001850155517f9ea3374b67bf275e6bb9c8ae68f9cae023e1c528b4b27e092f0bb209d3531c199061127390849061270a565b60405180910390a1505050565b6040805160a08101825260008082526020820181905291810182905260608101829052608081019190915261130e82606001516fffffffffffffffffffffffffffffffff1683600001516fffffffffffffffffffffffffffffffff16846020015163ffffffff16426112f291906126f7565b85608001516fffffffffffffffffffffffffffffffff16611a9c565b6fffffffffffffffffffffffffffffffff1682525063ffffffff4216602082015290565b336000908152600960205260409020610e4e90827f0000000000000000000000000000000000000000000000000000000000000000611ada565b60606000610e7c83611e5d565b336000908152600660205260409020610e4e90827f0000000000000000000000000000000000000000000000000000000000000000611ada565b6113bb610e83565b60005b838110156116d85760008585838181106113da576113da612661565b905060a002018036038101906113f09190612746565b90508060200151156115c857805161140a90600490611a7a565b1561157b576040805160a08101825282820180516020908101516fffffffffffffffffffffffffffffffff908116845263ffffffff4281168386019081528451511515868801908152855185015184166060880190815286518901518516608089019081528a5173ffffffffffffffffffffffffffffffffffffffff1660009081526006909752958990209751885493519251151574010000000000000000000000000000000000000000027fffffffffffffffffffffff00ffffffffffffffffffffffffffffffffffffffff939095167001000000000000000000000000000000009081027fffffffffffffffffffffffff0000000000000000000000000000000000000000909516918716919091179390931791909116929092178655905192518216029116176001909201919091558251905191517f0b594bb0555ff7b252e0c789ccc9d8903fec294172064308727d570505cee1ac9261156e92916125ec565b60405180910390a16116c7565b80516040517fd3eb6bc500000000000000000000000000000000000000000000000000000000815273ffffffffffffffffffffffffffffffffffffffff9091166004820152602401610583565b80516115d690600490611a58565b1561167a57805173ffffffffffffffffffffffffffffffffffffffff1660009081526006602052604080822080547fffffffffffffffffffffff00000000000000000000000000000000000000000016815560010191909155815190517f7fd064821314ad863a0714a3f1229375ace6b6427ed5544b7b2ba1c47b1b52949161156e9173ffffffffffffffffffffffffffffffffffffffff91909116815260200190565b80516040517f498f12f600000000000000000000000000000000000000000000000000000000815273ffffffffffffffffffffffffffffffffffffffff9091166004820152602401610583565b506116d1816126bf565b90506113be565b5060005b8181101561195c5760008383838181106116f8576116f8612661565b905060a0020180360381019061170e9190612746565b905080602001511561189957805161172890600790611a7a565b1561157b576040805160a08101825282820180516020908101516fffffffffffffffffffffffffffffffff908116845263ffffffff4281168386019081528451511515868801908152855185015184166060880190815286518901518516608089019081528a5173ffffffffffffffffffffffffffffffffffffffff1660009081526009909752958990209751885493519251151574010000000000000000000000000000000000000000027fffffffffffffffffffffff00ffffffffffffffffffffffffffffffffffffffff939095167001000000000000000000000000000000009081027fffffffffffffffffffffffff0000000000000000000000000000000000000000909516918716919091179390931791909116929092178655905192518216029116176001909201919091558251905191517f395b7374909d2b54e5796f53c898ebf41d767c86c78ea86519acf2b805852d889261188c92916125ec565b60405180910390a161194b565b80516118a790600790611a58565b1561167a57805173ffffffffffffffffffffffffffffffffffffffff1660009081526009602052604080822080547fffffffffffffffffffffff00000000000000000000000000000000000000000016815560010191909155815190517fcf91daec21e3510e2f2aea4b09d08c235d5c6844980be709f282ef591dbf420c9161188c9173ffffffffffffffffffffffffffffffffffffffff91909116815260200190565b50611955816126bf565b90506116dc565b5050505050565b3373ffffffffffffffffffffffffffffffffffffffff8216036119e2576040517f08c379a000000000000000000000000000000000000000000000000000000000815260206004820152601760248201527f43616e6e6f74207472616e7366657220746f2073656c660000000000000000006044820152606401610583565b600180547fffffffffffffffffffffffff00000000000000000000000000000000000000001673ffffffffffffffffffffffffffffffffffffffff83811691821790925560008054604051929316917fed8889f560326eb138920d842192f0eb3dd22b4f139c87a2c57538e05bae12789190a350565b6000610e7c8373ffffffffffffffffffffffffffffffffffffffff8416611eb9565b6000610e7c8373ffffffffffffffffffffffffffffffffffffffff8416611fac565b6000611abb85611aac8486612797565b611ab690876127ae565b611ac4565b95945050505050565b6000818310611ad35781610e7c565b5090919050565b825474010000000000000000000000000000000000000000900460ff161580611b01575081155b15611b0b57505050565b825460018401546fffffffffffffffffffffffffffffffff80831692911690600090611b5190700100000000000000000000000000000000900463ffffffff16426126f7565b90508015611c115781831115611b93576040517f9725942a00000000000000000000000000000000000000000000000000000000815260040160405180910390fd5b6001860154611bcd9083908590849070010000000000000000000000000000000090046fffffffffffffffffffffffffffffffff16611a9c565b86547fffffffffffffffffffffffff00000000ffffffffffffffffffffffffffffffff167001000000000000000000000000000000004263ffffffff160217875592505b84821015611cc85773ffffffffffffffffffffffffffffffffffffffff8416611c70576040517ff94ebcd10000000000000000000000000000000000000000000000000000000081526004810183905260248101869052604401610583565b6040517f1a76572a000000000000000000000000000000000000000000000000000000008152600481018390526024810186905273ffffffffffffffffffffffffffffffffffffffff85166044820152606401610583565b84831015611ddb5760018681015470010000000000000000000000000000000090046fffffffffffffffffffffffffffffffff16906000908290611d0c90826126f7565b611d16878a6126f7565b611d2091906127ae565b611d2a91906127c1565b905073ffffffffffffffffffffffffffffffffffffffff8616611d83576040517f15279c080000000000000000000000000000000000000000000000000000000081526004810182905260248101869052604401610583565b6040517fd0c8d23a000000000000000000000000000000000000000000000000000000008152600481018290526024810186905273ffffffffffffffffffffffffffffffffffffffff87166044820152606401610583565b611de585846126f7565b86547fffffffffffffffffffffffffffffffff00000000000000000000000000000000166fffffffffffffffffffffffffffffffff82161787556040518681529093507f1871cdf8010e63f2eb8384381a68dfa7416dc571a5517e66e88b2d2d0c0a690a9060200160405180910390a1505050505050565b606081600001805480602002602001604051908101604052809291908181526020018280548015611ead57602002820191906000526020600020905b815481526020019060010190808311611e99575b50505050509050919050565b60008181526001830160205260408120548015611fa2576000611edd6001836126f7565b8554909150600090611ef1906001906126f7565b9050818114611f56576000866000018281548110611f1157611f11612661565b9060005260206000200154905080876000018481548110611f3457611f34612661565b6000918252602080832090910192909255918252600188019052604090208390555b8554869080611f6757611f676127fc565b60019003818190600052602060002001600090559055856001016000868152602001908152602001600020600090556001935050505061048d565b600091505061048d565b6000818152600183016020526040812054611ff35750815460018181018455600084815260208082209093018490558454848252828601909352604090209190915561048d565b50600061048d565b60006020828403121561200d57600080fd5b81357fffffffff0000000000000000000000000000000000000000000000000000000081168114610e7c57600080fd5b6000815180845260005b8181101561206357602081850181015186830182015201612047565b5060006020828601015260207fffffffffffffffffffffffffffffffffffffffffffffffffffffffffffffffe0601f83011685010191505092915050565b602081526000610e7c602083018461203d565b803573ffffffffffffffffffffffffffffffffffffffff811681146120d857600080fd5b919050565b6000602082840312156120ef57600080fd5b610e7c826120b4565b60008083601f84011261210a57600080fd5b50813567ffffffffffffffff81111561212257600080fd5b6020830191508360208260051b850101111561213d57600080fd5b9250929050565b6000806000806040858703121561215a57600080fd5b843567ffffffffffffffff8082111561217257600080fd5b61217e888389016120f8565b9096509450602087013591508082111561219757600080fd5b506121a4878288016120f8565b95989497509550505050565b7f4e487b7100000000000000000000000000000000000000000000000000000000600052604160045260246000fd5b6040516060810167ffffffffffffffff81118282101715612202576122026121b0565b60405290565b8015158114610e4e57600080fd5b80356fffffffffffffffffffffffffffffffff811681146120d857600080fd5b60006060828403121561224857600080fd5b6122506121df565b9050813561225d81612208565b815261226b60208301612216565b602082015261227c60408301612216565b604082015292915050565b6000806080838503121561229a57600080fd5b6122a3836120b4565b91506122b28460208501612236565b90509250929050565b600082601f8301126122cc57600080fd5b813567ffffffffffffffff808211156122e7576122e76121b0565b604051601f83017fffffffffffffffffffffffffffffffffffffffffffffffffffffffffffffffe0908116603f0116810190828211818310171561232d5761232d6121b0565b8160405283815286602085880101111561234657600080fd5b836020870160208301376000602085830101528094505050505092915050565b803567ffffffffffffffff811681146120d857600080fd5b600080600080600060a0868803121561239657600080fd5b853567ffffffffffffffff808211156123ae57600080fd5b6123ba89838a016122bb565b96506123c8602089016120b4565b9550604088013594506123dd60608901612366565b935060808801359150808211156123f357600080fd5b50612400888289016122bb565b9150509295509295909350565b6020808252825182820181905260009190848201906040850190845b8181101561245b57835173ffffffffffffffffffffffffffffffffffffffff1683529284019291840191600101612429565b50909695505050505050565b60008083601f84011261247957600080fd5b50813567ffffffffffffffff81111561249157600080fd5b60208301915083602082850101111561213d57600080fd5b600080600080600080600060a0888a0312156124c457600080fd5b6124cd886120b4565b9650602088013567ffffffffffffffff808211156124ea57600080fd5b6124f68b838c01612467565b909850965060408a0135955086915061251160608b01612366565b945060808a013591508082111561252757600080fd5b506125348a828b01612467565b989b979a50959850939692959293505050565b60008083601f84011261255957600080fd5b50813567ffffffffffffffff81111561257157600080fd5b60208301915083602060a08302850101111561213d57600080fd5b600080600080604085870312156125a257600080fd5b843567ffffffffffffffff808211156125ba57600080fd5b6125c688838901612547565b909650945060208701359150808211156125df57600080fd5b506121a487828801612547565b73ffffffffffffffffffffffffffffffffffffffff8316815260808101610e7c60208301848051151582526020808201516fffffffffffffffffffffffffffffffff9081169184019190915260409182015116910152565b60006020828403121561265657600080fd5b8151610e7c81612208565b7f4e487b7100000000000000000000000000000000000000000000000000000000600052603260045260246000fd5b7f4e487b7100000000000000000000000000000000000000000000000000000000600052601160045260246000fd5b60007fffffffffffffffffffffffffffffffffffffffffffffffffffffffffffffffff82036126f0576126f0612690565b5060010190565b8181038181111561048d5761048d612690565b6060810161048d82848051151582526020808201516fffffffffffffffffffffffffffffffff9081169184019190915260409182015116910152565b600060a0828403121561275857600080fd5b6127606121df565b612769836120b4565b8152602083013561277981612208565b602082015261278b8460408501612236565b60408201529392505050565b808202811582820484141761048d5761048d612690565b8082018082111561048d5761048d612690565b6000826127f7577f4e487b7100000000000000000000000000000000000000000000000000000000600052601260045260246000fd5b500490565b7f4e487b7100000000000000000000000000000000000000000000000000000000600052603160045260246000fdfea164736f6c6343000815000a",
    "linkReferences": {}
  },
  "methodIdentifiers": {
    "acceptOwnership()": "79ba5097",
    "applyAllowListUpdates(address[],address[])": "54c8a4f3",
    "applyRampUpdates((address,bool,(bool,uint128,uint128))[],(address,bool,(bool,uint128,uint128))[])": "c49907b5",
    "currentOffRampRateLimiterState(address)": "b3a3fb41",
    "currentOnRampRateLimiterState(address)": "7787e7ab",
    "getAllowList()": "a7cd63b7",
    "getAllowListEnabled()": "e0351e13",
    "getArmProxy()": "5246492f",
    "getOffRamps()": "a40e69c7",
    "getOnRamps()": "87381314",
    "getToken()": "21df0da7",
    "isOffRamp(address)": "1d7a74a0",
    "isOnRamp(address)": "6f32b872",
    "lockOrBurn(address,bytes,uint256,uint64,bytes)": "96875445",
    "owner()": "8da5cb5b",
    "releaseOrMint(bytes,address,uint256,uint64,bytes)": "8627fad6",
    "setOffRampRateLimiterConfig(address,(bool,uint128,uint128))": "d612b945",
    "setOnRampRateLimiterConfig(address,(bool,uint128,uint128))": "7448b3c7",
    "supportsInterface(bytes4)": "01ffc9a7",
    "transferOwnership(address)": "f2fde38b",
    "typeAndVersion()": "181f5a77"
  },
  "id": 132
}