{
  "abi": [
    {
      "inputs": [
        {
          "internalType": "address",
          "name": "router",
          "type": "address"
        },
        {
          "internalType": "address",
          "name": "nftAddress",
          "type": "address"
        }
      ],
      "stateMutability": "nonpayable",
      "type": "constructor"
    },
    {
      "inputs": [
        {
          "internalType": "address",
          "name": "router",
          "type": "address"
        }
      ],
      "name": "InvalidRouter",
      "type": "error"
    },
    {
      "anonymous": false,
      "inputs": [],
      "name": "MintCallSuccessfull",
      "type": "event"
    },
    {
      "inputs": [
        {
          "components": [
            {
              "internalType": "bytes32",
              "name": "messageId",
              "type": "bytes32"
            },
            {
              "internalType": "uint64",
              "name": "sourceChainSelector",
              "type": "uint64"
            },
            {
              "internalType": "bytes",
              "name": "sender",
              "type": "bytes"
            },
            {
              "internalType": "bytes",
              "name": "data",
              "type": "bytes"
            },
            {
              "components": [
                {
                  "internalType": "address",
                  "name": "token",
                  "type": "address"
                },
                {
                  "internalType": "uint256",
                  "name": "amount",
                  "type": "uint256"
                }
              ],
              "internalType": "struct Client.EVMTokenAmount[]",
              "name": "destTokenAmounts",
              "type": "tuple[]"
            }
          ],
          "internalType": "struct Client.Any2EVMMessage",
          "name": "message",
          "type": "tuple"
        }
      ],
      "name": "ccipReceive",
      "outputs": [],
      "stateMutability": "nonpayable",
      "type": "function"
    },
    {
      "inputs": [],
      "name": "getRouter",
      "outputs": [
        {
          "internalType": "address",
          "name": "",
          "type": "address"
        }
      ],
      "stateMutability": "view",
      "type": "function"
    },
    {
      "inputs": [
        {
          "internalType": "bytes4",
          "name": "interfaceId",
          "type": "bytes4"
        }
      ],
      "name": "supportsInterface",
      "outputs": [
        {
          "internalType": "bool",
          "name": "",
          "type": "bool"
        }
      ],
      "stateMutability": "pure",
      "type": "function"
    }
  ],
  "bytecode": {
    "object": "0x60a060405234801561001057600080fd5b5060405161073838038061073883398101604081905261002f916100a6565b816001600160a01b03811661005e576040516335fdcccd60e21b81526000600482015260240160405180910390fd5b6001600160a01b03908116608052600080546001600160a01b03191692909116919091179055506100d9565b80516001600160a01b03811681146100a157600080fd5b919050565b600080604083850312156100b957600080fd5b6100c28361008a565b91506100d06020840161008a565b90509250929050565b60805161063e6100fa60003960008181609d0152610178015261063e6000f3fe608060405234801561001057600080fd5b50600436106100415760003560e01c806301ffc9a71461004657806385572ffb1461006e578063b0f479a114610083575b600080fd5b610059610054366004610295565b6100c7565b60405190151581526020015b60405180910390f35b61008161007c3660046102de565b610160565b005b60405173ffffffffffffffffffffffffffffffffffffffff7f0000000000000000000000000000000000000000000000000000000000000000168152602001610065565b60007fffffffff0000000000000000000000000000000000000000000000000000000082167f85572ffb00000000000000000000000000000000000000000000000000000000148061015a57507fffffffff0000000000000000000000000000000000000000000000000000000082167f01ffc9a700000000000000000000000000000000000000000000000000000000145b92915050565b3373ffffffffffffffffffffffffffffffffffffffff7f000000000000000000000000000000000000000000000000000000000000000016146101d5576040517fd7f7333400000000000000000000000000000000000000000000000000000000815233600482015260240160405180910390fd5b6101e66101e182610555565b6101e9565b50565b60008054606083015160405173ffffffffffffffffffffffffffffffffffffffff909216916102189190610602565b6000604051808303816000865af19150503d8060008114610255576040519150601f19603f3d011682016040523d82523d6000602084013e61025a565b606091505b505090508061026857600080fd5b6040517fa8bcb6a278444293ea5c0bce4a4734a060a5f557bb999d8a57c4f69e96f1fe8890600090a15050565b6000602082840312156102a757600080fd5b81357fffffffff00000000000000000000000000000000000000000000000000000000811681146102d757600080fd5b9392505050565b6000602082840312156102f057600080fd5b813567ffffffffffffffff81111561030757600080fd5b820160a081850312156102d757600080fd5b7f4e487b7100000000000000000000000000000000000000000000000000000000600052604160045260246000fd5b6040805190810167ffffffffffffffff8111828210171561036b5761036b610319565b60405290565b60405160a0810167ffffffffffffffff8111828210171561036b5761036b610319565b604051601f82017fffffffffffffffffffffffffffffffffffffffffffffffffffffffffffffffe016810167ffffffffffffffff811182821017156103db576103db610319565b604052919050565b803567ffffffffffffffff811681146103fb57600080fd5b919050565b600082601f83011261041157600080fd5b813567ffffffffffffffff81111561042b5761042b610319565b61045c60207fffffffffffffffffffffffffffffffffffffffffffffffffffffffffffffffe0601f84011601610394565b81815284602083860101111561047157600080fd5b816020850160208301376000918101602001919091529392505050565b600082601f83011261049f57600080fd5b8135602067ffffffffffffffff8211156104bb576104bb610319565b6104c9818360051b01610394565b82815260069290921b840181019181810190868411156104e857600080fd5b8286015b8481101561054a57604081890312156105055760008081fd5b61050d610348565b813573ffffffffffffffffffffffffffffffffffffffff811681146105325760008081fd5b815281850135858201528352918301916040016104ec565b509695505050505050565b600060a0823603121561056757600080fd5b61056f610371565b8235815261057f602084016103e3565b6020820152604083013567ffffffffffffffff8082111561059f57600080fd5b6105ab36838701610400565b604084015260608501359150808211156105c457600080fd5b6105d036838701610400565b606084015260808501359150808211156105e957600080fd5b506105f63682860161048e565b60808301525092915050565b6000825160005b818110156106235760208186018101518583015201610609565b50600092019182525091905056fea164736f6c6343000815000a",
    "linkReferences": {}
  },
  "methodIdentifiers": {
    "ccipReceive((bytes32,uint64,bytes,bytes,(address,uint256)[]))": "85572ffb",
    "getRouter()": "b0f479a1",
    "supportsInterface(bytes4)": "01ffc9a7"
  },
  "id": 64
}