{
  "abi": [
    {
      "inputs": [
        {
          "internalType": "address",
          "name": "_drex",
          "type": "address"
        }
      ],
      "stateMutability": "nonpayable",
      "type": "constructor"
    },
    {
      "inputs": [
        {
          "internalType": "address",
          "name": "owner",
          "type": "address"
        }
      ],
      "name": "OwnableInvalidOwner",
      "type": "error"
    },
    {
      "inputs": [
        {
          "internalType": "address",
          "name": "account",
          "type": "address"
        }
      ],
      "name": "OwnableUnauthorizedAccount",
      "type": "error"
    },
    {
      "anonymous": false,
      "inputs": [
        {
          "indexed": true,
          "internalType": "address",
          "name": "_from",
          "type": "address"
        },
        {
          "indexed": true,
          "internalType": "address",
          "name": "_to",
          "type": "address"
        },
        {
          "indexed": false,
          "internalType": "uint256",
          "name": "_amount",
          "type": "uint256"
        }
      ],
      "name": "Approved",
      "type": "event"
    },
    {
      "anonymous": false,
      "inputs": [
        {
          "indexed": false,
          "internalType": "address",
          "name": "account",
          "type": "address"
        },
        {
          "indexed": false,
          "internalType": "uint256",
          "name": "amountDeposited",
          "type": "uint256"
        },
        {
          "indexed": false,
          "internalType": "address",
          "name": "Vault",
          "type": "address"
        }
      ],
      "name": "Deposit",
      "type": "event"
    },
    {
      "anonymous": false,
      "inputs": [
        {
          "indexed": false,
          "internalType": "address",
          "name": "_from",
          "type": "address"
        },
        {
          "indexed": false,
          "internalType": "address",
          "name": "_to",
          "type": "address"
        },
        {
          "indexed": false,
          "internalType": "uint256",
          "name": "_amount",
          "type": "uint256"
        }
      ],
      "name": "MoveDREX",
      "type": "event"
    },
    {
      "anonymous": false,
      "inputs": [
        {
          "indexed": true,
          "internalType": "address",
          "name": "governor",
          "type": "address"
        },
        {
          "indexed": false,
          "internalType": "bool",
          "name": "authorized",
          "type": "bool"
        }
      ],
      "name": "NewGovernor",
      "type": "event"
    },
    {
      "anonymous": false,
      "inputs": [
        {
          "indexed": true,
          "internalType": "address",
          "name": "previousOwner",
          "type": "address"
        },
        {
          "indexed": true,
          "internalType": "address",
          "name": "newOwner",
          "type": "address"
        }
      ],
      "name": "OwnershipTransferred",
      "type": "event"
    },
    {
      "anonymous": false,
      "inputs": [
        {
          "indexed": false,
          "internalType": "enum VaultSimple.VaultState",
          "name": "state",
          "type": "uint8"
        }
      ],
      "name": "StateUpdated",
      "type": "event"
    },
    {
      "anonymous": false,
      "inputs": [
        {
          "indexed": true,
          "internalType": "address",
          "name": "target",
          "type": "address"
        },
        {
          "indexed": false,
          "internalType": "bool",
          "name": "authorized",
          "type": "bool"
        }
      ],
      "name": "UpdatedAuthorization",
      "type": "event"
    },
    {
      "anonymous": false,
      "inputs": [
        {
          "indexed": false,
          "internalType": "address",
          "name": "account",
          "type": "address"
        },
        {
          "indexed": false,
          "internalType": "uint256",
          "name": "amountWithdrawn",
          "type": "uint256"
        }
      ],
      "name": "Withdraw",
      "type": "event"
    },
    {
      "inputs": [
        {
          "internalType": "address",
          "name": "",
          "type": "address"
        }
      ],
      "name": "authorizedAddresses",
      "outputs": [
        {
          "internalType": "bool",
          "name": "",
          "type": "bool"
        }
      ],
      "stateMutability": "view",
      "type": "function"
    },
    {
      "inputs": [],
      "name": "currentVaultStartTimestamp",
      "outputs": [
        {
          "internalType": "uint256",
          "name": "",
          "type": "uint256"
        }
      ],
      "stateMutability": "view",
      "type": "function"
    },
    {
      "inputs": [
        {
          "internalType": "uint256",
          "name": "_amount",
          "type": "uint256"
        }
      ],
      "name": "deposit",
      "outputs": [],
      "stateMutability": "nonpayable",
      "type": "function"
    },
    {
      "inputs": [],
      "name": "drex",
      "outputs": [
        {
          "internalType": "address",
          "name": "",
          "type": "address"
        }
      ],
      "stateMutability": "view",
      "type": "function"
    },
    {
      "inputs": [],
      "name": "emergency",
      "outputs": [],
      "stateMutability": "nonpayable",
      "type": "function"
    },
    {
      "inputs": [
        {
          "internalType": "address",
          "name": "",
          "type": "address"
        }
      ],
      "name": "governor",
      "outputs": [
        {
          "internalType": "bool",
          "name": "",
          "type": "bool"
        }
      ],
      "stateMutability": "view",
      "type": "function"
    },
    {
      "inputs": [],
      "name": "lock",
      "outputs": [],
      "stateMutability": "nonpayable",
      "type": "function"
    },
    {
      "inputs": [
        {
          "internalType": "address",
          "name": "_to",
          "type": "address"
        },
        {
          "internalType": "uint256",
          "name": "_amount",
          "type": "uint256"
        }
      ],
      "name": "moveDREX",
      "outputs": [],
      "stateMutability": "nonpayable",
      "type": "function"
    },
    {
      "inputs": [],
      "name": "owner",
      "outputs": [
        {
          "internalType": "address",
          "name": "",
          "type": "address"
        }
      ],
      "stateMutability": "view",
      "type": "function"
    },
    {
      "inputs": [],
      "name": "renounceOwnership",
      "outputs": [],
      "stateMutability": "nonpayable",
      "type": "function"
    },
    {
      "inputs": [
        {
          "internalType": "address",
          "name": "_target",
          "type": "address"
        },
        {
          "internalType": "bool",
          "name": "_value",
          "type": "bool"
        }
      ],
      "name": "setAuthorized",
      "outputs": [],
      "stateMutability": "nonpayable",
      "type": "function"
    },
    {
      "inputs": [
        {
          "internalType": "address",
          "name": "_governance",
          "type": "address"
        },
        {
          "internalType": "bool",
          "name": "_value",
          "type": "bool"
        }
      ],
      "name": "setGovernor",
      "outputs": [],
      "stateMutability": "nonpayable",
      "type": "function"
    },
    {
      "inputs": [
        {
          "internalType": "address",
          "name": "_from",
          "type": "address"
        },
        {
          "internalType": "address",
          "name": "_to",
          "type": "address"
        },
        {
          "internalType": "uint256",
          "name": "_amount",
          "type": "uint256"
        }
      ],
      "name": "setLimitTransfer",
      "outputs": [],
      "stateMutability": "nonpayable",
      "type": "function"
    },
    {
      "inputs": [],
      "name": "state",
      "outputs": [
        {
          "internalType": "enum VaultSimple.VaultState",
          "name": "",
          "type": "uint8"
        }
      ],
      "stateMutability": "view",
      "type": "function"
    },
    {
      "inputs": [],
      "name": "stateBeforePause",
      "outputs": [
        {
          "internalType": "enum VaultSimple.VaultState",
          "name": "",
          "type": "uint8"
        }
      ],
      "stateMutability": "view",
      "type": "function"
    },
    {
      "inputs": [
        {
          "internalType": "address",
          "name": "newOwner",
          "type": "address"
        }
      ],
      "name": "transferOwnership",
      "outputs": [],
      "stateMutability": "nonpayable",
      "type": "function"
    },
    {
      "inputs": [
        {
          "internalType": "uint256",
          "name": "_amount",
          "type": "uint256"
        }
      ],
      "name": "withdrawOwner",
      "outputs": [],
      "stateMutability": "nonpayable",
      "type": "function"
    }
  ],
  "bytecode": {
    "object": "0x608060405234801561001057600080fd5b5060405161109438038061109483398101604081905261002f916100e0565b338061005557604051631e4fbdf760e01b81526000600482015260240160405180910390fd5b61005e81610090565b50600180546001600160a01b03929092166001600160a81b031990921691909117600160a01b17905542600255610110565b600080546001600160a01b038381166001600160a01b0319831681178455604051919092169283917f8be0079c531659141344cd1fd0a4f28419497f9722a3daafe3b4186f6b6457e09190a35050565b6000602082840312156100f257600080fd5b81516001600160a01b038116811461010957600080fd5b9392505050565b610f758061011f6000396000f3fe608060405234801561001057600080fd5b506004361061011b5760003560e01c80638d64fd60116100b2578063c19d93fb11610081578063f19e207e11610066578063f19e207e146102ae578063f2fde38b146102d1578063f83d08ba146102e457600080fd5b8063c19d93fb14610281578063caa6fea4146102a657600080fd5b80638d64fd601461020a5780638da5cb5b1461023d57806396c11ebf1461025b578063b6b55f251461026e57600080fd5b80636ef98b21116100ee5780636ef98b21146101a957806370ec42e8146101bc578063711bf9b2146101ef578063715018a61461020257600080fd5b80632b97d4fe146101205780633bf23d8114610135578063441fc0c6146101515780635160696c14610196575b600080fd5b61013361012e366004610df5565b6102ec565b005b61013e60025481565b6040519081526020015b60405180910390f35b6001546101719073ffffffffffffffffffffffffffffffffffffffff1681565b60405173ffffffffffffffffffffffffffffffffffffffff9091168152602001610148565b6101336101a4366004610e2d565b610526565b6101336101b7366004610e64565b6105b9565b6101df6101ca366004610e7d565b60046020526000908152604090205460ff1681565b6040519015158152602001610148565b6101336101fd366004610e2d565b610732565b6101336107bd565b600154610230907501000000000000000000000000000000000000000000900460ff1681565b6040516101489190610ece565b60005473ffffffffffffffffffffffffffffffffffffffff16610171565b610133610269366004610f0f565b6107d1565b61013361027c366004610e64565b610847565b6001546102309074010000000000000000000000000000000000000000900460ff1681565b6101336109c0565b6101df6102bc366004610e7d565b60036020526000908152604090205460ff1681565b6101336102df366004610e7d565b610ab3565b610133610b17565b6001805474010000000000000000000000000000000000000000900460ff16600281111561031c5761031c610e9f565b14610388576040517f08c379a000000000000000000000000000000000000000000000000000000000815260206004820152600960248201527f21556e6c6f636b6564000000000000000000000000000000000000000000000060448201526064015b60405180910390fd5b33600090815260056020908152604080832073ffffffffffffffffffffffffffffffffffffffff8616845290915290205482908290811015610426576040517f08c379a000000000000000000000000000000000000000000000000000000000815260206004820152601d60248201527f6e6f7420617070726f766564206d6f7665207468697320616d6f756e74000000604482015260640161037f565b61042e610be9565b6001546040517fa9059cbb0000000000000000000000000000000000000000000000000000000081523360048201526024810185905273ffffffffffffffffffffffffffffffffffffffff9091169063a9059cbb906044016020604051808303816000875af11580156104a5573d6000803e3d6000fd5b505050506040513d601f19601f820116820180604052508101906104c99190610f4b565b506040805133815273ffffffffffffffffffffffffffffffffffffffff861660208201529081018490527fd5a641b66b95c53e69b2f6a054b55cf26e532f9e7d966f53d1bb2828e12799989060600160405180910390a150505050565b61052e610c67565b73ffffffffffffffffffffffffffffffffffffffff821660008181526004602090815260409182902080547fffffffffffffffffffffffffffffffffffffffffffffffffffffffffffffff001685151590811790915591519182527fbb35d79a0e42810e1556183f4de163f21b0dfa425332429ffc7f12d1b1be36d991015b60405180910390a25050565b600260015474010000000000000000000000000000000000000000900460ff1660028111156105ea576105ea610e9f565b14610651576040517f08c379a000000000000000000000000000000000000000000000000000000000815260206004820152600a60248201527f21456d657267656e637900000000000000000000000000000000000000000000604482015260640161037f565b610659610cba565b6001546040517fa9059cbb0000000000000000000000000000000000000000000000000000000081523360048201526024810183905273ffffffffffffffffffffffffffffffffffffffff9091169063a9059cbb906044016020604051808303816000875af11580156106d0573d6000803e3d6000fd5b505050506040513d601f19601f820116820180604052508101906106f49190610f4b565b5060408051338152602081018390527f884edad9ce6fa2440d8a54cc123490eb96d2768479d49ff9c7366125a942436491015b60405180910390a150565b61073a610be9565b73ffffffffffffffffffffffffffffffffffffffff821660008181526003602090815260409182902080547fffffffffffffffffffffffffffffffffffffffffffffffffffffffffffffff001685151590811790915591519182527f8d6437292b994fc738dc2a2d36adca80c5c3516dde0ca63fedcbb70101b21a3191016105ad565b6107c5610c67565b6107cf6000610d57565b565b6107d9610c67565b73ffffffffffffffffffffffffffffffffffffffff83811660008181526005602090815260408083209487168084529482529182902085905590518481527f80da462ebfbe41cfc9bc015e7a9a3c7a2a73dbccede72d8ceb583606c27f8f90910160405180910390a3505050565b6001805474010000000000000000000000000000000000000000900460ff16600281111561087757610877610e9f565b146108de576040517f08c379a000000000000000000000000000000000000000000000000000000000815260206004820152600960248201527f21556e6c6f636b65640000000000000000000000000000000000000000000000604482015260640161037f565b6001546040517f23b872dd0000000000000000000000000000000000000000000000000000000081523360048201523060248201526044810183905273ffffffffffffffffffffffffffffffffffffffff909116906323b872dd906064016020604051808303816000875af115801561095b573d6000803e3d6000fd5b505050506040513d601f19601f8201168201806040525081019061097f9190610f4b565b50604080513381526020810183905230918101919091527fe31c7b8d08ee7db0afa68782e1028ef92305caeea8626633ad44d413e30f6b2f90606001610727565b6109c8610c67565b6001805460ff7401000000000000000000000000000000000000000082041691907fffffffffffffffffffff00ffffffffffffffffffffffffffffffffffffffffff167501000000000000000000000000000000000000000000836002811115610a3457610a34610e9f565b0217905550600180547fffffffffffffffffffffff00ffffffffffffffffffffffffffffffffffffffff16740200000000000000000000000000000000000000001790556040517f23ad33ab6a13a00aa7d06cd167b2abd03dec86af3cf3cc91759dcd3ae841188790610aa990600290610ece565b60405180910390a1565b610abb610c67565b73ffffffffffffffffffffffffffffffffffffffff8116610b0b576040517f1e4fbdf70000000000000000000000000000000000000000000000000000000081526000600482015260240161037f565b610b1481610d57565b50565b610b1f610c67565b6001805460ff7401000000000000000000000000000000000000000082041691907fffffffffffffffffffff00ffffffffffffffffffffffffffffffffffffffffff167501000000000000000000000000000000000000000000836002811115610b8b57610b8b610e9f565b0217905550600180547fffffffffffffffffffffff00ffffffffffffffffffffffffffffffffffffffff1690556040517f23ad33ab6a13a00aa7d06cd167b2abd03dec86af3cf3cc91759dcd3ae841188790610aa990600090610ece565b3360009081526004602052604090205460ff1615156001146107cf576040517f08c379a000000000000000000000000000000000000000000000000000000000815260206004820152600960248201527f21676f7665726e6f720000000000000000000000000000000000000000000000604482015260640161037f565b60005473ffffffffffffffffffffffffffffffffffffffff1633146107cf576040517f118cdaa700000000000000000000000000000000000000000000000000000000815233600482015260240161037f565b3360009081526003602052604090205460ff16151560011480610cf157503360009081526004602052604090205460ff1615156001145b6107cf576040517f08c379a000000000000000000000000000000000000000000000000000000000815260206004820152600b60248201527f21617574686f72697a6564000000000000000000000000000000000000000000604482015260640161037f565b6000805473ffffffffffffffffffffffffffffffffffffffff8381167fffffffffffffffffffffffff0000000000000000000000000000000000000000831681178455604051919092169283917f8be0079c531659141344cd1fd0a4f28419497f9722a3daafe3b4186f6b6457e09190a35050565b803573ffffffffffffffffffffffffffffffffffffffff81168114610df057600080fd5b919050565b60008060408385031215610e0857600080fd5b610e1183610dcc565b946020939093013593505050565b8015158114610b1457600080fd5b60008060408385031215610e4057600080fd5b610e4983610dcc565b91506020830135610e5981610e1f565b809150509250929050565b600060208284031215610e7657600080fd5b5035919050565b600060208284031215610e8f57600080fd5b610e9882610dcc565b9392505050565b7f4e487b7100000000000000000000000000000000000000000000000000000000600052602160045260246000fd5b6020810160038310610f09577f4e487b7100000000000000000000000000000000000000000000000000000000600052602160045260246000fd5b91905290565b600080600060608486031215610f2457600080fd5b610f2d84610dcc565b9250610f3b60208501610dcc565b9150604084013590509250925092565b600060208284031215610f5d57600080fd5b8151610e9881610e1f56fea164736f6c6343000815000a",
    "linkReferences": {}
  },
  "methodIdentifiers": {
    "authorizedAddresses(address)": "f19e207e",
    "currentVaultStartTimestamp()": "3bf23d81",
    "deposit(uint256)": "b6b55f25",
    "drex()": "441fc0c6",
    "emergency()": "caa6fea4",
    "governor(address)": "70ec42e8",
    "lock()": "f83d08ba",
    "moveDREX(address,uint256)": "2b97d4fe",
    "owner()": "8da5cb5b",
    "renounceOwnership()": "715018a6",
    "setAuthorized(address,bool)": "711bf9b2",
    "setGovernor(address,bool)": "5160696c",
    "setLimitTransfer(address,address,uint256)": "96c11ebf",
    "state()": "c19d93fb",
    "stateBeforePause()": "8d64fd60",
    "transferOwnership(address)": "f2fde38b",
    "withdrawOwner(uint256)": "6ef98b21"
  },
  "id": 74
}