{
  "abi": [
    {
      "inputs": [
        {
          "internalType": "address",
          "name": "_drex",
          "type": "address"
        }
      ],
      "stateMutability": "nonpayable",
      "type": "constructor"
    },
    {
      "inputs": [
        {
          "internalType": "address",
          "name": "owner",
          "type": "address"
        }
      ],
      "name": "OwnableInvalidOwner",
      "type": "error"
    },
    {
      "inputs": [
        {
          "internalType": "address",
          "name": "account",
          "type": "address"
        }
      ],
      "name": "OwnableUnauthorizedAccount",
      "type": "error"
    },
    {
      "anonymous": false,
      "inputs": [
        {
          "indexed": true,
          "internalType": "address",
          "name": "_from",
          "type": "address"
        },
        {
          "indexed": true,
          "internalType": "address",
          "name": "_to",
          "type": "address"
        },
        {
          "indexed": false,
          "internalType": "uint256",
          "name": "_amount",
          "type": "uint256"
        }
      ],
      "name": "Approved",
      "type": "event"
    },
    {
      "anonymous": false,
      "inputs": [
        {
          "indexed": false,
          "internalType": "address",
          "name": "account",
          "type": "address"
        },
        {
          "indexed": false,
          "internalType": "uint256",
          "name": "amountDeposited",
          "type": "uint256"
        },
        {
          "indexed": false,
          "internalType": "address",
          "name": "Vault",
          "type": "address"
        }
      ],
      "name": "Deposit",
      "type": "event"
    },
    {
      "anonymous": false,
      "inputs": [
        {
          "indexed": false,
          "internalType": "address",
          "name": "_from",
          "type": "address"
        },
        {
          "indexed": false,
          "internalType": "address",
          "name": "_to",
          "type": "address"
        },
        {
          "indexed": false,
          "internalType": "uint256",
          "name": "_amount",
          "type": "uint256"
        }
      ],
      "name": "MoveDREX",
      "type": "event"
    },
    {
      "anonymous": false,
      "inputs": [
        {
          "indexed": true,
          "internalType": "address",
          "name": "governor",
          "type": "address"
        },
        {
          "indexed": false,
          "internalType": "bool",
          "name": "authorized",
          "type": "bool"
        }
      ],
      "name": "NewGovernor",
      "type": "event"
    },
    {
      "anonymous": false,
      "inputs": [
        {
          "indexed": true,
          "internalType": "address",
          "name": "previousOwner",
          "type": "address"
        },
        {
          "indexed": true,
          "internalType": "address",
          "name": "newOwner",
          "type": "address"
        }
      ],
      "name": "OwnershipTransferred",
      "type": "event"
    },
    {
      "anonymous": false,
      "inputs": [
        {
          "indexed": false,
          "internalType": "enum VaultSimple.VaultState",
          "name": "state",
          "type": "uint8"
        }
      ],
      "name": "StateUpdated",
      "type": "event"
    },
    {
      "anonymous": false,
      "inputs": [
        {
          "indexed": true,
          "internalType": "address",
          "name": "target",
          "type": "address"
        },
        {
          "indexed": false,
          "internalType": "bool",
          "name": "authorized",
          "type": "bool"
        }
      ],
      "name": "UpdatedAuthorization",
      "type": "event"
    },
    {
      "anonymous": false,
      "inputs": [
        {
          "indexed": false,
          "internalType": "address",
          "name": "account",
          "type": "address"
        },
        {
          "indexed": false,
          "internalType": "uint256",
          "name": "amountWithdrawn",
          "type": "uint256"
        }
      ],
      "name": "Withdraw",
      "type": "event"
    },
    {
      "inputs": [
        {
          "internalType": "address",
          "name": "",
          "type": "address"
        }
      ],
      "name": "authorizedAddresses",
      "outputs": [
        {
          "internalType": "bool",
          "name": "",
          "type": "bool"
        }
      ],
      "stateMutability": "view",
      "type": "function"
    },
    {
      "inputs": [],
      "name": "currentVaultStartTimestamp",
      "outputs": [
        {
          "internalType": "uint256",
          "name": "",
          "type": "uint256"
        }
      ],
      "stateMutability": "view",
      "type": "function"
    },
    {
      "inputs": [
        {
          "internalType": "uint256",
          "name": "_amount",
          "type": "uint256"
        }
      ],
      "name": "deposit",
      "outputs": [],
      "stateMutability": "nonpayable",
      "type": "function"
    },
    {
      "inputs": [],
      "name": "drex",
      "outputs": [
        {
          "internalType": "address",
          "name": "",
          "type": "address"
        }
      ],
      "stateMutability": "view",
      "type": "function"
    },
    {
      "inputs": [],
      "name": "emergency",
      "outputs": [],
      "stateMutability": "nonpayable",
      "type": "function"
    },
    {
      "inputs": [
        {
          "internalType": "address",
          "name": "",
          "type": "address"
        }
      ],
      "name": "governor",
      "outputs": [
        {
          "internalType": "bool",
          "name": "",
          "type": "bool"
        }
      ],
      "stateMutability": "view",
      "type": "function"
    },
    {
      "inputs": [],
      "name": "lock",
      "outputs": [],
      "stateMutability": "nonpayable",
      "type": "function"
    },
    {
      "inputs": [
        {
          "internalType": "address",
          "name": "_to",
          "type": "address"
        },
        {
          "internalType": "uint256",
          "name": "_amount",
          "type": "uint256"
        }
      ],
      "name": "moveDREX",
      "outputs": [],
      "stateMutability": "nonpayable",
      "type": "function"
    },
    {
      "inputs": [],
      "name": "owner",
      "outputs": [
        {
          "internalType": "address",
          "name": "",
          "type": "address"
        }
      ],
      "stateMutability": "view",
      "type": "function"
    },
    {
      "inputs": [],
      "name": "renounceOwnership",
      "outputs": [],
      "stateMutability": "nonpayable",
      "type": "function"
    },
    {
      "inputs": [
        {
          "internalType": "address",
          "name": "_target",
          "type": "address"
        },
        {
          "internalType": "bool",
          "name": "_value",
          "type": "bool"
        }
      ],
      "name": "setAuthorized",
      "outputs": [],
      "stateMutability": "nonpayable",
      "type": "function"
    },
    {
      "inputs": [
        {
          "internalType": "address",
          "name": "_governance",
          "type": "address"
        },
        {
          "internalType": "bool",
          "name": "_value",
          "type": "bool"
        }
      ],
      "name": "setGovernor",
      "outputs": [],
      "stateMutability": "nonpayable",
      "type": "function"
    },
    {
      "inputs": [
        {
          "internalType": "address",
          "name": "_from",
          "type": "address"
        },
        {
          "internalType": "address",
          "name": "_to",
          "type": "address"
        },
        {
          "internalType": "uint256",
          "name": "_amount",
          "type": "uint256"
        }
      ],
      "name": "setLimitTransfer",
      "outputs": [],
      "stateMutability": "nonpayable",
      "type": "function"
    },
    {
      "inputs": [],
      "name": "state",
      "outputs": [
        {
          "internalType": "enum VaultSimple.VaultState",
          "name": "",
          "type": "uint8"
        }
      ],
      "stateMutability": "view",
      "type": "function"
    },
    {
      "inputs": [],
      "name": "stateBeforePause",
      "outputs": [
        {
          "internalType": "enum VaultSimple.VaultState",
          "name": "",
          "type": "uint8"
        }
      ],
      "stateMutability": "view",
      "type": "function"
    },
    {
      "inputs": [
        {
          "internalType": "address",
          "name": "newOwner",
          "type": "address"
        }
      ],
      "name": "transferOwnership",
      "outputs": [],
      "stateMutability": "nonpayable",
      "type": "function"
    },
    {
      "inputs": [],
      "name": "unlock",
      "outputs": [],
      "stateMutability": "nonpayable",
      "type": "function"
    },
    {
      "inputs": [
        {
          "internalType": "uint256",
          "name": "_amount",
          "type": "uint256"
        }
      ],
      "name": "withdrawOwner",
      "outputs": [],
      "stateMutability": "nonpayable",
      "type": "function"
    }
  ],
  "bytecode": {
    "object": "0x608060405234801561001057600080fd5b50604051610f1f380380610f1f83398101604081905261002f916100e0565b338061005557604051631e4fbdf760e01b81526000600482015260240160405180910390fd5b61005e81610090565b50600180546001600160a01b03929092166001600160a81b031990921691909117600160a01b17905542600255610110565b600080546001600160a01b038381166001600160a01b0319831681178455604051919092169283917f8be0079c531659141344cd1fd0a4f28419497f9722a3daafe3b4186f6b6457e09190a35050565b6000602082840312156100f257600080fd5b81516001600160a01b038116811461010957600080fd5b9392505050565b610e008061011f6000396000f3fe608060405234801561001057600080fd5b50600436106101365760003560e01c80638da5cb5b116100b2578063c19d93fb11610081578063f19e207e11610066578063f19e207e146102d1578063f2fde38b146102f4578063f83d08ba1461030757600080fd5b8063c19d93fb146102a4578063caa6fea4146102c957600080fd5b80638da5cb5b1461025857806396c11ebf14610276578063a69df4b514610289578063b6b55f251461029157600080fd5b80636ef98b2111610109578063711bf9b2116100ee578063711bf9b21461020a578063715018a61461021d5780638d64fd601461022557600080fd5b80636ef98b21146101c457806370ec42e8146101d757600080fd5b80632b97d4fe1461013b5780633bf23d8114610150578063441fc0c61461016c5780635160696c146101b1575b600080fd5b61014e610149366004610c80565b61030f565b005b61015960025481565b6040519081526020015b60405180910390f35b60015461018c9073ffffffffffffffffffffffffffffffffffffffff1681565b60405173ffffffffffffffffffffffffffffffffffffffff9091168152602001610163565b61014e6101bf366004610cb8565b610405565b61014e6101d2366004610cef565b610490565b6101fa6101e5366004610d08565b60046020526000908152604090205460ff1681565b6040519015158152602001610163565b61014e610218366004610cb8565b610571565b61014e6105fc565b60015461024b907501000000000000000000000000000000000000000000900460ff1681565b6040516101639190610d59565b60005473ffffffffffffffffffffffffffffffffffffffff1661018c565b61014e610284366004610d9a565b610610565b61014e61067e565b61014e61029f366004610cef565b61076e565b60015461024b9074010000000000000000000000000000000000000000900460ff1681565b61014e610850565b6101fa6102df366004610d08565b60036020526000908152604090205460ff1681565b61014e610302366004610d08565b610939565b61014e6109a2565b6001546040517fa9059cbb0000000000000000000000000000000000000000000000000000000081523360048201526024810183905273ffffffffffffffffffffffffffffffffffffffff9091169063a9059cbb906044016020604051808303816000875af1158015610386573d6000803e3d6000fd5b505050506040513d601f19601f820116820180604052508101906103aa9190610dd6565b506040805133815273ffffffffffffffffffffffffffffffffffffffff841660208201529081018290527fd5a641b66b95c53e69b2f6a054b55cf26e532f9e7d966f53d1bb2828e12799989060600160405180910390a15050565b73ffffffffffffffffffffffffffffffffffffffff821660008181526004602090815260409182902080547fffffffffffffffffffffffffffffffffffffffffffffffffffffffffffffff001685151590811790915591519182527fbb35d79a0e42810e1556183f4de163f21b0dfa425332429ffc7f12d1b1be36d991015b60405180910390a25050565b610498610a74565b6001546040517fa9059cbb0000000000000000000000000000000000000000000000000000000081523360048201526024810183905273ffffffffffffffffffffffffffffffffffffffff9091169063a9059cbb906044016020604051808303816000875af115801561050f573d6000803e3d6000fd5b505050506040513d601f19601f820116820180604052508101906105339190610dd6565b5060408051338152602081018390527f884edad9ce6fa2440d8a54cc123490eb96d2768479d49ff9c7366125a942436491015b60405180910390a150565b610579610b11565b73ffffffffffffffffffffffffffffffffffffffff821660008181526003602090815260409182902080547fffffffffffffffffffffffffffffffffffffffffffffffffffffffffffffff001685151590811790915591519182527f8d6437292b994fc738dc2a2d36adca80c5c3516dde0ca63fedcbb70101b21a319101610484565b610604610b8f565b61060e6000610be2565b565b73ffffffffffffffffffffffffffffffffffffffff83811660008181526005602090815260408083209487168084529482529182902085905590518481527f80da462ebfbe41cfc9bc015e7a9a3c7a2a73dbccede72d8ceb583606c27f8f90910160405180910390a3505050565b610686610b8f565b6001805460ff7401000000000000000000000000000000000000000082041691907fffffffffffffffffffff00ffffffffffffffffffffffffffffffffffffffffff1675010000000000000000000000000000000000000000008360028111156106f2576106f2610d2a565b0217905550600180547fffffffffffffffffffffff00ffffffffffffffffffffffffffffffffffffffff16740100000000000000000000000000000000000000001781556040517f23ad33ab6a13a00aa7d06cd167b2abd03dec86af3cf3cc91759dcd3ae84118879161076491610d59565b60405180910390a1565b6001546040517f23b872dd0000000000000000000000000000000000000000000000000000000081523360048201523060248201526044810183905273ffffffffffffffffffffffffffffffffffffffff909116906323b872dd906064016020604051808303816000875af11580156107eb573d6000803e3d6000fd5b505050506040513d601f19601f8201168201806040525081019061080f9190610dd6565b50604080513381526020810183905230918101919091527fe31c7b8d08ee7db0afa68782e1028ef92305caeea8626633ad44d413e30f6b2f90606001610566565b610858610b8f565b6001805460ff7401000000000000000000000000000000000000000082041691907fffffffffffffffffffff00ffffffffffffffffffffffffffffffffffffffffff1675010000000000000000000000000000000000000000008360028111156108c4576108c4610d2a565b0217905550600180547fffffffffffffffffffffff00ffffffffffffffffffffffffffffffffffffffff16740200000000000000000000000000000000000000001790556040517f23ad33ab6a13a00aa7d06cd167b2abd03dec86af3cf3cc91759dcd3ae84118879061076490600290610d59565b610941610b8f565b73ffffffffffffffffffffffffffffffffffffffff8116610996576040517f1e4fbdf7000000000000000000000000000000000000000000000000000000008152600060048201526024015b60405180910390fd5b61099f81610be2565b50565b6109aa610b8f565b6001805460ff7401000000000000000000000000000000000000000082041691907fffffffffffffffffffff00ffffffffffffffffffffffffffffffffffffffffff167501000000000000000000000000000000000000000000836002811115610a1657610a16610d2a565b0217905550600180547fffffffffffffffffffffff00ffffffffffffffffffffffffffffffffffffffff1690556040517f23ad33ab6a13a00aa7d06cd167b2abd03dec86af3cf3cc91759dcd3ae84118879061076490600090610d59565b3360009081526003602052604090205460ff16151560011480610aab57503360009081526004602052604090205460ff1615156001145b61060e576040517f08c379a000000000000000000000000000000000000000000000000000000000815260206004820152600b60248201527f21617574686f72697a6564000000000000000000000000000000000000000000604482015260640161098d565b3360009081526004602052604090205460ff16151560011461060e576040517f08c379a000000000000000000000000000000000000000000000000000000000815260206004820152600960248201527f21676f7665726e6f720000000000000000000000000000000000000000000000604482015260640161098d565b60005473ffffffffffffffffffffffffffffffffffffffff16331461060e576040517f118cdaa700000000000000000000000000000000000000000000000000000000815233600482015260240161098d565b6000805473ffffffffffffffffffffffffffffffffffffffff8381167fffffffffffffffffffffffff0000000000000000000000000000000000000000831681178455604051919092169283917f8be0079c531659141344cd1fd0a4f28419497f9722a3daafe3b4186f6b6457e09190a35050565b803573ffffffffffffffffffffffffffffffffffffffff81168114610c7b57600080fd5b919050565b60008060408385031215610c9357600080fd5b610c9c83610c57565b946020939093013593505050565b801515811461099f57600080fd5b60008060408385031215610ccb57600080fd5b610cd483610c57565b91506020830135610ce481610caa565b809150509250929050565b600060208284031215610d0157600080fd5b5035919050565b600060208284031215610d1a57600080fd5b610d2382610c57565b9392505050565b7f4e487b7100000000000000000000000000000000000000000000000000000000600052602160045260246000fd5b6020810160038310610d94577f4e487b7100000000000000000000000000000000000000000000000000000000600052602160045260246000fd5b91905290565b600080600060608486031215610daf57600080fd5b610db884610c57565b9250610dc660208501610c57565b9150604084013590509250925092565b600060208284031215610de857600080fd5b8151610d2381610caa56fea164736f6c6343000815000a",
    "linkReferences": {}
  },
  "methodIdentifiers": {
    "authorizedAddresses(address)": "f19e207e",
    "currentVaultStartTimestamp()": "3bf23d81",
    "deposit(uint256)": "b6b55f25",
    "drex()": "441fc0c6",
    "emergency()": "caa6fea4",
    "governor(address)": "70ec42e8",
    "lock()": "f83d08ba",
    "moveDREX(address,uint256)": "2b97d4fe",
    "owner()": "8da5cb5b",
    "renounceOwnership()": "715018a6",
    "setAuthorized(address,bool)": "711bf9b2",
    "setGovernor(address,bool)": "5160696c",
    "setLimitTransfer(address,address,uint256)": "96c11ebf",
    "state()": "c19d93fb",
    "stateBeforePause()": "8d64fd60",
    "transferOwnership(address)": "f2fde38b",
    "unlock()": "a69df4b5",
    "withdrawOwner(uint256)": "6ef98b21"
  },
  "id": 38
}