{
  "abi": [
    {
      "inputs": [],
      "name": "AlreadySet",
      "type": "error"
    },
    {
      "inputs": [],
      "name": "CannotSelfTransfer",
      "type": "error"
    },
    {
      "inputs": [],
      "name": "EmptyBillingRegistry",
      "type": "error"
    },
    {
      "inputs": [],
      "name": "EmptyPublicKey",
      "type": "error"
    },
    {
      "inputs": [],
      "name": "EmptyRequestData",
      "type": "error"
    },
    {
      "inputs": [],
      "name": "EmptySendersList",
      "type": "error"
    },
    {
      "inputs": [],
      "name": "InconsistentReportData",
      "type": "error"
    },
    {
      "inputs": [],
      "name": "NotAllowedToSetSenders",
      "type": "error"
    },
    {
      "inputs": [],
      "name": "NotProposedOwner",
      "type": "error"
    },
    {
      "inputs": [],
      "name": "OnlyCallableByOwner",
      "type": "error"
    },
    {
      "inputs": [],
      "name": "OwnerMustBeSet",
      "type": "error"
    },
    {
      "inputs": [],
      "name": "ReportInvalid",
      "type": "error"
    },
    {
      "inputs": [],
      "name": "UnauthorizedPublicKeyChange",
      "type": "error"
    },
    {
      "inputs": [],
      "name": "UnauthorizedSender",
      "type": "error"
    },
    {
      "anonymous": false,
      "inputs": [
        {
          "indexed": false,
          "internalType": "address",
          "name": "account",
          "type": "address"
        }
      ],
      "name": "AuthorizedSendersActive",
      "type": "event"
    },
    {
      "anonymous": false,
      "inputs": [
        {
          "indexed": false,
          "internalType": "address[]",
          "name": "senders",
          "type": "address[]"
        },
        {
          "indexed": false,
          "internalType": "address",
          "name": "changedBy",
          "type": "address"
        }
      ],
      "name": "AuthorizedSendersChanged",
      "type": "event"
    },
    {
      "anonymous": false,
      "inputs": [
        {
          "indexed": false,
          "internalType": "address",
          "name": "account",
          "type": "address"
        }
      ],
      "name": "AuthorizedSendersDeactive",
      "type": "event"
    },
    {
      "anonymous": false,
      "inputs": [
        {
          "indexed": false,
          "internalType": "uint32",
          "name": "previousConfigBlockNumber",
          "type": "uint32"
        },
        {
          "indexed": false,
          "internalType": "bytes32",
          "name": "configDigest",
          "type": "bytes32"
        },
        {
          "indexed": false,
          "internalType": "uint64",
          "name": "configCount",
          "type": "uint64"
        },
        {
          "indexed": false,
          "internalType": "address[]",
          "name": "signers",
          "type": "address[]"
        },
        {
          "indexed": false,
          "internalType": "address[]",
          "name": "transmitters",
          "type": "address[]"
        },
        {
          "indexed": false,
          "internalType": "uint8",
          "name": "f",
          "type": "uint8"
        },
        {
          "indexed": false,
          "internalType": "bytes",
          "name": "onchainConfig",
          "type": "bytes"
        },
        {
          "indexed": false,
          "internalType": "uint64",
          "name": "offchainConfigVersion",
          "type": "uint64"
        },
        {
          "indexed": false,
          "internalType": "bytes",
          "name": "offchainConfig",
          "type": "bytes"
        }
      ],
      "name": "ConfigSet",
      "type": "event"
    },
    {
      "anonymous": false,
      "inputs": [
        {
          "indexed": false,
          "internalType": "uint8",
          "name": "version",
          "type": "uint8"
        }
      ],
      "name": "Initialized",
      "type": "event"
    },
    {
      "anonymous": false,
      "inputs": [
        {
          "indexed": true,
          "internalType": "bytes32",
          "name": "requestId",
          "type": "bytes32"
        }
      ],
      "name": "InvalidRequestID",
      "type": "event"
    },
    {
      "anonymous": false,
      "inputs": [
        {
          "indexed": true,
          "internalType": "bytes32",
          "name": "requestId",
          "type": "bytes32"
        },
        {
          "indexed": false,
          "internalType": "address",
          "name": "requestingContract",
          "type": "address"
        },
        {
          "indexed": false,
          "internalType": "address",
          "name": "requestInitiator",
          "type": "address"
        },
        {
          "indexed": false,
          "internalType": "uint64",
          "name": "subscriptionId",
          "type": "uint64"
        },
        {
          "indexed": false,
          "internalType": "address",
          "name": "subscriptionOwner",
          "type": "address"
        },
        {
          "indexed": false,
          "internalType": "bytes",
          "name": "data",
          "type": "bytes"
        }
      ],
      "name": "OracleRequest",
      "type": "event"
    },
    {
      "anonymous": false,
      "inputs": [
        {
          "indexed": true,
          "internalType": "bytes32",
          "name": "requestId",
          "type": "bytes32"
        }
      ],
      "name": "OracleResponse",
      "type": "event"
    },
    {
      "anonymous": false,
      "inputs": [
        {
          "indexed": true,
          "internalType": "address",
          "name": "from",
          "type": "address"
        },
        {
          "indexed": true,
          "internalType": "address",
          "name": "to",
          "type": "address"
        }
      ],
      "name": "OwnershipTransferRequested",
      "type": "event"
    },
    {
      "anonymous": false,
      "inputs": [
        {
          "indexed": true,
          "internalType": "address",
          "name": "from",
          "type": "address"
        },
        {
          "indexed": true,
          "internalType": "address",
          "name": "to",
          "type": "address"
        }
      ],
      "name": "OwnershipTransferred",
      "type": "event"
    },
    {
      "anonymous": false,
      "inputs": [
        {
          "indexed": true,
          "internalType": "bytes32",
          "name": "requestId",
          "type": "bytes32"
        },
        {
          "indexed": false,
          "internalType": "address",
          "name": "transmitter",
          "type": "address"
        }
      ],
      "name": "ResponseTransmitted",
      "type": "event"
    },
    {
      "anonymous": false,
      "inputs": [
        {
          "indexed": false,
          "internalType": "bytes32",
          "name": "configDigest",
          "type": "bytes32"
        },
        {
          "indexed": false,
          "internalType": "uint32",
          "name": "epoch",
          "type": "uint32"
        }
      ],
      "name": "Transmitted",
      "type": "event"
    },
    {
      "anonymous": false,
      "inputs": [
        {
          "indexed": true,
          "internalType": "bytes32",
          "name": "requestId",
          "type": "bytes32"
        },
        {
          "indexed": false,
          "internalType": "string",
          "name": "reason",
          "type": "string"
        }
      ],
      "name": "UserCallbackError",
      "type": "event"
    },
    {
      "anonymous": false,
      "inputs": [
        {
          "indexed": true,
          "internalType": "bytes32",
          "name": "requestId",
          "type": "bytes32"
        },
        {
          "indexed": false,
          "internalType": "bytes",
          "name": "lowLevelData",
          "type": "bytes"
        }
      ],
      "name": "UserCallbackRawError",
      "type": "event"
    },
    {
      "inputs": [],
      "name": "acceptOwnership",
      "outputs": [],
      "stateMutability": "nonpayable",
      "type": "function"
    },
    {
      "inputs": [],
      "name": "activateAuthorizedReceiver",
      "outputs": [],
      "stateMutability": "nonpayable",
      "type": "function"
    },
    {
      "inputs": [
        {
          "internalType": "address[]",
          "name": "senders",
          "type": "address[]"
        }
      ],
      "name": "addAuthorizedSenders",
      "outputs": [],
      "stateMutability": "nonpayable",
      "type": "function"
    },
    {
      "inputs": [],
      "name": "authorizedReceiverActive",
      "outputs": [
        {
          "internalType": "bool",
          "name": "",
          "type": "bool"
        }
      ],
      "stateMutability": "view",
      "type": "function"
    },
    {
      "inputs": [
        {
          "internalType": "bytes",
          "name": "report",
          "type": "bytes"
        }
      ],
      "name": "callReport",
      "outputs": [],
      "stateMutability": "nonpayable",
      "type": "function"
    },
    {
      "inputs": [
        {
          "internalType": "bytes",
          "name": "report",
          "type": "bytes"
        },
        {
          "internalType": "address",
          "name": "secondSigner",
          "type": "address"
        }
      ],
      "name": "callReportMultipleSigners",
      "outputs": [],
      "stateMutability": "nonpayable",
      "type": "function"
    },
    {
      "inputs": [
        {
          "internalType": "bytes",
          "name": "report",
          "type": "bytes"
        }
      ],
      "name": "callValidateReport",
      "outputs": [
        {
          "internalType": "bool",
          "name": "isValid",
          "type": "bool"
        }
      ],
      "stateMutability": "pure",
      "type": "function"
    },
    {
      "inputs": [],
      "name": "deactivateAuthorizedReceiver",
      "outputs": [],
      "stateMutability": "nonpayable",
      "type": "function"
    },
    {
      "inputs": [
        {
          "internalType": "address",
          "name": "node",
          "type": "address"
        }
      ],
      "name": "deleteNodePublicKey",
      "outputs": [],
      "stateMutability": "nonpayable",
      "type": "function"
    },
    {
      "inputs": [
        {
          "internalType": "uint64",
          "name": "subscriptionId",
          "type": "uint64"
        },
        {
          "internalType": "bytes",
          "name": "data",
          "type": "bytes"
        },
        {
          "internalType": "uint32",
          "name": "gasLimit",
          "type": "uint32"
        },
        {
          "internalType": "uint256",
          "name": "gasPrice",
          "type": "uint256"
        }
      ],
      "name": "estimateCost",
      "outputs": [
        {
          "internalType": "uint96",
          "name": "",
          "type": "uint96"
        }
      ],
      "stateMutability": "view",
      "type": "function"
    },
    {
      "inputs": [],
      "name": "getAllNodePublicKeys",
      "outputs": [
        {
          "internalType": "address[]",
          "name": "",
          "type": "address[]"
        },
        {
          "internalType": "bytes[]",
          "name": "",
          "type": "bytes[]"
        }
      ],
      "stateMutability": "view",
      "type": "function"
    },
    {
      "inputs": [],
      "name": "getAuthorizedSenders",
      "outputs": [
        {
          "internalType": "address[]",
          "name": "",
          "type": "address[]"
        }
      ],
      "stateMutability": "view",
      "type": "function"
    },
    {
      "inputs": [],
      "name": "getDONPublicKey",
      "outputs": [
        {
          "internalType": "bytes",
          "name": "",
          "type": "bytes"
        }
      ],
      "stateMutability": "view",
      "type": "function"
    },
    {
      "inputs": [],
      "name": "getRegistry",
      "outputs": [
        {
          "internalType": "address",
          "name": "",
          "type": "address"
        }
      ],
      "stateMutability": "view",
      "type": "function"
    },
    {
      "inputs": [
        {
          "internalType": "bytes",
          "name": "",
          "type": "bytes"
        },
        {
          "components": [
            {
              "internalType": "uint64",
              "name": "subscriptionId",
              "type": "uint64"
            },
            {
              "internalType": "address",
              "name": "client",
              "type": "address"
            },
            {
              "internalType": "uint32",
              "name": "gasLimit",
              "type": "uint32"
            },
            {
              "internalType": "uint256",
              "name": "gasPrice",
              "type": "uint256"
            }
          ],
          "internalType": "struct IFunctionsBillingRegistry.RequestBilling",
          "name": "",
          "type": "tuple"
        }
      ],
      "name": "getRequiredFee",
      "outputs": [
        {
          "internalType": "uint96",
          "name": "",
          "type": "uint96"
        }
      ],
      "stateMutability": "pure",
      "type": "function"
    },
    {
      "inputs": [],
      "name": "getThresholdPublicKey",
      "outputs": [
        {
          "internalType": "bytes",
          "name": "",
          "type": "bytes"
        }
      ],
      "stateMutability": "view",
      "type": "function"
    },
    {
      "inputs": [],
      "name": "initialize",
      "outputs": [],
      "stateMutability": "nonpayable",
      "type": "function"
    },
    {
      "inputs": [
        {
          "internalType": "address",
          "name": "sender",
          "type": "address"
        }
      ],
      "name": "isAuthorizedSender",
      "outputs": [
        {
          "internalType": "bool",
          "name": "",
          "type": "bool"
        }
      ],
      "stateMutability": "view",
      "type": "function"
    },
    {
      "inputs": [],
      "name": "latestConfigDetails",
      "outputs": [
        {
          "internalType": "uint32",
          "name": "configCount",
          "type": "uint32"
        },
        {
          "internalType": "uint32",
          "name": "blockNumber",
          "type": "uint32"
        },
        {
          "internalType": "bytes32",
          "name": "configDigest",
          "type": "bytes32"
        }
      ],
      "stateMutability": "view",
      "type": "function"
    },
    {
      "inputs": [],
      "name": "latestConfigDigestAndEpoch",
      "outputs": [
        {
          "internalType": "bool",
          "name": "scanLogs",
          "type": "bool"
        },
        {
          "internalType": "bytes32",
          "name": "configDigest",
          "type": "bytes32"
        },
        {
          "internalType": "uint32",
          "name": "epoch",
          "type": "uint32"
        }
      ],
      "stateMutability": "view",
      "type": "function"
    },
    {
      "inputs": [],
      "name": "owner",
      "outputs": [
        {
          "internalType": "address",
          "name": "",
          "type": "address"
        }
      ],
      "stateMutability": "view",
      "type": "function"
    },
    {
      "inputs": [
        {
          "internalType": "address[]",
          "name": "senders",
          "type": "address[]"
        }
      ],
      "name": "removeAuthorizedSenders",
      "outputs": [],
      "stateMutability": "nonpayable",
      "type": "function"
    },
    {
      "inputs": [
        {
          "internalType": "uint64",
          "name": "subscriptionId",
          "type": "uint64"
        },
        {
          "internalType": "bytes",
          "name": "data",
          "type": "bytes"
        },
        {
          "internalType": "uint32",
          "name": "gasLimit",
          "type": "uint32"
        }
      ],
      "name": "sendRequest",
      "outputs": [
        {
          "internalType": "bytes32",
          "name": "",
          "type": "bytes32"
        }
      ],
      "stateMutability": "nonpayable",
      "type": "function"
    },
    {
      "inputs": [
        {
          "internalType": "address[]",
          "name": "_signers",
          "type": "address[]"
        },
        {
          "internalType": "address[]",
          "name": "_transmitters",
          "type": "address[]"
        },
        {
          "internalType": "uint8",
          "name": "_f",
          "type": "uint8"
        },
        {
          "internalType": "bytes",
          "name": "_onchainConfig",
          "type": "bytes"
        },
        {
          "internalType": "uint64",
          "name": "_offchainConfigVersion",
          "type": "uint64"
        },
        {
          "internalType": "bytes",
          "name": "_offchainConfig",
          "type": "bytes"
        }
      ],
      "name": "setConfig",
      "outputs": [],
      "stateMutability": "nonpayable",
      "type": "function"
    },
    {
      "inputs": [
        {
          "internalType": "bytes",
          "name": "donPublicKey",
          "type": "bytes"
        }
      ],
      "name": "setDONPublicKey",
      "outputs": [],
      "stateMutability": "nonpayable",
      "type": "function"
    },
    {
      "inputs": [
        {
          "internalType": "address",
          "name": "node",
          "type": "address"
        },
        {
          "internalType": "bytes",
          "name": "publicKey",
          "type": "bytes"
        }
      ],
      "name": "setNodePublicKey",
      "outputs": [],
      "stateMutability": "nonpayable",
      "type": "function"
    },
    {
      "inputs": [
        {
          "internalType": "address",
          "name": "registryAddress",
          "type": "address"
        }
      ],
      "name": "setRegistry",
      "outputs": [],
      "stateMutability": "nonpayable",
      "type": "function"
    },
    {
      "inputs": [
        {
          "internalType": "bytes",
          "name": "thresholdPublicKey",
          "type": "bytes"
        }
      ],
      "name": "setThresholdPublicKey",
      "outputs": [],
      "stateMutability": "nonpayable",
      "type": "function"
    },
    {
      "inputs": [
        {
          "internalType": "address",
          "name": "to",
          "type": "address"
        }
      ],
      "name": "transferOwnership",
      "outputs": [],
      "stateMutability": "nonpayable",
      "type": "function"
    },
    {
      "inputs": [
        {
          "internalType": "bytes32[3]",
          "name": "reportContext",
          "type": "bytes32[3]"
        },
        {
          "internalType": "bytes",
          "name": "report",
          "type": "bytes"
        },
        {
          "internalType": "bytes32[]",
          "name": "rs",
          "type": "bytes32[]"
        },
        {
          "internalType": "bytes32[]",
          "name": "ss",
          "type": "bytes32[]"
        },
        {
          "internalType": "bytes32",
          "name": "rawVs",
          "type": "bytes32"
        }
      ],
      "name": "transmit",
      "outputs": [],
      "stateMutability": "nonpayable",
      "type": "function"
    },
    {
      "inputs": [],
      "name": "transmitters",
      "outputs": [
        {
          "internalType": "address[]",
          "name": "",
          "type": "address[]"
        }
      ],
      "stateMutability": "view",
      "type": "function"
    },
    {
      "inputs": [],
      "name": "typeAndVersion",
      "outputs": [
        {
          "internalType": "string",
          "name": "",
          "type": "string"
        }
      ],
      "stateMutability": "pure",
      "type": "function"
    }
  ],
  "bytecode": {
    "object": "0x608060405234801561001057600080fd5b5061405a806100206000396000f3fe608060405234801561001057600080fd5b50600436106101f05760003560e01c8063807560311161010f578063afcb95d7116100a2578063e3d0e71211610071578063e3d0e7121461046a578063f1e14a211461047d578063f2fde38b14610494578063fa00763a146104a757600080fd5b8063afcb95d7146103ff578063b1dc65a41461041f578063d227d24514610432578063d328a91e1461046257600080fd5b806381ff7048116100de57806381ff70481461039d5780638da5cb5b146103cd57806391bb64eb146103e4578063a91ee0dc146103ec57600080fd5b806380756031146103725780638129fc1c14610385578063814118341461038d57806381f1b9381461039557600080fd5b80634b4fa0c111610187578063736d7e0f11610156578063736d7e0f14610331578063770c7f4c1461034457806379ba5097146103575780637f15e1661461035f57600080fd5b80634b4fa0c1146102cc5780634dcef404146102e357806353398987146102f65780635ab1bd531461030c57600080fd5b80632408afaa116101c35780632408afaa1461027057806326ceabac1461028557806328242b04146102985780633901c40e146102b957600080fd5b806303e1bf23146101f5578063083a54661461020a578063110254c81461021d578063181f5a7714610225575b600080fd5b610208610203366004612fdf565b6104ba565b005b610208610218366004613063565b6105cf565b610208610624565b60408051808201909152601581527f46756e6374696f6e734f7261636c6520302e302e30000000000000000000000060208201525b60405161026791906130df565b60405180910390f35b6102786106ee565b6040516102679190613136565b61020861029336600461315e565b6106ff565b6102ab6102a63660046131ac565b610792565b604051908152602001610267565b6102086102c7366004613211565b6109b7565b60085460ff165b6040519015158152602001610267565b6102086102f1366004612fdf565b6109e6565b6102fe610abb565b604051610267929190613268565b600d546001600160a01b03165b6040516001600160a01b039091168152602001610267565b61020861033f366004613063565b610c87565b6102d3610352366004613063565b610ca1565b610208610cf0565b61020861036d366004613063565b610dc9565b6102086103803660046132da565b610e19565b610208610ebb565b610278611025565b61025a611087565b6004546002546040805163ffffffff80851682526401000000009094049093166020840152820152606001610267565b6000546201000090046001600160a01b0316610319565b610208611110565b6102086103fa36600461315e565b6111d0565b604080516001815260006020820181905291810191909152606001610267565b61020861042d36600461332f565b611252565b6104456104403660046133e6565b611875565b6040516bffffffffffffffffffffffff9091168152602001610267565b61025a611a37565b6102086104783660046135cc565b611a46565b61044561048b366004613699565b60009392505050565b6102086104a236600461315e565b6122c3565b6102d36104b536600461315e565b6122d4565b6000546201000090046001600160a01b03163314610504576040517fad77f06100000000000000000000000000000000000000000000000000000000815260040160405180910390fd5b600081900361053f576040517f75158c3b00000000000000000000000000000000000000000000000000000000815260040160405180910390fd5b60005b8181101561058f5761057c83838381811061055f5761055f613756565b9050602002016020810190610574919061315e565b6009906122ff565b5080610587816137b4565b915050610542565b507ff263cfb3e4298332e776194610cf9fdc09ccb3ada8b9aa39764d882e11fbf0a08282336040516105c3939291906137ec565b60405180910390a15050565b6105d761231b565b6000819003610612576040517f4f42be3d00000000000000000000000000000000000000000000000000000000815260040160405180910390fd5b600f61061f8284836138ed565b505050565b6000546201000090046001600160a01b0316331461066e576040517fad77f06100000000000000000000000000000000000000000000000000000000815260040160405180910390fd5b60085460ff16156106ab576040517fa741a04500000000000000000000000000000000000000000000000000000000815260040160405180910390fd5b6008805460ff191660011790556040513381527fae51766a982895b0c444fc99fc1a560762b464d709e6c78376c85617f7eeb5ce906020015b60405180910390a1565b60606106fa6009612367565b905090565b6000546201000090046001600160a01b03166001600160a01b0316336001600160a01b031614806107385750336001600160a01b038216145b61076e576040517fed6dd19b00000000000000000000000000000000000000000000000000000000815260040160405180910390fd5b6001600160a01b0381166000908152600e6020526040812061078f91612f21565b50565b600d546000906001600160a01b03166107d7576040517f9c5fe32400000000000000000000000000000000000000000000000000000000815260040160405180910390fd5b6107df612374565b6000839003610819576040517ec1cfc000000000000000000000000000000000000000000000000000000000815260040160405180910390fd5b600d546040805160808101825267ffffffffffffffff8816815233602082015263ffffffff8516818301523a606082015290517fa9d03c050000000000000000000000000000000000000000000000000000000081526000926001600160a01b03169163a9d03c0591610893918991899190600401613a15565b6020604051808303816000875af11580156108b2573d6000803e3d6000fd5b505050506040513d601f19601f820116820180604052508101906108d69190613a71565b600d546040517fb2a489ff00000000000000000000000000000000000000000000000000000000815267ffffffffffffffff8916600482015291925082917fa1ec73989d79578cd6f67d4f593ac3e0a4d1020e5c0164db52108d7ff785406c91339132918b916001600160a01b039091169063b2a489ff90602401602060405180830381865afa15801561096e573d6000803e3d6000fd5b505050506040513d601f19601f820116820180604052508101906109929190613a8a565b8a8a6040516109a696959493929190613aa7565b60405180910390a295945050505050565b6109bf612f5b565b3381526001600160a01b03821660208201526109e05a3360028488886123b3565b50505050565b6000546201000090046001600160a01b03163314610a30576040517fad77f06100000000000000000000000000000000000000000000000000000000815260040160405180910390fd5b6000819003610a6b576040517f75158c3b00000000000000000000000000000000000000000000000000000000815260040160405180910390fd5b60005b8181101561058f57610aa8838383818110610a8b57610a8b613756565b9050602002016020810190610aa0919061315e565b60099061281f565b5080610ab3816137b4565b915050610a6e565b6060806000306001600160a01b031663814118346040518163ffffffff1660e01b8152600401600060405180830381865afa158015610afe573d6000803e3d6000fd5b505050506040513d6000823e601f3d908101601f19168201604052610b269190810190613af8565b90506000815167ffffffffffffffff811115610b4457610b44613453565b604051908082528060200260200182016040528015610b7757816020015b6060815260200190600190039081610b625790505b50905060005b8251811015610c7d57600e6000848381518110610b9c57610b9c613756565b60200260200101516001600160a01b03166001600160a01b031681526020019081526020016000208054610bcf9061384c565b80601f0160208091040260200160405190810160405280929190818152602001828054610bfb9061384c565b8015610c485780601f10610c1d57610100808354040283529160200191610c48565b820191906000526020600020905b815481529060010190602001808311610c2b57829003601f168201915b5050505050828281518110610c5f57610c5f613756565b60200260200101819052508080610c75906137b4565b915050610b7d565b5090939092509050565b610c8f612f5b565b33815261061f5a3360018487876123b3565b6000806000610ce7828287878080601f01602080910402602001604051908101604052809392919081815260200183838082843760009201919091525061283492505050565b95945050505050565b6001546001600160a01b03163314610d34576040517f0f22ca5f00000000000000000000000000000000000000000000000000000000815260040160405180910390fd5b6000805433620100008181027fffffffffffffffffffff0000000000000000000000000000000000000000ffff8416178455600180547fffffffffffffffffffffffff00000000000000000000000000000000000000001690556040516001600160a01b03919093041692909183917f8be0079c531659141344cd1fd0a4f28419497f9722a3daafe3b4186f6b6457e091a350565b610dd161231b565b6000819003610e0c576040517f4f42be3d00000000000000000000000000000000000000000000000000000000815260040160405180910390fd5b600c61061f8284836138ed565b6000546201000090046001600160a01b03166001600160a01b0316336001600160a01b03161480610e625750610e4e3361283d565b8015610e625750336001600160a01b038416145b610e98576040517fed6dd19b00000000000000000000000000000000000000000000000000000000815260040160405180910390fd5b6001600160a01b0383166000908152600e602052604090206109e08284836138ed565b600054610100900460ff1615808015610edb5750600054600160ff909116105b80610ef55750303b158015610ef5575060005460ff166001145b610f6c5760405162461bcd60e51b815260206004820152602e60248201527f496e697469616c697a61626c653a20636f6e747261637420697320616c72656160448201527f647920696e697469616c697a656400000000000000000000000000000000000060648201526084015b60405180910390fd5b6000805460ff191660011790558015610fac57600080547fffffffffffffffffffffffffffffffffffffffffffffffffffffffffffff00ff166101001790555b610fb6600161290c565b610fc060016129de565b801561078f57600080547fffffffffffffffffffffffffffffffffffffffffffffffffffffffffffff00ff169055604051600181527f7f26b83ff96e1f2b6a682f133852f6798a09c465da95921460cefb38474024989060200160405180910390a150565b6060600780548060200260200160405190810160405280929190818152602001828054801561107d57602002820191906000526020600020905b81546001600160a01b0316815260019091019060200180831161105f575b5050505050905090565b6060600f80546110969061384c565b80601f01602080910402602001604051908101604052809291908181526020018280546110c29061384c565b801561107d5780601f106110e45761010080835404028352916020019161107d565b820191906000526020600020905b8154815290600101906020018083116110f257509395945050505050565b6000546201000090046001600160a01b0316331461115a576040517fad77f06100000000000000000000000000000000000000000000000000000000815260040160405180910390fd5b60085460ff16611196576040517fa741a04500000000000000000000000000000000000000000000000000000000815260040160405180910390fd5b6008805460ff191690556040513381527fea3828816a323b8d7ff49d755efd105e7719166d6c76fad97a28eee5eccc3d9a906020016106e4565b6111d861231b565b6001600160a01b038116611218576040517f9c5fe32400000000000000000000000000000000000000000000000000000000815260040160405180910390fd5b600d80547fffffffffffffffffffffffff0000000000000000000000000000000000000000166001600160a01b0392909216919091179055565b60005a604080516020601f8b018190048102820181019092528981529192508a3591818c0135916112a891849163ffffffff851691908e908e908190840183828082843760009201919091525061283492505050565b6112de576040517f0be3632800000000000000000000000000000000000000000000000000000000815260040160405180910390fd5b6040805183815262ffffff600884901c1660208201527fb04e63db38c49950639fa09d29872f21f5d49d614f3a969d8adf3d4b52e41a62910160405180910390a16040805160608101825260025480825260035460ff808216602085015261010090910416928201929092529083146113995760405162461bcd60e51b815260206004820152601560248201527f636f6e666967446967657374206d69736d6174636800000000000000000000006044820152606401610f63565b6113a78b8b8b8b8b8b612a6e565b60015460009074010000000000000000000000000000000000000000900460ff1615611402576002826020015183604001516113e39190613b92565b6113ed9190613bda565b6113f8906001613b92565b60ff169050611418565b6020820151611412906001613b92565b60ff1690505b8881146114675760405162461bcd60e51b815260206004820152601a60248201527f77726f6e67206e756d626572206f66207369676e6174757265730000000000006044820152606401610f63565b8887146114b65760405162461bcd60e51b815260206004820152601e60248201527f7369676e617475726573206f7574206f6620726567697374726174696f6e00006044820152606401610f63565b3360009081526005602090815260408083208151808301909252805460ff808216845292939192918401916101009091041660028111156114f9576114f9613bfc565b600281111561150a5761150a613bfc565b905250905060028160200151600281111561152757611527613bfc565b14801561156157506007816000015160ff168154811061154957611549613756565b6000918252602090912001546001600160a01b031633145b6115ad5760405162461bcd60e51b815260206004820152601860248201527f756e617574686f72697a6564207472616e736d697474657200000000000000006044820152606401610f63565b50505050506115ba612f5b565b6000808a8a6040516115cd929190613c2b565b6040519081900381206115e4918e90602001613c3b565b60408051601f198184030181528282528051602091820120838301909252600080845290830152915060005b8981101561185757600060018489846020811061162f5761162f613756565b61163c91901a601b613b92565b8e8e8681811061164e5761164e613756565b905060200201358d8d8781811061166757611667613756565b90506020020135604051600081526020016040526040516116a4949392919093845260ff9290921660208401526040830152606082015260800190565b6020604051602081039080840390855afa1580156116c6573d6000803e3d6000fd5b505060408051601f198101516001600160a01b03811660009081526005602090815290849020838501909452835460ff8082168552929650929450840191610100900416600281111561171b5761171b613bfc565b600281111561172c5761172c613bfc565b905250925060018360200151600281111561174957611749613bfc565b146117965760405162461bcd60e51b815260206004820152601e60248201527f61646472657373206e6f7420617574686f72697a656420746f207369676e00006044820152606401610f63565b8251600090879060ff16601f81106117b0576117b0613756565b60200201516001600160a01b03161461180b5760405162461bcd60e51b815260206004820152601460248201527f6e6f6e2d756e69717565207369676e61747572650000000000000000000000006044820152606401610f63565b8086846000015160ff16601f811061182557611825613756565b6001600160a01b039092166020929092020152611843600186613b92565b94505080611850906137b4565b9050611610565b505050611868833383858e8e6123b3565b5050505050505050505050565b600d546000906001600160a01b03166118ba576040517f9c5fe32400000000000000000000000000000000000000000000000000000000815260040160405180910390fd5b6040805160808101825267ffffffffffffffff8816815233602082015263ffffffff85168183015260608101849052600d5491517ff1e14a21000000000000000000000000000000000000000000000000000000008152909160009182916001600160a01b03169063f1e14a219061193a908b908b908890600401613a15565b602060405180830381865afa158015611957573d6000803e3d6000fd5b505050506040513d601f19601f8201168201806040525081019061197b9190613c4f565b600d546040517fa1a6d04100000000000000000000000000000000000000000000000000000000815263ffffffff89166004820152602481018890526bffffffffffffffffffffffff8086166044830152831660648201529192506001600160a01b03169063a1a6d04190608401602060405180830381865afa158015611a06573d6000803e3d6000fd5b505050506040513d601f19601f82011682018060405250810190611a2a9190613c4f565b9998505050505050505050565b6060600c80546110969061384c565b855185518560ff16601f831115611a9f5760405162461bcd60e51b815260206004820152601060248201527f746f6f206d616e79207369676e657273000000000000000000000000000000006044820152606401610f63565b60008111611aef5760405162461bcd60e51b815260206004820152601260248201527f66206d75737420626520706f73697469766500000000000000000000000000006044820152606401610f63565b818314611b635760405162461bcd60e51b8152602060048201526024808201527f6f7261636c6520616464726573736573206f7574206f6620726567697374726160448201527f74696f6e000000000000000000000000000000000000000000000000000000006064820152608401610f63565b611b6e816003613c7d565b8311611bbc5760405162461bcd60e51b815260206004820152601860248201527f6661756c74792d6f7261636c65206620746f6f206869676800000000000000006044820152606401610f63565b611bc461231b565b6040805160c0810182528a8152602081018a905260ff8916918101919091526060810187905267ffffffffffffffff8616608082015260a081018590525b60065415611d9d57600654600090611c1c90600190613c94565b9050600060068281548110611c3357611c33613756565b6000918252602082200154600780546001600160a01b0390921693509084908110611c6057611c60613756565b60009182526020808320909101546001600160a01b0385811684526005909252604080842080547fffffffffffffffffffffffffffffffffffffffffffffffffffffffffffff000090811690915592909116808452922080549091169055600680549192509080611cd357611cd3613ca7565b60008281526020902081017fffffffffffffffffffffffffffffffffffffffffffffffffffffffffffffffff90810180547fffffffffffffffffffffffff00000000000000000000000000000000000000001690550190556007805480611d3c57611d3c613ca7565b60008281526020902081017fffffffffffffffffffffffffffffffffffffffffffffffffffffffffffffffff90810180547fffffffffffffffffffffffff000000000000000000000000000000000000000016905501905550611c02915050565b60005b8151518110156121445760006005600084600001518481518110611dc657611dc6613756565b6020908102919091018101516001600160a01b0316825281019190915260400160002054610100900460ff166002811115611e0357611e03613bfc565b14611e505760405162461bcd60e51b815260206004820152601760248201527f7265706561746564207369676e657220616464726573730000000000000000006044820152606401610f63565b6040805180820190915260ff82168152600160208201528251805160059160009185908110611e8157611e81613756565b6020908102919091018101516001600160a01b03168252818101929092526040016000208251815460ff90911660ff1982168117835592840151919283917fffffffffffffffffffffffffffffffffffffffffffffffffffffffffffff00001617610100836002811115611ef757611ef7613bfc565b021790555060009150611f079050565b6005600084602001518481518110611f2157611f21613756565b6020908102919091018101516001600160a01b0316825281019190915260400160002054610100900460ff166002811115611f5e57611f5e613bfc565b14611fab5760405162461bcd60e51b815260206004820152601c60248201527f7265706561746564207472616e736d69747465722061646472657373000000006044820152606401610f63565b6040805180820190915260ff821681526020810160028152506005600084602001518481518110611fde57611fde613756565b6020908102919091018101516001600160a01b03168252818101929092526040016000208251815460ff90911660ff1982168117835592840151919283917fffffffffffffffffffffffffffffffffffffffffffffffffffffffffffff0000161761010083600281111561205457612054613bfc565b02179055505082518051600692508390811061207257612072613756565b602090810291909101810151825460018101845560009384529282902090920180547fffffffffffffffffffffffff0000000000000000000000000000000000000000166001600160a01b0390931692909217909155820151805160079190839081106120e1576120e1613756565b60209081029190910181015182546001810184556000938452919092200180547fffffffffffffffffffffffff0000000000000000000000000000000000000000166001600160a01b0390921691909117905561213d816137b4565b9050611da0565b5060408101516003805460ff191660ff909216919091179055600480547fffffffffffffffffffffffffffffffffffffffffffffffff00000000ffffffff811664010000000063ffffffff4381168202928317855590830481169360019390926000926121b8928692908216911617613cd6565b92506101000a81548163ffffffff021916908363ffffffff1602179055506122174630600460009054906101000a900463ffffffff1663ffffffff16856000015186602001518760400151886060015189608001518a60a00151612b0f565b6002819055825180516003805460ff909216610100027fffffffffffffffffffffffffffffffffffffffffffffffffffffffffffff00ff90921691909117905560045460208501516040808701516060880151608089015160a08a015193517f1591690b8638f5fb2dbec82ac741805ac5da8b45dc5263f4875b0496fdce4e05986122b6988b98919763ffffffff909216969095919491939192613cf3565b60405180910390a1611868565b6122cb61231b565b61078f81612b9c565b60006122e260085460ff1690565b6122ee57506001919050565b6122f9600983612c4e565b92915050565b6000612314836001600160a01b038416612c70565b9392505050565b6000546201000090046001600160a01b03163314612365576040517f2b5c74de00000000000000000000000000000000000000000000000000000000815260040160405180910390fd5b565b6060600061231483612d6a565b61237d326122d4565b612365576040517f0809490800000000000000000000000000000000000000000000000000000000815260040160405180910390fd5b600d546001600160a01b03166123f5576040517f9c5fe32400000000000000000000000000000000000000000000000000000000815260040160405180910390fd5b6060808061240584860186613e09565b82519295509093509150158061241d57508151835114155b8061242a57508051835114155b15612461576040517f0be3632800000000000000000000000000000000000000000000000000000000815260040160405180910390fd5b600083515a612470908c613c94565b61247a9190613ee6565b905060005b845181101561186857600d5485516001600160a01b0390911690630739e4f1908790849081106124b1576124b1613756565b60200260200101518684815181106124cb576124cb613756565b60200260200101518685815181106124e5576124e5613756565b60200260200101518e8d8f895a6040518963ffffffff1660e01b8152600401612515989796959493929190613efa565b6020604051808303816000875af1925050508015612550575060408051601f3d908101601f1916820190925261254d91810190613f91565b60015b61263b573d80801561257e576040519150601f19603f3d011682016040523d82523d6000602084013e612583565b606091505b5085828151811061259657612596613756565b60200260200101517fe0b838ffe6ee22a0d3acf19a85db6a41b34a1ab739e2d6c759a2e42d95bdccb2826040516125cd91906130df565b60405180910390a28582815181106125e7576125e7613756565b60200260200101517fdc941eddab34a6109ab77798299c6b1f035b125fd6f774d266ecbf9541d630a68c60405161262d91906001600160a01b0391909116815260200190565b60405180910390a25061280d565b600081600281111561264f5761264f613bfc565b036126ff5785828151811061266657612666613756565b60200260200101517f9e9bc7616d42c2835d05ae617e508454e63b30b934be8aa932ebc125e0e58a6460405160405180910390a28582815181106126ac576126ac613756565b60200260200101517fdc941eddab34a6109ab77798299c6b1f035b125fd6f774d266ecbf9541d630a68c6040516126f291906001600160a01b0391909116815260200190565b60405180910390a261280b565b600181600281111561271357612713613bfc565b036127ab5785828151811061272a5761272a613756565b60200260200101517fb2931868c372fe17a25643458add467d60ec5c51125a99b7309f41f5bcd2da6c6040516127919060208082526011908201527f6572726f7220696e2063616c6c6261636b000000000000000000000000000000604082015260600190565b60405180910390a28582815181106126ac576126ac613756565b60028160028111156127bf576127bf613bfc565b0361280b578582815181106127d6576127d6613756565b60200260200101517fa1c120e327c9ad8b075793878c88d59b8934b97ae37117faa3bb21616237f7be60405160405180910390a25b505b80612817816137b4565b91505061247f565b6000612314836001600160a01b038416612dc6565b60019392505050565b600080306001600160a01b031663814118346040518163ffffffff1660e01b8152600401600060405180830381865afa15801561287e573d6000803e3d6000fd5b505050506040513d6000823e601f3d908101601f191682016040526128a69190810190613af8565b905060005b815181101561290257836001600160a01b03168282815181106128d0576128d0613756565b60200260200101516001600160a01b0316036128f0575060019392505050565b806128fa816137b4565b9150506128ab565b5060009392505050565b600054610100900460ff166129895760405162461bcd60e51b815260206004820152602b60248201527f496e697469616c697a61626c653a20636f6e7472616374206973206e6f74206960448201527f6e697469616c697a696e670000000000000000000000000000000000000000006064820152608401610f63565b612994336000612e15565b6001805491151574010000000000000000000000000000000000000000027fffffffffffffffffffffff00ffffffffffffffffffffffffffffffffffffffff909216919091179055565b600054610100900460ff16612a5b5760405162461bcd60e51b815260206004820152602b60248201527f496e697469616c697a61626c653a20636f6e7472616374206973206e6f74206960448201527f6e697469616c697a696e670000000000000000000000000000000000000000006064820152608401610f63565b6008805460ff1916911515919091179055565b6000612a7b826020613c7d565b612a86856020613c7d565b612a9288610144613fb2565b612a9c9190613fb2565b612aa69190613fb2565b612ab1906000613fb2565b9050368114612b025760405162461bcd60e51b815260206004820152601860248201527f63616c6c64617461206c656e677468206d69736d6174636800000000000000006044820152606401610f63565b50505050505050565b5050565b6000808a8a8a8a8a8a8a8a8a604051602001612b3399989796959493929190613fc5565b60408051601f1981840301815291905280516020909101207dffffffffffffffffffffffffffffffffffffffffffffffffffffffffffff167e01000000000000000000000000000000000000000000000000000000000000179150509998505050505050505050565b336001600160a01b03821603612bde576040517f282010c300000000000000000000000000000000000000000000000000000000815260040160405180910390fd5b600180547fffffffffffffffffffffffff0000000000000000000000000000000000000000166001600160a01b038381169182179092556000805460405192936201000090910416917fed8889f560326eb138920d842192f0eb3dd22b4f139c87a2c57538e05bae12789190a350565b6001600160a01b03811660009081526001830160205260408120541515612314565b60008181526001830160205260408120548015612d59576000612c94600183613c94565b8554909150600090612ca890600190613c94565b9050818114612d0d576000866000018281548110612cc857612cc8613756565b9060005260206000200154905080876000018481548110612ceb57612ceb613756565b6000918252602080832090910192909255918252600188019052604090208390555b8554869080612d1e57612d1e613ca7565b6001900381819060005260206000200160009055905585600101600086815260200190815260200160002060009055600193505050506122f9565b60009150506122f9565b5092915050565b606081600001805480602002602001604051908101604052809291908181526020018280548015612dba57602002820191906000526020600020905b815481526020019060010190808311612da6575b50505050509050919050565b6000818152600183016020526040812054612e0d575081546001818101845560008481526020808220909301849055845484825282860190935260409020919091556122f9565b5060006122f9565b600054610100900460ff16612e925760405162461bcd60e51b815260206004820152602b60248201527f496e697469616c697a61626c653a20636f6e7472616374206973206e6f74206960448201527f6e697469616c697a696e670000000000000000000000000000000000000000006064820152608401610f63565b6001600160a01b038216612ed2576040517fb6b515fa00000000000000000000000000000000000000000000000000000000815260040160405180910390fd5b600080546001600160a01b0380851662010000027fffffffffffffffffffff0000000000000000000000000000000000000000ffff90921691909117909155811615612b0b57612b0b81612b9c565b508054612f2d9061384c565b6000825580601f10612f3d575050565b601f01602090049060005260206000209081019061078f9190612f7a565b604051806103e00160405280601f906020820280368337509192915050565b5b80821115612f8f5760008155600101612f7b565b5090565b60008083601f840112612fa557600080fd5b50813567ffffffffffffffff811115612fbd57600080fd5b6020830191508360208260051b8501011115612fd857600080fd5b9250929050565b60008060208385031215612ff257600080fd5b823567ffffffffffffffff81111561300957600080fd5b61301585828601612f93565b90969095509350505050565b60008083601f84011261303357600080fd5b50813567ffffffffffffffff81111561304b57600080fd5b602083019150836020828501011115612fd857600080fd5b6000806020838503121561307657600080fd5b823567ffffffffffffffff81111561308d57600080fd5b61301585828601613021565b6000815180845260005b818110156130bf576020818501810151868301820152016130a3565b506000602082860101526020601f19601f83011685010191505092915050565b6020815260006123146020830184613099565b600081518084526020808501945080840160005b8381101561312b5781516001600160a01b031687529582019590820190600101613106565b509495945050505050565b60208152600061231460208301846130f2565b6001600160a01b038116811461078f57600080fd5b60006020828403121561317057600080fd5b813561231481613149565b803567ffffffffffffffff8116811461319357600080fd5b919050565b803563ffffffff8116811461319357600080fd5b600080600080606085870312156131c257600080fd5b6131cb8561317b565b9350602085013567ffffffffffffffff8111156131e757600080fd5b6131f387828801613021565b9094509250613206905060408601613198565b905092959194509250565b60008060006040848603121561322657600080fd5b833567ffffffffffffffff81111561323d57600080fd5b61324986828701613021565b909450925050602084013561325d81613149565b809150509250925092565b60408152600061327b60408301856130f2565b6020838203818501528185518084528284019150828160051b85010183880160005b838110156132cb57601f198784030185526132b9838351613099565b9486019492509085019060010161329d565b50909998505050505050505050565b6000806000604084860312156132ef57600080fd5b83356132fa81613149565b9250602084013567ffffffffffffffff81111561331657600080fd5b61332286828701613021565b9497909650939450505050565b60008060008060008060008060e0898b03121561334b57600080fd5b606089018a81111561335c57600080fd5b8998503567ffffffffffffffff8082111561337657600080fd5b6133828c838d01613021565b909950975060808b013591508082111561339b57600080fd5b6133a78c838d01612f93565b909750955060a08b01359150808211156133c057600080fd5b506133cd8b828c01612f93565b999c989b50969995989497949560c00135949350505050565b6000806000806000608086880312156133fe57600080fd5b6134078661317b565b9450602086013567ffffffffffffffff81111561342357600080fd5b61342f88828901613021565b9095509350613442905060408701613198565b949793965091946060013592915050565b7f4e487b7100000000000000000000000000000000000000000000000000000000600052604160045260246000fd5b604051601f8201601f1916810167ffffffffffffffff811182821017156134ab576134ab613453565b604052919050565b600067ffffffffffffffff8211156134cd576134cd613453565b5060051b60200190565b600082601f8301126134e857600080fd5b813560206134fd6134f8836134b3565b613482565b82815260059290921b8401810191818101908684111561351c57600080fd5b8286015b8481101561354057803561353381613149565b8352918301918301613520565b509695505050505050565b803560ff8116811461319357600080fd5b600082601f83011261356d57600080fd5b813567ffffffffffffffff81111561358757613587613453565b61359a6020601f19601f84011601613482565b8181528460208386010111156135af57600080fd5b816020850160208301376000918101602001919091529392505050565b60008060008060008060c087890312156135e557600080fd5b863567ffffffffffffffff808211156135fd57600080fd5b6136098a838b016134d7565b9750602089013591508082111561361f57600080fd5b61362b8a838b016134d7565b965061363960408a0161354b565b9550606089013591508082111561364f57600080fd5b61365b8a838b0161355c565b945061366960808a0161317b565b935060a089013591508082111561367f57600080fd5b5061368c89828a0161355c565b9150509295509295509295565b600080600083850360a08112156136af57600080fd5b843567ffffffffffffffff808211156136c757600080fd5b6136d388838901613021565b90965094508491506080601f19840112156136ed57600080fd5b6040519250608083019150828210818311171561370c5761370c613453565b5060405261371c6020860161317b565b8152604085013561372c81613149565b602082015261373d60608601613198565b6040820152608094909401356060850152509093909250565b7f4e487b7100000000000000000000000000000000000000000000000000000000600052603260045260246000fd5b7f4e487b7100000000000000000000000000000000000000000000000000000000600052601160045260246000fd5b60007fffffffffffffffffffffffffffffffffffffffffffffffffffffffffffffffff82036137e5576137e5613785565b5060010190565b6040808252810183905260008460608301825b8681101561382f57823561381281613149565b6001600160a01b03168252602092830192909101906001016137ff565b5080925050506001600160a01b0383166020830152949350505050565b600181811c9082168061386057607f821691505b602082108103613899577f4e487b7100000000000000000000000000000000000000000000000000000000600052602260045260246000fd5b50919050565b601f82111561061f57600081815260208120601f850160051c810160208610156138c65750805b601f850160051c820191505b818110156138e5578281556001016138d2565b505050505050565b67ffffffffffffffff83111561390557613905613453565b61391983613913835461384c565b8361389f565b6000601f84116001811461396b57600085156139355750838201355b7fffffffffffffffffffffffffffffffffffffffffffffffffffffffffffffffff600387901b1c1916600186901b1783556139e3565b600083815260209020601f19861690835b8281101561399c578685013582556020948501946001909201910161397c565b50868210156139d7577fffffffffffffffffffffffffffffffffffffffffffffffffffffffffffffffff60f88860031b161c19848701351681555b505060018560011b0183555b5050505050565b818352818160208501375060006020828401015260006020601f19601f840116840101905092915050565b60a081526000613a2960a0830185876139ea565b905067ffffffffffffffff83511660208301526001600160a01b03602084015116604083015263ffffffff604084015116606083015260608301516080830152949350505050565b600060208284031215613a8357600080fd5b5051919050565b600060208284031215613a9c57600080fd5b815161231481613149565b60006001600160a01b038089168352808816602084015267ffffffffffffffff8716604084015280861660608401525060a06080830152613aec60a0830184866139ea565b98975050505050505050565b60006020808385031215613b0b57600080fd5b825167ffffffffffffffff811115613b2257600080fd5b8301601f81018513613b3357600080fd5b8051613b416134f8826134b3565b81815260059190911b82018301908381019087831115613b6057600080fd5b928401925b82841015613b87578351613b7881613149565b82529284019290840190613b65565b979650505050505050565b60ff81811683821601908111156122f9576122f9613785565b7f4e487b7100000000000000000000000000000000000000000000000000000000600052601260045260246000fd5b600060ff831680613bed57613bed613bab565b8060ff84160491505092915050565b7f4e487b7100000000000000000000000000000000000000000000000000000000600052602160045260246000fd5b8183823760009101908152919050565b828152606082602083013760800192915050565b600060208284031215613c6157600080fd5b81516bffffffffffffffffffffffff8116811461231457600080fd5b80820281158282048414176122f9576122f9613785565b818103818111156122f9576122f9613785565b7f4e487b7100000000000000000000000000000000000000000000000000000000600052603160045260246000fd5b63ffffffff818116838216019080821115612d6357612d63613785565b600061012063ffffffff808d1684528b6020850152808b16604085015250806060840152613d238184018a6130f2565b90508281036080840152613d3781896130f2565b905060ff871660a084015282810360c0840152613d548187613099565b905067ffffffffffffffff851660e0840152828103610100840152613d798185613099565b9c9b505050505050505050505050565b600082601f830112613d9a57600080fd5b81356020613daa6134f8836134b3565b82815260059290921b84018101918181019086841115613dc957600080fd5b8286015b8481101561354057803567ffffffffffffffff811115613ded5760008081fd5b613dfb8986838b010161355c565b845250918301918301613dcd565b600080600060608486031215613e1e57600080fd5b833567ffffffffffffffff80821115613e3657600080fd5b818601915086601f830112613e4a57600080fd5b81356020613e5a6134f8836134b3565b82815260059290921b8401810191818101908a841115613e7957600080fd5b948201945b83861015613e9757853582529482019490820190613e7e565b97505087013592505080821115613ead57600080fd5b613eb987838801613d89565b93506040860135915080821115613ecf57600080fd5b50613edc86828701613d89565b9150509250925092565b600082613ef557613ef5613bab565b500490565b60006104c08a835260208181850152613f158285018c613099565b91508382036040850152613f29828b613099565b92506001600160a01b0391508189166060850152608084018860005b601f811015613f64578151851683529183019190830190600101613f45565b5050505050613f7961046083018660ff169052565b6104808201939093526104a001529695505050505050565b600060208284031215613fa357600080fd5b81516003811061231457600080fd5b808201808211156122f9576122f9613785565b60006101208b83526001600160a01b038b16602084015267ffffffffffffffff808b166040850152816060850152613fff8285018b6130f2565b91508382036080850152614013828a6130f2565b915060ff881660a085015283820360c08501526140308288613099565b90861660e08501528381036101008501529050613d79818561309956fea164736f6c6343000815000a",
    "linkReferences": {}
  },
  "methodIdentifiers": {
    "acceptOwnership()": "79ba5097",
    "activateAuthorizedReceiver()": "110254c8",
    "addAuthorizedSenders(address[])": "4dcef404",
    "authorizedReceiverActive()": "4b4fa0c1",
    "callReport(bytes)": "736d7e0f",
    "callReportMultipleSigners(bytes,address)": "3901c40e",
    "callValidateReport(bytes)": "770c7f4c",
    "deactivateAuthorizedReceiver()": "91bb64eb",
    "deleteNodePublicKey(address)": "26ceabac",
    "estimateCost(uint64,bytes,uint32,uint256)": "d227d245",
    "getAllNodePublicKeys()": "53398987",
    "getAuthorizedSenders()": "2408afaa",
    "getDONPublicKey()": "d328a91e",
    "getRegistry()": "5ab1bd53",
    "getRequiredFee(bytes,(uint64,address,uint32,uint256))": "f1e14a21",
    "getThresholdPublicKey()": "81f1b938",
    "initialize()": "8129fc1c",
    "isAuthorizedSender(address)": "fa00763a",
    "latestConfigDetails()": "81ff7048",
    "latestConfigDigestAndEpoch()": "afcb95d7",
    "owner()": "8da5cb5b",
    "removeAuthorizedSenders(address[])": "03e1bf23",
    "sendRequest(uint64,bytes,uint32)": "28242b04",
    "setConfig(address[],address[],uint8,bytes,uint64,bytes)": "e3d0e712",
    "setDONPublicKey(bytes)": "7f15e166",
    "setNodePublicKey(address,bytes)": "80756031",
    "setRegistry(address)": "a91ee0dc",
    "setThresholdPublicKey(bytes)": "083a5466",
    "transferOwnership(address)": "f2fde38b",
    "transmit(bytes32[3],bytes,bytes32[],bytes32[],bytes32)": "b1dc65a4",
    "transmitters()": "81411834",
    "typeAndVersion()": "181f5a77"
  },
  "id": 184
}