{
  "abi": [
    {
      "inputs": [],
      "name": "AlreadySet",
      "type": "error"
    },
    {
      "inputs": [],
      "name": "EmptySendersList",
      "type": "error"
    },
    {
      "inputs": [],
      "name": "NotAllowedToSetSenders",
      "type": "error"
    },
    {
      "inputs": [],
      "name": "UnauthorizedSender",
      "type": "error"
    },
    {
      "anonymous": false,
      "inputs": [
        {
          "indexed": false,
          "internalType": "address",
          "name": "account",
          "type": "address"
        }
      ],
      "name": "AuthorizedSendersActive",
      "type": "event"
    },
    {
      "anonymous": false,
      "inputs": [
        {
          "indexed": false,
          "internalType": "address[]",
          "name": "senders",
          "type": "address[]"
        },
        {
          "indexed": false,
          "internalType": "address",
          "name": "changedBy",
          "type": "address"
        }
      ],
      "name": "AuthorizedSendersChanged",
      "type": "event"
    },
    {
      "anonymous": false,
      "inputs": [
        {
          "indexed": false,
          "internalType": "address",
          "name": "account",
          "type": "address"
        }
      ],
      "name": "AuthorizedSendersDeactive",
      "type": "event"
    },
    {
      "inputs": [],
      "name": "activateAuthorizedReceiver",
      "outputs": [],
      "stateMutability": "nonpayable",
      "type": "function"
    },
    {
      "inputs": [
        {
          "internalType": "address[]",
          "name": "senders",
          "type": "address[]"
        }
      ],
      "name": "addAuthorizedSenders",
      "outputs": [],
      "stateMutability": "nonpayable",
      "type": "function"
    },
    {
      "inputs": [],
      "name": "authorizedReceiverActive",
      "outputs": [
        {
          "internalType": "bool",
          "name": "",
          "type": "bool"
        }
      ],
      "stateMutability": "view",
      "type": "function"
    },
    {
      "inputs": [
        {
          "internalType": "bool",
          "name": "on",
          "type": "bool"
        }
      ],
      "name": "changeSetAuthorizedSender",
      "outputs": [],
      "stateMutability": "nonpayable",
      "type": "function"
    },
    {
      "inputs": [],
      "name": "deactivateAuthorizedReceiver",
      "outputs": [],
      "stateMutability": "nonpayable",
      "type": "function"
    },
    {
      "inputs": [],
      "name": "getAuthorizedSenders",
      "outputs": [
        {
          "internalType": "address[]",
          "name": "",
          "type": "address[]"
        }
      ],
      "stateMutability": "view",
      "type": "function"
    },
    {
      "inputs": [
        {
          "internalType": "address",
          "name": "sender",
          "type": "address"
        }
      ],
      "name": "isAuthorizedSender",
      "outputs": [
        {
          "internalType": "bool",
          "name": "",
          "type": "bool"
        }
      ],
      "stateMutability": "view",
      "type": "function"
    },
    {
      "inputs": [
        {
          "internalType": "address[]",
          "name": "senders",
          "type": "address[]"
        }
      ],
      "name": "removeAuthorizedSenders",
      "outputs": [],
      "stateMutability": "nonpayable",
      "type": "function"
    },
    {
      "inputs": [],
      "name": "verifyValidateAuthorizedSender",
      "outputs": [
        {
          "internalType": "bool",
          "name": "",
          "type": "bool"
        }
      ],
      "stateMutability": "view",
      "type": "function"
    }
  ],
  "bytecode": {
    "object": "0x60806040526003805460ff1916600117905534801561001d57600080fd5b506000805460ff19166001179055610a248061003a6000396000f3fe608060405234801561001057600080fd5b50600436106100a35760003560e01c80634dcef40411610076578063bd8fe0611161005b578063bd8fe06114610115578063f88c64ba1461011d578063fa00763a1461015c57600080fd5b80634dcef404146100fa57806391bb64eb1461010d57600080fd5b806303e1bf23146100a8578063110254c8146100bd5780632408afaa146100c55780634b4fa0c1146100e3575b600080fd5b6100bb6100b6366004610792565b61016f565b005b6100bb610276565b6100cd610350565b6040516100da9190610807565b60405180910390f35b60005460ff165b60405190151581526020016100da565b6100bb610108366004610792565b610361565b6100bb610428565b6100ea6104f8565b6100bb61012b366004610861565b600380547fffffffffffffffffffffffffffffffffffffffffffffffffffffffffffffff0016911515919091179055565b6100ea61016a3660046108ac565b610508565b60035460ff166101ab576040517fad77f06100000000000000000000000000000000000000000000000000000000815260040160405180910390fd5b60008190036101e6576040517f75158c3b00000000000000000000000000000000000000000000000000000000815260040160405180910390fd5b60005b8181101561023657610223838383818110610206576102066108c7565b905060200201602081019061021b91906108ac565b60019061052c565b508061022e81610925565b9150506101e9565b507ff263cfb3e4298332e776194610cf9fdc09ccb3ada8b9aa39764d882e11fbf0a082823360405161026a9392919061095d565b60405180910390a15050565b60035460ff166102b2576040517fad77f06100000000000000000000000000000000000000000000000000000000815260040160405180910390fd5b60005460ff16156102ef576040517fa741a04500000000000000000000000000000000000000000000000000000000815260040160405180910390fd5b600080547fffffffffffffffffffffffffffffffffffffffffffffffffffffffffffffff001660011790556040513381527fae51766a982895b0c444fc99fc1a560762b464d709e6c78376c85617f7eeb5ce906020015b60405180910390a1565b606061035c6001610555565b905090565b60035460ff1661039d576040517fad77f06100000000000000000000000000000000000000000000000000000000815260040160405180910390fd5b60008190036103d8576040517f75158c3b00000000000000000000000000000000000000000000000000000000815260040160405180910390fd5b60005b81811015610236576104158383838181106103f8576103f86108c7565b905060200201602081019061040d91906108ac565b600190610562565b508061042081610925565b9150506103db565b60035460ff16610464576040517fad77f06100000000000000000000000000000000000000000000000000000000815260040160405180910390fd5b60005460ff166104a0576040517fa741a04500000000000000000000000000000000000000000000000000000000815260040160405180910390fd5b600080547fffffffffffffffffffffffffffffffffffffffffffffffffffffffffffffff001690556040513381527fea3828816a323b8d7ff49d755efd105e7719166d6c76fad97a28eee5eccc3d9a90602001610346565b6000610502610584565b50600190565b6000805460ff1661051b57506001919050565b6105266001836105c5565b92915050565b600061054e8373ffffffffffffffffffffffffffffffffffffffff84166105f4565b9392505050565b6060600061054e836106e7565b600061054e8373ffffffffffffffffffffffffffffffffffffffff8416610743565b61058d32610508565b6105c3576040517f0809490800000000000000000000000000000000000000000000000000000000815260040160405180910390fd5b565b73ffffffffffffffffffffffffffffffffffffffff81166000908152600183016020526040812054151561054e565b600081815260018301602052604081205480156106dd5760006106186001836109d5565b855490915060009061062c906001906109d5565b905081811461069157600086600001828154811061064c5761064c6108c7565b906000526020600020015490508087600001848154811061066f5761066f6108c7565b6000918252602080832090910192909255918252600188019052604090208390555b85548690806106a2576106a26109e8565b600190038181906000526020600020016000905590558560010160008681526020019081526020016000206000905560019350505050610526565b6000915050610526565b60608160000180548060200260200160405190810160405280929190818152602001828054801561073757602002820191906000526020600020905b815481526020019060010190808311610723575b50505050509050919050565b600081815260018301602052604081205461078a57508154600181810184556000848152602080822090930184905584548482528286019093526040902091909155610526565b506000610526565b600080602083850312156107a557600080fd5b823567ffffffffffffffff808211156107bd57600080fd5b818501915085601f8301126107d157600080fd5b8135818111156107e057600080fd5b8660208260051b85010111156107f557600080fd5b60209290920196919550909350505050565b6020808252825182820181905260009190848201906040850190845b8181101561085557835173ffffffffffffffffffffffffffffffffffffffff1683529284019291840191600101610823565b50909695505050505050565b60006020828403121561087357600080fd5b8135801515811461054e57600080fd5b803573ffffffffffffffffffffffffffffffffffffffff811681146108a757600080fd5b919050565b6000602082840312156108be57600080fd5b61054e82610883565b7f4e487b7100000000000000000000000000000000000000000000000000000000600052603260045260246000fd5b7f4e487b7100000000000000000000000000000000000000000000000000000000600052601160045260246000fd5b60007fffffffffffffffffffffffffffffffffffffffffffffffffffffffffffffffff8203610956576109566108f6565b5060010190565b6040808252810183905260008460608301825b868110156109ab5773ffffffffffffffffffffffffffffffffffffffff61099684610883565b16825260209283019290910190600101610970565b50809250505073ffffffffffffffffffffffffffffffffffffffff83166020830152949350505050565b81810381811115610526576105266108f6565b7f4e487b7100000000000000000000000000000000000000000000000000000000600052603160045260246000fdfea164736f6c6343000815000a",
    "linkReferences": {}
  },
  "methodIdentifiers": {
    "activateAuthorizedReceiver()": "110254c8",
    "addAuthorizedSenders(address[])": "4dcef404",
    "authorizedReceiverActive()": "4b4fa0c1",
    "changeSetAuthorizedSender(bool)": "f88c64ba",
    "deactivateAuthorizedReceiver()": "91bb64eb",
    "getAuthorizedSenders()": "2408afaa",
    "isAuthorizedSender(address)": "fa00763a",
    "removeAuthorizedSenders(address[])": "03e1bf23",
    "verifyValidateAuthorizedSender()": "bd8fe061"
  },
  "id": 177
}