{
  "abi": [
    {
      "inputs": [
        {
          "components": [
            {
              "internalType": "address",
              "name": "commitStore",
              "type": "address"
            },
            {
              "internalType": "uint64",
              "name": "chainSelector",
              "type": "uint64"
            },
            {
              "internalType": "uint64",
              "name": "sourceChainSelector",
              "type": "uint64"
            },
            {
              "internalType": "address",
              "name": "onRamp",
              "type": "address"
            },
            {
              "internalType": "address",
              "name": "prevOffRamp",
              "type": "address"
            },
            {
              "internalType": "address",
              "name": "armProxy",
              "type": "address"
            }
          ],
          "internalType": "struct EVM2EVMOffRamp.StaticConfig",
          "name": "staticConfig",
          "type": "tuple"
        },
        {
          "internalType": "contract IERC20[]",
          "name": "sourceTokens",
          "type": "address[]"
        },
        {
          "internalType": "contract IPool[]",
          "name": "pools",
          "type": "address[]"
        },
        {
          "components": [
            {
              "internalType": "bool",
              "name": "isEnabled",
              "type": "bool"
            },
            {
              "internalType": "uint128",
              "name": "capacity",
              "type": "uint128"
            },
            {
              "internalType": "uint128",
              "name": "rate",
              "type": "uint128"
            }
          ],
          "internalType": "struct RateLimiter.Config",
          "name": "rateLimiterConfig",
          "type": "tuple"
        }
      ],
      "stateMutability": "nonpayable",
      "type": "constructor"
    },
    {
      "inputs": [
        {
          "internalType": "uint256",
          "name": "capacity",
          "type": "uint256"
        },
        {
          "internalType": "uint256",
          "name": "requested",
          "type": "uint256"
        }
      ],
      "name": "AggregateValueMaxCapacityExceeded",
      "type": "error"
    },
    {
      "inputs": [
        {
          "internalType": "uint256",
          "name": "minWaitInSeconds",
          "type": "uint256"
        },
        {
          "internalType": "uint256",
          "name": "available",
          "type": "uint256"
        }
      ],
      "name": "AggregateValueRateLimitReached",
      "type": "error"
    },
    {
      "inputs": [
        {
          "internalType": "uint64",
          "name": "sequenceNumber",
          "type": "uint64"
        }
      ],
      "name": "AlreadyAttempted",
      "type": "error"
    },
    {
      "inputs": [
        {
          "internalType": "uint64",
          "name": "sequenceNumber",
          "type": "uint64"
        }
      ],
      "name": "AlreadyExecuted",
      "type": "error"
    },
    {
      "inputs": [],
      "name": "BadARMSignal",
      "type": "error"
    },
    {
      "inputs": [],
      "name": "BucketOverfilled",
      "type": "error"
    },
    {
      "inputs": [],
      "name": "CanOnlySelfCall",
      "type": "error"
    },
    {
      "inputs": [],
      "name": "CommitStoreAlreadyInUse",
      "type": "error"
    },
    {
      "inputs": [
        {
          "internalType": "bytes32",
          "name": "expected",
          "type": "bytes32"
        },
        {
          "internalType": "bytes32",
          "name": "actual",
          "type": "bytes32"
        }
      ],
      "name": "ConfigDigestMismatch",
      "type": "error"
    },
    {
      "inputs": [],
      "name": "EmptyReport",
      "type": "error"
    },
    {
      "inputs": [
        {
          "internalType": "bytes",
          "name": "error",
          "type": "bytes"
        }
      ],
      "name": "ExecutionError",
      "type": "error"
    },
    {
      "inputs": [
        {
          "internalType": "uint256",
          "name": "expected",
          "type": "uint256"
        },
        {
          "internalType": "uint256",
          "name": "actual",
          "type": "uint256"
        }
      ],
      "name": "ForkedChain",
      "type": "error"
    },
    {
      "inputs": [
        {
          "internalType": "string",
          "name": "message",
          "type": "string"
        }
      ],
      "name": "InvalidConfig",
      "type": "error"
    },
    {
      "inputs": [
        {
          "internalType": "uint256",
          "name": "index",
          "type": "uint256"
        },
        {
          "internalType": "uint256",
          "name": "newLimit",
          "type": "uint256"
        }
      ],
      "name": "InvalidManualExecutionGasLimit",
      "type": "error"
    },
    {
      "inputs": [],
      "name": "InvalidMessageId",
      "type": "error"
    },
    {
      "inputs": [
        {
          "internalType": "uint64",
          "name": "sequenceNumber",
          "type": "uint64"
        },
        {
          "internalType": "enum Internal.MessageExecutionState",
          "name": "newState",
          "type": "uint8"
        }
      ],
      "name": "InvalidNewState",
      "type": "error"
    },
    {
      "inputs": [
        {
          "internalType": "uint64",
          "name": "sourceChainSelector",
          "type": "uint64"
        }
      ],
      "name": "InvalidSourceChain",
      "type": "error"
    },
    {
      "inputs": [],
      "name": "InvalidTokenPoolConfig",
      "type": "error"
    },
    {
      "inputs": [],
      "name": "ManualExecutionGasLimitMismatch",
      "type": "error"
    },
    {
      "inputs": [],
      "name": "ManualExecutionNotYetEnabled",
      "type": "error"
    },
    {
      "inputs": [
        {
          "internalType": "uint256",
          "name": "maxSize",
          "type": "uint256"
        },
        {
          "internalType": "uint256",
          "name": "actualSize",
          "type": "uint256"
        }
      ],
      "name": "MessageTooLarge",
      "type": "error"
    },
    {
      "inputs": [],
      "name": "OnlyCallableByAdminOrOwner",
      "type": "error"
    },
    {
      "inputs": [],
      "name": "OracleCannotBeZeroAddress",
      "type": "error"
    },
    {
      "inputs": [],
      "name": "PoolAlreadyAdded",
      "type": "error"
    },
    {
      "inputs": [],
      "name": "PoolDoesNotExist",
      "type": "error"
    },
    {
      "inputs": [
        {
          "internalType": "address",
          "name": "token",
          "type": "address"
        }
      ],
      "name": "PriceNotFoundForToken",
      "type": "error"
    },
    {
      "inputs": [
        {
          "internalType": "bytes",
          "name": "error",
          "type": "bytes"
        }
      ],
      "name": "ReceiverError",
      "type": "error"
    },
    {
      "inputs": [],
      "name": "RootNotCommitted",
      "type": "error"
    },
    {
      "inputs": [
        {
          "internalType": "uint64",
          "name": "sequenceNumber",
          "type": "uint64"
        }
      ],
      "name": "TokenDataMismatch",
      "type": "error"
    },
    {
      "inputs": [
        {
          "internalType": "bytes",
          "name": "error",
          "type": "bytes"
        }
      ],
      "name": "TokenHandlingError",
      "type": "error"
    },
    {
      "inputs": [
        {
          "internalType": "uint256",
          "name": "capacity",
          "type": "uint256"
        },
        {
          "internalType": "uint256",
          "name": "requested",
          "type": "uint256"
        },
        {
          "internalType": "address",
          "name": "tokenAddress",
          "type": "address"
        }
      ],
      "name": "TokenMaxCapacityExceeded",
      "type": "error"
    },
    {
      "inputs": [],
      "name": "TokenPoolMismatch",
      "type": "error"
    },
    {
      "inputs": [
        {
          "internalType": "uint256",
          "name": "minWaitInSeconds",
          "type": "uint256"
        },
        {
          "internalType": "uint256",
          "name": "available",
          "type": "uint256"
        },
        {
          "internalType": "address",
          "name": "tokenAddress",
          "type": "address"
        }
      ],
      "name": "TokenRateLimitReached",
      "type": "error"
    },
    {
      "inputs": [],
      "name": "UnauthorizedTransmitter",
      "type": "error"
    },
    {
      "inputs": [],
      "name": "UnexpectedTokenData",
      "type": "error"
    },
    {
      "inputs": [
        {
          "internalType": "uint64",
          "name": "sequenceNumber",
          "type": "uint64"
        }
      ],
      "name": "UnsupportedNumberOfTokens",
      "type": "error"
    },
    {
      "inputs": [
        {
          "internalType": "contract IERC20",
          "name": "token",
          "type": "address"
        }
      ],
      "name": "UnsupportedToken",
      "type": "error"
    },
    {
      "inputs": [
        {
          "internalType": "uint256",
          "name": "expected",
          "type": "uint256"
        },
        {
          "internalType": "uint256",
          "name": "actual",
          "type": "uint256"
        }
      ],
      "name": "WrongMessageLength",
      "type": "error"
    },
    {
      "inputs": [],
      "name": "ZeroAddressNotAllowed",
      "type": "error"
    },
    {
      "anonymous": false,
      "inputs": [
        {
          "indexed": false,
          "internalType": "address",
          "name": "newAdmin",
          "type": "address"
        }
      ],
      "name": "AdminSet",
      "type": "event"
    },
    {
      "anonymous": false,
      "inputs": [
        {
          "components": [
            {
              "internalType": "bool",
              "name": "isEnabled",
              "type": "bool"
            },
            {
              "internalType": "uint128",
              "name": "capacity",
              "type": "uint128"
            },
            {
              "internalType": "uint128",
              "name": "rate",
              "type": "uint128"
            }
          ],
          "indexed": false,
          "internalType": "struct RateLimiter.Config",
          "name": "config",
          "type": "tuple"
        }
      ],
      "name": "ConfigChanged",
      "type": "event"
    },
    {
      "anonymous": false,
      "inputs": [
        {
          "indexed": false,
          "internalType": "uint32",
          "name": "previousConfigBlockNumber",
          "type": "uint32"
        },
        {
          "indexed": false,
          "internalType": "bytes32",
          "name": "configDigest",
          "type": "bytes32"
        },
        {
          "indexed": false,
          "internalType": "uint64",
          "name": "configCount",
          "type": "uint64"
        },
        {
          "indexed": false,
          "internalType": "address[]",
          "name": "signers",
          "type": "address[]"
        },
        {
          "indexed": false,
          "internalType": "address[]",
          "name": "transmitters",
          "type": "address[]"
        },
        {
          "indexed": false,
          "internalType": "uint8",
          "name": "f",
          "type": "uint8"
        },
        {
          "indexed": false,
          "internalType": "bytes",
          "name": "onchainConfig",
          "type": "bytes"
        },
        {
          "indexed": false,
          "internalType": "uint64",
          "name": "offchainConfigVersion",
          "type": "uint64"
        },
        {
          "indexed": false,
          "internalType": "bytes",
          "name": "offchainConfig",
          "type": "bytes"
        }
      ],
      "name": "ConfigSet",
      "type": "event"
    },
    {
      "anonymous": false,
      "inputs": [
        {
          "components": [
            {
              "internalType": "address",
              "name": "commitStore",
              "type": "address"
            },
            {
              "internalType": "uint64",
              "name": "chainSelector",
              "type": "uint64"
            },
            {
              "internalType": "uint64",
              "name": "sourceChainSelector",
              "type": "uint64"
            },
            {
              "internalType": "address",
              "name": "onRamp",
              "type": "address"
            },
            {
              "internalType": "address",
              "name": "prevOffRamp",
              "type": "address"
            },
            {
              "internalType": "address",
              "name": "armProxy",
              "type": "address"
            }
          ],
          "indexed": false,
          "internalType": "struct EVM2EVMOffRamp.StaticConfig",
          "name": "staticConfig",
          "type": "tuple"
        },
        {
          "components": [
            {
              "internalType": "uint32",
              "name": "permissionLessExecutionThresholdSeconds",
              "type": "uint32"
            },
            {
              "internalType": "address",
              "name": "router",
              "type": "address"
            },
            {
              "internalType": "address",
              "name": "priceRegistry",
              "type": "address"
            },
            {
              "internalType": "uint16",
              "name": "maxNumberOfTokensPerMsg",
              "type": "uint16"
            },
            {
              "internalType": "uint32",
              "name": "maxDataBytes",
              "type": "uint32"
            },
            {
              "internalType": "uint32",
              "name": "maxPoolReleaseOrMintGas",
              "type": "uint32"
            }
          ],
          "indexed": false,
          "internalType": "struct EVM2EVMOffRamp.DynamicConfig",
          "name": "dynamicConfig",
          "type": "tuple"
        }
      ],
      "name": "ConfigSet",
      "type": "event"
    },
    {
      "anonymous": false,
      "inputs": [
        {
          "indexed": true,
          "internalType": "uint64",
          "name": "sequenceNumber",
          "type": "uint64"
        },
        {
          "indexed": true,
          "internalType": "bytes32",
          "name": "messageId",
          "type": "bytes32"
        },
        {
          "indexed": false,
          "internalType": "enum Internal.MessageExecutionState",
          "name": "state",
          "type": "uint8"
        },
        {
          "indexed": false,
          "internalType": "bytes",
          "name": "returnData",
          "type": "bytes"
        }
      ],
      "name": "ExecutionStateChanged",
      "type": "event"
    },
    {
      "anonymous": false,
      "inputs": [
        {
          "indexed": true,
          "internalType": "address",
          "name": "from",
          "type": "address"
        },
        {
          "indexed": true,
          "internalType": "address",
          "name": "to",
          "type": "address"
        }
      ],
      "name": "OwnershipTransferRequested",
      "type": "event"
    },
    {
      "anonymous": false,
      "inputs": [
        {
          "indexed": true,
          "internalType": "address",
          "name": "from",
          "type": "address"
        },
        {
          "indexed": true,
          "internalType": "address",
          "name": "to",
          "type": "address"
        }
      ],
      "name": "OwnershipTransferred",
      "type": "event"
    },
    {
      "anonymous": false,
      "inputs": [
        {
          "indexed": false,
          "internalType": "address",
          "name": "token",
          "type": "address"
        },
        {
          "indexed": false,
          "internalType": "address",
          "name": "pool",
          "type": "address"
        }
      ],
      "name": "PoolAdded",
      "type": "event"
    },
    {
      "anonymous": false,
      "inputs": [
        {
          "indexed": false,
          "internalType": "address",
          "name": "token",
          "type": "address"
        },
        {
          "indexed": false,
          "internalType": "address",
          "name": "pool",
          "type": "address"
        }
      ],
      "name": "PoolRemoved",
      "type": "event"
    },
    {
      "anonymous": false,
      "inputs": [
        {
          "indexed": true,
          "internalType": "uint64",
          "name": "nonce",
          "type": "uint64"
        },
        {
          "indexed": true,
          "internalType": "address",
          "name": "sender",
          "type": "address"
        }
      ],
      "name": "SkippedIncorrectNonce",
      "type": "event"
    },
    {
      "anonymous": false,
      "inputs": [
        {
          "indexed": true,
          "internalType": "uint64",
          "name": "nonce",
          "type": "uint64"
        },
        {
          "indexed": true,
          "internalType": "address",
          "name": "sender",
          "type": "address"
        }
      ],
      "name": "SkippedSenderWithPreviousRampMessageInflight",
      "type": "event"
    },
    {
      "anonymous": false,
      "inputs": [
        {
          "indexed": false,
          "internalType": "uint256",
          "name": "tokens",
          "type": "uint256"
        }
      ],
      "name": "TokensConsumed",
      "type": "event"
    },
    {
      "anonymous": false,
      "inputs": [
        {
          "indexed": false,
          "internalType": "bytes32",
          "name": "configDigest",
          "type": "bytes32"
        },
        {
          "indexed": false,
          "internalType": "uint32",
          "name": "epoch",
          "type": "uint32"
        }
      ],
      "name": "Transmitted",
      "type": "event"
    },
    {
      "inputs": [],
      "name": "acceptOwnership",
      "outputs": [],
      "stateMutability": "nonpayable",
      "type": "function"
    },
    {
      "inputs": [
        {
          "components": [
            {
              "internalType": "address",
              "name": "token",
              "type": "address"
            },
            {
              "internalType": "address",
              "name": "pool",
              "type": "address"
            }
          ],
          "internalType": "struct Internal.PoolUpdate[]",
          "name": "removes",
          "type": "tuple[]"
        },
        {
          "components": [
            {
              "internalType": "address",
              "name": "token",
              "type": "address"
            },
            {
              "internalType": "address",
              "name": "pool",
              "type": "address"
            }
          ],
          "internalType": "struct Internal.PoolUpdate[]",
          "name": "adds",
          "type": "tuple[]"
        }
      ],
      "name": "applyPoolUpdates",
      "outputs": [],
      "stateMutability": "nonpayable",
      "type": "function"
    },
    {
      "inputs": [
        {
          "components": [
            {
              "internalType": "bytes32",
              "name": "messageId",
              "type": "bytes32"
            },
            {
              "internalType": "uint64",
              "name": "sourceChainSelector",
              "type": "uint64"
            },
            {
              "internalType": "bytes",
              "name": "sender",
              "type": "bytes"
            },
            {
              "internalType": "bytes",
              "name": "data",
              "type": "bytes"
            },
            {
              "components": [
                {
                  "internalType": "address",
                  "name": "token",
                  "type": "address"
                },
                {
                  "internalType": "uint256",
                  "name": "amount",
                  "type": "uint256"
                }
              ],
              "internalType": "struct Client.EVMTokenAmount[]",
              "name": "destTokenAmounts",
              "type": "tuple[]"
            }
          ],
          "internalType": "struct Client.Any2EVMMessage",
          "name": "",
          "type": "tuple"
        }
      ],
      "name": "ccipReceive",
      "outputs": [],
      "stateMutability": "pure",
      "type": "function"
    },
    {
      "inputs": [],
      "name": "currentRateLimiterState",
      "outputs": [
        {
          "components": [
            {
              "internalType": "uint128",
              "name": "tokens",
              "type": "uint128"
            },
            {
              "internalType": "uint32",
              "name": "lastUpdated",
              "type": "uint32"
            },
            {
              "internalType": "bool",
              "name": "isEnabled",
              "type": "bool"
            },
            {
              "internalType": "uint128",
              "name": "capacity",
              "type": "uint128"
            },
            {
              "internalType": "uint128",
              "name": "rate",
              "type": "uint128"
            }
          ],
          "internalType": "struct RateLimiter.TokenBucket",
          "name": "",
          "type": "tuple"
        }
      ],
      "stateMutability": "view",
      "type": "function"
    },
    {
      "inputs": [
        {
          "components": [
            {
              "internalType": "uint64",
              "name": "sourceChainSelector",
              "type": "uint64"
            },
            {
              "internalType": "address",
              "name": "sender",
              "type": "address"
            },
            {
              "internalType": "address",
              "name": "receiver",
              "type": "address"
            },
            {
              "internalType": "uint64",
              "name": "sequenceNumber",
              "type": "uint64"
            },
            {
              "internalType": "uint256",
              "name": "gasLimit",
              "type": "uint256"
            },
            {
              "internalType": "bool",
              "name": "strict",
              "type": "bool"
            },
            {
              "internalType": "uint64",
              "name": "nonce",
              "type": "uint64"
            },
            {
              "internalType": "address",
              "name": "feeToken",
              "type": "address"
            },
            {
              "internalType": "uint256",
              "name": "feeTokenAmount",
              "type": "uint256"
            },
            {
              "internalType": "bytes",
              "name": "data",
              "type": "bytes"
            },
            {
              "components": [
                {
                  "internalType": "address",
                  "name": "token",
                  "type": "address"
                },
                {
                  "internalType": "uint256",
                  "name": "amount",
                  "type": "uint256"
                }
              ],
              "internalType": "struct Client.EVMTokenAmount[]",
              "name": "tokenAmounts",
              "type": "tuple[]"
            },
            {
              "internalType": "bytes[]",
              "name": "sourceTokenData",
              "type": "bytes[]"
            },
            {
              "internalType": "bytes32",
              "name": "messageId",
              "type": "bytes32"
            }
          ],
          "internalType": "struct Internal.EVM2EVMMessage",
          "name": "message",
          "type": "tuple"
        },
        {
          "internalType": "bytes[]",
          "name": "offchainTokenData",
          "type": "bytes[]"
        }
      ],
      "name": "executeSingleMessage",
      "outputs": [],
      "stateMutability": "nonpayable",
      "type": "function"
    },
    {
      "inputs": [
        {
          "internalType": "contract IERC20",
          "name": "sourceToken",
          "type": "address"
        }
      ],
      "name": "getDestinationToken",
      "outputs": [
        {
          "internalType": "contract IERC20",
          "name": "",
          "type": "address"
        }
      ],
      "stateMutability": "view",
      "type": "function"
    },
    {
      "inputs": [],
      "name": "getDestinationTokens",
      "outputs": [
        {
          "internalType": "contract IERC20[]",
          "name": "destTokens",
          "type": "address[]"
        }
      ],
      "stateMutability": "view",
      "type": "function"
    },
    {
      "inputs": [],
      "name": "getDynamicConfig",
      "outputs": [
        {
          "components": [
            {
              "internalType": "uint32",
              "name": "permissionLessExecutionThresholdSeconds",
              "type": "uint32"
            },
            {
              "internalType": "address",
              "name": "router",
              "type": "address"
            },
            {
              "internalType": "address",
              "name": "priceRegistry",
              "type": "address"
            },
            {
              "internalType": "uint16",
              "name": "maxNumberOfTokensPerMsg",
              "type": "uint16"
            },
            {
              "internalType": "uint32",
              "name": "maxDataBytes",
              "type": "uint32"
            },
            {
              "internalType": "uint32",
              "name": "maxPoolReleaseOrMintGas",
              "type": "uint32"
            }
          ],
          "internalType": "struct EVM2EVMOffRamp.DynamicConfig",
          "name": "",
          "type": "tuple"
        }
      ],
      "stateMutability": "view",
      "type": "function"
    },
    {
      "inputs": [
        {
          "internalType": "uint64",
          "name": "sequenceNumber",
          "type": "uint64"
        }
      ],
      "name": "getExecutionState",
      "outputs": [
        {
          "internalType": "enum Internal.MessageExecutionState",
          "name": "",
          "type": "uint8"
        }
      ],
      "stateMutability": "view",
      "type": "function"
    },
    {
      "inputs": [
        {
          "internalType": "contract IERC20",
          "name": "destToken",
          "type": "address"
        }
      ],
      "name": "getPoolByDestToken",
      "outputs": [
        {
          "internalType": "contract IPool",
          "name": "",
          "type": "address"
        }
      ],
      "stateMutability": "view",
      "type": "function"
    },
    {
      "inputs": [
        {
          "internalType": "contract IERC20",
          "name": "sourceToken",
          "type": "address"
        }
      ],
      "name": "getPoolBySourceToken",
      "outputs": [
        {
          "internalType": "contract IPool",
          "name": "",
          "type": "address"
        }
      ],
      "stateMutability": "view",
      "type": "function"
    },
    {
      "inputs": [
        {
          "internalType": "address",
          "name": "sender",
          "type": "address"
        }
      ],
      "name": "getSenderNonce",
      "outputs": [
        {
          "internalType": "uint64",
          "name": "nonce",
          "type": "uint64"
        }
      ],
      "stateMutability": "view",
      "type": "function"
    },
    {
      "inputs": [],
      "name": "getStaticConfig",
      "outputs": [
        {
          "components": [
            {
              "internalType": "address",
              "name": "commitStore",
              "type": "address"
            },
            {
              "internalType": "uint64",
              "name": "chainSelector",
              "type": "uint64"
            },
            {
              "internalType": "uint64",
              "name": "sourceChainSelector",
              "type": "uint64"
            },
            {
              "internalType": "address",
              "name": "onRamp",
              "type": "address"
            },
            {
              "internalType": "address",
              "name": "prevOffRamp",
              "type": "address"
            },
            {
              "internalType": "address",
              "name": "armProxy",
              "type": "address"
            }
          ],
          "internalType": "struct EVM2EVMOffRamp.StaticConfig",
          "name": "",
          "type": "tuple"
        }
      ],
      "stateMutability": "view",
      "type": "function"
    },
    {
      "inputs": [],
      "name": "getSupportedTokens",
      "outputs": [
        {
          "internalType": "contract IERC20[]",
          "name": "sourceTokens",
          "type": "address[]"
        }
      ],
      "stateMutability": "view",
      "type": "function"
    },
    {
      "inputs": [],
      "name": "getTokenLimitAdmin",
      "outputs": [
        {
          "internalType": "address",
          "name": "",
          "type": "address"
        }
      ],
      "stateMutability": "view",
      "type": "function"
    },
    {
      "inputs": [],
      "name": "getTransmitters",
      "outputs": [
        {
          "internalType": "address[]",
          "name": "",
          "type": "address[]"
        }
      ],
      "stateMutability": "view",
      "type": "function"
    },
    {
      "inputs": [],
      "name": "latestConfigDetails",
      "outputs": [
        {
          "internalType": "uint32",
          "name": "configCount",
          "type": "uint32"
        },
        {
          "internalType": "uint32",
          "name": "blockNumber",
          "type": "uint32"
        },
        {
          "internalType": "bytes32",
          "name": "configDigest",
          "type": "bytes32"
        }
      ],
      "stateMutability": "view",
      "type": "function"
    },
    {
      "inputs": [],
      "name": "latestConfigDigestAndEpoch",
      "outputs": [
        {
          "internalType": "bool",
          "name": "scanLogs",
          "type": "bool"
        },
        {
          "internalType": "bytes32",
          "name": "configDigest",
          "type": "bytes32"
        },
        {
          "internalType": "uint32",
          "name": "epoch",
          "type": "uint32"
        }
      ],
      "stateMutability": "view",
      "type": "function"
    },
    {
      "inputs": [
        {
          "components": [
            {
              "components": [
                {
                  "internalType": "uint64",
                  "name": "sourceChainSelector",
                  "type": "uint64"
                },
                {
                  "internalType": "address",
                  "name": "sender",
                  "type": "address"
                },
                {
                  "internalType": "address",
                  "name": "receiver",
                  "type": "address"
                },
                {
                  "internalType": "uint64",
                  "name": "sequenceNumber",
                  "type": "uint64"
                },
                {
                  "internalType": "uint256",
                  "name": "gasLimit",
                  "type": "uint256"
                },
                {
                  "internalType": "bool",
                  "name": "strict",
                  "type": "bool"
                },
                {
                  "internalType": "uint64",
                  "name": "nonce",
                  "type": "uint64"
                },
                {
                  "internalType": "address",
                  "name": "feeToken",
                  "type": "address"
                },
                {
                  "internalType": "uint256",
                  "name": "feeTokenAmount",
                  "type": "uint256"
                },
                {
                  "internalType": "bytes",
                  "name": "data",
                  "type": "bytes"
                },
                {
                  "components": [
                    {
                      "internalType": "address",
                      "name": "token",
                      "type": "address"
                    },
                    {
                      "internalType": "uint256",
                      "name": "amount",
                      "type": "uint256"
                    }
                  ],
                  "internalType": "struct Client.EVMTokenAmount[]",
                  "name": "tokenAmounts",
                  "type": "tuple[]"
                },
                {
                  "internalType": "bytes[]",
                  "name": "sourceTokenData",
                  "type": "bytes[]"
                },
                {
                  "internalType": "bytes32",
                  "name": "messageId",
                  "type": "bytes32"
                }
              ],
              "internalType": "struct Internal.EVM2EVMMessage[]",
              "name": "messages",
              "type": "tuple[]"
            },
            {
              "internalType": "bytes[][]",
              "name": "offchainTokenData",
              "type": "bytes[][]"
            },
            {
              "internalType": "bytes32[]",
              "name": "proofs",
              "type": "bytes32[]"
            },
            {
              "internalType": "uint256",
              "name": "proofFlagBits",
              "type": "uint256"
            }
          ],
          "internalType": "struct Internal.ExecutionReport",
          "name": "report",
          "type": "tuple"
        },
        {
          "internalType": "uint256[]",
          "name": "gasLimitOverrides",
          "type": "uint256[]"
        }
      ],
      "name": "manuallyExecute",
      "outputs": [],
      "stateMutability": "nonpayable",
      "type": "function"
    },
    {
      "inputs": [],
      "name": "owner",
      "outputs": [
        {
          "internalType": "address",
          "name": "",
          "type": "address"
        }
      ],
      "stateMutability": "view",
      "type": "function"
    },
    {
      "inputs": [
        {
          "internalType": "address",
          "name": "newAdmin",
          "type": "address"
        }
      ],
      "name": "setAdmin",
      "outputs": [],
      "stateMutability": "nonpayable",
      "type": "function"
    },
    {
      "inputs": [
        {
          "internalType": "address[]",
          "name": "signers",
          "type": "address[]"
        },
        {
          "internalType": "address[]",
          "name": "transmitters",
          "type": "address[]"
        },
        {
          "internalType": "uint8",
          "name": "f",
          "type": "uint8"
        },
        {
          "internalType": "bytes",
          "name": "onchainConfig",
          "type": "bytes"
        },
        {
          "internalType": "uint64",
          "name": "offchainConfigVersion",
          "type": "uint64"
        },
        {
          "internalType": "bytes",
          "name": "offchainConfig",
          "type": "bytes"
        }
      ],
      "name": "setOCR2Config",
      "outputs": [],
      "stateMutability": "nonpayable",
      "type": "function"
    },
    {
      "inputs": [
        {
          "components": [
            {
              "internalType": "bool",
              "name": "isEnabled",
              "type": "bool"
            },
            {
              "internalType": "uint128",
              "name": "capacity",
              "type": "uint128"
            },
            {
              "internalType": "uint128",
              "name": "rate",
              "type": "uint128"
            }
          ],
          "internalType": "struct RateLimiter.Config",
          "name": "config",
          "type": "tuple"
        }
      ],
      "name": "setRateLimiterConfig",
      "outputs": [],
      "stateMutability": "nonpayable",
      "type": "function"
    },
    {
      "inputs": [
        {
          "internalType": "address",
          "name": "to",
          "type": "address"
        }
      ],
      "name": "transferOwnership",
      "outputs": [],
      "stateMutability": "nonpayable",
      "type": "function"
    },
    {
      "inputs": [
        {
          "internalType": "bytes32[3]",
          "name": "reportContext",
          "type": "bytes32[3]"
        },
        {
          "internalType": "bytes",
          "name": "report",
          "type": "bytes"
        },
        {
          "internalType": "bytes32[]",
          "name": "rs",
          "type": "bytes32[]"
        },
        {
          "internalType": "bytes32[]",
          "name": "ss",
          "type": "bytes32[]"
        },
        {
          "internalType": "bytes32",
          "name": "",
          "type": "bytes32"
        }
      ],
      "name": "transmit",
      "outputs": [],
      "stateMutability": "nonpayable",
      "type": "function"
    },
    {
      "inputs": [],
      "name": "typeAndVersion",
      "outputs": [
        {
          "internalType": "string",
          "name": "",
          "type": "string"
        }
      ],
      "stateMutability": "view",
      "type": "function"
    }
  ],
  "bytecode": {
    "object": "0x6101806040523480156200001257600080fd5b506040516200654d3803806200654d833981016040819052620000359162000891565b8033806000816200008d5760405162461bcd60e51b815260206004820152601860248201527f43616e6e6f7420736574206f776e657220746f207a65726f000000000000000060448201526064015b60405180910390fd5b600080546001600160a01b0319166001600160a01b0384811691909117909155811615620000c057620000c08162000478565b50506040805160a081018252602084810180516001600160801b039081168085524263ffffffff169385018490528751151585870181905292518216606086018190529790950151166080938401819052600380546001600160a01b031916909517600160801b9384021760ff60a01b1916600160a01b90920291909117909355909102909217600455504690528151835114620001705760405162d8548360e71b815260040160405180910390fd5b60608401516001600160a01b0316158062000193575083516001600160a01b0316155b15620001b2576040516342bcdf7f60e11b815260040160405180910390fd5b83600001516001600160a01b0316634120fccd6040518163ffffffff1660e01b8152600401602060405180830381865afa158015620001f5573d6000803e3d6000fd5b505050506040513d601f19601f820116820180604052508101906200021b9190620009a8565b6001600160401b03166001146200024557604051636fc2a20760e11b815260040160405180910390fd5b83516001600160a01b0390811660a090815260408601516001600160401b0390811660c05260208701511660e052606086015182166101005260808601518216610140528501511661016052620002bc7f8acd72527118c8324937b1a42e02cd246697c3b633f1742f3cae11de233722b362000523565b6101205260005b83518110156200046d576200031d848281518110620002e657620002e6620009c6565b6020026020010151848381518110620003035762000303620009c6565b6020026020010151600c6200058a60201b9092919060201c565b50620003d2838281518110620003375762000337620009c6565b60200260200101516001600160a01b03166321df0da76040518163ffffffff1660e01b8152600401602060405180830381865afa1580156200037d573d6000803e3d6000fd5b505050506040513d601f19601f82011682018060405250810190620003a39190620009dc565b848381518110620003b857620003b8620009c6565b6020026020010151600f6200058a60201b9092919060201c565b507f95f865c2808f8b2a85eea2611db7843150ee7835ef1403f9755918a97d76933c848281518110620004095762000409620009c6565b6020026020010151848381518110620004265762000426620009c6565b6020026020010151604051620004529291906001600160a01b0392831681529116602082015260400190565b60405180910390a1620004658162000a03565b9050620002c3565b505050505062000a2b565b336001600160a01b03821603620004d25760405162461bcd60e51b815260206004820152601760248201527f43616e6e6f74207472616e7366657220746f2073656c66000000000000000000604482015260640162000084565b600180546001600160a01b0319166001600160a01b0383811691821790925560008054604051929316917fed8889f560326eb138920d842192f0eb3dd22b4f139c87a2c57538e05bae12789190a350565b60008160c05160e051610100516040516020016200056d94939291909384526001600160401b039283166020850152911660408301526001600160a01b0316606082015260800190565b604051602081830303815290604052805190602001209050919050565b6000620005a2846001600160a01b03851684620005aa565b949350505050565b6000620005a284846001600160a01b03851660008281526002840160205260408120829055620005a284846000620005e38383620005ec565b90505b92915050565b60008181526001830160205260408120546200063557508154600181810184556000848152602080822090930184905584548482528286019093526040902091909155620005e6565b506000620005e6565b634e487b7160e01b600052604160045260246000fd5b60405160c081016001600160401b03811182821017156200067957620006796200063e565b60405290565b604051601f8201601f191681016001600160401b0381118282101715620006aa57620006aa6200063e565b604052919050565b6001600160a01b0381168114620006c857600080fd5b50565b80516001600160401b0381168114620006e357600080fd5b919050565b60006001600160401b038211156200070457620007046200063e565b5060051b60200190565b600082601f8301126200072057600080fd5b81516020620007396200073383620006e8565b6200067f565b82815260059290921b840181019181810190868411156200075957600080fd5b8286015b84811015620007815780516200077381620006b2565b83529183019183016200075d565b509695505050505050565b600082601f8301126200079e57600080fd5b81516020620007b16200073383620006e8565b82815260059290921b84018101918181019086841115620007d157600080fd5b8286015b8481101562000781578051620007eb81620006b2565b8352918301918301620007d5565b80516001600160801b0381168114620006e357600080fd5b6000606082840312156200082457600080fd5b604051606081016001600160401b03811182821017156200084957620008496200063e565b8060405250809150825180151581146200086257600080fd5b81526200087260208401620007f9565b60208201526200088560408401620007f9565b60408201525092915050565b600080600080848603610160811215620008aa57600080fd5b60c0811215620008b957600080fd5b50620008c462000654565b8551620008d181620006b2565b8152620008e160208701620006cb565b6020820152620008f460408701620006cb565b604082015260608601516200090981620006b2565b606082015260808601516200091e81620006b2565b608082015260a08601516200093381620006b2565b60a082015260c08601519094506001600160401b03808211156200095657600080fd5b62000964888389016200070e565b945060e08701519150808211156200097b57600080fd5b506200098a878288016200078c565b9250506200099d86610100870162000811565b905092959194509250565b600060208284031215620009bb57600080fd5b620005e382620006cb565b634e487b7160e01b600052603260045260246000fd5b600060208284031215620009ef57600080fd5b8151620009fc81620006b2565b9392505050565b60006001820162000a2457634e487b7160e01b600052601160045260246000fd5b5060010190565b60805160a05160c05160e05161010051610120516101405161016051615a4562000b08600039600081816102e201528181611ecc01526121170152600081816102b3015281816114d50152818161153d01528181611ea50152818161266601526126d3015260006122c30152600081816102840152611e7b0152600081816102240152611e2901526000818161025401528181611e5301528181612e1f01526133060152600081816101f501528181611dfb01526123ab01526000818161124501528181611291015281816115fe015261164a0152615a456000f3fe608060405234801561001057600080fd5b50600436106101ae5760003560e01c806379ba5097116100ee578063b1dc65a411610097578063d3c7c2c711610071578063d3c7c2c71461066b578063d7e2bb5014610673578063f2fde38b14610686578063f52121a51461069957600080fd5b8063b1dc65a414610632578063b4069b3114610645578063c92b28321461065857600080fd5b8063856c8247116100c8578063856c8247146105d55780638da5cb5b14610601578063afcb95d71461061257600080fd5b806379ba50971461058f57806381ff70481461059757806385572ffb146105c757600080fd5b8063599f64311161015b578063681fba1611610135578063681fba161461046a578063704b6c021461047f578063740f4150146104925780637437ff9f146104a557600080fd5b8063599f64311461041d5780635d86f14114610442578063666cab8d1461045557600080fd5b80631ef381741161018c5780631ef38174146103915780633a87ac53146103a6578063546719cd146103b957600080fd5b806306285c69146101b3578063142a98fc14610328578063181f5a7714610348575b600080fd5b6103126040805160c081018252600080825260208201819052918101829052606081018290526080810182905260a08101919091526040518060c001604052807f00000000000000000000000000000000000000000000000000000000000000006001600160a01b031681526020017f000000000000000000000000000000000000000000000000000000000000000067ffffffffffffffff1681526020017f000000000000000000000000000000000000000000000000000000000000000067ffffffffffffffff1681526020017f00000000000000000000000000000000000000000000000000000000000000006001600160a01b031681526020017f00000000000000000000000000000000000000000000000000000000000000006001600160a01b031681526020017f00000000000000000000000000000000000000000000000000000000000000006001600160a01b0316815250905090565b60405161031f9190614236565b60405180910390f35b61033b6103363660046142c0565b6106ac565b60405161031f9190614347565b6103846040518060400160405280601481526020017f45564d3245564d4f666652616d7020312e322e3000000000000000000000000081525081565b60405161031f91906143a5565b6103a461039f3660046145ca565b610727565b005b6103a46103b43660046146dc565b610bb2565b6103c1610f5a565b60405161031f919081516fffffffffffffffffffffffffffffffff908116825260208084015163ffffffff1690830152604080840151151590830152606080840151821690830152608092830151169181019190915260a00190565b6002546001600160a01b03165b6040516001600160a01b03909116815260200161031f565b61042a610450366004614748565b61100f565b61045d61106b565b60405161031f91906147a9565b6104726110cd565b60405161031f91906147bc565b6103a461048d366004614748565b611179565b6103a46104a0366004614c48565b611242565b6105826040805160c081018252600080825260208201819052918101829052606081018290526080810182905260a0810191909152506040805160c081018252600a5463ffffffff80821683526001600160a01b0364010000000090920482166020840152600b549182169383019390935261ffff7401000000000000000000000000000000000000000082041660608301527601000000000000000000000000000000000000000000008104831660808301527a010000000000000000000000000000000000000000000000000000900490911660a082015290565b60405161031f9190614d03565b6103a46113c4565b6007546005546040805163ffffffff8085168252640100000000909404909316602084015282015260600161031f565b6103a46101ae366004614d65565b6105e86105e3366004614748565b6114a7565b60405167ffffffffffffffff909116815260200161031f565b6000546001600160a01b031661042a565b60408051600181526000602082018190529181019190915260600161031f565b6103a4610640366004614de5565b6115a8565b61042a610653366004614748565b61182c565b6103a4610666366004614eea565b611898565b610472611903565b61042a610681366004614748565b6119ab565b6103a4610694366004614748565b6119ba565b6103a46106a7366004614f58565b6119cb565b60006106ba60016004614feb565b60026106c760808561502d565b67ffffffffffffffff166106db9190615054565b601360006106ea60808761506b565b67ffffffffffffffff1667ffffffffffffffff16815260200190815260200160002054901c166003811115610721576107216142dd565b92915050565b84518460ff16601f82111561079d576040517f89a6198900000000000000000000000000000000000000000000000000000000815260206004820152601560248201527f746f6f206d616e79207472616e736d697474657273000000000000000000000060448201526064015b60405180910390fd5b80600003610807576040517f89a6198900000000000000000000000000000000000000000000000000000000815260206004820152601260248201527f66206d75737420626520706f73697469766500000000000000000000000000006044820152606401610794565b61080f611bd3565b61081885611c49565b60095460005b8181101561089757600860006009838154811061083d5761083d615092565b60009182526020808320909101546001600160a01b03168352820192909252604001902080547fffffffffffffffffffffffffffffffffffffffffffffffffffffffffffff0000169055610890816150c1565b905061081e565b50875160005b81811015610a6c5760008a82815181106108b9576108b9615092565b60200260200101519050600060028111156108d6576108d66142dd565b6001600160a01b038216600090815260086020526040902054610100900460ff166002811115610908576109086142dd565b1461096f576040517f89a6198900000000000000000000000000000000000000000000000000000000815260206004820152601c60248201527f7265706561746564207472616e736d69747465722061646472657373000000006044820152606401610794565b6001600160a01b0381166109af576040517fd6c62c9b00000000000000000000000000000000000000000000000000000000815260040160405180910390fd5b6040805180820190915260ff8316815260208101600290526001600160a01b03821660009081526008602090815260409091208251815460ff9091167fffffffffffffffffffffffffffffffffffffffffffffffffffffffffffffff0082168117835592840151919283917fffffffffffffffffffffffffffffffffffffffffffffffffffffffffffff00001617610100836002811115610a5257610a526142dd565b02179055509050505080610a65906150c1565b905061089d565b508851610a809060099060208c01906141ad565b506006805460ff838116610100027fffffffffffffffffffffffffffffffffffffffffffffffffffffffffffff0000909216908b161717905560078054610b06914691309190600090610ad89063ffffffff166150f9565b91906101000a81548163ffffffff021916908363ffffffff160217905563ffffffff168d8d8d8d8d8d611f30565b6005600001819055506000600760049054906101000a900463ffffffff16905043600760046101000a81548163ffffffff021916908363ffffffff1602179055507f1591690b8638f5fb2dbec82ac741805ac5da8b45dc5263f4875b0496fdce4e0581600560000154600760009054906101000a900463ffffffff168e8e8e8e8e8e604051610b9d9998979695949392919061511c565b60405180910390a15050505050505050505050565b610bba611bd3565b60005b83811015610d85576000858583818110610bd957610bd9615092565b610bef9260206040909202019081019150614748565b90506000868684818110610c0557610c05615092565b9050604002016020016020810190610c1d9190614748565b9050610c2a600c83611fbd565b610c60576040517f9c8787c000000000000000000000000000000000000000000000000000000000815260040160405180910390fd5b6001600160a01b038116610c75600c84611fd2565b6001600160a01b031614610cb5576040517f6cc7b99800000000000000000000000000000000000000000000000000000000815260040160405180910390fd5b610cc0600c83611fe7565b50610d2e816001600160a01b03166321df0da76040518163ffffffff1660e01b8152600401602060405180830381865afa158015610d02573d6000803e3d6000fd5b505050506040513d601f19601f82011682018060405250810190610d2691906151b2565b600f90611fe7565b50604080516001600160a01b038085168252831660208201527f987eb3c2f78454541205f72f34839b434c306c9eaf4922efd7c0c3060fdb2e4c910160405180910390a1505080610d7e906150c1565b9050610bbd565b5060005b81811015610f53576000838383818110610da557610da5615092565b610dbb9260206040909202019081019150614748565b90506000848484818110610dd157610dd1615092565b9050604002016020016020810190610de99190614748565b90506001600160a01b0382161580610e0857506001600160a01b038116155b15610e3f576040517f6c2a418000000000000000000000000000000000000000000000000000000000815260040160405180910390fd5b610e4a600c83611fbd565b15610e81576040517f3caf458500000000000000000000000000000000000000000000000000000000815260040160405180910390fd5b610e8d600c8383611ffc565b50610efc816001600160a01b03166321df0da76040518163ffffffff1660e01b8152600401602060405180830381865afa158015610ecf573d6000803e3d6000fd5b505050506040513d601f19601f82011682018060405250810190610ef391906151b2565b600f9083611ffc565b50604080516001600160a01b038085168252831660208201527f95f865c2808f8b2a85eea2611db7843150ee7835ef1403f9755918a97d76933c910160405180910390a1505080610f4c906150c1565b9050610d89565b5050505050565b6040805160a0810182526000808252602082018190529181018290526060810182905260808101919091526040805160a0810182526003546fffffffffffffffffffffffffffffffff808216835270010000000000000000000000000000000080830463ffffffff1660208501527401000000000000000000000000000000000000000090920460ff16151593830193909352600454808416606084015204909116608082015261100a9061201a565b905090565b6000808061101e600c856120cc565b9150915081611064576040517fbf16aab60000000000000000000000000000000000000000000000000000000081526001600160a01b0385166004820152602401610794565b9392505050565b606060098054806020026020016040519081016040528092919081815260200182805480156110c357602002820191906000526020600020905b81546001600160a01b031681526001909101906020018083116110a5575b5050505050905090565b60606110d9600f6120ee565b67ffffffffffffffff8111156110f1576110f16143b8565b60405190808252806020026020018201604052801561111a578160200160208202803683370190505b50905060005b8151811015611175576000611136600f836120f9565b5090508083838151811061114c5761114c615092565b6001600160a01b03909216602092830291909101909101525061116e816150c1565b9050611120565b5090565b6000546001600160a01b0316331480159061119f57506002546001600160a01b03163314155b156111d6576040517ff6cd562000000000000000000000000000000000000000000000000000000000815260040160405180910390fd5b600280547fffffffffffffffffffffffff0000000000000000000000000000000000000000166001600160a01b0383169081179091556040519081527f8fe72c3e0020beb3234e76ae6676fa576fbfcae600af1c4fea44784cf0db329c9060200160405180910390a150565b467f0000000000000000000000000000000000000000000000000000000000000000146112cd576040517f0f01ce850000000000000000000000000000000000000000000000000000000081527f0000000000000000000000000000000000000000000000000000000000000000600482015267ffffffffffffffff46166024820152604401610794565b8151518151811461130a576040517f83e3f56400000000000000000000000000000000000000000000000000000000815260040160405180910390fd5b60005b818110156113b457600083828151811061132957611329615092565b60200260200101519050806000141580156113625750845180518390811061135357611353615092565b60200260200101516080015181105b156113a3576040517f085e39cf0000000000000000000000000000000000000000000000000000000081526004810183905260248101829052604401610794565b506113ad816150c1565b905061130d565b506113bf8383612115565b505050565b6001546001600160a01b03163314611438576040517f08c379a000000000000000000000000000000000000000000000000000000000815260206004820152601660248201527f4d7573742062652070726f706f736564206f776e6572000000000000000000006044820152606401610794565b60008054337fffffffffffffffffffffffff0000000000000000000000000000000000000000808316821784556001805490911690556040516001600160a01b0390921692909183917f8be0079c531659141344cd1fd0a4f28419497f9722a3daafe3b4186f6b6457e091a350565b6001600160a01b03811660009081526012602052604081205467ffffffffffffffff168015801561150057507f00000000000000000000000000000000000000000000000000000000000000006001600160a01b031615155b15610721576040517f856c82470000000000000000000000000000000000000000000000000000000081526001600160a01b0384811660048301527f0000000000000000000000000000000000000000000000000000000000000000169063856c824790602401602060405180830381865afa158015611584573d6000803e3d6000fd5b505050506040513d601f19601f8201168201806040525081019061106491906151cf565b6115b28787612a67565b6005548835908082146115fb576040517f93df584c0000000000000000000000000000000000000000000000000000000081526004810182905260248101839052604401610794565b467f00000000000000000000000000000000000000000000000000000000000000001461167c576040517f0f01ce850000000000000000000000000000000000000000000000000000000081527f00000000000000000000000000000000000000000000000000000000000000006004820152466024820152604401610794565b6040805183815260208c81013560081c63ffffffff16908201527fb04e63db38c49950639fa09d29872f21f5d49d614f3a969d8adf3d4b52e41a62910160405180910390a13360009081526008602090815260408083208151808301909252805460ff80821684529293919291840191610100909104166002811115611704576117046142dd565b6002811115611715576117156142dd565b9052509050600281602001516002811115611732576117326142dd565b14801561176c57506009816000015160ff168154811061175457611754615092565b6000918252602090912001546001600160a01b031633145b6117a2576040517fda0f08e800000000000000000000000000000000000000000000000000000000815260040160405180910390fd5b5060006117b0856020615054565b6117bb886020615054565b6117c78b6101446151ec565b6117d191906151ec565b6117db91906151ec565b905036811461181f576040517f8e1192e100000000000000000000000000000000000000000000000000000000815260048101829052366024820152604401610794565b5050505050505050505050565b60006118378261100f565b6001600160a01b03166321df0da76040518163ffffffff1660e01b8152600401602060405180830381865afa158015611874573d6000803e3d6000fd5b505050506040513d601f19601f8201168201806040525081019061072191906151b2565b6000546001600160a01b031633148015906118be57506002546001600160a01b03163314155b156118f5576040517ff6cd562000000000000000000000000000000000000000000000000000000000815260040160405180910390fd5b611900600382612a8e565b50565b606061190f600c6120ee565b67ffffffffffffffff811115611927576119276143b8565b604051908082528060200260200182016040528015611950578160200160208202803683370190505b50905060005b815181101561117557600061196c600c836120f9565b5090508083838151811061198257611982615092565b6001600160a01b0390921660209283029190910190910152506119a4816150c1565b9050611956565b6000808061101e600f856120cc565b6119c2611bd3565b61190081612c73565b333014611a04576040517f371a732800000000000000000000000000000000000000000000000000000000815260040160405180910390fd5b6040805160008082526020820190925281611a41565b6040805180820190915260008082526020820152815260200190600190039081611a1a5790505b506101408401515190915015611aa157611a9e8361014001518460200151604051602001611a7e91906001600160a01b0391909116815260200190565b604051602081830303815290604052856040015186610160015186612d4e565b90505b60408301516001600160a01b03163b1580611af157506040830151611aef906001600160a01b03167f85572ffb00000000000000000000000000000000000000000000000000000000613068565b155b15611afb57505050565b600a54600090819064010000000090046001600160a01b0316633cf97983611b238786613084565b611388886080015189604001516040518563ffffffff1660e01b8152600401611b4f9493929190615243565b6000604051808303816000875af1158015611b6e573d6000803e3d6000fd5b505050506040513d6000823e601f3d908101601f19168201604052611b969190810190615308565b9150915081610f5357806040517f0a8d6e8c00000000000000000000000000000000000000000000000000000000815260040161079491906143a5565b6000546001600160a01b03163314611c47576040517f08c379a000000000000000000000000000000000000000000000000000000000815260206004820152601660248201527f4f6e6c792063616c6c61626c65206279206f776e6572000000000000000000006044820152606401610794565b565b600081806020019051810190611c5f91906153a9565b60208101519091506001600160a01b0316611ca6576040517f8579befe00000000000000000000000000000000000000000000000000000000815260040160405180910390fd5b8051600a80546020808501516001600160a01b03908116640100000000027fffffffffffffffff00000000000000000000000000000000000000000000000090931663ffffffff9586161792909217909255604080850151600b80546060808901516080808b015160a0808d01518c167a010000000000000000000000000000000000000000000000000000027fffff00000000ffffffffffffffffffffffffffffffffffffffffffffffffffff92909c1676010000000000000000000000000000000000000000000002919091167fffff0000000000000000ffffffffffffffffffffffffffffffffffffffffffff61ffff90941674010000000000000000000000000000000000000000027fffffffffffffffffffff00000000000000000000000000000000000000000000909616978a169790971794909417919091169490941797909717909155825160c0810184527f00000000000000000000000000000000000000000000000000000000000000008516815267ffffffffffffffff7f00000000000000000000000000000000000000000000000000000000000000008116968201969096527f0000000000000000000000000000000000000000000000000000000000000000909516858401527f00000000000000000000000000000000000000000000000000000000000000008416958501959095527f00000000000000000000000000000000000000000000000000000000000000008316908401527f00000000000000000000000000000000000000000000000000000000000000009091169282019290925290517fe668e1a4644c1a030b909bbfd837f5cfa914994ed5e0bb2e9c34a5c37753128a91611f24918490615455565b60405180910390a15050565b6000808a8a8a8a8a8a8a8a8a604051602001611f5499989796959493929190615517565b60408051601f1981840301815291905280516020909101207dffffffffffffffffffffffffffffffffffffffffffffffffffffffffffff167e01000000000000000000000000000000000000000000000000000000000000179150509998505050505050505050565b6000611064836001600160a01b038416613127565b6000611064836001600160a01b038416613133565b6000611064836001600160a01b03841661313f565b6000612012846001600160a01b0385168461314b565b949350505050565b6040805160a0810182526000808252602082018190529181018290526060810182905260808101919091526120a882606001516fffffffffffffffffffffffffffffffff1683600001516fffffffffffffffffffffffffffffffff16846020015163ffffffff164261208c9190614feb565b85608001516fffffffffffffffffffffffffffffffff16613161565b6fffffffffffffffffffffffffffffffff1682525063ffffffff4216602082015290565b6000806120e2846001600160a01b038516613180565b915091505b9250929050565b60006107218261318f565b6000808080612108868661319a565b9097909650945050505050565b7f00000000000000000000000000000000000000000000000000000000000000006001600160a01b031663397796f76040518163ffffffff1660e01b8152600401602060405180830381865afa158015612173573d6000803e3d6000fd5b505050506040513d601f19601f82011682018060405250810190612197919061559f565b156121ce576040517fc148371500000000000000000000000000000000000000000000000000000000815260040160405180910390fd5b815151600081900361220b576040517ebf199700000000000000000000000000000000000000000000000000000000815260040160405180910390fd5b8260200151518114612249576040517f57e0e08300000000000000000000000000000000000000000000000000000000815260040160405180910390fd5b60008167ffffffffffffffff811115612264576122646143b8565b60405190808252806020026020018201604052801561228d578160200160208202803683370190505b50905060005b8281101561236d576000856000015182815181106122b3576122b3615092565b602002602001015190506122e7817f00000000000000000000000000000000000000000000000000000000000000006131a9565b8383815181106122f9576122f9615092565b60200260200101818152505080610180015183838151811061231d5761231d615092565b60200260200101511461235c576040517f7185cf6b00000000000000000000000000000000000000000000000000000000815260040160405180910390fd5b50612366816150c1565b9050612293565b50604080850151606086015191517f320488750000000000000000000000000000000000000000000000000000000081526000926001600160a01b037f000000000000000000000000000000000000000000000000000000000000000016926332048875926123e1928792916004016155ec565b602060405180830381865afa1580156123fe573d6000803e3d6000fd5b505050506040513d601f19601f820116820180604052508101906124229190615622565b90508060000361245e576040517fea75680100000000000000000000000000000000000000000000000000000000815260040160405180910390fd5b8351151560005b84811015612a5e5760008760000151828151811061248557612485615092565b60200260200101519050600061249e82606001516106ac565b905060008160038111156124b4576124b46142dd565b14806124d1575060038160038111156124cf576124cf6142dd565b145b6125195760608201516040517f50a6e05200000000000000000000000000000000000000000000000000000000815267ffffffffffffffff9091166004820152602401610794565b83156125d657600a5460009063ffffffff166125358742614feb565b119050808061255557506003826003811115612553576125536142dd565b145b61258b576040517f6358b0d000000000000000000000000000000000000000000000000000000000815260040160405180910390fd5b88848151811061259d5761259d615092565b60200260200101516000146125d0578884815181106125be576125be615092565b60200260200101518360800181815250505b50612633565b60008160038111156125ea576125ea6142dd565b146126335760608201516040517f67d9ba0f00000000000000000000000000000000000000000000000000000000815267ffffffffffffffff9091166004820152602401610794565b6020808301516001600160a01b031660009081526012909152604090205467ffffffffffffffff168015801561269157507f00000000000000000000000000000000000000000000000000000000000000006001600160a01b031615155b1561280d5760208301516040517f856c82470000000000000000000000000000000000000000000000000000000081526001600160a01b0391821660048201527f00000000000000000000000000000000000000000000000000000000000000009091169063856c824790602401602060405180830381865afa15801561271c573d6000803e3d6000fd5b505050506040513d601f19601f8201168201806040525081019061274091906151cf565b60c084015190915067ffffffffffffffff1661275d82600161563b565b67ffffffffffffffff16146127bd5782602001516001600160a01b03168360c0015167ffffffffffffffff167fe44a20935573a783dd0d5991c92d7b6a0eb3173566530364db3ec10e9a990b5d60405160405180910390a3505050612a4e565b6020838101516001600160a01b0316600090815260129091526040902080547fffffffffffffffffffffffffffffffffffffffffffffffff00000000000000001667ffffffffffffffff83161790555b6000826003811115612821576128216142dd565b036128a05760c083015167ffffffffffffffff1661284082600161563b565b67ffffffffffffffff16146128a05782602001516001600160a01b03168360c0015167ffffffffffffffff167fd32ddb11d71e3d63411d37b09f9a8b28664f1cb1338bfd1413c173b0ebf4123760405160405180910390a3505050612a4e565b60008a6020015185815181106128b8576128b8615092565b602002602001015190506128e48460600151856000015186610140015151876101200151518551613304565b6128f3846060015160016134ae565b6000806129008684613558565b915091506129128660600151836134ae565b6003826003811115612926576129266142dd565b1415801561294657506002826003811115612943576129436142dd565b14155b15612985578560600151826040517f9e26160300000000000000000000000000000000000000000000000000000000815260040161079492919061565c565b6000856003811115612999576129996142dd565b036129f9576020808701516001600160a01b03166000908152601290915260408120805467ffffffffffffffff16916129d18361567a565b91906101000a81548167ffffffffffffffff021916908367ffffffffffffffff160217905550505b856101800151866060015167ffffffffffffffff167fd4f851956a5d67c3997d1c9205045fef79bae2947fdee7e9e2641abc7391ef658484604051612a3f929190615697565b60405180910390a35050505050505b612a57816150c1565b9050612465565b50505050505050565b612a8a612a76828401846156b7565b604080516000815260208101909152612115565b5050565b8154600090612ab790700100000000000000000000000000000000900463ffffffff1642614feb565b90508015612b595760018301548354612aff916fffffffffffffffffffffffffffffffff80821692811691859170010000000000000000000000000000000090910416613161565b83546fffffffffffffffffffffffffffffffff919091167fffffffffffffffffffffffff0000000000000000000000000000000000000000909116177001000000000000000000000000000000004263ffffffff16021783555b60208201518354612b7f916fffffffffffffffffffffffffffffffff90811691166136fb565b83548351151574010000000000000000000000000000000000000000027fffffffffffffffffffffff00ffffffff000000000000000000000000000000009091166fffffffffffffffffffffffffffffffff92831617178455602083015160408085015183167001000000000000000000000000000000000291909216176001850155517f9ea3374b67bf275e6bb9c8ae68f9cae023e1c528b4b27e092f0bb209d3531c1990612c669084908151151581526020808301516fffffffffffffffffffffffffffffffff90811691830191909152604092830151169181019190915260600190565b60405180910390a1505050565b336001600160a01b03821603612ce5576040517f08c379a000000000000000000000000000000000000000000000000000000000815260206004820152601760248201527f43616e6e6f74207472616e7366657220746f2073656c660000000000000000006044820152606401610794565b600180547fffffffffffffffffffffffff0000000000000000000000000000000000000000166001600160a01b0383811691821790925560008054604051929316917fed8889f560326eb138920d842192f0eb3dd22b4f139c87a2c57538e05bae12789190a350565b60606000865167ffffffffffffffff811115612d6c57612d6c6143b8565b604051908082528060200260200182016040528015612db157816020015b6040805180820190915260008082526020820152815260200190600190039081612d8a5790505b50905060005b8751811015613044576000612de8898381518110612dd757612dd7615092565b60200260200101516000015161100f565b90506000898381518110612dfe57612dfe615092565b6020026020010151602001519050600080612f37638627fad660e01b8c8c867f00000000000000000000000000000000000000000000000000000000000000008e8b81518110612e5057612e50615092565b60200260200101518e8c81518110612e6a57612e6a615092565b6020026020010151604051602001612e839291906156ec565b60408051601f1981840301815290829052612ea49594939291602401615711565b60408051601f198184030181529190526020810180517bffffffffffffffffffffffffffffffffffffffffffffffffffffffff167fffffffff0000000000000000000000000000000000000000000000000000000090931692909217909152600b54869063ffffffff7a010000000000000000000000000000000000000000000000000000909104166084611388613711565b9150915081612f7457806040517fe1cd550900000000000000000000000000000000000000000000000000000000815260040161079491906143a5565b836001600160a01b03166321df0da76040518163ffffffff1660e01b8152600401602060405180830381865afa158015612fb2573d6000803e3d6000fd5b505050506040513d601f19601f82011682018060405250810190612fd691906151b2565b868681518110612fe857612fe8615092565b6020026020010151600001906001600160a01b031690816001600160a01b0316815250508286868151811061301f5761301f615092565b60200260200101516020018181525050505050508061303d906150c1565b9050612db7565b50600b5461305c9082906001600160a01b0316613834565b90505b95945050505050565b6000613073836139f5565b801561106457506110648383613a59565b6040805160a08101825260008082526020820152606091810182905281810182905260808101919091526040518060a001604052808461018001518152602001846000015167ffffffffffffffff16815260200184602001516040516020016130fc91906001600160a01b0391909116815260200190565b6040516020818303038152906040528152602001846101200151815260200183815250905092915050565b60006110648383613b28565b60006110648383613b34565b60006110648383613bbe565b600061201284846001600160a01b038516613bdb565b600061305f856131718486615054565b61317b90876151ec565b6136fb565b60008080806121088686613bf8565b600061072182613c32565b60008080806121088686613c3d565b60008060001b8284602001518560400151866060015187608001518860a001518960c001518a60e001518b610100015160405160200161323f9897969594939291906001600160a01b039889168152968816602088015267ffffffffffffffff95861660408801526060870194909452911515608086015290921660a0840152921660c082015260e08101919091526101000190565b60405160208183030381529060405280519060200120856101200151805190602001208661014001516040516020016132789190615767565b604051602081830303815290604052805190602001208761016001516040516020016132a491906157cf565b60408051601f198184030181528282528051602091820120908301979097528101949094526060840192909252608083015260a082015260c081019190915260e00160405160208183030381529060405280519060200120905092915050565b7f000000000000000000000000000000000000000000000000000000000000000067ffffffffffffffff168467ffffffffffffffff161461337d576040517f1279ec8a00000000000000000000000000000000000000000000000000000000815267ffffffffffffffff85166004820152602401610794565b600b5474010000000000000000000000000000000000000000900461ffff168311156133e1576040517f099d3f7200000000000000000000000000000000000000000000000000000000815267ffffffffffffffff86166004820152602401610794565b808314613426576040517f8808f8e700000000000000000000000000000000000000000000000000000000815267ffffffffffffffff86166004820152602401610794565b600b54760100000000000000000000000000000000000000000000900463ffffffff16821115610f5357600b546040517f8693378900000000000000000000000000000000000000000000000000000000815276010000000000000000000000000000000000000000000090910463ffffffff16600482015260248101839052604401610794565b600060026134bd60808561502d565b67ffffffffffffffff166134d19190615054565b905060006013816134e360808761506b565b67ffffffffffffffff16815260208101919091526040016000205490508161350d60016004614feb565b901b191681836003811115613524576135246142dd565b901b17806013600061353760808861506b565b67ffffffffffffffff16815260208101919091526040016000205550505050565b6040517ff52121a5000000000000000000000000000000000000000000000000000000008152600090606090309063f52121a59061359c90879087906004016157e2565b600060405180830381600087803b1580156135b657600080fd5b505af19250505080156135c7575060015b6136e0573d8080156135f5576040519150601f19603f3d011682016040523d82523d6000602084013e6135fa565b606091505b5061360481615945565b7fffffffff00000000000000000000000000000000000000000000000000000000167f0a8d6e8c00000000000000000000000000000000000000000000000000000000148061369c575061365781615945565b7fffffffff00000000000000000000000000000000000000000000000000000000167fe1cd550900000000000000000000000000000000000000000000000000000000145b156136ac576003925090506120e7565b806040517fcf19edfd00000000000000000000000000000000000000000000000000000000815260040161079491906143a5565b50506040805160208101909152600081526002909250929050565b600081831061370a5781611064565b5090919050565b600060608361ffff1667ffffffffffffffff811115613732576137326143b8565b6040519080825280601f01601f19166020018201604052801561375c576020820181803683370190505b5090507f0c3b563c000000000000000000000000000000000000000000000000000000007fafa32a2c000000000000000000000000000000000000000000000000000000007f37c3be2900000000000000000000000000000000000000000000000000000000883b6137d2578260005260046000fd5b5a868110156137e5578260005260046000fd5b86900360408104810389106137fe578160005260046000fd5b506000808b5160208d0160008d8df194503d8781111561381b5750865b808552806000602087013e505050509550959350505050565b81516000805b828110156139e1576000846001600160a01b031663d02641a087848151811061386557613865615092565b6020908102919091010151516040517fffffffff0000000000000000000000000000000000000000000000000000000060e084901b1681526001600160a01b0390911660048201526024016040805180830381865afa1580156138cc573d6000803e3d6000fd5b505050506040513d601f19601f820116820180604052508101906138f09190615995565b5190507bffffffffffffffffffffffffffffffffffffffffffffffffffffffff81166000036139755785828151811061392b5761392b615092565b6020908102919091010151516040517f9a655f7b0000000000000000000000000000000000000000000000000000000081526001600160a01b039091166004820152602401610794565b6139c386838151811061398a5761398a615092565b602002602001015160200151827bffffffffffffffffffffffffffffffffffffffffffffffffffffffff16613c6890919063ffffffff16565b6139cd90846151ec565b925050806139da906150c1565b905061383a565b506139ef6003826000613ca5565b50505050565b6000613a21827f01ffc9a700000000000000000000000000000000000000000000000000000000613a59565b80156107215750613a52827fffffffff00000000000000000000000000000000000000000000000000000000613a59565b1592915050565b604080517fffffffff000000000000000000000000000000000000000000000000000000008316602480830191909152825180830390910181526044909101909152602080820180517bffffffffffffffffffffffffffffffffffffffffffffffffffffffff167f01ffc9a700000000000000000000000000000000000000000000000000000000178152825160009392849283928392918391908a617530fa92503d91506000519050828015613b11575060208210155b8015613b1d5750600081115b979650505050505050565b60006110648383613ff4565b600081815260028301602052604081205480151580613b585750613b588484613b28565b611064576040517f08c379a000000000000000000000000000000000000000000000000000000000815260206004820152601e60248201527f456e756d657261626c654d61703a206e6f6e6578697374656e74206b657900006044820152606401610794565b60008181526002830160205260408120819055611064838361400c565b600082815260028401602052604081208290556120128484614018565b6000818152600283016020526040812054819080613c2757613c1a8585613b28565b9250600091506120e79050565b6001925090506120e7565b600061072182614024565b60008080613c4b858561402e565b600081815260029690960160205260409095205494959350505050565b6000670de0b6b3a7640000613c9b837bffffffffffffffffffffffffffffffffffffffffffffffffffffffff8616615054565b61106491906159f5565b825474010000000000000000000000000000000000000000900460ff161580613ccc575081155b15613cd657505050565b825460018401546fffffffffffffffffffffffffffffffff80831692911690600090613d1c90700100000000000000000000000000000000900463ffffffff1642614feb565b90508015613ddc5781831115613d5e576040517f9725942a00000000000000000000000000000000000000000000000000000000815260040160405180910390fd5b6001860154613d989083908590849070010000000000000000000000000000000090046fffffffffffffffffffffffffffffffff16613161565b86547fffffffffffffffffffffffff00000000ffffffffffffffffffffffffffffffff167001000000000000000000000000000000004263ffffffff160217875592505b84821015613e79576001600160a01b038416613e2e576040517ff94ebcd10000000000000000000000000000000000000000000000000000000081526004810183905260248101869052604401610794565b6040517f1a76572a00000000000000000000000000000000000000000000000000000000815260048101839052602481018690526001600160a01b0385166044820152606401610794565b84831015613f725760018681015470010000000000000000000000000000000090046fffffffffffffffffffffffffffffffff16906000908290613ebd9082614feb565b613ec7878a614feb565b613ed191906151ec565b613edb91906159f5565b90506001600160a01b038616613f27576040517f15279c080000000000000000000000000000000000000000000000000000000081526004810182905260248101869052604401610794565b6040517fd0c8d23a00000000000000000000000000000000000000000000000000000000815260048101829052602481018690526001600160a01b0387166044820152606401610794565b613f7c8584614feb565b86547fffffffffffffffffffffffffffffffff00000000000000000000000000000000166fffffffffffffffffffffffffffffffff82161787556040518681529093507f1871cdf8010e63f2eb8384381a68dfa7416dc571a5517e66e88b2d2d0c0a690a9060200160405180910390a1505050505050565b60008181526001830160205260408120541515611064565b6000611064838361403a565b60006110648383614134565b6000610721825490565b60006110648383614183565b6000818152600183016020526040812054801561412357600061405e600183614feb565b855490915060009061407290600190614feb565b90508181146140d757600086600001828154811061409257614092615092565b90600052602060002001549050808760000184815481106140b5576140b5615092565b6000918252602080832090910192909255918252600188019052604090208390555b85548690806140e8576140e8615a09565b600190038181906000526020600020016000905590558560010160008681526020019081526020016000206000905560019350505050610721565b6000915050610721565b5092915050565b600081815260018301602052604081205461417b57508154600181810184556000848152602080822090930184905584548482528286019093526040902091909155610721565b506000610721565b600082600001828154811061419a5761419a615092565b9060005260206000200154905092915050565b82805482825590600052602060002090810192821561421a579160200282015b8281111561421a57825182547fffffffffffffffffffffffff0000000000000000000000000000000000000000166001600160a01b039091161782556020909201916001909101906141cd565b506111759291505b808211156111755760008155600101614222565b60c0810161072182846001600160a01b03808251168352602082015167ffffffffffffffff808216602086015280604085015116604086015250508060608301511660608401528060808301511660808401528060a08301511660a0840152505050565b67ffffffffffffffff8116811461190057600080fd5b80356142bb8161429a565b919050565b6000602082840312156142d257600080fd5b81356110648161429a565b7f4e487b7100000000000000000000000000000000000000000000000000000000600052602160045260246000fd5b60048110614343577f4e487b7100000000000000000000000000000000000000000000000000000000600052602160045260246000fd5b9052565b60208101610721828461430c565b60005b83811015614370578181015183820152602001614358565b50506000910152565b60008151808452614391816020860160208601614355565b601f01601f19169290920160200192915050565b6020815260006110646020830184614379565b7f4e487b7100000000000000000000000000000000000000000000000000000000600052604160045260246000fd5b6040805190810167ffffffffffffffff8111828210171561440a5761440a6143b8565b60405290565b6040516101a0810167ffffffffffffffff8111828210171561440a5761440a6143b8565b6040516080810167ffffffffffffffff8111828210171561440a5761440a6143b8565b604051601f8201601f1916810167ffffffffffffffff81118282101715614480576144806143b8565b604052919050565b600067ffffffffffffffff8211156144a2576144a26143b8565b5060051b60200190565b6001600160a01b038116811461190057600080fd5b80356142bb816144ac565b600082601f8301126144dd57600080fd5b813560206144f26144ed83614488565b614457565b82815260059290921b8401810191818101908684111561451157600080fd5b8286015b84811015614535578035614528816144ac565b8352918301918301614515565b509695505050505050565b803560ff811681146142bb57600080fd5b600067ffffffffffffffff82111561456b5761456b6143b8565b50601f01601f191660200190565b600082601f83011261458a57600080fd5b81356145986144ed82614551565b8181528460208386010111156145ad57600080fd5b816020850160208301376000918101602001919091529392505050565b60008060008060008060c087890312156145e357600080fd5b863567ffffffffffffffff808211156145fb57600080fd5b6146078a838b016144cc565b9750602089013591508082111561461d57600080fd5b6146298a838b016144cc565b965061463760408a01614540565b9550606089013591508082111561464d57600080fd5b6146598a838b01614579565b945061466760808a016142b0565b935060a089013591508082111561467d57600080fd5b5061468a89828a01614579565b9150509295509295509295565b60008083601f8401126146a957600080fd5b50813567ffffffffffffffff8111156146c157600080fd5b6020830191508360208260061b85010111156120e757600080fd5b600080600080604085870312156146f257600080fd5b843567ffffffffffffffff8082111561470a57600080fd5b61471688838901614697565b9096509450602087013591508082111561472f57600080fd5b5061473c87828801614697565b95989497509550505050565b60006020828403121561475a57600080fd5b8135611064816144ac565b600081518084526020808501945080840160005b8381101561479e5781516001600160a01b031687529582019590820190600101614779565b509495945050505050565b6020815260006110646020830184614765565b6020808252825182820181905260009190848201906040850190845b818110156147fd5783516001600160a01b0316835292840192918401916001016147d8565b50909695505050505050565b801515811461190057600080fd5b80356142bb81614809565b600082601f83011261483357600080fd5b813560206148436144ed83614488565b82815260069290921b8401810191818101908684111561486257600080fd5b8286015b84811015614535576040818903121561487f5760008081fd5b6148876143e7565b8135614892816144ac565b81528185013585820152835291830191604001614866565b600082601f8301126148bb57600080fd5b813560206148cb6144ed83614488565b82815260059290921b840181019181810190868411156148ea57600080fd5b8286015b8481101561453557803567ffffffffffffffff81111561490e5760008081fd5b61491c8986838b0101614579565b8452509183019183016148ee565b60006101a0828403121561493d57600080fd5b614945614410565b9050614950826142b0565b815261495e602083016144c1565b602082015261496f604083016144c1565b6040820152614980606083016142b0565b60608201526080820135608082015261499b60a08301614817565b60a08201526149ac60c083016142b0565b60c08201526149bd60e083016144c1565b60e082015261010082810135908201526101208083013567ffffffffffffffff808211156149ea57600080fd5b6149f686838701614579565b83850152610140925082850135915080821115614a1257600080fd5b614a1e86838701614822565b83850152610160925082850135915080821115614a3a57600080fd5b50614a47858286016148aa565b82840152505061018080830135818301525092915050565b600082601f830112614a7057600080fd5b81356020614a806144ed83614488565b82815260059290921b84018101918181019086841115614a9f57600080fd5b8286015b8481101561453557803567ffffffffffffffff811115614ac35760008081fd5b614ad18986838b01016148aa565b845250918301918301614aa3565b600082601f830112614af057600080fd5b81356020614b006144ed83614488565b82815260059290921b84018101918181019086841115614b1f57600080fd5b8286015b848110156145355780358352918301918301614b23565b600060808284031215614b4c57600080fd5b614b54614434565b9050813567ffffffffffffffff80821115614b6e57600080fd5b818401915084601f830112614b8257600080fd5b81356020614b926144ed83614488565b82815260059290921b84018101918181019088841115614bb157600080fd5b8286015b84811015614be957803586811115614bcd5760008081fd5b614bdb8b86838b010161492a565b845250918301918301614bb5565b5086525085810135935082841115614c0057600080fd5b614c0c87858801614a5f565b90850152506040840135915080821115614c2557600080fd5b50614c3284828501614adf565b6040830152506060820135606082015292915050565b60008060408385031215614c5b57600080fd5b823567ffffffffffffffff80821115614c7357600080fd5b614c7f86838701614b3a565b9350602091508185013581811115614c9657600080fd5b85019050601f81018613614ca957600080fd5b8035614cb76144ed82614488565b81815260059190911b82018301908381019088831115614cd657600080fd5b928401925b82841015614cf457833582529284019290840190614cdb565b80955050505050509250929050565b60c08101610721828463ffffffff80825116835260208201516001600160a01b038082166020860152806040850151166040860152505061ffff60608301511660608401528060808301511660808401528060a08301511660a0840152505050565b600060208284031215614d7757600080fd5b813567ffffffffffffffff811115614d8e57600080fd5b820160a0818503121561106457600080fd5b60008083601f840112614db257600080fd5b50813567ffffffffffffffff811115614dca57600080fd5b6020830191508360208260051b85010111156120e757600080fd5b60008060008060008060008060e0898b031215614e0157600080fd5b606089018a811115614e1257600080fd5b8998503567ffffffffffffffff80821115614e2c57600080fd5b818b0191508b601f830112614e4057600080fd5b813581811115614e4f57600080fd5b8c6020828501011115614e6157600080fd5b6020830199508098505060808b0135915080821115614e7f57600080fd5b614e8b8c838d01614da0565b909750955060a08b0135915080821115614ea457600080fd5b50614eb18b828c01614da0565b999c989b50969995989497949560c00135949350505050565b80356fffffffffffffffffffffffffffffffff811681146142bb57600080fd5b600060608284031215614efc57600080fd5b6040516060810181811067ffffffffffffffff82111715614f1f57614f1f6143b8565b6040528235614f2d81614809565b8152614f3b60208401614eca565b6020820152614f4c60408401614eca565b60408201529392505050565b60008060408385031215614f6b57600080fd5b823567ffffffffffffffff80821115614f8357600080fd5b614f8f8683870161492a565b93506020850135915080821115614fa557600080fd5b50614fb2858286016148aa565b9150509250929050565b7f4e487b7100000000000000000000000000000000000000000000000000000000600052601160045260246000fd5b8181038181111561072157610721614fbc565b7f4e487b7100000000000000000000000000000000000000000000000000000000600052601260045260246000fd5b600067ffffffffffffffff8084168061504857615048614ffe565b92169190910692915050565b808202811582820484141761072157610721614fbc565b600067ffffffffffffffff8084168061508657615086614ffe565b92169190910492915050565b7f4e487b7100000000000000000000000000000000000000000000000000000000600052603260045260246000fd5b60007fffffffffffffffffffffffffffffffffffffffffffffffffffffffffffffffff82036150f2576150f2614fbc565b5060010190565b600063ffffffff80831681810361511257615112614fbc565b6001019392505050565b600061012063ffffffff808d1684528b6020850152808b1660408501525080606084015261514c8184018a614765565b905082810360808401526151608189614765565b905060ff871660a084015282810360c084015261517d8187614379565b905067ffffffffffffffff851660e08401528281036101008401526151a28185614379565b9c9b505050505050505050505050565b6000602082840312156151c457600080fd5b8151611064816144ac565b6000602082840312156151e157600080fd5b81516110648161429a565b8082018082111561072157610721614fbc565b600081518084526020808501945080840160005b8381101561479e57815180516001600160a01b031688528301518388015260409096019590820190600101615213565b608081528451608082015267ffffffffffffffff60208601511660a08201526000604086015160a060c084015261527e610120840182614379565b905060608701517fffffffffffffffffffffffffffffffffffffffffffffffffffffffffffffff80808584030160e08601526152ba8383614379565b9250608089015191508085840301610100860152506152d982826151ff565b925050506152ed602083018661ffff169052565b83604083015261305f60608301846001600160a01b03169052565b6000806040838503121561531b57600080fd5b825161532681614809565b602084015190925067ffffffffffffffff81111561534357600080fd5b8301601f8101851361535457600080fd5b80516153626144ed82614551565b81815286602083850101111561537757600080fd5b615388826020830160208601614355565b8093505050509250929050565b805163ffffffff811681146142bb57600080fd5b600060c082840312156153bb57600080fd5b60405160c0810181811067ffffffffffffffff821117156153de576153de6143b8565b6040526153ea83615395565b815260208301516153fa816144ac565b6020820152604083015161540d816144ac565b6040820152606083015161ffff8116811461542757600080fd5b606082015261543860808401615395565b608082015261544960a08401615395565b60a08201529392505050565b61018081016154ba82856001600160a01b03808251168352602082015167ffffffffffffffff808216602086015280604085015116604086015250508060608301511660608401528060808301511660808401528060a08301511660a0840152505050565b825163ffffffff90811660c084015260208401516001600160a01b0390811660e0850152604085015116610100840152606084015161ffff166101208401526080840151811661014084015260a084015116610160830152611064565b60006101208b83526001600160a01b038b16602084015267ffffffffffffffff808b1660408501528160608501526155518285018b614765565b91508382036080850152615565828a614765565b915060ff881660a085015283820360c08501526155828288614379565b90861660e085015283810361010085015290506151a28185614379565b6000602082840312156155b157600080fd5b815161106481614809565b600081518084526020808501945080840160005b8381101561479e578151875295820195908201906001016155d0565b6060815260006155ff60608301866155bc565b828103602084015261561181866155bc565b915050826040830152949350505050565b60006020828403121561563457600080fd5b5051919050565b67ffffffffffffffff81811683821601908082111561412d5761412d614fbc565b67ffffffffffffffff8316815260408101611064602083018461430c565b600067ffffffffffffffff80831681810361511257615112614fbc565b6156a1818461430c565b6040602082015260006120126040830184614379565b6000602082840312156156c957600080fd5b813567ffffffffffffffff8111156156e057600080fd5b61201284828501614b3a565b6040815260006156ff6040830185614379565b828103602084015261305f8185614379565b60a08152600061572460a0830188614379565b6001600160a01b038716602084015285604084015267ffffffffffffffff85166060840152828103608084015261575b8185614379565b98975050505050505050565b60208152600061106460208301846151ff565b600081518084526020808501808196508360051b8101915082860160005b858110156157c25782840389526157b0848351614379565b98850198935090840190600101615798565b5091979650505050505050565b602081526000611064602083018461577a565b604081526157fd60408201845167ffffffffffffffff169052565b6000602084015161581960608401826001600160a01b03169052565b5060408401516001600160a01b038116608084015250606084015167ffffffffffffffff811660a084015250608084015160c083015260a084015180151560e08401525060c084015161010061587a8185018367ffffffffffffffff169052565b60e08601519150610120615898818601846001600160a01b03169052565b81870151925061014091508282860152808701519250506101a061016081818701526158c86101e0870185614379565b93508288015192507fffffffffffffffffffffffffffffffffffffffffffffffffffffffffffffffc061018081888703018189015261590786866151ff565b9550828a01519450818887030184890152615922868661577a565b9550808a01516101c08901525050505050828103602084015261305f818561577a565b6000815160208301517fffffffff000000000000000000000000000000000000000000000000000000008082169350600483101561598d5780818460040360031b1b83161693505b505050919050565b6000604082840312156159a757600080fd5b6159af6143e7565b82517bffffffffffffffffffffffffffffffffffffffffffffffffffffffff811681146159db57600080fd5b81526159e960208401615395565b60208201529392505050565b600082615a0457615a04614ffe565b500490565b7f4e487b7100000000000000000000000000000000000000000000000000000000600052603160045260246000fdfea164736f6c6343000815000a",
    "linkReferences": {}
  },
  "methodIdentifiers": {
    "acceptOwnership()": "79ba5097",
    "applyPoolUpdates((address,address)[],(address,address)[])": "3a87ac53",
    "ccipReceive((bytes32,uint64,bytes,bytes,(address,uint256)[]))": "85572ffb",
    "currentRateLimiterState()": "546719cd",
    "executeSingleMessage((uint64,address,address,uint64,uint256,bool,uint64,address,uint256,bytes,(address,uint256)[],bytes[],bytes32),bytes[])": "f52121a5",
    "getDestinationToken(address)": "b4069b31",
    "getDestinationTokens()": "681fba16",
    "getDynamicConfig()": "7437ff9f",
    "getExecutionState(uint64)": "142a98fc",
    "getPoolByDestToken(address)": "d7e2bb50",
    "getPoolBySourceToken(address)": "5d86f141",
    "getSenderNonce(address)": "856c8247",
    "getStaticConfig()": "06285c69",
    "getSupportedTokens()": "d3c7c2c7",
    "getTokenLimitAdmin()": "599f6431",
    "getTransmitters()": "666cab8d",
    "latestConfigDetails()": "81ff7048",
    "latestConfigDigestAndEpoch()": "afcb95d7",
    "manuallyExecute(((uint64,address,address,uint64,uint256,bool,uint64,address,uint256,bytes,(address,uint256)[],bytes[],bytes32)[],bytes[][],bytes32[],uint256),uint256[])": "740f4150",
    "owner()": "8da5cb5b",
    "setAdmin(address)": "704b6c02",
    "setOCR2Config(address[],address[],uint8,bytes,uint64,bytes)": "1ef38174",
    "setRateLimiterConfig((bool,uint128,uint128))": "c92b2832",
    "transferOwnership(address)": "f2fde38b",
    "transmit(bytes32[3],bytes,bytes32[],bytes32[],bytes32)": "b1dc65a4",
    "typeAndVersion()": "181f5a77"
  },
  "id": 130
}