{
  "abi": [
    {
      "inputs": [
        {
          "internalType": "address",
          "name": "router",
          "type": "address"
        }
      ],
      "stateMutability": "nonpayable",
      "type": "constructor"
    },
    {
      "inputs": [],
      "name": "EmptyArgs",
      "type": "error"
    },
    {
      "inputs": [],
      "name": "EmptySecrets",
      "type": "error"
    },
    {
      "inputs": [],
      "name": "EmptySource",
      "type": "error"
    },
    {
      "inputs": [],
      "name": "NoInlineSecrets",
      "type": "error"
    },
    {
      "inputs": [],
      "name": "OnlyRouterCanFulfill",
      "type": "error"
    },
    {
      "anonymous": false,
      "inputs": [
        {
          "indexed": true,
          "internalType": "address",
          "name": "from",
          "type": "address"
        },
        {
          "indexed": true,
          "internalType": "address",
          "name": "to",
          "type": "address"
        }
      ],
      "name": "OwnershipTransferRequested",
      "type": "event"
    },
    {
      "anonymous": false,
      "inputs": [
        {
          "indexed": true,
          "internalType": "address",
          "name": "from",
          "type": "address"
        },
        {
          "indexed": true,
          "internalType": "address",
          "name": "to",
          "type": "address"
        }
      ],
      "name": "OwnershipTransferred",
      "type": "event"
    },
    {
      "anonymous": false,
      "inputs": [
        {
          "indexed": true,
          "internalType": "bytes32",
          "name": "id",
          "type": "bytes32"
        }
      ],
      "name": "RequestFulfilled",
      "type": "event"
    },
    {
      "anonymous": false,
      "inputs": [
        {
          "indexed": true,
          "internalType": "bytes32",
          "name": "id",
          "type": "bytes32"
        }
      ],
      "name": "RequestSent",
      "type": "event"
    },
    {
      "anonymous": false,
      "inputs": [
        {
          "indexed": true,
          "internalType": "bytes32",
          "name": "requestId",
          "type": "bytes32"
        },
        {
          "indexed": false,
          "internalType": "bytes",
          "name": "result",
          "type": "bytes"
        },
        {
          "indexed": false,
          "internalType": "bytes",
          "name": "err",
          "type": "bytes"
        }
      ],
      "name": "ResponseReceived",
      "type": "event"
    },
    {
      "inputs": [],
      "name": "acceptOwnership",
      "outputs": [],
      "stateMutability": "nonpayable",
      "type": "function"
    },
    {
      "inputs": [
        {
          "internalType": "bytes32",
          "name": "requestId",
          "type": "bytes32"
        },
        {
          "internalType": "bytes",
          "name": "response",
          "type": "bytes"
        },
        {
          "internalType": "bytes",
          "name": "err",
          "type": "bytes"
        }
      ],
      "name": "handleOracleFulfillment",
      "outputs": [],
      "stateMutability": "nonpayable",
      "type": "function"
    },
    {
      "inputs": [],
      "name": "owner",
      "outputs": [
        {
          "internalType": "address",
          "name": "",
          "type": "address"
        }
      ],
      "stateMutability": "view",
      "type": "function"
    },
    {
      "inputs": [
        {
          "internalType": "bytes32",
          "name": "donId",
          "type": "bytes32"
        },
        {
          "internalType": "string",
          "name": "source",
          "type": "string"
        },
        {
          "internalType": "bytes",
          "name": "secrets",
          "type": "bytes"
        },
        {
          "internalType": "string[]",
          "name": "args",
          "type": "string[]"
        },
        {
          "internalType": "bytes[]",
          "name": "bytesArgs",
          "type": "bytes[]"
        },
        {
          "internalType": "uint64",
          "name": "subscriptionId",
          "type": "uint64"
        },
        {
          "internalType": "uint32",
          "name": "callbackGasLimit",
          "type": "uint32"
        }
      ],
      "name": "sendRequest",
      "outputs": [
        {
          "internalType": "bytes32",
          "name": "",
          "type": "bytes32"
        }
      ],
      "stateMutability": "nonpayable",
      "type": "function"
    },
    {
      "inputs": [
        {
          "internalType": "bytes32",
          "name": "donId",
          "type": "bytes32"
        },
        {
          "internalType": "string",
          "name": "source",
          "type": "string"
        },
        {
          "internalType": "bytes",
          "name": "secrets",
          "type": "bytes"
        },
        {
          "internalType": "string[]",
          "name": "args",
          "type": "string[]"
        },
        {
          "internalType": "bytes[]",
          "name": "bytesArgs",
          "type": "bytes[]"
        },
        {
          "internalType": "uint64",
          "name": "subscriptionId",
          "type": "uint64"
        },
        {
          "internalType": "uint32",
          "name": "callbackGasLimit",
          "type": "uint32"
        }
      ],
      "name": "sendRequestToProposed",
      "outputs": [
        {
          "internalType": "bytes32",
          "name": "",
          "type": "bytes32"
        }
      ],
      "stateMutability": "nonpayable",
      "type": "function"
    },
    {
      "inputs": [
        {
          "internalType": "bytes32",
          "name": "donId",
          "type": "bytes32"
        },
        {
          "internalType": "string",
          "name": "source",
          "type": "string"
        },
        {
          "internalType": "uint8",
          "name": "slotId",
          "type": "uint8"
        },
        {
          "internalType": "uint64",
          "name": "slotVersion",
          "type": "uint64"
        },
        {
          "internalType": "string[]",
          "name": "args",
          "type": "string[]"
        },
        {
          "internalType": "uint64",
          "name": "subscriptionId",
          "type": "uint64"
        },
        {
          "internalType": "uint32",
          "name": "callbackGasLimit",
          "type": "uint32"
        }
      ],
      "name": "sendRequestToProposedWithDONHostedSecrets",
      "outputs": [
        {
          "internalType": "bytes32",
          "name": "",
          "type": "bytes32"
        }
      ],
      "stateMutability": "nonpayable",
      "type": "function"
    },
    {
      "inputs": [
        {
          "internalType": "bytes32",
          "name": "donId",
          "type": "bytes32"
        },
        {
          "internalType": "string",
          "name": "source",
          "type": "string"
        },
        {
          "internalType": "uint8",
          "name": "slotId",
          "type": "uint8"
        },
        {
          "internalType": "uint64",
          "name": "slotVersion",
          "type": "uint64"
        },
        {
          "internalType": "string[]",
          "name": "args",
          "type": "string[]"
        },
        {
          "internalType": "uint64",
          "name": "subscriptionId",
          "type": "uint64"
        },
        {
          "internalType": "uint32",
          "name": "callbackGasLimit",
          "type": "uint32"
        }
      ],
      "name": "sendRequestWithDONHostedSecrets",
      "outputs": [
        {
          "internalType": "bytes32",
          "name": "",
          "type": "bytes32"
        }
      ],
      "stateMutability": "nonpayable",
      "type": "function"
    },
    {
      "inputs": [
        {
          "internalType": "address",
          "name": "to",
          "type": "address"
        }
      ],
      "name": "transferOwnership",
      "outputs": [],
      "stateMutability": "nonpayable",
      "type": "function"
    }
  ],
  "bytecode": {
    "object": "0x60a06040523480156200001157600080fd5b5060405162001efa38038062001efa833981016040819052620000349162000180565b6001600160a01b0381166080523380600081620000985760405162461bcd60e51b815260206004820152601860248201527f43616e6e6f7420736574206f776e657220746f207a65726f000000000000000060448201526064015b60405180910390fd5b600080546001600160a01b0319166001600160a01b0384811691909117909155811615620000cb57620000cb81620000d5565b50505050620001b2565b336001600160a01b038216036200012f5760405162461bcd60e51b815260206004820152601760248201527f43616e6e6f74207472616e7366657220746f2073656c6600000000000000000060448201526064016200008f565b600180546001600160a01b0319166001600160a01b0383811691821790925560008054604051929316917fed8889f560326eb138920d842192f0eb3dd22b4f139c87a2c57538e05bae12789190a350565b6000602082840312156200019357600080fd5b81516001600160a01b0381168114620001ab57600080fd5b9392505050565b608051611d1e620001dc6000396000818161015c01528181610be90152610cc80152611d1e6000f3fe608060405234801561001057600080fd5b50600436106100885760003560e01c8063eacee61e1161005b578063eacee61e146100f8578063eb269c691461010b578063ee0b5bee1461011e578063f2fde38b1461013157600080fd5b80630ca761751461008d57806379ba5097146100a25780638da5cb5b146100aa578063ad59bd3e146100d7575b600080fd5b6100a061009b366004611567565b610144565b005b6100a06101ee565b60005460405173ffffffffffffffffffffffffffffffffffffffff90911681526020015b60405180910390f35b6100ea6100e5366004611747565b6102f0565b6040519081526020016100ce565b6100ea610106366004611747565b610414565b6100ea61011936600461182f565b610521565b6100ea61012c36600461182f565b6105ef565b6100a061013f3660046118f5565b6106ae565b3373ffffffffffffffffffffffffffffffffffffffff7f000000000000000000000000000000000000000000000000000000000000000016146101b3576040517fc6829f8300000000000000000000000000000000000000000000000000000000815260040160405180910390fd5b6101be8383836106c2565b60405183907f85e1543bf2f84fe80c6badbce3648c8539ad1df4d2b3d822938ca0538be727e690600090a2505050565b60015473ffffffffffffffffffffffffffffffffffffffff163314610274576040517f08c379a000000000000000000000000000000000000000000000000000000000815260206004820152601660248201527f4d7573742062652070726f706f736564206f776e65720000000000000000000060448201526064015b60405180910390fd5b60008054337fffffffffffffffffffffffff00000000000000000000000000000000000000008083168217845560018054909116905560405173ffffffffffffffffffffffffffffffffffffffff90921692909183917f8be0079c531659141344cd1fd0a4f28419497f9722a3daafe3b4186f6b6457e091a350565b60006102fa610701565b61033b6040805160e0810190915280600081526020016000815260200160008152602001606081526020016060815260200160608152602001606081525090565b61037d8b8b8080601f01602080910402602001604051908101604052809392919081815260200183838082843760009201919091525085939250506107849050565b87156103c5576103c589898080601f01602080910402602001604051908101604052809392919081815260200183838082843760009201919091525085939250506107959050565b85156103df576103df6103d8878961192b565b82906107df565b8451156103f0576103f08186610822565b6104046103fc82610865565b85858f610be4565b9c9b505050505050505050505050565b600061041e610701565b61045f6040805160e0810190915280600081526020016000815260200160008152602001606081526020016060815260200160608152602001606081525090565b6104a18b8b8080601f01602080910402602001604051908101604052809392919081815260200183838082843760009201919091525085939250506107849050565b87156104e9576104e989898080601f01602080910402602001604051908101604052809392919081815260200183838082843760009201919091525085939250506107959050565b85156104fc576104fc6103d8878961192b565b84511561050d5761050d8186610822565b61040461051982610865565b85858f610cc3565b600061052b610701565b61056c6040805160e0810190915280600081526020016000815260200160008152602001606081526020016060815260200160608152602001606081525090565b6105ae8a8a8080601f01602080910402602001604051908101604052809392919081815260200183838082843760009201919091525085939250506107849050565b6105b9818989610d28565b84156105cc576105cc6103d8868861192b565b6105e06105d882610865565b85858e610be4565b9b9a5050505050505050505050565b60006105f9610701565b61063a6040805160e0810190915280600081526020016000815260200160008152602001606081526020016060815260200160608152602001606081525090565b61067c8a8a8080601f01602080910402602001604051908101604052809392919081815260200183838082843760009201919091525085939250506107849050565b610687818989610d28565b841561069a5761069a6103d8868861192b565b6105e06106a682610865565b85858e610cc3565b6106b6610701565b6106bf81610deb565b50565b827f9075ab953f4b4f161e64109ef0a89af6572e9dae864980dd1f697f83da7f78c283836040516106f4929190611a17565b60405180910390a2505050565b60005473ffffffffffffffffffffffffffffffffffffffff163314610782576040517f08c379a000000000000000000000000000000000000000000000000000000000815260206004820152601660248201527f4f6e6c792063616c6c61626c65206279206f776e657200000000000000000000604482015260640161026b565b565b6107918260008084610ee0565b5050565b80516000036107d0576040517fe889636f00000000000000000000000000000000000000000000000000000000815260040160405180910390fd5b60016020830152608090910152565b805160000361081a576040517ffe936cb700000000000000000000000000000000000000000000000000000000815260040160405180910390fd5b60a090910152565b805160000361085d576040517ffe936cb700000000000000000000000000000000000000000000000000000000815260040160405180910390fd5b60c090910152565b60606000610874610100610f77565b90506108be6040518060400160405280600c81526020017f636f64654c6f636174696f6e000000000000000000000000000000000000000081525082610f9890919063ffffffff16565b82516108dc9060028111156108d5576108d5611a45565b8290610fb6565b60408051808201909152600881527f6c616e6775616765000000000000000000000000000000000000000000000000602082015261091b908290610f98565b60408301516109329080156108d5576108d5611a45565b60408051808201909152600681527f736f7572636500000000000000000000000000000000000000000000000000006020820152610971908290610f98565b6060830151610981908290610f98565b60a08301515115610a2e5760408051808201909152600481527f617267730000000000000000000000000000000000000000000000000000000060208201526109cb908290610f98565b6109d481610fef565b60005b8360a0015151811015610a2457610a148460a0015182815181106109fd576109fd611a74565b602002602001015183610f9890919063ffffffff16565b610a1d81611ad2565b90506109d7565b50610a2e81611013565b60808301515115610b2f57600083602001516002811115610a5157610a51611a45565b03610a88576040517fa80d31f700000000000000000000000000000000000000000000000000000000815260040160405180910390fd5b60408051808201909152600f81527f736563726574734c6f636174696f6e00000000000000000000000000000000006020820152610ac7908290610f98565b610ae0836020015160028111156108d5576108d5611a45565b60408051808201909152600781527f73656372657473000000000000000000000000000000000000000000000000006020820152610b1f908290610f98565b6080830151610b2f908290611031565b60c08301515115610bdc5760408051808201909152600981527f62797465734172677300000000000000000000000000000000000000000000006020820152610b79908290610f98565b610b8281610fef565b60005b8360c0015151811015610bd257610bc28460c001518281518110610bab57610bab611a74565b60200260200101518361103190919063ffffffff16565b610bcb81611ad2565b9050610b85565b50610bdc81611013565b515192915050565b6000807f000000000000000000000000000000000000000000000000000000000000000073ffffffffffffffffffffffffffffffffffffffff1663461d27628688600188886040518663ffffffff1660e01b8152600401610c49959493929190611b0a565b6020604051808303816000875af1158015610c68573d6000803e3d6000fd5b505050506040513d601f19601f82011682018060405250810190610c8c9190611b54565b60405190915081907f1131472297a800fee664d1d89cfa8f7676ff07189ecc53f80bbb5f4969099db890600090a295945050505050565b6000807f000000000000000000000000000000000000000000000000000000000000000073ffffffffffffffffffffffffffffffffffffffff166341db4ca38688600188886040518663ffffffff1660e01b8152600401610c49959493929190611b0a565b6000610d35610100610f77565b9050610d7f6040518060400160405280600681526020017f736c6f744944000000000000000000000000000000000000000000000000000081525082610f9890919063ffffffff16565b610d8c8160ff851661103e565b60408051808201909152600781527f76657273696f6e000000000000000000000000000000000000000000000000006020820152610dcb908290610f98565b610dd5818361103e565b6002602085015251516080909301929092525050565b3373ffffffffffffffffffffffffffffffffffffffff821603610e6a576040517f08c379a000000000000000000000000000000000000000000000000000000000815260206004820152601760248201527f43616e6e6f74207472616e7366657220746f2073656c66000000000000000000604482015260640161026b565b600180547fffffffffffffffffffffffff00000000000000000000000000000000000000001673ffffffffffffffffffffffffffffffffffffffff83811691821790925560008054604051929316917fed8889f560326eb138920d842192f0eb3dd22b4f139c87a2c57538e05bae12789190a350565b8051600003610f1b576040517f22ce3edd00000000000000000000000000000000000000000000000000000000815260040160405180910390fd5b83836002811115610f2e57610f2e611a45565b90816002811115610f4157610f41611a45565b90525060408401828015610f5757610f57611a45565b90818015610f6757610f67611a45565b9052506060909301929092525050565b610f7f61141e565b8051610f8b908361104a565b5060006020820152919050565b610fa582600383516110c4565b8151610fb190826111eb565b505050565b8151610fc39060c2611213565b506107918282604051602001610fdb91815260200190565b604051602081830303815290604052611031565b610ffa81600461127c565b60018160200181815161100d9190611b6d565b90525050565b61101e81600761127c565b60018160200181815161100d9190611b80565b610fa582600283516110c4565b610791826000836110c4565b60408051808201909152606081526000602082015261106a602083611b93565b156110925761107a602083611b93565b611085906020611b80565b61108f9083611b6d565b91505b6020808401839052604051808552600081529081840101818110156110b657600080fd5b604052508290505b92915050565b60178167ffffffffffffffff16116110f15782516110eb9060e0600585901b168317611213565b50505050565b60ff8167ffffffffffffffff161161113357825161111a906018611fe0600586901b1617611213565b5082516110eb9067ffffffffffffffff83166001611293565b61ffff8167ffffffffffffffff161161117657825161115d906019611fe0600586901b1617611213565b5082516110eb9067ffffffffffffffff83166002611293565b63ffffffff8167ffffffffffffffff16116111bb5782516111a290601a611fe0600586901b1617611213565b5082516110eb9067ffffffffffffffff83166004611293565b82516111d290601b611fe0600586901b1617611213565b5082516110eb9067ffffffffffffffff83166008611293565b60408051808201909152606081526000602082015261120c83838451611318565b9392505050565b6040805180820190915260608152600060208201528251516000611238826001611b6d565b9050846020015182106112595761125985611254836002611bce565b611407565b8451602083820101858153508051821115611272578181525b5093949350505050565b8151610fb190601f611fe0600585901b1617611213565b60408051808201909152606081526000602082015283515160006112b78285611b6d565b905085602001518111156112d4576112d486611254836002611bce565b600060016112e486610100611d05565b6112ee9190611b80565b9050865182810187831982511617815250805183111561130c578281525b50959695505050505050565b604080518082019091526060815260006020820152825182111561133b57600080fd5b835151600061134a8483611b6d565b905085602001518111156113675761136786611254836002611bce565b855180518382016020019160009180851115611381578482525b505050602086015b602086106113c157805182526113a0602083611b6d565b91506113ad602082611b6d565b90506113ba602087611b80565b9550611389565b5181517fffffffffffffffffffffffffffffffffffffffffffffffffffffffffffffffff60208890036101000a0190811690199190911617905250849150509392505050565b8151611413838361104a565b506110eb83826111eb565b6040518060400160405280611446604051806040016040528060608152602001600081525090565b8152602001600081525090565b7f4e487b7100000000000000000000000000000000000000000000000000000000600052604160045260246000fd5b604051601f82017fffffffffffffffffffffffffffffffffffffffffffffffffffffffffffffffe016810167ffffffffffffffff811182821017156114c9576114c9611453565b604052919050565b600067ffffffffffffffff8311156114eb576114eb611453565b61151c60207fffffffffffffffffffffffffffffffffffffffffffffffffffffffffffffffe0601f86011601611482565b905082815283838301111561153057600080fd5b828260208301376000602084830101529392505050565b600082601f83011261155857600080fd5b61120c838335602085016114d1565b60008060006060848603121561157c57600080fd5b83359250602084013567ffffffffffffffff8082111561159b57600080fd5b6115a787838801611547565b935060408601359150808211156115bd57600080fd5b506115ca86828701611547565b9150509250925092565b60008083601f8401126115e657600080fd5b50813567ffffffffffffffff8111156115fe57600080fd5b60208301915083602082850101111561161657600080fd5b9250929050565b60008083601f84011261162f57600080fd5b50813567ffffffffffffffff81111561164757600080fd5b6020830191508360208260051b850101111561161657600080fd5b600067ffffffffffffffff82111561167c5761167c611453565b5060051b60200190565b600082601f83011261169757600080fd5b813560206116ac6116a783611662565b611482565b82815260059290921b840181019181810190868411156116cb57600080fd5b8286015b8481101561170b57803567ffffffffffffffff8111156116ef5760008081fd5b6116fd8986838b0101611547565b8452509183019183016116cf565b509695505050505050565b803567ffffffffffffffff8116811461172e57600080fd5b919050565b803563ffffffff8116811461172e57600080fd5b60008060008060008060008060008060e08b8d03121561176657600080fd5b8a35995060208b013567ffffffffffffffff8082111561178557600080fd5b6117918e838f016115d4565b909b50995060408d01359150808211156117aa57600080fd5b6117b68e838f016115d4565b909950975060608d01359150808211156117cf57600080fd5b6117db8e838f0161161d565b909750955060808d01359150808211156117f457600080fd5b506118018d828e01611686565b93505061181060a08c01611716565b915061181e60c08c01611733565b90509295989b9194979a5092959850565b600080600080600080600080600060e08a8c03121561184d57600080fd5b8935985060208a013567ffffffffffffffff8082111561186c57600080fd5b6118788d838e016115d4565b909a50985060408c0135915060ff8216821461189357600080fd5b8197506118a260608d01611716565b965060808c01359150808211156118b857600080fd5b506118c58c828d0161161d565b90955093506118d8905060a08b01611716565b91506118e660c08b01611733565b90509295985092959850929598565b60006020828403121561190757600080fd5b813573ffffffffffffffffffffffffffffffffffffffff8116811461120c57600080fd5b60006119396116a784611662565b80848252602080830192508560051b85013681111561195757600080fd5b855b818110156119a757803567ffffffffffffffff8111156119795760008081fd5b870136601f82011261198b5760008081fd5b6119993682358684016114d1565b865250938201938201611959565b50919695505050505050565b6000815180845260005b818110156119d9576020818501810151868301820152016119bd565b5060006020828601015260207fffffffffffffffffffffffffffffffffffffffffffffffffffffffffffffffe0601f83011685010191505092915050565b604081526000611a2a60408301856119b3565b8281036020840152611a3c81856119b3565b95945050505050565b7f4e487b7100000000000000000000000000000000000000000000000000000000600052602160045260246000fd5b7f4e487b7100000000000000000000000000000000000000000000000000000000600052603260045260246000fd5b7f4e487b7100000000000000000000000000000000000000000000000000000000600052601160045260246000fd5b60007fffffffffffffffffffffffffffffffffffffffffffffffffffffffffffffffff8203611b0357611b03611aa3565b5060010190565b67ffffffffffffffff8616815260a060208201526000611b2d60a08301876119b3565b61ffff9590951660408301525063ffffffff92909216606083015260809091015292915050565b600060208284031215611b6657600080fd5b5051919050565b808201808211156110be576110be611aa3565b818103818111156110be576110be611aa3565b600082611bc9577f4e487b7100000000000000000000000000000000000000000000000000000000600052601260045260246000fd5b500690565b80820281158282048414176110be576110be611aa3565b600181815b80851115611c3e57817fffffffffffffffffffffffffffffffffffffffffffffffffffffffffffffffff04821115611c2457611c24611aa3565b80851615611c3157918102915b93841c9390800290611bea565b509250929050565b600082611c55575060016110be565b81611c62575060006110be565b8160018114611c785760028114611c8257611c9e565b60019150506110be565b60ff841115611c9357611c93611aa3565b50506001821b6110be565b5060208310610133831016604e8410600b8410161715611cc1575081810a6110be565b611ccb8383611be5565b807fffffffffffffffffffffffffffffffffffffffffffffffffffffffffffffffff04821115611cfd57611cfd611aa3565b029392505050565b600061120c8383611c4656fea164736f6c6343000815000a",
    "linkReferences": {}
  },
  "methodIdentifiers": {
    "acceptOwnership()": "79ba5097",
    "handleOracleFulfillment(bytes32,bytes,bytes)": "0ca76175",
    "owner()": "8da5cb5b",
    "sendRequest(bytes32,string,bytes,string[],bytes[],uint64,uint32)": "ad59bd3e",
    "sendRequestToProposed(bytes32,string,bytes,string[],bytes[],uint64,uint32)": "eacee61e",
    "sendRequestToProposedWithDONHostedSecrets(bytes32,string,uint8,uint64,string[],uint64,uint32)": "ee0b5bee",
    "sendRequestWithDONHostedSecrets(bytes32,string,uint8,uint64,string[],uint64,uint32)": "eb269c69",
    "transferOwnership(address)": "f2fde38b"
  },
  "id": 214
}