{
  "abi": [
    {
      "inputs": [],
      "name": "EmptyArgs",
      "type": "error"
    },
    {
      "inputs": [],
      "name": "EmptySecrets",
      "type": "error"
    },
    {
      "inputs": [],
      "name": "EmptySource",
      "type": "error"
    },
    {
      "inputs": [],
      "name": "NoInlineSecrets",
      "type": "error"
    },
    {
      "anonymous": false,
      "inputs": [
        {
          "indexed": false,
          "internalType": "bytes",
          "name": "data",
          "type": "bytes"
        }
      ],
      "name": "RequestData",
      "type": "event"
    },
    {
      "inputs": [],
      "name": "addEmptyArgs",
      "outputs": [],
      "stateMutability": "pure",
      "type": "function"
    },
    {
      "inputs": [
        {
          "internalType": "bytes",
          "name": "secrets",
          "type": "bytes"
        }
      ],
      "name": "addSecretsReference",
      "outputs": [],
      "stateMutability": "nonpayable",
      "type": "function"
    },
    {
      "inputs": [
        {
          "internalType": "string",
          "name": "arg1",
          "type": "string"
        },
        {
          "internalType": "string",
          "name": "arg2",
          "type": "string"
        }
      ],
      "name": "addTwoArgs",
      "outputs": [],
      "stateMutability": "nonpayable",
      "type": "function"
    },
    {
      "inputs": [],
      "name": "closeEvent",
      "outputs": [],
      "stateMutability": "nonpayable",
      "type": "function"
    },
    {
      "inputs": [
        {
          "internalType": "string",
          "name": "sourceCode",
          "type": "string"
        }
      ],
      "name": "initializeRequestForInlineJavaScript",
      "outputs": [],
      "stateMutability": "nonpayable",
      "type": "function"
    }
  ],
  "bytecode": {
    "object": "0x608060405234801561001057600080fd5b50611d96806100206000396000f3fe608060405234801561001057600080fd5b50600436106100675760003560e01c80637569d59f116100505780637569d59f14610089578063aa91faaf14610091578063d464442f146100a457600080fd5b806303dc53261461006c578063465bc1ed14610076575b600080fd5b6100746100b7565b005b6100746100843660046118a5565b61046e565b6100746104c6565b61007461009f3660046118e2565b610513565b6100746100b236600461192b565b610898565b6040805160e08101909152600080547f84485ae823e5c366e9581c146349e23f73b2f459d9eee1b9f15f36aac3b3145a92610457929091829060ff1660028111156101045761010461198f565b60028111156101155761011561198f565b81528154602090910190610100900460ff1660028111156101385761013861198f565b60028111156101495761014961198f565b8152815460209091019062010000900460ff16801561016a5761016a61198f565b80156101785761017861198f565b815260200160018201805461018c906119be565b80601f01602080910402602001604051908101604052809291908181526020018280546101b8906119be565b80156102055780601f106101da57610100808354040283529160200191610205565b820191906000526020600020905b8154815290600101906020018083116101e857829003601f168201915b5050505050815260200160028201805461021e906119be565b80601f016020809104026020016040519081016040528092919081815260200182805461024a906119be565b80156102975780601f1061026c57610100808354040283529160200191610297565b820191906000526020600020905b81548152906001019060200180831161027a57829003601f168201915b5050505050815260200160038201805480602002602001604051908101604052809291908181526020016000905b828210156103715783829060005260206000200180546102e4906119be565b80601f0160208091040260200160405190810160405280929190818152602001828054610310906119be565b801561035d5780601f106103325761010080835404028352916020019161035d565b820191906000526020600020905b81548152906001019060200180831161034057829003601f168201915b5050505050815260200190600101906102c5565b50505050815260200160048201805480602002602001604051908101604052809291908181526020016000905b8282101561044a5783829060005260206000200180546103bd906119be565b80601f01602080910402602001604051908101604052809291908181526020018280546103e9906119be565b80156104365780601f1061040b57610100808354040283529160200191610436565b820191906000526020600020905b81548152906001019060200180831161041957829003601f168201915b50505050508152602001906001019061039e565b5050505081525050610c99565b6040516104649190611a11565b60405180910390a1565b6104af6040805160e0810190915280600081526020016000815260200160008152602001606081526020016060815260200160608152602001606081525090565b6104b98183611018565b6104c281611025565b5050565b6105076040805160e0810190915280600081526020016000815260200160008152602001606081526020016060815260200160608152602001606081525090565b60606104c2828261112d565b6040805160e08101909152600080549091908290829060ff16600281111561053d5761053d61198f565b600281111561054e5761054e61198f565b81528154602090910190610100900460ff1660028111156105715761057161198f565b60028111156105825761058261198f565b8152815460209091019062010000900460ff1680156105a3576105a361198f565b80156105b1576105b161198f565b81526020016001820180546105c5906119be565b80601f01602080910402602001604051908101604052809291908181526020018280546105f1906119be565b801561063e5780601f106106135761010080835404028352916020019161063e565b820191906000526020600020905b81548152906001019060200180831161062157829003601f168201915b50505050508152602001600282018054610657906119be565b80601f0160208091040260200160405190810160405280929190818152602001828054610683906119be565b80156106d05780601f106106a5576101008083540402835291602001916106d0565b820191906000526020600020905b8154815290600101906020018083116106b357829003601f168201915b5050505050815260200160038201805480602002602001604051908101604052809291908181526020016000905b828210156107aa57838290600052602060002001805461071d906119be565b80601f0160208091040260200160405190810160405280929190818152602001828054610749906119be565b80156107965780601f1061076b57610100808354040283529160200191610796565b820191906000526020600020905b81548152906001019060200180831161077957829003601f168201915b5050505050815260200190600101906106fe565b50505050815260200160048201805480602002602001604051908101604052809291908181526020016000905b828210156108835783829060005260206000200180546107f6906119be565b80601f0160208091040260200160405190810160405280929190818152602001828054610822906119be565b801561086f5780601f106108445761010080835404028352916020019161086f565b820191906000526020600020905b81548152906001019060200180831161085257829003601f168201915b5050505050815260200190600101906107d7565b5050509152509091506104b990508183611170565b60408051600280825260608201909252600091816020015b60608152602001906001900390816108b057905050905082816000815181106108db576108db611a7d565b602002602001018190525081816001815181106108fa576108fa611a7d565b60209081029190910101526040805160e08101909152600080549091908290829060ff16600281111561092f5761092f61198f565b60028111156109405761094061198f565b81528154602090910190610100900460ff1660028111156109635761096361198f565b60028111156109745761097461198f565b8152815460209091019062010000900460ff1680156109955761099561198f565b80156109a3576109a361198f565b81526020016001820180546109b7906119be565b80601f01602080910402602001604051908101604052809291908181526020018280546109e3906119be565b8015610a305780601f10610a0557610100808354040283529160200191610a30565b820191906000526020600020905b815481529060010190602001808311610a1357829003601f168201915b50505050508152602001600282018054610a49906119be565b80601f0160208091040260200160405190810160405280929190818152602001828054610a75906119be565b8015610ac25780601f10610a9757610100808354040283529160200191610ac2565b820191906000526020600020905b815481529060010190602001808311610aa557829003601f168201915b5050505050815260200160038201805480602002602001604051908101604052809291908181526020016000905b82821015610b9c578382906000526020600020018054610b0f906119be565b80601f0160208091040260200160405190810160405280929190818152602001828054610b3b906119be565b8015610b885780601f10610b5d57610100808354040283529160200191610b88565b820191906000526020600020905b815481529060010190602001808311610b6b57829003601f168201915b505050505081526020019060010190610af0565b50505050815260200160048201805480602002602001604051908101604052809291908181526020016000905b82821015610c75578382906000526020600020018054610be8906119be565b80601f0160208091040260200160405190810160405280929190818152602001828054610c14906119be565b8015610c615780601f10610c3657610100808354040283529160200191610c61565b820191906000526020600020905b815481529060010190602001808311610c4457829003601f168201915b505050505081526020019060010190610bc9565b505050915250909150610c8a9050818361112d565b610c9381611025565b50505050565b60606000610ca86101006111ba565b9050610cf26040518060400160405280600c81526020017f636f64654c6f636174696f6e0000000000000000000000000000000000000000815250826111db90919063ffffffff16565b8251610d10906002811115610d0957610d0961198f565b82906111f9565b60408051808201909152600881527f6c616e67756167650000000000000000000000000000000000000000000000006020820152610d4f9082906111db565b6040830151610d66908015610d0957610d0961198f565b60408051808201909152600681527f736f7572636500000000000000000000000000000000000000000000000000006020820152610da59082906111db565b6060830151610db59082906111db565b60a08301515115610e625760408051808201909152600481527f61726773000000000000000000000000000000000000000000000000000000006020820152610dff9082906111db565b610e0881611232565b60005b8360a0015151811015610e5857610e488460a001518281518110610e3157610e31611a7d565b6020026020010151836111db90919063ffffffff16565b610e5181611adb565b9050610e0b565b50610e6281611256565b60808301515115610f6357600083602001516002811115610e8557610e8561198f565b03610ebc576040517fa80d31f700000000000000000000000000000000000000000000000000000000815260040160405180910390fd5b60408051808201909152600f81527f736563726574734c6f636174696f6e00000000000000000000000000000000006020820152610efb9082906111db565b610f1483602001516002811115610d0957610d0961198f565b60408051808201909152600781527f73656372657473000000000000000000000000000000000000000000000000006020820152610f539082906111db565b6080830151610f63908290611274565b60c083015151156110105760408051808201909152600981527f62797465734172677300000000000000000000000000000000000000000000006020820152610fad9082906111db565b610fb681611232565b60005b8360c001515181101561100657610ff68460c001518281518110610fdf57610fdf611a7d565b60200260200101518361127490919063ffffffff16565b610fff81611adb565b9050610fb9565b5061101081611256565b515192915050565b6104c28260008084611281565b8051600080547fffffffffffffffffffffffffffffffffffffffffffffffffffffffffffffff001660018360028111156110615761106161198f565b02179055506040810151600080547fffffffffffffffffffffffffffffffffffffffffffffffffffffffffff00ffff16620100008380156110a4576110a461198f565b021790555060608101516001906110bb9082611b43565b5060a081015180516110d5916003916020909101906116c8565b506020810151600080547fffffffffffffffffffffffffffffffffffffffffffffffffffffffffffff00ff166101008360028111156111165761111661198f565b021790555060808101516002906104c29082611b43565b8051600003611168576040517ffe936cb700000000000000000000000000000000000000000000000000000000815260040160405180910390fd5b60a090910152565b80516000036111ab576040517fe889636f00000000000000000000000000000000000000000000000000000000815260040160405180910390fd5b60016020830152608090910152565b6111c261171e565b80516111ce9083611318565b5060006020820152919050565b6111e88260038351611392565b81516111f490826114b3565b505050565b81516112069060c26114db565b506104c2828260405160200161121e91815260200190565b604051602081830303815290604052611274565b61123d816004611544565b6001816020018181516112509190611c21565b90525050565b611261816007611544565b6001816020018181516112509190611c34565b6111e88260028351611392565b80516000036112bc576040517f22ce3edd00000000000000000000000000000000000000000000000000000000815260040160405180910390fd5b838360028111156112cf576112cf61198f565b908160028111156112e2576112e261198f565b905250604084018280156112f8576112f861198f565b908180156113085761130861198f565b9052506060909301929092525050565b604080518082019091526060815260006020820152611338602083611c47565b1561136057611348602083611c47565b611353906020611c34565b61135d9083611c21565b91505b60208084018390526040518085526000815290818401018181101561138457600080fd5b604052508290505b92915050565b60178167ffffffffffffffff16116113b9578251610c939060e0600585901b1683176114db565b60ff8167ffffffffffffffff16116113fb5782516113e2906018611fe0600586901b16176114db565b508251610c939067ffffffffffffffff8316600161155b565b61ffff8167ffffffffffffffff161161143e578251611425906019611fe0600586901b16176114db565b508251610c939067ffffffffffffffff8316600261155b565b63ffffffff8167ffffffffffffffff161161148357825161146a90601a611fe0600586901b16176114db565b508251610c939067ffffffffffffffff8316600461155b565b825161149a90601b611fe0600586901b16176114db565b508251610c939067ffffffffffffffff8316600861155b565b6040805180820190915260608152600060208201526114d4838384516115e0565b9392505050565b6040805180820190915260608152600060208201528251516000611500826001611c21565b905084602001518210611521576115218561151c836002611c82565b6116b1565b845160208382010185815350805182111561153a578181525b5093949350505050565b81516111f490601f611fe0600585901b16176114db565b604080518082019091526060815260006020820152835151600061157f8285611c21565b9050856020015181111561159c5761159c8661151c836002611c82565b600060016115ac86610100611d7d565b6115b69190611c34565b905086518281018783198251161781525080518311156115d4578281525b50959695505050505050565b604080518082019091526060815260006020820152825182111561160357600080fd5b83515160006116128483611c21565b9050856020015181111561162f5761162f8661151c836002611c82565b855180518382016020019160009180851115611649578482525b505050602086015b602086106116895780518252611668602083611c21565b9150611675602082611c21565b9050611682602087611c34565b9550611651565b51815160001960208890036101000a0190811690199190911617905250849150509392505050565b81516116bd8383611318565b50610c9383826114b3565b82805482825590600052602060002090810192821561170e579160200282015b8281111561170e57825182906116fe9082611b43565b50916020019190600101906116e8565b5061171a929150611753565b5090565b6040518060400160405280611746604051806040016040528060608152602001600081525090565b8152602001600081525090565b8082111561171a5760006117678282611770565b50600101611753565b50805461177c906119be565b6000825580601f1061178c575050565b601f0160209004906000526020600020908101906117aa91906117ad565b50565b5b8082111561171a57600081556001016117ae565b7f4e487b7100000000000000000000000000000000000000000000000000000000600052604160045260246000fd5b600067ffffffffffffffff8084111561180c5761180c6117c2565b604051601f85017fffffffffffffffffffffffffffffffffffffffffffffffffffffffffffffffe0908116603f01168101908282118183101715611852576118526117c2565b8160405280935085815286868601111561186b57600080fd5b858560208301376000602087830101525050509392505050565b600082601f83011261189657600080fd5b6114d4838335602085016117f1565b6000602082840312156118b757600080fd5b813567ffffffffffffffff8111156118ce57600080fd5b6118da84828501611885565b949350505050565b6000602082840312156118f457600080fd5b813567ffffffffffffffff81111561190b57600080fd5b8201601f8101841361191c57600080fd5b6118da848235602084016117f1565b6000806040838503121561193e57600080fd5b823567ffffffffffffffff8082111561195657600080fd5b61196286838701611885565b9350602085013591508082111561197857600080fd5b5061198585828601611885565b9150509250929050565b7f4e487b7100000000000000000000000000000000000000000000000000000000600052602160045260246000fd5b600181811c908216806119d257607f821691505b602082108103611a0b577f4e487b7100000000000000000000000000000000000000000000000000000000600052602260045260246000fd5b50919050565b600060208083528351808285015260005b81811015611a3e57858101830151858201604001528201611a22565b5060006040828601015260407fffffffffffffffffffffffffffffffffffffffffffffffffffffffffffffffe0601f8301168501019250505092915050565b7f4e487b7100000000000000000000000000000000000000000000000000000000600052603260045260246000fd5b7f4e487b7100000000000000000000000000000000000000000000000000000000600052601160045260246000fd5b60006000198203611aee57611aee611aac565b5060010190565b601f8211156111f457600081815260208120601f850160051c81016020861015611b1c5750805b601f850160051c820191505b81811015611b3b57828155600101611b28565b505050505050565b815167ffffffffffffffff811115611b5d57611b5d6117c2565b611b7181611b6b84546119be565b84611af5565b602080601f831160018114611ba65760008415611b8e5750858301515b600019600386901b1c1916600185901b178555611b3b565b6000858152602081207fffffffffffffffffffffffffffffffffffffffffffffffffffffffffffffffe08616915b82811015611bf357888601518255948401946001909101908401611bd4565b5085821015611c115787850151600019600388901b60f8161c191681555b5050505050600190811b01905550565b8082018082111561138c5761138c611aac565b8181038181111561138c5761138c611aac565b600082611c7d577f4e487b7100000000000000000000000000000000000000000000000000000000600052601260045260246000fd5b500690565b808202811582820484141761138c5761138c611aac565b600181815b80851115611cd4578160001904821115611cba57611cba611aac565b80851615611cc757918102915b93841c9390800290611c9e565b509250929050565b600082611ceb5750600161138c565b81611cf85750600061138c565b8160018114611d0e5760028114611d1857611d34565b600191505061138c565b60ff841115611d2957611d29611aac565b50506001821b61138c565b5060208310610133831016604e8410600b8410161715611d57575081810a61138c565b611d618383611c99565b8060001904821115611d7557611d75611aac565b029392505050565b60006114d48383611cdc56fea164736f6c6343000815000a",
    "linkReferences": {}
  },
  "methodIdentifiers": {
    "addEmptyArgs()": "7569d59f",
    "addSecretsReference(bytes)": "aa91faaf",
    "addTwoArgs(string,string)": "d464442f",
    "closeEvent()": "03dc5326",
    "initializeRequestForInlineJavaScript(string)": "465bc1ed"
  },
  "id": 218
}