{
  "abi": [
    {
      "inputs": [
        {
          "internalType": "address",
          "name": "oracle",
          "type": "address"
        }
      ],
      "stateMutability": "nonpayable",
      "type": "constructor"
    },
    {
      "inputs": [],
      "name": "EmptySource",
      "type": "error"
    },
    {
      "inputs": [],
      "name": "NoInlineSecrets",
      "type": "error"
    },
    {
      "inputs": [],
      "name": "RequestIsAlreadyPending",
      "type": "error"
    },
    {
      "inputs": [],
      "name": "RequestIsNotPending",
      "type": "error"
    },
    {
      "inputs": [],
      "name": "SenderIsNotRegistry",
      "type": "error"
    },
    {
      "anonymous": false,
      "inputs": [
        {
          "indexed": false,
          "internalType": "bytes32",
          "name": "requestId",
          "type": "bytes32"
        },
        {
          "indexed": false,
          "internalType": "bytes",
          "name": "response",
          "type": "bytes"
        },
        {
          "indexed": false,
          "internalType": "bytes",
          "name": "err",
          "type": "bytes"
        }
      ],
      "name": "FulfillRequestInvoked",
      "type": "event"
    },
    {
      "anonymous": false,
      "inputs": [
        {
          "indexed": true,
          "internalType": "bytes32",
          "name": "id",
          "type": "bytes32"
        }
      ],
      "name": "RequestFulfilled",
      "type": "event"
    },
    {
      "anonymous": false,
      "inputs": [
        {
          "indexed": true,
          "internalType": "bytes32",
          "name": "id",
          "type": "bytes32"
        }
      ],
      "name": "RequestSent",
      "type": "event"
    },
    {
      "anonymous": false,
      "inputs": [
        {
          "indexed": false,
          "internalType": "bytes32",
          "name": "requestId",
          "type": "bytes32"
        },
        {
          "indexed": false,
          "internalType": "string",
          "name": "sourceCode",
          "type": "string"
        },
        {
          "indexed": false,
          "internalType": "uint64",
          "name": "subscriptionId",
          "type": "uint64"
        }
      ],
      "name": "SendRequestInvoked",
      "type": "event"
    },
    {
      "inputs": [
        {
          "components": [
            {
              "internalType": "enum Functions.Location",
              "name": "codeLocation",
              "type": "uint8"
            },
            {
              "internalType": "enum Functions.Location",
              "name": "secretsLocation",
              "type": "uint8"
            },
            {
              "internalType": "enum Functions.CodeLanguage",
              "name": "language",
              "type": "uint8"
            },
            {
              "internalType": "string",
              "name": "source",
              "type": "string"
            },
            {
              "internalType": "bytes",
              "name": "secrets",
              "type": "bytes"
            },
            {
              "internalType": "string[]",
              "name": "args",
              "type": "string[]"
            }
          ],
          "internalType": "struct Functions.Request",
          "name": "req",
          "type": "tuple"
        },
        {
          "internalType": "uint64",
          "name": "subscriptionId",
          "type": "uint64"
        },
        {
          "internalType": "uint32",
          "name": "gasLimit",
          "type": "uint32"
        },
        {
          "internalType": "uint256",
          "name": "gasPrice",
          "type": "uint256"
        }
      ],
      "name": "estimateCost",
      "outputs": [
        {
          "internalType": "uint96",
          "name": "",
          "type": "uint96"
        }
      ],
      "stateMutability": "view",
      "type": "function"
    },
    {
      "inputs": [
        {
          "internalType": "string",
          "name": "sourceCode",
          "type": "string"
        },
        {
          "internalType": "uint64",
          "name": "subscriptionId",
          "type": "uint64"
        },
        {
          "internalType": "uint256",
          "name": "gasCost",
          "type": "uint256"
        }
      ],
      "name": "estimateJuelCost",
      "outputs": [
        {
          "internalType": "uint96",
          "name": "",
          "type": "uint96"
        }
      ],
      "stateMutability": "view",
      "type": "function"
    },
    {
      "inputs": [],
      "name": "getDONPublicKey",
      "outputs": [
        {
          "internalType": "bytes",
          "name": "",
          "type": "bytes"
        }
      ],
      "stateMutability": "view",
      "type": "function"
    },
    {
      "inputs": [
        {
          "internalType": "bytes32",
          "name": "requestId",
          "type": "bytes32"
        },
        {
          "internalType": "bytes",
          "name": "response",
          "type": "bytes"
        },
        {
          "internalType": "bytes",
          "name": "err",
          "type": "bytes"
        }
      ],
      "name": "handleOracleFulfillment",
      "outputs": [],
      "stateMutability": "nonpayable",
      "type": "function"
    },
    {
      "inputs": [
        {
          "internalType": "string",
          "name": "sourceCode",
          "type": "string"
        },
        {
          "internalType": "uint64",
          "name": "subscriptionId",
          "type": "uint64"
        }
      ],
      "name": "sendSimpleRequestWithJavaScript",
      "outputs": [
        {
          "internalType": "bytes32",
          "name": "requestId",
          "type": "bytes32"
        }
      ],
      "stateMutability": "nonpayable",
      "type": "function"
    },
    {
      "inputs": [
        {
          "internalType": "bool",
          "name": "on",
          "type": "bool"
        }
      ],
      "name": "setDoInvalidOperation",
      "outputs": [],
      "stateMutability": "nonpayable",
      "type": "function"
    },
    {
      "inputs": [
        {
          "internalType": "bool",
          "name": "on",
          "type": "bool"
        }
      ],
      "name": "setRevertFulfillRequest",
      "outputs": [],
      "stateMutability": "nonpayable",
      "type": "function"
    }
  ],
  "bytecode": {
    "object": "0x608060405234801561001057600080fd5b5060405161190938038061190983398101604081905261002f91610050565b600080546001600160a01b0319166001600160a01b03831617905550610080565b60006020828403121561006257600080fd5b81516001600160a01b038116811461007957600080fd5b9392505050565b61187a8061008f6000396000f3fe608060405234801561001057600080fd5b506004361061007d5760003560e01c8063b16402aa1161005b578063b16402aa146100fc578063d328a91e1461012c578063d4b3917514610141578063d5d25fb81461015457600080fd5b80630ca761751461008257806364f98e4014610097578063a889e66d146100bd575b600080fd5b61009561009036600461106b565b610199565b005b6100aa6100a53660046110f5565b610264565b6040519081526020015b60405180910390f35b6100956100cb366004611143565b600280547fffffffffffffffffffffffffffffffffffffffffffffffffffffffffffffff0016911515919091179055565b61010f61010a366004611165565b6102fb565b6040516bffffffffffffffffffffffff90911681526020016100b4565b610134610358565b6040516100b4919061122a565b61010f61014f36600461130e565b610412565b610095610162366004611143565b60028054911515610100027fffffffffffffffffffffffffffffffffffffffffffffffffffffffffffff00ff909216919091179055565b600083815260016020526040902054839073ffffffffffffffffffffffffffffffffffffffff1633146101f8576040517fa0c5ec6300000000000000000000000000000000000000000000000000000000815260040160405180910390fd5b60008181526001602052604080822080547fffffffffffffffffffffffff00000000000000000000000000000000000000001690555182917f85e1543bf2f84fe80c6badbce3648c8539ad1df4d2b3d822938ca0538be727e691a261025e84848461049d565b50505050565b60006102a06040805160c08101909152806000815260200160008152602001600081526020016060815260200160608152602001606081525090565b6102aa8185610570565b6102b78184614e20610581565b91507fd122632b5f6ee38b0707e73fd789a5599cb90246aac7e6db79da230cd4396b6b8285856040516102ec93929190611420565b60405180910390a15092915050565b60006103376040805160c08101909152806000815260200160008152602001600081526020016060815260200160608152602001606081525090565b6103418186610570565b61034f8185614e2086610412565b95945050505050565b60008054604080517fd328a91e000000000000000000000000000000000000000000000000000000008152905160609373ffffffffffffffffffffffffffffffffffffffff9093169263d328a91e92600480820193918290030181865afa1580156103c7573d6000803e3d6000fd5b505050506040513d6000823e601f3d9081017fffffffffffffffffffffffffffffffffffffffffffffffffffffffffffffffe016820160405261040d9190810190611453565b905090565b6000805473ffffffffffffffffffffffffffffffffffffffff1663d227d2458561043b88610721565b86866040518563ffffffff1660e01b815260040161045c94939291906114c1565b602060405180830381865afa158015610479573d6000803e3d6000fd5b505050506040513d601f19601f8201168201806040525081019061034f91906114fd565b60025460ff161561050e576040517f08c379a000000000000000000000000000000000000000000000000000000000815260206004820152600f60248201527f61736b656420746f207265766572740000000000000000000000000000000000604482015260640160405180910390fd5b600254610100900460ff1615610530576001600061052c8183611589565b5050505b7f3934503db151627ef423447a0ddd63e58f42289bd4844c6715dbec52234003878383836040516105639392919061159d565b60405180910390a1505050565b61057d82600080846109ec565b5050565b60008054819073ffffffffffffffffffffffffffffffffffffffff166328242b04856105ac88610721565b866040518463ffffffff1660e01b81526004016105cb939291906115d2565b6020604051808303816000875af11580156105ea573d6000803e3d6000fd5b505050506040513d601f19601f8201168201806040525081019061060e919061160b565b905060008054906101000a900473ffffffffffffffffffffffffffffffffffffffff1673ffffffffffffffffffffffffffffffffffffffff16635ab1bd536040518163ffffffff1660e01b8152600401602060405180830381865afa15801561067b573d6000803e3d6000fd5b505050506040513d601f19601f8201168201806040525081019061069f9190611624565b60008281526001602052604080822080547fffffffffffffffffffffffff00000000000000000000000000000000000000001673ffffffffffffffffffffffffffffffffffffffff9490941693909317909255905182917f1131472297a800fee664d1d89cfa8f7676ff07189ecc53f80bbb5f4969099db891a2949350505050565b606061072b610ef3565b805161073990610100610a83565b50610779816040518060400160405280600c81526020017f636f64654c6f636174696f6e0000000000000000000000000000000000000000815250610afd565b61079881846000015160028111156107935761079361165a565b610b1b565b6107d7816040518060400160405280600881526020017f6c616e6775616765000000000000000000000000000000000000000000000000815250610afd565b6107f181846040015160008111156107935761079361165a565b610830816040518060400160405280600681526020017f736f757263650000000000000000000000000000000000000000000000000000815250610afd565b61083e818460600151610afd565b60a083015151156108e457610888816040518060400160405280600481526020017f6172677300000000000000000000000000000000000000000000000000000000815250610afd565b61089181610b54565b60005b8360a00151518110156108da576108c8828560a0015183815181106108bb576108bb611689565b6020026020010151610afd565b806108d2816116b8565b915050610894565b506108e481610b78565b608083015151156109e4576000836020015160028111156109075761090761165a565b0361093e576040517fa80d31f700000000000000000000000000000000000000000000000000000000815260040160405180910390fd5b61097d816040518060400160405280600f81526020017f736563726574734c6f636174696f6e0000000000000000000000000000000000815250610afd565b61099781846020015160028111156107935761079361165a565b6109d6816040518060400160405280600781526020017f7365637265747300000000000000000000000000000000000000000000000000815250610afd565b6109e4818460800151610b96565b515192915050565b8051600003610a27576040517f22ce3edd00000000000000000000000000000000000000000000000000000000815260040160405180910390fd5b83836002811115610a3a57610a3a61165a565b90816002811115610a4d57610a4d61165a565b90525060408401828015610a6357610a6361165a565b90818015610a7357610a7361165a565b9052506060909301929092525050565b604080518082019091526060815260006020820152610aa36020836116f0565b15610acb57610ab36020836116f0565b610abe906020611704565b610ac89083611717565b91505b602080840183905260405180855260008152908184010181811015610aef57600080fd5b604052508290505b92915050565b610b0a8260038351610b9f565b8151610b169082610cc0565b505050565b8151610b289060c2610ce8565b5061057d8282604051602001610b4091815260200190565b604051602081830303815290604052610b96565b610b5f816004610d51565b600181602001818151610b729190611717565b90525050565b610b83816007610d51565b600181602001818151610b729190611704565b610b0a82600283515b60178167ffffffffffffffff1611610bc657825161025e9060e0600585901b168317610ce8565b60ff8167ffffffffffffffff1611610c08578251610bef906018611fe0600586901b1617610ce8565b50825161025e9067ffffffffffffffff83166001610d68565b61ffff8167ffffffffffffffff1611610c4b578251610c32906019611fe0600586901b1617610ce8565b50825161025e9067ffffffffffffffff83166002610d68565b63ffffffff8167ffffffffffffffff1611610c90578251610c7790601a611fe0600586901b1617610ce8565b50825161025e9067ffffffffffffffff83166004610d68565b8251610ca790601b611fe0600586901b1617610ce8565b50825161025e9067ffffffffffffffff83166008610d68565b604080518082019091526060815260006020820152610ce183838451610ded565b9392505050565b6040805180820190915260608152600060208201528251516000610d0d826001611717565b905084602001518210610d2e57610d2e85610d2983600261172a565b610edc565b8451602083820101858153508051821115610d47578181525b5093949350505050565b8151610b1690601f611fe0600585901b1617610ce8565b6040805180820190915260608152600060208201528351516000610d8c8285611717565b90508560200151811115610da957610da986610d2983600261172a565b60006001610db986610100611861565b610dc39190611704565b90508651828101878319825116178152508051831115610de1578281525b50959695505050505050565b6040805180820190915260608152600060208201528251821115610e1057600080fd5b8351516000610e1f8483611717565b90508560200151811115610e3c57610e3c86610d2983600261172a565b855180518382016020019160009180851115610e56578482525b505050602086015b60208610610e965780518252610e75602083611717565b9150610e82602082611717565b9050610e8f602087611704565b9550610e5e565b5181517fffffffffffffffffffffffffffffffffffffffffffffffffffffffffffffffff60208890036101000a0190811690199190911617905250849150509392505050565b8151610ee88383610a83565b5061025e8382610cc0565b6040518060400160405280610f1b604051806040016040528060608152602001600081525090565b8152602001600081525090565b7f4e487b7100000000000000000000000000000000000000000000000000000000600052604160045260246000fd5b60405160c0810167ffffffffffffffff81118282101715610f7a57610f7a610f28565b60405290565b604051601f82017fffffffffffffffffffffffffffffffffffffffffffffffffffffffffffffffe016810167ffffffffffffffff81118282101715610fc757610fc7610f28565b604052919050565b600067ffffffffffffffff821115610fe957610fe9610f28565b50601f017fffffffffffffffffffffffffffffffffffffffffffffffffffffffffffffffe01660200190565b600082601f83011261102657600080fd5b813561103961103482610fcf565b610f80565b81815284602083860101111561104e57600080fd5b816020850160208301376000918101602001919091529392505050565b60008060006060848603121561108057600080fd5b83359250602084013567ffffffffffffffff8082111561109f57600080fd5b6110ab87838801611015565b935060408601359150808211156110c157600080fd5b506110ce86828701611015565b9150509250925092565b803567ffffffffffffffff811681146110f057600080fd5b919050565b6000806040838503121561110857600080fd5b823567ffffffffffffffff81111561111f57600080fd5b61112b85828601611015565b92505061113a602084016110d8565b90509250929050565b60006020828403121561115557600080fd5b81358015158114610ce157600080fd5b60008060006060848603121561117a57600080fd5b833567ffffffffffffffff81111561119157600080fd5b61119d86828701611015565b9350506111ac602085016110d8565b9150604084013590509250925092565b60005b838110156111d75781810151838201526020016111bf565b50506000910152565b600081518084526111f88160208601602086016111bc565b601f017fffffffffffffffffffffffffffffffffffffffffffffffffffffffffffffffe0169290920160200192915050565b602081526000610ce160208301846111e0565b8035600381106110f057600080fd5b8035600181106110f057600080fd5b600082601f83011261126c57600080fd5b8135602067ffffffffffffffff8083111561128957611289610f28565b8260051b611298838201610f80565b93845285810183019383810190888611156112b257600080fd5b84880192505b858310156112ee578235848111156112d05760008081fd5b6112de8a87838c0101611015565b83525091840191908401906112b8565b98975050505050505050565b803563ffffffff811681146110f057600080fd5b6000806000806080858703121561132457600080fd5b843567ffffffffffffffff8082111561133c57600080fd5b9086019060c0828903121561135057600080fd5b611358610f57565b6113618361123d565b815261136f6020840161123d565b60208201526113806040840161124c565b604082015260608301358281111561139757600080fd5b6113a38a828601611015565b6060830152506080830135828111156113bb57600080fd5b6113c78a828601611015565b60808301525060a0830135828111156113df57600080fd5b6113eb8a82860161125b565b60a0830152509550611402915050602086016110d8565b9250611410604086016112fa565b9396929550929360600135925050565b83815260606020820152600061143960608301856111e0565b905067ffffffffffffffff83166040830152949350505050565b60006020828403121561146557600080fd5b815167ffffffffffffffff81111561147c57600080fd5b8201601f8101841361148d57600080fd5b805161149b61103482610fcf565b8181528560208385010111156114b057600080fd5b61034f8260208301602086016111bc565b67ffffffffffffffff851681526080602082015260006114e460808301866111e0565b63ffffffff949094166040830152506060015292915050565b60006020828403121561150f57600080fd5b81516bffffffffffffffffffffffff81168114610ce157600080fd5b7f4e487b7100000000000000000000000000000000000000000000000000000000600052601260045260246000fd5b7f4e487b7100000000000000000000000000000000000000000000000000000000600052601160045260246000fd5b6000826115985761159861152b565b500490565b8381526060602082015260006115b660608301856111e0565b82810360408401526115c881856111e0565b9695505050505050565b67ffffffffffffffff841681526060602082015260006115f560608301856111e0565b905063ffffffff83166040830152949350505050565b60006020828403121561161d57600080fd5b5051919050565b60006020828403121561163657600080fd5b815173ffffffffffffffffffffffffffffffffffffffff81168114610ce157600080fd5b7f4e487b7100000000000000000000000000000000000000000000000000000000600052602160045260246000fd5b7f4e487b7100000000000000000000000000000000000000000000000000000000600052603260045260246000fd5b60007fffffffffffffffffffffffffffffffffffffffffffffffffffffffffffffffff82036116e9576116e961155a565b5060010190565b6000826116ff576116ff61152b565b500690565b81810381811115610af757610af761155a565b80820180821115610af757610af761155a565b8082028115828204841417610af757610af761155a565b600181815b8085111561179a57817fffffffffffffffffffffffffffffffffffffffffffffffffffffffffffffffff048211156117805761178061155a565b8085161561178d57918102915b93841c9390800290611746565b509250929050565b6000826117b157506001610af7565b816117be57506000610af7565b81600181146117d457600281146117de576117fa565b6001915050610af7565b60ff8411156117ef576117ef61155a565b50506001821b610af7565b5060208310610133831016604e8410600b841016171561181d575081810a610af7565b6118278383611741565b807fffffffffffffffffffffffffffffffffffffffffffffffffffffffffffffffff048211156118595761185961155a565b029392505050565b6000610ce183836117a256fea164736f6c6343000815000a",
    "linkReferences": {}
  },
  "methodIdentifiers": {
    "estimateCost((uint8,uint8,uint8,string,bytes,string[]),uint64,uint32,uint256)": "d4b39175",
    "estimateJuelCost(string,uint64,uint256)": "b16402aa",
    "getDONPublicKey()": "d328a91e",
    "handleOracleFulfillment(bytes32,bytes,bytes)": "0ca76175",
    "sendSimpleRequestWithJavaScript(string,uint64)": "64f98e40",
    "setDoInvalidOperation(bool)": "d5d25fb8",
    "setRevertFulfillRequest(bool)": "a889e66d"
  },
  "id": 180
}