{
  "abi": [
    {
      "inputs": [
        {
          "internalType": "address",
          "name": "router",
          "type": "address"
        }
      ],
      "stateMutability": "nonpayable",
      "type": "constructor"
    },
    {
      "inputs": [],
      "name": "EmptySource",
      "type": "error"
    },
    {
      "inputs": [],
      "name": "NoInlineSecrets",
      "type": "error"
    },
    {
      "inputs": [],
      "name": "OnlyRouterCanFulfill",
      "type": "error"
    },
    {
      "anonymous": false,
      "inputs": [
        {
          "indexed": false,
          "internalType": "bytes32",
          "name": "requestId",
          "type": "bytes32"
        },
        {
          "indexed": false,
          "internalType": "bytes",
          "name": "response",
          "type": "bytes"
        },
        {
          "indexed": false,
          "internalType": "bytes",
          "name": "err",
          "type": "bytes"
        }
      ],
      "name": "FulfillRequestInvoked",
      "type": "event"
    },
    {
      "anonymous": false,
      "inputs": [
        {
          "indexed": true,
          "internalType": "bytes32",
          "name": "id",
          "type": "bytes32"
        }
      ],
      "name": "RequestFulfilled",
      "type": "event"
    },
    {
      "anonymous": false,
      "inputs": [
        {
          "indexed": true,
          "internalType": "bytes32",
          "name": "id",
          "type": "bytes32"
        }
      ],
      "name": "RequestSent",
      "type": "event"
    },
    {
      "anonymous": false,
      "inputs": [
        {
          "indexed": false,
          "internalType": "bytes32",
          "name": "requestId",
          "type": "bytes32"
        },
        {
          "indexed": false,
          "internalType": "string",
          "name": "sourceCode",
          "type": "string"
        },
        {
          "indexed": false,
          "internalType": "uint64",
          "name": "subscriptionId",
          "type": "uint64"
        }
      ],
      "name": "SendRequestInvoked",
      "type": "event"
    },
    {
      "inputs": [
        {
          "internalType": "bytes32",
          "name": "requestId",
          "type": "bytes32"
        },
        {
          "internalType": "bytes",
          "name": "response",
          "type": "bytes"
        },
        {
          "internalType": "bytes",
          "name": "err",
          "type": "bytes"
        }
      ],
      "name": "handleOracleFulfillment",
      "outputs": [],
      "stateMutability": "nonpayable",
      "type": "function"
    },
    {
      "inputs": [
        {
          "internalType": "string",
          "name": "sourceCode",
          "type": "string"
        },
        {
          "internalType": "uint64",
          "name": "subscriptionId",
          "type": "uint64"
        },
        {
          "internalType": "bytes32",
          "name": "donId",
          "type": "bytes32"
        },
        {
          "internalType": "uint32",
          "name": "callbackGasLimit",
          "type": "uint32"
        }
      ],
      "name": "sendSimpleRequestWithJavaScript",
      "outputs": [
        {
          "internalType": "bytes32",
          "name": "requestId",
          "type": "bytes32"
        }
      ],
      "stateMutability": "nonpayable",
      "type": "function"
    }
  ],
  "bytecode": {
    "object": "0x60a060405234801561001057600080fd5b5060405161117c38038061117c83398101604081905261002f91610040565b6001600160a01b0316608052610070565b60006020828403121561005257600080fd5b81516001600160a01b038116811461006957600080fd5b9392505050565b6080516110eb61009160003960008181608d015261055b01526110eb6000f3fe608060405234801561001057600080fd5b50600436106100365760003560e01c80630ca761751461003b57806371e4a02c14610050575b600080fd5b61004e610049366004610c7a565b610075565b005b61006361005e366004610ce7565b610114565b60405190815260200160405180910390f35b3373ffffffffffffffffffffffffffffffffffffffff7f000000000000000000000000000000000000000000000000000000000000000016146100e4576040517fc6829f8300000000000000000000000000000000000000000000000000000000815260040160405180910390fd5b60405183907f85e1543bf2f84fe80c6badbce3648c8539ad1df4d2b3d822938ca0538be727e690600090a2505050565b60006101576040805160e0810190915280600081526020016000815260200160008152602001606081526020016060815260200160608152602001606081525090565b61016181876101c6565b600061016c826101d7565b905061017a81878688610556565b92507fd122632b5f6ee38b0707e73fd789a5599cb90246aac7e6db79da230cd4396b6b8388886040516101af93929190610ddf565b60405180910390a15050949350505050565b505050565b6101d38260008084610635565b5050565b606060006101e66101006106cc565b90506102306040518060400160405280600c81526020017f636f64654c6f636174696f6e0000000000000000000000000000000000000000815250826106ed90919063ffffffff16565b825161024e90600281111561024757610247610e12565b8290610706565b60408051808201909152600881527f6c616e6775616765000000000000000000000000000000000000000000000000602082015261028d9082906106ed565b60408301516102a490801561024757610247610e12565b60408051808201909152600681527f736f75726365000000000000000000000000000000000000000000000000000060208201526102e39082906106ed565b60608301516102f39082906106ed565b60a083015151156103a05760408051808201909152600481527f6172677300000000000000000000000000000000000000000000000000000000602082015261033d9082906106ed565b6103468161073f565b60005b8360a0015151811015610396576103868460a00151828151811061036f5761036f610e41565b6020026020010151836106ed90919063ffffffff16565b61038f81610e9f565b9050610349565b506103a081610763565b608083015151156104a1576000836020015160028111156103c3576103c3610e12565b036103fa576040517fa80d31f700000000000000000000000000000000000000000000000000000000815260040160405180910390fd5b60408051808201909152600f81527f736563726574734c6f636174696f6e000000000000000000000000000000000060208201526104399082906106ed565b6104528360200151600281111561024757610247610e12565b60408051808201909152600781527f736563726574730000000000000000000000000000000000000000000000000060208201526104919082906106ed565b60808301516104a1908290610781565b60c0830151511561054e5760408051808201909152600981527f627974657341726773000000000000000000000000000000000000000000000060208201526104eb9082906106ed565b6104f48161073f565b60005b8360c0015151811015610544576105348460c00151828151811061051d5761051d610e41565b60200260200101518361078190919063ffffffff16565b61053d81610e9f565b90506104f7565b5061054e81610763565b515192915050565b6000807f000000000000000000000000000000000000000000000000000000000000000073ffffffffffffffffffffffffffffffffffffffff1663461d27628688600188886040518663ffffffff1660e01b81526004016105bb959493929190610ed7565b6020604051808303816000875af11580156105da573d6000803e3d6000fd5b505050506040513d601f19601f820116820180604052508101906105fe9190610f21565b60405190915081907f1131472297a800fee664d1d89cfa8f7676ff07189ecc53f80bbb5f4969099db890600090a295945050505050565b8051600003610670576040517f22ce3edd00000000000000000000000000000000000000000000000000000000815260040160405180910390fd5b8383600281111561068357610683610e12565b9081600281111561069657610696610e12565b905250604084018280156106ac576106ac610e12565b908180156106bc576106bc610e12565b9052506060909301929092525050565b6106d4610b62565b80516106e0908361078e565b5060006020820152919050565b6106fa8260038351610808565b81516101c1908261092f565b81516107139060c2610957565b506101d3828260405160200161072b91815260200190565b604051602081830303815290604052610781565b61074a8160046109c0565b60018160200181815161075d9190610f3a565b90525050565b61076e8160076109c0565b60018160200181815161075d9190610f4d565b6106fa8260028351610808565b6040805180820190915260608152600060208201526107ae602083610f60565b156107d6576107be602083610f60565b6107c9906020610f4d565b6107d39083610f3a565b91505b6020808401839052604051808552600081529081840101818110156107fa57600080fd5b604052508290505b92915050565b60178167ffffffffffffffff161161083557825161082f9060e0600585901b168317610957565b50505050565b60ff8167ffffffffffffffff161161087757825161085e906018611fe0600586901b1617610957565b50825161082f9067ffffffffffffffff831660016109d7565b61ffff8167ffffffffffffffff16116108ba5782516108a1906019611fe0600586901b1617610957565b50825161082f9067ffffffffffffffff831660026109d7565b63ffffffff8167ffffffffffffffff16116108ff5782516108e690601a611fe0600586901b1617610957565b50825161082f9067ffffffffffffffff831660046109d7565b825161091690601b611fe0600586901b1617610957565b50825161082f9067ffffffffffffffff831660086109d7565b60408051808201909152606081526000602082015261095083838451610a5c565b9392505050565b604080518082019091526060815260006020820152825151600061097c826001610f3a565b90508460200151821061099d5761099d85610998836002610f9b565b610b4b565b84516020838201018581535080518211156109b6578181525b5093949350505050565b81516101c190601f611fe0600585901b1617610957565b60408051808201909152606081526000602082015283515160006109fb8285610f3a565b90508560200151811115610a1857610a1886610998836002610f9b565b60006001610a28866101006110d2565b610a329190610f4d565b90508651828101878319825116178152508051831115610a50578281525b50959695505050505050565b6040805180820190915260608152600060208201528251821115610a7f57600080fd5b8351516000610a8e8483610f3a565b90508560200151811115610aab57610aab86610998836002610f9b565b855180518382016020019160009180851115610ac5578482525b505050602086015b60208610610b055780518252610ae4602083610f3a565b9150610af1602082610f3a565b9050610afe602087610f4d565b9550610acd565b5181517fffffffffffffffffffffffffffffffffffffffffffffffffffffffffffffffff60208890036101000a0190811690199190911617905250849150509392505050565b8151610b57838361078e565b5061082f838261092f565b6040518060400160405280610b8a604051806040016040528060608152602001600081525090565b8152602001600081525090565b7f4e487b7100000000000000000000000000000000000000000000000000000000600052604160045260246000fd5b600067ffffffffffffffff80841115610be157610be1610b97565b604051601f85017fffffffffffffffffffffffffffffffffffffffffffffffffffffffffffffffe0908116603f01168101908282118183101715610c2757610c27610b97565b81604052809350858152868686011115610c4057600080fd5b858560208301376000602087830101525050509392505050565b600082601f830112610c6b57600080fd5b61095083833560208501610bc6565b600080600060608486031215610c8f57600080fd5b83359250602084013567ffffffffffffffff80821115610cae57600080fd5b610cba87838801610c5a565b93506040860135915080821115610cd057600080fd5b50610cdd86828701610c5a565b9150509250925092565b60008060008060808587031215610cfd57600080fd5b843567ffffffffffffffff80821115610d1557600080fd5b818701915087601f830112610d2957600080fd5b610d3888833560208501610bc6565b9550602087013591508082168214610d4f57600080fd5b50925060408501359150606085013563ffffffff81168114610d7057600080fd5b939692955090935050565b6000815180845260005b81811015610da157602081850181015186830182015201610d85565b5060006020828601015260207fffffffffffffffffffffffffffffffffffffffffffffffffffffffffffffffe0601f83011685010191505092915050565b838152606060208201526000610df86060830185610d7b565b905067ffffffffffffffff83166040830152949350505050565b7f4e487b7100000000000000000000000000000000000000000000000000000000600052602160045260246000fd5b7f4e487b7100000000000000000000000000000000000000000000000000000000600052603260045260246000fd5b7f4e487b7100000000000000000000000000000000000000000000000000000000600052601160045260246000fd5b60007fffffffffffffffffffffffffffffffffffffffffffffffffffffffffffffffff8203610ed057610ed0610e70565b5060010190565b67ffffffffffffffff8616815260a060208201526000610efa60a0830187610d7b565b61ffff9590951660408301525063ffffffff92909216606083015260809091015292915050565b600060208284031215610f3357600080fd5b5051919050565b8082018082111561080257610802610e70565b8181038181111561080257610802610e70565b600082610f96577f4e487b7100000000000000000000000000000000000000000000000000000000600052601260045260246000fd5b500690565b808202811582820484141761080257610802610e70565b600181815b8085111561100b57817fffffffffffffffffffffffffffffffffffffffffffffffffffffffffffffffff04821115610ff157610ff1610e70565b80851615610ffe57918102915b93841c9390800290610fb7565b509250929050565b60008261102257506001610802565b8161102f57506000610802565b8160018114611045576002811461104f5761106b565b6001915050610802565b60ff84111561106057611060610e70565b50506001821b610802565b5060208310610133831016604e8410600b841016171561108e575081810a610802565b6110988383610fb2565b807fffffffffffffffffffffffffffffffffffffffffffffffffffffffffffffffff048211156110ca576110ca610e70565b029392505050565b6000610950838361101356fea164736f6c6343000815000a",
    "linkReferences": {}
  },
  "methodIdentifiers": {
    "handleOracleFulfillment(bytes32,bytes,bytes)": "0ca76175",
    "sendSimpleRequestWithJavaScript(string,uint64,bytes32,uint32)": "71e4a02c"
  },
  "id": 215
}