{
  "abi": [
    {
      "inputs": [
        {
          "internalType": "address",
          "name": "oracle",
          "type": "address"
        }
      ],
      "stateMutability": "nonpayable",
      "type": "constructor"
    },
    {
      "inputs": [],
      "name": "EmptyArgs",
      "type": "error"
    },
    {
      "inputs": [],
      "name": "EmptySecrets",
      "type": "error"
    },
    {
      "inputs": [],
      "name": "EmptySource",
      "type": "error"
    },
    {
      "inputs": [],
      "name": "NoInlineSecrets",
      "type": "error"
    },
    {
      "inputs": [],
      "name": "RequestIsAlreadyPending",
      "type": "error"
    },
    {
      "inputs": [],
      "name": "RequestIsNotPending",
      "type": "error"
    },
    {
      "inputs": [],
      "name": "SenderIsNotRegistry",
      "type": "error"
    },
    {
      "inputs": [
        {
          "internalType": "bytes32",
          "name": "requestId",
          "type": "bytes32"
        }
      ],
      "name": "UnexpectedRequestID",
      "type": "error"
    },
    {
      "anonymous": false,
      "inputs": [
        {
          "indexed": true,
          "internalType": "address",
          "name": "from",
          "type": "address"
        },
        {
          "indexed": true,
          "internalType": "address",
          "name": "to",
          "type": "address"
        }
      ],
      "name": "OwnershipTransferRequested",
      "type": "event"
    },
    {
      "anonymous": false,
      "inputs": [
        {
          "indexed": true,
          "internalType": "address",
          "name": "from",
          "type": "address"
        },
        {
          "indexed": true,
          "internalType": "address",
          "name": "to",
          "type": "address"
        }
      ],
      "name": "OwnershipTransferred",
      "type": "event"
    },
    {
      "anonymous": false,
      "inputs": [
        {
          "indexed": true,
          "internalType": "bytes32",
          "name": "id",
          "type": "bytes32"
        }
      ],
      "name": "RequestFulfilled",
      "type": "event"
    },
    {
      "anonymous": false,
      "inputs": [
        {
          "indexed": true,
          "internalType": "bytes32",
          "name": "id",
          "type": "bytes32"
        }
      ],
      "name": "RequestSent",
      "type": "event"
    },
    {
      "inputs": [],
      "name": "MAX_CALLBACK_GAS",
      "outputs": [
        {
          "internalType": "uint32",
          "name": "",
          "type": "uint32"
        }
      ],
      "stateMutability": "view",
      "type": "function"
    },
    {
      "inputs": [
        {
          "internalType": "string",
          "name": "source",
          "type": "string"
        },
        {
          "internalType": "bytes",
          "name": "secrets",
          "type": "bytes"
        },
        {
          "internalType": "string[]",
          "name": "args",
          "type": "string[]"
        },
        {
          "internalType": "uint64",
          "name": "subscriptionId",
          "type": "uint64"
        }
      ],
      "name": "SendRequest",
      "outputs": [],
      "stateMutability": "nonpayable",
      "type": "function"
    },
    {
      "inputs": [],
      "name": "acceptOwnership",
      "outputs": [],
      "stateMutability": "nonpayable",
      "type": "function"
    },
    {
      "inputs": [
        {
          "components": [
            {
              "internalType": "enum Functions.Location",
              "name": "codeLocation",
              "type": "uint8"
            },
            {
              "internalType": "enum Functions.Location",
              "name": "secretsLocation",
              "type": "uint8"
            },
            {
              "internalType": "enum Functions.CodeLanguage",
              "name": "language",
              "type": "uint8"
            },
            {
              "internalType": "string",
              "name": "source",
              "type": "string"
            },
            {
              "internalType": "bytes",
              "name": "secrets",
              "type": "bytes"
            },
            {
              "internalType": "string[]",
              "name": "args",
              "type": "string[]"
            }
          ],
          "internalType": "struct Functions.Request",
          "name": "req",
          "type": "tuple"
        },
        {
          "internalType": "uint64",
          "name": "subscriptionId",
          "type": "uint64"
        },
        {
          "internalType": "uint32",
          "name": "gasLimit",
          "type": "uint32"
        },
        {
          "internalType": "uint256",
          "name": "gasPrice",
          "type": "uint256"
        }
      ],
      "name": "estimateCost",
      "outputs": [
        {
          "internalType": "uint96",
          "name": "",
          "type": "uint96"
        }
      ],
      "stateMutability": "view",
      "type": "function"
    },
    {
      "inputs": [],
      "name": "getDONPublicKey",
      "outputs": [
        {
          "internalType": "bytes",
          "name": "",
          "type": "bytes"
        }
      ],
      "stateMutability": "view",
      "type": "function"
    },
    {
      "inputs": [
        {
          "internalType": "bytes32",
          "name": "requestId",
          "type": "bytes32"
        },
        {
          "internalType": "bytes",
          "name": "response",
          "type": "bytes"
        },
        {
          "internalType": "bytes",
          "name": "err",
          "type": "bytes"
        }
      ],
      "name": "handleOracleFulfillment",
      "outputs": [],
      "stateMutability": "nonpayable",
      "type": "function"
    },
    {
      "inputs": [],
      "name": "lastError",
      "outputs": [
        {
          "internalType": "bytes32",
          "name": "",
          "type": "bytes32"
        }
      ],
      "stateMutability": "view",
      "type": "function"
    },
    {
      "inputs": [],
      "name": "lastErrorLength",
      "outputs": [
        {
          "internalType": "uint32",
          "name": "",
          "type": "uint32"
        }
      ],
      "stateMutability": "view",
      "type": "function"
    },
    {
      "inputs": [],
      "name": "lastRequestId",
      "outputs": [
        {
          "internalType": "bytes32",
          "name": "",
          "type": "bytes32"
        }
      ],
      "stateMutability": "view",
      "type": "function"
    },
    {
      "inputs": [],
      "name": "lastResponse",
      "outputs": [
        {
          "internalType": "bytes32",
          "name": "",
          "type": "bytes32"
        }
      ],
      "stateMutability": "view",
      "type": "function"
    },
    {
      "inputs": [],
      "name": "lastResponseLength",
      "outputs": [
        {
          "internalType": "uint32",
          "name": "",
          "type": "uint32"
        }
      ],
      "stateMutability": "view",
      "type": "function"
    },
    {
      "inputs": [],
      "name": "owner",
      "outputs": [
        {
          "internalType": "address",
          "name": "",
          "type": "address"
        }
      ],
      "stateMutability": "view",
      "type": "function"
    },
    {
      "inputs": [
        {
          "internalType": "address",
          "name": "to",
          "type": "address"
        }
      ],
      "name": "transferOwnership",
      "outputs": [],
      "stateMutability": "nonpayable",
      "type": "function"
    }
  ],
  "bytecode": {
    "object": "0x60806040523480156200001157600080fd5b5060405162001e9338038062001e93833981016040819052620000349162000198565b600080546001600160a01b0319166001600160a01b038316178155339081906001600160a01b038216620000af5760405162461bcd60e51b815260206004820152601860248201527f43616e6e6f7420736574206f776e657220746f207a65726f000000000000000060448201526064015b60405180910390fd5b600280546001600160a01b0319166001600160a01b0384811691909117909155811615620000e257620000e281620000ec565b50505050620001ca565b336001600160a01b03821603620001465760405162461bcd60e51b815260206004820152601760248201527f43616e6e6f74207472616e7366657220746f2073656c660000000000000000006044820152606401620000a6565b600380546001600160a01b0319166001600160a01b03838116918217909255600254604051919216907fed8889f560326eb138920d842192f0eb3dd22b4f139c87a2c57538e05bae127890600090a350565b600060208284031215620001ab57600080fd5b81516001600160a01b0381168114620001c357600080fd5b9392505050565b611cb980620001da6000396000f3fe608060405234801561001057600080fd5b50600436106100df5760003560e01c80638da5cb5b1161008c578063d4b3917511610066578063d4b39175146101aa578063d769717e146101da578063f2fde38b146101ed578063fc2a88c31461020057600080fd5b80638da5cb5b1461015d578063b48cffea14610185578063d328a91e1461019557600080fd5b806362747e42116100bd57806362747e42146101425780636d9809a01461014b57806379ba50971461015557600080fd5b80630ca76175146100e457806329f0de3f146100f95780632c29166b14610115575b600080fd5b6100f76100f2366004611498565b610209565b005b61010260065481565b6040519081526020015b60405180910390f35b60075461012d90640100000000900463ffffffff1681565b60405163ffffffff909116815260200161010c565b61010260055481565b61012d6201117081565b6100f76102d4565b60025460405173ffffffffffffffffffffffffffffffffffffffff909116815260200161010c565b60075461012d9063ffffffff1681565b61019d6103da565b60405161010c9190611573565b6101bd6101b836600461167a565b610494565b6040516bffffffffffffffffffffffff909116815260200161010c565b6100f76101e83660046117d5565b610528565b6100f76101fb3660046118d2565b610629565b61010260045481565b600083815260016020526040902054839073ffffffffffffffffffffffffffffffffffffffff163314610268576040517fa0c5ec6300000000000000000000000000000000000000000000000000000000815260040160405180910390fd5b60008181526001602052604080822080547fffffffffffffffffffffffff00000000000000000000000000000000000000001690555182917f85e1543bf2f84fe80c6badbce3648c8539ad1df4d2b3d822938ca0538be727e691a26102ce84848461063d565b50505050565b60035473ffffffffffffffffffffffffffffffffffffffff16331461035a576040517f08c379a000000000000000000000000000000000000000000000000000000000815260206004820152601660248201527f4d7573742062652070726f706f736564206f776e65720000000000000000000060448201526064015b60405180910390fd5b600280547fffffffffffffffffffffffff00000000000000000000000000000000000000008082163390811790935560038054909116905560405173ffffffffffffffffffffffffffffffffffffffff909116919082907f8be0079c531659141344cd1fd0a4f28419497f9722a3daafe3b4186f6b6457e090600090a350565b60008054604080517fd328a91e000000000000000000000000000000000000000000000000000000008152905160609373ffffffffffffffffffffffffffffffffffffffff9093169263d328a91e92600480820193918290030181865afa158015610449573d6000803e3d6000fd5b505050506040513d6000823e601f3d9081017fffffffffffffffffffffffffffffffffffffffffffffffffffffffffffffffe016820160405261048f91908101906118ef565b905090565b6000805473ffffffffffffffffffffffffffffffffffffffff1663d227d245856104bd8861070b565b86866040518563ffffffff1660e01b81526004016104de949392919061195d565b602060405180830381865afa1580156104fb573d6000803e3d6000fd5b505050506040513d601f19601f8201168201806040525081019061051f9190611999565b95945050505050565b6105306109d6565b61056a6040805160c08101909152806000815260200160008152602001600081526020016060815260200160608152602001606081525090565b6105ac88888080601f0160208091040260200160405190810160405280939291908181526020018383808284376000920191909152508593925050610a599050565b84156105f4576105f486868080601f0160208091040260200160405190810160405280939291908181526020018383808284376000920191909152508593925050610a6a9050565b821561060e5761060e61060784866119c7565b8290610ab4565b61061c818362011170610af7565b6004555050505050505050565b6106316109d6565b61063a81610c97565b50565b826004541461067b576040517fd068bf5b00000000000000000000000000000000000000000000000000000000815260048101849052602401610351565b61068482610d8d565b6005558151600780547fffffffffffffffffffffffffffffffffffffffffffffffffffffffff000000001663ffffffff9092169190911790556106c681610d8d565b600655516007805463ffffffff909216640100000000027fffffffffffffffffffffffffffffffffffffffffffffffff00000000ffffffff9092169190911790555050565b6060610715611320565b805161072390610100610e15565b50610763816040518060400160405280600c81526020017f636f64654c6f636174696f6e0000000000000000000000000000000000000000815250610e8f565b610782818460000151600281111561077d5761077d6119d4565b610ead565b6107c1816040518060400160405280600881526020017f6c616e6775616765000000000000000000000000000000000000000000000000815250610e8f565b6107db818460400151600081111561077d5761077d6119d4565b61081a816040518060400160405280600681526020017f736f757263650000000000000000000000000000000000000000000000000000815250610e8f565b610828818460600151610e8f565b60a083015151156108ce57610872816040518060400160405280600481526020017f6172677300000000000000000000000000000000000000000000000000000000815250610e8f565b61087b81610ee6565b60005b8360a00151518110156108c4576108b2828560a0015183815181106108a5576108a5611a03565b6020026020010151610e8f565b806108bc81611a61565b91505061087e565b506108ce81610f0a565b608083015151156109ce576000836020015160028111156108f1576108f16119d4565b03610928576040517fa80d31f700000000000000000000000000000000000000000000000000000000815260040160405180910390fd5b610967816040518060400160405280600f81526020017f736563726574734c6f636174696f6e0000000000000000000000000000000000815250610e8f565b610981818460200151600281111561077d5761077d6119d4565b6109c0816040518060400160405280600781526020017f7365637265747300000000000000000000000000000000000000000000000000815250610e8f565b6109ce818460800151610f28565b515192915050565b60025473ffffffffffffffffffffffffffffffffffffffff163314610a57576040517f08c379a000000000000000000000000000000000000000000000000000000000815260206004820152601660248201527f4f6e6c792063616c6c61626c65206279206f776e6572000000000000000000006044820152606401610351565b565b610a668260008084610f35565b5050565b8051600003610aa5576040517fe889636f00000000000000000000000000000000000000000000000000000000815260040160405180910390fd5b60016020830152608090910152565b8051600003610aef576040517ffe936cb700000000000000000000000000000000000000000000000000000000815260040160405180910390fd5b60a090910152565b60008054819073ffffffffffffffffffffffffffffffffffffffff166328242b0485610b228861070b565b866040518463ffffffff1660e01b8152600401610b4193929190611a99565b6020604051808303816000875af1158015610b60573d6000803e3d6000fd5b505050506040513d601f19601f82011682018060405250810190610b849190611ad2565b905060008054906101000a900473ffffffffffffffffffffffffffffffffffffffff1673ffffffffffffffffffffffffffffffffffffffff16635ab1bd536040518163ffffffff1660e01b8152600401602060405180830381865afa158015610bf1573d6000803e3d6000fd5b505050506040513d601f19601f82011682018060405250810190610c159190611aeb565b60008281526001602052604080822080547fffffffffffffffffffffffff00000000000000000000000000000000000000001673ffffffffffffffffffffffffffffffffffffffff9490941693909317909255905182917f1131472297a800fee664d1d89cfa8f7676ff07189ecc53f80bbb5f4969099db891a2949350505050565b3373ffffffffffffffffffffffffffffffffffffffff821603610d16576040517f08c379a000000000000000000000000000000000000000000000000000000000815260206004820152601760248201527f43616e6e6f74207472616e7366657220746f2073656c660000000000000000006044820152606401610351565b600380547fffffffffffffffffffffffff00000000000000000000000000000000000000001673ffffffffffffffffffffffffffffffffffffffff838116918217909255600254604051919216907fed8889f560326eb138920d842192f0eb3dd22b4f139c87a2c57538e05bae127890600090a350565b600080600060209050602084511015610da4575082515b60005b81811015610e0c57610dba816008611b08565b858281518110610dcc57610dcc611a03565b01602001517fff0000000000000000000000000000000000000000000000000000000000000016901c929092179180610e0481611a61565b915050610da7565b50909392505050565b604080518082019091526060815260006020820152610e35602083611b1f565b15610e5d57610e45602083611b1f565b610e50906020611b5a565b610e5a9083611b6d565b91505b602080840183905260405180855260008152908184010181811015610e8157600080fd5b604052508290505b92915050565b610e9c8260038351610fcc565b8151610ea890826110ed565b505050565b8151610eba9060c2611115565b50610a668282604051602001610ed291815260200190565b604051602081830303815290604052610f28565b610ef181600461117e565b600181602001818151610f049190611b6d565b90525050565b610f1581600761117e565b600181602001818151610f049190611b5a565b610e9c8260028351610fcc565b8051600003610f70576040517f22ce3edd00000000000000000000000000000000000000000000000000000000815260040160405180910390fd5b83836002811115610f8357610f836119d4565b90816002811115610f9657610f966119d4565b90525060408401828015610fac57610fac6119d4565b90818015610fbc57610fbc6119d4565b9052506060909301929092525050565b60178167ffffffffffffffff1611610ff35782516102ce9060e0600585901b168317611115565b60ff8167ffffffffffffffff161161103557825161101c906018611fe0600586901b1617611115565b5082516102ce9067ffffffffffffffff83166001611195565b61ffff8167ffffffffffffffff161161107857825161105f906019611fe0600586901b1617611115565b5082516102ce9067ffffffffffffffff83166002611195565b63ffffffff8167ffffffffffffffff16116110bd5782516110a490601a611fe0600586901b1617611115565b5082516102ce9067ffffffffffffffff83166004611195565b82516110d490601b611fe0600586901b1617611115565b5082516102ce9067ffffffffffffffff83166008611195565b60408051808201909152606081526000602082015261110e8383845161121a565b9392505050565b604080518082019091526060815260006020820152825151600061113a826001611b6d565b90508460200151821061115b5761115b85611156836002611b08565b611309565b8451602083820101858153508051821115611174578181525b5093949350505050565b8151610ea890601f611fe0600585901b1617611115565b60408051808201909152606081526000602082015283515160006111b98285611b6d565b905085602001518111156111d6576111d686611156836002611b08565b600060016111e686610100611ca0565b6111f09190611b5a565b9050865182810187831982511617815250805183111561120e578281525b50959695505050505050565b604080518082019091526060815260006020820152825182111561123d57600080fd5b835151600061124c8483611b6d565b905085602001518111156112695761126986611156836002611b08565b855180518382016020019160009180851115611283578482525b505050602086015b602086106112c357805182526112a2602083611b6d565b91506112af602082611b6d565b90506112bc602087611b5a565b955061128b565b5181517fffffffffffffffffffffffffffffffffffffffffffffffffffffffffffffffff60208890036101000a0190811690199190911617905250849150509392505050565b81516113158383610e15565b506102ce83826110ed565b6040518060400160405280611348604051806040016040528060608152602001600081525090565b8152602001600081525090565b7f4e487b7100000000000000000000000000000000000000000000000000000000600052604160045260246000fd5b60405160c0810167ffffffffffffffff811182821017156113a7576113a7611355565b60405290565b604051601f82017fffffffffffffffffffffffffffffffffffffffffffffffffffffffffffffffe016810167ffffffffffffffff811182821017156113f4576113f4611355565b604052919050565b600067ffffffffffffffff82111561141657611416611355565b50601f017fffffffffffffffffffffffffffffffffffffffffffffffffffffffffffffffe01660200190565b600082601f83011261145357600080fd5b8135611466611461826113fc565b6113ad565b81815284602083860101111561147b57600080fd5b816020850160208301376000918101602001919091529392505050565b6000806000606084860312156114ad57600080fd5b83359250602084013567ffffffffffffffff808211156114cc57600080fd5b6114d887838801611442565b935060408601359150808211156114ee57600080fd5b506114fb86828701611442565b9150509250925092565b60005b83811015611520578181015183820152602001611508565b50506000910152565b60008151808452611541816020860160208601611505565b601f017fffffffffffffffffffffffffffffffffffffffffffffffffffffffffffffffe0169290920160200192915050565b60208152600061110e6020830184611529565b80356003811061159557600080fd5b919050565b80356001811061159557600080fd5b600067ffffffffffffffff808411156115c4576115c4611355565b8360051b60206115d58183016113ad565b868152935090840190808401878311156115ee57600080fd5b855b83811015611622578035858111156116085760008081fd5b6116148a828a01611442565b8352509082019082016115f0565b50505050509392505050565b600082601f83011261163f57600080fd5b61110e838335602085016115a9565b803567ffffffffffffffff8116811461159557600080fd5b803563ffffffff8116811461159557600080fd5b6000806000806080858703121561169057600080fd5b843567ffffffffffffffff808211156116a857600080fd5b9086019060c082890312156116bc57600080fd5b6116c4611384565b6116cd83611586565b81526116db60208401611586565b60208201526116ec6040840161159a565b604082015260608301358281111561170357600080fd5b61170f8a828601611442565b60608301525060808301358281111561172757600080fd5b6117338a828601611442565b60808301525060a08301358281111561174b57600080fd5b6117578a82860161162e565b60a083015250955061176e9150506020860161164e565b925061177c60408601611666565b9396929550929360600135925050565b60008083601f84011261179e57600080fd5b50813567ffffffffffffffff8111156117b657600080fd5b6020830191508360208285010111156117ce57600080fd5b9250929050565b60008060008060008060006080888a0312156117f057600080fd5b873567ffffffffffffffff8082111561180857600080fd5b6118148b838c0161178c565b909950975060208a013591508082111561182d57600080fd5b6118398b838c0161178c565b909750955060408a013591508082111561185257600080fd5b818a0191508a601f83011261186657600080fd5b81358181111561187557600080fd5b8b60208260051b850101111561188a57600080fd5b6020830195508094505050506118a26060890161164e565b905092959891949750929550565b73ffffffffffffffffffffffffffffffffffffffff8116811461063a57600080fd5b6000602082840312156118e457600080fd5b813561110e816118b0565b60006020828403121561190157600080fd5b815167ffffffffffffffff81111561191857600080fd5b8201601f8101841361192957600080fd5b8051611937611461826113fc565b81815285602083850101111561194c57600080fd5b61051f826020830160208601611505565b67ffffffffffffffff851681526080602082015260006119806080830186611529565b63ffffffff949094166040830152506060015292915050565b6000602082840312156119ab57600080fd5b81516bffffffffffffffffffffffff8116811461110e57600080fd5b600061110e3684846115a9565b7f4e487b7100000000000000000000000000000000000000000000000000000000600052602160045260246000fd5b7f4e487b7100000000000000000000000000000000000000000000000000000000600052603260045260246000fd5b7f4e487b7100000000000000000000000000000000000000000000000000000000600052601160045260246000fd5b60007fffffffffffffffffffffffffffffffffffffffffffffffffffffffffffffffff8203611a9257611a92611a32565b5060010190565b67ffffffffffffffff84168152606060208201526000611abc6060830185611529565b905063ffffffff83166040830152949350505050565b600060208284031215611ae457600080fd5b5051919050565b600060208284031215611afd57600080fd5b815161110e816118b0565b8082028115828204841417610e8957610e89611a32565b600082611b55577f4e487b7100000000000000000000000000000000000000000000000000000000600052601260045260246000fd5b500690565b81810381811115610e8957610e89611a32565b80820180821115610e8957610e89611a32565b600181815b80851115611bd957817fffffffffffffffffffffffffffffffffffffffffffffffffffffffffffffffff04821115611bbf57611bbf611a32565b80851615611bcc57918102915b93841c9390800290611b85565b509250929050565b600082611bf057506001610e89565b81611bfd57506000610e89565b8160018114611c135760028114611c1d57611c39565b6001915050610e89565b60ff841115611c2e57611c2e611a32565b50506001821b610e89565b5060208310610133831016604e8410600b8410161715611c5c575081810a610e89565b611c668383611b80565b807fffffffffffffffffffffffffffffffffffffffffffffffffffffffffffffffff04821115611c9857611c98611a32565b029392505050565b600061110e8383611be156fea164736f6c6343000815000a",
    "linkReferences": {}
  },
  "methodIdentifiers": {
    "MAX_CALLBACK_GAS()": "6d9809a0",
    "SendRequest(string,bytes,string[],uint64)": "d769717e",
    "acceptOwnership()": "79ba5097",
    "estimateCost((uint8,uint8,uint8,string,bytes,string[]),uint64,uint32,uint256)": "d4b39175",
    "getDONPublicKey()": "d328a91e",
    "handleOracleFulfillment(bytes32,bytes,bytes)": "0ca76175",
    "lastError()": "29f0de3f",
    "lastErrorLength()": "2c29166b",
    "lastRequestId()": "fc2a88c3",
    "lastResponse()": "62747e42",
    "lastResponseLength()": "b48cffea",
    "owner()": "8da5cb5b",
    "transferOwnership(address)": "f2fde38b"
  },
  "id": 148
}