{
  "abi": [
    {
      "inputs": [],
      "stateMutability": "nonpayable",
      "type": "constructor"
    },
    {
      "inputs": [
        {
          "internalType": "address",
          "name": "sender",
          "type": "address"
        },
        {
          "internalType": "uint256",
          "name": "tokenId",
          "type": "uint256"
        },
        {
          "internalType": "address",
          "name": "owner",
          "type": "address"
        }
      ],
      "name": "ERC721IncorrectOwner",
      "type": "error"
    },
    {
      "inputs": [
        {
          "internalType": "address",
          "name": "operator",
          "type": "address"
        },
        {
          "internalType": "uint256",
          "name": "tokenId",
          "type": "uint256"
        }
      ],
      "name": "ERC721InsufficientApproval",
      "type": "error"
    },
    {
      "inputs": [
        {
          "internalType": "address",
          "name": "approver",
          "type": "address"
        }
      ],
      "name": "ERC721InvalidApprover",
      "type": "error"
    },
    {
      "inputs": [
        {
          "internalType": "address",
          "name": "operator",
          "type": "address"
        }
      ],
      "name": "ERC721InvalidOperator",
      "type": "error"
    },
    {
      "inputs": [
        {
          "internalType": "address",
          "name": "owner",
          "type": "address"
        }
      ],
      "name": "ERC721InvalidOwner",
      "type": "error"
    },
    {
      "inputs": [
        {
          "internalType": "address",
          "name": "receiver",
          "type": "address"
        }
      ],
      "name": "ERC721InvalidReceiver",
      "type": "error"
    },
    {
      "inputs": [
        {
          "internalType": "address",
          "name": "sender",
          "type": "address"
        }
      ],
      "name": "ERC721InvalidSender",
      "type": "error"
    },
    {
      "inputs": [
        {
          "internalType": "uint256",
          "name": "tokenId",
          "type": "uint256"
        }
      ],
      "name": "ERC721NonexistentToken",
      "type": "error"
    },
    {
      "inputs": [],
      "name": "EnforcedPause",
      "type": "error"
    },
    {
      "inputs": [],
      "name": "ExpectedPause",
      "type": "error"
    },
    {
      "inputs": [
        {
          "internalType": "address",
          "name": "owner",
          "type": "address"
        }
      ],
      "name": "OwnableInvalidOwner",
      "type": "error"
    },
    {
      "inputs": [
        {
          "internalType": "address",
          "name": "account",
          "type": "address"
        }
      ],
      "name": "OwnableUnauthorizedAccount",
      "type": "error"
    },
    {
      "anonymous": false,
      "inputs": [
        {
          "indexed": true,
          "internalType": "address",
          "name": "owner",
          "type": "address"
        },
        {
          "indexed": true,
          "internalType": "address",
          "name": "approved",
          "type": "address"
        },
        {
          "indexed": true,
          "internalType": "uint256",
          "name": "tokenId",
          "type": "uint256"
        }
      ],
      "name": "Approval",
      "type": "event"
    },
    {
      "anonymous": false,
      "inputs": [
        {
          "indexed": true,
          "internalType": "address",
          "name": "owner",
          "type": "address"
        },
        {
          "indexed": true,
          "internalType": "address",
          "name": "operator",
          "type": "address"
        },
        {
          "indexed": false,
          "internalType": "bool",
          "name": "approved",
          "type": "bool"
        }
      ],
      "name": "ApprovalForAll",
      "type": "event"
    },
    {
      "anonymous": false,
      "inputs": [
        {
          "indexed": false,
          "internalType": "uint256",
          "name": "_fromTokenId",
          "type": "uint256"
        },
        {
          "indexed": false,
          "internalType": "uint256",
          "name": "_toTokenId",
          "type": "uint256"
        }
      ],
      "name": "BatchMetadataUpdate",
      "type": "event"
    },
    {
      "anonymous": false,
      "inputs": [
        {
          "indexed": false,
          "internalType": "uint256",
          "name": "_tokenId",
          "type": "uint256"
        }
      ],
      "name": "MetadataUpdate",
      "type": "event"
    },
    {
      "anonymous": false,
      "inputs": [
        {
          "indexed": true,
          "internalType": "address",
          "name": "previousOwner",
          "type": "address"
        },
        {
          "indexed": true,
          "internalType": "address",
          "name": "newOwner",
          "type": "address"
        }
      ],
      "name": "OwnershipTransferred",
      "type": "event"
    },
    {
      "anonymous": false,
      "inputs": [
        {
          "indexed": false,
          "internalType": "address",
          "name": "account",
          "type": "address"
        }
      ],
      "name": "Paused",
      "type": "event"
    },
    {
      "anonymous": false,
      "inputs": [
        {
          "indexed": true,
          "internalType": "address",
          "name": "from",
          "type": "address"
        },
        {
          "indexed": true,
          "internalType": "address",
          "name": "to",
          "type": "address"
        },
        {
          "indexed": true,
          "internalType": "uint256",
          "name": "tokenId",
          "type": "uint256"
        }
      ],
      "name": "Transfer",
      "type": "event"
    },
    {
      "anonymous": false,
      "inputs": [
        {
          "indexed": false,
          "internalType": "address",
          "name": "account",
          "type": "address"
        }
      ],
      "name": "Unpaused",
      "type": "event"
    },
    {
      "inputs": [
        {
          "internalType": "address",
          "name": "to",
          "type": "address"
        },
        {
          "internalType": "uint256",
          "name": "tokenId",
          "type": "uint256"
        }
      ],
      "name": "approve",
      "outputs": [],
      "stateMutability": "nonpayable",
      "type": "function"
    },
    {
      "inputs": [
        {
          "internalType": "address",
          "name": "owner",
          "type": "address"
        }
      ],
      "name": "balanceOf",
      "outputs": [
        {
          "internalType": "uint256",
          "name": "",
          "type": "uint256"
        }
      ],
      "stateMutability": "view",
      "type": "function"
    },
    {
      "inputs": [
        {
          "internalType": "uint256",
          "name": "tokenId",
          "type": "uint256"
        }
      ],
      "name": "getApproved",
      "outputs": [
        {
          "internalType": "address",
          "name": "",
          "type": "address"
        }
      ],
      "stateMutability": "view",
      "type": "function"
    },
    {
      "inputs": [
        {
          "internalType": "address",
          "name": "owner",
          "type": "address"
        },
        {
          "internalType": "address",
          "name": "operator",
          "type": "address"
        }
      ],
      "name": "isApprovedForAll",
      "outputs": [
        {
          "internalType": "bool",
          "name": "",
          "type": "bool"
        }
      ],
      "stateMutability": "view",
      "type": "function"
    },
    {
      "inputs": [
        {
          "internalType": "address",
          "name": "to",
          "type": "address"
        }
      ],
      "name": "mint",
      "outputs": [],
      "stateMutability": "payable",
      "type": "function"
    },
    {
      "inputs": [],
      "name": "name",
      "outputs": [
        {
          "internalType": "string",
          "name": "",
          "type": "string"
        }
      ],
      "stateMutability": "view",
      "type": "function"
    },
    {
      "inputs": [],
      "name": "owner",
      "outputs": [
        {
          "internalType": "address",
          "name": "",
          "type": "address"
        }
      ],
      "stateMutability": "view",
      "type": "function"
    },
    {
      "inputs": [
        {
          "internalType": "uint256",
          "name": "tokenId",
          "type": "uint256"
        }
      ],
      "name": "ownerOf",
      "outputs": [
        {
          "internalType": "address",
          "name": "",
          "type": "address"
        }
      ],
      "stateMutability": "view",
      "type": "function"
    },
    {
      "inputs": [],
      "name": "pause",
      "outputs": [],
      "stateMutability": "nonpayable",
      "type": "function"
    },
    {
      "inputs": [],
      "name": "paused",
      "outputs": [
        {
          "internalType": "bool",
          "name": "",
          "type": "bool"
        }
      ],
      "stateMutability": "view",
      "type": "function"
    },
    {
      "inputs": [],
      "name": "renounceOwnership",
      "outputs": [],
      "stateMutability": "nonpayable",
      "type": "function"
    },
    {
      "inputs": [
        {
          "internalType": "address",
          "name": "from",
          "type": "address"
        },
        {
          "internalType": "address",
          "name": "to",
          "type": "address"
        },
        {
          "internalType": "uint256",
          "name": "tokenId",
          "type": "uint256"
        }
      ],
      "name": "safeTransferFrom",
      "outputs": [],
      "stateMutability": "nonpayable",
      "type": "function"
    },
    {
      "inputs": [
        {
          "internalType": "address",
          "name": "from",
          "type": "address"
        },
        {
          "internalType": "address",
          "name": "to",
          "type": "address"
        },
        {
          "internalType": "uint256",
          "name": "tokenId",
          "type": "uint256"
        },
        {
          "internalType": "bytes",
          "name": "data",
          "type": "bytes"
        }
      ],
      "name": "safeTransferFrom",
      "outputs": [],
      "stateMutability": "nonpayable",
      "type": "function"
    },
    {
      "inputs": [
        {
          "internalType": "address",
          "name": "operator",
          "type": "address"
        },
        {
          "internalType": "bool",
          "name": "approved",
          "type": "bool"
        }
      ],
      "name": "setApprovalForAll",
      "outputs": [],
      "stateMutability": "nonpayable",
      "type": "function"
    },
    {
      "inputs": [
        {
          "internalType": "string",
          "name": "_newBaseURI",
          "type": "string"
        }
      ],
      "name": "setBaseURI",
      "outputs": [],
      "stateMutability": "nonpayable",
      "type": "function"
    },
    {
      "inputs": [
        {
          "internalType": "bytes4",
          "name": "interfaceId",
          "type": "bytes4"
        }
      ],
      "name": "supportsInterface",
      "outputs": [
        {
          "internalType": "bool",
          "name": "",
          "type": "bool"
        }
      ],
      "stateMutability": "view",
      "type": "function"
    },
    {
      "inputs": [],
      "name": "symbol",
      "outputs": [
        {
          "internalType": "string",
          "name": "",
          "type": "string"
        }
      ],
      "stateMutability": "view",
      "type": "function"
    },
    {
      "inputs": [
        {
          "internalType": "uint256",
          "name": "tokenId",
          "type": "uint256"
        }
      ],
      "name": "tokenURI",
      "outputs": [
        {
          "internalType": "string",
          "name": "",
          "type": "string"
        }
      ],
      "stateMutability": "view",
      "type": "function"
    },
    {
      "inputs": [
        {
          "internalType": "address",
          "name": "from",
          "type": "address"
        },
        {
          "internalType": "address",
          "name": "to",
          "type": "address"
        },
        {
          "internalType": "uint256",
          "name": "tokenId",
          "type": "uint256"
        }
      ],
      "name": "transferFrom",
      "outputs": [],
      "stateMutability": "nonpayable",
      "type": "function"
    },
    {
      "inputs": [
        {
          "internalType": "address",
          "name": "newOwner",
          "type": "address"
        }
      ],
      "name": "transferOwnership",
      "outputs": [],
      "stateMutability": "nonpayable",
      "type": "function"
    },
    {
      "inputs": [],
      "name": "unpause",
      "outputs": [],
      "stateMutability": "nonpayable",
      "type": "function"
    }
  ],
  "bytecode": {
    "object": "0x60806040523480156200001157600080fd5b506040805180820182526003808252621b999d60ea1b6020808401829052845180860190955291845290830152339160006200004e8382620001aa565b5060016200005d8282620001aa565b50506007805460ff19169055506001600160a01b0381166200009957604051631e4fbdf760e01b81526000600482015260240160405180910390fd5b620000a481620000ab565b5062000276565b600780546001600160a01b03838116610100818102610100600160a81b031985161790945560405193909204169182907f8be0079c531659141344cd1fd0a4f28419497f9722a3daafe3b4186f6b6457e090600090a35050565b634e487b7160e01b600052604160045260246000fd5b600181811c908216806200013057607f821691505b6020821081036200015157634e487b7160e01b600052602260045260246000fd5b50919050565b601f821115620001a557600081815260208120601f850160051c81016020861015620001805750805b601f850160051c820191505b81811015620001a1578281556001016200018c565b5050505b505050565b81516001600160401b03811115620001c657620001c662000105565b620001de81620001d784546200011b565b8462000157565b602080601f831160018114620002165760008415620001fd5750858301515b600019600386901b1c1916600185901b178555620001a1565b600085815260208120601f198616915b82811015620002475788860151825594840194600190910190840162000226565b5085821015620002665787850151600019600388901b60f8161c191681555b5050505050600190811b01905550565b611b7f80620002866000396000f3fe60806040526004361061016a5760003560e01c80636a627842116100cb57806395d89b411161007f578063c87b56dd11610059578063c87b56dd146103b0578063e985e9c5146103d0578063f2fde38b1461041957600080fd5b806395d89b411461035b578063a22cb46514610370578063b88d4fde1461039057600080fd5b8063715018a6116100b0578063715018a61461030e5780638456cb59146103235780638da5cb5b1461033857600080fd5b80636a627842146102cd57806370a08231146102e057600080fd5b80633f4ba83a1161012257806355f804b31161010757806355f804b3146102755780635c975abb146102955780636352211e146102ad57600080fd5b80633f4ba83a1461024057806342842e0e1461025557600080fd5b8063081812fc11610153578063081812fc146101c6578063095ea7b3146101fe57806323b872dd1461022057600080fd5b806301ffc9a71461016f57806306fdde03146101a4575b600080fd5b34801561017b57600080fd5b5061018f61018a366004611594565b610439565b60405190151581526020015b60405180910390f35b3480156101b057600080fd5b506101b9610495565b60405161019b919061161f565b3480156101d257600080fd5b506101e66101e1366004611632565b610527565b6040516001600160a01b03909116815260200161019b565b34801561020a57600080fd5b5061021e610219366004611667565b610550565b005b34801561022c57600080fd5b5061021e61023b366004611691565b61055f565b34801561024c57600080fd5b5061021e610621565b34801561026157600080fd5b5061021e610270366004611691565b610633565b34801561028157600080fd5b5061021e610290366004611790565b610653565b3480156102a157600080fd5b5060075460ff1661018f565b3480156102b957600080fd5b506101e66102c8366004611632565b610667565b61021e6102db3660046117d9565b610672565b3480156102ec57600080fd5b506103006102fb3660046117d9565b6106ae565b60405190815260200161019b565b34801561031a57600080fd5b5061021e61070f565b34801561032f57600080fd5b5061021e610721565b34801561034457600080fd5b5060075461010090046001600160a01b03166101e6565b34801561036757600080fd5b506101b9610731565b34801561037c57600080fd5b5061021e61038b3660046117f4565b610740565b34801561039c57600080fd5b5061021e6103ab366004611830565b61074b565b3480156103bc57600080fd5b506101b96103cb366004611632565b610762565b3480156103dc57600080fd5b5061018f6103eb3660046118ac565b6001600160a01b03918216600090815260056020908152604080832093909416825291909152205460ff1690565b34801561042557600080fd5b5061021e6104343660046117d9565b610866565b60007fffffffff0000000000000000000000000000000000000000000000000000000082167f4906490600000000000000000000000000000000000000000000000000000000148061048f575061048f826108bd565b92915050565b6060600080546104a4906118df565b80601f01602080910402602001604051908101604052809291908181526020018280546104d0906118df565b801561051d5780601f106104f25761010080835404028352916020019161051d565b820191906000526020600020905b81548152906001019060200180831161050057829003601f168201915b5050505050905090565b6000610532826109a0565b506000828152600460205260409020546001600160a01b031661048f565b61055b8282336109f2565b5050565b6001600160a01b0382166105a7576040517f64a0ae92000000000000000000000000000000000000000000000000000000008152600060048201526024015b60405180910390fd5b60006105b48383336109ff565b9050836001600160a01b0316816001600160a01b03161461061b576040517f64283d7b0000000000000000000000000000000000000000000000000000000081526001600160a01b038086166004830152602482018490528216604482015260640161059e565b50505050565b610629610b2e565b610631610b7a565b565b61064e8383836040518060200160405280600081525061074b565b505050565b61065b610b2e565b600861055b8282611980565b600061048f826109a0565b61067e81600954610bea565b6106a2600954604051806080016040528060508152602001611b2360509139610c04565b50600980546001019055565b60006001600160a01b0382166106f3576040517f89c62b640000000000000000000000000000000000000000000000000000000081526000600482015260240161059e565b506001600160a01b031660009081526003602052604090205490565b610717610b2e565b6106316000610c54565b610729610b2e565b610631610cc5565b6060600180546104a4906118df565b61055b338383610d20565b61075684848461055f565b61061b84848484610df6565b606061076d826109a0565b5060008281526006602052604081208054610787906118df565b80601f01602080910402602001604051908101604052809291908181526020018280546107b3906118df565b80156108005780601f106107d557610100808354040283529160200191610800565b820191906000526020600020905b8154815290600101906020018083116107e357829003601f168201915b505050505090506000610811610fb9565b90508051600003610823575092915050565b81511561085557808260405160200161083d929190611a9a565b60405160208183030381529060405292505050919050565b61085e84610fc8565b949350505050565b61086e610b2e565b6001600160a01b0381166108b1576040517f1e4fbdf70000000000000000000000000000000000000000000000000000000081526000600482015260240161059e565b6108ba81610c54565b50565b60007fffffffff0000000000000000000000000000000000000000000000000000000082167f80ac58cd00000000000000000000000000000000000000000000000000000000148061095057507fffffffff0000000000000000000000000000000000000000000000000000000082167f5b5e139f00000000000000000000000000000000000000000000000000000000145b8061048f57507f01ffc9a7000000000000000000000000000000000000000000000000000000007fffffffff0000000000000000000000000000000000000000000000000000000083161461048f565b6000818152600260205260408120546001600160a01b03168061048f576040517f7e2732890000000000000000000000000000000000000000000000000000000081526004810184905260240161059e565b61064e8383836001611030565b6000828152600260205260408120546001600160a01b0390811690831615610a2c57610a2c818486611186565b6001600160a01b03811615610a8857610a49600085600080611030565b6001600160a01b038116600090815260036020526040902080547fffffffffffffffffffffffffffffffffffffffffffffffffffffffffffffffff0190555b6001600160a01b03851615610ab7576001600160a01b0385166000908152600360205260409020805460010190555b60008481526002602052604080822080547fffffffffffffffffffffffff0000000000000000000000000000000000000000166001600160a01b0389811691821790925591518793918516917fddf252ad1be2c89b69c2b068fc378daa952ba7f163c4a11628f55a4df523b3ef91a4949350505050565b6007546001600160a01b03610100909104163314610631576040517f118cdaa700000000000000000000000000000000000000000000000000000000815233600482015260240161059e565b610b8261121c565b600780547fffffffffffffffffffffffffffffffffffffffffffffffffffffffffffffff001690557f5db9ee0a495bf2e6ff9c91a7834c1ba4fdd244a5e8aa4e537bd38aeae4b073aa335b6040516001600160a01b03909116815260200160405180910390a1565b61055b828260405180602001604052806000815250611258565b6000828152600660205260409020610c1c8282611980565b506040518281527ff8e1a15aba9398e019f0b49df1a4fde98ee17ae345cb5f6b5e2c27f5033e8ce79060200160405180910390a15050565b600780546001600160a01b038381166101008181027fffffffffffffffffffffff0000000000000000000000000000000000000000ff85161790945560405193909204169182907f8be0079c531659141344cd1fd0a4f28419497f9722a3daafe3b4186f6b6457e090600090a35050565b610ccd61126f565b600780547fffffffffffffffffffffffffffffffffffffffffffffffffffffffffffffff001660011790557f62e78cea01bee320cd4e420270b5ea74000d11b0c9f74754ebdbfc544b05a258610bcd3390565b6001600160a01b038216610d6b576040517f5b08ba180000000000000000000000000000000000000000000000000000000081526001600160a01b038316600482015260240161059e565b6001600160a01b0383811660008181526005602090815260408083209487168084529482529182902080547fffffffffffffffffffffffffffffffffffffffffffffffffffffffffffffff001686151590811790915591519182527f17307eab39ab6107e8899845ad3d59bd9653f200f220920489ca2b5937696c31910160405180910390a3505050565b6001600160a01b0383163b1561061b576040517f150b7a020000000000000000000000000000000000000000000000000000000081526001600160a01b0384169063150b7a0290610e51903390889087908790600401611ac9565b6020604051808303816000875af1925050508015610eaa575060408051601f3d9081017fffffffffffffffffffffffffffffffffffffffffffffffffffffffffffffffe0168201909252610ea791810190611b05565b60015b610f2c573d808015610ed8576040519150601f19603f3d011682016040523d82523d6000602084013e610edd565b606091505b508051600003610f24576040517f64a0ae920000000000000000000000000000000000000000000000000000000081526001600160a01b038516600482015260240161059e565b805181602001fd5b7fffffffff0000000000000000000000000000000000000000000000000000000081167f150b7a020000000000000000000000000000000000000000000000000000000014610fb2576040517f64a0ae920000000000000000000000000000000000000000000000000000000081526001600160a01b038516600482015260240161059e565b5050505050565b6060600880546104a4906118df565b6060610fd3826109a0565b506000610fde610fb9565b90506000815111610ffe5760405180602001604052806000815250611029565b80611008846112ac565b604051602001611019929190611a9a565b6040516020818303038152906040525b9392505050565b808061104457506001600160a01b03821615155b1561113e576000611054846109a0565b90506001600160a01b038316158015906110805750826001600160a01b0316816001600160a01b031614155b80156110b257506001600160a01b0380821660009081526005602090815260408083209387168352929052205460ff16155b156110f4576040517fa9fbf51f0000000000000000000000000000000000000000000000000000000081526001600160a01b038416600482015260240161059e565b811561113c5783856001600160a01b0316826001600160a01b03167f8c5be1e5ebec7d5bd14f71427d1e84f3dd0314c0f7b2291e5b200ac8c7c3b92560405160405180910390a45b505b5050600090815260046020526040902080547fffffffffffffffffffffffff0000000000000000000000000000000000000000166001600160a01b0392909216919091179055565b61119183838361136a565b61064e576001600160a01b0383166111d8576040517f7e2732890000000000000000000000000000000000000000000000000000000081526004810182905260240161059e565b6040517f177e802f0000000000000000000000000000000000000000000000000000000081526001600160a01b03831660048201526024810182905260440161059e565b60075460ff16610631576040517f8dfc202b00000000000000000000000000000000000000000000000000000000815260040160405180910390fd5b61126283836113ed565b61064e6000848484610df6565b60075460ff1615610631576040517fd93c066500000000000000000000000000000000000000000000000000000000815260040160405180910390fd5b606060006112b983611484565b600101905060008167ffffffffffffffff8111156112d9576112d96116cd565b6040519080825280601f01601f191660200182016040528015611303576020820181803683370190505b5090508181016020015b7fffffffffffffffffffffffffffffffffffffffffffffffffffffffffffffffff017f3031323334353637383961626364656600000000000000000000000000000000600a86061a8153600a850494508461130d57509392505050565b60006001600160a01b0383161580159061085e5750826001600160a01b0316846001600160a01b031614806113c457506001600160a01b0380851660009081526005602090815260408083209387168352929052205460ff165b8061085e5750506000908152600460205260409020546001600160a01b03908116911614919050565b6001600160a01b038216611430576040517f64a0ae920000000000000000000000000000000000000000000000000000000081526000600482015260240161059e565b600061143e838360006109ff565b90506001600160a01b0381161561064e576040517f73c6ac6e0000000000000000000000000000000000000000000000000000000081526000600482015260240161059e565b6000807a184f03e93ff9f4daa797ed6e38ed64bf6a1f01000000000000000083106114cd577a184f03e93ff9f4daa797ed6e38ed64bf6a1f010000000000000000830492506040015b6d04ee2d6d415b85acef810000000083106114f9576d04ee2d6d415b85acef8100000000830492506020015b662386f26fc10000831061151757662386f26fc10000830492506010015b6305f5e100831061152f576305f5e100830492506008015b612710831061154357612710830492506004015b60648310611555576064830492506002015b600a831061048f5760010192915050565b7fffffffff00000000000000000000000000000000000000000000000000000000811681146108ba57600080fd5b6000602082840312156115a657600080fd5b813561102981611566565b60005b838110156115cc5781810151838201526020016115b4565b50506000910152565b600081518084526115ed8160208601602086016115b1565b601f017fffffffffffffffffffffffffffffffffffffffffffffffffffffffffffffffe0169290920160200192915050565b60208152600061102960208301846115d5565b60006020828403121561164457600080fd5b5035919050565b80356001600160a01b038116811461166257600080fd5b919050565b6000806040838503121561167a57600080fd5b6116838361164b565b946020939093013593505050565b6000806000606084860312156116a657600080fd5b6116af8461164b565b92506116bd6020850161164b565b9150604084013590509250925092565b7f4e487b7100000000000000000000000000000000000000000000000000000000600052604160045260246000fd5b600067ffffffffffffffff80841115611717576117176116cd565b604051601f85017fffffffffffffffffffffffffffffffffffffffffffffffffffffffffffffffe0908116603f0116810190828211818310171561175d5761175d6116cd565b8160405280935085815286868601111561177657600080fd5b858560208301376000602087830101525050509392505050565b6000602082840312156117a257600080fd5b813567ffffffffffffffff8111156117b957600080fd5b8201601f810184136117ca57600080fd5b61085e848235602084016116fc565b6000602082840312156117eb57600080fd5b6110298261164b565b6000806040838503121561180757600080fd5b6118108361164b565b91506020830135801515811461182557600080fd5b809150509250929050565b6000806000806080858703121561184657600080fd5b61184f8561164b565b935061185d6020860161164b565b925060408501359150606085013567ffffffffffffffff81111561188057600080fd5b8501601f8101871361189157600080fd5b6118a0878235602084016116fc565b91505092959194509250565b600080604083850312156118bf57600080fd5b6118c88361164b565b91506118d66020840161164b565b90509250929050565b600181811c908216806118f357607f821691505b60208210810361192c577f4e487b7100000000000000000000000000000000000000000000000000000000600052602260045260246000fd5b50919050565b601f82111561064e57600081815260208120601f850160051c810160208610156119595750805b601f850160051c820191505b8181101561197857828155600101611965565b505050505050565b815167ffffffffffffffff81111561199a5761199a6116cd565b6119ae816119a884546118df565b84611932565b602080601f831160018114611a0157600084156119cb5750858301515b7fffffffffffffffffffffffffffffffffffffffffffffffffffffffffffffffff600386901b1c1916600185901b178555611978565b6000858152602081207fffffffffffffffffffffffffffffffffffffffffffffffffffffffffffffffe08616915b82811015611a4e57888601518255948401946001909101908401611a2f565b5085821015611a8a57878501517fffffffffffffffffffffffffffffffffffffffffffffffffffffffffffffffff600388901b60f8161c191681555b5050505050600190811b01905550565b60008351611aac8184602088016115b1565b835190830190611ac08183602088016115b1565b01949350505050565b60006001600160a01b03808716835280861660208401525083604083015260806060830152611afb60808301846115d5565b9695505050505050565b600060208284031215611b1757600080fd5b81516110298161156656fe68747470733a2f2f697066732e696f2f697066732f6261666b726569646374666978336b367669676b676a6f6c7677336a617265647a6e69726534763461627434706a7574376d6f6f756468336a6965a164736f6c6343000815000a",
    "linkReferences": {}
  },
  "methodIdentifiers": {
    "approve(address,uint256)": "095ea7b3",
    "balanceOf(address)": "70a08231",
    "getApproved(uint256)": "081812fc",
    "isApprovedForAll(address,address)": "e985e9c5",
    "mint(address)": "6a627842",
    "name()": "06fdde03",
    "owner()": "8da5cb5b",
    "ownerOf(uint256)": "6352211e",
    "pause()": "8456cb59",
    "paused()": "5c975abb",
    "renounceOwnership()": "715018a6",
    "safeTransferFrom(address,address,uint256)": "42842e0e",
    "safeTransferFrom(address,address,uint256,bytes)": "b88d4fde",
    "setApprovalForAll(address,bool)": "a22cb465",
    "setBaseURI(string)": "55f804b3",
    "supportsInterface(bytes4)": "01ffc9a7",
    "symbol()": "95d89b41",
    "tokenURI(uint256)": "c87b56dd",
    "transferFrom(address,address,uint256)": "23b872dd",
    "transferOwnership(address)": "f2fde38b",
    "unpause()": "3f4ba83a"
  },
  "id": 83
}