{
  "abi": [
    {
      "inputs": [
        {
          "internalType": "address",
          "name": "linkToken",
          "type": "address"
        },
        {
          "components": [
            {
              "internalType": "uint16",
              "name": "maxConsumersPerSubscription",
              "type": "uint16"
            },
            {
              "internalType": "uint72",
              "name": "adminFee",
              "type": "uint72"
            },
            {
              "internalType": "bytes4",
              "name": "handleOracleFulfillmentSelector",
              "type": "bytes4"
            },
            {
              "internalType": "uint16",
              "name": "gasForCallExactCheck",
              "type": "uint16"
            },
            {
              "internalType": "uint32[]",
              "name": "maxCallbackGasLimits",
              "type": "uint32[]"
            },
            {
              "internalType": "uint16",
              "name": "subscriptionDepositMinimumRequests",
              "type": "uint16"
            },
            {
              "internalType": "uint72",
              "name": "subscriptionDepositJuels",
              "type": "uint72"
            }
          ],
          "internalType": "struct FunctionsRouter.Config",
          "name": "config",
          "type": "tuple"
        }
      ],
      "stateMutability": "nonpayable",
      "type": "constructor"
    },
    {
      "inputs": [],
      "name": "CannotRemoveWithPendingRequests",
      "type": "error"
    },
    {
      "inputs": [
        {
          "internalType": "bytes32",
          "name": "requestId",
          "type": "bytes32"
        }
      ],
      "name": "DuplicateRequestId",
      "type": "error"
    },
    {
      "inputs": [],
      "name": "EmptyRequestData",
      "type": "error"
    },
    {
      "inputs": [
        {
          "internalType": "uint32",
          "name": "limit",
          "type": "uint32"
        }
      ],
      "name": "GasLimitTooBig",
      "type": "error"
    },
    {
      "inputs": [
        {
          "internalType": "bytes32",
          "name": "id",
          "type": "bytes32"
        }
      ],
      "name": "IdentifierIsReserved",
      "type": "error"
    },
    {
      "inputs": [
        {
          "internalType": "uint96",
          "name": "currentBalanceJuels",
          "type": "uint96"
        }
      ],
      "name": "InsufficientBalance",
      "type": "error"
    },
    {
      "inputs": [],
      "name": "InvalidCalldata",
      "type": "error"
    },
    {
      "inputs": [],
      "name": "InvalidConsumer",
      "type": "error"
    },
    {
      "inputs": [
        {
          "internalType": "uint8",
          "name": "value",
          "type": "uint8"
        }
      ],
      "name": "InvalidGasFlagValue",
      "type": "error"
    },
    {
      "inputs": [],
      "name": "InvalidProposal",
      "type": "error"
    },
    {
      "inputs": [],
      "name": "InvalidSubscription",
      "type": "error"
    },
    {
      "inputs": [
        {
          "internalType": "address",
          "name": "proposedOwner",
          "type": "address"
        }
      ],
      "name": "MustBeProposedOwner",
      "type": "error"
    },
    {
      "inputs": [],
      "name": "MustBeSubscriptionOwner",
      "type": "error"
    },
    {
      "inputs": [],
      "name": "OnlyCallableFromCoordinator",
      "type": "error"
    },
    {
      "inputs": [],
      "name": "OnlyCallableFromLink",
      "type": "error"
    },
    {
      "inputs": [
        {
          "internalType": "bytes32",
          "name": "id",
          "type": "bytes32"
        }
      ],
      "name": "RouteNotFound",
      "type": "error"
    },
    {
      "inputs": [
        {
          "internalType": "address",
          "name": "sender",
          "type": "address"
        }
      ],
      "name": "SenderMustAcceptTermsOfService",
      "type": "error"
    },
    {
      "inputs": [],
      "name": "TimeoutNotExceeded",
      "type": "error"
    },
    {
      "inputs": [
        {
          "internalType": "uint16",
          "name": "maximumConsumers",
          "type": "uint16"
        }
      ],
      "name": "TooManyConsumers",
      "type": "error"
    },
    {
      "anonymous": false,
      "inputs": [
        {
          "components": [
            {
              "internalType": "uint16",
              "name": "maxConsumersPerSubscription",
              "type": "uint16"
            },
            {
              "internalType": "uint72",
              "name": "adminFee",
              "type": "uint72"
            },
            {
              "internalType": "bytes4",
              "name": "handleOracleFulfillmentSelector",
              "type": "bytes4"
            },
            {
              "internalType": "uint16",
              "name": "gasForCallExactCheck",
              "type": "uint16"
            },
            {
              "internalType": "uint32[]",
              "name": "maxCallbackGasLimits",
              "type": "uint32[]"
            },
            {
              "internalType": "uint16",
              "name": "subscriptionDepositMinimumRequests",
              "type": "uint16"
            },
            {
              "internalType": "uint72",
              "name": "subscriptionDepositJuels",
              "type": "uint72"
            }
          ],
          "indexed": false,
          "internalType": "struct FunctionsRouter.Config",
          "name": "",
          "type": "tuple"
        }
      ],
      "name": "ConfigUpdated",
      "type": "event"
    },
    {
      "anonymous": false,
      "inputs": [
        {
          "indexed": false,
          "internalType": "bytes32",
          "name": "proposedContractSetId",
          "type": "bytes32"
        },
        {
          "indexed": false,
          "internalType": "address",
          "name": "proposedContractSetFromAddress",
          "type": "address"
        },
        {
          "indexed": false,
          "internalType": "address",
          "name": "proposedContractSetToAddress",
          "type": "address"
        }
      ],
      "name": "ContractProposed",
      "type": "event"
    },
    {
      "anonymous": false,
      "inputs": [
        {
          "indexed": false,
          "internalType": "bytes32",
          "name": "id",
          "type": "bytes32"
        },
        {
          "indexed": false,
          "internalType": "address",
          "name": "from",
          "type": "address"
        },
        {
          "indexed": false,
          "internalType": "address",
          "name": "to",
          "type": "address"
        }
      ],
      "name": "ContractUpdated",
      "type": "event"
    },
    {
      "anonymous": false,
      "inputs": [
        {
          "indexed": false,
          "internalType": "address",
          "name": "to",
          "type": "address"
        },
        {
          "indexed": false,
          "internalType": "uint256",
          "name": "amount",
          "type": "uint256"
        }
      ],
      "name": "FundsRecovered",
      "type": "event"
    },
    {
      "anonymous": false,
      "inputs": [
        {
          "indexed": true,
          "internalType": "address",
          "name": "from",
          "type": "address"
        },
        {
          "indexed": true,
          "internalType": "address",
          "name": "to",
          "type": "address"
        }
      ],
      "name": "OwnershipTransferRequested",
      "type": "event"
    },
    {
      "anonymous": false,
      "inputs": [
        {
          "indexed": true,
          "internalType": "address",
          "name": "from",
          "type": "address"
        },
        {
          "indexed": true,
          "internalType": "address",
          "name": "to",
          "type": "address"
        }
      ],
      "name": "OwnershipTransferred",
      "type": "event"
    },
    {
      "anonymous": false,
      "inputs": [
        {
          "indexed": false,
          "internalType": "address",
          "name": "account",
          "type": "address"
        }
      ],
      "name": "Paused",
      "type": "event"
    },
    {
      "anonymous": false,
      "inputs": [
        {
          "indexed": true,
          "internalType": "bytes32",
          "name": "requestId",
          "type": "bytes32"
        },
        {
          "indexed": false,
          "internalType": "address",
          "name": "coordinator",
          "type": "address"
        },
        {
          "indexed": false,
          "internalType": "address",
          "name": "transmitter",
          "type": "address"
        },
        {
          "indexed": false,
          "internalType": "enum FunctionsResponse.FulfillResult",
          "name": "resultCode",
          "type": "uint8"
        }
      ],
      "name": "RequestNotProcessed",
      "type": "event"
    },
    {
      "anonymous": false,
      "inputs": [
        {
          "indexed": true,
          "internalType": "bytes32",
          "name": "requestId",
          "type": "bytes32"
        },
        {
          "indexed": true,
          "internalType": "uint64",
          "name": "subscriptionId",
          "type": "uint64"
        },
        {
          "indexed": false,
          "internalType": "uint96",
          "name": "totalCostJuels",
          "type": "uint96"
        },
        {
          "indexed": false,
          "internalType": "address",
          "name": "transmitter",
          "type": "address"
        },
        {
          "indexed": false,
          "internalType": "enum FunctionsResponse.FulfillResult",
          "name": "resultCode",
          "type": "uint8"
        },
        {
          "indexed": false,
          "internalType": "bytes",
          "name": "response",
          "type": "bytes"
        },
        {
          "indexed": false,
          "internalType": "bytes",
          "name": "err",
          "type": "bytes"
        },
        {
          "indexed": false,
          "internalType": "bytes",
          "name": "callbackReturnData",
          "type": "bytes"
        }
      ],
      "name": "RequestProcessed",
      "type": "event"
    },
    {
      "anonymous": false,
      "inputs": [
        {
          "indexed": true,
          "internalType": "bytes32",
          "name": "requestId",
          "type": "bytes32"
        },
        {
          "indexed": true,
          "internalType": "bytes32",
          "name": "donId",
          "type": "bytes32"
        },
        {
          "indexed": true,
          "internalType": "uint64",
          "name": "subscriptionId",
          "type": "uint64"
        },
        {
          "indexed": false,
          "internalType": "address",
          "name": "subscriptionOwner",
          "type": "address"
        },
        {
          "indexed": false,
          "internalType": "address",
          "name": "requestingContract",
          "type": "address"
        },
        {
          "indexed": false,
          "internalType": "address",
          "name": "requestInitiator",
          "type": "address"
        },
        {
          "indexed": false,
          "internalType": "bytes",
          "name": "data",
          "type": "bytes"
        },
        {
          "indexed": false,
          "internalType": "uint16",
          "name": "dataVersion",
          "type": "uint16"
        },
        {
          "indexed": false,
          "internalType": "uint32",
          "name": "callbackGasLimit",
          "type": "uint32"
        },
        {
          "indexed": false,
          "internalType": "uint96",
          "name": "estimatedTotalCostJuels",
          "type": "uint96"
        }
      ],
      "name": "RequestStart",
      "type": "event"
    },
    {
      "anonymous": false,
      "inputs": [
        {
          "indexed": true,
          "internalType": "bytes32",
          "name": "requestId",
          "type": "bytes32"
        }
      ],
      "name": "RequestTimedOut",
      "type": "event"
    },
    {
      "anonymous": false,
      "inputs": [
        {
          "indexed": true,
          "internalType": "uint64",
          "name": "subscriptionId",
          "type": "uint64"
        },
        {
          "indexed": false,
          "internalType": "address",
          "name": "fundsRecipient",
          "type": "address"
        },
        {
          "indexed": false,
          "internalType": "uint256",
          "name": "fundsAmount",
          "type": "uint256"
        }
      ],
      "name": "SubscriptionCanceled",
      "type": "event"
    },
    {
      "anonymous": false,
      "inputs": [
        {
          "indexed": true,
          "internalType": "uint64",
          "name": "subscriptionId",
          "type": "uint64"
        },
        {
          "indexed": false,
          "internalType": "address",
          "name": "consumer",
          "type": "address"
        }
      ],
      "name": "SubscriptionConsumerAdded",
      "type": "event"
    },
    {
      "anonymous": false,
      "inputs": [
        {
          "indexed": true,
          "internalType": "uint64",
          "name": "subscriptionId",
          "type": "uint64"
        },
        {
          "indexed": false,
          "internalType": "address",
          "name": "consumer",
          "type": "address"
        }
      ],
      "name": "SubscriptionConsumerRemoved",
      "type": "event"
    },
    {
      "anonymous": false,
      "inputs": [
        {
          "indexed": true,
          "internalType": "uint64",
          "name": "subscriptionId",
          "type": "uint64"
        },
        {
          "indexed": false,
          "internalType": "address",
          "name": "owner",
          "type": "address"
        }
      ],
      "name": "SubscriptionCreated",
      "type": "event"
    },
    {
      "anonymous": false,
      "inputs": [
        {
          "indexed": true,
          "internalType": "uint64",
          "name": "subscriptionId",
          "type": "uint64"
        },
        {
          "indexed": false,
          "internalType": "uint256",
          "name": "oldBalance",
          "type": "uint256"
        },
        {
          "indexed": false,
          "internalType": "uint256",
          "name": "newBalance",
          "type": "uint256"
        }
      ],
      "name": "SubscriptionFunded",
      "type": "event"
    },
    {
      "anonymous": false,
      "inputs": [
        {
          "indexed": true,
          "internalType": "uint64",
          "name": "subscriptionId",
          "type": "uint64"
        },
        {
          "indexed": false,
          "internalType": "address",
          "name": "from",
          "type": "address"
        },
        {
          "indexed": false,
          "internalType": "address",
          "name": "to",
          "type": "address"
        }
      ],
      "name": "SubscriptionOwnerTransferRequested",
      "type": "event"
    },
    {
      "anonymous": false,
      "inputs": [
        {
          "indexed": true,
          "internalType": "uint64",
          "name": "subscriptionId",
          "type": "uint64"
        },
        {
          "indexed": false,
          "internalType": "address",
          "name": "from",
          "type": "address"
        },
        {
          "indexed": false,
          "internalType": "address",
          "name": "to",
          "type": "address"
        }
      ],
      "name": "SubscriptionOwnerTransferred",
      "type": "event"
    },
    {
      "anonymous": false,
      "inputs": [
        {
          "indexed": false,
          "internalType": "address",
          "name": "account",
          "type": "address"
        }
      ],
      "name": "Unpaused",
      "type": "event"
    },
    {
      "inputs": [],
      "name": "MAX_CALLBACK_RETURN_BYTES",
      "outputs": [
        {
          "internalType": "uint16",
          "name": "",
          "type": "uint16"
        }
      ],
      "stateMutability": "view",
      "type": "function"
    },
    {
      "inputs": [],
      "name": "acceptOwnership",
      "outputs": [],
      "stateMutability": "nonpayable",
      "type": "function"
    },
    {
      "inputs": [
        {
          "internalType": "uint64",
          "name": "subscriptionId",
          "type": "uint64"
        }
      ],
      "name": "acceptSubscriptionOwnerTransfer",
      "outputs": [],
      "stateMutability": "nonpayable",
      "type": "function"
    },
    {
      "inputs": [
        {
          "internalType": "uint64",
          "name": "subscriptionId",
          "type": "uint64"
        },
        {
          "internalType": "address",
          "name": "consumer",
          "type": "address"
        }
      ],
      "name": "addConsumer",
      "outputs": [],
      "stateMutability": "nonpayable",
      "type": "function"
    },
    {
      "inputs": [
        {
          "internalType": "uint64",
          "name": "subscriptionId",
          "type": "uint64"
        },
        {
          "internalType": "address",
          "name": "to",
          "type": "address"
        }
      ],
      "name": "cancelSubscription",
      "outputs": [],
      "stateMutability": "nonpayable",
      "type": "function"
    },
    {
      "inputs": [],
      "name": "createSubscription",
      "outputs": [
        {
          "internalType": "uint64",
          "name": "subscriptionId",
          "type": "uint64"
        }
      ],
      "stateMutability": "nonpayable",
      "type": "function"
    },
    {
      "inputs": [
        {
          "internalType": "address",
          "name": "consumer",
          "type": "address"
        }
      ],
      "name": "createSubscriptionWithConsumer",
      "outputs": [
        {
          "internalType": "uint64",
          "name": "subscriptionId",
          "type": "uint64"
        }
      ],
      "stateMutability": "nonpayable",
      "type": "function"
    },
    {
      "inputs": [
        {
          "internalType": "bytes",
          "name": "response",
          "type": "bytes"
        },
        {
          "internalType": "bytes",
          "name": "err",
          "type": "bytes"
        },
        {
          "internalType": "uint96",
          "name": "juelsPerGas",
          "type": "uint96"
        },
        {
          "internalType": "uint96",
          "name": "costWithoutCallback",
          "type": "uint96"
        },
        {
          "internalType": "address",
          "name": "transmitter",
          "type": "address"
        },
        {
          "components": [
            {
              "internalType": "bytes32",
              "name": "requestId",
              "type": "bytes32"
            },
            {
              "internalType": "address",
              "name": "coordinator",
              "type": "address"
            },
            {
              "internalType": "uint96",
              "name": "estimatedTotalCostJuels",
              "type": "uint96"
            },
            {
              "internalType": "address",
              "name": "client",
              "type": "address"
            },
            {
              "internalType": "uint64",
              "name": "subscriptionId",
              "type": "uint64"
            },
            {
              "internalType": "uint32",
              "name": "callbackGasLimit",
              "type": "uint32"
            },
            {
              "internalType": "uint72",
              "name": "adminFee",
              "type": "uint72"
            },
            {
              "internalType": "uint72",
              "name": "donFee",
              "type": "uint72"
            },
            {
              "internalType": "uint40",
              "name": "gasOverheadBeforeCallback",
              "type": "uint40"
            },
            {
              "internalType": "uint40",
              "name": "gasOverheadAfterCallback",
              "type": "uint40"
            },
            {
              "internalType": "uint32",
              "name": "timeoutTimestamp",
              "type": "uint32"
            }
          ],
          "internalType": "struct FunctionsResponse.Commitment",
          "name": "commitment",
          "type": "tuple"
        }
      ],
      "name": "fulfill",
      "outputs": [
        {
          "internalType": "enum FunctionsResponse.FulfillResult",
          "name": "resultCode",
          "type": "uint8"
        },
        {
          "internalType": "uint96",
          "name": "",
          "type": "uint96"
        }
      ],
      "stateMutability": "nonpayable",
      "type": "function"
    },
    {
      "inputs": [],
      "name": "getAdminFee",
      "outputs": [
        {
          "internalType": "uint72",
          "name": "",
          "type": "uint72"
        }
      ],
      "stateMutability": "view",
      "type": "function"
    },
    {
      "inputs": [],
      "name": "getAllowListId",
      "outputs": [
        {
          "internalType": "bytes32",
          "name": "",
          "type": "bytes32"
        }
      ],
      "stateMutability": "view",
      "type": "function"
    },
    {
      "inputs": [],
      "name": "getConfig",
      "outputs": [
        {
          "components": [
            {
              "internalType": "uint16",
              "name": "maxConsumersPerSubscription",
              "type": "uint16"
            },
            {
              "internalType": "uint72",
              "name": "adminFee",
              "type": "uint72"
            },
            {
              "internalType": "bytes4",
              "name": "handleOracleFulfillmentSelector",
              "type": "bytes4"
            },
            {
              "internalType": "uint16",
              "name": "gasForCallExactCheck",
              "type": "uint16"
            },
            {
              "internalType": "uint32[]",
              "name": "maxCallbackGasLimits",
              "type": "uint32[]"
            },
            {
              "internalType": "uint16",
              "name": "subscriptionDepositMinimumRequests",
              "type": "uint16"
            },
            {
              "internalType": "uint72",
              "name": "subscriptionDepositJuels",
              "type": "uint72"
            }
          ],
          "internalType": "struct FunctionsRouter.Config",
          "name": "",
          "type": "tuple"
        }
      ],
      "stateMutability": "view",
      "type": "function"
    },
    {
      "inputs": [
        {
          "internalType": "address",
          "name": "client",
          "type": "address"
        },
        {
          "internalType": "uint64",
          "name": "subscriptionId",
          "type": "uint64"
        }
      ],
      "name": "getConsumer",
      "outputs": [
        {
          "components": [
            {
              "internalType": "bool",
              "name": "allowed",
              "type": "bool"
            },
            {
              "internalType": "uint64",
              "name": "initiatedRequests",
              "type": "uint64"
            },
            {
              "internalType": "uint64",
              "name": "completedRequests",
              "type": "uint64"
            }
          ],
          "internalType": "struct IFunctionsSubscriptions.Consumer",
          "name": "",
          "type": "tuple"
        }
      ],
      "stateMutability": "view",
      "type": "function"
    },
    {
      "inputs": [
        {
          "internalType": "bytes32",
          "name": "id",
          "type": "bytes32"
        }
      ],
      "name": "getContractById",
      "outputs": [
        {
          "internalType": "address",
          "name": "",
          "type": "address"
        }
      ],
      "stateMutability": "view",
      "type": "function"
    },
    {
      "inputs": [
        {
          "internalType": "uint64",
          "name": "subscriptionId",
          "type": "uint64"
        }
      ],
      "name": "getFlags",
      "outputs": [
        {
          "internalType": "bytes32",
          "name": "",
          "type": "bytes32"
        }
      ],
      "stateMutability": "view",
      "type": "function"
    },
    {
      "inputs": [
        {
          "internalType": "bytes32",
          "name": "id",
          "type": "bytes32"
        }
      ],
      "name": "getProposedContractById",
      "outputs": [
        {
          "internalType": "address",
          "name": "",
          "type": "address"
        }
      ],
      "stateMutability": "view",
      "type": "function"
    },
    {
      "inputs": [],
      "name": "getProposedContractSet",
      "outputs": [
        {
          "internalType": "bytes32[]",
          "name": "",
          "type": "bytes32[]"
        },
        {
          "internalType": "address[]",
          "name": "",
          "type": "address[]"
        }
      ],
      "stateMutability": "view",
      "type": "function"
    },
    {
      "inputs": [
        {
          "internalType": "uint64",
          "name": "subscriptionId",
          "type": "uint64"
        }
      ],
      "name": "getSubscription",
      "outputs": [
        {
          "components": [
            {
              "internalType": "uint96",
              "name": "balance",
              "type": "uint96"
            },
            {
              "internalType": "address",
              "name": "owner",
              "type": "address"
            },
            {
              "internalType": "uint96",
              "name": "blockedBalance",
              "type": "uint96"
            },
            {
              "internalType": "address",
              "name": "proposedOwner",
              "type": "address"
            },
            {
              "internalType": "address[]",
              "name": "consumers",
              "type": "address[]"
            },
            {
              "internalType": "bytes32",
              "name": "flags",
              "type": "bytes32"
            }
          ],
          "internalType": "struct IFunctionsSubscriptions.Subscription",
          "name": "",
          "type": "tuple"
        }
      ],
      "stateMutability": "view",
      "type": "function"
    },
    {
      "inputs": [],
      "name": "getSubscriptionCount",
      "outputs": [
        {
          "internalType": "uint64",
          "name": "",
          "type": "uint64"
        }
      ],
      "stateMutability": "view",
      "type": "function"
    },
    {
      "inputs": [
        {
          "internalType": "uint64",
          "name": "subscriptionIdStart",
          "type": "uint64"
        },
        {
          "internalType": "uint64",
          "name": "subscriptionIdEnd",
          "type": "uint64"
        }
      ],
      "name": "getSubscriptionsInRange",
      "outputs": [
        {
          "components": [
            {
              "internalType": "uint96",
              "name": "balance",
              "type": "uint96"
            },
            {
              "internalType": "address",
              "name": "owner",
              "type": "address"
            },
            {
              "internalType": "uint96",
              "name": "blockedBalance",
              "type": "uint96"
            },
            {
              "internalType": "address",
              "name": "proposedOwner",
              "type": "address"
            },
            {
              "internalType": "address[]",
              "name": "consumers",
              "type": "address[]"
            },
            {
              "internalType": "bytes32",
              "name": "flags",
              "type": "bytes32"
            }
          ],
          "internalType": "struct IFunctionsSubscriptions.Subscription[]",
          "name": "subscriptions",
          "type": "tuple[]"
        }
      ],
      "stateMutability": "view",
      "type": "function"
    },
    {
      "inputs": [],
      "name": "getTotalBalance",
      "outputs": [
        {
          "internalType": "uint96",
          "name": "",
          "type": "uint96"
        }
      ],
      "stateMutability": "view",
      "type": "function"
    },
    {
      "inputs": [
        {
          "internalType": "uint64",
          "name": "subscriptionId",
          "type": "uint64"
        },
        {
          "internalType": "uint32",
          "name": "callbackGasLimit",
          "type": "uint32"
        }
      ],
      "name": "isValidCallbackGasLimit",
      "outputs": [],
      "stateMutability": "view",
      "type": "function"
    },
    {
      "inputs": [
        {
          "internalType": "address",
          "name": "",
          "type": "address"
        },
        {
          "internalType": "uint256",
          "name": "amount",
          "type": "uint256"
        },
        {
          "internalType": "bytes",
          "name": "data",
          "type": "bytes"
        }
      ],
      "name": "onTokenTransfer",
      "outputs": [],
      "stateMutability": "nonpayable",
      "type": "function"
    },
    {
      "inputs": [
        {
          "internalType": "address",
          "name": "recipient",
          "type": "address"
        },
        {
          "internalType": "uint96",
          "name": "amount",
          "type": "uint96"
        }
      ],
      "name": "oracleWithdraw",
      "outputs": [],
      "stateMutability": "nonpayable",
      "type": "function"
    },
    {
      "inputs": [],
      "name": "owner",
      "outputs": [
        {
          "internalType": "address",
          "name": "",
          "type": "address"
        }
      ],
      "stateMutability": "view",
      "type": "function"
    },
    {
      "inputs": [
        {
          "internalType": "uint64",
          "name": "subscriptionId",
          "type": "uint64"
        }
      ],
      "name": "ownerCancelSubscription",
      "outputs": [],
      "stateMutability": "nonpayable",
      "type": "function"
    },
    {
      "inputs": [
        {
          "internalType": "address",
          "name": "recipient",
          "type": "address"
        },
        {
          "internalType": "uint96",
          "name": "amount",
          "type": "uint96"
        }
      ],
      "name": "ownerWithdraw",
      "outputs": [],
      "stateMutability": "nonpayable",
      "type": "function"
    },
    {
      "inputs": [],
      "name": "pause",
      "outputs": [],
      "stateMutability": "nonpayable",
      "type": "function"
    },
    {
      "inputs": [],
      "name": "paused",
      "outputs": [
        {
          "internalType": "bool",
          "name": "",
          "type": "bool"
        }
      ],
      "stateMutability": "view",
      "type": "function"
    },
    {
      "inputs": [
        {
          "internalType": "uint64",
          "name": "subscriptionId",
          "type": "uint64"
        }
      ],
      "name": "pendingRequestExists",
      "outputs": [
        {
          "internalType": "bool",
          "name": "",
          "type": "bool"
        }
      ],
      "stateMutability": "view",
      "type": "function"
    },
    {
      "inputs": [
        {
          "internalType": "bytes32[]",
          "name": "proposedContractSetIds",
          "type": "bytes32[]"
        },
        {
          "internalType": "address[]",
          "name": "proposedContractSetAddresses",
          "type": "address[]"
        }
      ],
      "name": "proposeContractsUpdate",
      "outputs": [],
      "stateMutability": "nonpayable",
      "type": "function"
    },
    {
      "inputs": [
        {
          "internalType": "uint64",
          "name": "subscriptionId",
          "type": "uint64"
        },
        {
          "internalType": "address",
          "name": "newOwner",
          "type": "address"
        }
      ],
      "name": "proposeSubscriptionOwnerTransfer",
      "outputs": [],
      "stateMutability": "nonpayable",
      "type": "function"
    },
    {
      "inputs": [
        {
          "internalType": "address",
          "name": "to",
          "type": "address"
        }
      ],
      "name": "recoverFunds",
      "outputs": [],
      "stateMutability": "nonpayable",
      "type": "function"
    },
    {
      "inputs": [
        {
          "internalType": "uint64",
          "name": "subscriptionId",
          "type": "uint64"
        },
        {
          "internalType": "address",
          "name": "consumer",
          "type": "address"
        }
      ],
      "name": "removeConsumer",
      "outputs": [],
      "stateMutability": "nonpayable",
      "type": "function"
    },
    {
      "inputs": [
        {
          "internalType": "uint64",
          "name": "subscriptionId",
          "type": "uint64"
        },
        {
          "internalType": "bytes",
          "name": "data",
          "type": "bytes"
        },
        {
          "internalType": "uint16",
          "name": "dataVersion",
          "type": "uint16"
        },
        {
          "internalType": "uint32",
          "name": "callbackGasLimit",
          "type": "uint32"
        },
        {
          "internalType": "bytes32",
          "name": "donId",
          "type": "bytes32"
        }
      ],
      "name": "sendRequest",
      "outputs": [
        {
          "internalType": "bytes32",
          "name": "",
          "type": "bytes32"
        }
      ],
      "stateMutability": "nonpayable",
      "type": "function"
    },
    {
      "inputs": [
        {
          "internalType": "uint64",
          "name": "subscriptionId",
          "type": "uint64"
        },
        {
          "internalType": "bytes",
          "name": "data",
          "type": "bytes"
        },
        {
          "internalType": "uint16",
          "name": "dataVersion",
          "type": "uint16"
        },
        {
          "internalType": "uint32",
          "name": "callbackGasLimit",
          "type": "uint32"
        },
        {
          "internalType": "bytes32",
          "name": "donId",
          "type": "bytes32"
        }
      ],
      "name": "sendRequestToProposed",
      "outputs": [
        {
          "internalType": "bytes32",
          "name": "",
          "type": "bytes32"
        }
      ],
      "stateMutability": "nonpayable",
      "type": "function"
    },
    {
      "inputs": [
        {
          "internalType": "bytes32",
          "name": "allowListId",
          "type": "bytes32"
        }
      ],
      "name": "setAllowListId",
      "outputs": [],
      "stateMutability": "nonpayable",
      "type": "function"
    },
    {
      "inputs": [
        {
          "internalType": "uint64",
          "name": "subscriptionId",
          "type": "uint64"
        },
        {
          "internalType": "bytes32",
          "name": "flags",
          "type": "bytes32"
        }
      ],
      "name": "setFlags",
      "outputs": [],
      "stateMutability": "nonpayable",
      "type": "function"
    },
    {
      "inputs": [
        {
          "components": [
            {
              "internalType": "bytes32",
              "name": "requestId",
              "type": "bytes32"
            },
            {
              "internalType": "address",
              "name": "coordinator",
              "type": "address"
            },
            {
              "internalType": "uint96",
              "name": "estimatedTotalCostJuels",
              "type": "uint96"
            },
            {
              "internalType": "address",
              "name": "client",
              "type": "address"
            },
            {
              "internalType": "uint64",
              "name": "subscriptionId",
              "type": "uint64"
            },
            {
              "internalType": "uint32",
              "name": "callbackGasLimit",
              "type": "uint32"
            },
            {
              "internalType": "uint72",
              "name": "adminFee",
              "type": "uint72"
            },
            {
              "internalType": "uint72",
              "name": "donFee",
              "type": "uint72"
            },
            {
              "internalType": "uint40",
              "name": "gasOverheadBeforeCallback",
              "type": "uint40"
            },
            {
              "internalType": "uint40",
              "name": "gasOverheadAfterCallback",
              "type": "uint40"
            },
            {
              "internalType": "uint32",
              "name": "timeoutTimestamp",
              "type": "uint32"
            }
          ],
          "internalType": "struct FunctionsResponse.Commitment[]",
          "name": "requestsToTimeoutByCommitment",
          "type": "tuple[]"
        }
      ],
      "name": "timeoutRequests",
      "outputs": [],
      "stateMutability": "nonpayable",
      "type": "function"
    },
    {
      "inputs": [
        {
          "internalType": "address",
          "name": "to",
          "type": "address"
        }
      ],
      "name": "transferOwnership",
      "outputs": [],
      "stateMutability": "nonpayable",
      "type": "function"
    },
    {
      "inputs": [],
      "name": "typeAndVersion",
      "outputs": [
        {
          "internalType": "string",
          "name": "",
          "type": "string"
        }
      ],
      "stateMutability": "view",
      "type": "function"
    },
    {
      "inputs": [],
      "name": "unpause",
      "outputs": [],
      "stateMutability": "nonpayable",
      "type": "function"
    },
    {
      "inputs": [
        {
          "components": [
            {
              "internalType": "uint16",
              "name": "maxConsumersPerSubscription",
              "type": "uint16"
            },
            {
              "internalType": "uint72",
              "name": "adminFee",
              "type": "uint72"
            },
            {
              "internalType": "bytes4",
              "name": "handleOracleFulfillmentSelector",
              "type": "bytes4"
            },
            {
              "internalType": "uint16",
              "name": "gasForCallExactCheck",
              "type": "uint16"
            },
            {
              "internalType": "uint32[]",
              "name": "maxCallbackGasLimits",
              "type": "uint32[]"
            },
            {
              "internalType": "uint16",
              "name": "subscriptionDepositMinimumRequests",
              "type": "uint16"
            },
            {
              "internalType": "uint72",
              "name": "subscriptionDepositJuels",
              "type": "uint72"
            }
          ],
          "internalType": "struct FunctionsRouter.Config",
          "name": "config",
          "type": "tuple"
        }
      ],
      "name": "updateConfig",
      "outputs": [],
      "stateMutability": "nonpayable",
      "type": "function"
    },
    {
      "inputs": [],
      "name": "updateContracts",
      "outputs": [],
      "stateMutability": "nonpayable",
      "type": "function"
    }
  ],
  "bytecode": {
    "object": "0x60a06040523480156200001157600080fd5b50604051620062c4380380620062c4833981016040819052620000349162000549565b6001600160a01b0382166080526006805460ff191690553380600081620000a25760405162461bcd60e51b815260206004820152601860248201527f43616e6e6f7420736574206f776e657220746f207a65726f000000000000000060448201526064015b60405180910390fd5b600680546001600160a01b0380851661010002610100600160a81b031990921691909117909155811615620000dc57620000dc81620000f8565b505050620000f081620001aa60201b60201c565b50506200071a565b336001600160a01b03821603620001525760405162461bcd60e51b815260206004820152601760248201527f43616e6e6f74207472616e7366657220746f2073656c66000000000000000000604482015260640162000099565b600780546001600160a01b0319166001600160a01b03838116918217909255600654604051919261010090910416907fed8889f560326eb138920d842192f0eb3dd22b4f139c87a2c57538e05bae127890600090a350565b620001b4620002c0565b8051600a80546020808501516040860151606087015161ffff908116600160781b0261ffff60781b1960e09390931c6b010000000000000000000000029290921665ffffffffffff60581b196001600160481b0390941662010000026001600160581b031990961691909716179390931716939093171781556080830151805184936200024792600b9291019062000323565b5060a08201516002909101805460c0909301516001600160481b031662010000026001600160581b031990931661ffff909216919091179190911790556040517ea5832bf95f66c7814294cc4db681f20ee79608bfb8912a5321d66cfed5e98590620002b590839062000652565b60405180910390a150565b60065461010090046001600160a01b03163314620003215760405162461bcd60e51b815260206004820152601660248201527f4f6e6c792063616c6c61626c65206279206f776e657200000000000000000000604482015260640162000099565b565b82805482825590600052602060002090600701600890048101928215620003c75791602002820160005b838211156200039357835183826101000a81548163ffffffff021916908363ffffffff16021790555092602001926004016020816003010492830192600103026200034d565b8015620003c55782816101000a81549063ffffffff021916905560040160208160030104928301926001030262000393565b505b50620003d5929150620003d9565b5090565b5b80821115620003d55760008155600101620003da565b634e487b7160e01b600052604160045260246000fd5b60405160e081016001600160401b03811182821017156200042b576200042b620003f0565b60405290565b604051601f8201601f191681016001600160401b03811182821017156200045c576200045c620003f0565b604052919050565b805161ffff811681146200047757600080fd5b919050565b80516001600160481b03811681146200047757600080fd5b80516001600160e01b0319811681146200047757600080fd5b600082601f830112620004bf57600080fd5b815160206001600160401b03821115620004dd57620004dd620003f0565b8160051b620004ee82820162000431565b92835284810182019282810190878511156200050957600080fd5b83870192505b848310156200053e57825163ffffffff811681146200052e5760008081fd5b825291830191908301906200050f565b979650505050505050565b600080604083850312156200055d57600080fd5b82516001600160a01b03811681146200057557600080fd5b60208401519092506001600160401b03808211156200059357600080fd5b9084019060e08287031215620005a857600080fd5b620005b262000406565b620005bd8362000464565b8152620005cd602084016200047c565b6020820152620005e06040840162000494565b6040820152620005f36060840162000464565b60608201526080830151828111156200060b57600080fd5b6200061988828601620004ad565b6080830152506200062d60a0840162000464565b60a08201526200064060c084016200047c565b60c08201528093505050509250929050565b6020808252825161ffff90811683830152838201516001600160481b03166040808501919091528401516001600160e01b0319166060808501919091528401511660808084019190915283015160e060a0840152805161010084018190526000929182019083906101208601905b80831015620006e857835163ffffffff168252928401926001929092019190840190620006c0565b5060a087015161ffff811660c0880152935060c08701516001600160481b03811660e088015293509695505050505050565b608051615b72620007526000396000818161112401528181611edf015281816127a30152818161284d01526133080152615b726000f3fe608060405234801561001057600080fd5b50600436106102e95760003560e01c80637341c10c11610191578063b734c0f4116100e3578063e72f6e3011610097578063ea320e0b11610071578063ea320e0b146106c3578063ec2454e5146106d6578063f2fde38b146106f657600080fd5b8063e72f6e301461068a578063e82622aa1461069d578063e82ad7d4146106b057600080fd5b8063c3f909d4116100c8578063c3f909d41461064f578063cc77470a14610664578063d7ae1d301461067757600080fd5b8063b734c0f414610631578063badc3eb61461063957600080fd5b80639f87fad711610145578063a4c0ed361161011f578063a4c0ed3614610603578063a9c9a91814610616578063aab396bd1461062957600080fd5b80639f87fad7146105c8578063a21a23e4146105db578063a47c7696146105e357600080fd5b8063823597401161017657806382359740146105975780638456cb59146105aa5780638da5cb5b146105b257600080fd5b80637341c10c1461057c57806379ba50971461058f57600080fd5b806341db4ca31161024a5780635ed6dfba116101fe57806366419970116101d857806366419970146104e1578063674603d0146105085780636a2215de1461055157600080fd5b80635ed6dfba146104a85780636162a323146104bb57806366316d8d146104ce57600080fd5b80634b8832d31161022f5780634b8832d31461045057806355fedefa146104635780635c975abb1461049157600080fd5b806341db4ca31461041c578063461d27621461043d57600080fd5b80631ded3b36116102a1578063330605291161028657806333060529146103e05780633e871e4d146104015780633f4ba83a1461041457600080fd5b80631ded3b361461039f5780632a905ccc146103b257600080fd5b806310fc49c1116102d257806310fc49c11461032357806312b5834914610336578063181f5a771461035657600080fd5b806302bcc5b6146102ee5780630c5d49cb14610303575b600080fd5b6103016102fc3660046147bd565b610709565b005b61030b608481565b60405161ffff90911681526020015b60405180910390f35b6103016103313660046147fe565b61075c565b6000546040516bffffffffffffffffffffffff909116815260200161031a565b6103926040518060400160405280601781526020017f46756e6374696f6e7320526f757465722076312e302e3000000000000000000081525081565b60405161031a91906148a5565b6103016103ad3660046148b8565b610858565b600a5462010000900468ffffffffffffffffff1660405168ffffffffffffffffff909116815260200161031a565b6103f36103ee366004614b96565b61088a565b60405161031a929190614c7e565b61030161040f366004614d3f565b610c3b565b610301610e0f565b61042f61042a366004614e53565b610e21565b60405190815260200161031a565b61042f61044b366004614e53565b610e81565b61030161045e366004614ed7565b610e8d565b61042f6104713660046147bd565b67ffffffffffffffff166000908152600360208190526040909120015490565b60065460ff165b604051901515815260200161031a565b6103016104b6366004614f05565b610fb4565b6103016104c9366004614fc7565b611160565b6103016104dc366004614f05565b6112e0565b60025467ffffffffffffffff165b60405167ffffffffffffffff909116815260200161031a565b61051b61051636600461509a565b6113c9565b6040805182511515815260208084015167ffffffffffffffff90811691830191909152928201519092169082015260600161031a565b61056461055f3660046150c8565b61144c565b6040516001600160a01b03909116815260200161031a565b61030161058a366004614ed7565b6114fe565b610301611697565b6103016105a53660046147bd565b6117a4565b6103016118c4565b60065461010090046001600160a01b0316610564565b6103016105d6366004614ed7565b6118d4565b6104ef611c31565b6105f66105f13660046147bd565b611db1565b60405161031a9190615197565b6103016106113660046151aa565b611ecc565b6105646106243660046150c8565b6120fe565b60095461042f565b610301612150565b610641612282565b60405161031a929190615206565b610657612345565b60405161031a919061525d565b6104ef610672366004615339565b6124ac565b610301610685366004614ed7565b612705565b610301610698366004615339565b61276a565b6103016106ab366004615356565b6128bc565b6104986106be3660046147bd565b612b61565b6103016106d13660046150c8565b612c96565b6106e96106e43660046153cc565b612ca3565b60405161031a91906153ea565b610301610704366004615339565b612f1e565b610711612f2f565b61071a81612f37565b67ffffffffffffffff81166000908152600360205260408120546107599183916c0100000000000000000000000090046001600160a01b031690612fa0565b50565b67ffffffffffffffff8216600090815260036020819052604082200154600b54911a9081106107c1576040517f45c108ce00000000000000000000000000000000000000000000000000000000815260ff821660048201526024015b60405180910390fd5b6000600a6001018260ff16815481106107dc576107dc61546a565b90600052602060002090600891828204019190066004029054906101000a900463ffffffff1690508063ffffffff168363ffffffff161115610852576040517f1d70f87a00000000000000000000000000000000000000000000000000000000815263ffffffff821660048201526024016107b8565b50505050565b610860612f2f565b61086982612f37565b67ffffffffffffffff90911660009081526003602081905260409091200155565b6000806108956133a4565b82602001516001600160a01b0316336001600160a01b0316146108e4576040517f8bec23e700000000000000000000000000000000000000000000000000000000815260040160405180910390fd5b8251600090815260056020526040902054806109495783516020850151604051600295507f1a90e9a50793db2e394cf581e7c522e10c358a81e70acf6b5a0edd620c08dee1916109379189908890615499565b60405180910390a25060009050610c30565b808460405160200161095b91906154be565b60405160208183030381529060405280519060200120146109b35783516020850151604051600695507f1a90e9a50793db2e394cf581e7c522e10c358a81e70acf6b5a0edd620c08dee1916109379189908890615499565b8361012001518460a0015163ffffffff166109ce9190615600565b64ffffffffff165a1015610a195783516020850151604051600495507f1a90e9a50793db2e394cf581e7c522e10c358a81e70acf6b5a0edd620c08dee1916109379189908890615499565b506000610a2f8460a0015163ffffffff166133ac565b610a39908861561e565b9050600081878660c0015168ffffffffffffffffff16610a599190615646565b610a639190615646565b9050610a728560800151611db1565b600001516bffffffffffffffffffffffff16816bffffffffffffffffffffffff161115610aea5784516020860151604051600596507f1a90e9a50793db2e394cf581e7c522e10c358a81e70acf6b5a0edd620c08dee191610ad6918a908990615499565b60405180910390a25060009150610c309050565b84604001516bffffffffffffffffffffffff16816bffffffffffffffffffffffff161115610b4f5784516020860151604051600396507f1a90e9a50793db2e394cf581e7c522e10c358a81e70acf6b5a0edd620c08dee191610ad6918a908990615499565b505082516000908152600560205260408120819055835160a08501516060860151610b7f92918c918c919061344e565b8051909150610b8f576001610b92565b60005b92506000610bcc8560800151866040015187606001518860c0015168ffffffffffffffffff168c610bc688602001516133ac565b8d61360c565b9050846080015167ffffffffffffffff1685600001517f64778f26c70b60a8d7e29e2451b3844302d959448401c0535b768ed88c6b505e836020015189888f8f8960400151604051610c239695949392919061566b565b60405180910390a3519150505b965096945050505050565b610c43613925565b8151815181141580610c555750600881115b15610c8c576040517fee03280800000000000000000000000000000000000000000000000000000000815260040160405180910390fd5b60005b81811015610dc5576000848281518110610cab57610cab61546a565b602002602001015190506000848381518110610cc957610cc961546a565b6020026020010151905060006001600160a01b0316816001600160a01b03161480610d0d57506000828152600860205260409020546001600160a01b038281169116145b15610d44576040517fee03280800000000000000000000000000000000000000000000000000000000815260040160405180910390fd5b600082815260086020526040908190205490517f8b052f0f4bf82fede7daffea71592b29d5ef86af1f3c7daaa0345dbb2f52f48191610daa9185916001600160a01b03169085909283526001600160a01b03918216602084015216604082015260600190565b60405180910390a1505080610dbe906156e1565b9050610c8f565b506040805180820190915283815260208082018490528451600d91610dee91839188019061460a565b506020828101518051610e079260018501920190614651565b505050505050565b610e17613925565b610e1f61399e565b565b600080610e2d8361144c565b9050610e7583828a8a8a8080601f0160208091040260200160405190810160405280939291908181526020018383808284376000920191909152508c92508b9150613a0e9050565b98975050505050505050565b600080610e2d836120fe565b610e956133a4565b610e9e82613daf565b610ea6613e5b565b6001600160a01b0381161580610ef3575067ffffffffffffffff82166000908152600360205260409020600101546001600160a01b038281166c0100000000000000000000000090920416145b15610f2a576040517f8129bbcd00000000000000000000000000000000000000000000000000000000815260040160405180910390fd5b67ffffffffffffffff821660008181526003602090815260409182902060010180546bffffffffffffffffffffffff166c010000000000000000000000006001600160a01b038716908102919091179091558251338152918201527f69436ea6df009049404f564eff6622cd00522b0bd6a89efd9e52a355c4a879be910160405180910390a25050565b610fbc612f2f565b806bffffffffffffffffffffffff16600003610ff25750306000908152600160205260409020546bffffffffffffffffffffffff165b306000908152600160205260409020546bffffffffffffffffffffffff90811690821681101561105e576040517f6b0fe56f0000000000000000000000000000000000000000000000000000000081526bffffffffffffffffffffffff821660048201526024016107b8565b306000908152600160205260408120805484929061108b9084906bffffffffffffffffffffffff16615719565b92506101000a8154816bffffffffffffffffffffffff02191690836bffffffffffffffffffffffff160217905550816000808282829054906101000a90046bffffffffffffffffffffffff166110e19190615719565b92506101000a8154816bffffffffffffffffffffffff02191690836bffffffffffffffffffffffff16021790555061115b83836bffffffffffffffffffffffff167f00000000000000000000000000000000000000000000000000000000000000006001600160a01b0316613f4b9092919063ffffffff16565b505050565b611168613925565b8051600a80546020808501516040860151606087015161ffff9081166f01000000000000000000000000000000027fffffffffffffffffffffffffffffff0000ffffffffffffffffffffffffffffff60e09390931c6b01000000000000000000000002929092167fffffffffffffffffffffffffffffff000000000000ffffffffffffffffffffff68ffffffffffffffffff90941662010000027fffffffffffffffffffffffffffffffffffffffffff0000000000000000000000909616919097161793909317169390931717815560808301518051849361124f92600b929101906146be565b5060a08201516002909101805460c09093015168ffffffffffffffffff1662010000027fffffffffffffffffffffffffffffffffffffffffff000000000000000000000090931661ffff909216919091179190911790556040517ea5832bf95f66c7814294cc4db681f20ee79608bfb8912a5321d66cfed5e985906112d590839061525d565b60405180910390a150565b6112e86133a4565b806bffffffffffffffffffffffff16600003611330576040517f8129bbcd00000000000000000000000000000000000000000000000000000000815260040160405180910390fd5b336000908152600160205260409020546bffffffffffffffffffffffff90811690821681101561139c576040517f6b0fe56f0000000000000000000000000000000000000000000000000000000081526bffffffffffffffffffffffff821660048201526024016107b8565b336000908152600160205260408120805484929061108b9084906bffffffffffffffffffffffff16615719565b6040805160608082018352600080835260208084018290529284018190526001600160a01b03861681526004835283812067ffffffffffffffff868116835290845290849020845192830185525460ff81161515835261010081048216938301939093526901000000000000000000909204909116918101919091525b92915050565b6000805b600d5460ff821610156114c857600d805460ff83169081106114745761147461546a565b906000526020600020015483036114b857600e805460ff831690811061149c5761149c61546a565b6000918252602090912001546001600160a01b03169392505050565b6114c18161573e565b9050611450565b506040517f80833e33000000000000000000000000000000000000000000000000000000008152600481018390526024016107b8565b6115066133a4565b61150f82613daf565b611517613e5b565b6000611526600a5461ffff1690565b67ffffffffffffffff841660009081526003602052604090206002015490915061ffff821611611588576040517fb72bc70300000000000000000000000000000000000000000000000000000000815261ffff821660048201526024016107b8565b6001600160a01b038216600090815260046020908152604080832067ffffffffffffffff8716845290915290205460ff16156115c357505050565b6001600160a01b038216600081815260046020908152604080832067ffffffffffffffff881680855290835281842080547fffffffffffffffffffffffffffffffffffffffffffffffffffffffffffffff00166001908117909155600384528285206002018054918201815585529383902090930180547fffffffffffffffffffffffff000000000000000000000000000000000000000016851790555192835290917f43dc749a04ac8fb825cbd514f7c0e13f13bc6f2ee66043b76629d51776cff8e091015b60405180910390a2505050565b6007546001600160a01b0316331461170b576040517f08c379a000000000000000000000000000000000000000000000000000000000815260206004820152601660248201527f4d7573742062652070726f706f736564206f776e65720000000000000000000060448201526064016107b8565b600680547fffffffffffffffffffffff0000000000000000000000000000000000000000ff81166101003381810292909217909355600780547fffffffffffffffffffffffff0000000000000000000000000000000000000000169055604051929091046001600160a01b03169182907f8be0079c531659141344cd1fd0a4f28419497f9722a3daafe3b4186f6b6457e090600090a350565b6117ac6133a4565b6117b4613e5b565b67ffffffffffffffff8116600090815260036020526040902080546001909101546001600160a01b036c01000000000000000000000000928390048116929091041633811461183a576040517f4e1d9f180000000000000000000000000000000000000000000000000000000081526001600160a01b03821660048201526024016107b8565b67ffffffffffffffff831660008181526003602090815260409182902080546c01000000000000000000000000339081026bffffffffffffffffffffffff92831617835560019092018054909116905582516001600160a01b0387168152918201527f6f1dc65165ffffedfd8e507b4a0f1fcfdada045ed11f6c26ba27cedfe87802f0910161168a565b6118cc613925565b610e1f613fcb565b6118dc6133a4565b6118e582613daf565b6118ed613e5b565b6001600160a01b038116600090815260046020908152604080832067ffffffffffffffff8087168552908352928190208151606081018352905460ff811615158252610100810485169382019390935269010000000000000000009092049092169181019190915261195f8284614026565b806040015167ffffffffffffffff16816020015167ffffffffffffffff16146119b4576040517f06eb10c800000000000000000000000000000000000000000000000000000000815260040160405180910390fd5b67ffffffffffffffff8316600090815260036020908152604080832060020180548251818502810185019093528083529192909190830182828015611a2257602002820191906000526020600020905b81546001600160a01b03168152600190910190602001808311611a04575b5050505050905060005b8151811015611ba357836001600160a01b0316828281518110611a5157611a5161546a565b60200260200101516001600160a01b031603611b93578160018351611a76919061575d565b81518110611a8657611a8661546a565b6020026020010151600360008767ffffffffffffffff1667ffffffffffffffff1681526020019081526020016000206002018281548110611ac957611ac961546a565b600091825260208083209190910180547fffffffffffffffffffffffff0000000000000000000000000000000000000000166001600160a01b03949094169390931790925567ffffffffffffffff87168152600390915260409020600201805480611b3657611b36615770565b60008281526020902081017fffffffffffffffffffffffffffffffffffffffffffffffffffffffffffffffff90810180547fffffffffffffffffffffffff0000000000000000000000000000000000000000169055019055611ba3565b611b9c816156e1565b9050611a2c565b506001600160a01b038316600081815260046020908152604080832067ffffffffffffffff89168085529083529281902080547fffffffffffffffffffffffffffffff00000000000000000000000000000000001690555192835290917f182bff9831466789164ca77075fffd84916d35a8180ba73c27e45634549b445b910160405180910390a250505050565b6000611c3b6133a4565b611c43613e5b565b60028054600090611c5d9067ffffffffffffffff1661579f565b825467ffffffffffffffff8083166101009490940a93840293021916919091179091556040805160c0810182526000808252336020830152918101829052606081018290529192506080820190604051908082528060200260200182016040528015611cd3578160200160208202803683370190505b5081526000602091820181905267ffffffffffffffff84168152600382526040908190208351848401516001600160a01b039081166c010000000000000000000000009081026bffffffffffffffffffffffff9384161784559386015160608701519091169093029216919091176001820155608083015180519192611d6192600285019290910190614651565b5060a0919091015160039091015560405133815267ffffffffffffffff8216907f464722b4166576d3dcbba877b999bc35cf911f4eaf434b7eba68fa113951d0bf9060200160405180910390a290565b6040805160c0810182526000808252602082018190529181018290526060808201839052608082015260a0810191909152611deb82612f37565b67ffffffffffffffff8216600090815260036020908152604091829020825160c08101845281546bffffffffffffffffffffffff80821683526001600160a01b036c01000000000000000000000000928390048116848701526001850154918216848801529190041660608201526002820180548551818602810186019096528086529194929360808601939290830182828015611eb257602002820191906000526020600020905b81546001600160a01b03168152600190910190602001808311611e94575b505050505081526020016003820154815250509050919050565b611ed46133a4565b336001600160a01b037f00000000000000000000000000000000000000000000000000000000000000001614611f36576040517f44b0e3c300000000000000000000000000000000000000000000000000000000815260040160405180910390fd5b60208114611f70576040517f8129bbcd00000000000000000000000000000000000000000000000000000000815260040160405180910390fd5b6000611f7e828401846147bd565b67ffffffffffffffff81166000908152600360205260409020549091506c0100000000000000000000000090046001600160a01b0316611fea576040517f1f6a65b600000000000000000000000000000000000000000000000000000000815260040160405180910390fd5b67ffffffffffffffff8116600090815260036020526040812080546bffffffffffffffffffffffff16918691906120218385615646565b92506101000a8154816bffffffffffffffffffffffff02191690836bffffffffffffffffffffffff160217905550846000808282829054906101000a90046bffffffffffffffffffffffff166120779190615646565b92506101000a8154816bffffffffffffffffffffffff02191690836bffffffffffffffffffffffff1602179055508167ffffffffffffffff167fd39ec07f4e209f627a4c427971473820dc129761ba28de8906bd56f57101d4f88287846120de91906157c6565b6040805192835260208301919091520160405180910390a2505050505050565b6000818152600860205260408120546001600160a01b031680611446576040517f80833e33000000000000000000000000000000000000000000000000000000008152600481018490526024016107b8565b612158613925565b60005b600d54811015612261576000600d600001828154811061217d5761217d61546a565b906000526020600020015490506000600d60010183815481106121a2576121a261546a565b600091825260208083209190910154848352600882526040928390205483518681526001600160a01b0391821693810193909352169181018290529091507ff8a6175bca1ba37d682089187edc5e20a859989727f10ca6bd9a5bc0de8caf949060600160405180910390a160009182526008602052604090912080547fffffffffffffffffffffffff0000000000000000000000000000000000000000166001600160a01b0390921691909117905561225a816156e1565b905061215b565b50600d60006122708282614768565b61227e600183016000614768565b5050565b606080600d600001600d600101818054806020026020016040519081016040528092919081815260200182805480156122da57602002820191906000526020600020905b8154815260200190600101908083116122c6575b505050505091508080548060200260200160405190810160405280929190818152602001828054801561233657602002820191906000526020600020905b81546001600160a01b03168152600190910190602001808311612318575b50505050509050915091509091565b6040805160e0810182526000808252602082018190529181018290526060808201839052608082015260a0810182905260c08101919091526040805160e08082018352600a805461ffff808216855262010000820468ffffffffffffffffff166020808701919091526b010000000000000000000000830490941b7fffffffff0000000000000000000000000000000000000000000000000000000016858701526f01000000000000000000000000000000909104166060840152600b805485518185028101850190965280865293949193608086019383018282801561247757602002820191906000526020600020906000905b82829054906101000a900463ffffffff1663ffffffff168152602001906004019060208260030104928301926001038202915080841161243a5790505b50505091835250506002919091015461ffff8116602083015262010000900468ffffffffffffffffff16604090910152919050565b60006124b66133a4565b6124be613e5b565b600280546000906124d89067ffffffffffffffff1661579f565b825467ffffffffffffffff8083166101009490940a93840293021916919091179091556040805160c081018252600080825233602083015291810182905260608101829052919250608082019060405190808252806020026020018201604052801561254e578160200160208202803683370190505b5081526000602091820181905267ffffffffffffffff84168152600382526040908190208351848401516001600160a01b039081166c010000000000000000000000009081026bffffffffffffffffffffffff93841617845593860151606087015190911690930292169190911760018201556080830151805191926125dc92600285019290910190614651565b5060a0919091015160039182015567ffffffffffffffff82166000818152602092835260408082206002018054600180820183559184528584200180547fffffffffffffffffffffffff0000000000000000000000000000000000000000166001600160a01b03891690811790915583526004855281832084845285529181902080547fffffffffffffffffffffffffffffffffffffffffffffffffffffffffffffff00169092179091555133815290917f464722b4166576d3dcbba877b999bc35cf911f4eaf434b7eba68fa113951d0bf910160405180910390a26040516001600160a01b038316815267ffffffffffffffff8216907f43dc749a04ac8fb825cbd514f7c0e13f13bc6f2ee66043b76629d51776cff8e09060200160405180910390a2919050565b61270d6133a4565b61271682613daf565b61271e613e5b565b61272782612b61565b1561275e576040517f06eb10c800000000000000000000000000000000000000000000000000000000815260040160405180910390fd5b61227e82826001612fa0565b612772612f2f565b6040517f70a082310000000000000000000000000000000000000000000000000000000081523060048201526000907f00000000000000000000000000000000000000000000000000000000000000006001600160a01b0316906370a0823190602401602060405180830381865afa1580156127f2573d6000803e3d6000fd5b505050506040513d601f19601f8201168201806040525081019061281691906157d9565b6000549091506bffffffffffffffffffffffff168181101561115b57600061283e828461575d565b90506128746001600160a01b037f0000000000000000000000000000000000000000000000000000000000000000168583613f4b565b604080516001600160a01b0386168152602081018390527f59bfc682b673f8cbf945f1e454df9334834abf7dfe7f92237ca29ecb9b436600910160405180910390a150505050565b6128c46133a4565b60005b8181101561115b5760008383838181106128e3576128e361546a565b905061016002018036038101906128fa91906157f2565b8051608082015160008281526005602090815260409182902054915194955092939192909161292b918691016154be565b6040516020818303038152906040528051906020012014612978576040517f8129bbcd00000000000000000000000000000000000000000000000000000000815260040160405180910390fd5b82610140015163ffffffff164210156129bd576040517fa2376fe800000000000000000000000000000000000000000000000000000000815260040160405180910390fd5b60208301516040517f85b214cf000000000000000000000000000000000000000000000000000000008152600481018490526001600160a01b03909116906385b214cf90602401600060405180830381600087803b158015612a1e57600080fd5b505af1158015612a32573d6000803e3d6000fd5b50505060408085015167ffffffffffffffff84166000908152600360205291822060010180549193509190612a769084906bffffffffffffffffffffffff16615719565b82546bffffffffffffffffffffffff9182166101009390930a92830291909202199091161790555060608301516001600160a01b0316600090815260046020908152604080832067ffffffffffffffff808616855292529091208054600192600991612af1918591690100000000000000000090041661580f565b825467ffffffffffffffff9182166101009390930a9283029190920219909116179055506000828152600560205260408082208290555183917ff1ca1e9147be737b04a2b018a79405f687a97de8dd8a2559bbe62357343af41491a250505080612b5a906156e1565b90506128c7565b67ffffffffffffffff8116600090815260036020908152604080832060020180548251818502810185019093528083528493830182828015612bcc57602002820191906000526020600020905b81546001600160a01b03168152600190910190602001808311612bae575b5050505050905060005b8151811015612c8c57600060046000848481518110612bf757612bf761546a565b6020908102919091018101516001600160a01b03168252818101929092526040908101600090812067ffffffffffffffff808a168352908452908290208251606081018452905460ff8116151582526101008104831694820185905269010000000000000000009004909116918101829052925014612c7b57506001949350505050565b50612c85816156e1565b9050612bd6565b5060009392505050565b612c9e613925565b600955565b60608167ffffffffffffffff168367ffffffffffffffff161180612cd6575060025467ffffffffffffffff908116908316115b80612ceb575060025467ffffffffffffffff16155b15612d22576040517f8129bbcd00000000000000000000000000000000000000000000000000000000815260040160405180910390fd5b612d2c8383615830565b612d3790600161580f565b67ffffffffffffffff1667ffffffffffffffff811115612d5957612d596148e4565b604051908082528060200260200182016040528015612dd657816020015b6040805160c081018252600080825260208083018290529282018190526060808301829052608083015260a082015282527fffffffffffffffffffffffffffffffffffffffffffffffffffffffffffffffff909201910181612d775790505b50905060005b612de68484615830565b67ffffffffffffffff168111612f175760036000612e0e8367ffffffffffffffff88166157c6565b67ffffffffffffffff1681526020808201929092526040908101600020815160c08101835281546bffffffffffffffffffffffff80821683526001600160a01b036c0100000000000000000000000092839004811684880152600185015491821684870152919004166060820152600282018054845181870281018701909552808552919492936080860193909290830182828015612ed657602002820191906000526020600020905b81546001600160a01b03168152600190910190602001808311612eb8575b50505050508152602001600382015481525050828281518110612efb57612efb61546a565b602002602001018190525080612f10906156e1565b9050612ddc565b5092915050565b612f26613925565b6107598161408d565b610e1f613925565b67ffffffffffffffff81166000908152600360205260409020546c0100000000000000000000000090046001600160a01b0316610759576040517f1f6a65b600000000000000000000000000000000000000000000000000000000815260040160405180910390fd5b67ffffffffffffffff83166000908152600360209081526040808320815160c08101835281546bffffffffffffffffffffffff80821683526001600160a01b036c010000000000000000000000009283900481168488015260018501549182168487015291900416606082015260028201805484518187028101870190955280855291949293608086019390929083018282801561306757602002820191906000526020600020905b81546001600160a01b03168152600190910190602001808311613049575b50505091835250506003919091015460209091015280519091506000805b836080015151811015613163576000846080015182815181106130aa576130aa61546a565b6020908102919091018101516001600160a01b038116600090815260048352604080822067ffffffffffffffff808e16845294529020549092506130fd916901000000000000000000909104168461580f565b6001600160a01b03909116600090815260046020908152604080832067ffffffffffffffff8c168452909152902080547fffffffffffffffffffffffffffffff0000000000000000000000000000000000169055915061315c816156e1565b9050613085565b5067ffffffffffffffff8616600090815260036020526040812081815560018101829055906131956002830182614768565b50600060039190910155600c5461ffff81169062010000900468ffffffffffffffffff168580156131d357508161ffff168367ffffffffffffffff16105b1561328f576000846bffffffffffffffffffffffff168268ffffffffffffffffff161161320b578168ffffffffffffffffff1661320d565b845b90506bffffffffffffffffffffffff81161561328d5730600090815260016020526040812080548392906132509084906bffffffffffffffffffffffff16615646565b92506101000a8154816bffffffffffffffffffffffff02191690836bffffffffffffffffffffffff160217905550808561328a9190615719565b94505b505b6bffffffffffffffffffffffff84161561333f576000805485919081906132c59084906bffffffffffffffffffffffff16615719565b92506101000a8154816bffffffffffffffffffffffff02191690836bffffffffffffffffffffffff16021790555061333f87856bffffffffffffffffffffffff167f00000000000000000000000000000000000000000000000000000000000000006001600160a01b0316613f4b9092919063ffffffff16565b604080516001600160a01b03891681526bffffffffffffffffffffffff8616602082015267ffffffffffffffff8a16917fe8ed5b475a5b5987aa9165e8731bb78043f39eee32ec5a1169a89e27fcd49815910160405180910390a25050505050505050565b610e1f61416f565b60006bffffffffffffffffffffffff82111561344a576040517f08c379a000000000000000000000000000000000000000000000000000000000815260206004820152602660248201527f53616665436173743a2076616c756520646f65736e27742066697420696e203960448201527f362062697473000000000000000000000000000000000000000000000000000060648201526084016107b8565b5090565b60408051606080820183526000808352602083015291810191909152813b1580156134a1575050604080516060810182526000808252602080830182905283519182528101835291810191909152613603565b600a546040516000916b010000000000000000000000900460e01b906134cf908a908a908a90602401615851565b604080517fffffffffffffffffffffffffffffffffffffffffffffffffffffffffffffffe0818403018152918152602080830180517bffffffffffffffffffffffffffffffffffffffffffffffffffffffff167fffffffff000000000000000000000000000000000000000000000000000000009590951694909417909352600a548151608480825260c0820190935292945061ffff6f01000000000000000000000000000000909104169260009283928392820181803683370190505090505a8481101561359d57600080fd5b8490036040810481038a106135b157600080fd5b505a60008087516020890160008d8ff193505a900391503d60848111156135d6575060845b808252806000602084013e5060408051606081018252931515845260208401929092529082015293505050505b95945050505050565b6040805180820190915260008082526020820152600061362c848661561e565b905060008161363b8886615646565b6136459190615646565b67ffffffffffffffff8b166000908152600360205260409020549091506bffffffffffffffffffffffff808316911610806136ac575067ffffffffffffffff8a166000908152600360205260409020600101546bffffffffffffffffffffffff808b169116105b1561370f5767ffffffffffffffff8a16600090815260036020526040908190205490517f6b0fe56f0000000000000000000000000000000000000000000000000000000081526bffffffffffffffffffffffff90911660048201526024016107b8565b67ffffffffffffffff8a16600090815260036020526040812080548392906137469084906bffffffffffffffffffffffff16615719565b82546101009290920a6bffffffffffffffffffffffff81810219909316918316021790915567ffffffffffffffff8c16600090815260036020526040812060010180548d9450909261379a91859116615719565b92506101000a8154816bffffffffffffffffffffffff02191690836bffffffffffffffffffffffff16021790555081846137d49190615646565b33600090815260016020526040812080549091906138019084906bffffffffffffffffffffffff16615646565b82546101009290920a6bffffffffffffffffffffffff81810219909316918316021790915530600090815260016020526040812080548b9450909261384891859116615646565b82546bffffffffffffffffffffffff9182166101009390930a9283029190920219909116179055506001600160a01b038816600090815260046020908152604080832067ffffffffffffffff808f168552925290912080546001926009916138bf918591690100000000000000000090041661580f565b92506101000a81548167ffffffffffffffff021916908367ffffffffffffffff1602179055506040518060400160405280836bffffffffffffffffffffffff168152602001826bffffffffffffffffffffffff1681525092505050979650505050505050565b60065461010090046001600160a01b03163314610e1f576040517f08c379a000000000000000000000000000000000000000000000000000000000815260206004820152601660248201527f4f6e6c792063616c6c61626c65206279206f776e65720000000000000000000060448201526064016107b8565b6139a66141dc565b600680547fffffffffffffffffffffffffffffffffffffffffffffffffffffffffffffff001690557f5db9ee0a495bf2e6ff9c91a7834c1ba4fdd244a5e8aa4e537bd38aeae4b073aa335b6040516001600160a01b03909116815260200160405180910390a1565b6000613a186133a4565b613a2185612f37565b613a2b3386614026565b613a35858361075c565b8351600003613a6f576040517ec1cfc000000000000000000000000000000000000000000000000000000000815260040160405180910390fd5b6000613a7a86611db1565b90506000613a8833886113c9565b600a54604080516101608101825289815267ffffffffffffffff8b1660009081526003602081815293822001549495506201000090930468ffffffffffffffffff16936001600160a01b038d169263a631571e929190820190815233602082015260408881015189519190920191613aff91615719565b6bffffffffffffffffffffffff1681526020018568ffffffffffffffffff1681526020018c67ffffffffffffffff168152602001866020015167ffffffffffffffff1681526020018963ffffffff1681526020018a61ffff168152602001866040015167ffffffffffffffff16815260200187602001516001600160a01b03168152506040518263ffffffff1660e01b8152600401613b9e919061587c565b610160604051808303816000875af1158015613bbe573d6000803e3d6000fd5b505050506040513d601f19601f82011682018060405250810190613be291906159c7565b805160009081526005602052604090205490915015613c335780516040517f304f32e800000000000000000000000000000000000000000000000000000000815260048101919091526024016107b8565b604051806101600160405280826000015181526020018b6001600160a01b0316815260200182604001516bffffffffffffffffffffffff168152602001336001600160a01b031681526020018a67ffffffffffffffff1681526020018763ffffffff1681526020018368ffffffffffffffffff1681526020018260e0015168ffffffffffffffffff16815260200182610100015164ffffffffff16815260200182610120015164ffffffffff16815260200182610140015163ffffffff16815250604051602001613d0491906154be565b60405160208183030381529060405280519060200120600560008360000151815260200190815260200160002081905550613d44338a8360400151614248565b8867ffffffffffffffff168b82600001517ff67aec45c9a7ede407974a3e0c3a743dffeab99ee3f2d4c9a8144c2ebf2c7ec9876020015133328e8e8e8a60400151604051613d989796959493929190615a9a565b60405180910390a4519a9950505050505050505050565b67ffffffffffffffff81166000908152600360205260409020546c0100000000000000000000000090046001600160a01b031680613e19576040517f1f6a65b600000000000000000000000000000000000000000000000000000000815260040160405180910390fd5b336001600160a01b0382161461227e576040517f5a68151d00000000000000000000000000000000000000000000000000000000815260040160405180910390fd5b6009546000908152600860205260409020546001600160a01b031680613e7e5750565b604080516000815260208101918290527f6b14daf8000000000000000000000000000000000000000000000000000000009091526001600160a01b03821690636b14daf890613ed290339060248101615b05565b602060405180830381865afa158015613eef573d6000803e3d6000fd5b505050506040513d601f19601f82011682018060405250810190613f139190615b27565b610759576040517f229062630000000000000000000000000000000000000000000000000000000081523360048201526024016107b8565b604080516001600160a01b038416602482015260448082018490528251808303909101815260649091019091526020810180517bffffffffffffffffffffffffffffffffffffffffffffffffffffffff167fa9059cbb0000000000000000000000000000000000000000000000000000000017905261115b908490614316565b613fd361416f565b600680547fffffffffffffffffffffffffffffffffffffffffffffffffffffffffffffff001660011790557f62e78cea01bee320cd4e420270b5ea74000d11b0c9f74754ebdbfc544b05a2586139f13390565b6001600160a01b038216600090815260046020908152604080832067ffffffffffffffff8516845290915290205460ff1661227e576040517f71e8313700000000000000000000000000000000000000000000000000000000815260040160405180910390fd5b336001600160a01b038216036140ff576040517f08c379a000000000000000000000000000000000000000000000000000000000815260206004820152601760248201527f43616e6e6f74207472616e7366657220746f2073656c6600000000000000000060448201526064016107b8565b600780547fffffffffffffffffffffffff0000000000000000000000000000000000000000166001600160a01b03838116918217909255600654604051919261010090910416907fed8889f560326eb138920d842192f0eb3dd22b4f139c87a2c57538e05bae127890600090a350565b60065460ff1615610e1f576040517f08c379a000000000000000000000000000000000000000000000000000000000815260206004820152601060248201527f5061757361626c653a207061757365640000000000000000000000000000000060448201526064016107b8565b60065460ff16610e1f576040517f08c379a000000000000000000000000000000000000000000000000000000000815260206004820152601460248201527f5061757361626c653a206e6f742070617573656400000000000000000000000060448201526064016107b8565b67ffffffffffffffff8216600090815260036020526040812060010180548392906142829084906bffffffffffffffffffffffff16615646565b82546bffffffffffffffffffffffff91821661010093840a90810292021916179091556001600160a01b038516600090815260046020908152604080832067ffffffffffffffff80891685529252909120805460019450909284926142eb92849290041661580f565b92506101000a81548167ffffffffffffffff021916908367ffffffffffffffff160217905550505050565b600061436b826040518060400160405280602081526020017f5361666545524332303a206c6f772d6c6576656c2063616c6c206661696c6564815250856001600160a01b03166144159092919063ffffffff16565b80519091501561115b57808060200190518101906143899190615b27565b61115b576040517f08c379a000000000000000000000000000000000000000000000000000000000815260206004820152602a60248201527f5361666545524332303a204552433230206f7065726174696f6e20646964206e60448201527f6f7420737563636565640000000000000000000000000000000000000000000060648201526084016107b8565b6060614424848460008561442c565b949350505050565b6060824710156144be576040517f08c379a000000000000000000000000000000000000000000000000000000000815260206004820152602660248201527f416464726573733a20696e73756666696369656e742062616c616e636520666f60448201527f722063616c6c000000000000000000000000000000000000000000000000000060648201526084016107b8565b600080866001600160a01b031685876040516144da9190615b49565b60006040518083038185875af1925050503d8060008114614517576040519150601f19603f3d011682016040523d82523d6000602084013e61451c565b606091505b509150915061452d87838387614538565b979650505050505050565b606083156145c15782516000036145ba576001600160a01b0385163b6145ba576040517f08c379a000000000000000000000000000000000000000000000000000000000815260206004820152601d60248201527f416464726573733a2063616c6c20746f206e6f6e2d636f6e747261637400000060448201526064016107b8565b5081614424565b61442483838151156145d65781518083602001fd5b806040517f08c379a00000000000000000000000000000000000000000000000000000000081526004016107b891906148a5565b828054828255906000526020600020908101928215614645579160200282015b8281111561464557825182559160200191906001019061462a565b5061344a929150614782565b828054828255906000526020600020908101928215614645579160200282015b8281111561464557825182547fffffffffffffffffffffffff0000000000000000000000000000000000000000166001600160a01b03909116178255602090920191600190910190614671565b828054828255906000526020600020906007016008900481019282156146455791602002820160005b8382111561472b57835183826101000a81548163ffffffff021916908363ffffffff16021790555092602001926004016020816003010492830192600103026146e7565b801561475b5782816101000a81549063ffffffff021916905560040160208160030104928301926001030261472b565b505061344a929150614782565b508054600082559060005260206000209081019061075991905b5b8082111561344a5760008155600101614783565b67ffffffffffffffff8116811461075957600080fd5b80356147b881614797565b919050565b6000602082840312156147cf57600080fd5b81356147da81614797565b9392505050565b63ffffffff8116811461075957600080fd5b80356147b8816147e1565b6000806040838503121561481157600080fd5b823561481c81614797565b9150602083013561482c816147e1565b809150509250929050565b60005b8381101561485257818101518382015260200161483a565b50506000910152565b60008151808452614873816020860160208601614837565b601f017fffffffffffffffffffffffffffffffffffffffffffffffffffffffffffffffe0169290920160200192915050565b6020815260006147da602083018461485b565b600080604083850312156148cb57600080fd5b82356148d681614797565b946020939093013593505050565b7f4e487b7100000000000000000000000000000000000000000000000000000000600052604160045260246000fd5b604051610160810167ffffffffffffffff81118282101715614937576149376148e4565b60405290565b60405160e0810167ffffffffffffffff81118282101715614937576149376148e4565b604051601f82017fffffffffffffffffffffffffffffffffffffffffffffffffffffffffffffffe016810167ffffffffffffffff811182821017156149a7576149a76148e4565b604052919050565b600082601f8301126149c057600080fd5b813567ffffffffffffffff8111156149da576149da6148e4565b614a0b60207fffffffffffffffffffffffffffffffffffffffffffffffffffffffffffffffe0601f84011601614960565b818152846020838601011115614a2057600080fd5b816020850160208301376000918101602001919091529392505050565b6bffffffffffffffffffffffff8116811461075957600080fd5b80356147b881614a3d565b6001600160a01b038116811461075957600080fd5b80356147b881614a62565b68ffffffffffffffffff8116811461075957600080fd5b80356147b881614a82565b64ffffffffff8116811461075957600080fd5b80356147b881614aa4565b60006101608284031215614ad557600080fd5b614add614913565b905081358152614aef60208301614a77565b6020820152614b0060408301614a57565b6040820152614b1160608301614a77565b6060820152614b22608083016147ad565b6080820152614b3360a083016147f3565b60a0820152614b4460c08301614a99565b60c0820152614b5560e08301614a99565b60e0820152610100614b68818401614ab7565b90820152610120614b7a838201614ab7565b90820152610140614b8c8382016147f3565b9082015292915050565b6000806000806000806102008789031215614bb057600080fd5b863567ffffffffffffffff80821115614bc857600080fd5b614bd48a838b016149af565b97506020890135915080821115614bea57600080fd5b50614bf789828a016149af565b9550506040870135614c0881614a3d565b93506060870135614c1881614a3d565b92506080870135614c2881614a62565b9150614c378860a08901614ac2565b90509295509295509295565b60078110614c7a577f4e487b7100000000000000000000000000000000000000000000000000000000600052602160045260246000fd5b9052565b60408101614c8c8285614c43565b6bffffffffffffffffffffffff831660208301529392505050565b600067ffffffffffffffff821115614cc157614cc16148e4565b5060051b60200190565b600082601f830112614cdc57600080fd5b81356020614cf1614cec83614ca7565b614960565b82815260059290921b84018101918181019086841115614d1057600080fd5b8286015b84811015614d34578035614d2781614a62565b8352918301918301614d14565b509695505050505050565b60008060408385031215614d5257600080fd5b823567ffffffffffffffff80821115614d6a57600080fd5b818501915085601f830112614d7e57600080fd5b81356020614d8e614cec83614ca7565b82815260059290921b84018101918181019089841115614dad57600080fd5b948201945b83861015614dcb57853582529482019490820190614db2565b96505086013592505080821115614de157600080fd5b50614dee85828601614ccb565b9150509250929050565b60008083601f840112614e0a57600080fd5b50813567ffffffffffffffff811115614e2257600080fd5b602083019150836020828501011115614e3a57600080fd5b9250929050565b803561ffff811681146147b857600080fd5b60008060008060008060a08789031215614e6c57600080fd5b8635614e7781614797565b9550602087013567ffffffffffffffff811115614e9357600080fd5b614e9f89828a01614df8565b9096509450614eb2905060408801614e41565b92506060870135614ec2816147e1565b80925050608087013590509295509295509295565b60008060408385031215614eea57600080fd5b8235614ef581614797565b9150602083013561482c81614a62565b60008060408385031215614f1857600080fd5b8235614f2381614a62565b9150602083013561482c81614a3d565b80357fffffffff00000000000000000000000000000000000000000000000000000000811681146147b857600080fd5b600082601f830112614f7457600080fd5b81356020614f84614cec83614ca7565b82815260059290921b84018101918181019086841115614fa357600080fd5b8286015b84811015614d34578035614fba816147e1565b8352918301918301614fa7565b600060208284031215614fd957600080fd5b813567ffffffffffffffff80821115614ff157600080fd5b9083019060e0828603121561500557600080fd5b61500d61493d565b61501683614e41565b815261502460208401614a99565b602082015261503560408401614f33565b604082015261504660608401614e41565b606082015260808301358281111561505d57600080fd5b61506987828601614f63565b60808301525061507b60a08401614e41565b60a082015261508c60c08401614a99565b60c082015295945050505050565b600080604083850312156150ad57600080fd5b82356150b881614a62565b9150602083013561482c81614797565b6000602082840312156150da57600080fd5b5035919050565b600081518084526020808501945080840160005b8381101561511a5781516001600160a01b0316875295820195908201906001016150f5565b509495945050505050565b60006bffffffffffffffffffffffff80835116845260208301516001600160a01b038082166020870152826040860151166040870152806060860151166060870152505050608082015160c0608085015261518360c08501826150e1565b60a093840151949093019390935250919050565b6020815260006147da6020830184615125565b600080600080606085870312156151c057600080fd5b84356151cb81614a62565b935060208501359250604085013567ffffffffffffffff8111156151ee57600080fd5b6151fa87828801614df8565b95989497509550505050565b604080825283519082018190526000906020906060840190828701845b8281101561523f57815184529284019290840190600101615223565b5050508381038285015261525381866150e1565b9695505050505050565b60006020808352610100830161ffff808651168386015268ffffffffffffffffff838701511660408601527fffffffff00000000000000000000000000000000000000000000000000000000604087015116606086015280606087015116608086015250608085015160e060a0860152818151808452610120870191508483019350600092505b8083101561530a57835163ffffffff1682529284019260019290920191908401906152e4565b5060a087015161ffff811660c0880152935060c087015168ffffffffffffffffff811660e08801529350615253565b60006020828403121561534b57600080fd5b81356147da81614a62565b6000806020838503121561536957600080fd5b823567ffffffffffffffff8082111561538157600080fd5b818501915085601f83011261539557600080fd5b8135818111156153a457600080fd5b866020610160830285010111156153ba57600080fd5b60209290920196919550909350505050565b600080604083850312156153df57600080fd5b82356150b881614797565b6000602080830181845280855180835260408601915060408160051b870101925083870160005b8281101561545d577fffffffffffffffffffffffffffffffffffffffffffffffffffffffffffffffc088860301845261544b858351615125565b94509285019290850190600101615411565b5092979650505050505050565b7f4e487b7100000000000000000000000000000000000000000000000000000000600052603260045260246000fd5b6001600160a01b03848116825283166020820152606081016144246040830184614c43565b815181526020808301516101608301916154e2908401826001600160a01b03169052565b50604083015161550260408401826bffffffffffffffffffffffff169052565b50606083015161551d60608401826001600160a01b03169052565b506080830151615539608084018267ffffffffffffffff169052565b5060a083015161555160a084018263ffffffff169052565b5060c083015161556e60c084018268ffffffffffffffffff169052565b5060e083015161558b60e084018268ffffffffffffffffff169052565b506101008381015164ffffffffff81168483015250506101208381015164ffffffffff81168483015250506101408381015163ffffffff8116848301525b505092915050565b7f4e487b7100000000000000000000000000000000000000000000000000000000600052601160045260246000fd5b64ffffffffff818116838216019080821115612f1757612f176155d1565b6bffffffffffffffffffffffff8181168382160280821691908281146155c9576155c96155d1565b6bffffffffffffffffffffffff818116838216019080821115612f1757612f176155d1565b6bffffffffffffffffffffffff871681526001600160a01b03861660208201526156986040820186614c43565b60c0606082015260006156ae60c083018661485b565b82810360808401526156c0818661485b565b905082810360a08401526156d4818561485b565b9998505050505050505050565b60007fffffffffffffffffffffffffffffffffffffffffffffffffffffffffffffffff8203615712576157126155d1565b5060010190565b6bffffffffffffffffffffffff828116828216039080821115612f1757612f176155d1565b600060ff821660ff8103615754576157546155d1565b60010192915050565b81810381811115611446576114466155d1565b7f4e487b7100000000000000000000000000000000000000000000000000000000600052603160045260246000fd5b600067ffffffffffffffff8083168181036157bc576157bc6155d1565b6001019392505050565b80820180821115611446576114466155d1565b6000602082840312156157eb57600080fd5b5051919050565b6000610160828403121561580557600080fd5b6147da8383614ac2565b67ffffffffffffffff818116838216019080821115612f1757612f176155d1565b67ffffffffffffffff828116828216039080821115612f1757612f176155d1565b83815260606020820152600061586a606083018561485b565b8281036040840152615253818561485b565b602081526000825161016080602085015261589b61018085018361485b565b91506020850151604085015260408501516158c160608601826001600160a01b03169052565b5060608501516bffffffffffffffffffffffff8116608086015250608085015168ffffffffffffffffff811660a08601525060a085015167ffffffffffffffff811660c08601525060c085015167ffffffffffffffff811660e08601525060e08501516101006159388187018363ffffffff169052565b860151905061012061594f8682018361ffff169052565b860151905061014061596c8682018367ffffffffffffffff169052565b909501516001600160a01b031693019290925250919050565b80516147b881614a62565b80516147b881614a3d565b80516147b881614797565b80516147b8816147e1565b80516147b881614a82565b80516147b881614aa4565b600061016082840312156159da57600080fd5b6159e2614913565b825181526159f260208401615985565b6020820152615a0360408401615990565b6040820152615a1460608401615985565b6060820152615a256080840161599b565b6080820152615a3660a084016159a6565b60a0820152615a4760c084016159b1565b60c0820152615a5860e084016159b1565b60e0820152610100615a6b8185016159bc565b90820152610120615a7d8482016159bc565b90820152610140615a8f8482016159a6565b908201529392505050565b60006001600160a01b03808a168352808916602084015280881660408401525060e06060830152615ace60e083018761485b565b61ffff9590951660808301525063ffffffff9290921660a08301526bffffffffffffffffffffffff1660c090910152949350505050565b6001600160a01b0383168152604060208201526000614424604083018461485b565b600060208284031215615b3957600080fd5b815180151581146147da57600080fd5b60008251615b5b818460208701614837565b919091019291505056fea164736f6c6343000815000a",
    "linkReferences": {}
  },
  "methodIdentifiers": {
    "MAX_CALLBACK_RETURN_BYTES()": "0c5d49cb",
    "acceptOwnership()": "79ba5097",
    "acceptSubscriptionOwnerTransfer(uint64)": "82359740",
    "addConsumer(uint64,address)": "7341c10c",
    "cancelSubscription(uint64,address)": "d7ae1d30",
    "createSubscription()": "a21a23e4",
    "createSubscriptionWithConsumer(address)": "cc77470a",
    "fulfill(bytes,bytes,uint96,uint96,address,(bytes32,address,uint96,address,uint64,uint32,uint72,uint72,uint40,uint40,uint32))": "33060529",
    "getAdminFee()": "2a905ccc",
    "getAllowListId()": "aab396bd",
    "getConfig()": "c3f909d4",
    "getConsumer(address,uint64)": "674603d0",
    "getContractById(bytes32)": "a9c9a918",
    "getFlags(uint64)": "55fedefa",
    "getProposedContractById(bytes32)": "6a2215de",
    "getProposedContractSet()": "badc3eb6",
    "getSubscription(uint64)": "a47c7696",
    "getSubscriptionCount()": "66419970",
    "getSubscriptionsInRange(uint64,uint64)": "ec2454e5",
    "getTotalBalance()": "12b58349",
    "isValidCallbackGasLimit(uint64,uint32)": "10fc49c1",
    "onTokenTransfer(address,uint256,bytes)": "a4c0ed36",
    "oracleWithdraw(address,uint96)": "66316d8d",
    "owner()": "8da5cb5b",
    "ownerCancelSubscription(uint64)": "02bcc5b6",
    "ownerWithdraw(address,uint96)": "5ed6dfba",
    "pause()": "8456cb59",
    "paused()": "5c975abb",
    "pendingRequestExists(uint64)": "e82ad7d4",
    "proposeContractsUpdate(bytes32[],address[])": "3e871e4d",
    "proposeSubscriptionOwnerTransfer(uint64,address)": "4b8832d3",
    "recoverFunds(address)": "e72f6e30",
    "removeConsumer(uint64,address)": "9f87fad7",
    "sendRequest(uint64,bytes,uint16,uint32,bytes32)": "461d2762",
    "sendRequestToProposed(uint64,bytes,uint16,uint32,bytes32)": "41db4ca3",
    "setAllowListId(bytes32)": "ea320e0b",
    "setFlags(uint64,bytes32)": "1ded3b36",
    "timeoutRequests((bytes32,address,uint96,address,uint64,uint32,uint72,uint72,uint40,uint40,uint32)[])": "e82622aa",
    "transferOwnership(address)": "f2fde38b",
    "typeAndVersion()": "181f5a77",
    "unpause()": "3f4ba83a",
    "updateConfig((uint16,uint72,bytes4,uint16,uint32[],uint16,uint72))": "6162a323",
    "updateContracts()": "b734c0f4"
  },
  "id": 158
}