{
  "abi": [
    {
      "inputs": [
        {
          "components": [
            {
              "components": [
                {
                  "internalType": "address",
                  "name": "blessVoteAddr",
                  "type": "address"
                },
                {
                  "internalType": "address",
                  "name": "curseVoteAddr",
                  "type": "address"
                },
                {
                  "internalType": "address",
                  "name": "curseUnvoteAddr",
                  "type": "address"
                },
                {
                  "internalType": "uint8",
                  "name": "blessWeight",
                  "type": "uint8"
                },
                {
                  "internalType": "uint8",
                  "name": "curseWeight",
                  "type": "uint8"
                }
              ],
              "internalType": "struct ARM.Voter[]",
              "name": "voters",
              "type": "tuple[]"
            },
            {
              "internalType": "uint16",
              "name": "blessWeightThreshold",
              "type": "uint16"
            },
            {
              "internalType": "uint16",
              "name": "curseWeightThreshold",
              "type": "uint16"
            }
          ],
          "internalType": "struct ARM.Config",
          "name": "config",
          "type": "tuple"
        }
      ],
      "stateMutability": "nonpayable",
      "type": "constructor"
    },
    {
      "inputs": [
        {
          "internalType": "address",
          "name": "voter",
          "type": "address"
        },
        {
          "internalType": "bytes32",
          "name": "curseId",
          "type": "bytes32"
        }
      ],
      "name": "AlreadyVotedToCurse",
      "type": "error"
    },
    {
      "inputs": [],
      "name": "InvalidConfig",
      "type": "error"
    },
    {
      "inputs": [],
      "name": "InvalidCurseState",
      "type": "error"
    },
    {
      "inputs": [
        {
          "internalType": "bytes32",
          "name": "expectedCursesHash",
          "type": "bytes32"
        },
        {
          "internalType": "bytes32",
          "name": "actualCursesHash",
          "type": "bytes32"
        }
      ],
      "name": "InvalidCursesHash",
      "type": "error"
    },
    {
      "inputs": [
        {
          "internalType": "address",
          "name": "voter",
          "type": "address"
        }
      ],
      "name": "InvalidVoter",
      "type": "error"
    },
    {
      "inputs": [],
      "name": "MustRecoverFromCurse",
      "type": "error"
    },
    {
      "anonymous": false,
      "inputs": [
        {
          "indexed": true,
          "internalType": "uint32",
          "name": "configVersion",
          "type": "uint32"
        },
        {
          "indexed": true,
          "internalType": "address",
          "name": "voter",
          "type": "address"
        },
        {
          "components": [
            {
              "internalType": "address",
              "name": "commitStore",
              "type": "address"
            },
            {
              "internalType": "bytes32",
              "name": "root",
              "type": "bytes32"
            }
          ],
          "indexed": false,
          "internalType": "struct IARM.TaggedRoot",
          "name": "taggedRoot",
          "type": "tuple"
        }
      ],
      "name": "AlreadyBlessed",
      "type": "event"
    },
    {
      "anonymous": false,
      "inputs": [
        {
          "indexed": true,
          "internalType": "uint32",
          "name": "configVersion",
          "type": "uint32"
        },
        {
          "indexed": true,
          "internalType": "address",
          "name": "voter",
          "type": "address"
        },
        {
          "components": [
            {
              "internalType": "address",
              "name": "commitStore",
              "type": "address"
            },
            {
              "internalType": "bytes32",
              "name": "root",
              "type": "bytes32"
            }
          ],
          "indexed": false,
          "internalType": "struct IARM.TaggedRoot",
          "name": "taggedRoot",
          "type": "tuple"
        }
      ],
      "name": "AlreadyVotedToBless",
      "type": "event"
    },
    {
      "anonymous": false,
      "inputs": [
        {
          "indexed": true,
          "internalType": "uint32",
          "name": "configVersion",
          "type": "uint32"
        },
        {
          "components": [
            {
              "components": [
                {
                  "internalType": "address",
                  "name": "blessVoteAddr",
                  "type": "address"
                },
                {
                  "internalType": "address",
                  "name": "curseVoteAddr",
                  "type": "address"
                },
                {
                  "internalType": "address",
                  "name": "curseUnvoteAddr",
                  "type": "address"
                },
                {
                  "internalType": "uint8",
                  "name": "blessWeight",
                  "type": "uint8"
                },
                {
                  "internalType": "uint8",
                  "name": "curseWeight",
                  "type": "uint8"
                }
              ],
              "internalType": "struct ARM.Voter[]",
              "name": "voters",
              "type": "tuple[]"
            },
            {
              "internalType": "uint16",
              "name": "blessWeightThreshold",
              "type": "uint16"
            },
            {
              "internalType": "uint16",
              "name": "curseWeightThreshold",
              "type": "uint16"
            }
          ],
          "indexed": false,
          "internalType": "struct ARM.Config",
          "name": "config",
          "type": "tuple"
        }
      ],
      "name": "ConfigSet",
      "type": "event"
    },
    {
      "anonymous": false,
      "inputs": [
        {
          "indexed": true,
          "internalType": "uint32",
          "name": "configVersion",
          "type": "uint32"
        },
        {
          "indexed": false,
          "internalType": "uint256",
          "name": "timestamp",
          "type": "uint256"
        }
      ],
      "name": "Cursed",
      "type": "event"
    },
    {
      "anonymous": false,
      "inputs": [
        {
          "indexed": false,
          "internalType": "uint256",
          "name": "timestamp",
          "type": "uint256"
        }
      ],
      "name": "OwnerCursed",
      "type": "event"
    },
    {
      "anonymous": false,
      "inputs": [
        {
          "indexed": true,
          "internalType": "address",
          "name": "from",
          "type": "address"
        },
        {
          "indexed": true,
          "internalType": "address",
          "name": "to",
          "type": "address"
        }
      ],
      "name": "OwnershipTransferRequested",
      "type": "event"
    },
    {
      "anonymous": false,
      "inputs": [
        {
          "indexed": true,
          "internalType": "address",
          "name": "from",
          "type": "address"
        },
        {
          "indexed": true,
          "internalType": "address",
          "name": "to",
          "type": "address"
        }
      ],
      "name": "OwnershipTransferred",
      "type": "event"
    },
    {
      "anonymous": false,
      "inputs": [],
      "name": "RecoveredFromCurse",
      "type": "event"
    },
    {
      "anonymous": false,
      "inputs": [
        {
          "indexed": true,
          "internalType": "uint32",
          "name": "configVersion",
          "type": "uint32"
        },
        {
          "indexed": true,
          "internalType": "address",
          "name": "voter",
          "type": "address"
        },
        {
          "indexed": false,
          "internalType": "uint8",
          "name": "weight",
          "type": "uint8"
        },
        {
          "indexed": false,
          "internalType": "uint32",
          "name": "voteCount",
          "type": "uint32"
        },
        {
          "indexed": false,
          "internalType": "bytes32",
          "name": "cursesHash",
          "type": "bytes32"
        },
        {
          "indexed": false,
          "internalType": "uint16",
          "name": "accumulatedWeight",
          "type": "uint16"
        }
      ],
      "name": "ReusedVotesToCurse",
      "type": "event"
    },
    {
      "anonymous": false,
      "inputs": [
        {
          "indexed": true,
          "internalType": "address",
          "name": "voter",
          "type": "address"
        },
        {
          "indexed": false,
          "internalType": "bytes32",
          "name": "expectedCursesHash",
          "type": "bytes32"
        },
        {
          "indexed": false,
          "internalType": "bytes32",
          "name": "actualCursesHash",
          "type": "bytes32"
        }
      ],
      "name": "SkippedUnvoteToCurse",
      "type": "event"
    },
    {
      "anonymous": false,
      "inputs": [
        {
          "indexed": true,
          "internalType": "uint32",
          "name": "configVersion",
          "type": "uint32"
        },
        {
          "components": [
            {
              "internalType": "address",
              "name": "commitStore",
              "type": "address"
            },
            {
              "internalType": "bytes32",
              "name": "root",
              "type": "bytes32"
            }
          ],
          "indexed": false,
          "internalType": "struct IARM.TaggedRoot",
          "name": "taggedRoot",
          "type": "tuple"
        },
        {
          "indexed": false,
          "internalType": "bool",
          "name": "wasBlessed",
          "type": "bool"
        }
      ],
      "name": "TaggedRootBlessVotesReset",
      "type": "event"
    },
    {
      "anonymous": false,
      "inputs": [
        {
          "indexed": true,
          "internalType": "uint32",
          "name": "configVersion",
          "type": "uint32"
        },
        {
          "components": [
            {
              "internalType": "address",
              "name": "commitStore",
              "type": "address"
            },
            {
              "internalType": "bytes32",
              "name": "root",
              "type": "bytes32"
            }
          ],
          "indexed": false,
          "internalType": "struct IARM.TaggedRoot",
          "name": "taggedRoot",
          "type": "tuple"
        },
        {
          "indexed": false,
          "internalType": "uint16",
          "name": "accumulatedWeight",
          "type": "uint16"
        }
      ],
      "name": "TaggedRootBlessed",
      "type": "event"
    },
    {
      "anonymous": false,
      "inputs": [
        {
          "indexed": true,
          "internalType": "uint32",
          "name": "configVersion",
          "type": "uint32"
        },
        {
          "indexed": true,
          "internalType": "address",
          "name": "voter",
          "type": "address"
        },
        {
          "indexed": false,
          "internalType": "uint8",
          "name": "weight",
          "type": "uint8"
        },
        {
          "indexed": false,
          "internalType": "uint32",
          "name": "voteCount",
          "type": "uint32"
        },
        {
          "indexed": false,
          "internalType": "bytes32",
          "name": "cursesHash",
          "type": "bytes32"
        }
      ],
      "name": "UnvotedToCurse",
      "type": "event"
    },
    {
      "anonymous": false,
      "inputs": [
        {
          "indexed": true,
          "internalType": "uint32",
          "name": "configVersion",
          "type": "uint32"
        },
        {
          "indexed": true,
          "internalType": "address",
          "name": "voter",
          "type": "address"
        },
        {
          "components": [
            {
              "internalType": "address",
              "name": "commitStore",
              "type": "address"
            },
            {
              "internalType": "bytes32",
              "name": "root",
              "type": "bytes32"
            }
          ],
          "indexed": false,
          "internalType": "struct IARM.TaggedRoot",
          "name": "taggedRoot",
          "type": "tuple"
        },
        {
          "indexed": false,
          "internalType": "uint8",
          "name": "weight",
          "type": "uint8"
        }
      ],
      "name": "VotedToBless",
      "type": "event"
    },
    {
      "anonymous": false,
      "inputs": [
        {
          "indexed": true,
          "internalType": "uint32",
          "name": "configVersion",
          "type": "uint32"
        },
        {
          "indexed": true,
          "internalType": "address",
          "name": "voter",
          "type": "address"
        },
        {
          "indexed": false,
          "internalType": "uint8",
          "name": "weight",
          "type": "uint8"
        },
        {
          "indexed": false,
          "internalType": "uint32",
          "name": "voteCount",
          "type": "uint32"
        },
        {
          "indexed": false,
          "internalType": "bytes32",
          "name": "curseId",
          "type": "bytes32"
        },
        {
          "indexed": false,
          "internalType": "bytes32",
          "name": "cursesHash",
          "type": "bytes32"
        },
        {
          "indexed": false,
          "internalType": "uint16",
          "name": "accumulatedWeight",
          "type": "uint16"
        }
      ],
      "name": "VotedToCurse",
      "type": "event"
    },
    {
      "inputs": [],
      "name": "acceptOwnership",
      "outputs": [],
      "stateMutability": "nonpayable",
      "type": "function"
    },
    {
      "inputs": [
        {
          "components": [
            {
              "internalType": "address",
              "name": "commitStore",
              "type": "address"
            },
            {
              "internalType": "bytes32",
              "name": "root",
              "type": "bytes32"
            }
          ],
          "internalType": "struct IARM.TaggedRoot",
          "name": "taggedRoot",
          "type": "tuple"
        }
      ],
      "name": "getBlessProgress",
      "outputs": [
        {
          "internalType": "address[]",
          "name": "blessVoteAddrs",
          "type": "address[]"
        },
        {
          "internalType": "uint16",
          "name": "accumulatedWeight",
          "type": "uint16"
        },
        {
          "internalType": "bool",
          "name": "blessed",
          "type": "bool"
        }
      ],
      "stateMutability": "view",
      "type": "function"
    },
    {
      "inputs": [],
      "name": "getConfigDetails",
      "outputs": [
        {
          "internalType": "uint32",
          "name": "version",
          "type": "uint32"
        },
        {
          "internalType": "uint32",
          "name": "blockNumber",
          "type": "uint32"
        },
        {
          "components": [
            {
              "components": [
                {
                  "internalType": "address",
                  "name": "blessVoteAddr",
                  "type": "address"
                },
                {
                  "internalType": "address",
                  "name": "curseVoteAddr",
                  "type": "address"
                },
                {
                  "internalType": "address",
                  "name": "curseUnvoteAddr",
                  "type": "address"
                },
                {
                  "internalType": "uint8",
                  "name": "blessWeight",
                  "type": "uint8"
                },
                {
                  "internalType": "uint8",
                  "name": "curseWeight",
                  "type": "uint8"
                }
              ],
              "internalType": "struct ARM.Voter[]",
              "name": "voters",
              "type": "tuple[]"
            },
            {
              "internalType": "uint16",
              "name": "blessWeightThreshold",
              "type": "uint16"
            },
            {
              "internalType": "uint16",
              "name": "curseWeightThreshold",
              "type": "uint16"
            }
          ],
          "internalType": "struct ARM.Config",
          "name": "config",
          "type": "tuple"
        }
      ],
      "stateMutability": "view",
      "type": "function"
    },
    {
      "inputs": [],
      "name": "getCurseProgress",
      "outputs": [
        {
          "internalType": "address[]",
          "name": "curseVoteAddrs",
          "type": "address[]"
        },
        {
          "internalType": "uint32[]",
          "name": "voteCounts",
          "type": "uint32[]"
        },
        {
          "internalType": "bytes32[]",
          "name": "cursesHashes",
          "type": "bytes32[]"
        },
        {
          "internalType": "uint16",
          "name": "accumulatedWeight",
          "type": "uint16"
        },
        {
          "internalType": "bool",
          "name": "cursed",
          "type": "bool"
        }
      ],
      "stateMutability": "view",
      "type": "function"
    },
    {
      "inputs": [
        {
          "components": [
            {
              "internalType": "address",
              "name": "commitStore",
              "type": "address"
            },
            {
              "internalType": "bytes32",
              "name": "root",
              "type": "bytes32"
            }
          ],
          "internalType": "struct IARM.TaggedRoot",
          "name": "taggedRoot",
          "type": "tuple"
        }
      ],
      "name": "isBlessed",
      "outputs": [
        {
          "internalType": "bool",
          "name": "",
          "type": "bool"
        }
      ],
      "stateMutability": "view",
      "type": "function"
    },
    {
      "inputs": [],
      "name": "isCursed",
      "outputs": [
        {
          "internalType": "bool",
          "name": "",
          "type": "bool"
        }
      ],
      "stateMutability": "view",
      "type": "function"
    },
    {
      "inputs": [],
      "name": "owner",
      "outputs": [
        {
          "internalType": "address",
          "name": "",
          "type": "address"
        }
      ],
      "stateMutability": "view",
      "type": "function"
    },
    {
      "inputs": [],
      "name": "ownerCurse",
      "outputs": [],
      "stateMutability": "nonpayable",
      "type": "function"
    },
    {
      "inputs": [
        {
          "components": [
            {
              "internalType": "address",
              "name": "commitStore",
              "type": "address"
            },
            {
              "internalType": "bytes32",
              "name": "root",
              "type": "bytes32"
            }
          ],
          "internalType": "struct IARM.TaggedRoot[]",
          "name": "taggedRoots",
          "type": "tuple[]"
        }
      ],
      "name": "ownerResetBlessVotes",
      "outputs": [],
      "stateMutability": "nonpayable",
      "type": "function"
    },
    {
      "inputs": [
        {
          "components": [
            {
              "internalType": "address",
              "name": "curseVoteAddr",
              "type": "address"
            },
            {
              "internalType": "bytes32",
              "name": "cursesHash",
              "type": "bytes32"
            },
            {
              "internalType": "bool",
              "name": "forceUnvote",
              "type": "bool"
            }
          ],
          "internalType": "struct ARM.UnvoteToCurseRecord[]",
          "name": "unvoteRecords",
          "type": "tuple[]"
        }
      ],
      "name": "ownerUnvoteToCurse",
      "outputs": [],
      "stateMutability": "nonpayable",
      "type": "function"
    },
    {
      "inputs": [
        {
          "components": [
            {
              "components": [
                {
                  "internalType": "address",
                  "name": "blessVoteAddr",
                  "type": "address"
                },
                {
                  "internalType": "address",
                  "name": "curseVoteAddr",
                  "type": "address"
                },
                {
                  "internalType": "address",
                  "name": "curseUnvoteAddr",
                  "type": "address"
                },
                {
                  "internalType": "uint8",
                  "name": "blessWeight",
                  "type": "uint8"
                },
                {
                  "internalType": "uint8",
                  "name": "curseWeight",
                  "type": "uint8"
                }
              ],
              "internalType": "struct ARM.Voter[]",
              "name": "voters",
              "type": "tuple[]"
            },
            {
              "internalType": "uint16",
              "name": "blessWeightThreshold",
              "type": "uint16"
            },
            {
              "internalType": "uint16",
              "name": "curseWeightThreshold",
              "type": "uint16"
            }
          ],
          "internalType": "struct ARM.Config",
          "name": "config",
          "type": "tuple"
        }
      ],
      "name": "setConfig",
      "outputs": [],
      "stateMutability": "nonpayable",
      "type": "function"
    },
    {
      "inputs": [
        {
          "internalType": "address",
          "name": "to",
          "type": "address"
        }
      ],
      "name": "transferOwnership",
      "outputs": [],
      "stateMutability": "nonpayable",
      "type": "function"
    },
    {
      "inputs": [],
      "name": "typeAndVersion",
      "outputs": [
        {
          "internalType": "string",
          "name": "",
          "type": "string"
        }
      ],
      "stateMutability": "view",
      "type": "function"
    },
    {
      "inputs": [
        {
          "internalType": "address",
          "name": "curseVoteAddr",
          "type": "address"
        },
        {
          "internalType": "bytes32",
          "name": "cursesHash",
          "type": "bytes32"
        }
      ],
      "name": "unvoteToCurse",
      "outputs": [],
      "stateMutability": "nonpayable",
      "type": "function"
    },
    {
      "inputs": [
        {
          "components": [
            {
              "internalType": "address",
              "name": "commitStore",
              "type": "address"
            },
            {
              "internalType": "bytes32",
              "name": "root",
              "type": "bytes32"
            }
          ],
          "internalType": "struct IARM.TaggedRoot[]",
          "name": "taggedRoots",
          "type": "tuple[]"
        }
      ],
      "name": "voteToBless",
      "outputs": [],
      "stateMutability": "nonpayable",
      "type": "function"
    },
    {
      "inputs": [
        {
          "internalType": "bytes32",
          "name": "curseId",
          "type": "bytes32"
        }
      ],
      "name": "voteToCurse",
      "outputs": [],
      "stateMutability": "nonpayable",
      "type": "function"
    }
  ],
  "bytecode": {
    "object": "0x60806040523480156200001157600080fd5b506040516200497438038062004974833981016040819052620000349162000e4e565b33806000816200008b5760405162461bcd60e51b815260206004820152601860248201527f43616e6e6f7420736574206f776e657220746f207a65726f000000000000000060448201526064015b60405180910390fd5b600080546001600160a01b0319166001600160a01b0384811691909117909155811615620000be57620000be816200013a565b5050604080516080808201835260008083526020830181905260608301526001600160801b03928201929092529150600190620000fd90829062000fdb565b82604001516001600160801b0316901c6001600160801b0316101562000127576200012762000ff7565b506200013381620001e5565b50620011a3565b336001600160a01b03821603620001945760405162461bcd60e51b815260206004820152601760248201527f43616e6e6f74207472616e7366657220746f2073656c66000000000000000000604482015260640162000082565b600180546001600160a01b0319166001600160a01b0383811691821790925560008054604051929316917fed8889f560326eb138920d842192f0eb3dd22b4f139c87a2c57538e05bae12789190a350565b620001fa600954640100000000900460ff1690565b1562000219576040516306523e6560e51b815260040160405180910390fd5b620002248162000a1a565b62000242576040516306b7c75960e31b815260040160405180910390fd5b6040805160028054608060208202840181019094526060830181815260009484928491879085015b82821015620002e85760008481526020908190206040805160a0810182526003860290920180546001600160a01b0390811684526001808301548216858701526002909201549081169284019290925260ff600160a01b830481166060850152600160a81b909204909116608083015290835290920191016200026a565b505050908252506001919091015461ffff808216602080850191909152620100009283900482166040948501528601516003805494880151831690930263ffffffff1990941691161791909117905590505b600254156200045a576002805460009190620003599060019062000fdb565b815481106200036c576200036c6200100d565b600091825260208083206040805160a081018252600390940290910180546001600160a01b03908116808652600183015482168686019081526002938401548084168887015260ff600160a01b8204811660608a0152600160a81b90910416608088015290875260058552838720805465ffffffffffff19169055511685526007909252909220805460ff1916905581549092508062000410576200041062001023565b60008281526020902060036000199092019182020180546001600160a01b03199081168255600182018054909116905560020180546001600160b01b03191690559055506200033a565b60005b8251518110156200053c578251805160029190839081106200048357620004836200100d565b602090810291909101810151825460018082018555600094855293839020825160039092020180546001600160a01b03199081166001600160a01b03938416178255938301519481018054909416948216949094179092556040810151600290930180546060830151608090930151949093166001600160a81b031990931692909217600160a01b60ff928316021760ff60a81b1916600160a81b9190931602919091179055620005348162001039565b90506200045d565b5060048054600090620005559063ffffffff1662001055565b82546101009290920a63ffffffff8181021990931691831602179091556004541660005b83515160ff821610156200072357600084600001518260ff1681518110620005a557620005a56200100d565b602090810291909101810151604080516060808201835263ffffffff88811683528185015160ff90811684880190815289821685870190815287516001600160a01b03908116600090815260058b52888120975188549451935190871664ffffffffff1990951694909417640100000000938616939093029290921760ff60281b1916650100000000009385169390930292909217909555855160a08101875260018082526080808a01518516838c019081528a8c01805186168a526007808e528b8b205462010000908190048a16878e019081529d8d015188169a87019a8b52825188168c52818f528c8c20860154948701948552915187168b52909c52989097209151825498519951965161ffff1990991690151561ff0019161761010099909416989098029290921762010000600160d01b03191693909216909602600160301b600160d01b031916919091176601000000000000939091169290920291909117835551910155506200071b816200107b565b905062000579565b506004805463ffffffff4381166401000000000263ffffffff60201b1990921691909117909155604051908216907f7cf8e698b191db138396ab0eae2ad5b3fe353fd014fd5956b034b86f2d605cfd90620007809086906200109d565b60405180910390a2604080516060810182528482015161ffff168152600060208201819052918101829052905b83515160ff821610156200096f57600084600001518260ff1681518110620007d957620007d96200100d565b6020908102919091018101518101516001600160a01b03808216600090815260078452604090819020815160a081018352815460ff808216151580845261010083049091169783019790975263ffffffff6201000082041693820193909352660100000000000090920490921660608201526001909101546080820152909250906200088f576001600160a01b038216600090815260076020526040812080546001600160d01b03191681556001015562000959565b80518015620008a857506000816040015163ffffffff16115b156200095957806020015160ff1684602001818151620008c991906200114e565b61ffff1690525060208082015160408084015160808501519388015191516001600160a01b0387169463ffffffff8b16947fb4a70189a30e3d3b9c77d291f83699633e70ab4427fc3644a955ab4cca077b03946200095094919391929160ff94909416845263ffffffff929092166020840152604083015261ffff16606082015260800190565b60405180910390a35b50508062000967906200107b565b9050620007ad565b508051602082015161ffff91821691161080156040830152620009ce578163ffffffff167f6ec7e144a45fa03ed986874794df08b5b6bbbb27ed6454b4e6eaa74248b5e33342604051620009c591815260200190565b60405180910390a25b805160098054602084015160409094015115156401000000000260ff60201b1961ffff958616620100000263ffffffff1990931695909416949094171791909116919091179055505050565b805151600090158062000a2f57508151516080105b8062000a415750602082015161ffff16155b8062000a535750604082015161ffff16155b1562000a6157506000919050565b6000806000846000015151600362000a7a919062001173565b6001600160401b0381111562000a945762000a9462000d73565b60405190808252806020026020018201604052801562000abe578160200160208202803683370190505b50905060005b85515181101562000c8e5760008660000151828151811062000aea5762000aea6200100d565b6020026020010151905060006001600160a01b031681600001516001600160a01b0316148062000b25575060208101516001600160a01b0316155b8062000b3c575060408101516001600160a01b0316155b8062000b5e5750606081015160ff1615801562000b5e5750608081015160ff16155b1562000b71575060009695505050505050565b80518362000b8184600362001173565b62000b8e9060006200118d565b8151811062000ba15762000ba16200100d565b6001600160a01b039092166020928302919091018201528101518362000bc984600362001173565b62000bd69060016200118d565b8151811062000be95762000be96200100d565b6001600160a01b039092166020928302919091019091015260408101518362000c1484600362001173565b62000c219060026200118d565b8151811062000c345762000c346200100d565b6001600160a01b0390921660209283029190910190910152606081015162000c609060ff16866200118d565b9450806080015160ff168462000c7791906200118d565b9350508062000c869062001039565b905062000ac4565b5060005b815181101562000d4857600082828151811062000cb35762000cb36200100d565b60200260200101519050600082600162000cce91906200118d565b90505b835181101562000d325783818151811062000cf05762000cf06200100d565b60200260200101516001600160a01b0316826001600160a01b03160362000d1f57506000979650505050505050565b62000d2a8162001039565b905062000cd1565b50508062000d409062001039565b905062000c92565b50846020015161ffff16831015801562000d6a5750846040015161ffff168210155b95945050505050565b634e487b7160e01b600052604160045260246000fd5b604051606081016001600160401b038111828210171562000dae5762000dae62000d73565b60405290565b60405160a081016001600160401b038111828210171562000dae5762000dae62000d73565b604051601f8201601f191681016001600160401b038111828210171562000e045762000e0462000d73565b604052919050565b80516001600160a01b038116811462000e2457600080fd5b919050565b805160ff8116811462000e2457600080fd5b805161ffff8116811462000e2457600080fd5b6000602080838503121562000e6257600080fd5b82516001600160401b038082111562000e7a57600080fd5b8185019150606080838803121562000e9157600080fd5b62000e9b62000d89565b83518381111562000eab57600080fd5b8401601f8101891362000ebd57600080fd5b80518481111562000ed25762000ed262000d73565b62000ee2878260051b0162000dd9565b818152878101955060a091820283018801918b83111562000f0257600080fd5b928801925b8284101562000f905780848d03121562000f215760008081fd5b62000f2b62000db4565b62000f368562000e0c565b815262000f458a860162000e0c565b8a820152604062000f5881870162000e0c565b9082015262000f6985880162000e29565b87820152608062000f7c81870162000e29565b908201528752958801959283019262000f07565b5083525062000fa3905084860162000e3b565b8582015262000fb56040850162000e3b565b6040820152979650505050505050565b634e487b7160e01b600052601160045260246000fd5b8181038181111562000ff15762000ff162000fc5565b92915050565b634e487b7160e01b600052600160045260246000fd5b634e487b7160e01b600052603260045260246000fd5b634e487b7160e01b600052603160045260246000fd5b6000600182016200104e576200104e62000fc5565b5060010190565b600063ffffffff80831681810362001071576200107162000fc5565b6001019392505050565b600060ff821660ff810362001094576200109462000fc5565b60010192915050565b60006020808352608080840185516060808588015282825180855260a094508489019150868401935060005b818110156200112157845180516001600160a01b0390811685528982015181168a860152604080830151909116908501528481015160ff908116868601529088015116878401529387019391850191600101620010c9565b50509488015161ffff8116604089015294604089015161ffff811689840152955098975050505050505050565b61ffff8181168382160190808211156200116c576200116c62000fc5565b5092915050565b808202811582820484141762000ff15762000ff162000fc5565b8082018082111562000ff15762000ff162000fc5565b6137c180620011b36000396000f3fe608060405234801561001057600080fd5b50600436106101005760003560e01c8063618af12811610097578063ba86a1f011610066578063ba86a1f01461023d578063e4bbc05c14610250578063f2fde38b14610258578063f33f28951461026b57600080fd5b8063618af128146101f457806379ba5097146102075780638da5cb5b1461020f578063979986111461022a57600080fd5b80633987d651116100d35780633987d6511461019e5780633f42ab73146101b757806347cf2b60146101ce5780634d616771146101e157600080fd5b8063119a352714610105578063181f5a771461011a57806335aea8691461016c578063397796f71461017f575b600080fd5b610118610113366004612efe565b61028d565b005b6101566040518060400160405280600981526020017f41524d20312e302e30000000000000000000000000000000000000000000000081525081565b6040516101639190612f17565b60405180910390f35b61011861017a366004612f9a565b6106ff565b600954640100000000900460ff165b6040519015158152602001610163565b6101a6610a53565b604051610163959493929190613008565b6101bf610e24565b60405161016393929190613155565b6101186101dc36600461326b565b610f4f565b61018e6101ef3660046133c3565b610f63565b6101186102023660046133db565b610fe8565b610118611460565b6000546040516001600160a01b039091168152602001610163565b610118610238366004613450565b611543565b61011861024b366004613450565b611a37565b610118611bfb565b6101186102663660046134b3565b611cc0565b61027e6102793660046133c3565b611cd1565b604051610163939291906134d5565b33600090815260076020908152604091829020825160a081018452815460ff808216151580845261010083049091169483019490945263ffffffff620100008204169482019490945266010000000000009093046001600160a01b03166060840152600101546080830152610335576040517f669f262e0000000000000000000000000000000000000000000000000000000081523360048201526024015b60405180910390fd5b33600090815260086020908152604080832085845290915290205460ff1615610393576040517f9baf703d0000000000000000000000000000000000000000000000000000000081523360048201526024810183905260440161032c565b3360009081526008602090815260408083208584529091529081902080547fffffffffffffffffffffffffffffffffffffffffffffffffffffffffffffff00166001179055810180516103e590613532565b63ffffffff16905260808101516040805160208101929092528101839052606001604080518083037fffffffffffffffffffffffffffffffffffffffffffffffffffffffffffffffe001815291815281516020928301206080840190815233600090815260078452829020845181548686015187860180516060808b01517fffffffffffffffffffffffffffffffffffffffffffffffffffffffffffff00009095169515157fffffffffffffffffffffffffffffffffffffffffffffffffffffffffffff00ff169590951761010060ff94851602177fffffffffffff000000000000000000000000000000000000000000000000ffff166201000063ffffffff92831681027fffffffffffff0000000000000000000000000000000000000000ffffffffffff169190911766010000000000006001600160a01b039096169590950294909417865595516001958601558651938401875260095461ffff80821686529381049093169784019790975264010000000090910416151593810193909352925191929116900361059457816020015160ff168160200181815161058c9190613555565b61ffff169052505b60045460208381015160408086015160808088015187860151845160ff909616865263ffffffff93841696860196909652928401899052606084019290925261ffff90931690820152911690339082907f8e5ceca76dae647f687fccbe8d42a3796e68330812669bd5003b938dacb1b6dd9060a00160405180910390a381604001511580156106335750816000015161ffff16826020015161ffff1610155b1561067d5760016040838101919091525142815263ffffffff8216907f6ec7e144a45fa03ed986874794df08b5b6bbbb27ed6454b4e6eaa74248b5e3339060200160405180910390a25b5080516009805460208401516040909401511515640100000000027fffffffffffffffffffffffffffffffffffffffffffffffffffffff00ffffffff61ffff95861662010000027fffffffffffffffffffffffffffffffffffffffffffffffffffffffff00000000909316959094169490941717919091169190911790555050565b6001600160a01b03808316600090815260076020908152604091829020825160a081018452815460ff808216151583526101008204169382019390935263ffffffff620100008404169381019390935266010000000000009091049092166060820152600190910154608082015261078260095460ff6401000000009091041690565b156107b9576040517fca47cca000000000000000000000000000000000000000000000000000000000815260040160405180910390fd5b80606001516001600160a01b0316336001600160a01b03161461080a576040517f669f262e00000000000000000000000000000000000000000000000000000000815233600482015260240161032c565b805115806108205750604081015163ffffffff16155b15610857576040517f9ff6d96b00000000000000000000000000000000000000000000000000000000815260040160405180910390fd5b818160800151146108a45760808101516040517f79aa5c5f00000000000000000000000000000000000000000000000000000000815260048101919091526024810183905260440161032c565b600454602082015160408084015190516001600160a01b0387169363ffffffff16927f56c9f1d1001236f66c1e5d598905029b4093031f31aead3449a53d832eade2259261090f92889060ff93909316835263ffffffff919091166020830152604082015260600190565b60405180910390a360006040828101828152608084018381526001600160a01b03878116855260076020908152939094208551815494870151935160608801517fffffffffffffffffffffffffffffffffffffffffffffffffffffffffffff00009096169115157fffffffffffffffffffffffffffffffffffffffffffffffffffffffffffff00ff169190911761010060ff909516948502177fffffffffffff000000000000000000000000000000000000000000000000ffff166201000063ffffffff90921682027fffffffffffff0000000000000000000000000000000000000000ffffffffffff16176601000000000000959096169490940294909417845551600190930192909255600980549091600291610a349185910461ffff16613577565b92506101000a81548161ffff021916908361ffff160217905550505050565b60095460028054604080516020808402820181019092528281526060948594859462010000830461ffff169464010000000090930460ff16936000938493919290849084015b82821015610b385760008481526020908190206040805160a0810182526003860290920180546001600160a01b0390811684526001808301548216858701526002909201549081169284019290925260ff74010000000000000000000000000000000000000000830481166060850152750100000000000000000000000000000000000000000090920490911660808301529083529092019101610a99565b50505050905060005b8151811015610c0257600060076000848481518110610b6257610b62613592565b6020908102919091018101518101516001600160a01b039081168352828201939093526040918201600020825160a081018452815460ff808216151583526101008204169382019390935263ffffffff6201000084041693810184905266010000000000009092049093166060820152600190920154608083015290915015610bf157610bee846135c1565b93505b50610bfb816135c1565b9050610b41565b508167ffffffffffffffff811115610c1c57610c1c61317e565b604051908082528060200260200182016040528015610c45578160200160208202803683370190505b5096508167ffffffffffffffff811115610c6157610c6161317e565b604051908082528060200260200182016040528015610c8a578160200160208202803683370190505b5095508167ffffffffffffffff811115610ca657610ca661317e565b604051908082528060200260200182016040528015610ccf578160200160208202803683370190505b5094506000805b8251811015610e19576000838281518110610cf357610cf3613592565b6020908102919091018101518101516001600160a01b03808216600090815260078452604090819020815160a081018352815460ff808216151583526101008204169682019690965263ffffffff6201000087041692810183905266010000000000009095049092166060850152600190910154608084015290925015610e0657818b8581518110610d8757610d87613592565b60200260200101906001600160a01b031690816001600160a01b03168152505080604001518a8581518110610dbe57610dbe613592565b602002602001019063ffffffff16908163ffffffff16815250508060800151898581518110610def57610def613592565b6020908102919091010152610e03846135c1565b93505b505080610e12906135c1565b9050610cd6565b505050509091929394565b6040805160608082018352808252600060208084018290528385018290526004548551600280549384028201608090810190985294810183815263ffffffff808416986401000000009094041696959194919385939192859285015b82821015610f1f5760008481526020908190206040805160a0810182526003860290920180546001600160a01b0390811684526001808301548216858701526002909201549081169284019290925260ff74010000000000000000000000000000000000000000830481166060850152750100000000000000000000000000000000000000000090920490911660808301529083529092019101610e80565b505050908252506001919091015461ffff8082166020840152620100009091041660409091015292939192919050565b610f57611f78565b610f6081611fec565b50565b6000600681610fb4610f7a368690038601866135f9565b8051602091820151604080516001600160a01b03909316838501528281019190915280518083038201815260609092019052805191012090565b8152602081019190915260400160002054760100000000000000000000000000000000000000000000900460ff1692915050565b610ff0611f78565b60005b818110156112e857600083838381811061100f5761100f613592565b9050606002018036038101906110259190613650565b80516001600160a01b03908116600090815260076020908152604091829020825160a081018452815460ff808216151583526101008204169382019390935263ffffffff6201000084041681850152660100000000000090920490931660608201526001909201546080830152820151919250901580156110ae57508160200151816080015114155b15611109578151608082015160208085015160408051938452918301526001600160a01b03909216917ff4e3b20447f3f83360469333a2578825ae355d192dd6f59c6516d832fa425a53910160405180910390a250506112d8565b8051158061111f5750604081015163ffffffff16155b1561112b5750506112d8565b81516004546020838101516040808601516080870151825160ff909416845263ffffffff91821694840194909452908201929092526001600160a01b03909316929116907f56c9f1d1001236f66c1e5d598905029b4093031f31aead3449a53d832eade2259060600160405180910390a3600060408281018281526080840183815285516001600160a01b03908116855260076020908152939094208551815494870151935160608801517fffffffffffffffffffffffffffffffffffffffffffffffffffffffffffff00009096169115157fffffffffffffffffffffffffffffffffffffffffffffffffffffffffffff00ff169190911761010060ff909516948502177fffffffffffff000000000000000000000000000000000000000000000000ffff166201000063ffffffff90921682027fffffffffffff0000000000000000000000000000000000000000ffffffffffff161766010000000000009590961694909402949094178455516001909301929092556009805490916002916112bb9185910461ffff16613577565b92506101000a81548161ffff021916908361ffff16021790555050505b6112e1816135c1565b9050610ff3565b50600954640100000000900460ff168015611311575060095461ffff8082166201000090920416105b1561145c57600980547fffffffffffffffffffffffffffffffffffffffffffffffffffffff00ffffffff1690556040517f08c773aaf7568c6b9110dcdfc13c27177410582ee30e157d1aa306b49d603eb790600090a16040805160028054608060208202840181019094526060830181815261145c948492849160009085015b828210156114305760008481526020908190206040805160a0810182526003860290920180546001600160a01b0390811684526001808301548216858701526002909201549081169284019290925260ff74010000000000000000000000000000000000000000830481166060850152750100000000000000000000000000000000000000000090920490911660808301529083529092019101611391565b505050908252506001919091015461ffff80821660208401526201000090910416604090910152611fec565b5050565b6001546001600160a01b031633146114d4576040517f08c379a000000000000000000000000000000000000000000000000000000000815260206004820152601660248201527f4d7573742062652070726f706f736564206f776e657200000000000000000000604482015260640161032c565b60008054337fffffffffffffffffffffffff0000000000000000000000000000000000000000808316821784556001805490911690556040516001600160a01b0390921692909183917f8be0079c531659141344cd1fd0a4f28419497f9722a3daafe3b4186f6b6457e091a350565b600954640100000000900460ff1615611588576040517fca47cca000000000000000000000000000000000000000000000000000000000815260040160405180910390fd5b600454336000908152600560209081526040918290208251606081018452905463ffffffff81811680845260ff64010000000084048116958501959095526501000000000090920490931693820193909352921691908214611618576040517f669f262e00000000000000000000000000000000000000000000000000000000815233600482015260240161032c565b60005b83811015611a3057600085858381811061163757611637613592565b90506040020180360381019061164d91906135f9565b9050600061168f828051602091820151604080516001600160a01b03909316838501528281019190915280518083038201815260609092019052805191012090565b6000818152600660209081526040918290208251608081018452905463ffffffff81168252640100000000810461ffff1692820192909252660100000000000082046fffffffffffffffffffffffffffffffff1692810192909252760100000000000000000000000000000000000000000000900460ff1615801560608301529192509061176757336001600160a01b03168663ffffffff167f274d6d5b916b0a53974b7ab86c844b97a2e03a60f658cd9a4b1c028b604d7bf185604051611757919061369e565b60405180910390a3505050611a20565b8563ffffffff16816000015163ffffffff16146117aa57506040805160808101825263ffffffff8716815260006020820181905291810182905260608101919091525b6117bc81604001518660400151612a6e565b1561180157336001600160a01b03168663ffffffff167f6dfbb745226fa630aeb1b9557d17d508ddb789a04f0cb873ec16e58beb8beead85604051611757919061369e565b61181381604001518660400151612aa8565b6fffffffffffffffffffffffffffffffff166040820152602080860151908201805160ff90921691611846908390613555565b61ffff169052506020858101516040805186516001600160a01b03168152868401519381019390935260ff9091168282015251339163ffffffff8916917f2a08a2bd2798f0aae9a843f0f4ad4de488c1b3d5f04049940cfed736ad69fb979181900360600190a3600354602082015161ffff9182169116106119335760016060820152602081015160405163ffffffff8816917f8257378aa73bf8e4ada848713526584a3dcee0fd3db3beed7397f7a7f5067cc99161192a91879182516001600160a01b031681526020928301519281019290925261ffff16604082015260600190565b60405180910390a25b6000918252600660209081526040928390208251815492840151948401516060909401511515760100000000000000000000000000000000000000000000027fffffffffffffffffff00ffffffffffffffffffffffffffffffffffffffffffff6fffffffffffffffffffffffffffffffff909516660100000000000002949094167fffffffffffffffffff0000000000000000000000000000000000ffffffffffff61ffff909616640100000000027fffffffffffffffffffffffffffffffffffffffffffffffffffff00000000000090941663ffffffff90921691909117929092179390931617179055505b611a29816135c1565b905061161b565b5050505050565b611a3f611f78565b60045463ffffffff1660005b82811015611bf5576000848483818110611a6757611a67613592565b905060400201803603810190611a7d91906135f9565b90506000611abf828051602091820151604080516001600160a01b03909316838501528281019190915280518083038201815260609092019052805191012090565b60008181526006602081815260408084208151608081018352815463ffffffff808216835261ffff640100000000830416838701526fffffffffffffffffffffffffffffffff66010000000000008304169483019490945260ff76010000000000000000000000000000000000000000000082041615156060830190815296889052949093527fffffffffffffffffff000000000000000000000000000000000000000000000090931690925591518251939450919281169087161480611b835750805b15611be0576040805185516001600160a01b031681526020808701519082015282151581830152905163ffffffff8816917f7d15a6eebaa019ea7d5b7d38937c51ebd3befbfdf51bb630a694fd28635bbcba919081900360600190a25b5050505080611bee906135c1565b9050611a4b565b50505050565b611c03611f78565b6040514281527f367ba81ba03ea9fa7ee089ecfb43b1c35e0935bc87a472abf615b7580dc16b799060200160405180910390a1600954640100000000900460ff16611cbe57600980547fffffffffffffffffffffffffffffffffffffffffffffffffffffff00ffffffff1664010000000017905560045460405163ffffffff909116907f6ec7e144a45fa03ed986874794df08b5b6bbbb27ed6454b4e6eaa74248b5e33390611cb59042815260200190565b60405180910390a25b565b611cc8611f78565b610f6081612acb565b606060008080611ce9610f7a368790038701876135f9565b6000818152600660209081526040918290208251608081018452905463ffffffff808216808452640100000000830461ffff1694840194909452660100000000000082046fffffffffffffffffffffffffffffffff1694830194909452760100000000000000000000000000000000000000000000900460ff16151560608201819052600454909650939450929091169003611f6f5760208101516040820151909450611d9581612ba6565b60ff1667ffffffffffffffff811115611db057611db061317e565b604051908082528060200260200182016040528015611dd9578160200160208202803683370190505b506002805460408051602080840282018101909252828152939950600093929190849084015b82821015611e9e5760008481526020908190206040805160a0810182526003860290920180546001600160a01b0390811684526001808301548216858701526002909201549081169284019290925260ff74010000000000000000000000000000000000000000830481166060850152750100000000000000000000000000000000000000000090920490911660808301529083529092019101611dff565b5050505090506000805b8251811015611f6a57611f018460056000868581518110611ecb57611ecb613592565b602090810291909101810151516001600160a01b031682528101919091526040016000205465010000000000900460ff16612a6e565b15611f5a57828181518110611f1857611f18613592565b602002602001015160000151898381518110611f3657611f36613592565b6001600160a01b0390921660209283029190910190910152611f57826135c1565b91505b611f63816135c1565b9050611ea8565b505050505b50509193909250565b6000546001600160a01b03163314611cbe576040517f08c379a000000000000000000000000000000000000000000000000000000000815260206004820152601660248201527f4f6e6c792063616c6c61626c65206279206f776e657200000000000000000000604482015260640161032c565b600954640100000000900460ff1615612031576040517fca47cca000000000000000000000000000000000000000000000000000000000815260040160405180910390fd5b61203a81612be5565b612070576040517f35be3ac800000000000000000000000000000000000000000000000000000000815260040160405180910390fd5b6040805160028054608060208202840181019094526060830181815260009484928491879085015b828210156121375760008481526020908190206040805160a0810182526003860290920180546001600160a01b0390811684526001808301548216858701526002909201549081169284019290925260ff74010000000000000000000000000000000000000000830481166060850152750100000000000000000000000000000000000000000090920490911660808301529083529092019101612098565b505050908252506001919091015461ffff80821660208085019190915262010000928390048216604094850152860151600380549488015183169093027fffffffffffffffffffffffffffffffffffffffffffffffffffffffff0000000090941691161791909117905590505b600254156123625760028054600091906121c0906001906136be565b815481106121d0576121d0613592565b600091825260208083206040805160a081018252600390940290910180546001600160a01b03908116808652600183015482168686019081526002938401548084168887015260ff740100000000000000000000000000000000000000008204811660608a015275010000000000000000000000000000000000000000009091041660808801529087526005855283872080547fffffffffffffffffffffffffffffffffffffffffffffffffffff00000000000016905551168552600790925290922080547fffffffffffffffffffffffffffffffffffffffffffffffffffffffffffffff001690558154909250806122cb576122cb6136d1565b60008281526020902060037fffffffffffffffffffffffffffffffffffffffffffffffffffffffffffffffff9092019182020180547fffffffffffffffffffffffff00000000000000000000000000000000000000009081168255600182018054909116905560020180547fffffffffffffffffffff000000000000000000000000000000000000000000001690559055506121a4565b60005b8251518110156124ab5782518051600291908390811061238757612387613592565b602090810291909101810151825460018082018555600094855293839020825160039092020180547fffffffffffffffffffffffff00000000000000000000000000000000000000009081166001600160a01b03938416178255938301519481018054909416948216949094179092556040810151600290930180546060830151608090930151949093167fffffffffffffffffffffff000000000000000000000000000000000000000000909316929092177401000000000000000000000000000000000000000060ff92831602177fffffffffffffffffffff00ffffffffffffffffffffffffffffffffffffffffff16750100000000000000000000000000000000000000000091909316029190911790556124a4816135c1565b9050612365565b50600480546000906124c29063ffffffff16613532565b82546101009290920a63ffffffff8181021990931691831602179091556004541660005b83515160ff8216101561272357600084600001518260ff168151811061250e5761250e613592565b602090810291909101810151604080516060808201835263ffffffff88811683528185015160ff90811684880190815289821685870190815287516001600160a01b03908116600090815260058b5288812097518854945193519087167fffffffffffffffffffffffffffffffffffffffffffffffffffffff00000000009095169490941764010000000093861693909302929092177fffffffffffffffffffffffffffffffffffffffffffffffffffff00ffffffffff16650100000000009385169390930292909217909555855160a08101875260018082526080808a01518516838c019081528a8c01805186168a526007808e528b8b205462010000908190048a16878e019081529d8d015188169a87019a8b52825188168c52818f528c8c20860154948701948552915187168b52909c5298909720915182549851995196517fffffffffffffffffffffffffffffffffffffffffffffffffffffffffffff00009099169015157fffffffffffffffffffffffffffffffffffffffffffffffffffffffffffff00ff16176101009990941698909802929092177fffffffffffff000000000000000000000000000000000000000000000000ffff16939092169096027fffffffffffff0000000000000000000000000000000000000000ffffffffffff169190911766010000000000009390911692909202919091178355519101555061271c81613700565b90506124e6565b506004805463ffffffff438116640100000000027fffffffffffffffffffffffffffffffffffffffffffffffff00000000ffffffff90921691909117909155604051908216907f7cf8e698b191db138396ab0eae2ad5b3fe353fd014fd5956b034b86f2d605cfd9061279690869061371f565b60405180910390a2604080516060810182528482015161ffff168152600060208201819052918101829052905b83515160ff8216101561298f57600084600001518260ff16815181106127eb576127eb613592565b6020908102919091018101518101516001600160a01b03808216600090815260078452604090819020815160a081018352815460ff808216151580845261010083049091169783019790975263ffffffff6201000082041693820193909352660100000000000090920490921660608201526001909101546080820152909250906128b7576001600160a01b038216600090815260076020526040812080547fffffffffffff00000000000000000000000000000000000000000000000000001681556001015561297c565b805180156128cf57506000816040015163ffffffff16115b1561297c57806020015160ff16846020018181516128ed9190613555565b61ffff1690525060208082015160408084015160808501519388015191516001600160a01b0387169463ffffffff8b16947fb4a70189a30e3d3b9c77d291f83699633e70ab4427fc3644a955ab4cca077b039461297394919391929160ff94909416845263ffffffff929092166020840152604083015261ffff16606082015260800190565b60405180910390a35b50508061298890613700565b90506127c3565b508051602082015161ffff918216911610801560408301526129ec578163ffffffff167f6ec7e144a45fa03ed986874794df08b5b6bbbb27ed6454b4e6eaa74248b5e333426040516129e391815260200190565b60405180910390a25b80516009805460208401516040909401511515640100000000027fffffffffffffffffffffffffffffffffffffffffffffffffffffff00ffffffff61ffff95861662010000027fffffffffffffffffffffffffffffffffffffffffffffffffffffffff0000000090931695909416949094171791909116919091179055505050565b600060808260ff1610612a8357612a83613732565b50600160ff82161b82166fffffffffffffffffffffffffffffffff1615155b92915050565b600060808260ff1610612abd57612abd613732565b50600160ff919091161b1790565b336001600160a01b03821603612b3d576040517f08c379a000000000000000000000000000000000000000000000000000000000815260206004820152601760248201527f43616e6e6f74207472616e7366657220746f2073656c66000000000000000000604482015260640161032c565b600180547fffffffffffffffffffffffff0000000000000000000000000000000000000000166001600160a01b0383811691821790925560008054604051929316917fed8889f560326eb138920d842192f0eb3dd22b4f139c87a2c57538e05bae12789190a350565b60005b6fffffffffffffffffffffffffffffffff821615612be057612bcc600183613761565b90911690612bd981613700565b9050612ba9565b919050565b8051516000901580612bf957508151516080105b80612c0a5750602082015161ffff16155b80612c1b5750604082015161ffff16155b15612c2857506000919050565b60008060008460000151516003612c3f919061378a565b67ffffffffffffffff811115612c5757612c5761317e565b604051908082528060200260200182016040528015612c80578160200160208202803683370190505b50905060005b855151811015612e2b57600086600001518281518110612ca857612ca8613592565b6020026020010151905060006001600160a01b031681600001516001600160a01b03161480612ce2575060208101516001600160a01b0316155b80612cf8575060408101516001600160a01b0316155b80612d185750606081015160ff16158015612d185750608081015160ff16155b15612d2a575060009695505050505050565b805183612d3884600361378a565b612d439060006137a1565b81518110612d5357612d53613592565b6001600160a01b0390921660209283029190910182015281015183612d7984600361378a565b612d849060016137a1565b81518110612d9457612d94613592565b6001600160a01b0390921660209283029190910190910152604081015183612dbd84600361378a565b612dc89060026137a1565b81518110612dd857612dd8613592565b6001600160a01b03909216602092830291909101909101526060810151612e029060ff16866137a1565b9450806080015160ff1684612e1791906137a1565b93505080612e24906135c1565b9050612c86565b5060005b8151811015612ed4576000828281518110612e4c57612e4c613592565b602002602001015190506000826001612e6591906137a1565b90505b8351811015612ec157838181518110612e8357612e83613592565b60200260200101516001600160a01b0316826001600160a01b031603612eb157506000979650505050505050565b612eba816135c1565b9050612e68565b505080612ecd906135c1565b9050612e2f565b50846020015161ffff168310158015612ef55750846040015161ffff168210155b95945050505050565b600060208284031215612f1057600080fd5b5035919050565b600060208083528351808285015260005b81811015612f4457858101830151858201604001528201612f28565b5060006040828601015260407fffffffffffffffffffffffffffffffffffffffffffffffffffffffffffffffe0601f8301168501019250505092915050565b80356001600160a01b0381168114612be057600080fd5b60008060408385031215612fad57600080fd5b612fb683612f83565b946020939093013593505050565b600081518084526020808501945080840160005b83811015612ffd5781516001600160a01b031687529582019590820190600101612fd8565b509495945050505050565b60a08152600061301b60a0830188612fc4565b82810360208481019190915287518083528882019282019060005b8181101561305857845163ffffffff1683529383019391830191600101613036565b50508481036040860152875180825290820192508188019060005b8181101561308f57825185529383019391830191600101613073565b50505061ffff8616606085015250905082151560808301525b9695505050505050565b8051606080845281518482018190526000926080916020918201918388019190865b8281101561312c57845180516001600160a01b03908116865283820151811684870152604080830151909116908601528781015160ff908116898701529087015116868501529381019360a0909301926001016130d4565b508781015161ffff81168a83015295505050604086015193506130a8604088018561ffff169052565b600063ffffffff808616835280851660208401525060606040830152612ef560608301846130b2565b7f4e487b7100000000000000000000000000000000000000000000000000000000600052604160045260246000fd5b6040516060810167ffffffffffffffff811182821017156131d0576131d061317e565b60405290565b60405160a0810167ffffffffffffffff811182821017156131d0576131d061317e565b604051601f82017fffffffffffffffffffffffffffffffffffffffffffffffffffffffffffffffe016810167ffffffffffffffff811182821017156132405761324061317e565b604052919050565b803560ff81168114612be057600080fd5b803561ffff81168114612be057600080fd5b6000602080838503121561327e57600080fd5b823567ffffffffffffffff8082111561329657600080fd5b818501915060608083880312156132ac57600080fd5b6132b46131ad565b8335838111156132c357600080fd5b8401601f810189136132d457600080fd5b8035848111156132e6576132e661317e565b6132f4878260051b016131f9565b818152878101955060a091820283018801918b83111561331357600080fd5b928801925b828410156133925780848d0312156133305760008081fd5b6133386131d6565b61334185612f83565b815261334e8a8601612f83565b8a820152604061335f818701612f83565b9082015261336e858801613248565b87820152608061337f818701613248565b9082015287529588019592830192613318565b508352506133a39050848601613259565b858201526133b360408501613259565b6040820152979650505050505050565b6000604082840312156133d557600080fd5b50919050565b600080602083850312156133ee57600080fd5b823567ffffffffffffffff8082111561340657600080fd5b818501915085601f83011261341a57600080fd5b81358181111561342957600080fd5b86602060608302850101111561343e57600080fd5b60209290920196919550909350505050565b6000806020838503121561346357600080fd5b823567ffffffffffffffff8082111561347b57600080fd5b818501915085601f83011261348f57600080fd5b81358181111561349e57600080fd5b8660208260061b850101111561343e57600080fd5b6000602082840312156134c557600080fd5b6134ce82612f83565b9392505050565b6060815260006134e86060830186612fc4565b61ffff94909416602083015250901515604090910152919050565b7f4e487b7100000000000000000000000000000000000000000000000000000000600052601160045260246000fd5b600063ffffffff80831681810361354b5761354b613503565b6001019392505050565b61ffff81811683821601908082111561357057613570613503565b5092915050565b61ffff82811682821603908082111561357057613570613503565b7f4e487b7100000000000000000000000000000000000000000000000000000000600052603260045260246000fd5b60007fffffffffffffffffffffffffffffffffffffffffffffffffffffffffffffffff82036135f2576135f2613503565b5060010190565b60006040828403121561360b57600080fd5b6040516040810181811067ffffffffffffffff8211171561362e5761362e61317e565b60405261363a83612f83565b8152602083013560208201528091505092915050565b60006060828403121561366257600080fd5b61366a6131ad565b61367383612f83565b8152602083013560208201526040830135801515811461369257600080fd5b60408201529392505050565b81516001600160a01b031681526020808301519082015260408101612aa2565b81810381811115612aa257612aa2613503565b7f4e487b7100000000000000000000000000000000000000000000000000000000600052603160045260246000fd5b600060ff821660ff810361371657613716613503565b60010192915050565b6020815260006134ce60208301846130b2565b7f4e487b7100000000000000000000000000000000000000000000000000000000600052600160045260246000fd5b6fffffffffffffffffffffffffffffffff82811682821603908082111561357057613570613503565b8082028115828204841417612aa257612aa2613503565b80820180821115612aa257612aa261350356fea164736f6c6343000815000a",
    "linkReferences": {}
  },
  "methodIdentifiers": {
    "acceptOwnership()": "79ba5097",
    "getBlessProgress((address,bytes32))": "f33f2895",
    "getConfigDetails()": "3f42ab73",
    "getCurseProgress()": "3987d651",
    "isBlessed((address,bytes32))": "4d616771",
    "isCursed()": "397796f7",
    "owner()": "8da5cb5b",
    "ownerCurse()": "e4bbc05c",
    "ownerResetBlessVotes((address,bytes32)[])": "ba86a1f0",
    "ownerUnvoteToCurse((address,bytes32,bool)[])": "618af128",
    "setConfig(((address,address,address,uint8,uint8)[],uint16,uint16))": "47cf2b60",
    "transferOwnership(address)": "f2fde38b",
    "typeAndVersion()": "181f5a77",
    "unvoteToCurse(address,bytes32)": "35aea869",
    "voteToBless((address,bytes32)[])": "97998611",
    "voteToCurse(bytes32)": "119a3527"
  },
  "id": 98
}