{
  "abi": [
    {
      "inputs": [
        {
          "internalType": "string",
          "name": "_name",
          "type": "string"
        },
        {
          "internalType": "string",
          "name": "_symbol",
          "type": "string"
        },
        {
          "internalType": "address",
          "name": "_openMarket",
          "type": "address"
        },
        {
          "internalType": "address",
          "name": "_wdrex",
          "type": "address"
        }
      ],
      "stateMutability": "nonpayable",
      "type": "constructor"
    },
    {
      "inputs": [],
      "name": "ApprovalCallerNotOwnerNorApproved",
      "type": "error"
    },
    {
      "inputs": [],
      "name": "ApprovalQueryForNonexistentToken",
      "type": "error"
    },
    {
      "inputs": [],
      "name": "BalanceQueryForZeroAddress",
      "type": "error"
    },
    {
      "inputs": [],
      "name": "MintERC2309QuantityExceedsLimit",
      "type": "error"
    },
    {
      "inputs": [],
      "name": "MintToZeroAddress",
      "type": "error"
    },
    {
      "inputs": [],
      "name": "MintZeroQuantity",
      "type": "error"
    },
    {
      "inputs": [],
      "name": "NotEmitter",
      "type": "error"
    },
    {
      "inputs": [],
      "name": "NotKYCed",
      "type": "error"
    },
    {
      "inputs": [],
      "name": "NotValidTreasuryType",
      "type": "error"
    },
    {
      "inputs": [
        {
          "internalType": "address",
          "name": "owner",
          "type": "address"
        }
      ],
      "name": "OwnableInvalidOwner",
      "type": "error"
    },
    {
      "inputs": [
        {
          "internalType": "address",
          "name": "account",
          "type": "address"
        }
      ],
      "name": "OwnableUnauthorizedAccount",
      "type": "error"
    },
    {
      "inputs": [],
      "name": "OwnerQueryForNonexistentToken",
      "type": "error"
    },
    {
      "inputs": [],
      "name": "OwnershipNotInitializedForExtraData",
      "type": "error"
    },
    {
      "inputs": [],
      "name": "TransferCallerNotOwnerNorApproved",
      "type": "error"
    },
    {
      "inputs": [],
      "name": "TransferFromIncorrectOwner",
      "type": "error"
    },
    {
      "inputs": [],
      "name": "TransferToNonERC721ReceiverImplementer",
      "type": "error"
    },
    {
      "inputs": [],
      "name": "TransferToZeroAddress",
      "type": "error"
    },
    {
      "inputs": [],
      "name": "URIQueryForNonexistentToken",
      "type": "error"
    },
    {
      "inputs": [
        {
          "internalType": "address",
          "name": "_sender",
          "type": "address"
        }
      ],
      "name": "notOpenMarketContract",
      "type": "error"
    },
    {
      "anonymous": false,
      "inputs": [
        {
          "indexed": true,
          "internalType": "address",
          "name": "owner",
          "type": "address"
        },
        {
          "indexed": true,
          "internalType": "address",
          "name": "approved",
          "type": "address"
        },
        {
          "indexed": true,
          "internalType": "uint256",
          "name": "tokenId",
          "type": "uint256"
        }
      ],
      "name": "Approval",
      "type": "event"
    },
    {
      "anonymous": false,
      "inputs": [
        {
          "indexed": true,
          "internalType": "address",
          "name": "owner",
          "type": "address"
        },
        {
          "indexed": true,
          "internalType": "address",
          "name": "operator",
          "type": "address"
        },
        {
          "indexed": false,
          "internalType": "bool",
          "name": "approved",
          "type": "bool"
        }
      ],
      "name": "ApprovalForAll",
      "type": "event"
    },
    {
      "anonymous": false,
      "inputs": [
        {
          "indexed": true,
          "internalType": "uint256",
          "name": "fromTokenId",
          "type": "uint256"
        },
        {
          "indexed": false,
          "internalType": "uint256",
          "name": "toTokenId",
          "type": "uint256"
        },
        {
          "indexed": true,
          "internalType": "address",
          "name": "from",
          "type": "address"
        },
        {
          "indexed": true,
          "internalType": "address",
          "name": "to",
          "type": "address"
        }
      ],
      "name": "ConsecutiveTransfer",
      "type": "event"
    },
    {
      "anonymous": false,
      "inputs": [
        {
          "indexed": true,
          "internalType": "address",
          "name": "previousOwner",
          "type": "address"
        },
        {
          "indexed": true,
          "internalType": "address",
          "name": "newOwner",
          "type": "address"
        }
      ],
      "name": "OwnershipTransferred",
      "type": "event"
    },
    {
      "anonymous": false,
      "inputs": [
        {
          "indexed": true,
          "internalType": "address",
          "name": "from",
          "type": "address"
        },
        {
          "indexed": true,
          "internalType": "address",
          "name": "to",
          "type": "address"
        },
        {
          "indexed": true,
          "internalType": "uint256",
          "name": "tokenId",
          "type": "uint256"
        }
      ],
      "name": "Transfer",
      "type": "event"
    },
    {
      "anonymous": false,
      "inputs": [
        {
          "indexed": true,
          "internalType": "uint256",
          "name": "_tokenId",
          "type": "uint256"
        },
        {
          "indexed": true,
          "internalType": "uint256",
          "name": "_totalValue",
          "type": "uint256"
        },
        {
          "indexed": true,
          "internalType": "uint256",
          "name": "_apy",
          "type": "uint256"
        },
        {
          "indexed": false,
          "internalType": "uint256",
          "name": "_duration",
          "type": "uint256"
        },
        {
          "indexed": false,
          "internalType": "enum tesouroDireto.treasuryType",
          "name": "",
          "type": "uint8"
        }
      ],
      "name": "treasuryCreated",
      "type": "event"
    },
    {
      "inputs": [
        {
          "internalType": "address",
          "name": "to",
          "type": "address"
        },
        {
          "internalType": "uint256",
          "name": "tokenId",
          "type": "uint256"
        }
      ],
      "name": "approve",
      "outputs": [],
      "stateMutability": "payable",
      "type": "function"
    },
    {
      "inputs": [
        {
          "internalType": "address",
          "name": "owner",
          "type": "address"
        }
      ],
      "name": "balanceOf",
      "outputs": [
        {
          "internalType": "uint256",
          "name": "",
          "type": "uint256"
        }
      ],
      "stateMutability": "view",
      "type": "function"
    },
    {
      "inputs": [
        {
          "components": [
            {
              "internalType": "enum tesouroDireto.treasuryType",
              "name": "_type",
              "type": "uint8"
            },
            {
              "internalType": "uint24",
              "name": "_apy",
              "type": "uint24"
            },
            {
              "internalType": "uint256",
              "name": "_minInvestment",
              "type": "uint256"
            },
            {
              "internalType": "uint256",
              "name": "_validThru",
              "type": "uint256"
            },
            {
              "internalType": "uint256",
              "name": "_avlbTokens",
              "type": "uint256"
            },
            {
              "internalType": "uint256",
              "name": "_creation",
              "type": "uint256"
            }
          ],
          "internalType": "struct tesouroDireto.treasuryData",
          "name": "_data",
          "type": "tuple"
        }
      ],
      "name": "emitTreasury",
      "outputs": [],
      "stateMutability": "nonpayable",
      "type": "function"
    },
    {
      "inputs": [],
      "name": "emitter",
      "outputs": [
        {
          "internalType": "address",
          "name": "",
          "type": "address"
        }
      ],
      "stateMutability": "view",
      "type": "function"
    },
    {
      "inputs": [
        {
          "internalType": "uint256",
          "name": "tokenId",
          "type": "uint256"
        }
      ],
      "name": "getApproved",
      "outputs": [
        {
          "internalType": "address",
          "name": "",
          "type": "address"
        }
      ],
      "stateMutability": "view",
      "type": "function"
    },
    {
      "inputs": [
        {
          "internalType": "uint256",
          "name": "_tokenId",
          "type": "uint256"
        }
      ],
      "name": "getPriceAmount",
      "outputs": [
        {
          "internalType": "uint256",
          "name": "_price",
          "type": "uint256"
        },
        {
          "internalType": "uint256",
          "name": "_amount",
          "type": "uint256"
        }
      ],
      "stateMutability": "view",
      "type": "function"
    },
    {
      "inputs": [
        {
          "internalType": "uint256",
          "name": "_tokenId",
          "type": "uint256"
        }
      ],
      "name": "getTokenInfo",
      "outputs": [
        {
          "internalType": "uint24",
          "name": "_apy",
          "type": "uint24"
        },
        {
          "internalType": "uint256",
          "name": "_validThru",
          "type": "uint256"
        },
        {
          "internalType": "uint256",
          "name": "_price",
          "type": "uint256"
        },
        {
          "internalType": "uint256",
          "name": "_creation",
          "type": "uint256"
        }
      ],
      "stateMutability": "view",
      "type": "function"
    },
    {
      "inputs": [
        {
          "internalType": "address",
          "name": "owner",
          "type": "address"
        },
        {
          "internalType": "address",
          "name": "operator",
          "type": "address"
        }
      ],
      "name": "isApprovedForAll",
      "outputs": [
        {
          "internalType": "bool",
          "name": "",
          "type": "bool"
        }
      ],
      "stateMutability": "view",
      "type": "function"
    },
    {
      "inputs": [],
      "name": "name",
      "outputs": [
        {
          "internalType": "string",
          "name": "",
          "type": "string"
        }
      ],
      "stateMutability": "view",
      "type": "function"
    },
    {
      "inputs": [
        {
          "internalType": "address",
          "name": "operator",
          "type": "address"
        },
        {
          "internalType": "address",
          "name": "from",
          "type": "address"
        },
        {
          "internalType": "uint256",
          "name": "tokenId",
          "type": "uint256"
        },
        {
          "internalType": "bytes",
          "name": "data",
          "type": "bytes"
        }
      ],
      "name": "onERC721Received",
      "outputs": [
        {
          "internalType": "bytes4",
          "name": "",
          "type": "bytes4"
        }
      ],
      "stateMutability": "nonpayable",
      "type": "function"
    },
    {
      "inputs": [],
      "name": "openMarket",
      "outputs": [
        {
          "internalType": "address",
          "name": "",
          "type": "address"
        }
      ],
      "stateMutability": "view",
      "type": "function"
    },
    {
      "inputs": [
        {
          "internalType": "uint256",
          "name": "_tokenId",
          "type": "uint256"
        }
      ],
      "name": "openPublicOffer",
      "outputs": [],
      "stateMutability": "nonpayable",
      "type": "function"
    },
    {
      "inputs": [],
      "name": "owner",
      "outputs": [
        {
          "internalType": "address",
          "name": "",
          "type": "address"
        }
      ],
      "stateMutability": "view",
      "type": "function"
    },
    {
      "inputs": [
        {
          "internalType": "uint256",
          "name": "tokenId",
          "type": "uint256"
        }
      ],
      "name": "ownerOf",
      "outputs": [
        {
          "internalType": "address",
          "name": "",
          "type": "address"
        }
      ],
      "stateMutability": "view",
      "type": "function"
    },
    {
      "inputs": [],
      "name": "renounceOwnership",
      "outputs": [],
      "stateMutability": "nonpayable",
      "type": "function"
    },
    {
      "inputs": [
        {
          "internalType": "uint256",
          "name": "_tokenId",
          "type": "uint256"
        },
        {
          "internalType": "uint256",
          "name": "_amount",
          "type": "uint256"
        }
      ],
      "name": "retrievePartialInvestment",
      "outputs": [
        {
          "internalType": "bool",
          "name": "",
          "type": "bool"
        }
      ],
      "stateMutability": "nonpayable",
      "type": "function"
    },
    {
      "inputs": [
        {
          "internalType": "uint256",
          "name": "_tokenId",
          "type": "uint256"
        },
        {
          "internalType": "uint256",
          "name": "_amount",
          "type": "uint256"
        }
      ],
      "name": "retriveFullInvestment",
      "outputs": [
        {
          "internalType": "bool",
          "name": "",
          "type": "bool"
        }
      ],
      "stateMutability": "nonpayable",
      "type": "function"
    },
    {
      "inputs": [
        {
          "internalType": "address",
          "name": "from",
          "type": "address"
        },
        {
          "internalType": "address",
          "name": "to",
          "type": "address"
        },
        {
          "internalType": "uint256",
          "name": "tokenId",
          "type": "uint256"
        }
      ],
      "name": "safeTransferFrom",
      "outputs": [],
      "stateMutability": "payable",
      "type": "function"
    },
    {
      "inputs": [
        {
          "internalType": "address",
          "name": "from",
          "type": "address"
        },
        {
          "internalType": "address",
          "name": "to",
          "type": "address"
        },
        {
          "internalType": "uint256",
          "name": "tokenId",
          "type": "uint256"
        },
        {
          "internalType": "bytes",
          "name": "_data",
          "type": "bytes"
        }
      ],
      "name": "safeTransferFrom",
      "outputs": [],
      "stateMutability": "payable",
      "type": "function"
    },
    {
      "inputs": [
        {
          "internalType": "address",
          "name": "operator",
          "type": "address"
        },
        {
          "internalType": "bool",
          "name": "approved",
          "type": "bool"
        }
      ],
      "name": "setApprovalForAll",
      "outputs": [],
      "stateMutability": "nonpayable",
      "type": "function"
    },
    {
      "inputs": [
        {
          "internalType": "address",
          "name": "_newemmit",
          "type": "address"
        }
      ],
      "name": "setEmmiter",
      "outputs": [],
      "stateMutability": "nonpayable",
      "type": "function"
    },
    {
      "inputs": [
        {
          "internalType": "bytes4",
          "name": "interfaceId",
          "type": "bytes4"
        }
      ],
      "name": "supportsInterface",
      "outputs": [
        {
          "internalType": "bool",
          "name": "",
          "type": "bool"
        }
      ],
      "stateMutability": "view",
      "type": "function"
    },
    {
      "inputs": [],
      "name": "symbol",
      "outputs": [
        {
          "internalType": "string",
          "name": "",
          "type": "string"
        }
      ],
      "stateMutability": "view",
      "type": "function"
    },
    {
      "inputs": [
        {
          "internalType": "uint256",
          "name": "",
          "type": "uint256"
        }
      ],
      "name": "tokenInfo",
      "outputs": [
        {
          "internalType": "enum tesouroDireto.treasuryType",
          "name": "_type",
          "type": "uint8"
        },
        {
          "internalType": "uint24",
          "name": "_apy",
          "type": "uint24"
        },
        {
          "internalType": "uint256",
          "name": "_minInvestment",
          "type": "uint256"
        },
        {
          "internalType": "uint256",
          "name": "_validThru",
          "type": "uint256"
        },
        {
          "internalType": "uint256",
          "name": "_avlbTokens",
          "type": "uint256"
        },
        {
          "internalType": "uint256",
          "name": "_creation",
          "type": "uint256"
        }
      ],
      "stateMutability": "view",
      "type": "function"
    },
    {
      "inputs": [
        {
          "internalType": "uint256",
          "name": "tokenId",
          "type": "uint256"
        }
      ],
      "name": "tokenURI",
      "outputs": [
        {
          "internalType": "string",
          "name": "",
          "type": "string"
        }
      ],
      "stateMutability": "view",
      "type": "function"
    },
    {
      "inputs": [],
      "name": "totalSupply",
      "outputs": [
        {
          "internalType": "uint256",
          "name": "",
          "type": "uint256"
        }
      ],
      "stateMutability": "view",
      "type": "function"
    },
    {
      "inputs": [
        {
          "internalType": "address",
          "name": "from",
          "type": "address"
        },
        {
          "internalType": "address",
          "name": "to",
          "type": "address"
        },
        {
          "internalType": "uint256",
          "name": "tokenId",
          "type": "uint256"
        }
      ],
      "name": "transferFrom",
      "outputs": [],
      "stateMutability": "payable",
      "type": "function"
    },
    {
      "inputs": [
        {
          "internalType": "address",
          "name": "newOwner",
          "type": "address"
        }
      ],
      "name": "transferOwnership",
      "outputs": [],
      "stateMutability": "nonpayable",
      "type": "function"
    }
  ],
  "bytecode": {
    "object": "0x60806040523480156200001157600080fd5b506040516200289738038062002897833981016040819052620000349162000294565b3384846002620000458382620003b2565b506003620000548282620003b2565b506000805550506001600160a01b0381166200008a57604051631e4fbdf760e01b81526000600482015260240160405180910390fd5b620000958162000160565b5060098054336001600160a01b031991821681179092556000918252600a60205260408220805460ff1990811660019081179092557f68a236bdaf4f5728dabd191202112eb2a5f92eb8333b41181a440ea157970298805482168317905573f58b1eb6b61444dca38a2fffc03ff59cea2b2fa19093527f91281387ed3ba86c7afa461bef0eb05145c5089bc23c62f3fafa71f0b3dda444805490931617909155600b805482166001600160a01b03948516179055600c805490911691909216179055506200047e9050565b600880546001600160a01b038381166001600160a01b0319831681179093556040519116919082907f8be0079c531659141344cd1fd0a4f28419497f9722a3daafe3b4186f6b6457e090600090a35050565b634e487b7160e01b600052604160045260246000fd5b600082601f830112620001da57600080fd5b81516001600160401b0380821115620001f757620001f7620001b2565b604051601f8301601f19908116603f01168101908282118183101715620002225762000222620001b2565b816040528381526020925086838588010111156200023f57600080fd5b600091505b8382101562000263578582018301518183018401529082019062000244565b600093810190920192909252949350505050565b80516001600160a01b03811681146200028f57600080fd5b919050565b60008060008060808587031215620002ab57600080fd5b84516001600160401b0380821115620002c357600080fd5b620002d188838901620001c8565b95506020870151915080821115620002e857600080fd5b50620002f787828801620001c8565b935050620003086040860162000277565b9150620003186060860162000277565b905092959194509250565b600181811c908216806200033857607f821691505b6020821081036200035957634e487b7160e01b600052602260045260246000fd5b50919050565b601f821115620003ad57600081815260208120601f850160051c81016020861015620003885750805b601f850160051c820191505b81811015620003a95782815560010162000394565b5050505b505050565b81516001600160401b03811115620003ce57620003ce620001b2565b620003e681620003df845462000323565b846200035f565b602080601f8311600181146200041e5760008415620004055750858301515b600019600386901b1c1916600185901b178555620003a9565b600085815260208120601f198616915b828110156200044f578886015182559484019460019091019084016200042e565b50858210156200046e5787850151600019600388901b60f8161c191681555b5050505050600190811b01905550565b612409806200048e6000396000f3fe6080604052600436106101b75760003560e01c80638c7a63ae116100ec578063c87b56dd1161008a578063dce1137511610064578063dce1137514610632578063e985e9c51461065f578063f2fde38b146106b5578063fdddaff3146106d557600080fd5b8063c87b56dd1461058b578063cc33c875146105ab578063d6ceaa701461061257600080fd5b8063a22cb465116100c6578063a22cb465146104eb578063a768ef651461050b578063b176c59d1461052b578063b88d4fde1461057857600080fd5b80638c7a63ae146104385780638da5cb5b146104ab57806395d89b41146104d657600080fd5b806323b872dd116101595780635cd0ea89116101335780635cd0ea89146103c35780636352211e146103e357806370a0823114610403578063715018a61461042357600080fd5b806323b872dd146103705780633606f5b91461038357806342842e0e146103b057600080fd5b8063095ea7b311610195578063095ea7b314610258578063150b7a021461026d57806318160ddd146102e3578063181b22351461030657600080fd5b806301ffc9a7146101bc57806306fdde03146101f1578063081812fc14610213575b600080fd5b3480156101c857600080fd5b506101dc6101d7366004611d02565b6106f8565b60405190151581526020015b60405180910390f35b3480156101fd57600080fd5b506102066107dd565b6040516101e89190611d8d565b34801561021f57600080fd5b5061023361022e366004611da0565b61086f565b60405173ffffffffffffffffffffffffffffffffffffffff90911681526020016101e8565b61026b610266366004611de2565b6108d9565b005b34801561027957600080fd5b506102b2610288366004611e0c565b7f150b7a020000000000000000000000000000000000000000000000000000000095945050505050565b6040517fffffffff0000000000000000000000000000000000000000000000000000000090911681526020016101e8565b3480156102ef57600080fd5b50600154600054035b6040519081526020016101e8565b34801561031257600080fd5b5061026b610321366004611ea7565b73ffffffffffffffffffffffffffffffffffffffff166000908152600a6020526040902080547fffffffffffffffffffffffffffffffffffffffffffffffffffffffffffffff00166001179055565b61026b61037e366004611ec2565b6109c4565b34801561038f57600080fd5b50600b546102339073ffffffffffffffffffffffffffffffffffffffff1681565b61026b6103be366004611ec2565b610c77565b3480156103cf57600080fd5b5061026b6103de366004611da0565b610c97565b3480156103ef57600080fd5b506102336103fe366004611da0565b610da7565b34801561040f57600080fd5b506102f861041e366004611ea7565b610db2565b34801561042f57600080fd5b5061026b610e34565b34801561044457600080fd5b50610485610453366004611da0565b6000908152600d6020526040902080546002820154600183015460049093015461010090920462ffffff169390929190565b6040805162ffffff909516855260208501939093529183015260608201526080016101e8565b3480156104b757600080fd5b5060085473ffffffffffffffffffffffffffffffffffffffff16610233565b3480156104e257600080fd5b50610206610e48565b3480156104f757600080fd5b5061026b610506366004611f0c565b610e57565b34801561051757600080fd5b5061026b610526366004611fea565b610eee565b34801561053757600080fd5b50610563610546366004611da0565b6000908152600d6020526040902060018101546003909101549091565b604080519283526020830191909152016101e8565b61026b610586366004612064565b61118d565b34801561059757600080fd5b506102066105a6366004611da0565b6111fd565b3480156105b757600080fd5b506106006105c6366004611da0565b600d602052600090815260409020805460018201546002830154600384015460049094015460ff84169461010090940462ffffff16939086565b6040516101e8969594939291906121ac565b34801561061e57600080fd5b506101dc61062d3660046121e7565b6112a7565b34801561063e57600080fd5b506009546102339073ffffffffffffffffffffffffffffffffffffffff1681565b34801561066b57600080fd5b506101dc61067a366004612209565b73ffffffffffffffffffffffffffffffffffffffff918216600090815260076020908152604080832093909416825291909152205460ff1690565b3480156106c157600080fd5b5061026b6106d0366004611ea7565b611682565b3480156106e157600080fd5b506101dc6106f03660046121e7565b600192915050565b60007f01ffc9a7000000000000000000000000000000000000000000000000000000007fffffffff000000000000000000000000000000000000000000000000000000008316148061078b57507f80ac58cd000000000000000000000000000000000000000000000000000000007fffffffff000000000000000000000000000000000000000000000000000000008316145b806107d757507f5b5e139f000000000000000000000000000000000000000000000000000000007fffffffff000000000000000000000000000000000000000000000000000000008316145b92915050565b6060600280546107ec9061223c565b80601f01602080910402602001604051908101604052809291908181526020018280546108189061223c565b80156108655780601f1061083a57610100808354040283529160200191610865565b820191906000526020600020905b81548152906001019060200180831161084857829003601f168201915b5050505050905090565b600061087a826116e3565b6108b0576040517fcf4700e400000000000000000000000000000000000000000000000000000000815260040160405180910390fd5b5060009081526006602052604090205473ffffffffffffffffffffffffffffffffffffffff1690565b60006108e482610da7565b90503373ffffffffffffffffffffffffffffffffffffffff8216146109435761090d813361067a565b610943576040517fcfb3b94200000000000000000000000000000000000000000000000000000000815260040160405180910390fd5b60008281526006602052604080822080547fffffffffffffffffffffffff00000000000000000000000000000000000000001673ffffffffffffffffffffffffffffffffffffffff87811691821790925591518593918516917f8c5be1e5ebec7d5bd14f71427d1e84f3dd0314c0f7b2291e5b200ac8c7c3b92591a4505050565b60006109cf82611723565b90508373ffffffffffffffffffffffffffffffffffffffff168173ffffffffffffffffffffffffffffffffffffffff1614610a36576040517fa114810000000000000000000000000000000000000000000000000000000000815260040160405180910390fd5b600082815260066020526040902080543380821473ffffffffffffffffffffffffffffffffffffffff881690911417610aa957610a73863361067a565b610aa9576040517f59c896be00000000000000000000000000000000000000000000000000000000815260040160405180910390fd5b73ffffffffffffffffffffffffffffffffffffffff8516610af6576040517fea553b3400000000000000000000000000000000000000000000000000000000815260040160405180910390fd5b8015610b0157600082555b73ffffffffffffffffffffffffffffffffffffffff86811660009081526005602052604080822080547fffffffffffffffffffffffffffffffffffffffffffffffffffffffffffffffff019055918716808252919020805460010190554260a01b7fffffff0000000000000000000000000000000000000000000000000000000000851617177c0200000000000000000000000000000000000000000000000000000000176000858152600460205260408120919091557c020000000000000000000000000000000000000000000000000000000084169003610c1457600184016000818152600460205260408120549003610c12576000548114610c125760008181526004602052604090208490555b505b838573ffffffffffffffffffffffffffffffffffffffff168773ffffffffffffffffffffffffffffffffffffffff167fddf252ad1be2c89b69c2b068fc378daa952ba7f163c4a11628f55a4df523b3ef60405160405180910390a4505050505050565b610c928383836040518060200160405280600081525061118d565b505050565b30610ca182610da7565b73ffffffffffffffffffffffffffffffffffffffff1614610d49576040517f08c379a000000000000000000000000000000000000000000000000000000000815260206004820152602a60248201527f5465736f75726f2044697265746f203a204e6f7420696e20747265617375727960448201527f206f776e6572736869700000000000000000000000000000000000000000000060648201526084015b60405180910390fd5b600081815260066020526040902080547fffffffffffffffffffffffff00000000000000000000000000000000000000001633179055600b54610da490309073ffffffffffffffffffffffffffffffffffffffff1683610c77565b50565b60006107d782611723565b600073ffffffffffffffffffffffffffffffffffffffff8216610e01576040517f8f4eb60400000000000000000000000000000000000000000000000000000000815260040160405180910390fd5b5073ffffffffffffffffffffffffffffffffffffffff1660009081526005602052604090205467ffffffffffffffff1690565b610e3c6117da565b610e46600061182d565b565b6060600380546107ec9061223c565b33600081815260076020908152604080832073ffffffffffffffffffffffffffffffffffffffff87168085529083529281902080547fffffffffffffffffffffffffffffffffffffffffffffffffffffffffffffff001686151590811790915590519081529192917f17307eab39ab6107e8899845ad3d59bd9653f200f220920489ca2b5937696c31910160405180910390a35050565b4260a082015280600d6000610f0260005490565b815260208101919091526040016000208151815482907fffffffffffffffffffffffffffffffffffffffffffffffffffffffffffffff00166001836004811115610f4e57610f4e612142565b02179055506020820151815462ffffff909116610100027fffffffffffffffffffffffffffffffffffffffffffffffffffffffff000000ff90911617815560408201516001820155606082015160028201556080820151600382015560a090910151600490910155600081516004811115610fcb57610fcb612142565b0361101257610feb306001604051806020016040528060008152506118a4565b61100d6001610ff960005490565b61100391906122be565b8260200151611937565b611118565b60018151600481111561102757611027612142565b0361104757610feb306001604051806020016040528060008152506118a4565b60028151600481111561105c5761105c612142565b0361107c57610feb306001604051806020016040528060008152506118a4565b60038151600481111561109157611091612142565b036110b157610feb306001604051806020016040528060008152506118a4565b6004815160048111156110c6576110c6612142565b036110e657610feb306001604051806020016040528060008152506118a4565b6040517f46c371fa00000000000000000000000000000000000000000000000000000000815260040160405180910390fd5b806020015162ffffff168160400151826080015161113691906122d1565b600161114160005490565b61114b91906122be565b606084015184516040517ff83eeebb88a585a0bf111d55674f1c4cff9319871b905a62e7ede317bc032149926111829290916122e8565b60405180910390a450565b6111988484846109c4565b73ffffffffffffffffffffffffffffffffffffffff83163b156111f7576111c1848484846119bb565b6111f7576040517fd1a57ed600000000000000000000000000000000000000000000000000000000815260040160405180910390fd5b50505050565b6060611208826116e3565b61123e576040517fa14c4b5000000000000000000000000000000000000000000000000000000000815260040160405180910390fd5b600061125560408051602081019091526000815290565b9050805160000361127557604051806020016040528060008152506112a0565b8061127f84611b34565b6040516020016112909291906122fc565b6040516020818303038152906040525b9392505050565b600b5460009073ffffffffffffffffffffffffffffffffffffffff1633146112fd576040517fd9e17650000000000000000000000000000000000000000000000000000000008152336004820152602401610d40565b600080600080611339876000908152600d6020526040902080546002820154600183015460049093015461010090920462ffffff169390929190565b9350935093509350828161134d919061232b565b4210156113dc576040517f08c379a000000000000000000000000000000000000000000000000000000000815260206004820152603060248201527f5465736f75726f2044697265746f203a2043616e6e6f7420726574726965766560448201527f2066756c6c20616d6f756e7420796574000000000000000000000000000000006064820152608401610d40565b600061271062ffffff86166113f56301e133808761233e565b6113ff8a876122d1565b61140991906122d1565b61141391906122d1565b61141d919061233e565b600c546040517f23b872dd00000000000000000000000000000000000000000000000000000000815273ffffffffffffffffffffffffffffffffffffffff90911660048201819052306024830152604482018390529192506323b872dd906064016020604051808303816000875af115801561149d573d6000803e3d6000fd5b505050506040513d601f19601f820116820180604052508101906114c19190612379565b61154d576040517f08c379a000000000000000000000000000000000000000000000000000000000815260206004820152602760248201527f5465736f75726f2044697265746f203a2052657472696576616c206e6f74207060448201527f6f737369626c65000000000000000000000000000000000000000000000000006064820152608401610d40565b600c546040517fa9059cbb0000000000000000000000000000000000000000000000000000000081523260048201526024810183905273ffffffffffffffffffffffffffffffffffffffff9091169063a9059cbb906044016020604051808303816000875af11580156115c4573d6000803e3d6000fd5b505050506040513d601f19601f820116820180604052508101906115e89190612379565b611674576040517f08c379a000000000000000000000000000000000000000000000000000000000815260206004820152602760248201527f5465736f75726f2044697265746f203a2052657472696576616c206e6f74207060448201527f6f737369626c65000000000000000000000000000000000000000000000000006064820152608401610d40565b506001979650505050505050565b61168a6117da565b73ffffffffffffffffffffffffffffffffffffffff81166116da576040517f1e4fbdf700000000000000000000000000000000000000000000000000000000815260006004820152602401610d40565b610da48161182d565b60008054821080156107d75750506000908152600460205260409020547c0100000000000000000000000000000000000000000000000000000000161590565b6000816000548110156117a857600081815260046020526040812054907c0100000000000000000000000000000000000000000000000000000000821690036117a6575b806000036112a057507fffffffffffffffffffffffffffffffffffffffffffffffffffffffffffffffff01600081815260046020526040902054611767565b505b6040517fdf2d9b4200000000000000000000000000000000000000000000000000000000815260040160405180910390fd5b60085473ffffffffffffffffffffffffffffffffffffffff163314610e46576040517f118cdaa7000000000000000000000000000000000000000000000000000000008152336004820152602401610d40565b6008805473ffffffffffffffffffffffffffffffffffffffff8381167fffffffffffffffffffffffff0000000000000000000000000000000000000000831681179093556040519116919082907f8be0079c531659141344cd1fd0a4f28419497f9722a3daafe3b4186f6b6457e090600090a35050565b6118ae8383611b96565b73ffffffffffffffffffffffffffffffffffffffff83163b15610c92576000548281035b6118e560008683806001019450866119bb565b61191b576040517fd1a57ed600000000000000000000000000000000000000000000000000000000815260040160405180910390fd5b8181106118d257816000541461193057600080fd5b5050505050565b6000828152600460205260408120549081900361197f576040517ed5815300000000000000000000000000000000000000000000000000000000815260040160405180910390fd5b6000928352600460205260409092207cffffffffffffffffffffffffffffffffffffffffffffffffffffffffff9290921660e89190911b179055565b6040517f150b7a0200000000000000000000000000000000000000000000000000000000815260009073ffffffffffffffffffffffffffffffffffffffff85169063150b7a0290611a16903390899088908890600401612396565b6020604051808303816000875af1925050508015611a6f575060408051601f3d9081017fffffffffffffffffffffffffffffffffffffffffffffffffffffffffffffffe0168201909252611a6c918101906123df565b60015b611ae6573d808015611a9d576040519150601f19603f3d011682016040523d82523d6000602084013e611aa2565b606091505b508051600003611ade576040517fd1a57ed600000000000000000000000000000000000000000000000000000000815260040160405180910390fd5b805181602001fd5b7fffffffff00000000000000000000000000000000000000000000000000000000167f150b7a0200000000000000000000000000000000000000000000000000000000149050949350505050565b606060a06040510180604052602081039150506000815280825b600183039250600a81066030018353600a900480611b4e57508190037fffffffffffffffffffffffffffffffffffffffffffffffffffffffffffffffe0909101908152919050565b6000805490829003611bd4576040517fb562e8dd00000000000000000000000000000000000000000000000000000000815260040160405180910390fd5b73ffffffffffffffffffffffffffffffffffffffff831660008181526005602090815260408083208054680100000000000000018802019055848352600490915281206001851460e11b4260a01b178317905582840190839083907fddf252ad1be2c89b69c2b068fc378daa952ba7f163c4a11628f55a4df523b3ef8180a4600183015b818114611c9057808360007fddf252ad1be2c89b69c2b068fc378daa952ba7f163c4a11628f55a4df523b3ef600080a4600101611c58565b5081600003611ccb576040517f2e07630000000000000000000000000000000000000000000000000000000000815260040160405180910390fd5b60005550505050565b7fffffffff0000000000000000000000000000000000000000000000000000000081168114610da457600080fd5b600060208284031215611d1457600080fd5b81356112a081611cd4565b60005b83811015611d3a578181015183820152602001611d22565b50506000910152565b60008151808452611d5b816020860160208601611d1f565b601f017fffffffffffffffffffffffffffffffffffffffffffffffffffffffffffffffe0169290920160200192915050565b6020815260006112a06020830184611d43565b600060208284031215611db257600080fd5b5035919050565b803573ffffffffffffffffffffffffffffffffffffffff81168114611ddd57600080fd5b919050565b60008060408385031215611df557600080fd5b611dfe83611db9565b946020939093013593505050565b600080600080600060808688031215611e2457600080fd5b611e2d86611db9565b9450611e3b60208701611db9565b935060408601359250606086013567ffffffffffffffff80821115611e5f57600080fd5b818801915088601f830112611e7357600080fd5b813581811115611e8257600080fd5b896020828501011115611e9457600080fd5b9699959850939650602001949392505050565b600060208284031215611eb957600080fd5b6112a082611db9565b600080600060608486031215611ed757600080fd5b611ee084611db9565b9250611eee60208501611db9565b9150604084013590509250925092565b8015158114610da457600080fd5b60008060408385031215611f1f57600080fd5b611f2883611db9565b91506020830135611f3881611efe565b809150509250929050565b7f4e487b7100000000000000000000000000000000000000000000000000000000600052604160045260246000fd5b60405160c0810167ffffffffffffffff81118282101715611f9557611f95611f43565b60405290565b604051601f82017fffffffffffffffffffffffffffffffffffffffffffffffffffffffffffffffe016810167ffffffffffffffff81118282101715611fe257611fe2611f43565b604052919050565b600060c08284031215611ffc57600080fd5b612004611f72565b82356005811061201357600080fd5b8152602083013562ffffff8116811461202b57600080fd5b8060208301525060408301356040820152606083013560608201526080830135608082015260a083013560a08201528091505092915050565b6000806000806080858703121561207a57600080fd5b61208385611db9565b93506020612092818701611db9565b935060408601359250606086013567ffffffffffffffff808211156120b657600080fd5b818801915088601f8301126120ca57600080fd5b8135818111156120dc576120dc611f43565b61210c847fffffffffffffffffffffffffffffffffffffffffffffffffffffffffffffffe0601f84011601611f9b565b9150808252898482850101111561212257600080fd5b808484018584013760008482840101525080935050505092959194509250565b7f4e487b7100000000000000000000000000000000000000000000000000000000600052602160045260246000fd5b600581106121a8577f4e487b7100000000000000000000000000000000000000000000000000000000600052602160045260246000fd5b9052565b60c081016121ba8289612171565b62ffffff96909616602082015260408101949094526060840192909252608083015260a090910152919050565b600080604083850312156121fa57600080fd5b50508035926020909101359150565b6000806040838503121561221c57600080fd5b61222583611db9565b915061223360208401611db9565b90509250929050565b600181811c9082168061225057607f821691505b602082108103612289577f4e487b7100000000000000000000000000000000000000000000000000000000600052602260045260246000fd5b50919050565b7f4e487b7100000000000000000000000000000000000000000000000000000000600052601160045260246000fd5b818103818111156107d7576107d761228f565b80820281158282048414176107d7576107d761228f565b828152604081016112a06020830184612171565b6000835161230e818460208801611d1f565b835190830190612322818360208801611d1f565b01949350505050565b808201808211156107d7576107d761228f565b600082612374577f4e487b7100000000000000000000000000000000000000000000000000000000600052601260045260246000fd5b500490565b60006020828403121561238b57600080fd5b81516112a081611efe565b600073ffffffffffffffffffffffffffffffffffffffff8087168352808616602084015250836040830152608060608301526123d56080830184611d43565b9695505050505050565b6000602082840312156123f157600080fd5b81516112a081611cd456fea164736f6c6343000815000a",
    "linkReferences": {}
  },
  "methodIdentifiers": {
    "approve(address,uint256)": "095ea7b3",
    "balanceOf(address)": "70a08231",
    "emitTreasury((uint8,uint24,uint256,uint256,uint256,uint256))": "a768ef65",
    "emitter()": "dce11375",
    "getApproved(uint256)": "081812fc",
    "getPriceAmount(uint256)": "b176c59d",
    "getTokenInfo(uint256)": "8c7a63ae",
    "isApprovedForAll(address,address)": "e985e9c5",
    "name()": "06fdde03",
    "onERC721Received(address,address,uint256,bytes)": "150b7a02",
    "openMarket()": "3606f5b9",
    "openPublicOffer(uint256)": "5cd0ea89",
    "owner()": "8da5cb5b",
    "ownerOf(uint256)": "6352211e",
    "renounceOwnership()": "715018a6",
    "retrievePartialInvestment(uint256,uint256)": "fdddaff3",
    "retriveFullInvestment(uint256,uint256)": "d6ceaa70",
    "safeTransferFrom(address,address,uint256)": "42842e0e",
    "safeTransferFrom(address,address,uint256,bytes)": "b88d4fde",
    "setApprovalForAll(address,bool)": "a22cb465",
    "setEmmiter(address)": "181b2235",
    "supportsInterface(bytes4)": "01ffc9a7",
    "symbol()": "95d89b41",
    "tokenInfo(uint256)": "cc33c875",
    "tokenURI(uint256)": "c87b56dd",
    "totalSupply()": "18160ddd",
    "transferFrom(address,address,uint256)": "23b872dd",
    "transferOwnership(address)": "f2fde38b"
  },
  "id": 62
}