{
  "abi": [
    {
      "inputs": [
        {
          "internalType": "contract IRouterClient",
          "name": "router",
          "type": "address"
        },
        {
          "internalType": "contract IERC20",
          "name": "feeToken",
          "type": "address"
        }
      ],
      "stateMutability": "nonpayable",
      "type": "constructor"
    },
    {
      "inputs": [
        {
          "internalType": "uint64",
          "name": "chainSelector",
          "type": "uint64"
        }
      ],
      "name": "InvalidChain",
      "type": "error"
    },
    {
      "inputs": [],
      "name": "InvalidConfig",
      "type": "error"
    },
    {
      "inputs": [
        {
          "internalType": "address",
          "name": "router",
          "type": "address"
        }
      ],
      "name": "InvalidRouter",
      "type": "error"
    },
    {
      "anonymous": false,
      "inputs": [
        {
          "indexed": false,
          "internalType": "bytes32",
          "name": "messageId",
          "type": "bytes32"
        }
      ],
      "name": "MessageReceived",
      "type": "event"
    },
    {
      "anonymous": false,
      "inputs": [
        {
          "indexed": false,
          "internalType": "bytes32",
          "name": "messageId",
          "type": "bytes32"
        }
      ],
      "name": "MessageSent",
      "type": "event"
    },
    {
      "anonymous": false,
      "inputs": [
        {
          "indexed": true,
          "internalType": "address",
          "name": "from",
          "type": "address"
        },
        {
          "indexed": true,
          "internalType": "address",
          "name": "to",
          "type": "address"
        }
      ],
      "name": "OwnershipTransferRequested",
      "type": "event"
    },
    {
      "anonymous": false,
      "inputs": [
        {
          "indexed": true,
          "internalType": "address",
          "name": "from",
          "type": "address"
        },
        {
          "indexed": true,
          "internalType": "address",
          "name": "to",
          "type": "address"
        }
      ],
      "name": "OwnershipTransferred",
      "type": "event"
    },
    {
      "inputs": [],
      "name": "acceptOwnership",
      "outputs": [],
      "stateMutability": "nonpayable",
      "type": "function"
    },
    {
      "inputs": [
        {
          "components": [
            {
              "internalType": "bytes32",
              "name": "messageId",
              "type": "bytes32"
            },
            {
              "internalType": "uint64",
              "name": "sourceChainSelector",
              "type": "uint64"
            },
            {
              "internalType": "bytes",
              "name": "sender",
              "type": "bytes"
            },
            {
              "internalType": "bytes",
              "name": "data",
              "type": "bytes"
            },
            {
              "components": [
                {
                  "internalType": "address",
                  "name": "token",
                  "type": "address"
                },
                {
                  "internalType": "uint256",
                  "name": "amount",
                  "type": "uint256"
                }
              ],
              "internalType": "struct Client.EVMTokenAmount[]",
              "name": "destTokenAmounts",
              "type": "tuple[]"
            }
          ],
          "internalType": "struct Client.Any2EVMMessage",
          "name": "message",
          "type": "tuple"
        }
      ],
      "name": "ccipReceive",
      "outputs": [],
      "stateMutability": "nonpayable",
      "type": "function"
    },
    {
      "inputs": [
        {
          "internalType": "uint64",
          "name": "chainSelector",
          "type": "uint64"
        }
      ],
      "name": "disableChain",
      "outputs": [],
      "stateMutability": "nonpayable",
      "type": "function"
    },
    {
      "inputs": [
        {
          "internalType": "uint64",
          "name": "chainSelector",
          "type": "uint64"
        },
        {
          "internalType": "bytes",
          "name": "extraArgs",
          "type": "bytes"
        }
      ],
      "name": "enableChain",
      "outputs": [],
      "stateMutability": "nonpayable",
      "type": "function"
    },
    {
      "inputs": [],
      "name": "getRouter",
      "outputs": [
        {
          "internalType": "address",
          "name": "",
          "type": "address"
        }
      ],
      "stateMutability": "view",
      "type": "function"
    },
    {
      "inputs": [],
      "name": "owner",
      "outputs": [
        {
          "internalType": "address",
          "name": "",
          "type": "address"
        }
      ],
      "stateMutability": "view",
      "type": "function"
    },
    {
      "inputs": [
        {
          "internalType": "uint64",
          "name": "destChainSelector",
          "type": "uint64"
        }
      ],
      "name": "s_chains",
      "outputs": [
        {
          "internalType": "bytes",
          "name": "extraArgsBytes",
          "type": "bytes"
        }
      ],
      "stateMutability": "view",
      "type": "function"
    },
    {
      "inputs": [],
      "name": "s_feeToken",
      "outputs": [
        {
          "internalType": "contract IERC20",
          "name": "",
          "type": "address"
        }
      ],
      "stateMutability": "view",
      "type": "function"
    },
    {
      "inputs": [
        {
          "internalType": "uint64",
          "name": "destChainSelector",
          "type": "uint64"
        },
        {
          "internalType": "bytes",
          "name": "receiver",
          "type": "bytes"
        },
        {
          "internalType": "bytes",
          "name": "data",
          "type": "bytes"
        },
        {
          "components": [
            {
              "internalType": "address",
              "name": "token",
              "type": "address"
            },
            {
              "internalType": "uint256",
              "name": "amount",
              "type": "uint256"
            }
          ],
          "internalType": "struct Client.EVMTokenAmount[]",
          "name": "tokenAmounts",
          "type": "tuple[]"
        }
      ],
      "name": "sendDataAndTokens",
      "outputs": [],
      "stateMutability": "nonpayable",
      "type": "function"
    },
    {
      "inputs": [
        {
          "internalType": "uint64",
          "name": "destChainSelector",
          "type": "uint64"
        },
        {
          "internalType": "bytes",
          "name": "receiver",
          "type": "bytes"
        },
        {
          "internalType": "bytes",
          "name": "data",
          "type": "bytes"
        }
      ],
      "name": "sendDataPayFeeToken",
      "outputs": [],
      "stateMutability": "nonpayable",
      "type": "function"
    },
    {
      "inputs": [
        {
          "internalType": "uint64",
          "name": "destChainSelector",
          "type": "uint64"
        },
        {
          "internalType": "bytes",
          "name": "receiver",
          "type": "bytes"
        },
        {
          "internalType": "bytes",
          "name": "data",
          "type": "bytes"
        }
      ],
      "name": "sendDataPayNative",
      "outputs": [],
      "stateMutability": "nonpayable",
      "type": "function"
    },
    {
      "inputs": [
        {
          "internalType": "uint64",
          "name": "destChainSelector",
          "type": "uint64"
        },
        {
          "internalType": "bytes",
          "name": "receiver",
          "type": "bytes"
        },
        {
          "components": [
            {
              "internalType": "address",
              "name": "token",
              "type": "address"
            },
            {
              "internalType": "uint256",
              "name": "amount",
              "type": "uint256"
            }
          ],
          "internalType": "struct Client.EVMTokenAmount[]",
          "name": "tokenAmounts",
          "type": "tuple[]"
        }
      ],
      "name": "sendTokens",
      "outputs": [],
      "stateMutability": "nonpayable",
      "type": "function"
    },
    {
      "inputs": [
        {
          "internalType": "bytes4",
          "name": "interfaceId",
          "type": "bytes4"
        }
      ],
      "name": "supportsInterface",
      "outputs": [
        {
          "internalType": "bool",
          "name": "",
          "type": "bool"
        }
      ],
      "stateMutability": "pure",
      "type": "function"
    },
    {
      "inputs": [
        {
          "internalType": "address",
          "name": "to",
          "type": "address"
        }
      ],
      "name": "transferOwnership",
      "outputs": [],
      "stateMutability": "nonpayable",
      "type": "function"
    }
  ],
  "bytecode": {
    "object": "0x60a06040523480156200001157600080fd5b5060405162001fab38038062001fab833981016040819052620000349162000256565b33806000846001600160a01b03811662000069576040516335fdcccd60e21b8152600060048201526024015b60405180910390fd5b6001600160a01b039081166080528216620000c75760405162461bcd60e51b815260206004820152601860248201527f43616e6e6f7420736574206f776e657220746f207a65726f0000000000000000604482015260640162000060565b600080546001600160a01b0319166001600160a01b0384811691909117909155811615620000fa57620000fa8162000192565b5050600280546001600160a01b0319166001600160a01b0384811691821790925560405163095ea7b360e01b815291851660048301526000196024830152915063095ea7b3906044016020604051808303816000875af115801562000163573d6000803e3d6000fd5b505050506040513d601f19601f8201168201806040525081019062000189919062000295565b505050620002c0565b336001600160a01b03821603620001ec5760405162461bcd60e51b815260206004820152601760248201527f43616e6e6f74207472616e7366657220746f2073656c66000000000000000000604482015260640162000060565b600180546001600160a01b0319166001600160a01b0383811691821790925560008054604051929316917fed8889f560326eb138920d842192f0eb3dd22b4f139c87a2c57538e05bae12789190a350565b6001600160a01b03811681146200025357600080fd5b50565b600080604083850312156200026a57600080fd5b825162000277816200023d565b60208401519092506200028a816200023d565b809150509250929050565b600060208284031215620002a857600080fd5b81518015158114620002b957600080fd5b9392505050565b608051611ca562000306600039600081816101f4015281816104c40152818161081c01528181610b0101528181610d4801528181610fd401526110100152611ca56000f3fe608060405234801561001057600080fd5b50600436106100ea5760003560e01c806379ba50971161008c578063b0f479a111610066578063b0f479a1146101f2578063c0cb2d0814610218578063f2fde38b1461022b578063ff2deec31461023e57600080fd5b806379ba50971461019857806385572ffb146101a05780638da5cb5b146101b357600080fd5b80635dc02a2c116100c85780635dc02a2c1461013f5780635dc5ebdb14610152578063686fab79146101725780637383c8fb1461018557600080fd5b806301ffc9a7146100ef57806341eade46146101175780635d8e7f181461012c575b600080fd5b6101026100fd36600461131b565b61025e565b60405190151581526020015b60405180910390f35b61012a610125366004611381565b6102f7565b005b61012a61013a3660046114f4565b610324565b61012a61014d366004611568565b6105a4565b610165610160366004611381565b6105d4565b60405161010e919061161a565b61012a6101803660046116fc565b61066e565b61012a610193366004611766565b610953565b61012a610c33565b61012a6101ae3660046117ff565b610d30565b60005473ffffffffffffffffffffffffffffffffffffffff165b60405173ffffffffffffffffffffffffffffffffffffffff909116815260200161010e565b7f00000000000000000000000000000000000000000000000000000000000000006101cd565b61012a6102263660046114f4565b610e31565b61012a61023936600461183a565b61110c565b6002546101cd9073ffffffffffffffffffffffffffffffffffffffff1681565b60007fffffffff0000000000000000000000000000000000000000000000000000000082167f85572ffb0000000000000000000000000000000000000000000000000000000014806102f157507fffffffff0000000000000000000000000000000000000000000000000000000082167f01ffc9a700000000000000000000000000000000000000000000000000000000145b92915050565b6102ff61111d565b67ffffffffffffffff81166000908152600360205260408120610321916112cd565b50565b67ffffffffffffffff83166000908152600360205260409020805484919061034b90611855565b9050600003610397576040517fd79f2ea400000000000000000000000000000000000000000000000000000000815267ffffffffffffffff821660048201526024015b60405180910390fd5b60408051600080825260208201909252816103d4565b60408051808201909152600080825260208201528152602001906001900390816103ad5790505b506040805160a081018252868152602080820187905281830184905260025473ffffffffffffffffffffffffffffffffffffffff16606083015267ffffffffffffffff891660009081526003909152918220805493945091929091608083019161043d90611855565b80601f016020809104026020016040519081016040528092919081815260200182805461046990611855565b80156104b65780601f1061048b576101008083540402835291602001916104b6565b820191906000526020600020905b81548152906001019060200180831161049957829003601f168201915b5050505050815250905060007f000000000000000000000000000000000000000000000000000000000000000073ffffffffffffffffffffffffffffffffffffffff166396f4e9f988846040518363ffffffff1660e01b815260040161051d9291906118a8565b6020604051808303816000875af115801561053c573d6000803e3d6000fd5b505050506040513d601f19601f8201168201806040525081019061056091906119ba565b90507f54791b38f3859327992a1ca0590ad3c0f08feba98d1a4f56ab0dca74d203392a8160405161059391815260200190565b60405180910390a150505050505050565b6105ac61111d565b67ffffffffffffffff821660009081526003602052604090206105cf8282611a21565b505050565b600360205260009081526040902080546105ed90611855565b80601f016020809104026020016040519081016040528092919081815260200182805461061990611855565b80156106665780601f1061063b57610100808354040283529160200191610666565b820191906000526020600020905b81548152906001019060200180831161064957829003601f168201915b505050505081565b67ffffffffffffffff83166000908152600360205260409020805484919061069590611855565b90506000036106dc576040517fd79f2ea400000000000000000000000000000000000000000000000000000000815267ffffffffffffffff8216600482015260240161038e565b60005b82518110156108eb578281815181106106fa576106fa611b3b565b60200260200101516000015173ffffffffffffffffffffffffffffffffffffffff166323b872dd333086858151811061073557610735611b3b565b60209081029190910181015101516040517fffffffff0000000000000000000000000000000000000000000000000000000060e086901b16815273ffffffffffffffffffffffffffffffffffffffff938416600482015292909116602483015260448201526064016020604051808303816000875af11580156107bc573d6000803e3d6000fd5b505050506040513d601f19601f820116820180604052508101906107e09190611b6a565b508281815181106107f3576107f3611b3b565b60200260200101516000015173ffffffffffffffffffffffffffffffffffffffff1663095ea7b37f000000000000000000000000000000000000000000000000000000000000000085848151811061084d5761084d611b3b565b6020026020010151602001516040518363ffffffff1660e01b815260040161089792919073ffffffffffffffffffffffffffffffffffffffff929092168252602082015260400190565b6020604051808303816000875af11580156108b6573d6000803e3d6000fd5b505050506040513d601f19601f820116820180604052508101906108da9190611b6a565b506108e481611b8c565b90506106df565b506040805160a0810182528481526060602080830182905282840186905260025473ffffffffffffffffffffffffffffffffffffffff168383015267ffffffffffffffff88166000908152600390915292832080549193929160808301919061043d90611855565b67ffffffffffffffff84166000908152600360205260409020805485919061097a90611855565b90506000036109c1576040517fd79f2ea400000000000000000000000000000000000000000000000000000000815267ffffffffffffffff8216600482015260240161038e565b60005b8251811015610bd0578281815181106109df576109df611b3b565b60200260200101516000015173ffffffffffffffffffffffffffffffffffffffff166323b872dd3330868581518110610a1a57610a1a611b3b565b60209081029190910181015101516040517fffffffff0000000000000000000000000000000000000000000000000000000060e086901b16815273ffffffffffffffffffffffffffffffffffffffff938416600482015292909116602483015260448201526064016020604051808303816000875af1158015610aa1573d6000803e3d6000fd5b505050506040513d601f19601f82011682018060405250810190610ac59190611b6a565b50828181518110610ad857610ad8611b3b565b60200260200101516000015173ffffffffffffffffffffffffffffffffffffffff1663095ea7b37f0000000000000000000000000000000000000000000000000000000000000000858481518110610b3257610b32611b3b565b6020026020010151602001516040518363ffffffff1660e01b8152600401610b7c92919073ffffffffffffffffffffffffffffffffffffffff929092168252602082015260400190565b6020604051808303816000875af1158015610b9b573d6000803e3d6000fd5b505050506040513d601f19601f82011682018060405250810190610bbf9190611b6a565b50610bc981611b8c565b90506109c4565b506040805160a081018252858152602080820186905281830185905260025473ffffffffffffffffffffffffffffffffffffffff16606083015267ffffffffffffffff881660009081526003909152918220805460808301919061043d90611855565b60015473ffffffffffffffffffffffffffffffffffffffff163314610cb4576040517f08c379a000000000000000000000000000000000000000000000000000000000815260206004820152601660248201527f4d7573742062652070726f706f736564206f776e657200000000000000000000604482015260640161038e565b60008054337fffffffffffffffffffffffff00000000000000000000000000000000000000008083168217845560018054909116905560405173ffffffffffffffffffffffffffffffffffffffff90921692909183917f8be0079c531659141344cd1fd0a4f28419497f9722a3daafe3b4186f6b6457e091a350565b3373ffffffffffffffffffffffffffffffffffffffff7f00000000000000000000000000000000000000000000000000000000000000001614610da1576040517fd7f7333400000000000000000000000000000000000000000000000000000000815233600482015260240161038e565b610db16040820160208301611381565b67ffffffffffffffff811660009081526003602052604090208054610dd590611855565b9050600003610e1c576040517fd79f2ea400000000000000000000000000000000000000000000000000000000815267ffffffffffffffff8216600482015260240161038e565b610e2d610e2883611beb565b6111a0565b5050565b67ffffffffffffffff831660009081526003602052604090208054849190610e5890611855565b9050600003610e9f576040517fd79f2ea400000000000000000000000000000000000000000000000000000000815267ffffffffffffffff8216600482015260240161038e565b6040805160008082526020820190925281610edc565b6040805180820190915260008082526020820152815260200190600190039081610eb55790505b50905060006040518060a00160405280868152602001858152602001838152602001600073ffffffffffffffffffffffffffffffffffffffff168152602001600360008967ffffffffffffffff1667ffffffffffffffff1681526020019081526020016000208054610f4d90611855565b80601f0160208091040260200160405190810160405280929190818152602001828054610f7990611855565b8015610fc65780601f10610f9b57610100808354040283529160200191610fc6565b820191906000526020600020905b815481529060010190602001808311610fa957829003601f168201915b5050505050815250905060007f000000000000000000000000000000000000000000000000000000000000000073ffffffffffffffffffffffffffffffffffffffff166396f4e9f97f000000000000000000000000000000000000000000000000000000000000000073ffffffffffffffffffffffffffffffffffffffff166320487ded8a866040518363ffffffff1660e01b81526004016110699291906118a8565b602060405180830381865afa158015611086573d6000803e3d6000fd5b505050506040513d601f19601f820116820180604052508101906110aa91906119ba565b89856040518463ffffffff1660e01b81526004016110c99291906118a8565b60206040518083038185885af11580156110e7573d6000803e3d6000fd5b50505050506040513d601f19601f8201168201806040525081019061056091906119ba565b61111461111d565b610321816111d8565b60005473ffffffffffffffffffffffffffffffffffffffff16331461119e576040517f08c379a000000000000000000000000000000000000000000000000000000000815260206004820152601660248201527f4f6e6c792063616c6c61626c65206279206f776e657200000000000000000000604482015260640161038e565b565b80516040519081527fe29dc34207c78fc0f6048a32f159139c33339c6d6df8b07dcd33f6d699ff23279060200160405180910390a150565b3373ffffffffffffffffffffffffffffffffffffffff821603611257576040517f08c379a000000000000000000000000000000000000000000000000000000000815260206004820152601760248201527f43616e6e6f74207472616e7366657220746f2073656c66000000000000000000604482015260640161038e565b600180547fffffffffffffffffffffffff00000000000000000000000000000000000000001673ffffffffffffffffffffffffffffffffffffffff83811691821790925560008054604051929316917fed8889f560326eb138920d842192f0eb3dd22b4f139c87a2c57538e05bae12789190a350565b5080546112d990611855565b6000825580601f106112e9575050565b601f01602090049060005260206000209081019061032191905b808211156113175760008155600101611303565b5090565b60006020828403121561132d57600080fd5b81357fffffffff000000000000000000000000000000000000000000000000000000008116811461135d57600080fd5b9392505050565b803567ffffffffffffffff8116811461137c57600080fd5b919050565b60006020828403121561139357600080fd5b61135d82611364565b7f4e487b7100000000000000000000000000000000000000000000000000000000600052604160045260246000fd5b6040805190810167ffffffffffffffff811182821017156113ee576113ee61139c565b60405290565b60405160a0810167ffffffffffffffff811182821017156113ee576113ee61139c565b604051601f82017fffffffffffffffffffffffffffffffffffffffffffffffffffffffffffffffe016810167ffffffffffffffff8111828210171561145e5761145e61139c565b604052919050565b600082601f83011261147757600080fd5b813567ffffffffffffffff8111156114915761149161139c565b6114c260207fffffffffffffffffffffffffffffffffffffffffffffffffffffffffffffffe0601f84011601611417565b8181528460208386010111156114d757600080fd5b816020850160208301376000918101602001919091529392505050565b60008060006060848603121561150957600080fd5b61151284611364565b9250602084013567ffffffffffffffff8082111561152f57600080fd5b61153b87838801611466565b9350604086013591508082111561155157600080fd5b5061155e86828701611466565b9150509250925092565b6000806040838503121561157b57600080fd5b61158483611364565b9150602083013567ffffffffffffffff8111156115a057600080fd5b6115ac85828601611466565b9150509250929050565b6000815180845260005b818110156115dc576020818501810151868301820152016115c0565b5060006020828601015260207fffffffffffffffffffffffffffffffffffffffffffffffffffffffffffffffe0601f83011685010191505092915050565b60208152600061135d60208301846115b6565b803573ffffffffffffffffffffffffffffffffffffffff8116811461137c57600080fd5b600082601f83011261166257600080fd5b8135602067ffffffffffffffff82111561167e5761167e61139c565b61168c818360051b01611417565b82815260069290921b840181019181810190868411156116ab57600080fd5b8286015b848110156116f157604081890312156116c85760008081fd5b6116d06113cb565b6116d98261162d565b815281850135858201528352918301916040016116af565b509695505050505050565b60008060006060848603121561171157600080fd5b61171a84611364565b9250602084013567ffffffffffffffff8082111561173757600080fd5b61174387838801611466565b9350604086013591508082111561175957600080fd5b5061155e86828701611651565b6000806000806080858703121561177c57600080fd5b61178585611364565b9350602085013567ffffffffffffffff808211156117a257600080fd5b6117ae88838901611466565b945060408701359150808211156117c457600080fd5b6117d088838901611466565b935060608701359150808211156117e657600080fd5b506117f387828801611651565b91505092959194509250565b60006020828403121561181157600080fd5b813567ffffffffffffffff81111561182857600080fd5b820160a0818503121561135d57600080fd5b60006020828403121561184c57600080fd5b61135d8261162d565b600181811c9082168061186957607f821691505b6020821081036118a2577f4e487b7100000000000000000000000000000000000000000000000000000000600052602260045260246000fd5b50919050565b6000604067ffffffffffffffff8516835260208181850152845160a0838601526118d560e08601826115b6565b9050818601517fffffffffffffffffffffffffffffffffffffffffffffffffffffffffffffffc08087840301606088015261191083836115b6565b88860151888203830160808a01528051808352908601945060009350908501905b80841015611970578451805173ffffffffffffffffffffffffffffffffffffffff16835286015186830152938501936001939093019290860190611931565b50606089015173ffffffffffffffffffffffffffffffffffffffff1660a08901526080890151888203830160c08a015295506119ac81876115b6565b9a9950505050505050505050565b6000602082840312156119cc57600080fd5b5051919050565b601f8211156105cf57600081815260208120601f850160051c810160208610156119fa5750805b601f850160051c820191505b81811015611a1957828155600101611a06565b505050505050565b815167ffffffffffffffff811115611a3b57611a3b61139c565b611a4f81611a498454611855565b846119d3565b602080601f831160018114611aa25760008415611a6c5750858301515b7fffffffffffffffffffffffffffffffffffffffffffffffffffffffffffffffff600386901b1c1916600185901b178555611a19565b6000858152602081207fffffffffffffffffffffffffffffffffffffffffffffffffffffffffffffffe08616915b82811015611aef57888601518255948401946001909101908401611ad0565b5085821015611b2b57878501517fffffffffffffffffffffffffffffffffffffffffffffffffffffffffffffffff600388901b60f8161c191681555b5050505050600190811b01905550565b7f4e487b7100000000000000000000000000000000000000000000000000000000600052603260045260246000fd5b600060208284031215611b7c57600080fd5b8151801515811461135d57600080fd5b60007fffffffffffffffffffffffffffffffffffffffffffffffffffffffffffffffff8203611be4577f4e487b7100000000000000000000000000000000000000000000000000000000600052601160045260246000fd5b5060010190565b600060a08236031215611bfd57600080fd5b611c056113f4565b82358152611c1560208401611364565b6020820152604083013567ffffffffffffffff80821115611c3557600080fd5b611c4136838701611466565b60408401526060850135915080821115611c5a57600080fd5b611c6636838701611466565b60608401526080850135915080821115611c7f57600080fd5b50611c8c36828601611651565b6080830152509291505056fea164736f6c6343000815000a",
    "linkReferences": {}
  },
  "methodIdentifiers": {
    "acceptOwnership()": "79ba5097",
    "ccipReceive((bytes32,uint64,bytes,bytes,(address,uint256)[]))": "85572ffb",
    "disableChain(uint64)": "41eade46",
    "enableChain(uint64,bytes)": "5dc02a2c",
    "getRouter()": "b0f479a1",
    "owner()": "8da5cb5b",
    "s_chains(uint64)": "5dc5ebdb",
    "s_feeToken()": "ff2deec3",
    "sendDataAndTokens(uint64,bytes,bytes,(address,uint256)[])": "7383c8fb",
    "sendDataPayFeeToken(uint64,bytes,bytes)": "5d8e7f18",
    "sendDataPayNative(uint64,bytes,bytes)": "c0cb2d08",
    "sendTokens(uint64,bytes,(address,uint256)[])": "686fab79",
    "supportsInterface(bytes4)": "01ffc9a7",
    "transferOwnership(address)": "f2fde38b"
  },
  "id": 104
}