{
  "abi": [
    {
      "inputs": [],
      "name": "EmptyArgs",
      "type": "error"
    },
    {
      "inputs": [],
      "name": "EmptyArgs",
      "type": "error"
    },
    {
      "inputs": [],
      "name": "EmptySecrets",
      "type": "error"
    },
    {
      "inputs": [],
      "name": "EmptySecrets",
      "type": "error"
    },
    {
      "inputs": [],
      "name": "EmptySource",
      "type": "error"
    },
    {
      "inputs": [],
      "name": "EmptySource",
      "type": "error"
    },
    {
      "inputs": [],
      "name": "EmptyUrl",
      "type": "error"
    },
    {
      "inputs": [],
      "name": "NoInlineSecrets",
      "type": "error"
    },
    {
      "anonymous": false,
      "inputs": [
        {
          "indexed": false,
          "internalType": "bytes",
          "name": "data",
          "type": "bytes"
        }
      ],
      "name": "RequestData",
      "type": "event"
    },
    {
      "inputs": [],
      "name": "addEmptyArgs",
      "outputs": [],
      "stateMutability": "pure",
      "type": "function"
    },
    {
      "inputs": [
        {
          "internalType": "bytes",
          "name": "secrets",
          "type": "bytes"
        }
      ],
      "name": "addSecrets",
      "outputs": [],
      "stateMutability": "nonpayable",
      "type": "function"
    },
    {
      "inputs": [
        {
          "internalType": "string",
          "name": "arg1",
          "type": "string"
        },
        {
          "internalType": "string",
          "name": "arg2",
          "type": "string"
        }
      ],
      "name": "addTwoArgs",
      "outputs": [],
      "stateMutability": "nonpayable",
      "type": "function"
    },
    {
      "inputs": [],
      "name": "closeEvent",
      "outputs": [],
      "stateMutability": "nonpayable",
      "type": "function"
    },
    {
      "inputs": [
        {
          "internalType": "string",
          "name": "sourceCode",
          "type": "string"
        }
      ],
      "name": "initializeRequestForInlineJavaScript",
      "outputs": [],
      "stateMutability": "nonpayable",
      "type": "function"
    }
  ],
  "bytecode": {
    "object": "0x608060405234801561001057600080fd5b50611a28806100206000396000f3fe608060405234801561001057600080fd5b50600436106100675760003560e01c80637569d59f116100505780637569d59f14610089578063a2c4a3ac14610091578063d464442f146100a457600080fd5b806303dc53261461006c578063465bc1ed14610076575b600080fd5b6100746100b7565b005b610074610084366004611537565b610395565b6100746103e6565b61007461009f366004611574565b61042c565b6100746100b23660046115bd565b6106d8565b6040805160c08101909152600080547f84485ae823e5c366e9581c146349e23f73b2f459d9eee1b9f15f36aac3b3145a9261037e929091829060ff16600281111561010457610104611621565b600281111561011557610115611621565b81528154602090910190610100900460ff16600281111561013857610138611621565b600281111561014957610149611621565b8152815460209091019062010000900460ff16801561016a5761016a611621565b801561017857610178611621565b815260200160018201805461018c90611650565b80601f01602080910402602001604051908101604052809291908181526020018280546101b890611650565b80156102055780601f106101da57610100808354040283529160200191610205565b820191906000526020600020905b8154815290600101906020018083116101e857829003601f168201915b5050505050815260200160028201805461021e90611650565b80601f016020809104026020016040519081016040528092919081815260200182805461024a90611650565b80156102975780601f1061026c57610100808354040283529160200191610297565b820191906000526020600020905b81548152906001019060200180831161027a57829003601f168201915b5050505050815260200160038201805480602002602001604051908101604052809291908181526020016000905b828210156103715783829060005260206000200180546102e490611650565b80601f016020809104026020016040519081016040528092919081815260200182805461031090611650565b801561035d5780601f106103325761010080835404028352916020019161035d565b820191906000526020600020905b81548152906001019060200180831161034057829003601f168201915b5050505050815260200190600101906102c5565b5050505081525050610a00565b60405161038b91906116a3565b60405180910390a1565b6103cf6040805160c08101909152806000815260200160008152602001600081526020016060815260200160608152602001606081525090565b6103d98183610ccb565b6103e281610cd8565b5050565b6104206040805160c08101909152806000815260200160008152602001600081526020016060815260200160608152602001606081525090565b60606103e28282610de0565b6040805160c08101909152600080549091908290829060ff16600281111561045657610456611621565b600281111561046757610467611621565b81528154602090910190610100900460ff16600281111561048a5761048a611621565b600281111561049b5761049b611621565b8152815460209091019062010000900460ff1680156104bc576104bc611621565b80156104ca576104ca611621565b81526020016001820180546104de90611650565b80601f016020809104026020016040519081016040528092919081815260200182805461050a90611650565b80156105575780601f1061052c57610100808354040283529160200191610557565b820191906000526020600020905b81548152906001019060200180831161053a57829003601f168201915b5050505050815260200160028201805461057090611650565b80601f016020809104026020016040519081016040528092919081815260200182805461059c90611650565b80156105e95780601f106105be576101008083540402835291602001916105e9565b820191906000526020600020905b8154815290600101906020018083116105cc57829003601f168201915b5050505050815260200160038201805480602002602001604051908101604052809291908181526020016000905b828210156106c357838290600052602060002001805461063690611650565b80601f016020809104026020016040519081016040528092919081815260200182805461066290611650565b80156106af5780601f10610684576101008083540402835291602001916106af565b820191906000526020600020905b81548152906001019060200180831161069257829003601f168201915b505050505081526020019060010190610617565b5050509152509091506103d990508183610e23565b60408051600280825260608201909252600091816020015b60608152602001906001900390816106f0579050509050828160008151811061071b5761071b61170f565b6020026020010181905250818160018151811061073a5761073a61170f565b60209081029190910101526040805160c08101909152600080549091908290829060ff16600281111561076f5761076f611621565b600281111561078057610780611621565b81528154602090910190610100900460ff1660028111156107a3576107a3611621565b60028111156107b4576107b4611621565b8152815460209091019062010000900460ff1680156107d5576107d5611621565b80156107e3576107e3611621565b81526020016001820180546107f790611650565b80601f016020809104026020016040519081016040528092919081815260200182805461082390611650565b80156108705780601f1061084557610100808354040283529160200191610870565b820191906000526020600020905b81548152906001019060200180831161085357829003601f168201915b5050505050815260200160028201805461088990611650565b80601f01602080910402602001604051908101604052809291908181526020018280546108b590611650565b80156109025780601f106108d757610100808354040283529160200191610902565b820191906000526020600020905b8154815290600101906020018083116108e557829003601f168201915b5050505050815260200160038201805480602002602001604051908101604052809291908181526020016000905b828210156109dc57838290600052602060002001805461094f90611650565b80601f016020809104026020016040519081016040528092919081815260200182805461097b90611650565b80156109c85780601f1061099d576101008083540402835291602001916109c8565b820191906000526020600020905b8154815290600101906020018083116109ab57829003601f168201915b505050505081526020019060010190610930565b5050509152509091506109f190508183610de0565b6109fa81610cd8565b50505050565b6060610a0a61135a565b8051610a1890610100610e6d565b50610a58816040518060400160405280600c81526020017f636f64654c6f636174696f6e0000000000000000000000000000000000000000815250610ee7565b610a778184600001516002811115610a7257610a72611621565b610f05565b610ab6816040518060400160405280600881526020017f6c616e6775616765000000000000000000000000000000000000000000000000815250610ee7565b610ad08184604001516000811115610a7257610a72611621565b610b0f816040518060400160405280600681526020017f736f757263650000000000000000000000000000000000000000000000000000815250610ee7565b610b1d818460600151610ee7565b60a08301515115610bc357610b67816040518060400160405280600481526020017f6172677300000000000000000000000000000000000000000000000000000000815250610ee7565b610b7081610f3e565b60005b8360a0015151811015610bb957610ba7828560a001518381518110610b9a57610b9a61170f565b6020026020010151610ee7565b80610bb18161176d565b915050610b73565b50610bc381610f62565b60808301515115610cc357600083602001516002811115610be657610be6611621565b03610c1d576040517fa80d31f700000000000000000000000000000000000000000000000000000000815260040160405180910390fd5b610c5c816040518060400160405280600f81526020017f736563726574734c6f636174696f6e0000000000000000000000000000000000815250610ee7565b610c768184602001516002811115610a7257610a72611621565b610cb5816040518060400160405280600781526020017f7365637265747300000000000000000000000000000000000000000000000000815250610ee7565b610cc3818460800151610f80565b515192915050565b6103e28260008084610f8d565b8051600080547fffffffffffffffffffffffffffffffffffffffffffffffffffffffffffffff00166001836002811115610d1457610d14611621565b02179055506040810151600080547fffffffffffffffffffffffffffffffffffffffffffffffffffffffffff00ffff1662010000838015610d5757610d57611621565b02179055506060810151600190610d6e90826117d5565b5060a08101518051610d889160039160209091019061138f565b506020810151600080547fffffffffffffffffffffffffffffffffffffffffffffffffffffffffffff00ff16610100836002811115610dc957610dc9611621565b021790555060808101516002906103e290826117d5565b8051600003610e1b576040517ffe936cb700000000000000000000000000000000000000000000000000000000815260040160405180910390fd5b60a090910152565b8051600003610e5e576040517fe889636f00000000000000000000000000000000000000000000000000000000815260040160405180910390fd5b60016020830152608090910152565b604080518082019091526060815260006020820152610e8d6020836118b3565b15610eb557610e9d6020836118b3565b610ea89060206118ee565b610eb29083611901565b91505b602080840183905260405180855260008152908184010181811015610ed957600080fd5b604052508290505b92915050565b610ef48260038351611024565b8151610f009082611145565b505050565b8151610f129060c261116d565b506103e28282604051602001610f2a91815260200190565b604051602081830303815290604052610f80565b610f498160046111d6565b600181602001818151610f5c9190611901565b90525050565b610f6d8160076111d6565b600181602001818151610f5c91906118ee565b610ef48260028351611024565b8051600003610fc8576040517f22ce3edd00000000000000000000000000000000000000000000000000000000815260040160405180910390fd5b83836002811115610fdb57610fdb611621565b90816002811115610fee57610fee611621565b9052506040840182801561100457611004611621565b9081801561101457611014611621565b9052506060909301929092525050565b60178167ffffffffffffffff161161104b5782516109fa9060e0600585901b16831761116d565b60ff8167ffffffffffffffff161161108d578251611074906018611fe0600586901b161761116d565b5082516109fa9067ffffffffffffffff831660016111ed565b61ffff8167ffffffffffffffff16116110d05782516110b7906019611fe0600586901b161761116d565b5082516109fa9067ffffffffffffffff831660026111ed565b63ffffffff8167ffffffffffffffff16116111155782516110fc90601a611fe0600586901b161761116d565b5082516109fa9067ffffffffffffffff831660046111ed565b825161112c90601b611fe0600586901b161761116d565b5082516109fa9067ffffffffffffffff831660086111ed565b60408051808201909152606081526000602082015261116683838451611272565b9392505050565b6040805180820190915260608152600060208201528251516000611192826001611901565b9050846020015182106111b3576111b3856111ae836002611914565b611343565b84516020838201018581535080518211156111cc578181525b5093949350505050565b8151610f0090601f611fe0600585901b161761116d565b60408051808201909152606081526000602082015283515160006112118285611901565b9050856020015181111561122e5761122e866111ae836002611914565b6000600161123e86610100611a0f565b61124891906118ee565b90508651828101878319825116178152508051831115611266578281525b50959695505050505050565b604080518082019091526060815260006020820152825182111561129557600080fd5b83515160006112a48483611901565b905085602001518111156112c1576112c1866111ae836002611914565b8551805183820160200191600091808511156112db578482525b505050602086015b6020861061131b57805182526112fa602083611901565b9150611307602082611901565b90506113146020876118ee565b95506112e3565b51815160001960208890036101000a0190811690199190911617905250849150509392505050565b815161134f8383610e6d565b506109fa8382611145565b6040518060400160405280611382604051806040016040528060608152602001600081525090565b8152602001600081525090565b8280548282559060005260206000209081019282156113d5579160200282015b828111156113d557825182906113c590826117d5565b50916020019190600101906113af565b506113e19291506113e5565b5090565b808211156113e15760006113f98282611402565b506001016113e5565b50805461140e90611650565b6000825580601f1061141e575050565b601f01602090049060005260206000209081019061143c919061143f565b50565b5b808211156113e15760008155600101611440565b7f4e487b7100000000000000000000000000000000000000000000000000000000600052604160045260246000fd5b600067ffffffffffffffff8084111561149e5761149e611454565b604051601f85017fffffffffffffffffffffffffffffffffffffffffffffffffffffffffffffffe0908116603f011681019082821181831017156114e4576114e4611454565b816040528093508581528686860111156114fd57600080fd5b858560208301376000602087830101525050509392505050565b600082601f83011261152857600080fd5b61116683833560208501611483565b60006020828403121561154957600080fd5b813567ffffffffffffffff81111561156057600080fd5b61156c84828501611517565b949350505050565b60006020828403121561158657600080fd5b813567ffffffffffffffff81111561159d57600080fd5b8201601f810184136115ae57600080fd5b61156c84823560208401611483565b600080604083850312156115d057600080fd5b823567ffffffffffffffff808211156115e857600080fd5b6115f486838701611517565b9350602085013591508082111561160a57600080fd5b5061161785828601611517565b9150509250929050565b7f4e487b7100000000000000000000000000000000000000000000000000000000600052602160045260246000fd5b600181811c9082168061166457607f821691505b60208210810361169d577f4e487b7100000000000000000000000000000000000000000000000000000000600052602260045260246000fd5b50919050565b600060208083528351808285015260005b818110156116d0578581018301518582016040015282016116b4565b5060006040828601015260407fffffffffffffffffffffffffffffffffffffffffffffffffffffffffffffffe0601f8301168501019250505092915050565b7f4e487b7100000000000000000000000000000000000000000000000000000000600052603260045260246000fd5b7f4e487b7100000000000000000000000000000000000000000000000000000000600052601160045260246000fd5b600060001982036117805761178061173e565b5060010190565b601f821115610f0057600081815260208120601f850160051c810160208610156117ae5750805b601f850160051c820191505b818110156117cd578281556001016117ba565b505050505050565b815167ffffffffffffffff8111156117ef576117ef611454565b611803816117fd8454611650565b84611787565b602080601f83116001811461183857600084156118205750858301515b600019600386901b1c1916600185901b1785556117cd565b6000858152602081207fffffffffffffffffffffffffffffffffffffffffffffffffffffffffffffffe08616915b8281101561188557888601518255948401946001909101908401611866565b50858210156118a35787850151600019600388901b60f8161c191681555b5050505050600190811b01905550565b6000826118e9577f4e487b7100000000000000000000000000000000000000000000000000000000600052601260045260246000fd5b500690565b81810381811115610ee157610ee161173e565b80820180821115610ee157610ee161173e565b8082028115828204841417610ee157610ee161173e565b600181815b8085111561196657816000190482111561194c5761194c61173e565b8085161561195957918102915b93841c9390800290611930565b509250929050565b60008261197d57506001610ee1565b8161198a57506000610ee1565b81600181146119a057600281146119aa576119c6565b6001915050610ee1565b60ff8411156119bb576119bb61173e565b50506001821b610ee1565b5060208310610133831016604e8410600b84101617156119e9575081810a610ee1565b6119f3838361192b565b8060001904821115611a0757611a0761173e565b029392505050565b6000611166838361196e56fea164736f6c6343000815000a",
    "linkReferences": {}
  },
  "methodIdentifiers": {
    "addEmptyArgs()": "7569d59f",
    "addSecrets(bytes)": "a2c4a3ac",
    "addTwoArgs(string,string)": "d464442f",
    "closeEvent()": "03dc5326",
    "initializeRequestForInlineJavaScript(string)": "465bc1ed"
  },
  "id": 186
}