{
  "abi": [
    {
      "inputs": [],
      "stateMutability": "nonpayable",
      "type": "constructor"
    },
    {
      "inputs": [
        {
          "internalType": "address",
          "name": "sender",
          "type": "address"
        },
        {
          "internalType": "uint256",
          "name": "balance",
          "type": "uint256"
        },
        {
          "internalType": "uint256",
          "name": "needed",
          "type": "uint256"
        },
        {
          "internalType": "uint256",
          "name": "tokenId",
          "type": "uint256"
        }
      ],
      "name": "ERC1155InsufficientBalance",
      "type": "error"
    },
    {
      "inputs": [
        {
          "internalType": "address",
          "name": "approver",
          "type": "address"
        }
      ],
      "name": "ERC1155InvalidApprover",
      "type": "error"
    },
    {
      "inputs": [
        {
          "internalType": "uint256",
          "name": "idsLength",
          "type": "uint256"
        },
        {
          "internalType": "uint256",
          "name": "valuesLength",
          "type": "uint256"
        }
      ],
      "name": "ERC1155InvalidArrayLength",
      "type": "error"
    },
    {
      "inputs": [
        {
          "internalType": "address",
          "name": "operator",
          "type": "address"
        }
      ],
      "name": "ERC1155InvalidOperator",
      "type": "error"
    },
    {
      "inputs": [
        {
          "internalType": "address",
          "name": "receiver",
          "type": "address"
        }
      ],
      "name": "ERC1155InvalidReceiver",
      "type": "error"
    },
    {
      "inputs": [
        {
          "internalType": "address",
          "name": "sender",
          "type": "address"
        }
      ],
      "name": "ERC1155InvalidSender",
      "type": "error"
    },
    {
      "inputs": [
        {
          "internalType": "address",
          "name": "operator",
          "type": "address"
        },
        {
          "internalType": "address",
          "name": "owner",
          "type": "address"
        }
      ],
      "name": "ERC1155MissingApprovalForAll",
      "type": "error"
    },
    {
      "inputs": [
        {
          "internalType": "address",
          "name": "owner",
          "type": "address"
        }
      ],
      "name": "OwnableInvalidOwner",
      "type": "error"
    },
    {
      "inputs": [
        {
          "internalType": "address",
          "name": "account",
          "type": "address"
        }
      ],
      "name": "OwnableUnauthorizedAccount",
      "type": "error"
    },
    {
      "anonymous": false,
      "inputs": [
        {
          "indexed": true,
          "internalType": "address",
          "name": "account",
          "type": "address"
        },
        {
          "indexed": true,
          "internalType": "address",
          "name": "operator",
          "type": "address"
        },
        {
          "indexed": false,
          "internalType": "bool",
          "name": "approved",
          "type": "bool"
        }
      ],
      "name": "ApprovalForAll",
      "type": "event"
    },
    {
      "anonymous": false,
      "inputs": [
        {
          "indexed": true,
          "internalType": "address",
          "name": "previousOwner",
          "type": "address"
        },
        {
          "indexed": true,
          "internalType": "address",
          "name": "newOwner",
          "type": "address"
        }
      ],
      "name": "OwnershipTransferred",
      "type": "event"
    },
    {
      "anonymous": false,
      "inputs": [
        {
          "indexed": true,
          "internalType": "address",
          "name": "operator",
          "type": "address"
        },
        {
          "indexed": true,
          "internalType": "address",
          "name": "from",
          "type": "address"
        },
        {
          "indexed": true,
          "internalType": "address",
          "name": "to",
          "type": "address"
        },
        {
          "indexed": false,
          "internalType": "uint256[]",
          "name": "ids",
          "type": "uint256[]"
        },
        {
          "indexed": false,
          "internalType": "uint256[]",
          "name": "values",
          "type": "uint256[]"
        }
      ],
      "name": "TransferBatch",
      "type": "event"
    },
    {
      "anonymous": false,
      "inputs": [
        {
          "indexed": true,
          "internalType": "address",
          "name": "operator",
          "type": "address"
        },
        {
          "indexed": true,
          "internalType": "address",
          "name": "from",
          "type": "address"
        },
        {
          "indexed": true,
          "internalType": "address",
          "name": "to",
          "type": "address"
        },
        {
          "indexed": false,
          "internalType": "uint256",
          "name": "id",
          "type": "uint256"
        },
        {
          "indexed": false,
          "internalType": "uint256",
          "name": "value",
          "type": "uint256"
        }
      ],
      "name": "TransferSingle",
      "type": "event"
    },
    {
      "anonymous": false,
      "inputs": [
        {
          "indexed": false,
          "internalType": "string",
          "name": "value",
          "type": "string"
        },
        {
          "indexed": true,
          "internalType": "uint256",
          "name": "id",
          "type": "uint256"
        }
      ],
      "name": "URI",
      "type": "event"
    },
    {
      "inputs": [
        {
          "internalType": "address",
          "name": "account",
          "type": "address"
        },
        {
          "internalType": "uint256",
          "name": "id",
          "type": "uint256"
        }
      ],
      "name": "balanceOf",
      "outputs": [
        {
          "internalType": "uint256",
          "name": "",
          "type": "uint256"
        }
      ],
      "stateMutability": "view",
      "type": "function"
    },
    {
      "inputs": [
        {
          "internalType": "address[]",
          "name": "accounts",
          "type": "address[]"
        },
        {
          "internalType": "uint256[]",
          "name": "ids",
          "type": "uint256[]"
        }
      ],
      "name": "balanceOfBatch",
      "outputs": [
        {
          "internalType": "uint256[]",
          "name": "",
          "type": "uint256[]"
        }
      ],
      "stateMutability": "view",
      "type": "function"
    },
    {
      "inputs": [
        {
          "internalType": "address",
          "name": "account",
          "type": "address"
        },
        {
          "internalType": "address",
          "name": "operator",
          "type": "address"
        }
      ],
      "name": "isApprovedForAll",
      "outputs": [
        {
          "internalType": "bool",
          "name": "",
          "type": "bool"
        }
      ],
      "stateMutability": "view",
      "type": "function"
    },
    {
      "inputs": [
        {
          "internalType": "address",
          "name": "account",
          "type": "address"
        },
        {
          "internalType": "uint256",
          "name": "id",
          "type": "uint256"
        },
        {
          "internalType": "uint256",
          "name": "amount",
          "type": "uint256"
        },
        {
          "internalType": "bytes",
          "name": "data",
          "type": "bytes"
        }
      ],
      "name": "mint",
      "outputs": [],
      "stateMutability": "nonpayable",
      "type": "function"
    },
    {
      "inputs": [
        {
          "internalType": "address",
          "name": "to",
          "type": "address"
        },
        {
          "internalType": "uint256[]",
          "name": "ids",
          "type": "uint256[]"
        },
        {
          "internalType": "uint256[]",
          "name": "amounts",
          "type": "uint256[]"
        },
        {
          "internalType": "bytes",
          "name": "data",
          "type": "bytes"
        }
      ],
      "name": "mintBatch",
      "outputs": [],
      "stateMutability": "nonpayable",
      "type": "function"
    },
    {
      "inputs": [],
      "name": "owner",
      "outputs": [
        {
          "internalType": "address",
          "name": "",
          "type": "address"
        }
      ],
      "stateMutability": "view",
      "type": "function"
    },
    {
      "inputs": [],
      "name": "renounceOwnership",
      "outputs": [],
      "stateMutability": "nonpayable",
      "type": "function"
    },
    {
      "inputs": [
        {
          "internalType": "address",
          "name": "from",
          "type": "address"
        },
        {
          "internalType": "address",
          "name": "to",
          "type": "address"
        },
        {
          "internalType": "uint256[]",
          "name": "ids",
          "type": "uint256[]"
        },
        {
          "internalType": "uint256[]",
          "name": "values",
          "type": "uint256[]"
        },
        {
          "internalType": "bytes",
          "name": "data",
          "type": "bytes"
        }
      ],
      "name": "safeBatchTransferFrom",
      "outputs": [],
      "stateMutability": "nonpayable",
      "type": "function"
    },
    {
      "inputs": [
        {
          "internalType": "address",
          "name": "from",
          "type": "address"
        },
        {
          "internalType": "address",
          "name": "to",
          "type": "address"
        },
        {
          "internalType": "uint256",
          "name": "id",
          "type": "uint256"
        },
        {
          "internalType": "uint256",
          "name": "value",
          "type": "uint256"
        },
        {
          "internalType": "bytes",
          "name": "data",
          "type": "bytes"
        }
      ],
      "name": "safeTransferFrom",
      "outputs": [],
      "stateMutability": "nonpayable",
      "type": "function"
    },
    {
      "inputs": [
        {
          "internalType": "address",
          "name": "operator",
          "type": "address"
        },
        {
          "internalType": "bool",
          "name": "approved",
          "type": "bool"
        }
      ],
      "name": "setApprovalForAll",
      "outputs": [],
      "stateMutability": "nonpayable",
      "type": "function"
    },
    {
      "inputs": [
        {
          "internalType": "string",
          "name": "newuri",
          "type": "string"
        }
      ],
      "name": "setURI",
      "outputs": [],
      "stateMutability": "nonpayable",
      "type": "function"
    },
    {
      "inputs": [
        {
          "internalType": "bytes4",
          "name": "interfaceId",
          "type": "bytes4"
        }
      ],
      "name": "supportsInterface",
      "outputs": [
        {
          "internalType": "bool",
          "name": "",
          "type": "bool"
        }
      ],
      "stateMutability": "view",
      "type": "function"
    },
    {
      "inputs": [
        {
          "internalType": "address",
          "name": "newOwner",
          "type": "address"
        }
      ],
      "name": "transferOwnership",
      "outputs": [],
      "stateMutability": "nonpayable",
      "type": "function"
    },
    {
      "inputs": [
        {
          "internalType": "uint256",
          "name": "",
          "type": "uint256"
        }
      ],
      "name": "uri",
      "outputs": [
        {
          "internalType": "string",
          "name": "",
          "type": "string"
        }
      ],
      "stateMutability": "view",
      "type": "function"
    }
  ],
  "bytecode": {
    "object": "0x60806040523480156200001157600080fd5b5060408051602081019091526000815233906200002e8162000070565b506001600160a01b0381166200005e57604051631e4fbdf760e01b81526000600482015260240160405180910390fd5b620000698162000082565b5062000245565b60026200007e828262000179565b5050565b600380546001600160a01b038381166001600160a01b0319831681179093556040519116919082907f8be0079c531659141344cd1fd0a4f28419497f9722a3daafe3b4186f6b6457e090600090a35050565b634e487b7160e01b600052604160045260246000fd5b600181811c90821680620000ff57607f821691505b6020821081036200012057634e487b7160e01b600052602260045260246000fd5b50919050565b601f8211156200017457600081815260208120601f850160051c810160208610156200014f5750805b601f850160051c820191505b8181101562000170578281556001016200015b565b5050505b505050565b81516001600160401b03811115620001955762000195620000d4565b620001ad81620001a68454620000ea565b8462000126565b602080601f831160018114620001e55760008415620001cc5750858301515b600019600386901b1c1916600185901b17855562000170565b600085815260208120601f198616915b828110156200021657888601518255948401946001909101908401620001f5565b5085821015620002355787850151600019600388901b60f8161c191681555b5050505050600190811b01905550565b611bda80620002556000396000f3fe608060405234801561001057600080fd5b50600436106100e95760003560e01c8063715018a61161008c578063a22cb46511610066578063a22cb465146101f5578063e985e9c514610208578063f242432a14610251578063f2fde38b1461026457600080fd5b8063715018a6146101b2578063731133e9146101ba5780638da5cb5b146101cd57600080fd5b80630e89341c116100c85780630e89341c1461014c5780631f7fdffa1461016c5780632eb2c2d61461017f5780634e1273f41461019257600080fd5b8062fdd58e146100ee57806301ffc9a71461011457806302fe530514610137575b600080fd5b6101016100fc366004611249565b610277565b6040519081526020015b60405180910390f35b6101276101223660046112a1565b6102ac565b604051901515815260200161010b565b61014a61014536600461137d565b61038f565b005b61015f61015a3660046113ce565b6103a3565b60405161010b919061142d565b61014a61017a3660046114ef565b610437565b61014a61018d366004611588565b610451565b6101a56101a0366004611632565b61051c565b60405161010b919061172d565b61014a61060a565b61014a6101c8366004611740565b61061e565b60035460405173ffffffffffffffffffffffffffffffffffffffff909116815260200161010b565b61014a610203366004611795565b610632565b6101276102163660046117d1565b73ffffffffffffffffffffffffffffffffffffffff918216600090815260016020908152604080832093909416825291909152205460ff1690565b61014a61025f366004611804565b610641565b61014a610272366004611869565b6106ff565b60008181526020818152604080832073ffffffffffffffffffffffffffffffffffffffff861684529091529020545b92915050565b60007fffffffff0000000000000000000000000000000000000000000000000000000082167fd9b67a2600000000000000000000000000000000000000000000000000000000148061033f57507fffffffff0000000000000000000000000000000000000000000000000000000082167f0e89341c00000000000000000000000000000000000000000000000000000000145b806102a657507f01ffc9a7000000000000000000000000000000000000000000000000000000007fffffffff000000000000000000000000000000000000000000000000000000008316146102a6565b610397610760565b6103a0816107b3565b50565b6060600280546103b290611884565b80601f01602080910402602001604051908101604052809291908181526020018280546103de90611884565b801561042b5780601f106104005761010080835404028352916020019161042b565b820191906000526020600020905b81548152906001019060200180831161040e57829003601f168201915b50505050509050919050565b61043f610760565b61044b848484846107bf565b50505050565b3373ffffffffffffffffffffffffffffffffffffffff861681148015906104ab575073ffffffffffffffffffffffffffffffffffffffff80871660009081526001602090815260408083209385168352929052205460ff16155b15610507576040517fe237d92200000000000000000000000000000000000000000000000000000000815273ffffffffffffffffffffffffffffffffffffffff8083166004830152871660248201526044015b60405180910390fd5b610514868686868661081d565b505050505050565b6060815183511461056657815183516040517f5b059991000000000000000000000000000000000000000000000000000000008152600481019290925260248201526044016104fe565b6000835167ffffffffffffffff811115610582576105826112c5565b6040519080825280602002602001820160405280156105ab578160200160208202803683370190505b50905060005b8451811015610602576020808202860101516105d590602080840287010151610277565b8282815181106105e7576105e76118d7565b60209081029190910101526105fb81611935565b90506105b1565b509392505050565b610612610760565b61061c60006108d1565b565b610626610760565b61044b84848484610948565b61063d3383836109cb565b5050565b3373ffffffffffffffffffffffffffffffffffffffff8616811480159061069b575073ffffffffffffffffffffffffffffffffffffffff80871660009081526001602090815260408083209385168352929052205460ff16155b156106f2576040517fe237d92200000000000000000000000000000000000000000000000000000000815273ffffffffffffffffffffffffffffffffffffffff8083166004830152871660248201526044016104fe565b6105148686868686610ab3565b610707610760565b73ffffffffffffffffffffffffffffffffffffffff8116610757576040517f1e4fbdf7000000000000000000000000000000000000000000000000000000008152600060048201526024016104fe565b6103a0816108d1565b60035473ffffffffffffffffffffffffffffffffffffffff16331461061c576040517f118cdaa70000000000000000000000000000000000000000000000000000000081523360048201526024016104fe565b600261063d82826119b8565b73ffffffffffffffffffffffffffffffffffffffff841661080f576040517f57f447ce000000000000000000000000000000000000000000000000000000008152600060048201526024016104fe565b61044b600085858585610b8e565b73ffffffffffffffffffffffffffffffffffffffff841661086d576040517f57f447ce000000000000000000000000000000000000000000000000000000008152600060048201526024016104fe565b73ffffffffffffffffffffffffffffffffffffffff85166108bd576040517f01a83514000000000000000000000000000000000000000000000000000000008152600060048201526024016104fe565b6108ca8585858585610b8e565b5050505050565b6003805473ffffffffffffffffffffffffffffffffffffffff8381167fffffffffffffffffffffffff0000000000000000000000000000000000000000831681179093556040519116919082907f8be0079c531659141344cd1fd0a4f28419497f9722a3daafe3b4186f6b6457e090600090a35050565b73ffffffffffffffffffffffffffffffffffffffff8416610998576040517f57f447ce000000000000000000000000000000000000000000000000000000008152600060048201526024016104fe565b60408051600180825260208201869052818301908152606082018590526080820190925290610514600087848487610b8e565b73ffffffffffffffffffffffffffffffffffffffff8216610a1b576040517fced3e100000000000000000000000000000000000000000000000000000000008152600060048201526024016104fe565b73ffffffffffffffffffffffffffffffffffffffff83811660008181526001602090815260408083209487168084529482529182902080547fffffffffffffffffffffffffffffffffffffffffffffffffffffffffffffff001686151590811790915591519182527f17307eab39ab6107e8899845ad3d59bd9653f200f220920489ca2b5937696c31910160405180910390a3505050565b73ffffffffffffffffffffffffffffffffffffffff8416610b03576040517f57f447ce000000000000000000000000000000000000000000000000000000008152600060048201526024016104fe565b73ffffffffffffffffffffffffffffffffffffffff8516610b53576040517f01a83514000000000000000000000000000000000000000000000000000000008152600060048201526024016104fe565b60408051600180825260208201869052818301908152606082018590526080820190925290610b858787848487610b8e565b50505050505050565b610b9a85858585610bee565b73ffffffffffffffffffffffffffffffffffffffff8416156108ca5782513390600103610be05760208481015190840151610bd9838989858589610ed9565b5050610514565b6105148187878787876110ad565b8051825114610c3657815181516040517f5b059991000000000000000000000000000000000000000000000000000000008152600481019290925260248201526044016104fe565b3360005b8351811015610dac5760208181028581018201519085019091015173ffffffffffffffffffffffffffffffffffffffff881615610d3a5760008281526020818152604080832073ffffffffffffffffffffffffffffffffffffffff8c16845290915290205481811015610d06576040517f03dee4c500000000000000000000000000000000000000000000000000000000815273ffffffffffffffffffffffffffffffffffffffff8a1660048201526024810182905260448101839052606481018490526084016104fe565b60008381526020818152604080832073ffffffffffffffffffffffffffffffffffffffff8d16845290915290209082900390555b73ffffffffffffffffffffffffffffffffffffffff871615610d995760008281526020818152604080832073ffffffffffffffffffffffffffffffffffffffff8b16845290915281208054839290610d93908490611ab4565b90915550505b505080610da590611935565b9050610c3a565b508251600103610e5457602083015160009060208401519091508573ffffffffffffffffffffffffffffffffffffffff168773ffffffffffffffffffffffffffffffffffffffff168473ffffffffffffffffffffffffffffffffffffffff167fc3d58168c5ae7397731d063d5bbf3d657854427343f4c083240f7aacaa2d0f628585604051610e45929190918252602082015260400190565b60405180910390a450506108ca565b8373ffffffffffffffffffffffffffffffffffffffff168573ffffffffffffffffffffffffffffffffffffffff168273ffffffffffffffffffffffffffffffffffffffff167f4a39dc06d4c0dbc64b70af90fd698a233a518aa5d07e595d983b8c0526c8f7fb8686604051610eca929190611ac7565b60405180910390a45050505050565b73ffffffffffffffffffffffffffffffffffffffff84163b15610514576040517ff23a6e6100000000000000000000000000000000000000000000000000000000815273ffffffffffffffffffffffffffffffffffffffff85169063f23a6e6190610f509089908990889088908890600401611af5565b6020604051808303816000875af1925050508015610f8b575060408051601f3d908101601f19168201909252610f8891810190611b45565b60015b61101a573d808015610fb9576040519150601f19603f3d011682016040523d82523d6000602084013e610fbe565b606091505b508051600003611012576040517f57f447ce00000000000000000000000000000000000000000000000000000000815273ffffffffffffffffffffffffffffffffffffffff861660048201526024016104fe565b805181602001fd5b7fffffffff0000000000000000000000000000000000000000000000000000000081167ff23a6e610000000000000000000000000000000000000000000000000000000014610b85576040517f57f447ce00000000000000000000000000000000000000000000000000000000815273ffffffffffffffffffffffffffffffffffffffff861660048201526024016104fe565b73ffffffffffffffffffffffffffffffffffffffff84163b15610514576040517fbc197c8100000000000000000000000000000000000000000000000000000000815273ffffffffffffffffffffffffffffffffffffffff85169063bc197c81906111249089908990889088908890600401611b62565b6020604051808303816000875af192505050801561115f575060408051601f3d908101601f1916820190925261115c91810190611b45565b60015b61118d573d808015610fb9576040519150601f19603f3d011682016040523d82523d6000602084013e610fbe565b7fffffffff0000000000000000000000000000000000000000000000000000000081167fbc197c810000000000000000000000000000000000000000000000000000000014610b85576040517f57f447ce00000000000000000000000000000000000000000000000000000000815273ffffffffffffffffffffffffffffffffffffffff861660048201526024016104fe565b803573ffffffffffffffffffffffffffffffffffffffff8116811461124457600080fd5b919050565b6000806040838503121561125c57600080fd5b61126583611220565b946020939093013593505050565b7fffffffff00000000000000000000000000000000000000000000000000000000811681146103a057600080fd5b6000602082840312156112b357600080fd5b81356112be81611273565b9392505050565b7f4e487b7100000000000000000000000000000000000000000000000000000000600052604160045260246000fd5b604051601f8201601f1916810167ffffffffffffffff8111828210171561131d5761131d6112c5565b604052919050565b600067ffffffffffffffff83111561133f5761133f6112c5565b6113526020601f19601f860116016112f4565b905082815283838301111561136657600080fd5b828260208301376000602084830101529392505050565b60006020828403121561138f57600080fd5b813567ffffffffffffffff8111156113a657600080fd5b8201601f810184136113b757600080fd5b6113c684823560208401611325565b949350505050565b6000602082840312156113e057600080fd5b5035919050565b6000815180845260005b8181101561140d576020818501810151868301820152016113f1565b506000602082860101526020601f19601f83011685010191505092915050565b6020815260006112be60208301846113e7565b600067ffffffffffffffff82111561145a5761145a6112c5565b5060051b60200190565b600082601f83011261147557600080fd5b8135602061148a61148583611440565b6112f4565b82815260059290921b840181019181810190868411156114a957600080fd5b8286015b848110156114c457803583529183019183016114ad565b509695505050505050565b600082601f8301126114e057600080fd5b6112be83833560208501611325565b6000806000806080858703121561150557600080fd5b61150e85611220565b9350602085013567ffffffffffffffff8082111561152b57600080fd5b61153788838901611464565b9450604087013591508082111561154d57600080fd5b61155988838901611464565b9350606087013591508082111561156f57600080fd5b5061157c878288016114cf565b91505092959194509250565b600080600080600060a086880312156115a057600080fd5b6115a986611220565b94506115b760208701611220565b9350604086013567ffffffffffffffff808211156115d457600080fd5b6115e089838a01611464565b945060608801359150808211156115f657600080fd5b61160289838a01611464565b9350608088013591508082111561161857600080fd5b50611625888289016114cf565b9150509295509295909350565b6000806040838503121561164557600080fd5b823567ffffffffffffffff8082111561165d57600080fd5b818501915085601f83011261167157600080fd5b8135602061168161148583611440565b82815260059290921b840181019181810190898411156116a057600080fd5b948201945b838610156116c5576116b686611220565b825294820194908201906116a5565b965050860135925050808211156116db57600080fd5b506116e885828601611464565b9150509250929050565b600081518084526020808501945080840160005b8381101561172257815187529582019590820190600101611706565b509495945050505050565b6020815260006112be60208301846116f2565b6000806000806080858703121561175657600080fd5b61175f85611220565b93506020850135925060408501359150606085013567ffffffffffffffff81111561178957600080fd5b61157c878288016114cf565b600080604083850312156117a857600080fd5b6117b183611220565b9150602083013580151581146117c657600080fd5b809150509250929050565b600080604083850312156117e457600080fd5b6117ed83611220565b91506117fb60208401611220565b90509250929050565b600080600080600060a0868803121561181c57600080fd5b61182586611220565b945061183360208701611220565b93506040860135925060608601359150608086013567ffffffffffffffff81111561185d57600080fd5b611625888289016114cf565b60006020828403121561187b57600080fd5b6112be82611220565b600181811c9082168061189857607f821691505b6020821081036118d1577f4e487b7100000000000000000000000000000000000000000000000000000000600052602260045260246000fd5b50919050565b7f4e487b7100000000000000000000000000000000000000000000000000000000600052603260045260246000fd5b7f4e487b7100000000000000000000000000000000000000000000000000000000600052601160045260246000fd5b60007fffffffffffffffffffffffffffffffffffffffffffffffffffffffffffffffff820361196657611966611906565b5060010190565b601f8211156119b357600081815260208120601f850160051c810160208610156119945750805b601f850160051c820191505b81811015610514578281556001016119a0565b505050565b815167ffffffffffffffff8111156119d2576119d26112c5565b6119e6816119e08454611884565b8461196d565b602080601f831160018114611a395760008415611a035750858301515b7fffffffffffffffffffffffffffffffffffffffffffffffffffffffffffffffff600386901b1c1916600185901b178555610514565b600085815260208120601f198616915b82811015611a6857888601518255948401946001909101908401611a49565b5085821015611aa457878501517fffffffffffffffffffffffffffffffffffffffffffffffffffffffffffffffff600388901b60f8161c191681555b5050505050600190811b01905550565b808201808211156102a6576102a6611906565b604081526000611ada60408301856116f2565b8281036020840152611aec81856116f2565b95945050505050565b600073ffffffffffffffffffffffffffffffffffffffff808816835280871660208401525084604083015283606083015260a06080830152611b3a60a08301846113e7565b979650505050505050565b600060208284031215611b5757600080fd5b81516112be81611273565b600073ffffffffffffffffffffffffffffffffffffffff808816835280871660208401525060a06040830152611b9b60a08301866116f2565b8281036060840152611bad81866116f2565b90508281036080840152611bc181856113e7565b9897505050505050505056fea164736f6c6343000815000a",
    "linkReferences": {}
  },
  "methodIdentifiers": {
    "balanceOf(address,uint256)": "00fdd58e",
    "balanceOfBatch(address[],uint256[])": "4e1273f4",
    "isApprovedForAll(address,address)": "e985e9c5",
    "mint(address,uint256,uint256,bytes)": "731133e9",
    "mintBatch(address,uint256[],uint256[],bytes)": "1f7fdffa",
    "owner()": "8da5cb5b",
    "renounceOwnership()": "715018a6",
    "safeBatchTransferFrom(address,address,uint256[],uint256[],bytes)": "2eb2c2d6",
    "safeTransferFrom(address,address,uint256,uint256,bytes)": "f242432a",
    "setApprovalForAll(address,bool)": "a22cb465",
    "setURI(string)": "02fe5305",
    "supportsInterface(bytes4)": "01ffc9a7",
    "transferOwnership(address)": "f2fde38b",
    "uri(uint256)": "0e89341c"
  },
  "id": 59
}