{
  "abi": [
    {
      "inputs": [
        {
          "internalType": "address",
          "name": "arm",
          "type": "address"
        }
      ],
      "stateMutability": "nonpayable",
      "type": "constructor"
    },
    {
      "inputs": [],
      "name": "ZeroAddressNotAllowed",
      "type": "error"
    },
    {
      "anonymous": false,
      "inputs": [
        {
          "indexed": false,
          "internalType": "address",
          "name": "arm",
          "type": "address"
        }
      ],
      "name": "ARMSet",
      "type": "event"
    },
    {
      "anonymous": false,
      "inputs": [
        {
          "indexed": true,
          "internalType": "address",
          "name": "from",
          "type": "address"
        },
        {
          "indexed": true,
          "internalType": "address",
          "name": "to",
          "type": "address"
        }
      ],
      "name": "OwnershipTransferRequested",
      "type": "event"
    },
    {
      "anonymous": false,
      "inputs": [
        {
          "indexed": true,
          "internalType": "address",
          "name": "from",
          "type": "address"
        },
        {
          "indexed": true,
          "internalType": "address",
          "name": "to",
          "type": "address"
        }
      ],
      "name": "OwnershipTransferred",
      "type": "event"
    },
    {
      "stateMutability": "nonpayable",
      "type": "fallback"
    },
    {
      "inputs": [],
      "name": "acceptOwnership",
      "outputs": [],
      "stateMutability": "nonpayable",
      "type": "function"
    },
    {
      "inputs": [],
      "name": "getARM",
      "outputs": [
        {
          "internalType": "address",
          "name": "",
          "type": "address"
        }
      ],
      "stateMutability": "view",
      "type": "function"
    },
    {
      "inputs": [],
      "name": "owner",
      "outputs": [
        {
          "internalType": "address",
          "name": "",
          "type": "address"
        }
      ],
      "stateMutability": "view",
      "type": "function"
    },
    {
      "inputs": [
        {
          "internalType": "address",
          "name": "arm",
          "type": "address"
        }
      ],
      "name": "setARM",
      "outputs": [],
      "stateMutability": "nonpayable",
      "type": "function"
    },
    {
      "inputs": [
        {
          "internalType": "address",
          "name": "to",
          "type": "address"
        }
      ],
      "name": "transferOwnership",
      "outputs": [],
      "stateMutability": "nonpayable",
      "type": "function"
    },
    {
      "inputs": [],
      "name": "typeAndVersion",
      "outputs": [
        {
          "internalType": "string",
          "name": "",
          "type": "string"
        }
      ],
      "stateMutability": "view",
      "type": "function"
    }
  ],
  "bytecode": {
    "object": "0x608060405234801561001057600080fd5b5060405161084038038061084083398101604081905261002f91610255565b33806000816100855760405162461bcd60e51b815260206004820152601860248201527f43616e6e6f7420736574206f776e657220746f207a65726f000000000000000060448201526064015b60405180910390fd5b600080546001600160a01b0319166001600160a01b03848116919091179091558116156100b5576100b5816100cd565b5050506100c78161017660201b60201c565b50610285565b336001600160a01b038216036101255760405162461bcd60e51b815260206004820152601760248201527f43616e6e6f74207472616e7366657220746f2073656c66000000000000000000604482015260640161007c565b600180546001600160a01b0319166001600160a01b0383811691821790925560008054604051929316917fed8889f560326eb138920d842192f0eb3dd22b4f139c87a2c57538e05bae12789190a350565b61017e6101f9565b6001600160a01b0381166101a5576040516342bcdf7f60e11b815260040160405180910390fd5b600280546001600160a01b0319166001600160a01b0383169081179091556040519081527fef31f568d741a833c6a9dc85a6e1c65e06fa772740d5dc94d1da21827a4e0cab9060200160405180910390a150565b6000546001600160a01b031633146102535760405162461bcd60e51b815260206004820152601660248201527f4f6e6c792063616c6c61626c65206279206f776e657200000000000000000000604482015260640161007c565b565b60006020828403121561026757600080fd5b81516001600160a01b038116811461027e57600080fd5b9392505050565b6105ac806102946000396000f3fe608060405234801561001057600080fd5b50600436106100725760003560e01c806379ba50971161005057806379ba5097146101615780638da5cb5b14610169578063f2fde38b1461018757610072565b8063181f5a77146100bb5780632e90aa211461010d578063458fec3b1461014c575b60025473ffffffffffffffffffffffffffffffffffffffff16803b61009657600080fd5b366000803760008036600080855af13d6000803e80156100b5573d6000f35b503d6000fd5b6100f76040518060400160405280600e81526020017f41524d50726f787920312e302e3000000000000000000000000000000000000081525081565b60405161010491906104f6565b60405180910390f35b60025473ffffffffffffffffffffffffffffffffffffffff165b60405173ffffffffffffffffffffffffffffffffffffffff9091168152602001610104565b61015f61015a366004610562565b61019a565b005b61015f610268565b60005473ffffffffffffffffffffffffffffffffffffffff16610127565b61015f610195366004610562565b61036a565b6101a261037e565b73ffffffffffffffffffffffffffffffffffffffff81166101ef576040517f8579befe00000000000000000000000000000000000000000000000000000000815260040160405180910390fd5b600280547fffffffffffffffffffffffff00000000000000000000000000000000000000001673ffffffffffffffffffffffffffffffffffffffff83169081179091556040519081527fef31f568d741a833c6a9dc85a6e1c65e06fa772740d5dc94d1da21827a4e0cab9060200160405180910390a150565b60015473ffffffffffffffffffffffffffffffffffffffff1633146102ee576040517f08c379a000000000000000000000000000000000000000000000000000000000815260206004820152601660248201527f4d7573742062652070726f706f736564206f776e65720000000000000000000060448201526064015b60405180910390fd5b60008054337fffffffffffffffffffffffff00000000000000000000000000000000000000008083168217845560018054909116905560405173ffffffffffffffffffffffffffffffffffffffff90921692909183917f8be0079c531659141344cd1fd0a4f28419497f9722a3daafe3b4186f6b6457e091a350565b61037261037e565b61037b81610401565b50565b60005473ffffffffffffffffffffffffffffffffffffffff1633146103ff576040517f08c379a000000000000000000000000000000000000000000000000000000000815260206004820152601660248201527f4f6e6c792063616c6c61626c65206279206f776e65720000000000000000000060448201526064016102e5565b565b3373ffffffffffffffffffffffffffffffffffffffff821603610480576040517f08c379a000000000000000000000000000000000000000000000000000000000815260206004820152601760248201527f43616e6e6f74207472616e7366657220746f2073656c6600000000000000000060448201526064016102e5565b600180547fffffffffffffffffffffffff00000000000000000000000000000000000000001673ffffffffffffffffffffffffffffffffffffffff83811691821790925560008054604051929316917fed8889f560326eb138920d842192f0eb3dd22b4f139c87a2c57538e05bae12789190a350565b600060208083528351808285015260005b8181101561052357858101830151858201604001528201610507565b5060006040828601015260407fffffffffffffffffffffffffffffffffffffffffffffffffffffffffffffffe0601f8301168501019250505092915050565b60006020828403121561057457600080fd5b813573ffffffffffffffffffffffffffffffffffffffff8116811461059857600080fd5b939250505056fea164736f6c6343000815000a",
    "linkReferences": {}
  },
  "methodIdentifiers": {
    "acceptOwnership()": "79ba5097",
    "getARM()": "2e90aa21",
    "owner()": "8da5cb5b",
    "setARM(address)": "458fec3b",
    "transferOwnership(address)": "f2fde38b",
    "typeAndVersion()": "181f5a77"
  },
  "id": 99
}