{
  "abi": [
    {
      "inputs": [],
      "name": "AlreadySet",
      "type": "error"
    },
    {
      "inputs": [],
      "name": "CannotSelfTransfer",
      "type": "error"
    },
    {
      "inputs": [],
      "name": "EmptyBillingRegistry",
      "type": "error"
    },
    {
      "inputs": [],
      "name": "EmptyPublicKey",
      "type": "error"
    },
    {
      "inputs": [],
      "name": "EmptyRequestData",
      "type": "error"
    },
    {
      "inputs": [],
      "name": "EmptySendersList",
      "type": "error"
    },
    {
      "inputs": [],
      "name": "InconsistentReportData",
      "type": "error"
    },
    {
      "inputs": [],
      "name": "NotAllowedToSetSenders",
      "type": "error"
    },
    {
      "inputs": [],
      "name": "NotProposedOwner",
      "type": "error"
    },
    {
      "inputs": [],
      "name": "OnlyCallableByOwner",
      "type": "error"
    },
    {
      "inputs": [],
      "name": "OwnerMustBeSet",
      "type": "error"
    },
    {
      "inputs": [],
      "name": "ReportInvalid",
      "type": "error"
    },
    {
      "inputs": [],
      "name": "UnauthorizedPublicKeyChange",
      "type": "error"
    },
    {
      "inputs": [],
      "name": "UnauthorizedSender",
      "type": "error"
    },
    {
      "anonymous": false,
      "inputs": [
        {
          "indexed": false,
          "internalType": "address",
          "name": "account",
          "type": "address"
        }
      ],
      "name": "AuthorizedSendersActive",
      "type": "event"
    },
    {
      "anonymous": false,
      "inputs": [
        {
          "indexed": false,
          "internalType": "address[]",
          "name": "senders",
          "type": "address[]"
        },
        {
          "indexed": false,
          "internalType": "address",
          "name": "changedBy",
          "type": "address"
        }
      ],
      "name": "AuthorizedSendersChanged",
      "type": "event"
    },
    {
      "anonymous": false,
      "inputs": [
        {
          "indexed": false,
          "internalType": "address",
          "name": "account",
          "type": "address"
        }
      ],
      "name": "AuthorizedSendersDeactive",
      "type": "event"
    },
    {
      "anonymous": false,
      "inputs": [
        {
          "indexed": false,
          "internalType": "uint32",
          "name": "previousConfigBlockNumber",
          "type": "uint32"
        },
        {
          "indexed": false,
          "internalType": "bytes32",
          "name": "configDigest",
          "type": "bytes32"
        },
        {
          "indexed": false,
          "internalType": "uint64",
          "name": "configCount",
          "type": "uint64"
        },
        {
          "indexed": false,
          "internalType": "address[]",
          "name": "signers",
          "type": "address[]"
        },
        {
          "indexed": false,
          "internalType": "address[]",
          "name": "transmitters",
          "type": "address[]"
        },
        {
          "indexed": false,
          "internalType": "uint8",
          "name": "f",
          "type": "uint8"
        },
        {
          "indexed": false,
          "internalType": "bytes",
          "name": "onchainConfig",
          "type": "bytes"
        },
        {
          "indexed": false,
          "internalType": "uint64",
          "name": "offchainConfigVersion",
          "type": "uint64"
        },
        {
          "indexed": false,
          "internalType": "bytes",
          "name": "offchainConfig",
          "type": "bytes"
        }
      ],
      "name": "ConfigSet",
      "type": "event"
    },
    {
      "anonymous": false,
      "inputs": [
        {
          "indexed": false,
          "internalType": "uint8",
          "name": "version",
          "type": "uint8"
        }
      ],
      "name": "Initialized",
      "type": "event"
    },
    {
      "anonymous": false,
      "inputs": [
        {
          "indexed": true,
          "internalType": "bytes32",
          "name": "requestId",
          "type": "bytes32"
        }
      ],
      "name": "InvalidRequestID",
      "type": "event"
    },
    {
      "anonymous": false,
      "inputs": [
        {
          "indexed": true,
          "internalType": "bytes32",
          "name": "requestId",
          "type": "bytes32"
        },
        {
          "indexed": false,
          "internalType": "address",
          "name": "requestingContract",
          "type": "address"
        },
        {
          "indexed": false,
          "internalType": "address",
          "name": "requestInitiator",
          "type": "address"
        },
        {
          "indexed": false,
          "internalType": "uint64",
          "name": "subscriptionId",
          "type": "uint64"
        },
        {
          "indexed": false,
          "internalType": "address",
          "name": "subscriptionOwner",
          "type": "address"
        },
        {
          "indexed": false,
          "internalType": "bytes",
          "name": "data",
          "type": "bytes"
        }
      ],
      "name": "OracleRequest",
      "type": "event"
    },
    {
      "anonymous": false,
      "inputs": [
        {
          "indexed": true,
          "internalType": "bytes32",
          "name": "requestId",
          "type": "bytes32"
        }
      ],
      "name": "OracleResponse",
      "type": "event"
    },
    {
      "anonymous": false,
      "inputs": [
        {
          "indexed": true,
          "internalType": "address",
          "name": "from",
          "type": "address"
        },
        {
          "indexed": true,
          "internalType": "address",
          "name": "to",
          "type": "address"
        }
      ],
      "name": "OwnershipTransferRequested",
      "type": "event"
    },
    {
      "anonymous": false,
      "inputs": [
        {
          "indexed": true,
          "internalType": "address",
          "name": "from",
          "type": "address"
        },
        {
          "indexed": true,
          "internalType": "address",
          "name": "to",
          "type": "address"
        }
      ],
      "name": "OwnershipTransferred",
      "type": "event"
    },
    {
      "anonymous": false,
      "inputs": [
        {
          "indexed": true,
          "internalType": "bytes32",
          "name": "requestId",
          "type": "bytes32"
        },
        {
          "indexed": false,
          "internalType": "address",
          "name": "transmitter",
          "type": "address"
        }
      ],
      "name": "ResponseTransmitted",
      "type": "event"
    },
    {
      "anonymous": false,
      "inputs": [
        {
          "indexed": false,
          "internalType": "bytes32",
          "name": "configDigest",
          "type": "bytes32"
        },
        {
          "indexed": false,
          "internalType": "uint32",
          "name": "epoch",
          "type": "uint32"
        }
      ],
      "name": "Transmitted",
      "type": "event"
    },
    {
      "anonymous": false,
      "inputs": [
        {
          "indexed": true,
          "internalType": "bytes32",
          "name": "requestId",
          "type": "bytes32"
        },
        {
          "indexed": false,
          "internalType": "string",
          "name": "reason",
          "type": "string"
        }
      ],
      "name": "UserCallbackError",
      "type": "event"
    },
    {
      "anonymous": false,
      "inputs": [
        {
          "indexed": true,
          "internalType": "bytes32",
          "name": "requestId",
          "type": "bytes32"
        },
        {
          "indexed": false,
          "internalType": "bytes",
          "name": "lowLevelData",
          "type": "bytes"
        }
      ],
      "name": "UserCallbackRawError",
      "type": "event"
    },
    {
      "inputs": [],
      "name": "acceptOwnership",
      "outputs": [],
      "stateMutability": "nonpayable",
      "type": "function"
    },
    {
      "inputs": [],
      "name": "activateAuthorizedReceiver",
      "outputs": [],
      "stateMutability": "nonpayable",
      "type": "function"
    },
    {
      "inputs": [
        {
          "internalType": "address[]",
          "name": "senders",
          "type": "address[]"
        }
      ],
      "name": "addAuthorizedSenders",
      "outputs": [],
      "stateMutability": "nonpayable",
      "type": "function"
    },
    {
      "inputs": [],
      "name": "authorizedReceiverActive",
      "outputs": [
        {
          "internalType": "bool",
          "name": "",
          "type": "bool"
        }
      ],
      "stateMutability": "view",
      "type": "function"
    },
    {
      "inputs": [],
      "name": "deactivateAuthorizedReceiver",
      "outputs": [],
      "stateMutability": "nonpayable",
      "type": "function"
    },
    {
      "inputs": [
        {
          "internalType": "address",
          "name": "node",
          "type": "address"
        }
      ],
      "name": "deleteNodePublicKey",
      "outputs": [],
      "stateMutability": "nonpayable",
      "type": "function"
    },
    {
      "inputs": [
        {
          "internalType": "uint64",
          "name": "subscriptionId",
          "type": "uint64"
        },
        {
          "internalType": "bytes",
          "name": "data",
          "type": "bytes"
        },
        {
          "internalType": "uint32",
          "name": "gasLimit",
          "type": "uint32"
        },
        {
          "internalType": "uint256",
          "name": "gasPrice",
          "type": "uint256"
        }
      ],
      "name": "estimateCost",
      "outputs": [
        {
          "internalType": "uint96",
          "name": "",
          "type": "uint96"
        }
      ],
      "stateMutability": "view",
      "type": "function"
    },
    {
      "inputs": [],
      "name": "getAllNodePublicKeys",
      "outputs": [
        {
          "internalType": "address[]",
          "name": "",
          "type": "address[]"
        },
        {
          "internalType": "bytes[]",
          "name": "",
          "type": "bytes[]"
        }
      ],
      "stateMutability": "view",
      "type": "function"
    },
    {
      "inputs": [],
      "name": "getAuthorizedSenders",
      "outputs": [
        {
          "internalType": "address[]",
          "name": "",
          "type": "address[]"
        }
      ],
      "stateMutability": "view",
      "type": "function"
    },
    {
      "inputs": [],
      "name": "getDONPublicKey",
      "outputs": [
        {
          "internalType": "bytes",
          "name": "",
          "type": "bytes"
        }
      ],
      "stateMutability": "view",
      "type": "function"
    },
    {
      "inputs": [],
      "name": "getRegistry",
      "outputs": [
        {
          "internalType": "address",
          "name": "",
          "type": "address"
        }
      ],
      "stateMutability": "view",
      "type": "function"
    },
    {
      "inputs": [
        {
          "internalType": "bytes",
          "name": "",
          "type": "bytes"
        },
        {
          "components": [
            {
              "internalType": "uint64",
              "name": "subscriptionId",
              "type": "uint64"
            },
            {
              "internalType": "address",
              "name": "client",
              "type": "address"
            },
            {
              "internalType": "uint32",
              "name": "gasLimit",
              "type": "uint32"
            },
            {
              "internalType": "uint256",
              "name": "gasPrice",
              "type": "uint256"
            }
          ],
          "internalType": "struct IFunctionsBillingRegistry.RequestBilling",
          "name": "",
          "type": "tuple"
        }
      ],
      "name": "getRequiredFee",
      "outputs": [
        {
          "internalType": "uint96",
          "name": "",
          "type": "uint96"
        }
      ],
      "stateMutability": "pure",
      "type": "function"
    },
    {
      "inputs": [],
      "name": "getThresholdPublicKey",
      "outputs": [
        {
          "internalType": "bytes",
          "name": "",
          "type": "bytes"
        }
      ],
      "stateMutability": "view",
      "type": "function"
    },
    {
      "inputs": [],
      "name": "initialize",
      "outputs": [],
      "stateMutability": "nonpayable",
      "type": "function"
    },
    {
      "inputs": [
        {
          "internalType": "address",
          "name": "sender",
          "type": "address"
        }
      ],
      "name": "isAuthorizedSender",
      "outputs": [
        {
          "internalType": "bool",
          "name": "",
          "type": "bool"
        }
      ],
      "stateMutability": "view",
      "type": "function"
    },
    {
      "inputs": [],
      "name": "latestConfigDetails",
      "outputs": [
        {
          "internalType": "uint32",
          "name": "configCount",
          "type": "uint32"
        },
        {
          "internalType": "uint32",
          "name": "blockNumber",
          "type": "uint32"
        },
        {
          "internalType": "bytes32",
          "name": "configDigest",
          "type": "bytes32"
        }
      ],
      "stateMutability": "view",
      "type": "function"
    },
    {
      "inputs": [],
      "name": "latestConfigDigestAndEpoch",
      "outputs": [
        {
          "internalType": "bool",
          "name": "scanLogs",
          "type": "bool"
        },
        {
          "internalType": "bytes32",
          "name": "configDigest",
          "type": "bytes32"
        },
        {
          "internalType": "uint32",
          "name": "epoch",
          "type": "uint32"
        }
      ],
      "stateMutability": "view",
      "type": "function"
    },
    {
      "inputs": [],
      "name": "owner",
      "outputs": [
        {
          "internalType": "address",
          "name": "",
          "type": "address"
        }
      ],
      "stateMutability": "view",
      "type": "function"
    },
    {
      "inputs": [
        {
          "internalType": "address[]",
          "name": "senders",
          "type": "address[]"
        }
      ],
      "name": "removeAuthorizedSenders",
      "outputs": [],
      "stateMutability": "nonpayable",
      "type": "function"
    },
    {
      "inputs": [
        {
          "internalType": "uint64",
          "name": "subscriptionId",
          "type": "uint64"
        },
        {
          "internalType": "bytes",
          "name": "data",
          "type": "bytes"
        },
        {
          "internalType": "uint32",
          "name": "gasLimit",
          "type": "uint32"
        }
      ],
      "name": "sendRequest",
      "outputs": [
        {
          "internalType": "bytes32",
          "name": "",
          "type": "bytes32"
        }
      ],
      "stateMutability": "nonpayable",
      "type": "function"
    },
    {
      "inputs": [
        {
          "internalType": "address[]",
          "name": "_signers",
          "type": "address[]"
        },
        {
          "internalType": "address[]",
          "name": "_transmitters",
          "type": "address[]"
        },
        {
          "internalType": "uint8",
          "name": "_f",
          "type": "uint8"
        },
        {
          "internalType": "bytes",
          "name": "_onchainConfig",
          "type": "bytes"
        },
        {
          "internalType": "uint64",
          "name": "_offchainConfigVersion",
          "type": "uint64"
        },
        {
          "internalType": "bytes",
          "name": "_offchainConfig",
          "type": "bytes"
        }
      ],
      "name": "setConfig",
      "outputs": [],
      "stateMutability": "nonpayable",
      "type": "function"
    },
    {
      "inputs": [
        {
          "internalType": "bytes",
          "name": "donPublicKey",
          "type": "bytes"
        }
      ],
      "name": "setDONPublicKey",
      "outputs": [],
      "stateMutability": "nonpayable",
      "type": "function"
    },
    {
      "inputs": [
        {
          "internalType": "address",
          "name": "node",
          "type": "address"
        },
        {
          "internalType": "bytes",
          "name": "publicKey",
          "type": "bytes"
        }
      ],
      "name": "setNodePublicKey",
      "outputs": [],
      "stateMutability": "nonpayable",
      "type": "function"
    },
    {
      "inputs": [
        {
          "internalType": "address",
          "name": "registryAddress",
          "type": "address"
        }
      ],
      "name": "setRegistry",
      "outputs": [],
      "stateMutability": "nonpayable",
      "type": "function"
    },
    {
      "inputs": [
        {
          "internalType": "bytes",
          "name": "thresholdPublicKey",
          "type": "bytes"
        }
      ],
      "name": "setThresholdPublicKey",
      "outputs": [],
      "stateMutability": "nonpayable",
      "type": "function"
    },
    {
      "inputs": [
        {
          "internalType": "address",
          "name": "to",
          "type": "address"
        }
      ],
      "name": "transferOwnership",
      "outputs": [],
      "stateMutability": "nonpayable",
      "type": "function"
    },
    {
      "inputs": [
        {
          "internalType": "bytes32[3]",
          "name": "reportContext",
          "type": "bytes32[3]"
        },
        {
          "internalType": "bytes",
          "name": "report",
          "type": "bytes"
        },
        {
          "internalType": "bytes32[]",
          "name": "rs",
          "type": "bytes32[]"
        },
        {
          "internalType": "bytes32[]",
          "name": "ss",
          "type": "bytes32[]"
        },
        {
          "internalType": "bytes32",
          "name": "rawVs",
          "type": "bytes32"
        }
      ],
      "name": "transmit",
      "outputs": [],
      "stateMutability": "nonpayable",
      "type": "function"
    },
    {
      "inputs": [],
      "name": "transmitters",
      "outputs": [
        {
          "internalType": "address[]",
          "name": "",
          "type": "address[]"
        }
      ],
      "stateMutability": "view",
      "type": "function"
    },
    {
      "inputs": [],
      "name": "typeAndVersion",
      "outputs": [
        {
          "internalType": "string",
          "name": "",
          "type": "string"
        }
      ],
      "stateMutability": "pure",
      "type": "function"
    }
  ],
  "bytecode": {
    "object": "0x608060405234801561001057600080fd5b50613f17806100206000396000f3fe608060405234801561001057600080fd5b50600436106101cf5760003560e01c80638129fc1c11610104578063afcb95d7116100a2578063e3d0e71211610071578063e3d0e71214610410578063f1e14a2114610423578063f2fde38b1461043a578063fa00763a1461044d57600080fd5b8063afcb95d7146103a5578063b1dc65a4146103c5578063d227d245146103d8578063d328a91e1461040857600080fd5b806381ff7048116100de57806381ff7048146103435780638da5cb5b1461037357806391bb64eb1461038a578063a91ee0dc1461039257600080fd5b80638129fc1c1461032b578063814118341461033357806381f1b9381461033b57600080fd5b80634b4fa0c1116101715780635ab1bd531161014b5780635ab1bd53146102d857806379ba5097146102fd5780637f15e16614610305578063807560311461031857600080fd5b80634b4fa0c1146102985780634dcef404146102af57806353398987146102c257600080fd5b8063181f5a77116101ad578063181f5a77146102045780632408afaa1461024f57806326ceabac1461026457806328242b041461027757600080fd5b806303e1bf23146101d4578063083a5466146101e9578063110254c8146101fc575b600080fd5b6101e76101e2366004612ef3565b610460565b005b6101e76101f7366004612f77565b610575565b6101e76105ca565b60408051808201909152601581527f46756e6374696f6e734f7261636c6520302e302e30000000000000000000000060208201525b6040516102469190612ff3565b60405180910390f35b610257610694565b604051610246919061304a565b6101e7610272366004613072565b6106a5565b61028a6102853660046130c0565b610738565b604051908152602001610246565b60085460ff165b6040519015158152602001610246565b6101e76102bd366004612ef3565b61095d565b6102ca610a32565b604051610246929190613125565b600d546001600160a01b03165b6040516001600160a01b039091168152602001610246565b6101e7610bfe565b6101e7610313366004612f77565b610cd7565b6101e7610326366004613197565b610d27565b6101e7610dcf565b610257610f39565b610239610f9b565b6004546002546040805163ffffffff80851682526401000000009094049093166020840152820152606001610246565b6000546201000090046001600160a01b03166102e5565b6101e7611024565b6101e76103a0366004613072565b6110e4565b604080516001815260006020820181905291810191909152606001610246565b6101e76103d33660046131ec565b611166565b6103eb6103e63660046132a3565b611789565b6040516bffffffffffffffffffffffff9091168152602001610246565b61023961194b565b6101e761041e366004613489565b61195a565b6103eb610431366004613556565b60009392505050565b6101e7610448366004613072565b6121d7565b61029f61045b366004613072565b6121e8565b6000546201000090046001600160a01b031633146104aa576040517fad77f06100000000000000000000000000000000000000000000000000000000815260040160405180910390fd5b60008190036104e5576040517f75158c3b00000000000000000000000000000000000000000000000000000000815260040160405180910390fd5b60005b818110156105355761052283838381811061050557610505613613565b905060200201602081019061051a9190613072565b600990612213565b508061052d81613671565b9150506104e8565b507ff263cfb3e4298332e776194610cf9fdc09ccb3ada8b9aa39764d882e11fbf0a0828233604051610569939291906136a9565b60405180910390a15050565b61057d61222f565b60008190036105b8576040517f4f42be3d00000000000000000000000000000000000000000000000000000000815260040160405180910390fd5b600f6105c58284836137aa565b505050565b6000546201000090046001600160a01b03163314610614576040517fad77f06100000000000000000000000000000000000000000000000000000000815260040160405180910390fd5b60085460ff1615610651576040517fa741a04500000000000000000000000000000000000000000000000000000000815260040160405180910390fd5b6008805460ff191660011790556040513381527fae51766a982895b0c444fc99fc1a560762b464d709e6c78376c85617f7eeb5ce906020015b60405180910390a1565b60606106a0600961227b565b905090565b6000546201000090046001600160a01b03166001600160a01b0316336001600160a01b031614806106de5750336001600160a01b038216145b610714576040517fed6dd19b00000000000000000000000000000000000000000000000000000000815260040160405180910390fd5b6001600160a01b0381166000908152600e6020526040812061073591612e35565b50565b600d546000906001600160a01b031661077d576040517f9c5fe32400000000000000000000000000000000000000000000000000000000815260040160405180910390fd5b610785612288565b60008390036107bf576040517ec1cfc000000000000000000000000000000000000000000000000000000000815260040160405180910390fd5b600d546040805160808101825267ffffffffffffffff8816815233602082015263ffffffff8516818301523a606082015290517fa9d03c050000000000000000000000000000000000000000000000000000000081526000926001600160a01b03169163a9d03c05916108399189918991906004016138d2565b6020604051808303816000875af1158015610858573d6000803e3d6000fd5b505050506040513d601f19601f8201168201806040525081019061087c919061392e565b600d546040517fb2a489ff00000000000000000000000000000000000000000000000000000000815267ffffffffffffffff8916600482015291925082917fa1ec73989d79578cd6f67d4f593ac3e0a4d1020e5c0164db52108d7ff785406c91339132918b916001600160a01b039091169063b2a489ff90602401602060405180830381865afa158015610914573d6000803e3d6000fd5b505050506040513d601f19601f820116820180604052508101906109389190613947565b8a8a60405161094c96959493929190613964565b60405180910390a295945050505050565b6000546201000090046001600160a01b031633146109a7576040517fad77f06100000000000000000000000000000000000000000000000000000000815260040160405180910390fd5b60008190036109e2576040517f75158c3b00000000000000000000000000000000000000000000000000000000815260040160405180910390fd5b60005b8181101561053557610a1f838383818110610a0257610a02613613565b9050602002016020810190610a179190613072565b6009906122c7565b5080610a2a81613671565b9150506109e5565b6060806000306001600160a01b031663814118346040518163ffffffff1660e01b8152600401600060405180830381865afa158015610a75573d6000803e3d6000fd5b505050506040513d6000823e601f3d908101601f19168201604052610a9d91908101906139b5565b90506000815167ffffffffffffffff811115610abb57610abb613310565b604051908082528060200260200182016040528015610aee57816020015b6060815260200190600190039081610ad95790505b50905060005b8251811015610bf457600e6000848381518110610b1357610b13613613565b60200260200101516001600160a01b03166001600160a01b031681526020019081526020016000208054610b4690613709565b80601f0160208091040260200160405190810160405280929190818152602001828054610b7290613709565b8015610bbf5780601f10610b9457610100808354040283529160200191610bbf565b820191906000526020600020905b815481529060010190602001808311610ba257829003601f168201915b5050505050828281518110610bd657610bd6613613565b60200260200101819052508080610bec90613671565b915050610af4565b5090939092509050565b6001546001600160a01b03163314610c42576040517f0f22ca5f00000000000000000000000000000000000000000000000000000000815260040160405180910390fd5b6000805433620100008181027fffffffffffffffffffff0000000000000000000000000000000000000000ffff8416178455600180547fffffffffffffffffffffffff00000000000000000000000000000000000000001690556040516001600160a01b03919093041692909183917f8be0079c531659141344cd1fd0a4f28419497f9722a3daafe3b4186f6b6457e091a350565b610cdf61222f565b6000819003610d1a576040517f4f42be3d00000000000000000000000000000000000000000000000000000000815260040160405180910390fd5b600c6105c58284836137aa565b6000546201000090046001600160a01b03166001600160a01b0316336001600160a01b03161480610d705750610d5c336122dc565b8015610d705750336001600160a01b038416145b610da6576040517fed6dd19b00000000000000000000000000000000000000000000000000000000815260040160405180910390fd5b6001600160a01b0383166000908152600e60205260409020610dc98284836137aa565b50505050565b600054610100900460ff1615808015610def5750600054600160ff909116105b80610e095750303b158015610e09575060005460ff166001145b610e805760405162461bcd60e51b815260206004820152602e60248201527f496e697469616c697a61626c653a20636f6e747261637420697320616c72656160448201527f647920696e697469616c697a656400000000000000000000000000000000000060648201526084015b60405180910390fd5b6000805460ff191660011790558015610ec057600080547fffffffffffffffffffffffffffffffffffffffffffffffffffffffffffff00ff166101001790555b610eca60016123ab565b610ed4600161247d565b801561073557600080547fffffffffffffffffffffffffffffffffffffffffffffffffffffffffffff00ff169055604051600181527f7f26b83ff96e1f2b6a682f133852f6798a09c465da95921460cefb38474024989060200160405180910390a150565b60606007805480602002602001604051908101604052809291908181526020018280548015610f9157602002820191906000526020600020905b81546001600160a01b03168152600190910190602001808311610f73575b5050505050905090565b6060600f8054610faa90613709565b80601f0160208091040260200160405190810160405280929190818152602001828054610fd690613709565b8015610f915780601f10610ff857610100808354040283529160200191610f91565b820191906000526020600020905b81548152906001019060200180831161100657509395945050505050565b6000546201000090046001600160a01b0316331461106e576040517fad77f06100000000000000000000000000000000000000000000000000000000815260040160405180910390fd5b60085460ff166110aa576040517fa741a04500000000000000000000000000000000000000000000000000000000815260040160405180910390fd5b6008805460ff191690556040513381527fea3828816a323b8d7ff49d755efd105e7719166d6c76fad97a28eee5eccc3d9a9060200161068a565b6110ec61222f565b6001600160a01b03811661112c576040517f9c5fe32400000000000000000000000000000000000000000000000000000000815260040160405180910390fd5b600d80547fffffffffffffffffffffffff0000000000000000000000000000000000000000166001600160a01b0392909216919091179055565b60005a604080516020601f8b018190048102820181019092528981529192508a3591818c0135916111bc91849163ffffffff851691908e908e908190840183828082843760009201919091525061250d92505050565b6111f2576040517f0be3632800000000000000000000000000000000000000000000000000000000815260040160405180910390fd5b6040805183815262ffffff600884901c1660208201527fb04e63db38c49950639fa09d29872f21f5d49d614f3a969d8adf3d4b52e41a62910160405180910390a16040805160608101825260025480825260035460ff808216602085015261010090910416928201929092529083146112ad5760405162461bcd60e51b815260206004820152601560248201527f636f6e666967446967657374206d69736d6174636800000000000000000000006044820152606401610e77565b6112bb8b8b8b8b8b8b612516565b60015460009074010000000000000000000000000000000000000000900460ff1615611316576002826020015183604001516112f79190613a4f565b6113019190613a97565b61130c906001613a4f565b60ff16905061132c565b6020820151611326906001613a4f565b60ff1690505b88811461137b5760405162461bcd60e51b815260206004820152601a60248201527f77726f6e67206e756d626572206f66207369676e6174757265730000000000006044820152606401610e77565b8887146113ca5760405162461bcd60e51b815260206004820152601e60248201527f7369676e617475726573206f7574206f6620726567697374726174696f6e00006044820152606401610e77565b3360009081526005602090815260408083208151808301909252805460ff8082168452929391929184019161010090910416600281111561140d5761140d613ab9565b600281111561141e5761141e613ab9565b905250905060028160200151600281111561143b5761143b613ab9565b14801561147557506007816000015160ff168154811061145d5761145d613613565b6000918252602090912001546001600160a01b031633145b6114c15760405162461bcd60e51b815260206004820152601860248201527f756e617574686f72697a6564207472616e736d697474657200000000000000006044820152606401610e77565b50505050506114ce612e6f565b6000808a8a6040516114e1929190613ae8565b6040519081900381206114f8918e90602001613af8565b60408051601f198184030181528282528051602091820120838301909252600080845290830152915060005b8981101561176b57600060018489846020811061154357611543613613565b61155091901a601b613a4f565b8e8e8681811061156257611562613613565b905060200201358d8d8781811061157b5761157b613613565b90506020020135604051600081526020016040526040516115b8949392919093845260ff9290921660208401526040830152606082015260800190565b6020604051602081039080840390855afa1580156115da573d6000803e3d6000fd5b505060408051601f198101516001600160a01b03811660009081526005602090815290849020838501909452835460ff8082168552929650929450840191610100900416600281111561162f5761162f613ab9565b600281111561164057611640613ab9565b905250925060018360200151600281111561165d5761165d613ab9565b146116aa5760405162461bcd60e51b815260206004820152601e60248201527f61646472657373206e6f7420617574686f72697a656420746f207369676e00006044820152606401610e77565b8251600090879060ff16601f81106116c4576116c4613613565b60200201516001600160a01b03161461171f5760405162461bcd60e51b815260206004820152601460248201527f6e6f6e2d756e69717565207369676e61747572650000000000000000000000006044820152606401610e77565b8086846000015160ff16601f811061173957611739613613565b6001600160a01b039092166020929092020152611757600186613a4f565b9450508061176490613671565b9050611524565b50505061177c833383858e8e6125b3565b5050505050505050505050565b600d546000906001600160a01b03166117ce576040517f9c5fe32400000000000000000000000000000000000000000000000000000000815260040160405180910390fd5b6040805160808101825267ffffffffffffffff8816815233602082015263ffffffff85168183015260608101849052600d5491517ff1e14a21000000000000000000000000000000000000000000000000000000008152909160009182916001600160a01b03169063f1e14a219061184e908b908b9088906004016138d2565b602060405180830381865afa15801561186b573d6000803e3d6000fd5b505050506040513d601f19601f8201168201806040525081019061188f9190613b0c565b600d546040517fa1a6d04100000000000000000000000000000000000000000000000000000000815263ffffffff89166004820152602481018890526bffffffffffffffffffffffff8086166044830152831660648201529192506001600160a01b03169063a1a6d04190608401602060405180830381865afa15801561191a573d6000803e3d6000fd5b505050506040513d601f19601f8201168201806040525081019061193e9190613b0c565b9998505050505050505050565b6060600c8054610faa90613709565b855185518560ff16601f8311156119b35760405162461bcd60e51b815260206004820152601060248201527f746f6f206d616e79207369676e657273000000000000000000000000000000006044820152606401610e77565b60008111611a035760405162461bcd60e51b815260206004820152601260248201527f66206d75737420626520706f73697469766500000000000000000000000000006044820152606401610e77565b818314611a775760405162461bcd60e51b8152602060048201526024808201527f6f7261636c6520616464726573736573206f7574206f6620726567697374726160448201527f74696f6e000000000000000000000000000000000000000000000000000000006064820152608401610e77565b611a82816003613b3a565b8311611ad05760405162461bcd60e51b815260206004820152601860248201527f6661756c74792d6f7261636c65206620746f6f206869676800000000000000006044820152606401610e77565b611ad861222f565b6040805160c0810182528a8152602081018a905260ff8916918101919091526060810187905267ffffffffffffffff8616608082015260a081018590525b60065415611cb157600654600090611b3090600190613b51565b9050600060068281548110611b4757611b47613613565b6000918252602082200154600780546001600160a01b0390921693509084908110611b7457611b74613613565b60009182526020808320909101546001600160a01b0385811684526005909252604080842080547fffffffffffffffffffffffffffffffffffffffffffffffffffffffffffff000090811690915592909116808452922080549091169055600680549192509080611be757611be7613b64565b60008281526020902081017fffffffffffffffffffffffffffffffffffffffffffffffffffffffffffffffff90810180547fffffffffffffffffffffffff00000000000000000000000000000000000000001690550190556007805480611c5057611c50613b64565b60008281526020902081017fffffffffffffffffffffffffffffffffffffffffffffffffffffffffffffffff90810180547fffffffffffffffffffffffff000000000000000000000000000000000000000016905501905550611b16915050565b60005b8151518110156120585760006005600084600001518481518110611cda57611cda613613565b6020908102919091018101516001600160a01b0316825281019190915260400160002054610100900460ff166002811115611d1757611d17613ab9565b14611d645760405162461bcd60e51b815260206004820152601760248201527f7265706561746564207369676e657220616464726573730000000000000000006044820152606401610e77565b6040805180820190915260ff82168152600160208201528251805160059160009185908110611d9557611d95613613565b6020908102919091018101516001600160a01b03168252818101929092526040016000208251815460ff90911660ff1982168117835592840151919283917fffffffffffffffffffffffffffffffffffffffffffffffffffffffffffff00001617610100836002811115611e0b57611e0b613ab9565b021790555060009150611e1b9050565b6005600084602001518481518110611e3557611e35613613565b6020908102919091018101516001600160a01b0316825281019190915260400160002054610100900460ff166002811115611e7257611e72613ab9565b14611ebf5760405162461bcd60e51b815260206004820152601c60248201527f7265706561746564207472616e736d69747465722061646472657373000000006044820152606401610e77565b6040805180820190915260ff821681526020810160028152506005600084602001518481518110611ef257611ef2613613565b6020908102919091018101516001600160a01b03168252818101929092526040016000208251815460ff90911660ff1982168117835592840151919283917fffffffffffffffffffffffffffffffffffffffffffffffffffffffffffff00001617610100836002811115611f6857611f68613ab9565b021790555050825180516006925083908110611f8657611f86613613565b602090810291909101810151825460018101845560009384529282902090920180547fffffffffffffffffffffffff0000000000000000000000000000000000000000166001600160a01b039093169290921790915582015180516007919083908110611ff557611ff5613613565b60209081029190910181015182546001810184556000938452919092200180547fffffffffffffffffffffffff0000000000000000000000000000000000000000166001600160a01b0390921691909117905561205181613671565b9050611cb4565b5060408101516003805460ff191660ff909216919091179055600480547fffffffffffffffffffffffffffffffffffffffffffffffff00000000ffffffff811664010000000063ffffffff4381168202928317855590830481169360019390926000926120cc928692908216911617613b93565b92506101000a81548163ffffffff021916908363ffffffff16021790555061212b4630600460009054906101000a900463ffffffff1663ffffffff16856000015186602001518760400151886060015189608001518a60a00151612a23565b6002819055825180516003805460ff909216610100027fffffffffffffffffffffffffffffffffffffffffffffffffffffffffffff00ff90921691909117905560045460208501516040808701516060880151608089015160a08a015193517f1591690b8638f5fb2dbec82ac741805ac5da8b45dc5263f4875b0496fdce4e05986121ca988b98919763ffffffff909216969095919491939192613bb0565b60405180910390a161177c565b6121df61222f565b61073581612ab0565b60006121f660085460ff1690565b61220257506001919050565b61220d600983612b62565b92915050565b6000612228836001600160a01b038416612b84565b9392505050565b6000546201000090046001600160a01b03163314612279576040517f2b5c74de00000000000000000000000000000000000000000000000000000000815260040160405180910390fd5b565b6060600061222883612c7e565b612291326121e8565b612279576040517f0809490800000000000000000000000000000000000000000000000000000000815260040160405180910390fd5b6000612228836001600160a01b038416612cda565b600080306001600160a01b031663814118346040518163ffffffff1660e01b8152600401600060405180830381865afa15801561231d573d6000803e3d6000fd5b505050506040513d6000823e601f3d908101601f1916820160405261234591908101906139b5565b905060005b81518110156123a157836001600160a01b031682828151811061236f5761236f613613565b60200260200101516001600160a01b03160361238f575060019392505050565b8061239981613671565b91505061234a565b5060009392505050565b600054610100900460ff166124285760405162461bcd60e51b815260206004820152602b60248201527f496e697469616c697a61626c653a20636f6e7472616374206973206e6f74206960448201527f6e697469616c697a696e670000000000000000000000000000000000000000006064820152608401610e77565b612433336000612d29565b6001805491151574010000000000000000000000000000000000000000027fffffffffffffffffffffff00ffffffffffffffffffffffffffffffffffffffff909216919091179055565b600054610100900460ff166124fa5760405162461bcd60e51b815260206004820152602b60248201527f496e697469616c697a61626c653a20636f6e7472616374206973206e6f74206960448201527f6e697469616c697a696e670000000000000000000000000000000000000000006064820152608401610e77565b6008805460ff1916911515919091179055565b60019392505050565b6000612523826020613b3a565b61252e856020613b3a565b61253a88610144613c46565b6125449190613c46565b61254e9190613c46565b612559906000613c46565b90503681146125aa5760405162461bcd60e51b815260206004820152601860248201527f63616c6c64617461206c656e677468206d69736d6174636800000000000000006044820152606401610e77565b50505050505050565b600d546001600160a01b03166125f5576040517f9c5fe32400000000000000000000000000000000000000000000000000000000815260040160405180910390fd5b6060808061260584860186613cd9565b82519295509093509150158061261d57508151835114155b8061262a57508051835114155b15612661576040517f0be3632800000000000000000000000000000000000000000000000000000000815260040160405180910390fd5b600083515a612670908c613b51565b61267a9190613db6565b905060005b845181101561177c57600d5485516001600160a01b0390911690630739e4f1908790849081106126b1576126b1613613565b60200260200101518684815181106126cb576126cb613613565b60200260200101518685815181106126e5576126e5613613565b60200260200101518e8d8f895a6040518963ffffffff1660e01b8152600401612715989796959493929190613dca565b6020604051808303816000875af1925050508015612750575060408051601f3d908101601f1916820190925261274d91810190613e61565b60015b61283b573d80801561277e576040519150601f19603f3d011682016040523d82523d6000602084013e612783565b606091505b5085828151811061279657612796613613565b60200260200101517fe0b838ffe6ee22a0d3acf19a85db6a41b34a1ab739e2d6c759a2e42d95bdccb2826040516127cd9190612ff3565b60405180910390a28582815181106127e7576127e7613613565b60200260200101517fdc941eddab34a6109ab77798299c6b1f035b125fd6f774d266ecbf9541d630a68c60405161282d91906001600160a01b0391909116815260200190565b60405180910390a250612a0d565b600081600281111561284f5761284f613ab9565b036128ff5785828151811061286657612866613613565b60200260200101517f9e9bc7616d42c2835d05ae617e508454e63b30b934be8aa932ebc125e0e58a6460405160405180910390a28582815181106128ac576128ac613613565b60200260200101517fdc941eddab34a6109ab77798299c6b1f035b125fd6f774d266ecbf9541d630a68c6040516128f291906001600160a01b0391909116815260200190565b60405180910390a2612a0b565b600181600281111561291357612913613ab9565b036129ab5785828151811061292a5761292a613613565b60200260200101517fb2931868c372fe17a25643458add467d60ec5c51125a99b7309f41f5bcd2da6c6040516129919060208082526011908201527f6572726f7220696e2063616c6c6261636b000000000000000000000000000000604082015260600190565b60405180910390a28582815181106128ac576128ac613613565b60028160028111156129bf576129bf613ab9565b03612a0b578582815181106129d6576129d6613613565b60200260200101517fa1c120e327c9ad8b075793878c88d59b8934b97ae37117faa3bb21616237f7be60405160405180910390a25b505b80612a1781613671565b91505061267f565b5050565b6000808a8a8a8a8a8a8a8a8a604051602001612a4799989796959493929190613e82565b60408051601f1981840301815291905280516020909101207dffffffffffffffffffffffffffffffffffffffffffffffffffffffffffff167e01000000000000000000000000000000000000000000000000000000000000179150509998505050505050505050565b336001600160a01b03821603612af2576040517f282010c300000000000000000000000000000000000000000000000000000000815260040160405180910390fd5b600180547fffffffffffffffffffffffff0000000000000000000000000000000000000000166001600160a01b038381169182179092556000805460405192936201000090910416917fed8889f560326eb138920d842192f0eb3dd22b4f139c87a2c57538e05bae12789190a350565b6001600160a01b03811660009081526001830160205260408120541515612228565b60008181526001830160205260408120548015612c6d576000612ba8600183613b51565b8554909150600090612bbc90600190613b51565b9050818114612c21576000866000018281548110612bdc57612bdc613613565b9060005260206000200154905080876000018481548110612bff57612bff613613565b6000918252602080832090910192909255918252600188019052604090208390555b8554869080612c3257612c32613b64565b60019003818190600052602060002001600090559055856001016000868152602001908152602001600020600090556001935050505061220d565b600091505061220d565b5092915050565b606081600001805480602002602001604051908101604052809291908181526020018280548015612cce57602002820191906000526020600020905b815481526020019060010190808311612cba575b50505050509050919050565b6000818152600183016020526040812054612d215750815460018181018455600084815260208082209093018490558454848252828601909352604090209190915561220d565b50600061220d565b600054610100900460ff16612da65760405162461bcd60e51b815260206004820152602b60248201527f496e697469616c697a61626c653a20636f6e7472616374206973206e6f74206960448201527f6e697469616c697a696e670000000000000000000000000000000000000000006064820152608401610e77565b6001600160a01b038216612de6576040517fb6b515fa00000000000000000000000000000000000000000000000000000000815260040160405180910390fd5b600080546001600160a01b0380851662010000027fffffffffffffffffffff0000000000000000000000000000000000000000ffff90921691909117909155811615612a1f57612a1f81612ab0565b508054612e4190613709565b6000825580601f10612e51575050565b601f0160209004906000526020600020908101906107359190612e8e565b604051806103e00160405280601f906020820280368337509192915050565b5b80821115612ea35760008155600101612e8f565b5090565b60008083601f840112612eb957600080fd5b50813567ffffffffffffffff811115612ed157600080fd5b6020830191508360208260051b8501011115612eec57600080fd5b9250929050565b60008060208385031215612f0657600080fd5b823567ffffffffffffffff811115612f1d57600080fd5b612f2985828601612ea7565b90969095509350505050565b60008083601f840112612f4757600080fd5b50813567ffffffffffffffff811115612f5f57600080fd5b602083019150836020828501011115612eec57600080fd5b60008060208385031215612f8a57600080fd5b823567ffffffffffffffff811115612fa157600080fd5b612f2985828601612f35565b6000815180845260005b81811015612fd357602081850181015186830182015201612fb7565b506000602082860101526020601f19601f83011685010191505092915050565b6020815260006122286020830184612fad565b600081518084526020808501945080840160005b8381101561303f5781516001600160a01b03168752958201959082019060010161301a565b509495945050505050565b6020815260006122286020830184613006565b6001600160a01b038116811461073557600080fd5b60006020828403121561308457600080fd5b81356122288161305d565b803567ffffffffffffffff811681146130a757600080fd5b919050565b803563ffffffff811681146130a757600080fd5b600080600080606085870312156130d657600080fd5b6130df8561308f565b9350602085013567ffffffffffffffff8111156130fb57600080fd5b61310787828801612f35565b909450925061311a9050604086016130ac565b905092959194509250565b6040815260006131386040830185613006565b6020838203818501528185518084528284019150828160051b85010183880160005b8381101561318857601f19878403018552613176838351612fad565b9486019492509085019060010161315a565b50909998505050505050505050565b6000806000604084860312156131ac57600080fd5b83356131b78161305d565b9250602084013567ffffffffffffffff8111156131d357600080fd5b6131df86828701612f35565b9497909650939450505050565b60008060008060008060008060e0898b03121561320857600080fd5b606089018a81111561321957600080fd5b8998503567ffffffffffffffff8082111561323357600080fd5b61323f8c838d01612f35565b909950975060808b013591508082111561325857600080fd5b6132648c838d01612ea7565b909750955060a08b013591508082111561327d57600080fd5b5061328a8b828c01612ea7565b999c989b50969995989497949560c00135949350505050565b6000806000806000608086880312156132bb57600080fd5b6132c48661308f565b9450602086013567ffffffffffffffff8111156132e057600080fd5b6132ec88828901612f35565b90955093506132ff9050604087016130ac565b949793965091946060013592915050565b7f4e487b7100000000000000000000000000000000000000000000000000000000600052604160045260246000fd5b604051601f8201601f1916810167ffffffffffffffff8111828210171561336857613368613310565b604052919050565b600067ffffffffffffffff82111561338a5761338a613310565b5060051b60200190565b600082601f8301126133a557600080fd5b813560206133ba6133b583613370565b61333f565b82815260059290921b840181019181810190868411156133d957600080fd5b8286015b848110156133fd5780356133f08161305d565b83529183019183016133dd565b509695505050505050565b803560ff811681146130a757600080fd5b600082601f83011261342a57600080fd5b813567ffffffffffffffff81111561344457613444613310565b6134576020601f19601f8401160161333f565b81815284602083860101111561346c57600080fd5b816020850160208301376000918101602001919091529392505050565b60008060008060008060c087890312156134a257600080fd5b863567ffffffffffffffff808211156134ba57600080fd5b6134c68a838b01613394565b975060208901359150808211156134dc57600080fd5b6134e88a838b01613394565b96506134f660408a01613408565b9550606089013591508082111561350c57600080fd5b6135188a838b01613419565b945061352660808a0161308f565b935060a089013591508082111561353c57600080fd5b5061354989828a01613419565b9150509295509295509295565b600080600083850360a081121561356c57600080fd5b843567ffffffffffffffff8082111561358457600080fd5b61359088838901612f35565b90965094508491506080601f19840112156135aa57600080fd5b604051925060808301915082821081831117156135c9576135c9613310565b506040526135d96020860161308f565b815260408501356135e98161305d565b60208201526135fa606086016130ac565b6040820152608094909401356060850152509093909250565b7f4e487b7100000000000000000000000000000000000000000000000000000000600052603260045260246000fd5b7f4e487b7100000000000000000000000000000000000000000000000000000000600052601160045260246000fd5b60007fffffffffffffffffffffffffffffffffffffffffffffffffffffffffffffffff82036136a2576136a2613642565b5060010190565b6040808252810183905260008460608301825b868110156136ec5782356136cf8161305d565b6001600160a01b03168252602092830192909101906001016136bc565b5080925050506001600160a01b0383166020830152949350505050565b600181811c9082168061371d57607f821691505b602082108103613756577f4e487b7100000000000000000000000000000000000000000000000000000000600052602260045260246000fd5b50919050565b601f8211156105c557600081815260208120601f850160051c810160208610156137835750805b601f850160051c820191505b818110156137a25782815560010161378f565b505050505050565b67ffffffffffffffff8311156137c2576137c2613310565b6137d6836137d08354613709565b8361375c565b6000601f84116001811461382857600085156137f25750838201355b7fffffffffffffffffffffffffffffffffffffffffffffffffffffffffffffffff600387901b1c1916600186901b1783556138a0565b600083815260209020601f19861690835b828110156138595786850135825560209485019460019092019101613839565b5086821015613894577fffffffffffffffffffffffffffffffffffffffffffffffffffffffffffffffff60f88860031b161c19848701351681555b505060018560011b0183555b5050505050565b818352818160208501375060006020828401015260006020601f19601f840116840101905092915050565b60a0815260006138e660a0830185876138a7565b905067ffffffffffffffff83511660208301526001600160a01b03602084015116604083015263ffffffff604084015116606083015260608301516080830152949350505050565b60006020828403121561394057600080fd5b5051919050565b60006020828403121561395957600080fd5b81516122288161305d565b60006001600160a01b038089168352808816602084015267ffffffffffffffff8716604084015280861660608401525060a060808301526139a960a0830184866138a7565b98975050505050505050565b600060208083850312156139c857600080fd5b825167ffffffffffffffff8111156139df57600080fd5b8301601f810185136139f057600080fd5b80516139fe6133b582613370565b81815260059190911b82018301908381019087831115613a1d57600080fd5b928401925b82841015613a44578351613a358161305d565b82529284019290840190613a22565b979650505050505050565b60ff818116838216019081111561220d5761220d613642565b7f4e487b7100000000000000000000000000000000000000000000000000000000600052601260045260246000fd5b600060ff831680613aaa57613aaa613a68565b8060ff84160491505092915050565b7f4e487b7100000000000000000000000000000000000000000000000000000000600052602160045260246000fd5b8183823760009101908152919050565b828152606082602083013760800192915050565b600060208284031215613b1e57600080fd5b81516bffffffffffffffffffffffff8116811461222857600080fd5b808202811582820484141761220d5761220d613642565b8181038181111561220d5761220d613642565b7f4e487b7100000000000000000000000000000000000000000000000000000000600052603160045260246000fd5b63ffffffff818116838216019080821115612c7757612c77613642565b600061012063ffffffff808d1684528b6020850152808b16604085015250806060840152613be08184018a613006565b90508281036080840152613bf48189613006565b905060ff871660a084015282810360c0840152613c118187612fad565b905067ffffffffffffffff851660e0840152828103610100840152613c368185612fad565b9c9b505050505050505050505050565b8082018082111561220d5761220d613642565b600082601f830112613c6a57600080fd5b81356020613c7a6133b583613370565b82815260059290921b84018101918181019086841115613c9957600080fd5b8286015b848110156133fd57803567ffffffffffffffff811115613cbd5760008081fd5b613ccb8986838b0101613419565b845250918301918301613c9d565b600080600060608486031215613cee57600080fd5b833567ffffffffffffffff80821115613d0657600080fd5b818601915086601f830112613d1a57600080fd5b81356020613d2a6133b583613370565b82815260059290921b8401810191818101908a841115613d4957600080fd5b948201945b83861015613d6757853582529482019490820190613d4e565b97505087013592505080821115613d7d57600080fd5b613d8987838801613c59565b93506040860135915080821115613d9f57600080fd5b50613dac86828701613c59565b9150509250925092565b600082613dc557613dc5613a68565b500490565b60006104c08a835260208181850152613de58285018c612fad565b91508382036040850152613df9828b612fad565b92506001600160a01b0391508189166060850152608084018860005b601f811015613e34578151851683529183019190830190600101613e15565b5050505050613e4961046083018660ff169052565b6104808201939093526104a001529695505050505050565b600060208284031215613e7357600080fd5b81516003811061222857600080fd5b60006101208b83526001600160a01b038b16602084015267ffffffffffffffff808b166040850152816060850152613ebc8285018b613006565b91508382036080850152613ed0828a613006565b915060ff881660a085015283820360c0850152613eed8288612fad565b90861660e08501528381036101008501529050613c368185612fad56fea164736f6c6343000815000a",
    "linkReferences": {}
  },
  "methodIdentifiers": {
    "acceptOwnership()": "79ba5097",
    "activateAuthorizedReceiver()": "110254c8",
    "addAuthorizedSenders(address[])": "4dcef404",
    "authorizedReceiverActive()": "4b4fa0c1",
    "deactivateAuthorizedReceiver()": "91bb64eb",
    "deleteNodePublicKey(address)": "26ceabac",
    "estimateCost(uint64,bytes,uint32,uint256)": "d227d245",
    "getAllNodePublicKeys()": "53398987",
    "getAuthorizedSenders()": "2408afaa",
    "getDONPublicKey()": "d328a91e",
    "getRegistry()": "5ab1bd53",
    "getRequiredFee(bytes,(uint64,address,uint32,uint256))": "f1e14a21",
    "getThresholdPublicKey()": "81f1b938",
    "initialize()": "8129fc1c",
    "isAuthorizedSender(address)": "fa00763a",
    "latestConfigDetails()": "81ff7048",
    "latestConfigDigestAndEpoch()": "afcb95d7",
    "owner()": "8da5cb5b",
    "removeAuthorizedSenders(address[])": "03e1bf23",
    "sendRequest(uint64,bytes,uint32)": "28242b04",
    "setConfig(address[],address[],uint8,bytes,uint64,bytes)": "e3d0e712",
    "setDONPublicKey(bytes)": "7f15e166",
    "setNodePublicKey(address,bytes)": "80756031",
    "setRegistry(address)": "a91ee0dc",
    "setThresholdPublicKey(bytes)": "083a5466",
    "transferOwnership(address)": "f2fde38b",
    "transmit(bytes32[3],bytes,bytes32[],bytes32[],bytes32)": "b1dc65a4",
    "transmitters()": "81411834",
    "typeAndVersion()": "181f5a77"
  },
  "id": 141
}