{
  "abi": [
    {
      "inputs": [
        {
          "internalType": "string",
          "name": "_uri",
          "type": "string"
        },
        {
          "internalType": "address",
          "name": "_payment",
          "type": "address"
        },
        {
          "internalType": "address",
          "name": "__union",
          "type": "address"
        }
      ],
      "stateMutability": "nonpayable",
      "type": "constructor"
    },
    {
      "inputs": [
        {
          "internalType": "address",
          "name": "sender",
          "type": "address"
        },
        {
          "internalType": "uint256",
          "name": "balance",
          "type": "uint256"
        },
        {
          "internalType": "uint256",
          "name": "needed",
          "type": "uint256"
        },
        {
          "internalType": "uint256",
          "name": "tokenId",
          "type": "uint256"
        }
      ],
      "name": "ERC1155InsufficientBalance",
      "type": "error"
    },
    {
      "inputs": [
        {
          "internalType": "address",
          "name": "approver",
          "type": "address"
        }
      ],
      "name": "ERC1155InvalidApprover",
      "type": "error"
    },
    {
      "inputs": [
        {
          "internalType": "uint256",
          "name": "idsLength",
          "type": "uint256"
        },
        {
          "internalType": "uint256",
          "name": "valuesLength",
          "type": "uint256"
        }
      ],
      "name": "ERC1155InvalidArrayLength",
      "type": "error"
    },
    {
      "inputs": [
        {
          "internalType": "address",
          "name": "operator",
          "type": "address"
        }
      ],
      "name": "ERC1155InvalidOperator",
      "type": "error"
    },
    {
      "inputs": [
        {
          "internalType": "address",
          "name": "receiver",
          "type": "address"
        }
      ],
      "name": "ERC1155InvalidReceiver",
      "type": "error"
    },
    {
      "inputs": [
        {
          "internalType": "address",
          "name": "sender",
          "type": "address"
        }
      ],
      "name": "ERC1155InvalidSender",
      "type": "error"
    },
    {
      "inputs": [
        {
          "internalType": "address",
          "name": "operator",
          "type": "address"
        },
        {
          "internalType": "address",
          "name": "owner",
          "type": "address"
        }
      ],
      "name": "ERC1155MissingApprovalForAll",
      "type": "error"
    },
    {
      "inputs": [
        {
          "internalType": "address",
          "name": "_sender",
          "type": "address"
        }
      ],
      "name": "NotKYCed",
      "type": "error"
    },
    {
      "inputs": [
        {
          "internalType": "address",
          "name": "_sender",
          "type": "address"
        }
      ],
      "name": "NotTreasuryAddress",
      "type": "error"
    },
    {
      "inputs": [
        {
          "internalType": "address",
          "name": "owner",
          "type": "address"
        }
      ],
      "name": "OwnableInvalidOwner",
      "type": "error"
    },
    {
      "inputs": [
        {
          "internalType": "address",
          "name": "account",
          "type": "address"
        }
      ],
      "name": "OwnableUnauthorizedAccount",
      "type": "error"
    },
    {
      "inputs": [],
      "name": "paymentNotMade",
      "type": "error"
    },
    {
      "inputs": [
        {
          "internalType": "address",
          "name": "_sender",
          "type": "address"
        },
        {
          "internalType": "uint256",
          "name": "_tokenId",
          "type": "uint256"
        },
        {
          "internalType": "uint256",
          "name": "_amount",
          "type": "uint256"
        }
      ],
      "name": "retrievalFailed",
      "type": "error"
    },
    {
      "anonymous": false,
      "inputs": [
        {
          "indexed": true,
          "internalType": "address",
          "name": "account",
          "type": "address"
        },
        {
          "indexed": true,
          "internalType": "address",
          "name": "operator",
          "type": "address"
        },
        {
          "indexed": false,
          "internalType": "bool",
          "name": "approved",
          "type": "bool"
        }
      ],
      "name": "ApprovalForAll",
      "type": "event"
    },
    {
      "anonymous": false,
      "inputs": [
        {
          "indexed": true,
          "internalType": "address",
          "name": "previousOwner",
          "type": "address"
        },
        {
          "indexed": true,
          "internalType": "address",
          "name": "newOwner",
          "type": "address"
        }
      ],
      "name": "OwnershipTransferred",
      "type": "event"
    },
    {
      "anonymous": false,
      "inputs": [
        {
          "indexed": true,
          "internalType": "address",
          "name": "operator",
          "type": "address"
        },
        {
          "indexed": true,
          "internalType": "address",
          "name": "from",
          "type": "address"
        },
        {
          "indexed": true,
          "internalType": "address",
          "name": "to",
          "type": "address"
        },
        {
          "indexed": false,
          "internalType": "uint256[]",
          "name": "ids",
          "type": "uint256[]"
        },
        {
          "indexed": false,
          "internalType": "uint256[]",
          "name": "values",
          "type": "uint256[]"
        }
      ],
      "name": "TransferBatch",
      "type": "event"
    },
    {
      "anonymous": false,
      "inputs": [
        {
          "indexed": true,
          "internalType": "address",
          "name": "operator",
          "type": "address"
        },
        {
          "indexed": true,
          "internalType": "address",
          "name": "from",
          "type": "address"
        },
        {
          "indexed": true,
          "internalType": "address",
          "name": "to",
          "type": "address"
        },
        {
          "indexed": false,
          "internalType": "uint256",
          "name": "id",
          "type": "uint256"
        },
        {
          "indexed": false,
          "internalType": "uint256",
          "name": "value",
          "type": "uint256"
        }
      ],
      "name": "TransferSingle",
      "type": "event"
    },
    {
      "anonymous": false,
      "inputs": [
        {
          "indexed": false,
          "internalType": "string",
          "name": "value",
          "type": "string"
        },
        {
          "indexed": true,
          "internalType": "uint256",
          "name": "id",
          "type": "uint256"
        }
      ],
      "name": "URI",
      "type": "event"
    },
    {
      "anonymous": false,
      "inputs": [
        {
          "indexed": true,
          "internalType": "address",
          "name": "_sender",
          "type": "address"
        },
        {
          "indexed": true,
          "internalType": "uint256",
          "name": "_tokenId",
          "type": "uint256"
        },
        {
          "indexed": true,
          "internalType": "uint256",
          "name": "_amount",
          "type": "uint256"
        }
      ],
      "name": "primarySale",
      "type": "event"
    },
    {
      "anonymous": false,
      "inputs": [
        {
          "indexed": true,
          "internalType": "uint256",
          "name": "_tokenId",
          "type": "uint256"
        },
        {
          "indexed": true,
          "internalType": "uint256",
          "name": "_units",
          "type": "uint256"
        },
        {
          "indexed": false,
          "internalType": "uint256",
          "name": "_price",
          "type": "uint256"
        }
      ],
      "name": "publicOrderCreated",
      "type": "event"
    },
    {
      "anonymous": false,
      "inputs": [
        {
          "indexed": false,
          "internalType": "address",
          "name": "_sender",
          "type": "address"
        },
        {
          "indexed": false,
          "internalType": "uint256",
          "name": "_tokenId",
          "type": "uint256"
        },
        {
          "indexed": false,
          "internalType": "uint256",
          "name": "_amount",
          "type": "uint256"
        }
      ],
      "name": "retrievalsucceed",
      "type": "event"
    },
    {
      "anonymous": false,
      "inputs": [
        {
          "indexed": true,
          "internalType": "address",
          "name": "_seller",
          "type": "address"
        },
        {
          "indexed": true,
          "internalType": "uint256",
          "name": "_tokenId",
          "type": "uint256"
        },
        {
          "indexed": true,
          "internalType": "uint256",
          "name": "_units",
          "type": "uint256"
        },
        {
          "indexed": false,
          "internalType": "uint256",
          "name": "_price",
          "type": "uint256"
        }
      ],
      "name": "secondaryForSale",
      "type": "event"
    },
    {
      "anonymous": false,
      "inputs": [
        {
          "indexed": true,
          "internalType": "address",
          "name": "_seller",
          "type": "address"
        },
        {
          "indexed": true,
          "internalType": "address",
          "name": "_buyer",
          "type": "address"
        },
        {
          "indexed": true,
          "internalType": "uint256",
          "name": "_units",
          "type": "uint256"
        },
        {
          "indexed": false,
          "internalType": "uint256",
          "name": "_price",
          "type": "uint256"
        },
        {
          "indexed": false,
          "internalType": "uint256",
          "name": "_tokenId",
          "type": "uint256"
        }
      ],
      "name": "secondarySold",
      "type": "event"
    },
    {
      "inputs": [
        {
          "internalType": "address",
          "name": "_KYCed",
          "type": "address"
        }
      ],
      "name": "KYC",
      "outputs": [],
      "stateMutability": "nonpayable",
      "type": "function"
    },
    {
      "inputs": [
        {
          "internalType": "address",
          "name": "account",
          "type": "address"
        },
        {
          "internalType": "uint256",
          "name": "id",
          "type": "uint256"
        }
      ],
      "name": "balanceOf",
      "outputs": [
        {
          "internalType": "uint256",
          "name": "",
          "type": "uint256"
        }
      ],
      "stateMutability": "view",
      "type": "function"
    },
    {
      "inputs": [
        {
          "internalType": "address[]",
          "name": "accounts",
          "type": "address[]"
        },
        {
          "internalType": "uint256[]",
          "name": "ids",
          "type": "uint256[]"
        }
      ],
      "name": "balanceOfBatch",
      "outputs": [
        {
          "internalType": "uint256[]",
          "name": "",
          "type": "uint256[]"
        }
      ],
      "stateMutability": "view",
      "type": "function"
    },
    {
      "inputs": [
        {
          "internalType": "address",
          "name": "_seller",
          "type": "address"
        },
        {
          "internalType": "uint256",
          "name": "_tokenId",
          "type": "uint256"
        },
        {
          "internalType": "uint256",
          "name": "_units",
          "type": "uint256"
        }
      ],
      "name": "buySecondary",
      "outputs": [],
      "stateMutability": "nonpayable",
      "type": "function"
    },
    {
      "inputs": [
        {
          "internalType": "address",
          "name": "",
          "type": "address"
        }
      ],
      "name": "buyer",
      "outputs": [
        {
          "internalType": "bool",
          "name": "",
          "type": "bool"
        }
      ],
      "stateMutability": "view",
      "type": "function"
    },
    {
      "inputs": [
        {
          "internalType": "uint256",
          "name": "_tokenId",
          "type": "uint256"
        }
      ],
      "name": "getOpenBuy",
      "outputs": [
        {
          "internalType": "uint256",
          "name": "",
          "type": "uint256"
        },
        {
          "internalType": "uint256",
          "name": "",
          "type": "uint256"
        }
      ],
      "stateMutability": "view",
      "type": "function"
    },
    {
      "inputs": [
        {
          "internalType": "uint256",
          "name": "_tokenId",
          "type": "uint256"
        },
        {
          "internalType": "address",
          "name": "_seller",
          "type": "address"
        }
      ],
      "name": "getSecondaryMarket",
      "outputs": [
        {
          "internalType": "uint256",
          "name": "",
          "type": "uint256"
        },
        {
          "internalType": "uint256",
          "name": "",
          "type": "uint256"
        }
      ],
      "stateMutability": "view",
      "type": "function"
    },
    {
      "inputs": [
        {
          "internalType": "address",
          "name": "account",
          "type": "address"
        },
        {
          "internalType": "address",
          "name": "operator",
          "type": "address"
        }
      ],
      "name": "isApprovedForAll",
      "outputs": [
        {
          "internalType": "bool",
          "name": "",
          "type": "bool"
        }
      ],
      "stateMutability": "view",
      "type": "function"
    },
    {
      "inputs": [
        {
          "internalType": "address",
          "name": "",
          "type": "address"
        },
        {
          "internalType": "address",
          "name": "",
          "type": "address"
        },
        {
          "internalType": "uint256[]",
          "name": "",
          "type": "uint256[]"
        },
        {
          "internalType": "uint256[]",
          "name": "",
          "type": "uint256[]"
        },
        {
          "internalType": "bytes",
          "name": "",
          "type": "bytes"
        }
      ],
      "name": "onERC1155BatchReceived",
      "outputs": [
        {
          "internalType": "bytes4",
          "name": "",
          "type": "bytes4"
        }
      ],
      "stateMutability": "nonpayable",
      "type": "function"
    },
    {
      "inputs": [
        {
          "internalType": "address",
          "name": "",
          "type": "address"
        },
        {
          "internalType": "address",
          "name": "",
          "type": "address"
        },
        {
          "internalType": "uint256",
          "name": "",
          "type": "uint256"
        },
        {
          "internalType": "uint256",
          "name": "",
          "type": "uint256"
        },
        {
          "internalType": "bytes",
          "name": "",
          "type": "bytes"
        }
      ],
      "name": "onERC1155Received",
      "outputs": [
        {
          "internalType": "bytes4",
          "name": "",
          "type": "bytes4"
        }
      ],
      "stateMutability": "nonpayable",
      "type": "function"
    },
    {
      "inputs": [
        {
          "internalType": "address",
          "name": "operator",
          "type": "address"
        },
        {
          "internalType": "address",
          "name": "from",
          "type": "address"
        },
        {
          "internalType": "uint256",
          "name": "tokenId",
          "type": "uint256"
        },
        {
          "internalType": "bytes",
          "name": "data",
          "type": "bytes"
        }
      ],
      "name": "onERC721Received",
      "outputs": [
        {
          "internalType": "bytes4",
          "name": "",
          "type": "bytes4"
        }
      ],
      "stateMutability": "nonpayable",
      "type": "function"
    },
    {
      "inputs": [
        {
          "internalType": "uint256",
          "name": "",
          "type": "uint256"
        }
      ],
      "name": "openBuy",
      "outputs": [
        {
          "internalType": "uint256",
          "name": "_price",
          "type": "uint256"
        },
        {
          "internalType": "uint256",
          "name": "_avlb",
          "type": "uint256"
        }
      ],
      "stateMutability": "view",
      "type": "function"
    },
    {
      "inputs": [],
      "name": "owner",
      "outputs": [
        {
          "internalType": "address",
          "name": "",
          "type": "address"
        }
      ],
      "stateMutability": "view",
      "type": "function"
    },
    {
      "inputs": [
        {
          "internalType": "uint256",
          "name": "_tokenId",
          "type": "uint256"
        },
        {
          "internalType": "uint256",
          "name": "_amount",
          "type": "uint256"
        }
      ],
      "name": "purchasePrimary",
      "outputs": [],
      "stateMutability": "nonpayable",
      "type": "function"
    },
    {
      "inputs": [],
      "name": "renounceOwnership",
      "outputs": [],
      "stateMutability": "nonpayable",
      "type": "function"
    },
    {
      "inputs": [
        {
          "internalType": "uint256",
          "name": "_tokenId",
          "type": "uint256"
        },
        {
          "internalType": "uint256",
          "name": "_amount",
          "type": "uint256"
        }
      ],
      "name": "retrieveInvestment",
      "outputs": [],
      "stateMutability": "nonpayable",
      "type": "function"
    },
    {
      "inputs": [
        {
          "internalType": "address",
          "name": "from",
          "type": "address"
        },
        {
          "internalType": "address",
          "name": "to",
          "type": "address"
        },
        {
          "internalType": "uint256[]",
          "name": "ids",
          "type": "uint256[]"
        },
        {
          "internalType": "uint256[]",
          "name": "values",
          "type": "uint256[]"
        },
        {
          "internalType": "bytes",
          "name": "data",
          "type": "bytes"
        }
      ],
      "name": "safeBatchTransferFrom",
      "outputs": [],
      "stateMutability": "nonpayable",
      "type": "function"
    },
    {
      "inputs": [
        {
          "internalType": "address",
          "name": "from",
          "type": "address"
        },
        {
          "internalType": "address",
          "name": "to",
          "type": "address"
        },
        {
          "internalType": "uint256",
          "name": "id",
          "type": "uint256"
        },
        {
          "internalType": "uint256",
          "name": "value",
          "type": "uint256"
        },
        {
          "internalType": "bytes",
          "name": "data",
          "type": "bytes"
        }
      ],
      "name": "safeTransferFrom",
      "outputs": [],
      "stateMutability": "nonpayable",
      "type": "function"
    },
    {
      "inputs": [
        {
          "internalType": "uint256",
          "name": "",
          "type": "uint256"
        },
        {
          "internalType": "address",
          "name": "",
          "type": "address"
        }
      ],
      "name": "secondaryMarket",
      "outputs": [
        {
          "internalType": "uint256",
          "name": "_price",
          "type": "uint256"
        },
        {
          "internalType": "uint256",
          "name": "_avlb",
          "type": "uint256"
        }
      ],
      "stateMutability": "view",
      "type": "function"
    },
    {
      "inputs": [
        {
          "internalType": "uint256",
          "name": "_tokenId",
          "type": "uint256"
        },
        {
          "internalType": "uint256",
          "name": "_units",
          "type": "uint256"
        },
        {
          "internalType": "uint256",
          "name": "_price",
          "type": "uint256"
        }
      ],
      "name": "sellMyUnits",
      "outputs": [],
      "stateMutability": "nonpayable",
      "type": "function"
    },
    {
      "inputs": [
        {
          "internalType": "address",
          "name": "operator",
          "type": "address"
        },
        {
          "internalType": "bool",
          "name": "approved",
          "type": "bool"
        }
      ],
      "name": "setApprovalForAll",
      "outputs": [],
      "stateMutability": "nonpayable",
      "type": "function"
    },
    {
      "inputs": [
        {
          "internalType": "address",
          "name": "_addr",
          "type": "address"
        }
      ],
      "name": "setTreasury",
      "outputs": [],
      "stateMutability": "nonpayable",
      "type": "function"
    },
    {
      "inputs": [
        {
          "internalType": "bytes4",
          "name": "interfaceId",
          "type": "bytes4"
        }
      ],
      "name": "supportsInterface",
      "outputs": [
        {
          "internalType": "bool",
          "name": "",
          "type": "bool"
        }
      ],
      "stateMutability": "view",
      "type": "function"
    },
    {
      "inputs": [
        {
          "internalType": "address",
          "name": "newOwner",
          "type": "address"
        }
      ],
      "name": "transferOwnership",
      "outputs": [],
      "stateMutability": "nonpayable",
      "type": "function"
    },
    {
      "inputs": [
        {
          "internalType": "uint256",
          "name": "",
          "type": "uint256"
        }
      ],
      "name": "uri",
      "outputs": [
        {
          "internalType": "string",
          "name": "",
          "type": "string"
        }
      ],
      "stateMutability": "view",
      "type": "function"
    }
  ],
  "bytecode": {
    "object": "0x60806040523480156200001157600080fd5b5060405162002edf38038062002edf83398101604081905262000034916200016b565b8233806200005c57604051631e4fbdf760e01b81526000600482015260240160405180910390fd5b6200006781620000d6565b50620000738162000126565b50600580546001600160a01b038085166001600160a01b0319928316179092556006805492841692909116919091179055620000cd336001600160a01b03166000908152600960205260409020805460ff19166001179055565b505050620003c0565b600080546001600160a01b038381166001600160a01b0319831681178455604051919092169283917f8be0079c531659141344cd1fd0a4f28419497f9722a3daafe3b4186f6b6457e09190a35050565b6003620001348282620002f4565b5050565b634e487b7160e01b600052604160045260246000fd5b80516001600160a01b03811681146200016657600080fd5b919050565b6000806000606084860312156200018157600080fd5b83516001600160401b03808211156200019957600080fd5b818601915086601f830112620001ae57600080fd5b815181811115620001c357620001c362000138565b604051601f8201601f19908116603f01168101908382118183101715620001ee57620001ee62000138565b816040528281526020935089848487010111156200020b57600080fd5b600091505b828210156200022f578482018401518183018501529083019062000210565b60008484830101528097505050506200024a8187016200014e565b935050506200025c604085016200014e565b90509250925092565b600181811c908216806200027a57607f821691505b6020821081036200029b57634e487b7160e01b600052602260045260246000fd5b50919050565b601f821115620002ef57600081815260208120601f850160051c81016020861015620002ca5750805b601f850160051c820191505b81811015620002eb57828155600101620002d6565b5050505b505050565b81516001600160401b0381111562000310576200031062000138565b620003288162000321845462000265565b84620002a1565b602080601f831160018114620003605760008415620003475750858301515b600019600386901b1c1916600185901b178555620002eb565b600085815260208120601f198616915b82811015620003915788860151825594840194600190910190840162000370565b5085821015620003b05787850151600019600388901b60f8161c191681555b5050505050600190811b01905550565b612b0f80620003d06000396000f3fe608060405234801561001057600080fd5b50600436106101a25760003560e01c80638da5cb5b116100ee578063d98499f311610097578063f23a6e6111610071578063f23a6e61146104f9578063f242432a14610531578063f2fde38b14610544578063feb8dc7c1461055757600080fd5b8063d98499f31461044e578063e985e9c514610475578063f0f44260146104b157600080fd5b8063bc197c81116100c8578063bc197c81146103b3578063bd3b1046146103eb578063d0a198521461043b57600080fd5b80638da5cb5b14610362578063a22cb4651461037d578063b77482081461039057600080fd5b80633c4ce768116101505780635ad2dfed1161012a5780635ad2dfed146102eb5780635bc4dacd1461031d578063715018a61461035a57600080fd5b80633c4ce768146102a55780633efcb0f5146102b85780634e1273f4146102cb57600080fd5b80630e89341c116101815780630e89341c1461022c578063150b7a021461024c5780632eb2c2d61461029057600080fd5b8062fdd58e146101a757806301ffc9a7146101cd5780630e372fc5146101f0575b600080fd5b6101ba6101b5366004612213565b61056a565b6040519081526020015b60405180910390f35b6101e06101db36600461226b565b610594565b60405190151581526020016101c4565b6102176101fe36600461228f565b6007602052600090815260409020805460019091015482565b604080519283526020830191909152016101c4565b61023f61023a36600461228f565b610682565b6040516101c4919061230c565b61025f61025a36600461231f565b610716565b6040517fffffffff0000000000000000000000000000000000000000000000000000000090911681526020016101c4565b6102a361029e366004612555565b61074c565b005b6102a36102b33660046125ff565b6107f0565b6102a36102c636600461262b565b610986565b6102de6102d936600461265e565b610e5c565b6040516101c49190612759565b6102176102f936600461276c565b60086020908152600092835260408084209091529082529020805460019091015482565b61021761032b36600461276c565b60009182526008602090815260408084206001600160a01b039390931684529190529020600181015490549091565b6102a3610f4a565b6000546040516001600160a01b0390911681526020016101c4565b6102a361038b3660046127a6565b610f5e565b6101e061039e3660046127dd565b60096020526000908152604090205460ff1681565b61025f6103c1366004612555565b7fbc197c810000000000000000000000000000000000000000000000000000000095945050505050565b6102a36103f93660046127dd565b6001600160a01b0316600090815260096020526040902080547fffffffffffffffffffffffffffffffffffffffffffffffffffffffffffffff00166001179055565b6102a36104493660046127f8565b610f6d565b61021761045c36600461228f565b6000908152600760205260409020600181015490549091565b6101e061048336600461281a565b6001600160a01b03918216600090815260026020908152604080832093909416825291909152205460ff1690565b6102a36104bf3660046127dd565b600480547fffffffffffffffffffffffff0000000000000000000000000000000000000000166001600160a01b0392909216919091179055565b61025f610507366004612844565b7ff23a6e610000000000000000000000000000000000000000000000000000000095945050505050565b6102a361053f366004612844565b6112ee565b6102a36105523660046127dd565b611385565b6102a36105653660046127f8565b6113dc565b60008181526001602090815260408083206001600160a01b03861684529091529020545b92915050565b60007fffffffff0000000000000000000000000000000000000000000000000000000082167fd9b67a2600000000000000000000000000000000000000000000000000000000148061062757507fffffffff0000000000000000000000000000000000000000000000000000000082167f0e89341c00000000000000000000000000000000000000000000000000000000145b8061067357507fffffffff0000000000000000000000000000000000000000000000000000000082167f4e2312e000000000000000000000000000000000000000000000000000000000145b8061058e575061058e8261161c565b606060038054610691906128a9565b80601f01602080910402602001604051908101604052809291908181526020018280546106bd906128a9565b801561070a5780601f106106df5761010080835404028352916020019161070a565b820191906000526020600020905b8154815290600101906020018083116106ed57829003601f168201915b50505050509050919050565b600061072184611672565b507f150b7a020000000000000000000000000000000000000000000000000000000095945050505050565b336001600160a01b038616811480159061078c57506001600160a01b0380871660009081526002602090815260408083209385168352929052205460ff16155b156107db576040517fe237d9220000000000000000000000000000000000000000000000000000000081526001600160a01b038083166004830152871660248201526044015b60405180910390fd5b6107e88686868686611781565b505050505050565b816107fb338561056a565b1015610863576040517f08c379a000000000000000000000000000000000000000000000000000000000815260206004820181905260248201527f6d65726361646f41626572746f203a204e6f7420656e6f75676820756e69747360448201526064016107d2565b33600090815260026020908152604080832030845290915290205460ff1661090d576040517f08c379a000000000000000000000000000000000000000000000000000000000815260206004820152602960248201527f6d65726361646f41626572746f203a204e6f7420617070726f76656420666f7260448201527f20636f6e7472616374000000000000000000000000000000000000000000000060648201526084016107d2565b604080518082018252828152602080820185815260008781526008835284812033808352935284902092518355516001909201919091559051839185917f7aa393e2de6e760269612f345e5741eb8713b054ad41e6f84de83f3ee5edd00c906109799086815260200190565b60405180910390a4505050565b60008281526008602090815260408083206001600160a01b0387168452909152902060010154811115610a3b576040517f08c379a000000000000000000000000000000000000000000000000000000000815260206004820152603160248201527f6d65726361646f41626572746f203a20547279696e6720746f20627579206d6f60448201527f7265207468616e20617661696c61626c6500000000000000000000000000000060648201526084016107d2565b60008281526008602090815260408083206001600160a01b0387168452909152812054610a6990839061292b565b6005546040517f70a0823100000000000000000000000000000000000000000000000000000000815233600482015291925082916001600160a01b03909116906370a0823190602401602060405180830381865afa158015610acf573d6000803e3d6000fd5b505050506040513d601f19601f82011682018060405250810190610af39190612942565b1015610b5b576040517f08c379a000000000000000000000000000000000000000000000000000000000815260206004820181905260248201527f6d65726361646f41626572746f203a204e6f7420656e6f756768206d6f6e657960448201526064016107d2565b6005546040517fdd62ed3e00000000000000000000000000000000000000000000000000000000815233600482015230602482015282916001600160a01b03169063dd62ed3e90604401602060405180830381865afa158015610bc2573d6000803e3d6000fd5b505050506040513d601f19601f82011682018060405250810190610be69190612942565b1015610c73576040517f08c379a0000000000000000000000000000000000000000000000000000000008152602060048201526024808201527f6d65726361646f41626572746f203a20416c6c6f77616e6365206e6f7420656e60448201527f6f7567680000000000000000000000000000000000000000000000000000000060648201526084016107d2565b6001600160a01b038416600090815260026020908152604080832030845290915290205460ff16610d26576040517f08c379a000000000000000000000000000000000000000000000000000000000815260206004820152602b60248201527f6d65726361646f41626572746f203a2053656c656c72204e6f7420617070726f60448201527f76656420666f7220616c6c00000000000000000000000000000000000000000060648201526084016107d2565b6005546040517f23b872dd0000000000000000000000000000000000000000000000000000000081523360048201526001600160a01b03868116602483015260448201849052909116906323b872dd906064016020604051808303816000875af1158015610d98573d6000803e3d6000fd5b505050506040513d601f19601f82011682018060405250810190610dbc919061295b565b610df2576040517fc4bd428100000000000000000000000000000000000000000000000000000000815260040160405180910390fd5b610e0e843385856040518060200160405280600081525061181b565b6040805182815260208101859052839133916001600160a01b038816917f2c939b612f6e497b4f3e7beac4db3de1aa2fdaa818c78408dfd361db5b195dcf910160405180910390a450505050565b60608151835114610ea657815183516040517f5b059991000000000000000000000000000000000000000000000000000000008152600481019290925260248201526044016107d2565b6000835167ffffffffffffffff811115610ec257610ec26123ba565b604051908082528060200260200182016040528015610eeb578160200160208202803683370190505b50905060005b8451811015610f4257602080820286010151610f159060208084028701015161056a565b828281518110610f2757610f27612978565b6020908102919091010152610f3b816129a7565b9050610ef1565b509392505050565b610f526118dc565b610f5c6000611922565b565b610f6933838361198a565b5050565b80610f78308461056a565b1015611006576040517f08c379a000000000000000000000000000000000000000000000000000000000815260206004820152602360248201527f6d65726361646f41626572746f203a204e6f7420656e6f75676820617661696c60448201527f626c65000000000000000000000000000000000000000000000000000000000060648201526084016107d2565b600480546040517fb176c59d0000000000000000000000000000000000000000000000000000000081529182018490526000916001600160a01b039091169063b176c59d906024016040805180830381865afa15801561106a573d6000803e3d6000fd5b505050506040513d601f19601f8201168201806040525081019061108e91906129df565b50905061109b818361292b565b6005546040517fdd62ed3e0000000000000000000000000000000000000000000000000000000081523360048201523060248201526001600160a01b039091169063dd62ed3e90604401602060405180830381865afa158015611102573d6000803e3d6000fd5b505050506040513d601f19601f820116820180604052508101906111269190612942565b10156111b3576040517f08c379a0000000000000000000000000000000000000000000000000000000008152602060048201526024808201527f6d65726361646f41626572746f203a20416c6c6f77616e6365206e6f7420656e60448201527f6f7567680000000000000000000000000000000000000000000000000000000060648201526084016107d2565b6005546006546001600160a01b03918216916323b872dd913391166111d8858761292b565b6040517fffffffff0000000000000000000000000000000000000000000000000000000060e086901b1681526001600160a01b03938416600482015292909116602483015260448201526064016020604051808303816000875af1158015611244573d6000803e3d6000fd5b505050506040513d601f19601f82011682018060405250810190611268919061295b565b61129e576040517fc4bd428100000000000000000000000000000000000000000000000000000000815260040160405180910390fd5b6112ba303385856040518060200160405280600081525061181b565b6040518290849033907f578e1297d3ef1c181a1ca672374ed2a4472844362b1dde5923fa2a2c12347e4990600090a4505050565b336001600160a01b038616811480159061132e57506001600160a01b0380871660009081526002602090815260408083209385168352929052205460ff16155b15611378576040517fe237d9220000000000000000000000000000000000000000000000000000000081526001600160a01b038083166004830152871660248201526044016107d2565b6107e8868686868661181b565b61138d6118dc565b6001600160a01b0381166113d0576040517f1e4fbdf7000000000000000000000000000000000000000000000000000000008152600060048201526024016107d2565b6113d981611922565b50565b806113e7338461056a565b101561144f576040517f08c379a000000000000000000000000000000000000000000000000000000000815260206004820181905260248201527f6d65726361646f41626572746f203a204e6f7420656e6f75676820756e69747360448201526064016107d2565b33600090815260026020908152604080832030845290915290205460ff166114f9576040517f08c379a000000000000000000000000000000000000000000000000000000000815260206004820152602960248201527f6d65726361646f41626572746f203a204e6f7420617070726f76656420666f7260448201527f20636f6e7472616374000000000000000000000000000000000000000000000060648201526084016107d2565b611504338383611a50565b600480546040517fd6ceaa70000000000000000000000000000000000000000000000000000000008152918201849052602482018390526001600160a01b03169063d6ceaa70906044016020604051808303816000875af115801561156d573d6000803e3d6000fd5b505050506040513d601f19601f82011682018060405250810190611591919061295b565b6115d7576040517f16c63bb300000000000000000000000000000000000000000000000000000000815233600482015260248101839052604481018290526064016107d2565b60408051338152602081018490529081018290527f5fee19f5bf8eb8b0af1645ea5d38435af21e550792658dd02025644dc1373ebf9060600160405180910390a15050565b60007fffffffff0000000000000000000000000000000000000000000000000000000082167f4e2312e000000000000000000000000000000000000000000000000000000000148061058e575061058e82611ad2565b600480546040517fb176c59d00000000000000000000000000000000000000000000000000000000815291820183905260009182916001600160a01b03169063b176c59d906024016040805180830381865afa1580156116d6573d6000803e3d6000fd5b505050506040513d601f19601f820116820180604052508101906116fa91906129df565b9150915061171930848360405180602001604052806000815250611bb5565b604080518082018252838152602080820184815260008781526007835284902092518355516001909201919091559051838152829185917f6846e129440de8eadb5860e065ac3b1f9d2108177bae63a5b76ec46c409ecfa091015b60405180910390a3505050565b6001600160a01b0384166117c4576040517f57f447ce000000000000000000000000000000000000000000000000000000008152600060048201526024016107d2565b6001600160a01b038516611807576040517f01a83514000000000000000000000000000000000000000000000000000000008152600060048201526024016107d2565b6118148585858585611c27565b5050505050565b6001600160a01b03841661185e576040517f57f447ce000000000000000000000000000000000000000000000000000000008152600060048201526024016107d2565b6001600160a01b0385166118a1576040517f01a83514000000000000000000000000000000000000000000000000000000008152600060048201526024016107d2565b604080516001808252602082018690528183019081526060820185905260808201909252906118d38787848487611c27565b50505050505050565b6000546001600160a01b03163314610f5c576040517f118cdaa70000000000000000000000000000000000000000000000000000000081523360048201526024016107d2565b600080546001600160a01b038381167fffffffffffffffffffffffff0000000000000000000000000000000000000000831681178455604051919092169283917f8be0079c531659141344cd1fd0a4f28419497f9722a3daafe3b4186f6b6457e09190a35050565b6001600160a01b0382166119cd576040517fced3e100000000000000000000000000000000000000000000000000000000008152600060048201526024016107d2565b6001600160a01b0383811660008181526002602090815260408083209487168084529482529182902080547fffffffffffffffffffffffffffffffffffffffffffffffffffffffffffffff001686151590811790915591519182527f17307eab39ab6107e8899845ad3d59bd9653f200f220920489ca2b5937696c319101611774565b6001600160a01b038316611a93576040517f01a83514000000000000000000000000000000000000000000000000000000008152600060048201526024016107d2565b604080516001808252602082018590528183019081526060820184905260a0820190925260006080820181815291929161181491879185908590611c27565b60007fffffffff0000000000000000000000000000000000000000000000000000000082167fd9b67a26000000000000000000000000000000000000000000000000000000001480611b6557507fffffffff0000000000000000000000000000000000000000000000000000000082167f0e89341c00000000000000000000000000000000000000000000000000000000145b8061058e57507f01ffc9a7000000000000000000000000000000000000000000000000000000007fffffffff0000000000000000000000000000000000000000000000000000000083161461058e565b6001600160a01b038416611bf8576040517f57f447ce000000000000000000000000000000000000000000000000000000008152600060048201526024016107d2565b604080516001808252602082018690528183019081526060820185905260808201909252906107e86000878484875b611c3385858585611c7a565b6001600160a01b038416156118145782513390600103611c6c5760208481015190840151611c65838989858589611ecf565b50506107e8565b6107e881878787878761208d565b8051825114611cc257815181516040517f5b059991000000000000000000000000000000000000000000000000000000008152600481019290925260248201526044016107d2565b3360005b8351811015611df0576020818102858101820151908501909101516001600160a01b03881615611d965760008281526001602090815260408083206001600160a01b038c16845290915290205481811015611d6d576040517f03dee4c50000000000000000000000000000000000000000000000000000000081526001600160a01b038a1660048201526024810182905260448101839052606481018490526084016107d2565b60008381526001602090815260408083206001600160a01b038d16845290915290209082900390555b6001600160a01b03871615611ddd5760008281526001602090815260408083206001600160a01b038b16845290915281208054839290611dd7908490612a03565b90915550505b505080611de9906129a7565b9050611cc6565b508251600103611e715760208301516000906020840151909150856001600160a01b0316876001600160a01b0316846001600160a01b03167fc3d58168c5ae7397731d063d5bbf3d657854427343f4c083240f7aacaa2d0f628585604051611e62929190918252602082015260400190565b60405180910390a45050611814565b836001600160a01b0316856001600160a01b0316826001600160a01b03167f4a39dc06d4c0dbc64b70af90fd698a233a518aa5d07e595d983b8c0526c8f7fb8686604051611ec0929190612a16565b60405180910390a45050505050565b6001600160a01b0384163b156107e8576040517ff23a6e610000000000000000000000000000000000000000000000000000000081526001600160a01b0385169063f23a6e6190611f2c9089908990889088908890600401612a44565b6020604051808303816000875af1925050508015611f85575060408051601f3d9081017fffffffffffffffffffffffffffffffffffffffffffffffffffffffffffffffe0168201909252611f8291810190612a87565b60015b612007573d808015611fb3576040519150601f19603f3d011682016040523d82523d6000602084013e611fb8565b606091505b508051600003611fff576040517f57f447ce0000000000000000000000000000000000000000000000000000000081526001600160a01b03861660048201526024016107d2565b805181602001fd5b7fffffffff0000000000000000000000000000000000000000000000000000000081167ff23a6e6100000000000000000000000000000000000000000000000000000000146118d3576040517f57f447ce0000000000000000000000000000000000000000000000000000000081526001600160a01b03861660048201526024016107d2565b6001600160a01b0384163b156107e8576040517fbc197c810000000000000000000000000000000000000000000000000000000081526001600160a01b0385169063bc197c81906120ea9089908990889088908890600401612aa4565b6020604051808303816000875af1925050508015612143575060408051601f3d9081017fffffffffffffffffffffffffffffffffffffffffffffffffffffffffffffffe016820190925261214091810190612a87565b60015b612171573d808015611fb3576040519150601f19603f3d011682016040523d82523d6000602084013e611fb8565b7fffffffff0000000000000000000000000000000000000000000000000000000081167fbc197c8100000000000000000000000000000000000000000000000000000000146118d3576040517f57f447ce0000000000000000000000000000000000000000000000000000000081526001600160a01b03861660048201526024016107d2565b80356001600160a01b038116811461220e57600080fd5b919050565b6000806040838503121561222657600080fd5b61222f836121f7565b946020939093013593505050565b7fffffffff00000000000000000000000000000000000000000000000000000000811681146113d957600080fd5b60006020828403121561227d57600080fd5b81356122888161223d565b9392505050565b6000602082840312156122a157600080fd5b5035919050565b6000815180845260005b818110156122ce576020818501810151868301820152016122b2565b5060006020828601015260207fffffffffffffffffffffffffffffffffffffffffffffffffffffffffffffffe0601f83011685010191505092915050565b60208152600061228860208301846122a8565b60008060008060006080868803121561233757600080fd5b612340866121f7565b945061234e602087016121f7565b935060408601359250606086013567ffffffffffffffff8082111561237257600080fd5b818801915088601f83011261238657600080fd5b81358181111561239557600080fd5b8960208285010111156123a757600080fd5b9699959850939650602001949392505050565b7f4e487b7100000000000000000000000000000000000000000000000000000000600052604160045260246000fd5b604051601f82017fffffffffffffffffffffffffffffffffffffffffffffffffffffffffffffffe016810167ffffffffffffffff81118282101715612430576124306123ba565b604052919050565b600067ffffffffffffffff821115612452576124526123ba565b5060051b60200190565b600082601f83011261246d57600080fd5b8135602061248261247d83612438565b6123e9565b82815260059290921b840181019181810190868411156124a157600080fd5b8286015b848110156124bc57803583529183019183016124a5565b509695505050505050565b600082601f8301126124d857600080fd5b813567ffffffffffffffff8111156124f2576124f26123ba565b61252360207fffffffffffffffffffffffffffffffffffffffffffffffffffffffffffffffe0601f840116016123e9565b81815284602083860101111561253857600080fd5b816020850160208301376000918101602001919091529392505050565b600080600080600060a0868803121561256d57600080fd5b612576866121f7565b9450612584602087016121f7565b9350604086013567ffffffffffffffff808211156125a157600080fd5b6125ad89838a0161245c565b945060608801359150808211156125c357600080fd5b6125cf89838a0161245c565b935060808801359150808211156125e557600080fd5b506125f2888289016124c7565b9150509295509295909350565b60008060006060848603121561261457600080fd5b505081359360208301359350604090920135919050565b60008060006060848603121561264057600080fd5b612649846121f7565b95602085013595506040909401359392505050565b6000806040838503121561267157600080fd5b823567ffffffffffffffff8082111561268957600080fd5b818501915085601f83011261269d57600080fd5b813560206126ad61247d83612438565b82815260059290921b840181019181810190898411156126cc57600080fd5b948201945b838610156126f1576126e2866121f7565b825294820194908201906126d1565b9650508601359250508082111561270757600080fd5b506127148582860161245c565b9150509250929050565b600081518084526020808501945080840160005b8381101561274e57815187529582019590820190600101612732565b509495945050505050565b602081526000612288602083018461271e565b6000806040838503121561277f57600080fd5b8235915061278f602084016121f7565b90509250929050565b80151581146113d957600080fd5b600080604083850312156127b957600080fd5b6127c2836121f7565b915060208301356127d281612798565b809150509250929050565b6000602082840312156127ef57600080fd5b612288826121f7565b6000806040838503121561280b57600080fd5b50508035926020909101359150565b6000806040838503121561282d57600080fd5b612836836121f7565b915061278f602084016121f7565b600080600080600060a0868803121561285c57600080fd5b612865866121f7565b9450612873602087016121f7565b93506040860135925060608601359150608086013567ffffffffffffffff81111561289d57600080fd5b6125f2888289016124c7565b600181811c908216806128bd57607f821691505b6020821081036128f6577f4e487b7100000000000000000000000000000000000000000000000000000000600052602260045260246000fd5b50919050565b7f4e487b7100000000000000000000000000000000000000000000000000000000600052601160045260246000fd5b808202811582820484141761058e5761058e6128fc565b60006020828403121561295457600080fd5b5051919050565b60006020828403121561296d57600080fd5b815161228881612798565b7f4e487b7100000000000000000000000000000000000000000000000000000000600052603260045260246000fd5b60007fffffffffffffffffffffffffffffffffffffffffffffffffffffffffffffffff82036129d8576129d86128fc565b5060010190565b600080604083850312156129f257600080fd5b505080516020909101519092909150565b8082018082111561058e5761058e6128fc565b604081526000612a29604083018561271e565b8281036020840152612a3b818561271e565b95945050505050565b60006001600160a01b03808816835280871660208401525084604083015283606083015260a06080830152612a7c60a08301846122a8565b979650505050505050565b600060208284031215612a9957600080fd5b81516122888161223d565b60006001600160a01b03808816835280871660208401525060a06040830152612ad060a083018661271e565b8281036060840152612ae2818661271e565b90508281036080840152612af681856122a8565b9897505050505050505056fea164736f6c6343000815000a",
    "linkReferences": {}
  },
  "methodIdentifiers": {
    "KYC(address)": "bd3b1046",
    "balanceOf(address,uint256)": "00fdd58e",
    "balanceOfBatch(address[],uint256[])": "4e1273f4",
    "buySecondary(address,uint256,uint256)": "3efcb0f5",
    "buyer(address)": "b7748208",
    "getOpenBuy(uint256)": "d98499f3",
    "getSecondaryMarket(uint256,address)": "5bc4dacd",
    "isApprovedForAll(address,address)": "e985e9c5",
    "onERC1155BatchReceived(address,address,uint256[],uint256[],bytes)": "bc197c81",
    "onERC1155Received(address,address,uint256,uint256,bytes)": "f23a6e61",
    "onERC721Received(address,address,uint256,bytes)": "150b7a02",
    "openBuy(uint256)": "0e372fc5",
    "owner()": "8da5cb5b",
    "purchasePrimary(uint256,uint256)": "d0a19852",
    "renounceOwnership()": "715018a6",
    "retrieveInvestment(uint256,uint256)": "feb8dc7c",
    "safeBatchTransferFrom(address,address,uint256[],uint256[],bytes)": "2eb2c2d6",
    "safeTransferFrom(address,address,uint256,uint256,bytes)": "f242432a",
    "secondaryMarket(uint256,address)": "5ad2dfed",
    "sellMyUnits(uint256,uint256,uint256)": "3c4ce768",
    "setApprovalForAll(address,bool)": "a22cb465",
    "setTreasury(address)": "f0f44260",
    "supportsInterface(bytes4)": "01ffc9a7",
    "transferOwnership(address)": "f2fde38b",
    "uri(uint256)": "0e89341c"
  },
  "id": 72
}