{
  "abi": [
    {
      "inputs": [
        {
          "components": [
            {
              "internalType": "uint64",
              "name": "chainSelector",
              "type": "uint64"
            },
            {
              "internalType": "uint64",
              "name": "sourceChainSelector",
              "type": "uint64"
            },
            {
              "internalType": "address",
              "name": "onRamp",
              "type": "address"
            },
            {
              "internalType": "address",
              "name": "armProxy",
              "type": "address"
            }
          ],
          "internalType": "struct CommitStore.StaticConfig",
          "name": "staticConfig",
          "type": "tuple"
        }
      ],
      "stateMutability": "nonpayable",
      "type": "constructor"
    },
    {
      "inputs": [],
      "name": "BadARMSignal",
      "type": "error"
    },
    {
      "inputs": [
        {
          "internalType": "bytes32",
          "name": "expected",
          "type": "bytes32"
        },
        {
          "internalType": "bytes32",
          "name": "actual",
          "type": "bytes32"
        }
      ],
      "name": "ConfigDigestMismatch",
      "type": "error"
    },
    {
      "inputs": [
        {
          "internalType": "uint256",
          "name": "expected",
          "type": "uint256"
        },
        {
          "internalType": "uint256",
          "name": "actual",
          "type": "uint256"
        }
      ],
      "name": "ForkedChain",
      "type": "error"
    },
    {
      "inputs": [],
      "name": "InvalidCommitStoreConfig",
      "type": "error"
    },
    {
      "inputs": [
        {
          "internalType": "string",
          "name": "message",
          "type": "string"
        }
      ],
      "name": "InvalidConfig",
      "type": "error"
    },
    {
      "inputs": [
        {
          "components": [
            {
              "internalType": "uint64",
              "name": "min",
              "type": "uint64"
            },
            {
              "internalType": "uint64",
              "name": "max",
              "type": "uint64"
            }
          ],
          "internalType": "struct CommitStore.Interval",
          "name": "interval",
          "type": "tuple"
        }
      ],
      "name": "InvalidInterval",
      "type": "error"
    },
    {
      "inputs": [],
      "name": "InvalidProof",
      "type": "error"
    },
    {
      "inputs": [],
      "name": "InvalidRoot",
      "type": "error"
    },
    {
      "inputs": [],
      "name": "LeavesCannotBeEmpty",
      "type": "error"
    },
    {
      "inputs": [],
      "name": "NonUniqueSignatures",
      "type": "error"
    },
    {
      "inputs": [],
      "name": "OracleCannotBeZeroAddress",
      "type": "error"
    },
    {
      "inputs": [],
      "name": "PausedError",
      "type": "error"
    },
    {
      "inputs": [],
      "name": "RootAlreadyCommitted",
      "type": "error"
    },
    {
      "inputs": [],
      "name": "SignaturesOutOfRegistration",
      "type": "error"
    },
    {
      "inputs": [],
      "name": "StaleReport",
      "type": "error"
    },
    {
      "inputs": [],
      "name": "UnauthorizedSigner",
      "type": "error"
    },
    {
      "inputs": [],
      "name": "UnauthorizedTransmitter",
      "type": "error"
    },
    {
      "inputs": [
        {
          "internalType": "uint256",
          "name": "expected",
          "type": "uint256"
        },
        {
          "internalType": "uint256",
          "name": "actual",
          "type": "uint256"
        }
      ],
      "name": "WrongMessageLength",
      "type": "error"
    },
    {
      "inputs": [],
      "name": "WrongNumberOfSignatures",
      "type": "error"
    },
    {
      "anonymous": false,
      "inputs": [
        {
          "components": [
            {
              "internalType": "uint64",
              "name": "chainSelector",
              "type": "uint64"
            },
            {
              "internalType": "uint64",
              "name": "sourceChainSelector",
              "type": "uint64"
            },
            {
              "internalType": "address",
              "name": "onRamp",
              "type": "address"
            },
            {
              "internalType": "address",
              "name": "armProxy",
              "type": "address"
            }
          ],
          "indexed": false,
          "internalType": "struct CommitStore.StaticConfig",
          "name": "staticConfig",
          "type": "tuple"
        },
        {
          "components": [
            {
              "internalType": "address",
              "name": "priceRegistry",
              "type": "address"
            }
          ],
          "indexed": false,
          "internalType": "struct CommitStore.DynamicConfig",
          "name": "dynamicConfig",
          "type": "tuple"
        }
      ],
      "name": "ConfigSet",
      "type": "event"
    },
    {
      "anonymous": false,
      "inputs": [
        {
          "indexed": false,
          "internalType": "uint32",
          "name": "previousConfigBlockNumber",
          "type": "uint32"
        },
        {
          "indexed": false,
          "internalType": "bytes32",
          "name": "configDigest",
          "type": "bytes32"
        },
        {
          "indexed": false,
          "internalType": "uint64",
          "name": "configCount",
          "type": "uint64"
        },
        {
          "indexed": false,
          "internalType": "address[]",
          "name": "signers",
          "type": "address[]"
        },
        {
          "indexed": false,
          "internalType": "address[]",
          "name": "transmitters",
          "type": "address[]"
        },
        {
          "indexed": false,
          "internalType": "uint8",
          "name": "f",
          "type": "uint8"
        },
        {
          "indexed": false,
          "internalType": "bytes",
          "name": "onchainConfig",
          "type": "bytes"
        },
        {
          "indexed": false,
          "internalType": "uint64",
          "name": "offchainConfigVersion",
          "type": "uint64"
        },
        {
          "indexed": false,
          "internalType": "bytes",
          "name": "offchainConfig",
          "type": "bytes"
        }
      ],
      "name": "ConfigSet",
      "type": "event"
    },
    {
      "anonymous": false,
      "inputs": [
        {
          "indexed": true,
          "internalType": "address",
          "name": "from",
          "type": "address"
        },
        {
          "indexed": true,
          "internalType": "address",
          "name": "to",
          "type": "address"
        }
      ],
      "name": "OwnershipTransferRequested",
      "type": "event"
    },
    {
      "anonymous": false,
      "inputs": [
        {
          "indexed": true,
          "internalType": "address",
          "name": "from",
          "type": "address"
        },
        {
          "indexed": true,
          "internalType": "address",
          "name": "to",
          "type": "address"
        }
      ],
      "name": "OwnershipTransferred",
      "type": "event"
    },
    {
      "anonymous": false,
      "inputs": [
        {
          "indexed": false,
          "internalType": "address",
          "name": "account",
          "type": "address"
        }
      ],
      "name": "Paused",
      "type": "event"
    },
    {
      "anonymous": false,
      "inputs": [
        {
          "components": [
            {
              "components": [
                {
                  "components": [
                    {
                      "internalType": "address",
                      "name": "sourceToken",
                      "type": "address"
                    },
                    {
                      "internalType": "uint224",
                      "name": "usdPerToken",
                      "type": "uint224"
                    }
                  ],
                  "internalType": "struct Internal.TokenPriceUpdate[]",
                  "name": "tokenPriceUpdates",
                  "type": "tuple[]"
                },
                {
                  "components": [
                    {
                      "internalType": "uint64",
                      "name": "destChainSelector",
                      "type": "uint64"
                    },
                    {
                      "internalType": "uint224",
                      "name": "usdPerUnitGas",
                      "type": "uint224"
                    }
                  ],
                  "internalType": "struct Internal.GasPriceUpdate[]",
                  "name": "gasPriceUpdates",
                  "type": "tuple[]"
                }
              ],
              "internalType": "struct Internal.PriceUpdates",
              "name": "priceUpdates",
              "type": "tuple"
            },
            {
              "components": [
                {
                  "internalType": "uint64",
                  "name": "min",
                  "type": "uint64"
                },
                {
                  "internalType": "uint64",
                  "name": "max",
                  "type": "uint64"
                }
              ],
              "internalType": "struct CommitStore.Interval",
              "name": "interval",
              "type": "tuple"
            },
            {
              "internalType": "bytes32",
              "name": "merkleRoot",
              "type": "bytes32"
            }
          ],
          "indexed": false,
          "internalType": "struct CommitStore.CommitReport",
          "name": "report",
          "type": "tuple"
        }
      ],
      "name": "ReportAccepted",
      "type": "event"
    },
    {
      "anonymous": false,
      "inputs": [
        {
          "indexed": false,
          "internalType": "bytes32",
          "name": "root",
          "type": "bytes32"
        }
      ],
      "name": "RootRemoved",
      "type": "event"
    },
    {
      "anonymous": false,
      "inputs": [
        {
          "indexed": false,
          "internalType": "bytes32",
          "name": "configDigest",
          "type": "bytes32"
        },
        {
          "indexed": false,
          "internalType": "uint32",
          "name": "epoch",
          "type": "uint32"
        }
      ],
      "name": "Transmitted",
      "type": "event"
    },
    {
      "anonymous": false,
      "inputs": [
        {
          "indexed": false,
          "internalType": "address",
          "name": "account",
          "type": "address"
        }
      ],
      "name": "Unpaused",
      "type": "event"
    },
    {
      "inputs": [],
      "name": "acceptOwnership",
      "outputs": [],
      "stateMutability": "nonpayable",
      "type": "function"
    },
    {
      "inputs": [],
      "name": "getDynamicConfig",
      "outputs": [
        {
          "components": [
            {
              "internalType": "address",
              "name": "priceRegistry",
              "type": "address"
            }
          ],
          "internalType": "struct CommitStore.DynamicConfig",
          "name": "",
          "type": "tuple"
        }
      ],
      "stateMutability": "view",
      "type": "function"
    },
    {
      "inputs": [],
      "name": "getExpectedNextSequenceNumber",
      "outputs": [
        {
          "internalType": "uint64",
          "name": "",
          "type": "uint64"
        }
      ],
      "stateMutability": "view",
      "type": "function"
    },
    {
      "inputs": [],
      "name": "getLatestPriceEpochAndRound",
      "outputs": [
        {
          "internalType": "uint64",
          "name": "",
          "type": "uint64"
        }
      ],
      "stateMutability": "view",
      "type": "function"
    },
    {
      "inputs": [
        {
          "internalType": "bytes32",
          "name": "root",
          "type": "bytes32"
        }
      ],
      "name": "getMerkleRoot",
      "outputs": [
        {
          "internalType": "uint256",
          "name": "",
          "type": "uint256"
        }
      ],
      "stateMutability": "view",
      "type": "function"
    },
    {
      "inputs": [],
      "name": "getStaticConfig",
      "outputs": [
        {
          "components": [
            {
              "internalType": "uint64",
              "name": "chainSelector",
              "type": "uint64"
            },
            {
              "internalType": "uint64",
              "name": "sourceChainSelector",
              "type": "uint64"
            },
            {
              "internalType": "address",
              "name": "onRamp",
              "type": "address"
            },
            {
              "internalType": "address",
              "name": "armProxy",
              "type": "address"
            }
          ],
          "internalType": "struct CommitStore.StaticConfig",
          "name": "",
          "type": "tuple"
        }
      ],
      "stateMutability": "view",
      "type": "function"
    },
    {
      "inputs": [],
      "name": "getTransmitters",
      "outputs": [
        {
          "internalType": "address[]",
          "name": "",
          "type": "address[]"
        }
      ],
      "stateMutability": "view",
      "type": "function"
    },
    {
      "inputs": [],
      "name": "isARMHealthy",
      "outputs": [
        {
          "internalType": "bool",
          "name": "",
          "type": "bool"
        }
      ],
      "stateMutability": "view",
      "type": "function"
    },
    {
      "inputs": [
        {
          "internalType": "bytes32",
          "name": "root",
          "type": "bytes32"
        }
      ],
      "name": "isBlessed",
      "outputs": [
        {
          "internalType": "bool",
          "name": "",
          "type": "bool"
        }
      ],
      "stateMutability": "view",
      "type": "function"
    },
    {
      "inputs": [],
      "name": "isUnpausedAndARMHealthy",
      "outputs": [
        {
          "internalType": "bool",
          "name": "",
          "type": "bool"
        }
      ],
      "stateMutability": "view",
      "type": "function"
    },
    {
      "inputs": [],
      "name": "latestConfigDetails",
      "outputs": [
        {
          "internalType": "uint32",
          "name": "configCount",
          "type": "uint32"
        },
        {
          "internalType": "uint32",
          "name": "blockNumber",
          "type": "uint32"
        },
        {
          "internalType": "bytes32",
          "name": "configDigest",
          "type": "bytes32"
        }
      ],
      "stateMutability": "view",
      "type": "function"
    },
    {
      "inputs": [],
      "name": "latestConfigDigestAndEpoch",
      "outputs": [
        {
          "internalType": "bool",
          "name": "scanLogs",
          "type": "bool"
        },
        {
          "internalType": "bytes32",
          "name": "configDigest",
          "type": "bytes32"
        },
        {
          "internalType": "uint32",
          "name": "epoch",
          "type": "uint32"
        }
      ],
      "stateMutability": "view",
      "type": "function"
    },
    {
      "inputs": [],
      "name": "owner",
      "outputs": [
        {
          "internalType": "address",
          "name": "",
          "type": "address"
        }
      ],
      "stateMutability": "view",
      "type": "function"
    },
    {
      "inputs": [],
      "name": "pause",
      "outputs": [],
      "stateMutability": "nonpayable",
      "type": "function"
    },
    {
      "inputs": [],
      "name": "paused",
      "outputs": [
        {
          "internalType": "bool",
          "name": "",
          "type": "bool"
        }
      ],
      "stateMutability": "view",
      "type": "function"
    },
    {
      "inputs": [
        {
          "internalType": "bytes32[]",
          "name": "rootToReset",
          "type": "bytes32[]"
        }
      ],
      "name": "resetUnblessedRoots",
      "outputs": [],
      "stateMutability": "nonpayable",
      "type": "function"
    },
    {
      "inputs": [
        {
          "internalType": "uint40",
          "name": "latestPriceEpochAndRound",
          "type": "uint40"
        }
      ],
      "name": "setLatestPriceEpochAndRound",
      "outputs": [],
      "stateMutability": "nonpayable",
      "type": "function"
    },
    {
      "inputs": [
        {
          "internalType": "uint64",
          "name": "minSeqNr",
          "type": "uint64"
        }
      ],
      "name": "setMinSeqNr",
      "outputs": [],
      "stateMutability": "nonpayable",
      "type": "function"
    },
    {
      "inputs": [
        {
          "internalType": "address[]",
          "name": "signers",
          "type": "address[]"
        },
        {
          "internalType": "address[]",
          "name": "transmitters",
          "type": "address[]"
        },
        {
          "internalType": "uint8",
          "name": "f",
          "type": "uint8"
        },
        {
          "internalType": "bytes",
          "name": "onchainConfig",
          "type": "bytes"
        },
        {
          "internalType": "uint64",
          "name": "offchainConfigVersion",
          "type": "uint64"
        },
        {
          "internalType": "bytes",
          "name": "offchainConfig",
          "type": "bytes"
        }
      ],
      "name": "setOCR2Config",
      "outputs": [],
      "stateMutability": "nonpayable",
      "type": "function"
    },
    {
      "inputs": [
        {
          "internalType": "address",
          "name": "to",
          "type": "address"
        }
      ],
      "name": "transferOwnership",
      "outputs": [],
      "stateMutability": "nonpayable",
      "type": "function"
    },
    {
      "inputs": [
        {
          "internalType": "bytes32[3]",
          "name": "reportContext",
          "type": "bytes32[3]"
        },
        {
          "internalType": "bytes",
          "name": "report",
          "type": "bytes"
        },
        {
          "internalType": "bytes32[]",
          "name": "rs",
          "type": "bytes32[]"
        },
        {
          "internalType": "bytes32[]",
          "name": "ss",
          "type": "bytes32[]"
        },
        {
          "internalType": "bytes32",
          "name": "rawVs",
          "type": "bytes32"
        }
      ],
      "name": "transmit",
      "outputs": [],
      "stateMutability": "nonpayable",
      "type": "function"
    },
    {
      "inputs": [],
      "name": "typeAndVersion",
      "outputs": [
        {
          "internalType": "string",
          "name": "",
          "type": "string"
        }
      ],
      "stateMutability": "view",
      "type": "function"
    },
    {
      "inputs": [],
      "name": "unpause",
      "outputs": [],
      "stateMutability": "nonpayable",
      "type": "function"
    },
    {
      "inputs": [
        {
          "internalType": "bytes32[]",
          "name": "hashedLeaves",
          "type": "bytes32[]"
        },
        {
          "internalType": "bytes32[]",
          "name": "proofs",
          "type": "bytes32[]"
        },
        {
          "internalType": "uint256",
          "name": "proofFlagBits",
          "type": "uint256"
        }
      ],
      "name": "verify",
      "outputs": [
        {
          "internalType": "uint256",
          "name": "timestamp",
          "type": "uint256"
        }
      ],
      "stateMutability": "view",
      "type": "function"
    }
  ],
  "bytecode": {
    "object": "0x61014060405260098054600165ff000000000160401b03191660011790553480156200002a57600080fd5b506040516200384c3803806200384c8339810160408190526200004d9162000272565b600033808281620000a55760405162461bcd60e51b815260206004820152601860248201527f43616e6e6f7420736574206f776e657220746f207a65726f000000000000000060448201526064015b60405180910390fd5b600080546001600160a01b0319166001600160a01b0384811691909117909155811615620000d857620000d88162000192565b50505015156080524660a05260408101516001600160a01b0316158062000107575080516001600160401b0316155b806200011e575060208101516001600160401b0316155b8062000135575060608101516001600160a01b0316155b156200015457604051631fc5f15f60e11b815260040160405180910390fd5b80516001600160401b0390811660c05260208201511660e05260408101516001600160a01b0390811661010052606090910151166101205262000306565b336001600160a01b03821603620001ec5760405162461bcd60e51b815260206004820152601760248201527f43616e6e6f74207472616e7366657220746f2073656c6600000000000000000060448201526064016200009c565b600180546001600160a01b0319166001600160a01b0383811691821790925560008054604051929316917fed8889f560326eb138920d842192f0eb3dd22b4f139c87a2c57538e05bae12789190a350565b80516001600160401b03811681146200025557600080fd5b919050565b80516001600160a01b03811681146200025557600080fd5b6000608082840312156200028557600080fd5b604051608081016001600160401b0381118282101715620002b657634e487b7160e01b600052604160045260246000fd5b604052620002c4836200023d565b8152620002d4602084016200023d565b6020820152620002e7604084016200025a565b6040820152620002fa606084016200025a565b60608201529392505050565b60805160a05160c05160e05161010051610120516134b7620003956000396000818161026d01528181610537015281816111730152818161199f01528181611bee015261206b0152600081816102310152611bc70152600081816102010152611ba00152600081816101d10152611b710152600081816112ee015261133a015260006113b501526134b76000f3fe608060405234801561001057600080fd5b50600436106101985760003560e01c806379ba5097116100e3578063ad7a22f81161008c578063f2fde38b11610066578063f2fde38b146104fa578063f47a86901461050d578063ff888fb11461052057600080fd5b8063ad7a22f8146104b4578063afcb95d7146104c7578063b1dc65a4146104e757600080fd5b80638da5cb5b116100bd5780638da5cb5b146104645780638db94e441461048c578063a7206cd61461049457600080fd5b806379ba50971461042457806381ff70481461042c5780638456cb591461045c57600080fd5b806332048875116101455780635c975abb1161011f5780635c975abb146103b4578063666cab8d146103d05780637437ff9f146103e557600080fd5b806332048875146103795780633f4ba83a1461039a5780634120fccd146103a257600080fd5b8063181f5a7711610176578063181f5a77146103085780631ef381741461035157806329b980e41461036657600080fd5b806306285c691461019d5780630a6cd30d146102c057806310c374ed146102d8575b600080fd5b6102aa60408051608081018252600080825260208201819052918101829052606081019190915260405180608001604052807f000000000000000000000000000000000000000000000000000000000000000067ffffffffffffffff1681526020017f000000000000000000000000000000000000000000000000000000000000000067ffffffffffffffff1681526020017f000000000000000000000000000000000000000000000000000000000000000073ffffffffffffffffffffffffffffffffffffffff1681526020017f000000000000000000000000000000000000000000000000000000000000000073ffffffffffffffffffffffffffffffffffffffff16815250905090565b6040516102b79190612656565b60405180910390f35b6102c8610533565b60405190151581526020016102b7565b60095468010000000000000000900464ffffffffff165b60405167ffffffffffffffff90911681526020016102b7565b6103446040518060400160405280601181526020017f436f6d6d697453746f726520312e322e3000000000000000000000000000000081525081565b6040516102b79190612713565b61036461035f366004612966565b6105ca565b005b610364610374366004612a33565b610deb565b61038c610387366004612aa6565b610e37565b6040519081526020016102b7565b610364610f2d565b60095467ffffffffffffffff166102ef565b6009546d0100000000000000000000000000900460ff166102c8565b6103d8610f93565b6040516102b79190612b6b565b604080516020808201835260009091528151808201835260085473ffffffffffffffffffffffffffffffffffffffff16908190529151918252016102b7565b610364611002565b6004546002546040805163ffffffff808516825264010000000090940490931660208401528201526060016102b7565b6103646110ff565b60005460405173ffffffffffffffffffffffffffffffffffffffff90911681526020016102b7565b6102c861116f565b61038c6104a2366004612b7e565b6000908152600a602052604090205490565b6103646104c2366004612b97565b611226565b6040805160018152600060208201819052918101919091526060016102b7565b6103646104f5366004612bb2565b611269565b610364610508366004612c97565b611889565b61036461051b366004612cb4565b61189d565b6102c861052e366004612b7e565b61193c565b60007f000000000000000000000000000000000000000000000000000000000000000073ffffffffffffffffffffffffffffffffffffffff1663397796f76040518163ffffffff1660e01b8152600401602060405180830381865afa1580156105a0573d6000803e3d6000fd5b505050506040513d601f19601f820116820180604052508101906105c49190612cf6565b15905090565b855185518560ff16601f831115610642576040517f89a6198900000000000000000000000000000000000000000000000000000000815260206004820152601060248201527f746f6f206d616e79207369676e6572730000000000000000000000000000000060448201526064015b60405180910390fd5b806000036106ac576040517f89a6198900000000000000000000000000000000000000000000000000000000815260206004820152601260248201527f66206d75737420626520706f73697469766500000000000000000000000000006044820152606401610639565b81831461073a576040517f89a61989000000000000000000000000000000000000000000000000000000008152602060048201526024808201527f6f7261636c6520616464726573736573206f7574206f6620726567697374726160448201527f74696f6e000000000000000000000000000000000000000000000000000000006064820152608401610639565b610745816003612d47565b83116107ad576040517f89a6198900000000000000000000000000000000000000000000000000000000815260206004820152601860248201527f6661756c74792d6f7261636c65206620746f6f206869676800000000000000006044820152606401610639565b6107b5611a10565b6107be86611a93565b60065460005b818110156108ba5760056000600683815481106107e3576107e3612d5e565b600091825260208083209091015473ffffffffffffffffffffffffffffffffffffffff168352820192909252604001812080547fffffffffffffffffffffffffffffffffffffffffffffffffffffffffffff00001690556007805460059291908490811061085357610853612d5e565b600091825260208083209091015473ffffffffffffffffffffffffffffffffffffffff168352820192909252604001902080547fffffffffffffffffffffffffffffffffffffffffffffffffffffffffffff00001690556108b381612d8d565b90506107c4565b50895160005b81811015610c935760008c82815181106108dc576108dc612d5e565b60200260200101519050600060028111156108f9576108f9612dc5565b73ffffffffffffffffffffffffffffffffffffffff8216600090815260056020526040902054610100900460ff16600281111561093857610938612dc5565b1461099f576040517f89a6198900000000000000000000000000000000000000000000000000000000815260206004820152601760248201527f7265706561746564207369676e657220616464726573730000000000000000006044820152606401610639565b73ffffffffffffffffffffffffffffffffffffffff81166109ec576040517fd6c62c9b00000000000000000000000000000000000000000000000000000000815260040160405180910390fd5b6040805180820190915260ff83168152602081016001905273ffffffffffffffffffffffffffffffffffffffff821660009081526005602090815260409091208251815460ff9091167fffffffffffffffffffffffffffffffffffffffffffffffffffffffffffffff0082168117835592840151919283917fffffffffffffffffffffffffffffffffffffffffffffffffffffffffffff00001617610100836002811115610a9c57610a9c612dc5565b021790555090505060008c8381518110610ab857610ab8612d5e565b6020026020010151905060006002811115610ad557610ad5612dc5565b73ffffffffffffffffffffffffffffffffffffffff8216600090815260056020526040902054610100900460ff166002811115610b1457610b14612dc5565b14610b7b576040517f89a6198900000000000000000000000000000000000000000000000000000000815260206004820152601c60248201527f7265706561746564207472616e736d69747465722061646472657373000000006044820152606401610639565b73ffffffffffffffffffffffffffffffffffffffff8116610bc8576040517fd6c62c9b00000000000000000000000000000000000000000000000000000000815260040160405180910390fd5b6040805180820190915260ff84168152602081016002905273ffffffffffffffffffffffffffffffffffffffff821660009081526005602090815260409091208251815460ff9091167fffffffffffffffffffffffffffffffffffffffffffffffffffffffffffffff0082168117835592840151919283917fffffffffffffffffffffffffffffffffffffffffffffffffffffffffffff00001617610100836002811115610c7857610c78612dc5565b0217905550905050505080610c8c90612d8d565b90506108c0565b508a51610ca79060069060208e0190612598565b508951610cbb9060079060208d0190612598565b506003805460ff838116610100027fffffffffffffffffffffffffffffffffffffffffffffffffffffffffffff0000909216908c161717905560048054610d41914691309190600090610d139063ffffffff16612df4565b91906101000a81548163ffffffff021916908363ffffffff160217905563ffffffff168e8e8e8e8e8e611c4f565b600260000181905550600060048054906101000a900463ffffffff169050436004806101000a81548163ffffffff021916908363ffffffff1602179055507f1591690b8638f5fb2dbec82ac741805ac5da8b45dc5263f4875b0496fdce4e0581600260000154600460009054906101000a900463ffffffff168f8f8f8f8f8f604051610dd599989796959493929190612e17565b60405180910390a1505050505050505050505050565b610df3611a10565b6009805464ffffffffff90921668010000000000000000027fffffffffffffffffffffffffffffffffffffff0000000000ffffffffffffffff909216919091179055565b6009546000906d0100000000000000000000000000900460ff1615610e88576040517feced32bc00000000000000000000000000000000000000000000000000000000815260040160405180910390fd5b6000610ef987878080602002602001604051908101604052809392919081815260200183836020028082843760009201919091525050604080516020808b0282810182019093528a82529093508a925089918291850190849080828437600092019190915250889250611cfa915050565b9050610f048161193c565b610f12576000915050610f24565b6000908152600a602052604090205490505b95945050505050565b610f35611a10565b600980547fffffffffffffffffffffffffffffffffffff00ffffffffffffffffffffffffff1690556040513381527f5db9ee0a495bf2e6ff9c91a7834c1ba4fdd244a5e8aa4e537bd38aeae4b073aa906020015b60405180910390a1565b60606007805480602002602001604051908101604052809291908181526020018280548015610ff857602002820191906000526020600020905b815473ffffffffffffffffffffffffffffffffffffffff168152600190910190602001808311610fcd575b5050505050905090565b60015473ffffffffffffffffffffffffffffffffffffffff163314611083576040517f08c379a000000000000000000000000000000000000000000000000000000000815260206004820152601660248201527f4d7573742062652070726f706f736564206f776e6572000000000000000000006044820152606401610639565b60008054337fffffffffffffffffffffffff00000000000000000000000000000000000000008083168217845560018054909116905560405173ffffffffffffffffffffffffffffffffffffffff90921692909183917f8be0079c531659141344cd1fd0a4f28419497f9722a3daafe3b4186f6b6457e091a350565b611107611a10565b600980547fffffffffffffffffffffffffffffffffffff00ffffffffffffffffffffffffff166d01000000000000000000000000001790556040513381527f62e78cea01bee320cd4e420270b5ea74000d11b0c9f74754ebdbfc544b05a25890602001610f89565b60007f000000000000000000000000000000000000000000000000000000000000000073ffffffffffffffffffffffffffffffffffffffff1663397796f76040518163ffffffff1660e01b8152600401602060405180830381865afa1580156111dc573d6000803e3d6000fd5b505050506040513d601f19601f820116820180604052508101906112009190612cf6565b15801561122157506009546d0100000000000000000000000000900460ff16155b905090565b61122e611a10565b600980547fffffffffffffffffffffffffffffffffffffffffffffffff00000000000000001667ffffffffffffffff92909216919091179055565b611278878760208b013561201b565b6040805160608101825260025480825260035460ff8082166020850152610100909104169282019290925289359182146112eb5780516040517f93df584c000000000000000000000000000000000000000000000000000000008152600481019190915260248101839052604401610639565b467f00000000000000000000000000000000000000000000000000000000000000001461136c576040517f0f01ce850000000000000000000000000000000000000000000000000000000081527f00000000000000000000000000000000000000000000000000000000000000006004820152466024820152604401610639565b6040805183815260208c81013560081c63ffffffff16908201527fb04e63db38c49950639fa09d29872f21f5d49d614f3a969d8adf3d4b52e41a62910160405180910390a160007f00000000000000000000000000000000000000000000000000000000000000001561140e576002826020015183604001516113ef9190612ead565b6113f99190612ec6565b611404906001612ead565b60ff169050611424565b602082015161141e906001612ead565b60ff1690505b86811461145d576040517f71253a2500000000000000000000000000000000000000000000000000000000815260040160405180910390fd5b868514611496576040517fa75d88af00000000000000000000000000000000000000000000000000000000815260040160405180910390fd5b3360009081526005602090815260408083208151808301909252805460ff808216845292939192918401916101009091041660028111156114d9576114d9612dc5565b60028111156114ea576114ea612dc5565b905250905060028160200151600281111561150757611507612dc5565b14801561154e57506007816000015160ff168154811061152957611529612d5e565b60009182526020909120015473ffffffffffffffffffffffffffffffffffffffff1633145b611584576040517fda0f08e800000000000000000000000000000000000000000000000000000000815260040160405180910390fd5b506000611592866020612d47565b61159d896020612d47565b6115a98c610144612f0f565b6115b39190612f0f565b6115bd9190612f0f565b9050368114611601576040517f8e1192e100000000000000000000000000000000000000000000000000000000815260048101829052366024820152604401610639565b5060008a8a604051611614929190612f22565b60405190819003812061162b918e90602001612f32565b60405160208183030381529060405280519060200120905061164b612622565b8860005b818110156118785760006001858a846020811061166e5761166e612d5e565b61167b91901a601b612ead565b8f8f8681811061168d5761168d612d5e565b905060200201358e8e878181106116a6576116a6612d5e565b90506020020135604051600081526020016040526040516116e3949392919093845260ff9290921660208401526040830152606082015260800190565b6020604051602081039080840390855afa158015611705573d6000803e3d6000fd5b5050604080517fffffffffffffffffffffffffffffffffffffffffffffffffffffffffffffffe081015173ffffffffffffffffffffffffffffffffffffffff8116600090815260056020908152848220848601909552845460ff808216865293975091955092939284019161010090910416600281111561178857611788612dc5565b600281111561179957611799612dc5565b90525090506001816020015160028111156117b6576117b6612dc5565b146117ed576040517fca31867a00000000000000000000000000000000000000000000000000000000815260040160405180910390fd5b8051859060ff16601f811061180457611804612d5e565b602002015115611840576040517ff67bc7c400000000000000000000000000000000000000000000000000000000815260040160405180910390fd5b600185826000015160ff16601f811061185b5761185b612d5e565b9115156020909202015250611871905081612d8d565b905061164f565b505050505050505050505050505050565b611891611a10565b61189a81612428565b50565b6118a5611a10565b60005b818110156119375760008383838181106118c4576118c4612d5e565b9050602002013590506118d68161193c565b611926576000818152600a602052604080822091909155517f202f1139a3e334b6056064c0e9b19fd07e44a88d8f6e5ded571b24cf8c371f129061191d9083815260200190565b60405180910390a15b5061193081612d8d565b90506118a8565b505050565b6040805180820182523081526020810183815291517f4d616771000000000000000000000000000000000000000000000000000000008152905173ffffffffffffffffffffffffffffffffffffffff9081166004830152915160248201526000917f00000000000000000000000000000000000000000000000000000000000000001690634d61677190604401602060405180830381865afa1580156119e6573d6000803e3d6000fd5b505050506040513d601f19601f82011682018060405250810190611a0a9190612cf6565b92915050565b60005473ffffffffffffffffffffffffffffffffffffffff163314611a91576040517f08c379a000000000000000000000000000000000000000000000000000000000815260206004820152601660248201527f4f6e6c792063616c6c61626c65206279206f776e6572000000000000000000006044820152606401610639565b565b600081806020019051810190611aa99190612f46565b805190915073ffffffffffffffffffffffffffffffffffffffff16611afa576040517f3f8be2be00000000000000000000000000000000000000000000000000000000815260040160405180910390fd5b8051600880547fffffffffffffffffffffffff00000000000000000000000000000000000000001673ffffffffffffffffffffffffffffffffffffffff928316179055600980547fffffffffffffffffffffffffffffffffffffff0000000000ffffffffffffffff169055604080516080810182527f000000000000000000000000000000000000000000000000000000000000000067ffffffffffffffff90811682527f00000000000000000000000000000000000000000000000000000000000000001660208201527f00000000000000000000000000000000000000000000000000000000000000008316818301527f00000000000000000000000000000000000000000000000000000000000000009092166060830152517fc9d7123efd4203e60b0f0a4b1dbc4800fc97ce63679f71c3a27279b24a7ddec391611c43918490612f92565b60405180910390a15050565b6000808a8a8a8a8a8a8a8a8a604051602001611c739998979695949392919061300f565b604080517fffffffffffffffffffffffffffffffffffffffffffffffffffffffffffffffe081840301815291905280516020909101207dffffffffffffffffffffffffffffffffffffffffffffffffffffffffffff167e01000000000000000000000000000000000000000000000000000000000000179150509998505050505050505050565b8251825160009190818303611d3b576040517f11a6b26400000000000000000000000000000000000000000000000000000000815260040160405180910390fd5b6101018211801590611d4f57506101018111155b611d85576040517f09bde33900000000000000000000000000000000000000000000000000000000815260040160405180910390fd5b7fffffffffffffffffffffffffffffffffffffffffffffffffffffffffffffffff82820101610100811115611de6576040517f09bde33900000000000000000000000000000000000000000000000000000000815260040160405180910390fd5b80600003611e135786600081518110611e0157611e01612d5e565b60200260200101519350505050612014565b60008167ffffffffffffffff811115611e2e57611e2e612726565b604051908082528060200260200182016040528015611e57578160200160208202803683370190505b50905060008080805b85811015611f9a5760006001821b8b811603611ebb5788851015611ea4578c5160018601958e918110611e9557611e95612d5e565b60200260200101519050611edd565b8551600185019487918110611e9557611e95612d5e565b8b5160018401938d918110611ed257611ed2612d5e565b602002602001015190505b600089861015611f0d578d5160018701968f918110611efe57611efe612d5e565b60200260200101519050611f2f565b8651600186019588918110611f2457611f24612d5e565b602002602001015190505b82851115611f69576040517f09bde33900000000000000000000000000000000000000000000000000000000815260040160405180910390fd5b611f73828261251d565b878481518110611f8557611f85612d5e565b60209081029190910101525050600101611e60565b506001850382148015611fac57508683145b8015611fb757508581145b611fed576040517f09bde33900000000000000000000000000000000000000000000000000000000815260040160405180910390fd5b83600186038151811061200257612002612d5e565b60200260200101519750505050505050505b9392505050565b6009546d0100000000000000000000000000900460ff1615612069576040517feced32bc00000000000000000000000000000000000000000000000000000000815260040160405180910390fd5b7f000000000000000000000000000000000000000000000000000000000000000073ffffffffffffffffffffffffffffffffffffffff1663397796f76040518163ffffffff1660e01b8152600401602060405180830381865afa1580156120d4573d6000803e3d6000fd5b505050506040513d601f19601f820116820180604052508101906120f89190612cf6565b1561212f576040517fc148371500000000000000000000000000000000000000000000000000000000815260040160405180910390fd5b600061213d8385018561319b565b8051515190915015158061215657508051602001515115155b1561228e5760095464ffffffffff8084166801000000000000000090920416101561225357600980547fffffffffffffffffffffffffffffffffffffff0000000000ffffffffffffffff166801000000000000000064ffffffffff85160217905560085481516040517f3937306f00000000000000000000000000000000000000000000000000000000815273ffffffffffffffffffffffffffffffffffffffff90921691633937306f9161220d916004016133ee565b600060405180830381600087803b15801561222757600080fd5b505af115801561223b573d6000803e3d6000fd5b50505050604081015161224e5750505050565b61228e565b604081015161228e576040517ff803a2ca00000000000000000000000000000000000000000000000000000000815260040160405180910390fd5b60208101515160095467ffffffffffffffff90811691161415806122c9575060208082015190810151905167ffffffffffffffff9182169116115b156123065780602001516040517fbb1ae18d0000000000000000000000000000000000000000000000000000000081526004016106399190613401565b6040810151612341576040517f504570e300000000000000000000000000000000000000000000000000000000815260040160405180910390fd5b6040808201516000908152600a60205220541561238a576040517fa0bce24f00000000000000000000000000000000000000000000000000000000815260040160405180910390fd5b602080820151015161239d906001613426565b600980547fffffffffffffffffffffffffffffffffffffffffffffffff00000000000000001667ffffffffffffffff929092169190911790556040818101516000908152600a602052819020429055517f291698c01aa71f912280535d88a00d2c59fb63530a3f5d0098560468acb9ebf59061241a90839061344e565b60405180910390a150505050565b3373ffffffffffffffffffffffffffffffffffffffff8216036124a7576040517f08c379a000000000000000000000000000000000000000000000000000000000815260206004820152601760248201527f43616e6e6f74207472616e7366657220746f2073656c660000000000000000006044820152606401610639565b600180547fffffffffffffffffffffffff00000000000000000000000000000000000000001673ffffffffffffffffffffffffffffffffffffffff83811691821790925560008054604051929316917fed8889f560326eb138920d842192f0eb3dd22b4f139c87a2c57538e05bae12789190a350565b600081831061255f5760408051600160208083019190915281830185905260608083018790528351808403909101815260809092019092528051910120612014565b60408051600160208083019190915281830186905260608083018690528351808403909101815260809092019092528051910120612014565b828054828255906000526020600020908101928215612612579160200282015b8281111561261257825182547fffffffffffffffffffffffff00000000000000000000000000000000000000001673ffffffffffffffffffffffffffffffffffffffff9091161782556020909201916001909101906125b8565b5061261e929150612641565b5090565b604051806103e00160405280601f906020820280368337509192915050565b5b8082111561261e5760008155600101612642565b60808101611a0a828467ffffffffffffffff80825116835280602083015116602084015250604081015173ffffffffffffffffffffffffffffffffffffffff808216604085015280606084015116606085015250505050565b6000815180845260005b818110156126d5576020818501810151868301820152016126b9565b5060006020828601015260207fffffffffffffffffffffffffffffffffffffffffffffffffffffffffffffffe0601f83011685010191505092915050565b60208152600061201460208301846126af565b7f4e487b7100000000000000000000000000000000000000000000000000000000600052604160045260246000fd5b6040805190810167ffffffffffffffff8111828210171561277857612778612726565b60405290565b6040516060810167ffffffffffffffff8111828210171561277857612778612726565b604051601f82017fffffffffffffffffffffffffffffffffffffffffffffffffffffffffffffffe016810167ffffffffffffffff811182821017156127e8576127e8612726565b604052919050565b600067ffffffffffffffff82111561280a5761280a612726565b5060051b60200190565b73ffffffffffffffffffffffffffffffffffffffff8116811461189a57600080fd5b600082601f83011261284757600080fd5b8135602061285c612857836127f0565b6127a1565b82815260059290921b8401810191818101908684111561287b57600080fd5b8286015b8481101561289f57803561289281612814565b835291830191830161287f565b509695505050505050565b803560ff811681146128bb57600080fd5b919050565b600082601f8301126128d157600080fd5b813567ffffffffffffffff8111156128eb576128eb612726565b61291c60207fffffffffffffffffffffffffffffffffffffffffffffffffffffffffffffffe0601f840116016127a1565b81815284602083860101111561293157600080fd5b816020850160208301376000918101602001919091529392505050565b803567ffffffffffffffff811681146128bb57600080fd5b60008060008060008060c0878903121561297f57600080fd5b863567ffffffffffffffff8082111561299757600080fd5b6129a38a838b01612836565b975060208901359150808211156129b957600080fd5b6129c58a838b01612836565b96506129d360408a016128aa565b955060608901359150808211156129e957600080fd5b6129f58a838b016128c0565b9450612a0360808a0161294e565b935060a0890135915080821115612a1957600080fd5b50612a2689828a016128c0565b9150509295509295509295565b600060208284031215612a4557600080fd5b813564ffffffffff8116811461201457600080fd5b60008083601f840112612a6c57600080fd5b50813567ffffffffffffffff811115612a8457600080fd5b6020830191508360208260051b8501011115612a9f57600080fd5b9250929050565b600080600080600060608688031215612abe57600080fd5b853567ffffffffffffffff80821115612ad657600080fd5b612ae289838a01612a5a565b90975095506020880135915080821115612afb57600080fd5b50612b0888828901612a5a565b96999598509660400135949350505050565b600081518084526020808501945080840160005b83811015612b6057815173ffffffffffffffffffffffffffffffffffffffff1687529582019590820190600101612b2e565b509495945050505050565b6020815260006120146020830184612b1a565b600060208284031215612b9057600080fd5b5035919050565b600060208284031215612ba957600080fd5b6120148261294e565b60008060008060008060008060e0898b031215612bce57600080fd5b606089018a811115612bdf57600080fd5b8998503567ffffffffffffffff80821115612bf957600080fd5b818b0191508b601f830112612c0d57600080fd5b813581811115612c1c57600080fd5b8c6020828501011115612c2e57600080fd5b6020830199508098505060808b0135915080821115612c4c57600080fd5b612c588c838d01612a5a565b909750955060a08b0135915080821115612c7157600080fd5b50612c7e8b828c01612a5a565b999c989b50969995989497949560c00135949350505050565b600060208284031215612ca957600080fd5b813561201481612814565b60008060208385031215612cc757600080fd5b823567ffffffffffffffff811115612cde57600080fd5b612cea85828601612a5a565b90969095509350505050565b600060208284031215612d0857600080fd5b8151801515811461201457600080fd5b7f4e487b7100000000000000000000000000000000000000000000000000000000600052601160045260246000fd5b8082028115828204841417611a0a57611a0a612d18565b7f4e487b7100000000000000000000000000000000000000000000000000000000600052603260045260246000fd5b60007fffffffffffffffffffffffffffffffffffffffffffffffffffffffffffffffff8203612dbe57612dbe612d18565b5060010190565b7f4e487b7100000000000000000000000000000000000000000000000000000000600052602160045260246000fd5b600063ffffffff808316818103612e0d57612e0d612d18565b6001019392505050565b600061012063ffffffff808d1684528b6020850152808b16604085015250806060840152612e478184018a612b1a565b90508281036080840152612e5b8189612b1a565b905060ff871660a084015282810360c0840152612e7881876126af565b905067ffffffffffffffff851660e0840152828103610100840152612e9d81856126af565b9c9b505050505050505050505050565b60ff8181168382160190811115611a0a57611a0a612d18565b600060ff831680612f00577f4e487b7100000000000000000000000000000000000000000000000000000000600052601260045260246000fd5b8060ff84160491505092915050565b80820180821115611a0a57611a0a612d18565b8183823760009101908152919050565b828152606082602083013760800192915050565b600060208284031215612f5857600080fd5b6040516020810181811067ffffffffffffffff82111715612f7b57612f7b612726565b6040528251612f8981612814565b81529392505050565b60a08101612feb828567ffffffffffffffff80825116835280602083015116602084015250604081015173ffffffffffffffffffffffffffffffffffffffff808216604085015280606084015116606085015250505050565b73ffffffffffffffffffffffffffffffffffffffff83511660808301529392505050565b60006101208b835273ffffffffffffffffffffffffffffffffffffffff8b16602084015267ffffffffffffffff808b1660408501528160608501526130568285018b612b1a565b9150838203608085015261306a828a612b1a565b915060ff881660a085015283820360c085015261308782886126af565b90861660e08501528381036101008501529050612e9d81856126af565b80357bffffffffffffffffffffffffffffffffffffffffffffffffffffffff811681146128bb57600080fd5b600082601f8301126130e157600080fd5b813560206130f1612857836127f0565b82815260069290921b8401810191818101908684111561311057600080fd5b8286015b8481101561289f576040818903121561312d5760008081fd5b613135612755565b61313e8261294e565b815261314b8583016130a4565b81860152835291830191604001613114565b60006040828403121561316f57600080fd5b613177612755565b90506131828261294e565b81526131906020830161294e565b602082015292915050565b600060208083850312156131ae57600080fd5b823567ffffffffffffffff808211156131c657600080fd5b90840190608082870312156131da57600080fd5b6131e261277e565b8235828111156131f157600080fd5b8301604081890381131561320457600080fd5b61320c612755565b82358581111561321b57600080fd5b8301601f81018b1361322c57600080fd5b803561323a612857826127f0565b81815260069190911b8201890190898101908d83111561325957600080fd5b928a01925b828410156132a95785848f0312156132765760008081fd5b61327e612755565b843561328981612814565b8152613296858d016130a4565b818d0152825292850192908a019061325e565b845250505082870135858111156132bf57600080fd5b6132cb8b8286016130d0565b828901525083526132de8986880161315d565b8684015260608501358184015250508094505050505092915050565b805160408084528151848201819052600092602091908201906060870190855b81811015613373578351805173ffffffffffffffffffffffffffffffffffffffff1684528501517bffffffffffffffffffffffffffffffffffffffffffffffffffffffff1685840152928401929185019160010161331a565b50508583015187820388850152805180835290840192506000918401905b808310156133e2578351805167ffffffffffffffff1683528501517bffffffffffffffffffffffffffffffffffffffffffffffffffffffff1685830152928401926001929092019190850190613391565b50979650505050505050565b60208152600061201460208301846132fa565b60408101611a0a8284805167ffffffffffffffff908116835260209182015116910152565b67ffffffffffffffff81811683821601908082111561344757613447612d18565b5092915050565b60208152600082516080602084015261346a60a08401826132fa565b905060208401516134956040850182805167ffffffffffffffff908116835260209182015116910152565b5060408401516080840152809150509291505056fea164736f6c6343000815000a",
    "linkReferences": {}
  },
  "methodIdentifiers": {
    "acceptOwnership()": "79ba5097",
    "getDynamicConfig()": "7437ff9f",
    "getExpectedNextSequenceNumber()": "4120fccd",
    "getLatestPriceEpochAndRound()": "10c374ed",
    "getMerkleRoot(bytes32)": "a7206cd6",
    "getStaticConfig()": "06285c69",
    "getTransmitters()": "666cab8d",
    "isARMHealthy()": "0a6cd30d",
    "isBlessed(bytes32)": "ff888fb1",
    "isUnpausedAndARMHealthy()": "8db94e44",
    "latestConfigDetails()": "81ff7048",
    "latestConfigDigestAndEpoch()": "afcb95d7",
    "owner()": "8da5cb5b",
    "pause()": "8456cb59",
    "paused()": "5c975abb",
    "resetUnblessedRoots(bytes32[])": "f47a8690",
    "setLatestPriceEpochAndRound(uint40)": "29b980e4",
    "setMinSeqNr(uint64)": "ad7a22f8",
    "setOCR2Config(address[],address[],uint8,bytes,uint64,bytes)": "1ef38174",
    "transferOwnership(address)": "f2fde38b",
    "transmit(bytes32[3],bytes,bytes32[],bytes32[],bytes32)": "b1dc65a4",
    "typeAndVersion()": "181f5a77",
    "unpause()": "3f4ba83a",
    "verify(bytes32[],bytes32[],uint256)": "32048875"
  },
  "id": 101
}