{
  "abi": [
    {
      "inputs": [],
      "stateMutability": "nonpayable",
      "type": "constructor"
    },
    {
      "inputs": [
        {
          "internalType": "bytes",
          "name": "reason",
          "type": "bytes"
        }
      ],
      "name": "ForwardFailed",
      "type": "error"
    },
    {
      "inputs": [
        {
          "internalType": "string",
          "name": "typeName",
          "type": "string"
        }
      ],
      "name": "InvalidTypeName",
      "type": "error"
    },
    {
      "inputs": [
        {
          "internalType": "uint256",
          "name": "nonce",
          "type": "uint256"
        }
      ],
      "name": "NonceAlreadyUsed",
      "type": "error"
    },
    {
      "inputs": [
        {
          "internalType": "uint256",
          "name": "expected",
          "type": "uint256"
        },
        {
          "internalType": "uint256",
          "name": "actual",
          "type": "uint256"
        }
      ],
      "name": "RequestExpired",
      "type": "error"
    },
    {
      "inputs": [],
      "name": "SignatureMismatch",
      "type": "error"
    },
    {
      "inputs": [],
      "name": "UnregisteredDomainSeparator",
      "type": "error"
    },
    {
      "inputs": [],
      "name": "UnregisteredTypeHash",
      "type": "error"
    },
    {
      "anonymous": false,
      "inputs": [
        {
          "indexed": true,
          "internalType": "bytes32",
          "name": "domainSeparator",
          "type": "bytes32"
        },
        {
          "indexed": false,
          "internalType": "bytes",
          "name": "domainValue",
          "type": "bytes"
        }
      ],
      "name": "DomainRegistered",
      "type": "event"
    },
    {
      "anonymous": false,
      "inputs": [
        {
          "indexed": true,
          "internalType": "address",
          "name": "from",
          "type": "address"
        },
        {
          "indexed": true,
          "internalType": "address",
          "name": "target",
          "type": "address"
        },
        {
          "indexed": true,
          "internalType": "bytes32",
          "name": "domainSeparator",
          "type": "bytes32"
        },
        {
          "indexed": false,
          "internalType": "uint256",
          "name": "nonce",
          "type": "uint256"
        },
        {
          "indexed": false,
          "internalType": "bytes",
          "name": "data",
          "type": "bytes"
        },
        {
          "indexed": false,
          "internalType": "bytes",
          "name": "returnValue",
          "type": "bytes"
        }
      ],
      "name": "ForwardSucceeded",
      "type": "event"
    },
    {
      "anonymous": false,
      "inputs": [
        {
          "indexed": true,
          "internalType": "address",
          "name": "from",
          "type": "address"
        },
        {
          "indexed": true,
          "internalType": "address",
          "name": "to",
          "type": "address"
        }
      ],
      "name": "OwnershipTransferRequested",
      "type": "event"
    },
    {
      "anonymous": false,
      "inputs": [
        {
          "indexed": true,
          "internalType": "address",
          "name": "from",
          "type": "address"
        },
        {
          "indexed": true,
          "internalType": "address",
          "name": "to",
          "type": "address"
        }
      ],
      "name": "OwnershipTransferred",
      "type": "event"
    },
    {
      "anonymous": false,
      "inputs": [
        {
          "indexed": true,
          "internalType": "bytes32",
          "name": "typeHash",
          "type": "bytes32"
        },
        {
          "indexed": false,
          "internalType": "string",
          "name": "typeStr",
          "type": "string"
        }
      ],
      "name": "RequestTypeRegistered",
      "type": "event"
    },
    {
      "inputs": [],
      "name": "EIP712_DOMAIN_TYPE",
      "outputs": [
        {
          "internalType": "string",
          "name": "",
          "type": "string"
        }
      ],
      "stateMutability": "view",
      "type": "function"
    },
    {
      "inputs": [],
      "name": "GENERIC_PARAMS",
      "outputs": [
        {
          "internalType": "string",
          "name": "",
          "type": "string"
        }
      ],
      "stateMutability": "view",
      "type": "function"
    },
    {
      "inputs": [
        {
          "components": [
            {
              "internalType": "address",
              "name": "from",
              "type": "address"
            },
            {
              "internalType": "address",
              "name": "target",
              "type": "address"
            },
            {
              "internalType": "uint256",
              "name": "nonce",
              "type": "uint256"
            },
            {
              "internalType": "bytes",
              "name": "data",
              "type": "bytes"
            },
            {
              "internalType": "uint256",
              "name": "validUntilTime",
              "type": "uint256"
            }
          ],
          "internalType": "struct IForwarder.ForwardRequest",
          "name": "req",
          "type": "tuple"
        },
        {
          "internalType": "bytes32",
          "name": "requestTypeHash",
          "type": "bytes32"
        },
        {
          "internalType": "bytes",
          "name": "suffixData",
          "type": "bytes"
        }
      ],
      "name": "_getEncoded",
      "outputs": [
        {
          "internalType": "bytes",
          "name": "",
          "type": "bytes"
        }
      ],
      "stateMutability": "pure",
      "type": "function"
    },
    {
      "inputs": [],
      "name": "acceptOwnership",
      "outputs": [],
      "stateMutability": "nonpayable",
      "type": "function"
    },
    {
      "inputs": [
        {
          "components": [
            {
              "internalType": "address",
              "name": "from",
              "type": "address"
            },
            {
              "internalType": "address",
              "name": "target",
              "type": "address"
            },
            {
              "internalType": "uint256",
              "name": "nonce",
              "type": "uint256"
            },
            {
              "internalType": "bytes",
              "name": "data",
              "type": "bytes"
            },
            {
              "internalType": "uint256",
              "name": "validUntilTime",
              "type": "uint256"
            }
          ],
          "internalType": "struct IForwarder.ForwardRequest",
          "name": "req",
          "type": "tuple"
        },
        {
          "internalType": "bytes32",
          "name": "domainSeparator",
          "type": "bytes32"
        },
        {
          "internalType": "bytes32",
          "name": "requestTypeHash",
          "type": "bytes32"
        },
        {
          "internalType": "bytes",
          "name": "suffixData",
          "type": "bytes"
        },
        {
          "internalType": "bytes",
          "name": "sig",
          "type": "bytes"
        }
      ],
      "name": "execute",
      "outputs": [
        {
          "internalType": "bool",
          "name": "success",
          "type": "bool"
        },
        {
          "internalType": "bytes",
          "name": "ret",
          "type": "bytes"
        }
      ],
      "stateMutability": "payable",
      "type": "function"
    },
    {
      "inputs": [
        {
          "internalType": "string",
          "name": "name",
          "type": "string"
        },
        {
          "internalType": "string",
          "name": "version",
          "type": "string"
        }
      ],
      "name": "getDomainSeparator",
      "outputs": [
        {
          "internalType": "bytes",
          "name": "",
          "type": "bytes"
        }
      ],
      "stateMutability": "view",
      "type": "function"
    },
    {
      "inputs": [],
      "name": "owner",
      "outputs": [
        {
          "internalType": "address",
          "name": "",
          "type": "address"
        }
      ],
      "stateMutability": "view",
      "type": "function"
    },
    {
      "inputs": [
        {
          "internalType": "string",
          "name": "name",
          "type": "string"
        },
        {
          "internalType": "string",
          "name": "version",
          "type": "string"
        }
      ],
      "name": "registerDomainSeparator",
      "outputs": [],
      "stateMutability": "nonpayable",
      "type": "function"
    },
    {
      "inputs": [
        {
          "internalType": "string",
          "name": "typeName",
          "type": "string"
        },
        {
          "internalType": "string",
          "name": "typeSuffix",
          "type": "string"
        }
      ],
      "name": "registerRequestType",
      "outputs": [],
      "stateMutability": "nonpayable",
      "type": "function"
    },
    {
      "inputs": [
        {
          "internalType": "bytes32",
          "name": "",
          "type": "bytes32"
        }
      ],
      "name": "s_domains",
      "outputs": [
        {
          "internalType": "bool",
          "name": "",
          "type": "bool"
        }
      ],
      "stateMutability": "view",
      "type": "function"
    },
    {
      "inputs": [
        {
          "internalType": "bytes32",
          "name": "",
          "type": "bytes32"
        }
      ],
      "name": "s_typeHashes",
      "outputs": [
        {
          "internalType": "bool",
          "name": "",
          "type": "bool"
        }
      ],
      "stateMutability": "view",
      "type": "function"
    },
    {
      "inputs": [
        {
          "internalType": "bytes4",
          "name": "interfaceId",
          "type": "bytes4"
        }
      ],
      "name": "supportsInterface",
      "outputs": [
        {
          "internalType": "bool",
          "name": "",
          "type": "bool"
        }
      ],
      "stateMutability": "view",
      "type": "function"
    },
    {
      "inputs": [
        {
          "internalType": "address",
          "name": "to",
          "type": "address"
        }
      ],
      "name": "transferOwnership",
      "outputs": [],
      "stateMutability": "nonpayable",
      "type": "function"
    },
    {
      "inputs": [
        {
          "components": [
            {
              "internalType": "address",
              "name": "from",
              "type": "address"
            },
            {
              "internalType": "address",
              "name": "target",
              "type": "address"
            },
            {
              "internalType": "uint256",
              "name": "nonce",
              "type": "uint256"
            },
            {
              "internalType": "bytes",
              "name": "data",
              "type": "bytes"
            },
            {
              "internalType": "uint256",
              "name": "validUntilTime",
              "type": "uint256"
            }
          ],
          "internalType": "struct IForwarder.ForwardRequest",
          "name": "req",
          "type": "tuple"
        },
        {
          "internalType": "bytes32",
          "name": "domainSeparator",
          "type": "bytes32"
        },
        {
          "internalType": "bytes32",
          "name": "requestTypeHash",
          "type": "bytes32"
        },
        {
          "internalType": "bytes",
          "name": "suffixData",
          "type": "bytes"
        },
        {
          "internalType": "bytes",
          "name": "sig",
          "type": "bytes"
        }
      ],
      "name": "verify",
      "outputs": [],
      "stateMutability": "view",
      "type": "function"
    },
    {
      "stateMutability": "payable",
      "type": "receive"
    }
  ],
  "bytecode": {
    "object": "0x60806040523480156200001157600080fd5b503380600081620000695760405162461bcd60e51b815260206004820152601860248201527f43616e6e6f7420736574206f776e657220746f207a65726f000000000000000060448201526064015b60405180910390fd5b600080546001600160a01b0319166001600160a01b03848116919091179091558116156200009c576200009c81620000f1565b50505060006040518060800160405280604b815260200162001ccd604b9139604051602001620000cd919062000227565b60408051601f198184030181529190529050620000ea816200019c565b50620002a0565b336001600160a01b038216036200014b5760405162461bcd60e51b815260206004820152601760248201527f43616e6e6f74207472616e7366657220746f2073656c66000000000000000000604482015260640162000060565b600180546001600160a01b0319166001600160a01b0383811691821790925560008054604051929316917fed8889f560326eb138920d842192f0eb3dd22b4f139c87a2c57538e05bae12789190a350565b805160208083019190912060008181526002909252604091829020805460ff19166001179055905181907f64d6bce64323458c44643c51fe45113efc882082f7b7fd5f09f0d69d2eedb20290620001f59085906200026b565b60405180910390a25050565b60005b838110156200021e57818101518382015260200162000204565b50506000910152565b6e08cdee4eec2e4c8a4cae2eacae6e85608b1b8152600082516200025381600f85016020870162000201565b602960f81b600f939091019283015250601001919050565b60208152600082518060208401526200028c81604085016020870162000201565b601f01601f19169190910160400192915050565b611a1d80620002b06000396000f3fe6080604052600436106100e15760003560e01c80638da5cb5b1161007f578063b5aa376711610059578063b5aa376714610271578063c3f28abd14610291578063d9210be5146102a6578063f2fde38b146102c657600080fd5b80638da5cb5b146101fc5780639a0e8929146102315780639c7b45921461025157600080fd5b806371714e17116100bb57806371714e171461017457806379ba5097146101945780637c954790146101ab5780638191a616146101cc57600080fd5b806301ffc9a7146100ed578063066a310c146101225780630b9623f11461014457600080fd5b366100e857005b600080fd5b3480156100f957600080fd5b5061010d610108366004611381565b6102e6565b60405190151581526020015b60405180910390f35b34801561012e57600080fd5b5061013761037f565b6040516101199190611438565b34801561015057600080fd5b5061010d61015f36600461144b565b60036020526000908152604090205460ff1681565b34801561018057600080fd5b5061013761018f3660046114be565b61039b565b3480156101a057600080fd5b506101a9610443565b005b6101be6101b936600461152e565b610545565b6040516101199291906115d6565b3480156101d857600080fd5b5061010d6101e736600461144b565b60026020526000908152604090205460ff1681565b34801561020857600080fd5b5060005460405173ffffffffffffffffffffffffffffffffffffffff9091168152602001610119565b34801561023d57600080fd5b506101a961024c36600461152e565b610781565b34801561025d57600080fd5b506101a961026c3660046115f9565b6107a2565b34801561027d57600080fd5b5061013761028c3660046115f9565b610841565b34801561029d57600080fd5b506101376108bf565b3480156102b257600080fd5b506101a96102c13660046115f9565b6108db565b3480156102d257600080fd5b506101a96102e136600461164c565b610a6d565b60007fffffffff0000000000000000000000000000000000000000000000000000000082167fa3c180ce00000000000000000000000000000000000000000000000000000000148061037957507f01ffc9a7000000000000000000000000000000000000000000000000000000007fffffffff000000000000000000000000000000000000000000000000000000008316145b92915050565b6040518060800160405280604b8152602001611974604b913981565b6060836103ab602087018761164c565b73ffffffffffffffffffffffffffffffffffffffff166103d1604088016020890161164c565b73ffffffffffffffffffffffffffffffffffffffff1660408801356103f960608a018a611682565b6040516104079291906116e7565b60405190819003812061042a959493929160808c0135908a908a906020016116f7565b6040516020818303038152906040529050949350505050565b60015473ffffffffffffffffffffffffffffffffffffffff1633146104c9576040517f08c379a000000000000000000000000000000000000000000000000000000000815260206004820152601660248201527f4d7573742062652070726f706f736564206f776e65720000000000000000000060448201526064015b60405180910390fd5b60008054337fffffffffffffffffffffffff00000000000000000000000000000000000000008083168217845560018054909116905560405173ffffffffffffffffffffffffffffffffffffffff90921692909183917f8be0079c531659141344cd1fd0a4f28419497f9722a3daafe3b4186f6b6457e091a350565b6000606061055889898989898989610a81565b61056189610c68565b608089013515801590610578575042896080013511155b156105bb576040517f6bdd243600000000000000000000000000000000000000000000000000000000815242600482015260808a013560248201526044016104c0565b60006105ca60608b018b611682565b6105d760208d018d61164c565b6040516020016105e993929190611734565b604051602081830303815290604052905060008a602001602081019061060f919061164c565b90506106375a73ffffffffffffffffffffffffffffffffffffffff8316906000602086610d6a565b9094509250836106da5782516000036106d2576040517f08c379a000000000000000000000000000000000000000000000000000000000815260206004820152602660248201527f466f727761726465642063616c6c20726576657274656420776974686f75742060448201527f726561736f6e000000000000000000000000000000000000000000000000000060648201526084016104c0565b825183602001fd5b896106eb60408d0160208e0161164c565b73ffffffffffffffffffffffffffffffffffffffff1661070e60208e018e61164c565b73ffffffffffffffffffffffffffffffffffffffff167f94e72b9bdade69580d865c1293804239e91513c10e675ca3345fc848f9daba2e8e604001358f806060019061075a9190611682565b8960405161076b94939291906117b6565b60405180910390a4505097509795505050505050565b61078a87610df5565b61079987878787878787610a81565b50505050505050565b6107aa610e7d565b60006107b885858585610841565b80516020808301919091206000818152600390925260409182902080547fffffffffffffffffffffffffffffffffffffffffffffffffffffffffffffff0016600117905590519192509081907f4bc68689cbe89a4a6333a3ab0a70093874da3e5bfb71e93102027f3f073687d890610831908590611438565b60405180910390a2505050505050565b60606040518060800160405280605281526020016119bf605291398051906020012085856040516108739291906116e7565b6040518091039020848460405161088b9291906116e7565b60408051918290038220602083019490945281019190915260608101919091524660808201523060a082015260c00161042a565b6040518060800160405280605281526020016119bf6052913981565b600084848080601f01602080910402602001604051908101604052809392919081815260200183838082843760009201829052509394505050505b8151811015610a17576000828281518110610933576109336117ed565b01602001517fff000000000000000000000000000000000000000000000000000000000000001690507f28000000000000000000000000000000000000000000000000000000000000008114806109cb57507f29000000000000000000000000000000000000000000000000000000000000007fff000000000000000000000000000000000000000000000000000000000000008216145b15610a065786866040517f91ea68d00000000000000000000000000000000000000000000000000000000081526004016104c092919061181c565b50610a1081611830565b9050610916565b50600085856040518060800160405280604b8152602001611974604b91398686604051602001610a4b95949392919061188f565b6040516020818303038152906040529050610a6581610f00565b505050505050565b610a75610e7d565b610a7e81610f81565b50565b60008681526003602052604090205460ff16610ac9576040517faa54b09400000000000000000000000000000000000000000000000000000000815260040160405180910390fd5b60008581526002602052604090205460ff16610b11576040517fbb6d969a00000000000000000000000000000000000000000000000000000000815260040160405180910390fd5b600086610b208988888861039b565b8051602091820120604051610b679392017f190100000000000000000000000000000000000000000000000000000000000081526002810192909252602282015260420190565b604080517fffffffffffffffffffffffffffffffffffffffffffffffffffffffffffffffe0818403018152919052805160209091012090503215801590610c275750610bb6602089018961164c565b73ffffffffffffffffffffffffffffffffffffffff16610c0e84848080601f01602080910402602001604051908101604052809392919081815260200183838082843760009201919091525086939250506110769050565b73ffffffffffffffffffffffffffffffffffffffff1614155b15610c5e576040517f73a8ee1800000000000000000000000000000000000000000000000000000000815260040160405180910390fd5b5050505050505050565b60046000610c79602084018461164c565b73ffffffffffffffffffffffffffffffffffffffff1681526020808201929092526040908101600090812084830135825290925290205460ff1615610cf057604080517f91cab5040000000000000000000000000000000000000000000000000000000081529082013560048201526024016104c0565b600160046000610d03602085018561164c565b73ffffffffffffffffffffffffffffffffffffffff168152602080820192909252604090810160009081209482013581529390915290912080547fffffffffffffffffffffffffffffffffffffffffffffffffffffffffffffff0016911515919091179055565b6000606060008060008661ffff1667ffffffffffffffff811115610d9057610d90611915565b6040519080825280601f01601f191660200182016040528015610dba576020820181803683370190505b5090506000808751602089018b8e8ef191503d925086831115610ddb578692505b828152826000602083013e90999098509650505050505050565b60046000610e06602084018461164c565b73ffffffffffffffffffffffffffffffffffffffff1681526020808201929092526040908101600090812084830135825290925290205460ff1615610a7e57604080517f91cab5040000000000000000000000000000000000000000000000000000000081529082013560048201526024016104c0565b60005473ffffffffffffffffffffffffffffffffffffffff163314610efe576040517f08c379a000000000000000000000000000000000000000000000000000000000815260206004820152601660248201527f4f6e6c792063616c6c61626c65206279206f776e65720000000000000000000060448201526064016104c0565b565b80516020808301919091206000818152600290925260409182902080547fffffffffffffffffffffffffffffffffffffffffffffffffffffffffffffff00166001179055905181907f64d6bce64323458c44643c51fe45113efc882082f7b7fd5f09f0d69d2eedb20290610f75908590611438565b60405180910390a25050565b3373ffffffffffffffffffffffffffffffffffffffff821603611000576040517f08c379a000000000000000000000000000000000000000000000000000000000815260206004820152601760248201527f43616e6e6f74207472616e7366657220746f2073656c6600000000000000000060448201526064016104c0565b600180547fffffffffffffffffffffffff00000000000000000000000000000000000000001673ffffffffffffffffffffffffffffffffffffffff83811691821790925560008054604051929316917fed8889f560326eb138920d842192f0eb3dd22b4f139c87a2c57538e05bae12789190a350565b6000806000611085858561109a565b91509150611092816110df565b509392505050565b60008082516041036110d05760208301516040840151606085015160001a6110c487828585611292565b945094505050506110d8565b506000905060025b9250929050565b60008160048111156110f3576110f3611944565b036110fb5750565b600181600481111561110f5761110f611944565b03611176576040517f08c379a000000000000000000000000000000000000000000000000000000000815260206004820152601860248201527f45434453413a20696e76616c6964207369676e6174757265000000000000000060448201526064016104c0565b600281600481111561118a5761118a611944565b036111f1576040517f08c379a000000000000000000000000000000000000000000000000000000000815260206004820152601f60248201527f45434453413a20696e76616c6964207369676e6174757265206c656e6774680060448201526064016104c0565b600381600481111561120557611205611944565b03610a7e576040517f08c379a000000000000000000000000000000000000000000000000000000000815260206004820152602260248201527f45434453413a20696e76616c6964207369676e6174757265202773272076616c60448201527f756500000000000000000000000000000000000000000000000000000000000060648201526084016104c0565b6000807f7fffffffffffffffffffffffffffffff5d576e7357a4501ddfe92f46681b20a08311156112c95750600090506003611378565b6040805160008082526020820180845289905260ff881692820192909252606081018690526080810185905260019060a0016020604051602081039080840390855afa15801561131d573d6000803e3d6000fd5b50506040517fffffffffffffffffffffffffffffffffffffffffffffffffffffffffffffffe0015191505073ffffffffffffffffffffffffffffffffffffffff811661137157600060019250925050611378565b9150600090505b94509492505050565b60006020828403121561139357600080fd5b81357fffffffff00000000000000000000000000000000000000000000000000000000811681146113c357600080fd5b9392505050565b60005b838110156113e55781810151838201526020016113cd565b50506000910152565b600081518084526114068160208601602086016113ca565b601f017fffffffffffffffffffffffffffffffffffffffffffffffffffffffffffffffe0169290920160200192915050565b6020815260006113c360208301846113ee565b60006020828403121561145d57600080fd5b5035919050565b600060a0828403121561147657600080fd5b50919050565b60008083601f84011261148e57600080fd5b50813567ffffffffffffffff8111156114a657600080fd5b6020830191508360208285010111156110d857600080fd5b600080600080606085870312156114d457600080fd5b843567ffffffffffffffff808211156114ec57600080fd5b6114f888838901611464565b955060208701359450604087013591508082111561151557600080fd5b506115228782880161147c565b95989497509550505050565b600080600080600080600060a0888a03121561154957600080fd5b873567ffffffffffffffff8082111561156157600080fd5b61156d8b838c01611464565b985060208a0135975060408a0135965060608a013591508082111561159157600080fd5b61159d8b838c0161147c565b909650945060808a01359150808211156115b657600080fd5b506115c38a828b0161147c565b989b979a50959850939692959293505050565b82151581526040602082015260006115f160408301846113ee565b949350505050565b6000806000806040858703121561160f57600080fd5b843567ffffffffffffffff8082111561162757600080fd5b6116338883890161147c565b9096509450602087013591508082111561151557600080fd5b60006020828403121561165e57600080fd5b813573ffffffffffffffffffffffffffffffffffffffff811681146113c357600080fd5b60008083357fffffffffffffffffffffffffffffffffffffffffffffffffffffffffffffffe18436030181126116b757600080fd5b83018035915067ffffffffffffffff8211156116d257600080fd5b6020019150368190038213156110d857600080fd5b8183823760009101908152919050565b8881528760208201528660408201528560608201528460808201528360a0820152818360c08301376000910160c001908152979650505050505050565b8284823760609190911b7fffffffffffffffffffffffffffffffffffffffff000000000000000000000000169101908152601401919050565b8183528181602085013750600060208284010152600060207fffffffffffffffffffffffffffffffffffffffffffffffffffffffffffffffe0601f840116840101905092915050565b8481526060602082015260006117d060608301858761176d565b82810360408401526117e281856113ee565b979650505050505050565b7f4e487b7100000000000000000000000000000000000000000000000000000000600052603260045260246000fd5b6020815260006115f160208301848661176d565b60007fffffffffffffffffffffffffffffffffffffffffffffffffffffffffffffffff8203611888577f4e487b7100000000000000000000000000000000000000000000000000000000600052601160045260246000fd5b5060010190565b8486823760008582017f2800000000000000000000000000000000000000000000000000000000000000815285516118ce816001840160208a016113ca565b7f2c00000000000000000000000000000000000000000000000000000000000000600192909101918201528385600283013760009301600201928352509095945050505050565b7f4e487b7100000000000000000000000000000000000000000000000000000000600052604160045260246000fd5b7f4e487b7100000000000000000000000000000000000000000000000000000000600052602160045260246000fdfe616464726573732066726f6d2c61646472657373207461726765742c75696e74323536206e6f6e63652c627974657320646174612c75696e743235362076616c6964556e74696c54696d65454950373132446f6d61696e28737472696e67206e616d652c737472696e672076657273696f6e2c75696e7432353620636861696e49642c6164647265737320766572696679696e67436f6e747261637429a164736f6c6343000815000a616464726573732066726f6d2c61646472657373207461726765742c75696e74323536206e6f6e63652c627974657320646174612c75696e743235362076616c6964556e74696c54696d65",
    "linkReferences": {}
  },
  "methodIdentifiers": {
    "EIP712_DOMAIN_TYPE()": "c3f28abd",
    "GENERIC_PARAMS()": "066a310c",
    "_getEncoded((address,address,uint256,bytes,uint256),bytes32,bytes)": "71714e17",
    "acceptOwnership()": "79ba5097",
    "execute((address,address,uint256,bytes,uint256),bytes32,bytes32,bytes,bytes)": "7c954790",
    "getDomainSeparator(string,string)": "b5aa3767",
    "owner()": "8da5cb5b",
    "registerDomainSeparator(string,string)": "9c7b4592",
    "registerRequestType(string,string)": "d9210be5",
    "s_domains(bytes32)": "0b9623f1",
    "s_typeHashes(bytes32)": "8191a616",
    "supportsInterface(bytes4)": "01ffc9a7",
    "transferOwnership(address)": "f2fde38b",
    "verify((address,address,uint256,bytes,uint256),bytes32,bytes32,bytes,bytes)": "9a0e8929"
  },
  "id": 240
}