{
  "abi": [
    {
      "inputs": [],
      "name": "InvalidInitialization",
      "type": "error"
    },
    {
      "inputs": [],
      "name": "NotInitializing",
      "type": "error"
    },
    {
      "inputs": [
        {
          "internalType": "address",
          "name": "owner",
          "type": "address"
        }
      ],
      "name": "OwnableInvalidOwner",
      "type": "error"
    },
    {
      "inputs": [
        {
          "internalType": "address",
          "name": "account",
          "type": "address"
        }
      ],
      "name": "OwnableUnauthorizedAccount",
      "type": "error"
    },
    {
      "anonymous": false,
      "inputs": [
        {
          "indexed": true,
          "internalType": "address",
          "name": "_userAddress",
          "type": "address"
        },
        {
          "indexed": true,
          "internalType": "bool",
          "name": "_isFrozen",
          "type": "bool"
        },
        {
          "indexed": true,
          "internalType": "address",
          "name": "_owner",
          "type": "address"
        }
      ],
      "name": "AddressFrozen",
      "type": "event"
    },
    {
      "anonymous": false,
      "inputs": [
        {
          "indexed": true,
          "internalType": "address",
          "name": "_agent",
          "type": "address"
        }
      ],
      "name": "AgentAdded",
      "type": "event"
    },
    {
      "anonymous": false,
      "inputs": [
        {
          "indexed": true,
          "internalType": "address",
          "name": "_agent",
          "type": "address"
        }
      ],
      "name": "AgentRemoved",
      "type": "event"
    },
    {
      "anonymous": false,
      "inputs": [
        {
          "indexed": true,
          "internalType": "address",
          "name": "owner",
          "type": "address"
        },
        {
          "indexed": true,
          "internalType": "address",
          "name": "spender",
          "type": "address"
        },
        {
          "indexed": false,
          "internalType": "uint256",
          "name": "value",
          "type": "uint256"
        }
      ],
      "name": "Approval",
      "type": "event"
    },
    {
      "anonymous": false,
      "inputs": [
        {
          "indexed": true,
          "internalType": "address",
          "name": "_compliance",
          "type": "address"
        }
      ],
      "name": "ComplianceAdded",
      "type": "event"
    },
    {
      "anonymous": false,
      "inputs": [
        {
          "indexed": true,
          "internalType": "address",
          "name": "_identityRegistry",
          "type": "address"
        }
      ],
      "name": "IdentityRegistryAdded",
      "type": "event"
    },
    {
      "anonymous": false,
      "inputs": [
        {
          "indexed": false,
          "internalType": "uint64",
          "name": "version",
          "type": "uint64"
        }
      ],
      "name": "Initialized",
      "type": "event"
    },
    {
      "anonymous": false,
      "inputs": [
        {
          "indexed": true,
          "internalType": "address",
          "name": "previousOwner",
          "type": "address"
        },
        {
          "indexed": true,
          "internalType": "address",
          "name": "newOwner",
          "type": "address"
        }
      ],
      "name": "OwnershipTransferred",
      "type": "event"
    },
    {
      "anonymous": false,
      "inputs": [
        {
          "indexed": false,
          "internalType": "address",
          "name": "_userAddress",
          "type": "address"
        }
      ],
      "name": "Paused",
      "type": "event"
    },
    {
      "anonymous": false,
      "inputs": [
        {
          "indexed": true,
          "internalType": "address",
          "name": "_lostWallet",
          "type": "address"
        },
        {
          "indexed": true,
          "internalType": "address",
          "name": "_newWallet",
          "type": "address"
        },
        {
          "indexed": true,
          "internalType": "address",
          "name": "_investorOnchainID",
          "type": "address"
        }
      ],
      "name": "RecoverySuccess",
      "type": "event"
    },
    {
      "anonymous": false,
      "inputs": [
        {
          "indexed": true,
          "internalType": "address",
          "name": "_userAddress",
          "type": "address"
        },
        {
          "indexed": false,
          "internalType": "uint256",
          "name": "_amount",
          "type": "uint256"
        }
      ],
      "name": "TokensFrozen",
      "type": "event"
    },
    {
      "anonymous": false,
      "inputs": [
        {
          "indexed": true,
          "internalType": "address",
          "name": "_userAddress",
          "type": "address"
        },
        {
          "indexed": false,
          "internalType": "uint256",
          "name": "_amount",
          "type": "uint256"
        }
      ],
      "name": "TokensUnfrozen",
      "type": "event"
    },
    {
      "anonymous": false,
      "inputs": [
        {
          "indexed": true,
          "internalType": "address",
          "name": "from",
          "type": "address"
        },
        {
          "indexed": true,
          "internalType": "address",
          "name": "to",
          "type": "address"
        },
        {
          "indexed": false,
          "internalType": "uint256",
          "name": "value",
          "type": "uint256"
        }
      ],
      "name": "Transfer",
      "type": "event"
    },
    {
      "anonymous": false,
      "inputs": [
        {
          "indexed": false,
          "internalType": "address",
          "name": "_userAddress",
          "type": "address"
        }
      ],
      "name": "Unpaused",
      "type": "event"
    },
    {
      "anonymous": false,
      "inputs": [
        {
          "indexed": true,
          "internalType": "string",
          "name": "_newName",
          "type": "string"
        },
        {
          "indexed": true,
          "internalType": "string",
          "name": "_newSymbol",
          "type": "string"
        },
        {
          "indexed": false,
          "internalType": "uint8",
          "name": "_newDecimals",
          "type": "uint8"
        },
        {
          "indexed": false,
          "internalType": "string",
          "name": "_newVersion",
          "type": "string"
        },
        {
          "indexed": true,
          "internalType": "address",
          "name": "_newOnchainID",
          "type": "address"
        }
      ],
      "name": "UpdatedTokenInformation",
      "type": "event"
    },
    {
      "inputs": [
        {
          "internalType": "address",
          "name": "_agent",
          "type": "address"
        }
      ],
      "name": "addAgent",
      "outputs": [],
      "stateMutability": "nonpayable",
      "type": "function"
    },
    {
      "inputs": [
        {
          "internalType": "address",
          "name": "_owner",
          "type": "address"
        },
        {
          "internalType": "address",
          "name": "_spender",
          "type": "address"
        }
      ],
      "name": "allowance",
      "outputs": [
        {
          "internalType": "uint256",
          "name": "",
          "type": "uint256"
        }
      ],
      "stateMutability": "view",
      "type": "function"
    },
    {
      "inputs": [
        {
          "internalType": "address",
          "name": "_spender",
          "type": "address"
        },
        {
          "internalType": "uint256",
          "name": "_amount",
          "type": "uint256"
        }
      ],
      "name": "approve",
      "outputs": [
        {
          "internalType": "bool",
          "name": "",
          "type": "bool"
        }
      ],
      "stateMutability": "nonpayable",
      "type": "function"
    },
    {
      "inputs": [
        {
          "internalType": "address",
          "name": "_userAddress",
          "type": "address"
        }
      ],
      "name": "balanceOf",
      "outputs": [
        {
          "internalType": "uint256",
          "name": "",
          "type": "uint256"
        }
      ],
      "stateMutability": "view",
      "type": "function"
    },
    {
      "inputs": [
        {
          "internalType": "address[]",
          "name": "_userAddresses",
          "type": "address[]"
        },
        {
          "internalType": "uint256[]",
          "name": "_amounts",
          "type": "uint256[]"
        }
      ],
      "name": "batchBurn",
      "outputs": [],
      "stateMutability": "nonpayable",
      "type": "function"
    },
    {
      "inputs": [
        {
          "internalType": "address[]",
          "name": "_fromList",
          "type": "address[]"
        },
        {
          "internalType": "address[]",
          "name": "_toList",
          "type": "address[]"
        },
        {
          "internalType": "uint256[]",
          "name": "_amounts",
          "type": "uint256[]"
        }
      ],
      "name": "batchForcedTransfer",
      "outputs": [],
      "stateMutability": "nonpayable",
      "type": "function"
    },
    {
      "inputs": [
        {
          "internalType": "address[]",
          "name": "_userAddresses",
          "type": "address[]"
        },
        {
          "internalType": "uint256[]",
          "name": "_amounts",
          "type": "uint256[]"
        }
      ],
      "name": "batchFreezePartialTokens",
      "outputs": [],
      "stateMutability": "nonpayable",
      "type": "function"
    },
    {
      "inputs": [
        {
          "internalType": "address[]",
          "name": "_toList",
          "type": "address[]"
        },
        {
          "internalType": "uint256[]",
          "name": "_amounts",
          "type": "uint256[]"
        }
      ],
      "name": "batchMint",
      "outputs": [],
      "stateMutability": "nonpayable",
      "type": "function"
    },
    {
      "inputs": [
        {
          "internalType": "address[]",
          "name": "_userAddresses",
          "type": "address[]"
        },
        {
          "internalType": "bool[]",
          "name": "_freeze",
          "type": "bool[]"
        }
      ],
      "name": "batchSetAddressFrozen",
      "outputs": [],
      "stateMutability": "nonpayable",
      "type": "function"
    },
    {
      "inputs": [
        {
          "internalType": "address[]",
          "name": "_toList",
          "type": "address[]"
        },
        {
          "internalType": "uint256[]",
          "name": "_amounts",
          "type": "uint256[]"
        }
      ],
      "name": "batchTransfer",
      "outputs": [],
      "stateMutability": "nonpayable",
      "type": "function"
    },
    {
      "inputs": [
        {
          "internalType": "address[]",
          "name": "_userAddresses",
          "type": "address[]"
        },
        {
          "internalType": "uint256[]",
          "name": "_amounts",
          "type": "uint256[]"
        }
      ],
      "name": "batchUnfreezePartialTokens",
      "outputs": [],
      "stateMutability": "nonpayable",
      "type": "function"
    },
    {
      "inputs": [
        {
          "internalType": "address",
          "name": "_userAddress",
          "type": "address"
        },
        {
          "internalType": "uint256",
          "name": "_amount",
          "type": "uint256"
        }
      ],
      "name": "burn",
      "outputs": [],
      "stateMutability": "nonpayable",
      "type": "function"
    },
    {
      "inputs": [],
      "name": "compliance",
      "outputs": [
        {
          "internalType": "contract IModularCompliance",
          "name": "",
          "type": "address"
        }
      ],
      "stateMutability": "view",
      "type": "function"
    },
    {
      "inputs": [],
      "name": "decimals",
      "outputs": [
        {
          "internalType": "uint8",
          "name": "",
          "type": "uint8"
        }
      ],
      "stateMutability": "view",
      "type": "function"
    },
    {
      "inputs": [
        {
          "internalType": "address",
          "name": "_spender",
          "type": "address"
        },
        {
          "internalType": "uint256",
          "name": "_subtractedValue",
          "type": "uint256"
        }
      ],
      "name": "decreaseAllowance",
      "outputs": [
        {
          "internalType": "bool",
          "name": "",
          "type": "bool"
        }
      ],
      "stateMutability": "nonpayable",
      "type": "function"
    },
    {
      "inputs": [
        {
          "internalType": "address",
          "name": "_from",
          "type": "address"
        },
        {
          "internalType": "address",
          "name": "_to",
          "type": "address"
        },
        {
          "internalType": "uint256",
          "name": "_amount",
          "type": "uint256"
        }
      ],
      "name": "forcedTransfer",
      "outputs": [
        {
          "internalType": "bool",
          "name": "",
          "type": "bool"
        }
      ],
      "stateMutability": "nonpayable",
      "type": "function"
    },
    {
      "inputs": [
        {
          "internalType": "address",
          "name": "_userAddress",
          "type": "address"
        },
        {
          "internalType": "uint256",
          "name": "_amount",
          "type": "uint256"
        }
      ],
      "name": "freezePartialTokens",
      "outputs": [],
      "stateMutability": "nonpayable",
      "type": "function"
    },
    {
      "inputs": [
        {
          "internalType": "address",
          "name": "_userAddress",
          "type": "address"
        }
      ],
      "name": "getFrozenTokens",
      "outputs": [
        {
          "internalType": "uint256",
          "name": "",
          "type": "uint256"
        }
      ],
      "stateMutability": "view",
      "type": "function"
    },
    {
      "inputs": [],
      "name": "identityRegistry",
      "outputs": [
        {
          "internalType": "contract IIdentityRegistry",
          "name": "",
          "type": "address"
        }
      ],
      "stateMutability": "view",
      "type": "function"
    },
    {
      "inputs": [
        {
          "internalType": "address",
          "name": "_spender",
          "type": "address"
        },
        {
          "internalType": "uint256",
          "name": "_addedValue",
          "type": "uint256"
        }
      ],
      "name": "increaseAllowance",
      "outputs": [
        {
          "internalType": "bool",
          "name": "",
          "type": "bool"
        }
      ],
      "stateMutability": "nonpayable",
      "type": "function"
    },
    {
      "inputs": [
        {
          "internalType": "address",
          "name": "_identityRegistry",
          "type": "address"
        },
        {
          "internalType": "address",
          "name": "_compliance",
          "type": "address"
        },
        {
          "internalType": "string",
          "name": "_name",
          "type": "string"
        },
        {
          "internalType": "string",
          "name": "_symbol",
          "type": "string"
        },
        {
          "internalType": "uint8",
          "name": "_decimals",
          "type": "uint8"
        },
        {
          "internalType": "address",
          "name": "_onchainID",
          "type": "address"
        }
      ],
      "name": "init",
      "outputs": [],
      "stateMutability": "nonpayable",
      "type": "function"
    },
    {
      "inputs": [
        {
          "internalType": "address",
          "name": "_agent",
          "type": "address"
        }
      ],
      "name": "isAgent",
      "outputs": [
        {
          "internalType": "bool",
          "name": "",
          "type": "bool"
        }
      ],
      "stateMutability": "view",
      "type": "function"
    },
    {
      "inputs": [
        {
          "internalType": "address",
          "name": "_userAddress",
          "type": "address"
        }
      ],
      "name": "isFrozen",
      "outputs": [
        {
          "internalType": "bool",
          "name": "",
          "type": "bool"
        }
      ],
      "stateMutability": "view",
      "type": "function"
    },
    {
      "inputs": [
        {
          "internalType": "address",
          "name": "_to",
          "type": "address"
        },
        {
          "internalType": "uint256",
          "name": "_amount",
          "type": "uint256"
        }
      ],
      "name": "mint",
      "outputs": [],
      "stateMutability": "nonpayable",
      "type": "function"
    },
    {
      "inputs": [],
      "name": "name",
      "outputs": [
        {
          "internalType": "string",
          "name": "",
          "type": "string"
        }
      ],
      "stateMutability": "view",
      "type": "function"
    },
    {
      "inputs": [],
      "name": "onchainID",
      "outputs": [
        {
          "internalType": "address",
          "name": "",
          "type": "address"
        }
      ],
      "stateMutability": "view",
      "type": "function"
    },
    {
      "inputs": [],
      "name": "owner",
      "outputs": [
        {
          "internalType": "address",
          "name": "",
          "type": "address"
        }
      ],
      "stateMutability": "view",
      "type": "function"
    },
    {
      "inputs": [],
      "name": "pause",
      "outputs": [],
      "stateMutability": "nonpayable",
      "type": "function"
    },
    {
      "inputs": [],
      "name": "paused",
      "outputs": [
        {
          "internalType": "bool",
          "name": "",
          "type": "bool"
        }
      ],
      "stateMutability": "view",
      "type": "function"
    },
    {
      "inputs": [
        {
          "internalType": "address",
          "name": "_lostWallet",
          "type": "address"
        },
        {
          "internalType": "address",
          "name": "_newWallet",
          "type": "address"
        },
        {
          "internalType": "address",
          "name": "_investorOnchainID",
          "type": "address"
        }
      ],
      "name": "recoveryAddress",
      "outputs": [
        {
          "internalType": "bool",
          "name": "",
          "type": "bool"
        }
      ],
      "stateMutability": "nonpayable",
      "type": "function"
    },
    {
      "inputs": [
        {
          "internalType": "address",
          "name": "_agent",
          "type": "address"
        }
      ],
      "name": "removeAgent",
      "outputs": [],
      "stateMutability": "nonpayable",
      "type": "function"
    },
    {
      "inputs": [],
      "name": "renounceOwnership",
      "outputs": [],
      "stateMutability": "nonpayable",
      "type": "function"
    },
    {
      "inputs": [
        {
          "internalType": "address",
          "name": "_userAddress",
          "type": "address"
        },
        {
          "internalType": "bool",
          "name": "_freeze",
          "type": "bool"
        }
      ],
      "name": "setAddressFrozen",
      "outputs": [],
      "stateMutability": "nonpayable",
      "type": "function"
    },
    {
      "inputs": [
        {
          "internalType": "address",
          "name": "_compliance",
          "type": "address"
        }
      ],
      "name": "setCompliance",
      "outputs": [],
      "stateMutability": "nonpayable",
      "type": "function"
    },
    {
      "inputs": [
        {
          "internalType": "address",
          "name": "_identityRegistry",
          "type": "address"
        }
      ],
      "name": "setIdentityRegistry",
      "outputs": [],
      "stateMutability": "nonpayable",
      "type": "function"
    },
    {
      "inputs": [
        {
          "internalType": "string",
          "name": "_name",
          "type": "string"
        }
      ],
      "name": "setName",
      "outputs": [],
      "stateMutability": "nonpayable",
      "type": "function"
    },
    {
      "inputs": [
        {
          "internalType": "address",
          "name": "_onchainID",
          "type": "address"
        }
      ],
      "name": "setOnchainID",
      "outputs": [],
      "stateMutability": "nonpayable",
      "type": "function"
    },
    {
      "inputs": [
        {
          "internalType": "string",
          "name": "_symbol",
          "type": "string"
        }
      ],
      "name": "setSymbol",
      "outputs": [],
      "stateMutability": "nonpayable",
      "type": "function"
    },
    {
      "inputs": [],
      "name": "symbol",
      "outputs": [
        {
          "internalType": "string",
          "name": "",
          "type": "string"
        }
      ],
      "stateMutability": "view",
      "type": "function"
    },
    {
      "inputs": [],
      "name": "totalSupply",
      "outputs": [
        {
          "internalType": "uint256",
          "name": "",
          "type": "uint256"
        }
      ],
      "stateMutability": "view",
      "type": "function"
    },
    {
      "inputs": [
        {
          "internalType": "address",
          "name": "_to",
          "type": "address"
        },
        {
          "internalType": "uint256",
          "name": "_amount",
          "type": "uint256"
        }
      ],
      "name": "transfer",
      "outputs": [
        {
          "internalType": "bool",
          "name": "",
          "type": "bool"
        }
      ],
      "stateMutability": "nonpayable",
      "type": "function"
    },
    {
      "inputs": [
        {
          "internalType": "address",
          "name": "_from",
          "type": "address"
        },
        {
          "internalType": "address",
          "name": "_to",
          "type": "address"
        },
        {
          "internalType": "uint256",
          "name": "_amount",
          "type": "uint256"
        }
      ],
      "name": "transferFrom",
      "outputs": [
        {
          "internalType": "bool",
          "name": "",
          "type": "bool"
        }
      ],
      "stateMutability": "nonpayable",
      "type": "function"
    },
    {
      "inputs": [
        {
          "internalType": "address",
          "name": "newOwner",
          "type": "address"
        }
      ],
      "name": "transferOwnership",
      "outputs": [],
      "stateMutability": "nonpayable",
      "type": "function"
    },
    {
      "inputs": [
        {
          "internalType": "address",
          "name": "_userAddress",
          "type": "address"
        },
        {
          "internalType": "uint256",
          "name": "_amount",
          "type": "uint256"
        }
      ],
      "name": "unfreezePartialTokens",
      "outputs": [],
      "stateMutability": "nonpayable",
      "type": "function"
    },
    {
      "inputs": [],
      "name": "unpause",
      "outputs": [],
      "stateMutability": "nonpayable",
      "type": "function"
    },
    {
      "inputs": [],
      "name": "version",
      "outputs": [
        {
          "internalType": "string",
          "name": "",
          "type": "string"
        }
      ],
      "stateMutability": "pure",
      "type": "function"
    }
  ],
  "bytecode": {
    "object": "0x60806040526009805460ff1916905534801561001a57600080fd5b506141598061002a6000396000f3fe608060405234801561001057600080fd5b506004361061030a5760003560e01c8063715018a61161019c578063a9059cbb116100ee578063dd62ed3e11610097578063f898178911610071578063f8981789146106f4578063f91b619c14610707578063fc7e5fa81461071a57600080fd5b8063dd62ed3e1461067c578063e5839836146106b5578063f2fde38b146106e157600080fd5b8063c47f0027116100c8578063c47f002714610643578063c69c09cf14610656578063cbf3f8611461066957600080fd5b8063a9059cbb14610607578063aba637051461061a578063b84c82461461063057600080fd5b80639285948a116101505780639dc29fac1161012a5780639dc29fac146105ce5780639fc1d0e7146105e1578063a457c2d7146105f457600080fd5b80639285948a146105a057806395d89b41146105b357806397a6278e146105bb57600080fd5b806384e798421161018157806384e798421461054a57806388d695b21461055d5780638da5cb5b1461057057600080fd5b8063715018a61461053a5780638456cb591461054257600080fd5b806339509351116102605780634a6cc677116102095780636290865d116101e35780636290865d146104ed57806368573107146104fe57806370a082311461051157600080fd5b80634a6cc6771461049657806354fd4d50146104a95780635c975abb146104e257600080fd5b806340c10f191161023a57806340c10f191461045d57806342a47abc146104705780634710362d1461048357600080fd5b8063395093511461042f5780633d1ddc5b146104425780633f4ba83a1461045557600080fd5b806318160ddd116102c25780631ffbb0641161029c5780631ffbb064146103f457806323b872dd14610407578063313ce5671461041a57600080fd5b806318160ddd146103c65780631a7af379146103ce5780631fe56f7d146103e157600080fd5b8063125c4a33116102f3578063125c4a3314610350578063134e18f414610365578063158b1a571461038f57600080fd5b806306fdde031461030f578063095ea7b31461032d575b600080fd5b61031761072d565b6040516103249190613840565b60405180910390f35b61034061033b36600461386f565b6107bf565b6040519015158152602001610324565b61036361035e36600461386f565b6107d6565b005b60095461010090046001600160a01b03165b6040516001600160a01b039091168152602001610324565b6103b861039d366004613899565b6001600160a01b031660009081526008602052604090205490565b604051908152602001610324565b6003546103b8565b6103636103dc366004613900565b610955565b6103636103ef36600461386f565b6109ca565b610340610402366004613899565b610b52565b61034061041536600461396c565b610b5e565b60065460405160ff9091168152602001610324565b61034061043d36600461386f565b610f14565b610363610450366004613899565b610f4b565b610363611038565b61036361046b36600461386f565b611145565b61036361047e3660046139a8565b611407565b610363610491366004613900565b61149d565b6103636104a4366004613900565b611502565b60408051808201909152600581527f342e312e310000000000000000000000000000000000000000000000000000006020820152610317565b60095460ff16610340565b600a546001600160a01b0316610377565b61036361050c366004613900565b611567565b6103b861051f366004613899565b6001600160a01b031660009081526001602052604090205490565b6103636115cc565b6103636115e0565b610363610558366004613899565b6116eb565b61036361056b366004613900565b61178b565b7f9016d09d72d40fdae2fd8ceac6b6234c7706214fd39c1cd1e609a0528c199300546001600160a01b0316610377565b6103406105ae366004613a42565b6117f1565b610317611c3b565b6103636105c9366004613899565b611c4a565b6103636105dc36600461386f565b611cea565b6103406105ef36600461396c565b611f1c565b61034061060236600461386f565b6121f9565b61034061061536600461386f565b612230565b60065461010090046001600160a01b0316610377565b61036361063e366004613a85565b612546565b610363610651366004613a85565b6126ba565b610363610664366004613b05565b612776565b610363610677366004613899565b612846565b6103b861068a366004613b3c565b6001600160a01b03918216600090815260026020908152604080832093909416825291909152205490565b6103406106c3366004613899565b6001600160a01b031660009081526007602052604090205460ff1690565b6103636106ef366004613899565b6128b7565b610363610702366004613899565b61290e565b610363610715366004613c2b565b612a72565b610363610728366004613900565b612f72565b60606004805461073c90613cd8565b80601f016020809104026020016040519081016040528092919081815260200182805461076890613cd8565b80156107b55780601f1061078a576101008083540402835291602001916107b5565b820191906000526020600020905b81548152906001019060200180831161079857829003601f168201915b5050505050905090565b60006107cc338484612fd7565b5060015b92915050565b6107df33610b52565b6108565760405162461bcd60e51b815260206004820152602e60248201527f4167656e74526f6c653a2063616c6c657220646f6573206e6f7420686176652060448201527f746865204167656e7420726f6c6500000000000000000000000000000000000060648201526084015b60405180910390fd5b6001600160a01b038216600090815260016020908152604080832054600890925290912054610886908390613d5a565b8110156108d55760405162461bcd60e51b815260206004820181905260248201527f416d6f756e74206578636565647320617661696c61626c652062616c616e6365604482015260640161084d565b6001600160a01b0383166000908152600860205260409020546108f9908390613d5a565b6001600160a01b038416600081815260086020526040908190209290925590517fa065e63c631c86f1b9f66a4a2f63f2093bf1c2168d23290259dbd969e0222a45906109489085815260200190565b60405180910390a2505050565b60005b838110156109c3576109b185858381811061097557610975613d6d565b905060200201602081019061098a9190613899565b84848481811061099c5761099c613d6d565b90506020020160208101906106649190613d9c565b806109bb81613db9565b915050610958565b5050505050565b6109d333610b52565b610a455760405162461bcd60e51b815260206004820152602e60248201527f4167656e74526f6c653a2063616c6c657220646f6573206e6f7420686176652060448201527f746865204167656e7420726f6c65000000000000000000000000000000000000606482015260840161084d565b6001600160a01b038216600090815260086020526040902054811115610ad35760405162461bcd60e51b815260206004820152603460248201527f416d6f756e742073686f756c64206265206c657373207468616e206f7220657160448201527f75616c20746f2066726f7a656e20746f6b656e73000000000000000000000000606482015260840161084d565b6001600160a01b038216600090815260086020526040902054610af7908290613df1565b6001600160a01b038316600081815260086020526040908190209290925590517f9bed35cb62ad0dba04f9d5bfee4b5bc91443e77da8a65c4c84834c51bb08b0d690610b469084815260200190565b60405180910390a25050565b60006107d08183613130565b60095460009060ff1615610bb45760405162461bcd60e51b815260206004820152601060248201527f5061757361626c653a2070617573656400000000000000000000000000000000604482015260640161084d565b6001600160a01b03831660009081526007602052604090205460ff16158015610bf657506001600160a01b03841660009081526007602052604090205460ff16155b610c425760405162461bcd60e51b815260206004820152601060248201527f77616c6c65742069732066726f7a656e00000000000000000000000000000000604482015260640161084d565b6001600160a01b038416600090815260086020908152604080832054600190925290912054610c719190613df1565b821115610cc05760405162461bcd60e51b815260206004820152601460248201527f496e73756666696369656e742042616c616e6365000000000000000000000000604482015260640161084d565b6009546040517fb9209e330000000000000000000000000000000000000000000000000000000081526001600160a01b0385811660048301526101009092049091169063b9209e3390602401602060405180830381865afa158015610d29573d6000803e3d6000fd5b505050506040513d601f19601f82011682018060405250810190610d4d9190613e04565b8015610dea5750600a546040517fe46638e60000000000000000000000000000000000000000000000000000000081526001600160a01b0386811660048301528581166024830152604482018590529091169063e46638e690606401602060405180830381865afa158015610dc6573d6000803e3d6000fd5b505050506040513d601f19601f82011682018060405250810190610dea9190613e04565b15610ec5576001600160a01b038416600090815260026020908152604080832033808552925290912054610e2a918691610e25908690613df1565b612fd7565b610e358484846131ce565b600a546040517f8baf29b40000000000000000000000000000000000000000000000000000000081526001600160a01b03868116600483015285811660248301526044820185905290911690638baf29b490606401600060405180830381600087803b158015610ea457600080fd5b505af1158015610eb8573d6000803e3d6000fd5b5050505060019050610f0d565b60405162461bcd60e51b815260206004820152601560248201527f5472616e73666572206e6f7420706f737369626c650000000000000000000000604482015260640161084d565b9392505050565b3360008181526002602090815260408083206001600160a01b038716845290915281205490916107cc918590610e25908690613d5a565b610f5361336e565b600680547fffffffffffffffffffffff0000000000000000000000000000000000000000ff166101006001600160a01b038481168202929092179283905560405192041690610fa490600590613e21565b60405180910390206004604051610fbb9190613e21565b604080519182900382206006548383018352600584527f342e312e310000000000000000000000000000000000000000000000000000006020850152915190927f6a1105ac8148a3c319adbc369f9072573e8a11d3a3d195e067e7c40767ec54d19261102d9260ff9091169190613e97565b60405180910390a450565b61104133610b52565b6110b35760405162461bcd60e51b815260206004820152602e60248201527f4167656e74526f6c653a2063616c6c657220646f6573206e6f7420686176652060448201527f746865204167656e7420726f6c65000000000000000000000000000000000000606482015260840161084d565b60095460ff166111055760405162461bcd60e51b815260206004820152601460248201527f5061757361626c653a206e6f7420706175736564000000000000000000000000604482015260640161084d565b6009805460ff191690556040513381527f5db9ee0a495bf2e6ff9c91a7834c1ba4fdd244a5e8aa4e537bd38aeae4b073aa906020015b60405180910390a1565b61114e33610b52565b6111c05760405162461bcd60e51b815260206004820152602e60248201527f4167656e74526f6c653a2063616c6c657220646f6573206e6f7420686176652060448201527f746865204167656e7420726f6c65000000000000000000000000000000000000606482015260840161084d565b6009546040517fb9209e330000000000000000000000000000000000000000000000000000000081526001600160a01b0384811660048301526101009092049091169063b9209e3390602401602060405180830381865afa158015611229573d6000803e3d6000fd5b505050506040513d601f19601f8201168201806040525081019061124d9190613e04565b6112995760405162461bcd60e51b815260206004820152601960248201527f4964656e74697479206973206e6f742076657269666965642e00000000000000604482015260640161084d565b600a546040517fe46638e6000000000000000000000000000000000000000000000000000000008152600060048201526001600160a01b038481166024830152604482018490529091169063e46638e690606401602060405180830381865afa15801561130a573d6000803e3d6000fd5b505050506040513d601f19601f8201168201806040525081019061132e9190613e04565b61137a5760405162461bcd60e51b815260206004820152601760248201527f436f6d706c69616e6365206e6f7420666f6c6c6f776564000000000000000000604482015260640161084d565b61138482826133e2565b600a546040517f5f8dead30000000000000000000000000000000000000000000000000000000081526001600160a01b0384811660048301526024820184905290911690635f8dead390604401600060405180830381600087803b1580156113eb57600080fd5b505af11580156113ff573d6000803e3d6000fd5b505050505050565b60005b858110156114945761148187878381811061142757611427613d6d565b905060200201602081019061143c9190613899565b86868481811061144e5761144e613d6d565b90506020020160208101906114639190613899565b85858581811061147557611475613d6d565b90506020020135611f1c565b508061148c81613db9565b91505061140a565b50505050505050565b60005b838110156109c3576114f08585838181106114bd576114bd613d6d565b90506020020160208101906114d29190613899565b8484848181106114e4576114e4613d6d565b905060200201356109ca565b806114fa81613db9565b9150506114a0565b60005b838110156109c35761155585858381811061152257611522613d6d565b90506020020160208101906115379190613899565b84848481811061154957611549613d6d565b90506020020135611cea565b8061155f81613db9565b915050611505565b60005b838110156109c3576115ba85858381811061158757611587613d6d565b905060200201602081019061159c9190613899565b8484848181106115ae576115ae613d6d565b90506020020135611145565b806115c481613db9565b91505061156a565b6115d461336e565b6115de60006134ca565b565b6115e933610b52565b61165b5760405162461bcd60e51b815260206004820152602e60248201527f4167656e74526f6c653a2063616c6c657220646f6573206e6f7420686176652060448201527f746865204167656e7420726f6c65000000000000000000000000000000000000606482015260840161084d565b60095460ff16156116ae5760405162461bcd60e51b815260206004820152601060248201527f5061757361626c653a2070617573656400000000000000000000000000000000604482015260640161084d565b6009805460ff191660011790556040513381527f62e78cea01bee320cd4e420270b5ea74000d11b0c9f74754ebdbfc544b05a2589060200161113b565b6116f361336e565b6001600160a01b0381166117495760405162461bcd60e51b815260206004820152601f60248201527f696e76616c696420617267756d656e74202d207a65726f206164647265737300604482015260640161084d565b611754600082613553565b6040516001600160a01b038216907ff68e73cec97f2d70aa641fb26e87a4383686e2efacb648f2165aeb02ac562ec590600090a250565b60005b838110156109c3576117de8585838181106117ab576117ab613d6d565b90506020020160208101906117c09190613899565b8484848181106117d2576117d2613d6d565b90506020020135612230565b50806117e981613db9565b91505061178e565b60006117fc33610b52565b61186e5760405162461bcd60e51b815260206004820152602e60248201527f4167656e74526f6c653a2063616c6c657220646f6573206e6f7420686176652060448201527f746865204167656e7420726f6c65000000000000000000000000000000000000606482015260840161084d565b6001600160a01b0384166000908152600160205260409020546000036118d65760405162461bcd60e51b815260206004820152601460248201527f6e6f20746f6b656e7320746f207265636f766572000000000000000000000000604482015260640161084d565b604080516001600160a01b038516602082015283916000910160408051808303601f190181529082905280516020909101207fd202158d000000000000000000000000000000000000000000000000000000008252600482018190526001602483015291506001600160a01b0383169063d202158d90604401602060405180830381865afa15801561196c573d6000803e3d6000fd5b505050506040513d601f19601f820116820180604052508101906119909190613e04565b15611bf3576001600160a01b0386811660008181526001602090815260408083205460088352928190205460095482517f7e42683b0000000000000000000000000000000000000000000000000000000081526004810196909652915193959094610100909204169263454a03e0928b9289928692637e42683b92602480820193918290030181865afa158015611a2b573d6000803e3d6000fd5b505050506040513d601f19601f82011682018060405250810190611a4f9190613ebb565b6040517fffffffff0000000000000000000000000000000000000000000000000000000060e086901b1681526001600160a01b03938416600482015292909116602483015261ffff166044820152606401600060405180830381600087803b158015611aba57600080fd5b505af1158015611ace573d6000803e3d6000fd5b50505050611add888884611f1c565b508015611aee57611aee87826107d6565b6001600160a01b03881660009081526007602052604090205460ff161515600103611b1e57611b1e876001612776565b6009546040517fa8d29d1d0000000000000000000000000000000000000000000000000000000081526001600160a01b038a811660048301526101009092049091169063a8d29d1d90602401600060405180830381600087803b158015611b8457600080fd5b505af1158015611b98573d6000803e3d6000fd5b50505050856001600160a01b0316876001600160a01b0316896001600160a01b03167ff0c9129a94f30f1caaceb63e44b9811d0a3edf1d6c23757f346093af5553fed060405160405180910390a46001945050505050610f0d565b60405162461bcd60e51b815260206004820152601560248201527f5265636f76657279206e6f7420706f737369626c650000000000000000000000604482015260640161084d565b60606005805461073c90613cd8565b611c5261336e565b6001600160a01b038116611ca85760405162461bcd60e51b815260206004820152601f60248201527f696e76616c696420617267756d656e74202d207a65726f206164647265737300604482015260640161084d565b611cb36000826135cf565b6040516001600160a01b038216907fed9c8ad8d5a0a66898ea49d2956929c93ae2e8bd50281b2ed897c5d1a6737e0b90600090a250565b611cf333610b52565b611d655760405162461bcd60e51b815260206004820152602e60248201527f4167656e74526f6c653a2063616c6c657220646f6573206e6f7420686176652060448201527f746865204167656e7420726f6c65000000000000000000000000000000000000606482015260840161084d565b80611d85836001600160a01b031660009081526001602052604090205490565b1015611dd35760405162461bcd60e51b815260206004820152601d60248201527f63616e6e6f74206275726e206d6f7265207468616e2062616c616e6365000000604482015260640161084d565b6001600160a01b0382166000908152600860209081526040808320546001909252822054611e019190613df1565b905080821115611e97576000611e178284613df1565b6001600160a01b038516600090815260086020526040902054909150611e3e908290613df1565b6001600160a01b038516600081815260086020526040908190209290925590517f9bed35cb62ad0dba04f9d5bfee4b5bc91443e77da8a65c4c84834c51bb08b0d690611e8d9084815260200190565b60405180910390a2505b611ea1838361366d565b600a546040517f8d2ea7720000000000000000000000000000000000000000000000000000000081526001600160a01b0385811660048301526024820185905290911690638d2ea77290604401600060405180830381600087803b158015611f0857600080fd5b505af1158015611494573d6000803e3d6000fd5b6000611f2733610b52565b611f995760405162461bcd60e51b815260206004820152602e60248201527f4167656e74526f6c653a2063616c6c657220646f6573206e6f7420686176652060448201527f746865204167656e7420726f6c65000000000000000000000000000000000000606482015260840161084d565b81611fb9856001600160a01b031660009081526001602052604090205490565b10156120075760405162461bcd60e51b815260206004820152601660248201527f73656e6465722062616c616e636520746f6f206c6f7700000000000000000000604482015260640161084d565b6001600160a01b03841660009081526008602090815260408083205460019092528220546120359190613df1565b9050808311156120cb57600061204b8285613df1565b6001600160a01b038716600090815260086020526040902054909150612072908290613df1565b6001600160a01b038716600081815260086020526040908190209290925590517f9bed35cb62ad0dba04f9d5bfee4b5bc91443e77da8a65c4c84834c51bb08b0d6906120c19084815260200190565b60405180910390a2505b6009546040517fb9209e330000000000000000000000000000000000000000000000000000000081526001600160a01b0386811660048301526101009092049091169063b9209e3390602401602060405180830381865afa158015612134573d6000803e3d6000fd5b505050506040513d601f19601f820116820180604052508101906121589190613e04565b15610ec5576121688585856131ce565b600a546040517f8baf29b40000000000000000000000000000000000000000000000000000000081526001600160a01b03878116600483015286811660248301526044820186905290911690638baf29b490606401600060405180830381600087803b1580156121d757600080fd5b505af11580156121eb573d6000803e3d6000fd5b505050506001915050610f0d565b3360008181526002602090815260408083206001600160a01b038716845290915281205490916107cc918590610e25908690613df1565b60095460009060ff16156122865760405162461bcd60e51b815260206004820152601060248201527f5061757361626c653a2070617573656400000000000000000000000000000000604482015260640161084d565b6001600160a01b03831660009081526007602052604090205460ff161580156122bf57503360009081526007602052604090205460ff16155b61230b5760405162461bcd60e51b815260206004820152601060248201527f77616c6c65742069732066726f7a656e00000000000000000000000000000000604482015260640161084d565b336000908152600860209081526040808320546001909252909120546123319190613df1565b8211156123805760405162461bcd60e51b815260206004820152601460248201527f496e73756666696369656e742042616c616e6365000000000000000000000000604482015260640161084d565b6009546040517fb9209e330000000000000000000000000000000000000000000000000000000081526001600160a01b0385811660048301526101009092049091169063b9209e3390602401602060405180830381865afa1580156123e9573d6000803e3d6000fd5b505050506040513d601f19601f8201168201806040525081019061240d9190613e04565b80156124a85750600a546040517fe46638e60000000000000000000000000000000000000000000000000000000081523360048201526001600160a01b038581166024830152604482018590529091169063e46638e690606401602060405180830381865afa158015612484573d6000803e3d6000fd5b505050506040513d601f19601f820116820180604052508101906124a89190613e04565b15610ec5576124b83384846131ce565b600a546040517f8baf29b40000000000000000000000000000000000000000000000000000000081523360048201526001600160a01b0385811660248301526044820185905290911690638baf29b490606401600060405180830381600087803b15801561252557600080fd5b505af1158015612539573d6000803e3d6000fd5b50505050600190506107d0565b61254e61336e565b60405160200161256990602080825260009082015260400190565b604051602081830303815290604052805190602001208282604051602001612592929190613edf565b60405160208183030381529060405280519060200120036125f55760405162461bcd60e51b815260206004820152601f60248201527f696e76616c696420617267756d656e74202d20656d70747920737472696e6700604482015260640161084d565b6005612602828483613f54565b506006546040516101009091046001600160a01b03169061262590600590613e21565b6040518091039020600460405161263c9190613e21565b604080519182900382206006548383018352600584527f342e312e310000000000000000000000000000000000000000000000000000006020850152915190927f6a1105ac8148a3c319adbc369f9072573e8a11d3a3d195e067e7c40767ec54d1926126ae9260ff9091169190613e97565b60405180910390a45050565b6126c261336e565b6040516020016126dd90602080825260009082015260400190565b604051602081830303815290604052805190602001208282604051602001612706929190613edf565b60405160208183030381529060405280519060200120036127695760405162461bcd60e51b815260206004820152601f60248201527f696e76616c696420617267756d656e74202d20656d70747920737472696e6700604482015260640161084d565b6004612602828483613f54565b61277f33610b52565b6127f15760405162461bcd60e51b815260206004820152602e60248201527f4167656e74526f6c653a2063616c6c657220646f6573206e6f7420686176652060448201527f746865204167656e7420726f6c65000000000000000000000000000000000000606482015260840161084d565b6001600160a01b038216600081815260076020526040808220805460ff19168515159081179091559051339391927f7fa523c84ab8d7fc5b72f08b9e46dbbf10c39e119a075b3e317002d14bc9f43691a45050565b61284e61336e565b600980547fffffffffffffffffffffff0000000000000000000000000000000000000000ff166101006001600160a01b038416908102919091179091556040517fd2be862d755bca7e0d39772b2cab3a5578da9c285f69199f4c063c2294a7f36c90600090a250565b6128bf61336e565b6001600160a01b038116612902576040517f1e4fbdf70000000000000000000000000000000000000000000000000000000081526000600482015260240161084d565b61290b816134ca565b50565b61291661336e565b600a546001600160a01b03161561299e57600a546040517f40db3b500000000000000000000000000000000000000000000000000000000081523060048201526001600160a01b03909116906340db3b5090602401600060405180830381600087803b15801561298557600080fd5b505af1158015612999573d6000803e3d6000fd5b505050505b600a80547fffffffffffffffffffffffff0000000000000000000000000000000000000000166001600160a01b0383169081179091556040517f3ff5aa02000000000000000000000000000000000000000000000000000000008152306004820152633ff5aa0290602401600060405180830381600087803b158015612a2357600080fd5b505af1158015612a37573d6000803e3d6000fd5b50506040516001600160a01b03841692507f7f3a888862559648ec01d97deb7b5012bff86dc91e654a1de397170db40e35b69150600090a250565b7ff0c57e16840df040f15088dc2f81fe391c3923bec73e23a9662efc9c229c6a00805468010000000000000000810460ff16159067ffffffffffffffff16600081158015612abd5750825b905060008267ffffffffffffffff166001148015612ada5750303b155b905081158015612ae8575080155b15612b1f576040517ff92ee8a900000000000000000000000000000000000000000000000000000000815260040160405180910390fd5b84547fffffffffffffffffffffffffffffffffffffffffffffffff00000000000000001660011785558315612b805784547fffffffffffffffffffffffffffffffffffffffffffffff00ffffffffffffffff16680100000000000000001785555b6000612bb37f9016d09d72d40fdae2fd8ceac6b6234c7706214fd39c1cd1e609a0528c199300546001600160a01b031690565b6001600160a01b031614612c095760405162461bcd60e51b815260206004820152601360248201527f616c726561647920696e697469616c697a656400000000000000000000000000604482015260640161084d565b6001600160a01b038b1615801590612c2957506001600160a01b038a1615155b612c755760405162461bcd60e51b815260206004820152601f60248201527f696e76616c696420617267756d656e74202d207a65726f206164647265737300604482015260640161084d565b604051602001612c9090602080825260009082015260400190565b6040516020818303038152906040528051906020012089604051602001612cb79190613840565b6040516020818303038152906040528051906020012014158015612d315750604051602001612cf190602080825260009082015260400190565b6040516020818303038152906040528051906020012088604051602001612d189190613840565b6040516020818303038152906040528051906020012014155b612d7d5760405162461bcd60e51b815260206004820152601f60248201527f696e76616c696420617267756d656e74202d20656d70747920737472696e6700604482015260640161084d565b60128760ff161115612dd15760405162461bcd60e51b815260206004820152601960248201527f646563696d616c73206265747765656e203020616e6420313800000000000000604482015260640161084d565b612dda33613775565b6004612de68a82614050565b506005612df38982614050565b50600680546001600160a01b038816610100027fffffffffffffffffffffff00000000000000000000000000000000000000000090911660ff8a16171790556009805460ff19166001179055612e488b612846565b612e518a61290e565b6006546040516101009091046001600160a01b031690612e7390600590613e21565b60405180910390206004604051612e8a9190613e21565b604080519182900382206006548383018352600584527f342e312e310000000000000000000000000000000000000000000000000000006020850152915190927f6a1105ac8148a3c319adbc369f9072573e8a11d3a3d195e067e7c40767ec54d192612efc9260ff9091169190613e97565b60405180910390a48315612f655784547fffffffffffffffffffffffffffffffffffffffffffffff00ffffffffffffffff168555604051600181527fc7f505b2f371ae2175ee4913f4499e1f2633a7b5936321eed1cdaeb6115181d29060200160405180910390a15b5050505050505050505050565b60005b838110156109c357612fc5858583818110612f9257612f92613d6d565b9050602002016020810190612fa79190613899565b848484818110612fb957612fb9613d6d565b905060200201356107d6565b80612fcf81613db9565b915050612f75565b6001600160a01b0383166130525760405162461bcd60e51b8152602060048201526024808201527f45524332303a20617070726f76652066726f6d20746865207a65726f2061646460448201527f7265737300000000000000000000000000000000000000000000000000000000606482015260840161084d565b6001600160a01b0382166130ce5760405162461bcd60e51b815260206004820152602260248201527f45524332303a20617070726f766520746f20746865207a65726f20616464726560448201527f7373000000000000000000000000000000000000000000000000000000000000606482015260840161084d565b6001600160a01b0383811660008181526002602090815260408083209487168084529482529182902085905590518481527f8c5be1e5ebec7d5bd14f71427d1e84f3dd0314c0f7b2291e5b200ac8c7c3b92591015b60405180910390a3505050565b60006001600160a01b0382166131ae5760405162461bcd60e51b815260206004820152602260248201527f526f6c65733a206163636f756e7420697320746865207a65726f20616464726560448201527f7373000000000000000000000000000000000000000000000000000000000000606482015260840161084d565b506001600160a01b03166000908152602091909152604090205460ff1690565b6001600160a01b03831661324a5760405162461bcd60e51b815260206004820152602560248201527f45524332303a207472616e736665722066726f6d20746865207a65726f20616460448201527f6472657373000000000000000000000000000000000000000000000000000000606482015260840161084d565b6001600160a01b0382166132c65760405162461bcd60e51b815260206004820152602360248201527f45524332303a207472616e7366657220746f20746865207a65726f206164647260448201527f6573730000000000000000000000000000000000000000000000000000000000606482015260840161084d565b6001600160a01b0383166000908152600160205260409020546132ea908290613df1565b6001600160a01b03808516600090815260016020526040808220939093559084168152205461331a908290613d5a565b6001600160a01b0380841660008181526001602052604090819020939093559151908516907fddf252ad1be2c89b69c2b068fc378daa952ba7f163c4a11628f55a4df523b3ef906131239085815260200190565b336133a07f9016d09d72d40fdae2fd8ceac6b6234c7706214fd39c1cd1e609a0528c199300546001600160a01b031690565b6001600160a01b0316146115de576040517f118cdaa700000000000000000000000000000000000000000000000000000000815233600482015260240161084d565b6001600160a01b0382166134385760405162461bcd60e51b815260206004820152601f60248201527f45524332303a206d696e7420746f20746865207a65726f206164647265737300604482015260640161084d565b806003546134469190613d5a565b6003556001600160a01b03821660009081526001602052604090205461346d908290613d5a565b6001600160a01b0383166000818152600160205260408082209390935591519091907fddf252ad1be2c89b69c2b068fc378daa952ba7f163c4a11628f55a4df523b3ef906134be9085815260200190565b60405180910390a35050565b7f9016d09d72d40fdae2fd8ceac6b6234c7706214fd39c1cd1e609a0528c19930080547fffffffffffffffffffffffff000000000000000000000000000000000000000081166001600160a01b03848116918217845560405192169182907f8be0079c531659141344cd1fd0a4f28419497f9722a3daafe3b4186f6b6457e090600090a3505050565b61355d8282613130565b156135aa5760405162461bcd60e51b815260206004820152601f60248201527f526f6c65733a206163636f756e7420616c72656164792068617320726f6c6500604482015260640161084d565b6001600160a01b0316600090815260209190915260409020805460ff19166001179055565b6135d98282613130565b61364b5760405162461bcd60e51b815260206004820152602160248201527f526f6c65733a206163636f756e7420646f6573206e6f74206861766520726f6c60448201527f6500000000000000000000000000000000000000000000000000000000000000606482015260840161084d565b6001600160a01b0316600090815260209190915260409020805460ff19169055565b6001600160a01b0382166136e95760405162461bcd60e51b815260206004820152602160248201527f45524332303a206275726e2066726f6d20746865207a65726f2061646472657360448201527f7300000000000000000000000000000000000000000000000000000000000000606482015260840161084d565b6001600160a01b03821660009081526001602052604090205461370d908290613df1565b6001600160a01b038316600090815260016020526040902055600354613734908290613df1565b6003556040518181526000906001600160a01b038416907fddf252ad1be2c89b69c2b068fc378daa952ba7f163c4a11628f55a4df523b3ef906020016134be565b61377d61378b565b61290b816137f2565b505050565b7ff0c57e16840df040f15088dc2f81fe391c3923bec73e23a9662efc9c229c6a005468010000000000000000900460ff166115de576040517fd7e6bcf800000000000000000000000000000000000000000000000000000000815260040160405180910390fd5b6128bf61378b565b6000815180845260005b8181101561382057602081850181015186830182015201613804565b506000602082860101526020601f19601f83011685010191505092915050565b602081526000610f0d60208301846137fa565b80356001600160a01b038116811461386a57600080fd5b919050565b6000806040838503121561388257600080fd5b61388b83613853565b946020939093013593505050565b6000602082840312156138ab57600080fd5b610f0d82613853565b60008083601f8401126138c657600080fd5b50813567ffffffffffffffff8111156138de57600080fd5b6020830191508360208260051b85010111156138f957600080fd5b9250929050565b6000806000806040858703121561391657600080fd5b843567ffffffffffffffff8082111561392e57600080fd5b61393a888389016138b4565b9096509450602087013591508082111561395357600080fd5b50613960878288016138b4565b95989497509550505050565b60008060006060848603121561398157600080fd5b61398a84613853565b925061399860208501613853565b9150604084013590509250925092565b600080600080600080606087890312156139c157600080fd5b863567ffffffffffffffff808211156139d957600080fd5b6139e58a838b016138b4565b909850965060208901359150808211156139fe57600080fd5b613a0a8a838b016138b4565b90965094506040890135915080821115613a2357600080fd5b50613a3089828a016138b4565b979a9699509497509295939492505050565b600080600060608486031215613a5757600080fd5b613a6084613853565b9250613a6e60208501613853565b9150613a7c60408501613853565b90509250925092565b60008060208385031215613a9857600080fd5b823567ffffffffffffffff80821115613ab057600080fd5b818501915085601f830112613ac457600080fd5b813581811115613ad357600080fd5b866020828501011115613ae557600080fd5b60209290920196919550909350505050565b801515811461290b57600080fd5b60008060408385031215613b1857600080fd5b613b2183613853565b91506020830135613b3181613af7565b809150509250929050565b60008060408385031215613b4f57600080fd5b613b5883613853565b9150613b6660208401613853565b90509250929050565b7f4e487b7100000000000000000000000000000000000000000000000000000000600052604160045260246000fd5b600082601f830112613baf57600080fd5b813567ffffffffffffffff80821115613bca57613bca613b6f565b604051601f8301601f19908116603f01168101908282118183101715613bf257613bf2613b6f565b81604052838152866020858801011115613c0b57600080fd5b836020870160208301376000602085830101528094505050505092915050565b60008060008060008060c08789031215613c4457600080fd5b613c4d87613853565b9550613c5b60208801613853565b9450604087013567ffffffffffffffff80821115613c7857600080fd5b613c848a838b01613b9e565b95506060890135915080821115613c9a57600080fd5b50613ca789828a01613b9e565b935050608087013560ff81168114613cbe57600080fd5b9150613ccc60a08801613853565b90509295509295509295565b600181811c90821680613cec57607f821691505b602082108103613d25577f4e487b7100000000000000000000000000000000000000000000000000000000600052602260045260246000fd5b50919050565b7f4e487b7100000000000000000000000000000000000000000000000000000000600052601160045260246000fd5b808201808211156107d0576107d0613d2b565b7f4e487b7100000000000000000000000000000000000000000000000000000000600052603260045260246000fd5b600060208284031215613dae57600080fd5b8135610f0d81613af7565b60007fffffffffffffffffffffffffffffffffffffffffffffffffffffffffffffffff8203613dea57613dea613d2b565b5060010190565b818103818111156107d0576107d0613d2b565b600060208284031215613e1657600080fd5b8151610f0d81613af7565b6000808354613e2f81613cd8565b60018281168015613e475760018114613e5c57613e8b565b60ff1984168752821515830287019450613e8b565b8760005260208060002060005b85811015613e825781548a820152908401908201613e69565b50505082870194505b50929695505050505050565b60ff83168152604060208201526000613eb360408301846137fa565b949350505050565b600060208284031215613ecd57600080fd5b815161ffff81168114610f0d57600080fd5b60208152816020820152818360408301376000818301604090810191909152601f909201601f19160101919050565b601f82111561378657600081815260208120601f850160051c81016020861015613f355750805b601f850160051c820191505b818110156113ff57828155600101613f41565b67ffffffffffffffff831115613f6c57613f6c613b6f565b613f8083613f7a8354613cd8565b83613f0e565b6000601f841160018114613fd25760008515613f9c5750838201355b7fffffffffffffffffffffffffffffffffffffffffffffffffffffffffffffffff600387901b1c1916600186901b1783556109c3565b600083815260209020601f19861690835b828110156140035786850135825560209485019460019092019101613fe3565b508682101561403e577fffffffffffffffffffffffffffffffffffffffffffffffffffffffffffffffff60f88860031b161c19848701351681555b505060018560011b0183555050505050565b815167ffffffffffffffff81111561406a5761406a613b6f565b61407e816140788454613cd8565b84613f0e565b602080601f8311600181146140d1576000841561409b5750858301515b7fffffffffffffffffffffffffffffffffffffffffffffffffffffffffffffffff600386901b1c1916600185901b1785556113ff565b600085815260208120601f198616915b82811015614100578886015182559484019460019091019084016140e1565b508582101561413c57878501517fffffffffffffffffffffffffffffffffffffffffffffffffffffffffffffffff600388901b60f8161c191681555b5050505050600190811b0190555056fea164736f6c6343000815000a",
    "linkReferences": {}
  },
  "methodIdentifiers": {
    "addAgent(address)": "84e79842",
    "allowance(address,address)": "dd62ed3e",
    "approve(address,uint256)": "095ea7b3",
    "balanceOf(address)": "70a08231",
    "batchBurn(address[],uint256[])": "4a6cc677",
    "batchForcedTransfer(address[],address[],uint256[])": "42a47abc",
    "batchFreezePartialTokens(address[],uint256[])": "fc7e5fa8",
    "batchMint(address[],uint256[])": "68573107",
    "batchSetAddressFrozen(address[],bool[])": "1a7af379",
    "batchTransfer(address[],uint256[])": "88d695b2",
    "batchUnfreezePartialTokens(address[],uint256[])": "4710362d",
    "burn(address,uint256)": "9dc29fac",
    "compliance()": "6290865d",
    "decimals()": "313ce567",
    "decreaseAllowance(address,uint256)": "a457c2d7",
    "forcedTransfer(address,address,uint256)": "9fc1d0e7",
    "freezePartialTokens(address,uint256)": "125c4a33",
    "getFrozenTokens(address)": "158b1a57",
    "identityRegistry()": "134e18f4",
    "increaseAllowance(address,uint256)": "39509351",
    "init(address,address,string,string,uint8,address)": "f91b619c",
    "isAgent(address)": "1ffbb064",
    "isFrozen(address)": "e5839836",
    "mint(address,uint256)": "40c10f19",
    "name()": "06fdde03",
    "onchainID()": "aba63705",
    "owner()": "8da5cb5b",
    "pause()": "8456cb59",
    "paused()": "5c975abb",
    "recoveryAddress(address,address,address)": "9285948a",
    "removeAgent(address)": "97a6278e",
    "renounceOwnership()": "715018a6",
    "setAddressFrozen(address,bool)": "c69c09cf",
    "setCompliance(address)": "f8981789",
    "setIdentityRegistry(address)": "cbf3f861",
    "setName(string)": "c47f0027",
    "setOnchainID(address)": "3d1ddc5b",
    "setSymbol(string)": "b84c8246",
    "symbol()": "95d89b41",
    "totalSupply()": "18160ddd",
    "transfer(address,uint256)": "a9059cbb",
    "transferFrom(address,address,uint256)": "23b872dd",
    "transferOwnership(address)": "f2fde38b",
    "unfreezePartialTokens(address,uint256)": "1fe56f7d",
    "unpause()": "3f4ba83a",
    "version()": "54fd4d50"
  },
  "id": 79
}