{
  "abi": [
    {
      "inputs": [
        {
          "internalType": "address",
          "name": "router",
          "type": "address"
        },
        {
          "components": [
            {
              "internalType": "uint32",
              "name": "fulfillmentGasPriceOverEstimationBP",
              "type": "uint32"
            },
            {
              "internalType": "uint32",
              "name": "feedStalenessSeconds",
              "type": "uint32"
            },
            {
              "internalType": "uint32",
              "name": "gasOverheadBeforeCallback",
              "type": "uint32"
            },
            {
              "internalType": "uint32",
              "name": "gasOverheadAfterCallback",
              "type": "uint32"
            },
            {
              "internalType": "uint32",
              "name": "requestTimeoutSeconds",
              "type": "uint32"
            },
            {
              "internalType": "uint72",
              "name": "donFee",
              "type": "uint72"
            },
            {
              "internalType": "uint16",
              "name": "maxSupportedRequestDataVersion",
              "type": "uint16"
            },
            {
              "internalType": "uint224",
              "name": "fallbackNativePerUnitLink",
              "type": "uint224"
            }
          ],
          "internalType": "struct FunctionsBilling.Config",
          "name": "config",
          "type": "tuple"
        },
        {
          "internalType": "address",
          "name": "linkToNativeFeed",
          "type": "address"
        }
      ],
      "stateMutability": "nonpayable",
      "type": "constructor"
    },
    {
      "inputs": [],
      "name": "EmptyPublicKey",
      "type": "error"
    },
    {
      "inputs": [],
      "name": "InconsistentReportData",
      "type": "error"
    },
    {
      "inputs": [],
      "name": "InsufficientBalance",
      "type": "error"
    },
    {
      "inputs": [],
      "name": "InvalidCalldata",
      "type": "error"
    },
    {
      "inputs": [
        {
          "internalType": "string",
          "name": "message",
          "type": "string"
        }
      ],
      "name": "InvalidConfig",
      "type": "error"
    },
    {
      "inputs": [
        {
          "internalType": "int256",
          "name": "linkWei",
          "type": "int256"
        }
      ],
      "name": "InvalidLinkWeiPrice",
      "type": "error"
    },
    {
      "inputs": [],
      "name": "InvalidSubscription",
      "type": "error"
    },
    {
      "inputs": [
        {
          "internalType": "address",
          "name": "owner",
          "type": "address"
        }
      ],
      "name": "MustBeSubOwner",
      "type": "error"
    },
    {
      "inputs": [],
      "name": "NoTransmittersSet",
      "type": "error"
    },
    {
      "inputs": [],
      "name": "OnlyCallableByRouter",
      "type": "error"
    },
    {
      "inputs": [],
      "name": "OnlyCallableByRouterOwner",
      "type": "error"
    },
    {
      "inputs": [],
      "name": "PaymentTooLarge",
      "type": "error"
    },
    {
      "inputs": [],
      "name": "ReportInvalid",
      "type": "error"
    },
    {
      "inputs": [],
      "name": "RouterMustBeSet",
      "type": "error"
    },
    {
      "inputs": [],
      "name": "UnauthorizedPublicKeyChange",
      "type": "error"
    },
    {
      "inputs": [],
      "name": "UnauthorizedSender",
      "type": "error"
    },
    {
      "inputs": [],
      "name": "UnsupportedRequestDataVersion",
      "type": "error"
    },
    {
      "anonymous": false,
      "inputs": [
        {
          "indexed": false,
          "internalType": "bytes32",
          "name": "requestId",
          "type": "bytes32"
        }
      ],
      "name": "CommitmentDeleted",
      "type": "event"
    },
    {
      "anonymous": false,
      "inputs": [
        {
          "indexed": false,
          "internalType": "uint32",
          "name": "previousConfigBlockNumber",
          "type": "uint32"
        },
        {
          "indexed": false,
          "internalType": "bytes32",
          "name": "configDigest",
          "type": "bytes32"
        },
        {
          "indexed": false,
          "internalType": "uint64",
          "name": "configCount",
          "type": "uint64"
        },
        {
          "indexed": false,
          "internalType": "address[]",
          "name": "signers",
          "type": "address[]"
        },
        {
          "indexed": false,
          "internalType": "address[]",
          "name": "transmitters",
          "type": "address[]"
        },
        {
          "indexed": false,
          "internalType": "uint8",
          "name": "f",
          "type": "uint8"
        },
        {
          "indexed": false,
          "internalType": "bytes",
          "name": "onchainConfig",
          "type": "bytes"
        },
        {
          "indexed": false,
          "internalType": "uint64",
          "name": "offchainConfigVersion",
          "type": "uint64"
        },
        {
          "indexed": false,
          "internalType": "bytes",
          "name": "offchainConfig",
          "type": "bytes"
        }
      ],
      "name": "ConfigSet",
      "type": "event"
    },
    {
      "anonymous": false,
      "inputs": [
        {
          "components": [
            {
              "internalType": "uint32",
              "name": "fulfillmentGasPriceOverEstimationBP",
              "type": "uint32"
            },
            {
              "internalType": "uint32",
              "name": "feedStalenessSeconds",
              "type": "uint32"
            },
            {
              "internalType": "uint32",
              "name": "gasOverheadBeforeCallback",
              "type": "uint32"
            },
            {
              "internalType": "uint32",
              "name": "gasOverheadAfterCallback",
              "type": "uint32"
            },
            {
              "internalType": "uint32",
              "name": "requestTimeoutSeconds",
              "type": "uint32"
            },
            {
              "internalType": "uint72",
              "name": "donFee",
              "type": "uint72"
            },
            {
              "internalType": "uint16",
              "name": "maxSupportedRequestDataVersion",
              "type": "uint16"
            },
            {
              "internalType": "uint224",
              "name": "fallbackNativePerUnitLink",
              "type": "uint224"
            }
          ],
          "indexed": false,
          "internalType": "struct FunctionsBilling.Config",
          "name": "config",
          "type": "tuple"
        }
      ],
      "name": "ConfigUpdated",
      "type": "event"
    },
    {
      "anonymous": false,
      "inputs": [
        {
          "indexed": true,
          "internalType": "bytes32",
          "name": "requestId",
          "type": "bytes32"
        },
        {
          "indexed": true,
          "internalType": "address",
          "name": "requestingContract",
          "type": "address"
        },
        {
          "indexed": false,
          "internalType": "address",
          "name": "requestInitiator",
          "type": "address"
        },
        {
          "indexed": false,
          "internalType": "uint64",
          "name": "subscriptionId",
          "type": "uint64"
        },
        {
          "indexed": false,
          "internalType": "address",
          "name": "subscriptionOwner",
          "type": "address"
        },
        {
          "indexed": false,
          "internalType": "bytes",
          "name": "data",
          "type": "bytes"
        },
        {
          "indexed": false,
          "internalType": "uint16",
          "name": "dataVersion",
          "type": "uint16"
        },
        {
          "indexed": false,
          "internalType": "bytes32",
          "name": "flags",
          "type": "bytes32"
        },
        {
          "indexed": false,
          "internalType": "uint64",
          "name": "callbackGasLimit",
          "type": "uint64"
        },
        {
          "components": [
            {
              "internalType": "bytes32",
              "name": "requestId",
              "type": "bytes32"
            },
            {
              "internalType": "address",
              "name": "coordinator",
              "type": "address"
            },
            {
              "internalType": "uint96",
              "name": "estimatedTotalCostJuels",
              "type": "uint96"
            },
            {
              "internalType": "address",
              "name": "client",
              "type": "address"
            },
            {
              "internalType": "uint64",
              "name": "subscriptionId",
              "type": "uint64"
            },
            {
              "internalType": "uint32",
              "name": "callbackGasLimit",
              "type": "uint32"
            },
            {
              "internalType": "uint72",
              "name": "adminFee",
              "type": "uint72"
            },
            {
              "internalType": "uint72",
              "name": "donFee",
              "type": "uint72"
            },
            {
              "internalType": "uint40",
              "name": "gasOverheadBeforeCallback",
              "type": "uint40"
            },
            {
              "internalType": "uint40",
              "name": "gasOverheadAfterCallback",
              "type": "uint40"
            },
            {
              "internalType": "uint32",
              "name": "timeoutTimestamp",
              "type": "uint32"
            }
          ],
          "indexed": false,
          "internalType": "struct FunctionsResponse.Commitment",
          "name": "commitment",
          "type": "tuple"
        }
      ],
      "name": "OracleRequest",
      "type": "event"
    },
    {
      "anonymous": false,
      "inputs": [
        {
          "indexed": true,
          "internalType": "bytes32",
          "name": "requestId",
          "type": "bytes32"
        },
        {
          "indexed": false,
          "internalType": "address",
          "name": "transmitter",
          "type": "address"
        }
      ],
      "name": "OracleResponse",
      "type": "event"
    },
    {
      "anonymous": false,
      "inputs": [
        {
          "indexed": true,
          "internalType": "address",
          "name": "from",
          "type": "address"
        },
        {
          "indexed": true,
          "internalType": "address",
          "name": "to",
          "type": "address"
        }
      ],
      "name": "OwnershipTransferRequested",
      "type": "event"
    },
    {
      "anonymous": false,
      "inputs": [
        {
          "indexed": true,
          "internalType": "address",
          "name": "from",
          "type": "address"
        },
        {
          "indexed": true,
          "internalType": "address",
          "name": "to",
          "type": "address"
        }
      ],
      "name": "OwnershipTransferred",
      "type": "event"
    },
    {
      "anonymous": false,
      "inputs": [
        {
          "indexed": false,
          "internalType": "bytes32",
          "name": "configDigest",
          "type": "bytes32"
        },
        {
          "indexed": false,
          "internalType": "uint32",
          "name": "epoch",
          "type": "uint32"
        }
      ],
      "name": "Transmitted",
      "type": "event"
    },
    {
      "inputs": [],
      "name": "acceptOwnership",
      "outputs": [],
      "stateMutability": "nonpayable",
      "type": "function"
    },
    {
      "inputs": [
        {
          "internalType": "bytes32",
          "name": "requestId",
          "type": "bytes32"
        }
      ],
      "name": "deleteCommitment",
      "outputs": [],
      "stateMutability": "nonpayable",
      "type": "function"
    },
    {
      "inputs": [
        {
          "internalType": "uint64",
          "name": "subscriptionId",
          "type": "uint64"
        },
        {
          "internalType": "bytes",
          "name": "data",
          "type": "bytes"
        },
        {
          "internalType": "uint32",
          "name": "callbackGasLimit",
          "type": "uint32"
        },
        {
          "internalType": "uint256",
          "name": "gasPriceWei",
          "type": "uint256"
        }
      ],
      "name": "estimateCost",
      "outputs": [
        {
          "internalType": "uint96",
          "name": "",
          "type": "uint96"
        }
      ],
      "stateMutability": "view",
      "type": "function"
    },
    {
      "inputs": [],
      "name": "getAdminFee",
      "outputs": [
        {
          "internalType": "uint72",
          "name": "",
          "type": "uint72"
        }
      ],
      "stateMutability": "view",
      "type": "function"
    },
    {
      "inputs": [],
      "name": "getConfig",
      "outputs": [
        {
          "components": [
            {
              "internalType": "uint32",
              "name": "fulfillmentGasPriceOverEstimationBP",
              "type": "uint32"
            },
            {
              "internalType": "uint32",
              "name": "feedStalenessSeconds",
              "type": "uint32"
            },
            {
              "internalType": "uint32",
              "name": "gasOverheadBeforeCallback",
              "type": "uint32"
            },
            {
              "internalType": "uint32",
              "name": "gasOverheadAfterCallback",
              "type": "uint32"
            },
            {
              "internalType": "uint32",
              "name": "requestTimeoutSeconds",
              "type": "uint32"
            },
            {
              "internalType": "uint72",
              "name": "donFee",
              "type": "uint72"
            },
            {
              "internalType": "uint16",
              "name": "maxSupportedRequestDataVersion",
              "type": "uint16"
            },
            {
              "internalType": "uint224",
              "name": "fallbackNativePerUnitLink",
              "type": "uint224"
            }
          ],
          "internalType": "struct FunctionsBilling.Config",
          "name": "",
          "type": "tuple"
        }
      ],
      "stateMutability": "view",
      "type": "function"
    },
    {
      "inputs": [
        {
          "internalType": "bytes",
          "name": "",
          "type": "bytes"
        }
      ],
      "name": "getDONFee",
      "outputs": [
        {
          "internalType": "uint72",
          "name": "",
          "type": "uint72"
        }
      ],
      "stateMutability": "view",
      "type": "function"
    },
    {
      "inputs": [],
      "name": "getDONPublicKey",
      "outputs": [
        {
          "internalType": "bytes",
          "name": "",
          "type": "bytes"
        }
      ],
      "stateMutability": "view",
      "type": "function"
    },
    {
      "inputs": [],
      "name": "getThresholdPublicKey",
      "outputs": [
        {
          "internalType": "bytes",
          "name": "",
          "type": "bytes"
        }
      ],
      "stateMutability": "view",
      "type": "function"
    },
    {
      "inputs": [],
      "name": "getWeiPerUnitLink",
      "outputs": [
        {
          "internalType": "uint256",
          "name": "",
          "type": "uint256"
        }
      ],
      "stateMutability": "view",
      "type": "function"
    },
    {
      "inputs": [],
      "name": "latestConfigDetails",
      "outputs": [
        {
          "internalType": "uint32",
          "name": "configCount",
          "type": "uint32"
        },
        {
          "internalType": "uint32",
          "name": "blockNumber",
          "type": "uint32"
        },
        {
          "internalType": "bytes32",
          "name": "configDigest",
          "type": "bytes32"
        }
      ],
      "stateMutability": "view",
      "type": "function"
    },
    {
      "inputs": [],
      "name": "latestConfigDigestAndEpoch",
      "outputs": [
        {
          "internalType": "bool",
          "name": "scanLogs",
          "type": "bool"
        },
        {
          "internalType": "bytes32",
          "name": "configDigest",
          "type": "bytes32"
        },
        {
          "internalType": "uint32",
          "name": "epoch",
          "type": "uint32"
        }
      ],
      "stateMutability": "view",
      "type": "function"
    },
    {
      "inputs": [
        {
          "internalType": "address",
          "name": "recipient",
          "type": "address"
        },
        {
          "internalType": "uint96",
          "name": "amount",
          "type": "uint96"
        }
      ],
      "name": "oracleWithdraw",
      "outputs": [],
      "stateMutability": "nonpayable",
      "type": "function"
    },
    {
      "inputs": [],
      "name": "oracleWithdrawAll",
      "outputs": [],
      "stateMutability": "nonpayable",
      "type": "function"
    },
    {
      "inputs": [],
      "name": "owner",
      "outputs": [
        {
          "internalType": "address",
          "name": "",
          "type": "address"
        }
      ],
      "stateMutability": "view",
      "type": "function"
    },
    {
      "inputs": [
        {
          "internalType": "address[]",
          "name": "_signers",
          "type": "address[]"
        },
        {
          "internalType": "address[]",
          "name": "_transmitters",
          "type": "address[]"
        },
        {
          "internalType": "uint8",
          "name": "_f",
          "type": "uint8"
        },
        {
          "internalType": "bytes",
          "name": "_onchainConfig",
          "type": "bytes"
        },
        {
          "internalType": "uint64",
          "name": "_offchainConfigVersion",
          "type": "uint64"
        },
        {
          "internalType": "bytes",
          "name": "_offchainConfig",
          "type": "bytes"
        }
      ],
      "name": "setConfig",
      "outputs": [],
      "stateMutability": "nonpayable",
      "type": "function"
    },
    {
      "inputs": [
        {
          "internalType": "bytes",
          "name": "donPublicKey",
          "type": "bytes"
        }
      ],
      "name": "setDONPublicKey",
      "outputs": [],
      "stateMutability": "nonpayable",
      "type": "function"
    },
    {
      "inputs": [
        {
          "internalType": "bytes",
          "name": "thresholdPublicKey",
          "type": "bytes"
        }
      ],
      "name": "setThresholdPublicKey",
      "outputs": [],
      "stateMutability": "nonpayable",
      "type": "function"
    },
    {
      "inputs": [
        {
          "components": [
            {
              "internalType": "bytes",
              "name": "data",
              "type": "bytes"
            },
            {
              "internalType": "bytes32",
              "name": "flags",
              "type": "bytes32"
            },
            {
              "internalType": "address",
              "name": "requestingContract",
              "type": "address"
            },
            {
              "internalType": "uint96",
              "name": "availableBalance",
              "type": "uint96"
            },
            {
              "internalType": "uint72",
              "name": "adminFee",
              "type": "uint72"
            },
            {
              "internalType": "uint64",
              "name": "subscriptionId",
              "type": "uint64"
            },
            {
              "internalType": "uint64",
              "name": "initiatedRequests",
              "type": "uint64"
            },
            {
              "internalType": "uint32",
              "name": "callbackGasLimit",
              "type": "uint32"
            },
            {
              "internalType": "uint16",
              "name": "dataVersion",
              "type": "uint16"
            },
            {
              "internalType": "uint64",
              "name": "completedRequests",
              "type": "uint64"
            },
            {
              "internalType": "address",
              "name": "subscriptionOwner",
              "type": "address"
            }
          ],
          "internalType": "struct FunctionsResponse.RequestMeta",
          "name": "request",
          "type": "tuple"
        }
      ],
      "name": "startRequest",
      "outputs": [
        {
          "components": [
            {
              "internalType": "bytes32",
              "name": "requestId",
              "type": "bytes32"
            },
            {
              "internalType": "address",
              "name": "coordinator",
              "type": "address"
            },
            {
              "internalType": "uint96",
              "name": "estimatedTotalCostJuels",
              "type": "uint96"
            },
            {
              "internalType": "address",
              "name": "client",
              "type": "address"
            },
            {
              "internalType": "uint64",
              "name": "subscriptionId",
              "type": "uint64"
            },
            {
              "internalType": "uint32",
              "name": "callbackGasLimit",
              "type": "uint32"
            },
            {
              "internalType": "uint72",
              "name": "adminFee",
              "type": "uint72"
            },
            {
              "internalType": "uint72",
              "name": "donFee",
              "type": "uint72"
            },
            {
              "internalType": "uint40",
              "name": "gasOverheadBeforeCallback",
              "type": "uint40"
            },
            {
              "internalType": "uint40",
              "name": "gasOverheadAfterCallback",
              "type": "uint40"
            },
            {
              "internalType": "uint32",
              "name": "timeoutTimestamp",
              "type": "uint32"
            }
          ],
          "internalType": "struct FunctionsResponse.Commitment",
          "name": "commitment",
          "type": "tuple"
        }
      ],
      "stateMutability": "nonpayable",
      "type": "function"
    },
    {
      "inputs": [
        {
          "internalType": "address",
          "name": "to",
          "type": "address"
        }
      ],
      "name": "transferOwnership",
      "outputs": [],
      "stateMutability": "nonpayable",
      "type": "function"
    },
    {
      "inputs": [
        {
          "internalType": "bytes32[3]",
          "name": "reportContext",
          "type": "bytes32[3]"
        },
        {
          "internalType": "bytes",
          "name": "report",
          "type": "bytes"
        },
        {
          "internalType": "bytes32[]",
          "name": "rs",
          "type": "bytes32[]"
        },
        {
          "internalType": "bytes32[]",
          "name": "ss",
          "type": "bytes32[]"
        },
        {
          "internalType": "bytes32",
          "name": "rawVs",
          "type": "bytes32"
        }
      ],
      "name": "transmit",
      "outputs": [],
      "stateMutability": "nonpayable",
      "type": "function"
    },
    {
      "inputs": [],
      "name": "transmitters",
      "outputs": [
        {
          "internalType": "address[]",
          "name": "",
          "type": "address[]"
        }
      ],
      "stateMutability": "view",
      "type": "function"
    },
    {
      "inputs": [],
      "name": "typeAndVersion",
      "outputs": [
        {
          "internalType": "string",
          "name": "",
          "type": "string"
        }
      ],
      "stateMutability": "view",
      "type": "function"
    },
    {
      "inputs": [
        {
          "components": [
            {
              "internalType": "uint32",
              "name": "fulfillmentGasPriceOverEstimationBP",
              "type": "uint32"
            },
            {
              "internalType": "uint32",
              "name": "feedStalenessSeconds",
              "type": "uint32"
            },
            {
              "internalType": "uint32",
              "name": "gasOverheadBeforeCallback",
              "type": "uint32"
            },
            {
              "internalType": "uint32",
              "name": "gasOverheadAfterCallback",
              "type": "uint32"
            },
            {
              "internalType": "uint32",
              "name": "requestTimeoutSeconds",
              "type": "uint32"
            },
            {
              "internalType": "uint72",
              "name": "donFee",
              "type": "uint72"
            },
            {
              "internalType": "uint16",
              "name": "maxSupportedRequestDataVersion",
              "type": "uint16"
            },
            {
              "internalType": "uint224",
              "name": "fallbackNativePerUnitLink",
              "type": "uint224"
            }
          ],
          "internalType": "struct FunctionsBilling.Config",
          "name": "config",
          "type": "tuple"
        }
      ],
      "name": "updateConfig",
      "outputs": [],
      "stateMutability": "nonpayable",
      "type": "function"
    }
  ],
  "bytecode": {
    "object": "0x60c06040523480156200001157600080fd5b5060405162004e7638038062004e76833981016040819052620000349162000418565b8282828260013380600081620000915760405162461bcd60e51b815260206004820152601860248201527f43616e6e6f7420736574206f776e657220746f207a65726f000000000000000060448201526064015b60405180910390fd5b600080546001600160a01b0319166001600160a01b0384811691909117909155811615620000c457620000c48162000140565b50505015156080526001600160a01b038116620000f457604051632530e88560e11b815260040160405180910390fd5b6001600160a01b0390811660a052600b80549183166c01000000000000000000000000026001600160601b039092169190911790556200013482620001eb565b505050505050620005c6565b336001600160a01b038216036200019a5760405162461bcd60e51b815260206004820152601760248201527f43616e6e6f74207472616e7366657220746f2073656c66000000000000000000604482015260640162000088565b600180546001600160a01b0319166001600160a01b0383811691821790925560008054604051929316917fed8889f560326eb138920d842192f0eb3dd22b4f139c87a2c57538e05bae12789190a350565b620001f56200033b565b80516008805460208401516040808601516060870151608088015160a089015160c08a015161ffff16600160e81b0261ffff60e81b196001600160481b03909216600160a01b02600160a01b600160e81b031963ffffffff948516600160801b0216600160801b600160e81b03199585166c010000000000000000000000000263ffffffff60601b19978616680100000000000000000297909716600160401b600160801b0319998616640100000000026001600160401b0319909b1695909c1694909417989098179690961698909817929092171617929092179390931692909217905560e0820151600980546001600160e01b039092166001600160e01b0319909216919091179055517f8efd15b0efe82b55a8dc915f88e835007cc65ad0b442997d3c10604961e3907a906200033090839062000536565b60405180910390a150565b6200034562000347565b565b6000546001600160a01b03163314620003455760405162461bcd60e51b815260206004820152601660248201527f4f6e6c792063616c6c61626c65206279206f776e657200000000000000000000604482015260640162000088565b80516001600160a01b0381168114620003bb57600080fd5b919050565b805163ffffffff81168114620003bb57600080fd5b80516001600160481b0381168114620003bb57600080fd5b805161ffff81168114620003bb57600080fd5b80516001600160e01b0381168114620003bb57600080fd5b60008060008385036101408112156200043057600080fd5b6200043b85620003a3565b935061010080601f19830112156200045257600080fd5b60405191508082016001600160401b03811183821017156200048457634e487b7160e01b600052604160045260246000fd5b6040526200049560208701620003c0565b8252620004a560408701620003c0565b6020830152620004b860608701620003c0565b6040830152620004cb60808701620003c0565b6060830152620004de60a08701620003c0565b6080830152620004f160c08701620003d5565b60a08301526200050460e08701620003ed565b60c08301526200051681870162000400565b60e08301525091506200052d6101208501620003a3565b90509250925092565b60006101008201905063ffffffff8084511683528060208501511660208401528060408501511660408401528060608501511660608401528060808501511660808401525060018060481b0360a08401511660a083015260c0830151620005a360c084018261ffff169052565b5060e0830151620005bf60e08401826001600160e01b03169052565b5092915050565b60805160a05161486062000616600039600081816105be0152818161074c01528181610a0501528181610c9901528181610fe0015281816116f30152613067015260006111ef01526148606000f3fe608060405234801561001057600080fd5b506004361061018d5760003560e01c806385b214cf116100e3578063c3f909d41161008c578063e3d0e71211610066578063e3d0e71214610529578063e4ddcea61461053c578063f2fde38b1461055257600080fd5b8063c3f909d4146103b4578063d227d245146104f1578063d328a91e1461052157600080fd5b8063a631571e116100bd578063a631571e14610361578063afcb95d714610381578063b1dc65a4146103a157600080fd5b806385b214cf146103135780638da5cb5b146103265780639314176d1461034e57600080fd5b806379ba509711610145578063814118341161011f578063814118341461028957806381f1b9381461029e57806381ff7048146102a657600080fd5b806379ba5097146102665780637d4807871461026e5780637f15e1661461027657600080fd5b80632a905ccc116101765780632a905ccc146101f957806359b5b7ac1461021b57806366316d8d1461025357600080fd5b8063083a546614610192578063181f5a77146101a7575b600080fd5b6101a56101a0366004613340565b610565565b005b6101e36040518060400160405280601c81526020017f46756e6374696f6e7320436f6f7264696e61746f722076312e302e300000000081525081565b6040516101f091906133c8565b60405180910390f35b6102016105ba565b60405168ffffffffffffffffff90911681526020016101f0565b6102016102293660046134dc565b5060085474010000000000000000000000000000000000000000900468ffffffffffffffffff1690565b6101a561026136600461356b565b610650565b6101a5610809565b6101a56108f1565b6101a5610284366004613340565b610af1565b610291610b41565b6040516101f091906135f5565b6101e3610bb0565b6102f060015460025463ffffffff74010000000000000000000000000000000000000000830481169378010000000000000000000000000000000000000000000000009093041691565b6040805163ffffffff9485168152939092166020840152908201526060016101f0565b6101a5610321366004613608565b610c81565b60005460405173ffffffffffffffffffffffffffffffffffffffff90911681526020016101f0565b6101a561035c36600461369e565b610d3e565b61037461036f366004613768565b610f6f565b6040516101f091906138bd565b6040805160018152600060208201819052918101919091526060016101f0565b6101a56103af366004613911565b611110565b6104e46040805161010081018252600080825260208201819052918101829052606081018290526080810182905260a0810182905260c0810182905260e081019190915250604080516101008101825260085463ffffffff80821683526401000000008204811660208401526801000000000000000082048116938301939093526c010000000000000000000000008104831660608301527001000000000000000000000000000000008104909216608082015274010000000000000000000000000000000000000000820468ffffffffffffffffff1660a08201527d01000000000000000000000000000000000000000000000000000000000090910461ffff1660c08201526009547bffffffffffffffffffffffffffffffffffffffffffffffffffffffff1660e082015290565b6040516101f091906139c8565b6105046104ff366004613a88565b6116ef565b6040516bffffffffffffffffffffffff90911681526020016101f0565b6101e3611851565b6101a5610537366004613ba1565b6118a8565b6105446122a0565b6040519081526020016101f0565b6101a5610560366004613c6e565b6124c5565b61056d6124d9565b60008190036105a8576040517f4f42be3d00000000000000000000000000000000000000000000000000000000815260040160405180910390fd5b600d6105b5828483613d24565b505050565b60007f000000000000000000000000000000000000000000000000000000000000000073ffffffffffffffffffffffffffffffffffffffff16632a905ccc6040518163ffffffff1660e01b8152600401602060405180830381865afa158015610627573d6000803e3d6000fd5b505050506040513d601f19601f8201168201806040525081019061064b9190613e2c565b905090565b610658612542565b806bffffffffffffffffffffffff166000036106925750336000908152600a60205260409020546bffffffffffffffffffffffff166106ec565b336000908152600a60205260409020546bffffffffffffffffffffffff808316911610156106ec576040517ff4d678b800000000000000000000000000000000000000000000000000000000815260040160405180910390fd5b336000908152600a6020526040812080548392906107199084906bffffffffffffffffffffffff16613e78565b92506101000a8154816bffffffffffffffffffffffff02191690836bffffffffffffffffffffffff16021790555061076e7f000000000000000000000000000000000000000000000000000000000000000090565b6040517f66316d8d00000000000000000000000000000000000000000000000000000000815273ffffffffffffffffffffffffffffffffffffffff84811660048301526bffffffffffffffffffffffff8416602483015291909116906366316d8d90604401600060405180830381600087803b1580156107ed57600080fd5b505af1158015610801573d6000803e3d6000fd5b505050505050565b60015473ffffffffffffffffffffffffffffffffffffffff1633146108755760405162461bcd60e51b815260206004820152601660248201527f4d7573742062652070726f706f736564206f776e65720000000000000000000060448201526064015b60405180910390fd5b60008054337fffffffffffffffffffffffff00000000000000000000000000000000000000008083168217845560018054909116905560405173ffffffffffffffffffffffffffffffffffffffff90921692909183917f8be0079c531659141344cd1fd0a4f28419497f9722a3daafe3b4186f6b6457e091a350565b6108f96126ed565b610901612542565b600061090b610b41565b905060005b8151811015610aed576000600a600084848151811061093157610931613e9d565b60209081029190910181015173ffffffffffffffffffffffffffffffffffffffff168252810191909152604001600020546bffffffffffffffffffffffff1690508015610adc576000600a600085858151811061099057610990613e9d565b602002602001015173ffffffffffffffffffffffffffffffffffffffff1673ffffffffffffffffffffffffffffffffffffffff16815260200190815260200160002060006101000a8154816bffffffffffffffffffffffff02191690836bffffffffffffffffffffffff160217905550610a277f000000000000000000000000000000000000000000000000000000000000000090565b73ffffffffffffffffffffffffffffffffffffffff166366316d8d848481518110610a5457610a54613e9d565b6020026020010151836040518363ffffffff1660e01b8152600401610aa992919073ffffffffffffffffffffffffffffffffffffffff9290921682526bffffffffffffffffffffffff16602082015260400190565b600060405180830381600087803b158015610ac357600080fd5b505af1158015610ad7573d6000803e3d6000fd5b505050505b50610ae681613ecc565b9050610910565b5050565b610af96124d9565b6000819003610b34576040517f4f42be3d00000000000000000000000000000000000000000000000000000000815260040160405180910390fd5b600c6105b5828483613d24565b60606006805480602002602001604051908101604052809291908181526020018280548015610ba657602002820191906000526020600020905b815473ffffffffffffffffffffffffffffffffffffffff168152600190910190602001808311610b7b575b5050505050905090565b6060600d8054610bbf90613c8b565b9050600003610bfa576040517f4f42be3d00000000000000000000000000000000000000000000000000000000815260040160405180910390fd5b600d8054610c0790613c8b565b80601f0160208091040260200160405190810160405280929190818152602001828054610c3390613c8b565b8015610ba65780601f10610c5557610100808354040283529160200191610ba6565b820191906000526020600020905b815481529060010190602001808311610c6357509395945050505050565b3373ffffffffffffffffffffffffffffffffffffffff7f00000000000000000000000000000000000000000000000000000000000000001614610cf0576040517fc41a5b0900000000000000000000000000000000000000000000000000000000815260040160405180910390fd5b60008181526007602052604080822091909155517f8a4b97add3359bd6bcf5e82874363670eb5ad0f7615abddbd0ed0a3a98f0f41690610d339083815260200190565b60405180910390a150565b610d466126ed565b80516008805460208401516040808601516060870151608088015160a089015160c08a015161ffff167d010000000000000000000000000000000000000000000000000000000000027fff0000ffffffffffffffffffffffffffffffffffffffffffffffffffffffffff68ffffffffffffffffff90921674010000000000000000000000000000000000000000027fffffff000000000000000000ffffffffffffffffffffffffffffffffffffffff63ffffffff94851670010000000000000000000000000000000002167fffffff00000000000000000000000000ffffffffffffffffffffffffffffffff9585166c01000000000000000000000000027fffffffffffffffffffffffffffffffff00000000ffffffffffffffffffffffff9786166801000000000000000002979097167fffffffffffffffffffffffffffffffff0000000000000000ffffffffffffffff998616640100000000027fffffffffffffffffffffffffffffffffffffffffffffffff0000000000000000909b1695909c1694909417989098179690961698909817929092171617929092179390931692909217905560e0820151600980547bffffffffffffffffffffffffffffffffffffffffffffffffffffffff9092167fffffffff00000000000000000000000000000000000000000000000000000000909216919091179055517f8efd15b0efe82b55a8dc915f88e835007cc65ad0b442997d3c10604961e3907a90610d339083906139c8565b6040805161016081018252600080825260208201819052918101829052606081018290526080810182905260a0810182905260c0810182905260e08101829052610100810182905261012081018290526101408101919091523373ffffffffffffffffffffffffffffffffffffffff7f00000000000000000000000000000000000000000000000000000000000000001614611037576040517fc41a5b0900000000000000000000000000000000000000000000000000000000815260040160405180910390fd5b61104861104383613f04565b6126f5565b905061105a6060830160408401613c6e565b815173ffffffffffffffffffffffffffffffffffffffff91909116907fbf50768ccf13bd0110ca6d53a9c4f1f3271abdd4c24a56878863ed25b20598ff326110a860c0870160a08801613ff1565b6110ba61016088016101408901613c6e565b6110c4888061400e565b6110d66101208b016101008c01614073565b60208b01356110ec6101008d0160e08e0161408e565b8b604051611102999897969594939291906140ab565b60405180910390a35b919050565b60005a604080518b3580825262ffffff6020808f0135600881901c929092169084015293945092917fb04e63db38c49950639fa09d29872f21f5d49d614f3a969d8adf3d4b52e41a62910160405180910390a16040805160608101825260025480825260035460ff808216602085015261010090910416928201929092529083146111dd5760405162461bcd60e51b815260206004820152601560248201527f636f6e666967446967657374206d69736d617463680000000000000000000000604482015260640161086c565b6111eb8b8b8b8b8b8b612ad8565b60007f000000000000000000000000000000000000000000000000000000000000000015611248576002826020015183604001516112299190614135565b611233919061417d565b61123e906001614135565b60ff16905061125e565b6020820151611258906001614135565b60ff1690505b8881146112ad5760405162461bcd60e51b815260206004820152601a60248201527f77726f6e67206e756d626572206f66207369676e617475726573000000000000604482015260640161086c565b8887146112fc5760405162461bcd60e51b815260206004820152601e60248201527f7369676e617475726573206f7574206f6620726567697374726174696f6e0000604482015260640161086c565b3360009081526004602090815260408083208151808301909252805460ff8082168452929391929184019161010090910416600281111561133f5761133f61419f565b60028111156113505761135061419f565b905250905060028160200151600281111561136d5761136d61419f565b1480156113b457506006816000015160ff168154811061138f5761138f613e9d565b60009182526020909120015473ffffffffffffffffffffffffffffffffffffffff1633145b6114005760405162461bcd60e51b815260206004820152601860248201527f756e617574686f72697a6564207472616e736d69747465720000000000000000604482015260640161086c565b505050505061140d6132d8565b6000808a8a6040516114209291906141ce565b604051908190038120611437918e906020016141de565b60408051601f198184030181528282528051602091820120838301909252600080845290830152915060005b898110156116d157600060018489846020811061148257611482613e9d565b61148f91901a601b614135565b8e8e868181106114a1576114a1613e9d565b905060200201358d8d878181106114ba576114ba613e9d565b90506020020135604051600081526020016040526040516114f7949392919093845260ff9290921660208401526040830152606082015260800190565b6020604051602081039080840390855afa158015611519573d6000803e3d6000fd5b505060408051601f1981015173ffffffffffffffffffffffffffffffffffffffff811660009081526004602090815290849020838501909452835460ff8082168552929650929450840191610100900416600281111561157b5761157b61419f565b600281111561158c5761158c61419f565b90525092506001836020015160028111156115a9576115a961419f565b146115f65760405162461bcd60e51b815260206004820152601e60248201527f61646472657373206e6f7420617574686f72697a656420746f207369676e0000604482015260640161086c565b8251600090879060ff16601f811061161057611610613e9d565b602002015173ffffffffffffffffffffffffffffffffffffffff16146116785760405162461bcd60e51b815260206004820152601460248201527f6e6f6e2d756e69717565207369676e6174757265000000000000000000000000604482015260640161086c565b8086846000015160ff16601f811061169257611692613e9d565b73ffffffffffffffffffffffffffffffffffffffff90921660209290920201526116bd600186614135565b945050806116ca90613ecc565b9050611463565b5050506116e2833383858e8e612b75565b5050505050505050505050565b60007f00000000000000000000000000000000000000000000000000000000000000006040517f10fc49c100000000000000000000000000000000000000000000000000000000815267ffffffffffffffff8816600482015263ffffffff8516602482015273ffffffffffffffffffffffffffffffffffffffff91909116906310fc49c19060440160006040518083038186803b15801561178f57600080fd5b505afa1580156117a3573d6000803e3d6000fd5b5050505066038d7ea4c680008211156117e8576040517f8129bbcd00000000000000000000000000000000000000000000000000000000815260040160405180910390fd5b60006117f26105ba565b9050600061183587878080601f01602080910402602001604051908101604052809392919081815260200183838082843760009201919091525061022992505050565b905061184385858385612d43565b925050505b95945050505050565b6060600c805461186090613c8b565b905060000361189b576040517f4f42be3d00000000000000000000000000000000000000000000000000000000815260040160405180910390fd5b600c8054610c0790613c8b565b855185518560ff16601f83111561191b576040517f89a6198900000000000000000000000000000000000000000000000000000000815260206004820152601060248201527f746f6f206d616e79207369676e65727300000000000000000000000000000000604482015260640161086c565b80600003611985576040517f89a6198900000000000000000000000000000000000000000000000000000000815260206004820152601260248201527f66206d75737420626520706f7369746976650000000000000000000000000000604482015260640161086c565b818314611a13576040517f89a61989000000000000000000000000000000000000000000000000000000008152602060048201526024808201527f6f7261636c6520616464726573736573206f7574206f6620726567697374726160448201527f74696f6e00000000000000000000000000000000000000000000000000000000606482015260840161086c565b611a1e8160036141f2565b8311611a86576040517f89a6198900000000000000000000000000000000000000000000000000000000815260206004820152601860248201527f6661756c74792d6f7261636c65206620746f6f20686967680000000000000000604482015260640161086c565b611a8e6124d9565b6040805160c0810182528a8152602081018a905260ff89169181018290526060810188905267ffffffffffffffff8716608082015260a0810186905290611ad59088612e2d565b60055415611c8a57600554600090611aef90600190614209565b9050600060058281548110611b0657611b06613e9d565b60009182526020822001546006805473ffffffffffffffffffffffffffffffffffffffff90921693509084908110611b4057611b40613e9d565b600091825260208083209091015473ffffffffffffffffffffffffffffffffffffffff85811684526004909252604080842080547fffffffffffffffffffffffffffffffffffffffffffffffffffffffffffff000090811690915592909116808452922080549091169055600580549192509080611bc057611bc061421c565b60008281526020902081017fffffffffffffffffffffffffffffffffffffffffffffffffffffffffffffffff90810180547fffffffffffffffffffffffff00000000000000000000000000000000000000001690550190556006805480611c2957611c2961421c565b60008281526020902081017fffffffffffffffffffffffffffffffffffffffffffffffffffffffffffffffff90810180547fffffffffffffffffffffffff000000000000000000000000000000000000000016905501905550611ad5915050565b60005b8151518110156120bd5760006004600084600001518481518110611cb357611cb3613e9d565b60209081029190910181015173ffffffffffffffffffffffffffffffffffffffff16825281019190915260400160002054610100900460ff166002811115611cfd57611cfd61419f565b14611d4a5760405162461bcd60e51b815260206004820152601760248201527f7265706561746564207369676e65722061646472657373000000000000000000604482015260640161086c565b6040805180820190915260ff82168152600160208201528251805160049160009185908110611d7b57611d7b613e9d565b60209081029190910181015173ffffffffffffffffffffffffffffffffffffffff168252818101929092526040016000208251815460ff9091167fffffffffffffffffffffffffffffffffffffffffffffffffffffffffffffff0082168117835592840151919283917fffffffffffffffffffffffffffffffffffffffffffffffffffffffffffff00001617610100836002811115611e1c57611e1c61419f565b021790555060009150611e2c9050565b6004600084602001518481518110611e4657611e46613e9d565b60209081029190910181015173ffffffffffffffffffffffffffffffffffffffff16825281019190915260400160002054610100900460ff166002811115611e9057611e9061419f565b14611edd5760405162461bcd60e51b815260206004820152601c60248201527f7265706561746564207472616e736d6974746572206164647265737300000000604482015260640161086c565b6040805180820190915260ff821681526020810160028152506004600084602001518481518110611f1057611f10613e9d565b60209081029190910181015173ffffffffffffffffffffffffffffffffffffffff168252818101929092526040016000208251815460ff9091167fffffffffffffffffffffffffffffffffffffffffffffffffffffffffffffff0082168117835592840151919283917fffffffffffffffffffffffffffffffffffffffffffffffffffffffffffff00001617610100836002811115611fb157611fb161419f565b021790555050825180516005925083908110611fcf57611fcf613e9d565b602090810291909101810151825460018101845560009384529282902090920180547fffffffffffffffffffffffff00000000000000000000000000000000000000001673ffffffffffffffffffffffffffffffffffffffff909316929092179091558201518051600691908390811061204b5761204b613e9d565b60209081029190910181015182546001810184556000938452919092200180547fffffffffffffffffffffffff00000000000000000000000000000000000000001673ffffffffffffffffffffffffffffffffffffffff909216919091179055806120b581613ecc565b915050611c8d565b506040810151600380547fffffffffffffffffffffffffffffffffffffffffffffffffffffffffffffff001660ff909216919091179055600180547fffffffff00000000ffffffffffffffffffffffffffffffffffffffffffffffff8116780100000000000000000000000000000000000000000000000063ffffffff43811682029290921780855592048116929182916014916121759184917401000000000000000000000000000000000000000090041661424b565b92506101000a81548163ffffffff021916908363ffffffff1602179055506121d44630600160149054906101000a900463ffffffff1663ffffffff16856000015186602001518760400151886060015189608001518a60a00151612e46565b600281905582518051600380547fffffffffffffffffffffffffffffffffffffffffffffffffffffffffffff00ff1661010060ff9093169290920291909117905560015460208501516040808701516060880151608089015160a08a015193517f1591690b8638f5fb2dbec82ac741805ac5da8b45dc5263f4875b0496fdce4e059861228b988b9891977401000000000000000000000000000000000000000090920463ffffffff16969095919491939192614268565b60405180910390a15050505050505050505050565b604080516101008101825260085463ffffffff80821683526401000000008204811660208401526801000000000000000082048116838501526c01000000000000000000000000808304821660608501527001000000000000000000000000000000008304909116608084015274010000000000000000000000000000000000000000820468ffffffffffffffffff1660a0808501919091527d01000000000000000000000000000000000000000000000000000000000090920461ffff1660c08401526009547bffffffffffffffffffffffffffffffffffffffffffffffffffffffff1660e0840152600b5484517ffeaf968c00000000000000000000000000000000000000000000000000000000815294516000958694859490930473ffffffffffffffffffffffffffffffffffffffff169263feaf968c926004808401938290030181865afa1580156123fa573d6000803e3d6000fd5b505050506040513d601f19601f8201168201806040525081019061241e9190614318565b5093505092505080426124319190614209565b836020015163ffffffff1610801561245357506000836020015163ffffffff16115b1561248157505060e001517bffffffffffffffffffffffffffffffffffffffffffffffffffffffff16919050565b600082136124be576040517f43d4cf660000000000000000000000000000000000000000000000000000000081526004810183905260240161086c565b5092915050565b6124cd6124d9565b6124d681612ed3565b50565b60005473ffffffffffffffffffffffffffffffffffffffff1633146125405760405162461bcd60e51b815260206004820152601660248201527f4f6e6c792063616c6c61626c65206279206f776e657200000000000000000000604482015260640161086c565b565b600b546bffffffffffffffffffffffff1660000361255c57565b6000612566610b41565b905080516000036125a3576040517f30274b3a00000000000000000000000000000000000000000000000000000000815260040160405180910390fd5b8051600b546000916125c2916bffffffffffffffffffffffff16614368565b905060005b825181101561268e5781600a60008584815181106125e7576125e7613e9d565b602002602001015173ffffffffffffffffffffffffffffffffffffffff1673ffffffffffffffffffffffffffffffffffffffff16815260200190815260200160002060008282829054906101000a90046bffffffffffffffffffffffff1661264f9190614393565b92506101000a8154816bffffffffffffffffffffffff02191690836bffffffffffffffffffffffff1602179055508061268790613ecc565b90506125c7565b50815161269b90826143b8565b600b80546000906126bb9084906bffffffffffffffffffffffff16613e78565b92506101000a8154816bffffffffffffffffffffffff02191690836bffffffffffffffffffffffff1602179055505050565b6125406124d9565b6040805161016081018252600080825260208201819052918101829052606081018290526080810182905260a0810182905260c0810182905260e081018290526101008101829052610120810182905261014081019190915260408051610100808201835260085463ffffffff80821684526401000000008204811660208501526801000000000000000082048116948401949094526c010000000000000000000000008104841660608401527001000000000000000000000000000000008104909316608083015274010000000000000000000000000000000000000000830468ffffffffffffffffff1660a08301527d01000000000000000000000000000000000000000000000000000000000090920461ffff90811660c083018190526009547bffffffffffffffffffffffffffffffffffffffffffffffffffffffff1660e08401529285015191929116111561287b576040517fdada758700000000000000000000000000000000000000000000000000000000815260040160405180910390fd5b60085460009074010000000000000000000000000000000000000000900468ffffffffffffffffff16905060006128bc8560e001513a848860800151612d43565b9050806bffffffffffffffffffffffff1685606001516bffffffffffffffffffffffff161015612918576040517ff4d678b800000000000000000000000000000000000000000000000000000000815260040160405180910390fd5b600061299b3087604001518860a001518960c00151600161293991906143e8565b6040805173ffffffffffffffffffffffffffffffffffffffff958616602080830191909152949095168582015267ffffffffffffffff928316606086015291166080808501919091528151808503909101815260a09093019052815191012090565b90506040518061016001604052808281526020013073ffffffffffffffffffffffffffffffffffffffff168152602001836bffffffffffffffffffffffff168152602001876040015173ffffffffffffffffffffffffffffffffffffffff1681526020018760a0015167ffffffffffffffff1681526020018760e0015163ffffffff168152602001876080015168ffffffffffffffffff1681526020018468ffffffffffffffffff168152602001856040015163ffffffff1664ffffffffff168152602001856060015163ffffffff1664ffffffffff168152602001856080015163ffffffff1642612a8d9190614409565b63ffffffff16815250945084604051602001612aa991906138bd565b60408051601f198184030181529181528151602092830120600093845260079092529091205550919392505050565b6000612ae58260206141f2565b612af08560206141f2565b612afc88610144614409565b612b069190614409565b612b109190614409565b612b1b906000614409565b9050368114612b6c5760405162461bcd60e51b815260206004820152601860248201527f63616c6c64617461206c656e677468206d69736d617463680000000000000000604482015260640161086c565b50505050505050565b606080808080612b87868801886144f7565b8451949950929750909550935091501580612ba457508351855114155b80612bb157508251855114155b80612bbe57508151855114155b80612bcb57508051855114155b15612c02576040517f0be3632800000000000000000000000000000000000000000000000000000000815260040160405180910390fd5b60005b8551811015612d35576000612c9a878381518110612c2557612c25613e9d565b6020026020010151878481518110612c3f57612c3f613e9d565b6020026020010151878581518110612c5957612c59613e9d565b6020026020010151878681518110612c7357612c73613e9d565b6020026020010151878781518110612c8d57612c8d613e9d565b6020026020010151612fae565b90506000816006811115612cb057612cb061419f565b1480612ccd57506001816006811115612ccb57612ccb61419f565b145b15612d2457868281518110612ce457612ce4613e9d565b60209081029190910181015160405133815290917fc708e0440951fd63499c0f7a73819b469ee5dd3ecc356c0ab4eb7f18389009d9910160405180910390a25b50612d2e81613ecc565b9050612c05565b505050505050505050505050565b60085460009081908690612d7b9063ffffffff6c0100000000000000000000000082048116916801000000000000000090041661424b565b612d85919061424b565b60085463ffffffff918216925060009161271091612da49116886141f2565b612dae91906145c9565b612db89087614409565b90506000612dc582613221565b90506000612de1846bffffffffffffffffffffffff84166141f2565b90506000612dfd68ffffffffffffffffff808916908a16614393565b9050612e1f612e1a6bffffffffffffffffffffffff831684614409565b613250565b9a9950505050505050505050565b6000612e37610b41565b511115610aed57610aed612542565b6000808a8a8a8a8a8a8a8a8a604051602001612e6a999897969594939291906145dd565b60408051601f1981840301815291905280516020909101207dffffffffffffffffffffffffffffffffffffffffffffffffffffffffffff167e01000000000000000000000000000000000000000000000000000000000000179150509998505050505050505050565b3373ffffffffffffffffffffffffffffffffffffffff821603612f385760405162461bcd60e51b815260206004820152601760248201527f43616e6e6f74207472616e7366657220746f2073656c66000000000000000000604482015260640161086c565b600180547fffffffffffffffffffffffff00000000000000000000000000000000000000001673ffffffffffffffffffffffffffffffffffffffff83811691821790925560008054604051929316917fed8889f560326eb138920d842192f0eb3dd22b4f139c87a2c57538e05bae12789190a350565b60008083806020019051810190612fc591906146b3565b600088815260076020526040902054909150612fe5576002915050611848565b80604051602001612ff691906138bd565b60408051601f19818403018152918152815160209283012060008a815260079093529120541461302a576006915050611848565b60006130353a613221565b9050600082610120015183610100015161304f9190614786565b6130609064ffffffffff16836143b8565b90506000807f000000000000000000000000000000000000000000000000000000000000000073ffffffffffffffffffffffffffffffffffffffff1663330605298b8b878960e0015168ffffffffffffffffff16886130bf9190614393565b338b6040518763ffffffff1660e01b81526004016130e2969594939291906147a4565b60408051808303816000875af1158015613100573d6000803e3d6000fd5b505050506040513d601f19601f820116820180604052508101906131249190614820565b9092509050600082600681111561313d5761313d61419f565b148061315a575060018260068111156131585761315861419f565b145b156132135760008b8152600760205260408120556131788184614393565b336000908152600a6020526040812080547fffffffffffffffffffffffffffffffffffffffff000000000000000000000000166bffffffffffffffffffffffff93841617905560e0870151600b805468ffffffffffffffffff909216939092916131e491859116614393565b92506101000a8154816bffffffffffffffffffffffff02191690836bffffffffffffffffffffffff1602179055505b509998505050505050505050565b600061324a61322e6122a0565b61324084670de0b6b3a76400006141f2565b612e1a91906145c9565b92915050565b60006bffffffffffffffffffffffff8211156132d45760405162461bcd60e51b815260206004820152602660248201527f53616665436173743a2076616c756520646f65736e27742066697420696e203960448201527f3620626974730000000000000000000000000000000000000000000000000000606482015260840161086c565b5090565b604051806103e00160405280601f906020820280368337509192915050565b60008083601f84011261330957600080fd5b50813567ffffffffffffffff81111561332157600080fd5b60208301915083602082850101111561333957600080fd5b9250929050565b6000806020838503121561335357600080fd5b823567ffffffffffffffff81111561336a57600080fd5b613376858286016132f7565b90969095509350505050565b6000815180845260005b818110156133a85760208185018101518683018201520161338c565b506000602082860101526020601f19601f83011685010191505092915050565b6020815260006133db6020830184613382565b9392505050565b7f4e487b7100000000000000000000000000000000000000000000000000000000600052604160045260246000fd5b604051610160810167ffffffffffffffff81118282101715613435576134356133e2565b60405290565b604051601f8201601f1916810167ffffffffffffffff81118282101715613464576134646133e2565b604052919050565b600082601f83011261347d57600080fd5b813567ffffffffffffffff811115613497576134976133e2565b6134aa6020601f19601f8401160161343b565b8181528460208386010111156134bf57600080fd5b816020850160208301376000918101602001919091529392505050565b6000602082840312156134ee57600080fd5b813567ffffffffffffffff81111561350557600080fd5b6135118482850161346c565b949350505050565b73ffffffffffffffffffffffffffffffffffffffff811681146124d657600080fd5b803561110b81613519565b6bffffffffffffffffffffffff811681146124d657600080fd5b803561110b81613546565b6000806040838503121561357e57600080fd5b823561358981613519565b9150602083013561359981613546565b809150509250929050565b600081518084526020808501945080840160005b838110156135ea57815173ffffffffffffffffffffffffffffffffffffffff16875295820195908201906001016135b8565b509495945050505050565b6020815260006133db60208301846135a4565b60006020828403121561361a57600080fd5b5035919050565b63ffffffff811681146124d657600080fd5b803561110b81613621565b68ffffffffffffffffff811681146124d657600080fd5b803561110b8161363e565b803561ffff8116811461110b57600080fd5b80357bffffffffffffffffffffffffffffffffffffffffffffffffffffffff8116811461110b57600080fd5b60006101008083850312156136b257600080fd5b6040519081019067ffffffffffffffff821181831017156136d5576136d56133e2565b81604052833591506136e682613621565b8181526136f560208501613633565b602082015261370660408501613633565b604082015261371760608501613633565b606082015261372860808501613633565b608082015261373960a08501613655565b60a082015261374a60c08501613660565b60c082015261375b60e08501613672565b60e0820152949350505050565b60006020828403121561377a57600080fd5b813567ffffffffffffffff81111561379157600080fd5b820161016081850312156133db57600080fd5b8051825260208101516137cf602084018273ffffffffffffffffffffffffffffffffffffffff169052565b5060408101516137ef60408401826bffffffffffffffffffffffff169052565b506060810151613817606084018273ffffffffffffffffffffffffffffffffffffffff169052565b506080810151613833608084018267ffffffffffffffff169052565b5060a081015161384b60a084018263ffffffff169052565b5060c081015161386860c084018268ffffffffffffffffff169052565b5060e081015161388560e084018268ffffffffffffffffff169052565b506101008181015164ffffffffff9081169184019190915261012080830151909116908301526101409081015163ffffffff16910152565b610160810161324a82846137a4565b60008083601f8401126138de57600080fd5b50813567ffffffffffffffff8111156138f657600080fd5b6020830191508360208260051b850101111561333957600080fd5b60008060008060008060008060e0898b03121561392d57600080fd5b606089018a81111561393e57600080fd5b8998503567ffffffffffffffff8082111561395857600080fd5b6139648c838d016132f7565b909950975060808b013591508082111561397d57600080fd5b6139898c838d016138cc565b909750955060a08b01359150808211156139a257600080fd5b506139af8b828c016138cc565b999c989b50969995989497949560c00135949350505050565b60006101008201905063ffffffff8084511683528060208501511660208401528060408501511660408401528060608501511660608401528060808501511660808401525068ffffffffffffffffff60a08401511660a083015260c0830151613a3760c084018261ffff169052565b5060e08301516124be60e08401827bffffffffffffffffffffffffffffffffffffffffffffffffffffffff169052565b67ffffffffffffffff811681146124d657600080fd5b803561110b81613a67565b600080600080600060808688031215613aa057600080fd5b8535613aab81613a67565b9450602086013567ffffffffffffffff811115613ac757600080fd5b613ad3888289016132f7565b9095509350506040860135613ae781613621565b949793965091946060013592915050565b600067ffffffffffffffff821115613b1257613b126133e2565b5060051b60200190565b600082601f830112613b2d57600080fd5b81356020613b42613b3d83613af8565b61343b565b82815260059290921b84018101918181019086841115613b6157600080fd5b8286015b84811015613b85578035613b7881613519565b8352918301918301613b65565b509695505050505050565b803560ff8116811461110b57600080fd5b60008060008060008060c08789031215613bba57600080fd5b863567ffffffffffffffff80821115613bd257600080fd5b613bde8a838b01613b1c565b97506020890135915080821115613bf457600080fd5b613c008a838b01613b1c565b9650613c0e60408a01613b90565b95506060890135915080821115613c2457600080fd5b613c308a838b0161346c565b9450613c3e60808a01613a7d565b935060a0890135915080821115613c5457600080fd5b50613c6189828a0161346c565b9150509295509295509295565b600060208284031215613c8057600080fd5b81356133db81613519565b600181811c90821680613c9f57607f821691505b602082108103613cd8577f4e487b7100000000000000000000000000000000000000000000000000000000600052602260045260246000fd5b50919050565b601f8211156105b557600081815260208120601f850160051c81016020861015613d055750805b601f850160051c820191505b8181101561080157828155600101613d11565b67ffffffffffffffff831115613d3c57613d3c6133e2565b613d5083613d4a8354613c8b565b83613cde565b6000601f841160018114613da25760008515613d6c5750838201355b7fffffffffffffffffffffffffffffffffffffffffffffffffffffffffffffffff600387901b1c1916600186901b178355613e1a565b600083815260209020601f19861690835b82811015613dd35786850135825560209485019460019092019101613db3565b5086821015613e0e577fffffffffffffffffffffffffffffffffffffffffffffffffffffffffffffffff60f88860031b161c19848701351681555b505060018560011b0183555b5050505050565b805161110b8161363e565b600060208284031215613e3e57600080fd5b81516133db8161363e565b7f4e487b7100000000000000000000000000000000000000000000000000000000600052601160045260246000fd5b6bffffffffffffffffffffffff8281168282160390808211156124be576124be613e49565b7f4e487b7100000000000000000000000000000000000000000000000000000000600052603260045260246000fd5b60007fffffffffffffffffffffffffffffffffffffffffffffffffffffffffffffffff8203613efd57613efd613e49565b5060010190565b60006101608236031215613f1757600080fd5b613f1f613411565b823567ffffffffffffffff811115613f3657600080fd5b613f423682860161346c565b82525060208301356020820152613f5b6040840161353b565b6040820152613f6c60608401613560565b6060820152613f7d60808401613655565b6080820152613f8e60a08401613a7d565b60a0820152613f9f60c08401613a7d565b60c0820152613fb060e08401613633565b60e0820152610100613fc3818501613660565b90820152610120613fd5848201613a7d565b90820152610140613fe784820161353b565b9082015292915050565b60006020828403121561400357600080fd5b81356133db81613a67565b60008083357fffffffffffffffffffffffffffffffffffffffffffffffffffffffffffffffe184360301811261404357600080fd5b83018035915067ffffffffffffffff82111561405e57600080fd5b60200191503681900382131561333957600080fd5b60006020828403121561408557600080fd5b6133db82613660565b6000602082840312156140a057600080fd5b81356133db81613621565b73ffffffffffffffffffffffffffffffffffffffff8a8116825267ffffffffffffffff8a166020830152881660408201526102406060820181905281018690526000610260878982850137600083890182015261ffff8716608084015260a0830186905263ffffffff851660c0840152601f8801601f19168301019050612e1f60e08301846137a4565b60ff818116838216019081111561324a5761324a613e49565b7f4e487b7100000000000000000000000000000000000000000000000000000000600052601260045260246000fd5b600060ff8316806141905761419061414e565b8060ff84160491505092915050565b7f4e487b7100000000000000000000000000000000000000000000000000000000600052602160045260246000fd5b8183823760009101908152919050565b828152606082602083013760800192915050565b808202811582820484141761324a5761324a613e49565b8181038181111561324a5761324a613e49565b7f4e487b7100000000000000000000000000000000000000000000000000000000600052603160045260246000fd5b63ffffffff8181168382160190808211156124be576124be613e49565b600061012063ffffffff808d1684528b6020850152808b166040850152508060608401526142988184018a6135a4565b905082810360808401526142ac81896135a4565b905060ff871660a084015282810360c08401526142c98187613382565b905067ffffffffffffffff851660e08401528281036101008401526142ee8185613382565b9c9b505050505050505050505050565b805169ffffffffffffffffffff8116811461110b57600080fd5b600080600080600060a0868803121561433057600080fd5b614339866142fe565b945060208601519350604086015192506060860151915061435c608087016142fe565b90509295509295909350565b60006bffffffffffffffffffffffff808416806143875761438761414e565b92169190910492915050565b6bffffffffffffffffffffffff8181168382160190808211156124be576124be613e49565b6bffffffffffffffffffffffff8181168382160280821691908281146143e0576143e0613e49565b505092915050565b67ffffffffffffffff8181168382160190808211156124be576124be613e49565b8082018082111561324a5761324a613e49565b600082601f83011261442d57600080fd5b8135602061443d613b3d83613af8565b82815260059290921b8401810191818101908684111561445c57600080fd5b8286015b84811015613b855780358352918301918301614460565b600082601f83011261448857600080fd5b81356020614498613b3d83613af8565b82815260059290921b840181019181810190868411156144b757600080fd5b8286015b84811015613b8557803567ffffffffffffffff8111156144db5760008081fd5b6144e98986838b010161346c565b8452509183019183016144bb565b600080600080600060a0868803121561450f57600080fd5b853567ffffffffffffffff8082111561452757600080fd5b61453389838a0161441c565b9650602088013591508082111561454957600080fd5b61455589838a01614477565b9550604088013591508082111561456b57600080fd5b61457789838a01614477565b9450606088013591508082111561458d57600080fd5b61459989838a01614477565b935060808801359150808211156145af57600080fd5b506145bc88828901614477565b9150509295509295909350565b6000826145d8576145d861414e565b500490565b60006101208b835273ffffffffffffffffffffffffffffffffffffffff8b16602084015267ffffffffffffffff808b1660408501528160608501526146248285018b6135a4565b91508382036080850152614638828a6135a4565b915060ff881660a085015283820360c08501526146558288613382565b90861660e085015283810361010085015290506142ee8185613382565b805161110b81613519565b805161110b81613546565b805161110b81613a67565b805161110b81613621565b805164ffffffffff8116811461110b57600080fd5b600061016082840312156146c657600080fd5b6146ce613411565b825181526146de60208401614672565b60208201526146ef6040840161467d565b604082015261470060608401614672565b606082015261471160808401614688565b608082015261472260a08401614693565b60a082015261473360c08401613e21565b60c082015261474460e08401613e21565b60e082015261010061475781850161469e565b9082015261012061476984820161469e565b9082015261014061477b848201614693565b908201529392505050565b64ffffffffff8181168382160190808211156124be576124be613e49565b60006102008083526147b88184018a613382565b905082810360208401526147cc8189613382565b6bffffffffffffffffffffffff88811660408601528716606085015273ffffffffffffffffffffffffffffffffffffffff861660808501529150614815905060a08301846137a4565b979650505050505050565b6000806040838503121561483357600080fd5b82516007811061484257600080fd5b60208401519092506135998161354656fea164736f6c6343000815000a",
    "linkReferences": {}
  },
  "methodIdentifiers": {
    "acceptOwnership()": "79ba5097",
    "deleteCommitment(bytes32)": "85b214cf",
    "estimateCost(uint64,bytes,uint32,uint256)": "d227d245",
    "getAdminFee()": "2a905ccc",
    "getConfig()": "c3f909d4",
    "getDONFee(bytes)": "59b5b7ac",
    "getDONPublicKey()": "d328a91e",
    "getThresholdPublicKey()": "81f1b938",
    "getWeiPerUnitLink()": "e4ddcea6",
    "latestConfigDetails()": "81ff7048",
    "latestConfigDigestAndEpoch()": "afcb95d7",
    "oracleWithdraw(address,uint96)": "66316d8d",
    "oracleWithdrawAll()": "7d480787",
    "owner()": "8da5cb5b",
    "setConfig(address[],address[],uint8,bytes,uint64,bytes)": "e3d0e712",
    "setDONPublicKey(bytes)": "7f15e166",
    "setThresholdPublicKey(bytes)": "083a5466",
    "startRequest((bytes,bytes32,address,uint96,uint72,uint64,uint64,uint32,uint16,uint64,address))": "a631571e",
    "transferOwnership(address)": "f2fde38b",
    "transmit(bytes32[3],bytes,bytes32[],bytes32[],bytes32)": "b1dc65a4",
    "transmitters()": "81411834",
    "typeAndVersion()": "181f5a77",
    "updateConfig((uint32,uint32,uint32,uint32,uint32,uint72,uint16,uint224))": "9314176d"
  },
  "id": 157
}