{
  "abi": [
    {
      "inputs": [],
      "stateMutability": "nonpayable",
      "type": "constructor"
    },
    {
      "inputs": [
        {
          "internalType": "bytes",
          "name": "transactions",
          "type": "bytes"
        }
      ],
      "name": "multiSend",
      "outputs": [],
      "stateMutability": "payable",
      "type": "function"
    }
  ],
  "bytecode": {
    "object": "0x60a060405234801561001057600080fd5b503060805260805161029461002f6000396000604f01526102946000f3fe60806040526004361061001e5760003560e01c80638d80ff0a14610023575b600080fd5b6100366100313660046101b8565b610038565b005b73ffffffffffffffffffffffffffffffffffffffff7f0000000000000000000000000000000000000000000000000000000000000000163003610101576040517f08c379a000000000000000000000000000000000000000000000000000000000815260206004820152603060248201527f4d756c746953656e642073686f756c64206f6e6c792062652063616c6c65642060448201527f7669612064656c656761746563616c6c00000000000000000000000000000000606482015260840160405180910390fd5b805160205b81811015610184578083015160f81c6001820184015160601c60158301850151603584018601516055850187016000856000811461014b576001811461015b57610166565b6000808585888a5af19150610166565b6000808585895af491505b508061017157600080fd5b5050806055018501945050505050610106565b505050565b7f4e487b7100000000000000000000000000000000000000000000000000000000600052604160045260246000fd5b6000602082840312156101ca57600080fd5b813567ffffffffffffffff808211156101e257600080fd5b818401915084601f8301126101f657600080fd5b81358181111561020857610208610189565b604051601f82017fffffffffffffffffffffffffffffffffffffffffffffffffffffffffffffffe0908116603f0116810190838211818310171561024e5761024e610189565b8160405282815287602084870101111561026757600080fd5b82602086016020830137600092810160200192909252509594505050505056fea164736f6c6343000815000a",
    "linkReferences": {}
  },
  "methodIdentifiers": {
    "multiSend(bytes)": "8d80ff0a"
  },
  "id": 287
}