{
  "abi": [
    {
      "anonymous": false,
      "inputs": [
        {
          "indexed": false,
          "internalType": "address[]",
          "name": "senders",
          "type": "address[]"
        },
        {
          "indexed": false,
          "internalType": "address",
          "name": "changedBy",
          "type": "address"
        }
      ],
      "name": "AuthorizedSendersChanged",
      "type": "event"
    },
    {
      "anonymous": false,
      "inputs": [
        {
          "indexed": true,
          "internalType": "bytes32",
          "name": "requestId",
          "type": "bytes32"
        },
        {
          "indexed": false,
          "internalType": "uint64",
          "name": "subscriptionId",
          "type": "uint64"
        },
        {
          "indexed": false,
          "internalType": "uint96",
          "name": "signerPayment",
          "type": "uint96"
        },
        {
          "indexed": false,
          "internalType": "uint96",
          "name": "transmitterPayment",
          "type": "uint96"
        },
        {
          "indexed": false,
          "internalType": "uint96",
          "name": "totalCost",
          "type": "uint96"
        },
        {
          "indexed": false,
          "internalType": "bool",
          "name": "success",
          "type": "bool"
        }
      ],
      "name": "BillingEnd",
      "type": "event"
    },
    {
      "anonymous": false,
      "inputs": [
        {
          "indexed": true,
          "internalType": "bytes32",
          "name": "requestId",
          "type": "bytes32"
        },
        {
          "components": [
            {
              "internalType": "uint64",
              "name": "subscriptionId",
              "type": "uint64"
            },
            {
              "internalType": "address",
              "name": "client",
              "type": "address"
            },
            {
              "internalType": "uint32",
              "name": "gasLimit",
              "type": "uint32"
            },
            {
              "internalType": "uint256",
              "name": "gasPrice",
              "type": "uint256"
            },
            {
              "internalType": "address",
              "name": "don",
              "type": "address"
            },
            {
              "internalType": "uint96",
              "name": "donFee",
              "type": "uint96"
            },
            {
              "internalType": "uint96",
              "name": "registryFee",
              "type": "uint96"
            },
            {
              "internalType": "uint96",
              "name": "estimatedCost",
              "type": "uint96"
            },
            {
              "internalType": "uint256",
              "name": "timestamp",
              "type": "uint256"
            }
          ],
          "indexed": false,
          "internalType": "struct FunctionsBillingRegistryEventsMock.Commitment",
          "name": "commitment",
          "type": "tuple"
        }
      ],
      "name": "BillingStart",
      "type": "event"
    },
    {
      "anonymous": false,
      "inputs": [
        {
          "indexed": false,
          "internalType": "uint32",
          "name": "maxGasLimit",
          "type": "uint32"
        },
        {
          "indexed": false,
          "internalType": "uint32",
          "name": "stalenessSeconds",
          "type": "uint32"
        },
        {
          "indexed": false,
          "internalType": "uint256",
          "name": "gasAfterPaymentCalculation",
          "type": "uint256"
        },
        {
          "indexed": false,
          "internalType": "int256",
          "name": "fallbackWeiPerUnitLink",
          "type": "int256"
        },
        {
          "indexed": false,
          "internalType": "uint32",
          "name": "gasOverhead",
          "type": "uint32"
        }
      ],
      "name": "ConfigSet",
      "type": "event"
    },
    {
      "anonymous": false,
      "inputs": [
        {
          "indexed": false,
          "internalType": "address",
          "name": "to",
          "type": "address"
        },
        {
          "indexed": false,
          "internalType": "uint256",
          "name": "amount",
          "type": "uint256"
        }
      ],
      "name": "FundsRecovered",
      "type": "event"
    },
    {
      "anonymous": false,
      "inputs": [
        {
          "indexed": false,
          "internalType": "uint8",
          "name": "version",
          "type": "uint8"
        }
      ],
      "name": "Initialized",
      "type": "event"
    },
    {
      "anonymous": false,
      "inputs": [
        {
          "indexed": true,
          "internalType": "address",
          "name": "from",
          "type": "address"
        },
        {
          "indexed": true,
          "internalType": "address",
          "name": "to",
          "type": "address"
        }
      ],
      "name": "OwnershipTransferRequested",
      "type": "event"
    },
    {
      "anonymous": false,
      "inputs": [
        {
          "indexed": true,
          "internalType": "address",
          "name": "from",
          "type": "address"
        },
        {
          "indexed": true,
          "internalType": "address",
          "name": "to",
          "type": "address"
        }
      ],
      "name": "OwnershipTransferred",
      "type": "event"
    },
    {
      "anonymous": false,
      "inputs": [
        {
          "indexed": false,
          "internalType": "address",
          "name": "account",
          "type": "address"
        }
      ],
      "name": "Paused",
      "type": "event"
    },
    {
      "anonymous": false,
      "inputs": [
        {
          "indexed": true,
          "internalType": "bytes32",
          "name": "requestId",
          "type": "bytes32"
        }
      ],
      "name": "RequestTimedOut",
      "type": "event"
    },
    {
      "anonymous": false,
      "inputs": [
        {
          "indexed": true,
          "internalType": "uint64",
          "name": "subscriptionId",
          "type": "uint64"
        },
        {
          "indexed": false,
          "internalType": "address",
          "name": "to",
          "type": "address"
        },
        {
          "indexed": false,
          "internalType": "uint256",
          "name": "amount",
          "type": "uint256"
        }
      ],
      "name": "SubscriptionCanceled",
      "type": "event"
    },
    {
      "anonymous": false,
      "inputs": [
        {
          "indexed": true,
          "internalType": "uint64",
          "name": "subscriptionId",
          "type": "uint64"
        },
        {
          "indexed": false,
          "internalType": "address",
          "name": "consumer",
          "type": "address"
        }
      ],
      "name": "SubscriptionConsumerAdded",
      "type": "event"
    },
    {
      "anonymous": false,
      "inputs": [
        {
          "indexed": true,
          "internalType": "uint64",
          "name": "subscriptionId",
          "type": "uint64"
        },
        {
          "indexed": false,
          "internalType": "address",
          "name": "consumer",
          "type": "address"
        }
      ],
      "name": "SubscriptionConsumerRemoved",
      "type": "event"
    },
    {
      "anonymous": false,
      "inputs": [
        {
          "indexed": true,
          "internalType": "uint64",
          "name": "subscriptionId",
          "type": "uint64"
        },
        {
          "indexed": false,
          "internalType": "address",
          "name": "owner",
          "type": "address"
        }
      ],
      "name": "SubscriptionCreated",
      "type": "event"
    },
    {
      "anonymous": false,
      "inputs": [
        {
          "indexed": true,
          "internalType": "uint64",
          "name": "subscriptionId",
          "type": "uint64"
        },
        {
          "indexed": false,
          "internalType": "uint256",
          "name": "oldBalance",
          "type": "uint256"
        },
        {
          "indexed": false,
          "internalType": "uint256",
          "name": "newBalance",
          "type": "uint256"
        }
      ],
      "name": "SubscriptionFunded",
      "type": "event"
    },
    {
      "anonymous": false,
      "inputs": [
        {
          "indexed": true,
          "internalType": "uint64",
          "name": "subscriptionId",
          "type": "uint64"
        },
        {
          "indexed": false,
          "internalType": "address",
          "name": "from",
          "type": "address"
        },
        {
          "indexed": false,
          "internalType": "address",
          "name": "to",
          "type": "address"
        }
      ],
      "name": "SubscriptionOwnerTransferRequested",
      "type": "event"
    },
    {
      "anonymous": false,
      "inputs": [
        {
          "indexed": true,
          "internalType": "uint64",
          "name": "subscriptionId",
          "type": "uint64"
        },
        {
          "indexed": false,
          "internalType": "address",
          "name": "from",
          "type": "address"
        },
        {
          "indexed": false,
          "internalType": "address",
          "name": "to",
          "type": "address"
        }
      ],
      "name": "SubscriptionOwnerTransferred",
      "type": "event"
    },
    {
      "anonymous": false,
      "inputs": [
        {
          "indexed": false,
          "internalType": "address",
          "name": "account",
          "type": "address"
        }
      ],
      "name": "Unpaused",
      "type": "event"
    },
    {
      "inputs": [
        {
          "internalType": "address[]",
          "name": "senders",
          "type": "address[]"
        },
        {
          "internalType": "address",
          "name": "changedBy",
          "type": "address"
        }
      ],
      "name": "emitAuthorizedSendersChanged",
      "outputs": [],
      "stateMutability": "nonpayable",
      "type": "function"
    },
    {
      "inputs": [
        {
          "internalType": "bytes32",
          "name": "requestId",
          "type": "bytes32"
        },
        {
          "internalType": "uint64",
          "name": "subscriptionId",
          "type": "uint64"
        },
        {
          "internalType": "uint96",
          "name": "signerPayment",
          "type": "uint96"
        },
        {
          "internalType": "uint96",
          "name": "transmitterPayment",
          "type": "uint96"
        },
        {
          "internalType": "uint96",
          "name": "totalCost",
          "type": "uint96"
        },
        {
          "internalType": "bool",
          "name": "success",
          "type": "bool"
        }
      ],
      "name": "emitBillingEnd",
      "outputs": [],
      "stateMutability": "nonpayable",
      "type": "function"
    },
    {
      "inputs": [
        {
          "internalType": "bytes32",
          "name": "requestId",
          "type": "bytes32"
        },
        {
          "components": [
            {
              "internalType": "uint64",
              "name": "subscriptionId",
              "type": "uint64"
            },
            {
              "internalType": "address",
              "name": "client",
              "type": "address"
            },
            {
              "internalType": "uint32",
              "name": "gasLimit",
              "type": "uint32"
            },
            {
              "internalType": "uint256",
              "name": "gasPrice",
              "type": "uint256"
            },
            {
              "internalType": "address",
              "name": "don",
              "type": "address"
            },
            {
              "internalType": "uint96",
              "name": "donFee",
              "type": "uint96"
            },
            {
              "internalType": "uint96",
              "name": "registryFee",
              "type": "uint96"
            },
            {
              "internalType": "uint96",
              "name": "estimatedCost",
              "type": "uint96"
            },
            {
              "internalType": "uint256",
              "name": "timestamp",
              "type": "uint256"
            }
          ],
          "internalType": "struct FunctionsBillingRegistryEventsMock.Commitment",
          "name": "commitment",
          "type": "tuple"
        }
      ],
      "name": "emitBillingStart",
      "outputs": [],
      "stateMutability": "nonpayable",
      "type": "function"
    },
    {
      "inputs": [
        {
          "internalType": "uint32",
          "name": "maxGasLimit",
          "type": "uint32"
        },
        {
          "internalType": "uint32",
          "name": "stalenessSeconds",
          "type": "uint32"
        },
        {
          "internalType": "uint256",
          "name": "gasAfterPaymentCalculation",
          "type": "uint256"
        },
        {
          "internalType": "int256",
          "name": "fallbackWeiPerUnitLink",
          "type": "int256"
        },
        {
          "internalType": "uint32",
          "name": "gasOverhead",
          "type": "uint32"
        }
      ],
      "name": "emitConfigSet",
      "outputs": [],
      "stateMutability": "nonpayable",
      "type": "function"
    },
    {
      "inputs": [
        {
          "internalType": "address",
          "name": "to",
          "type": "address"
        },
        {
          "internalType": "uint256",
          "name": "amount",
          "type": "uint256"
        }
      ],
      "name": "emitFundsRecovered",
      "outputs": [],
      "stateMutability": "nonpayable",
      "type": "function"
    },
    {
      "inputs": [
        {
          "internalType": "uint8",
          "name": "version",
          "type": "uint8"
        }
      ],
      "name": "emitInitialized",
      "outputs": [],
      "stateMutability": "nonpayable",
      "type": "function"
    },
    {
      "inputs": [
        {
          "internalType": "address",
          "name": "from",
          "type": "address"
        },
        {
          "internalType": "address",
          "name": "to",
          "type": "address"
        }
      ],
      "name": "emitOwnershipTransferRequested",
      "outputs": [],
      "stateMutability": "nonpayable",
      "type": "function"
    },
    {
      "inputs": [
        {
          "internalType": "address",
          "name": "from",
          "type": "address"
        },
        {
          "internalType": "address",
          "name": "to",
          "type": "address"
        }
      ],
      "name": "emitOwnershipTransferred",
      "outputs": [],
      "stateMutability": "nonpayable",
      "type": "function"
    },
    {
      "inputs": [
        {
          "internalType": "address",
          "name": "account",
          "type": "address"
        }
      ],
      "name": "emitPaused",
      "outputs": [],
      "stateMutability": "nonpayable",
      "type": "function"
    },
    {
      "inputs": [
        {
          "internalType": "bytes32",
          "name": "requestId",
          "type": "bytes32"
        }
      ],
      "name": "emitRequestTimedOut",
      "outputs": [],
      "stateMutability": "nonpayable",
      "type": "function"
    },
    {
      "inputs": [
        {
          "internalType": "uint64",
          "name": "subscriptionId",
          "type": "uint64"
        },
        {
          "internalType": "address",
          "name": "to",
          "type": "address"
        },
        {
          "internalType": "uint256",
          "name": "amount",
          "type": "uint256"
        }
      ],
      "name": "emitSubscriptionCanceled",
      "outputs": [],
      "stateMutability": "nonpayable",
      "type": "function"
    },
    {
      "inputs": [
        {
          "internalType": "uint64",
          "name": "subscriptionId",
          "type": "uint64"
        },
        {
          "internalType": "address",
          "name": "consumer",
          "type": "address"
        }
      ],
      "name": "emitSubscriptionConsumerAdded",
      "outputs": [],
      "stateMutability": "nonpayable",
      "type": "function"
    },
    {
      "inputs": [
        {
          "internalType": "uint64",
          "name": "subscriptionId",
          "type": "uint64"
        },
        {
          "internalType": "address",
          "name": "consumer",
          "type": "address"
        }
      ],
      "name": "emitSubscriptionConsumerRemoved",
      "outputs": [],
      "stateMutability": "nonpayable",
      "type": "function"
    },
    {
      "inputs": [
        {
          "internalType": "uint64",
          "name": "subscriptionId",
          "type": "uint64"
        },
        {
          "internalType": "address",
          "name": "owner",
          "type": "address"
        }
      ],
      "name": "emitSubscriptionCreated",
      "outputs": [],
      "stateMutability": "nonpayable",
      "type": "function"
    },
    {
      "inputs": [
        {
          "internalType": "uint64",
          "name": "subscriptionId",
          "type": "uint64"
        },
        {
          "internalType": "uint256",
          "name": "oldBalance",
          "type": "uint256"
        },
        {
          "internalType": "uint256",
          "name": "newBalance",
          "type": "uint256"
        }
      ],
      "name": "emitSubscriptionFunded",
      "outputs": [],
      "stateMutability": "nonpayable",
      "type": "function"
    },
    {
      "inputs": [
        {
          "internalType": "uint64",
          "name": "subscriptionId",
          "type": "uint64"
        },
        {
          "internalType": "address",
          "name": "from",
          "type": "address"
        },
        {
          "internalType": "address",
          "name": "to",
          "type": "address"
        }
      ],
      "name": "emitSubscriptionOwnerTransferRequested",
      "outputs": [],
      "stateMutability": "nonpayable",
      "type": "function"
    },
    {
      "inputs": [
        {
          "internalType": "uint64",
          "name": "subscriptionId",
          "type": "uint64"
        },
        {
          "internalType": "address",
          "name": "from",
          "type": "address"
        },
        {
          "internalType": "address",
          "name": "to",
          "type": "address"
        }
      ],
      "name": "emitSubscriptionOwnerTransferred",
      "outputs": [],
      "stateMutability": "nonpayable",
      "type": "function"
    },
    {
      "inputs": [
        {
          "internalType": "address",
          "name": "account",
          "type": "address"
        }
      ],
      "name": "emitUnpaused",
      "outputs": [],
      "stateMutability": "nonpayable",
      "type": "function"
    }
  ],
  "bytecode": {
    "object": "0x608060405234801561001057600080fd5b50610ea7806100206000396000f3fe608060405234801561001057600080fd5b50600436106101365760003560e01c8063a5257226116100b2578063dde69b3f11610081578063e2cab57b11610066578063e2cab57b1461025a578063e9c6260f1461026d578063f7420bc21461028057600080fd5b8063dde69b3f14610234578063e0f6eff11461024757600080fd5b8063a5257226146101e8578063b019b4e8146101fb578063bef9e1831461020e578063c1d2ad191461022157600080fd5b8063689300ea116101095780637be5c756116100ee5780637be5c756146101af5780637e1b44c0146101c25780639ec3ce4b146101d557600080fd5b8063689300ea14610189578063735bb0821461019c57600080fd5b80632d6d80b31461013b5780633f70afb6146101505780634bf6a80d14610163578063675b924414610176575b600080fd5b61014e6101493660046108f0565b610293565b005b61014e61015e3660046109c7565b6102d0565b61014e6101713660046109fa565b61032a565b61014e6101843660046109c7565b61038c565b61014e610197366004610a3d565b6103de565b61014e6101aa366004610a7b565b61042a565b61014e6101bd366004610ad2565b610487565b61014e6101d0366004610af4565b6104d4565b61014e6101e3366004610ad2565b610502565b61014e6101f63660046109c7565b610548565b61014e610209366004610b0d565b61059a565b61014e61021c366004610b29565b6105f8565b61014e61022f366004610b68565b61062b565b61014e610242366004610bde565b61069e565b61014e6102553660046109fa565b6106f6565b61014e610268366004610c1a565b61074f565b61014e61027b366004610c4d565b610791565b61014e61028e366004610b0d565b6107c1565b7ff263cfb3e4298332e776194610cf9fdc09ccb3ada8b9aa39764d882e11fbf0a082826040516102c4929190610d33565b60405180910390a15050565b60405173ffffffffffffffffffffffffffffffffffffffff8216815267ffffffffffffffff8316907f464722b4166576d3dcbba877b999bc35cf911f4eaf434b7eba68fa113951d0bf906020015b60405180910390a25050565b6040805173ffffffffffffffffffffffffffffffffffffffff80851682528316602082015267ffffffffffffffff8516917f6f1dc65165ffffedfd8e507b4a0f1fcfdada045ed11f6c26ba27cedfe87802f091015b60405180910390a2505050565b60405173ffffffffffffffffffffffffffffffffffffffff8216815267ffffffffffffffff8316907f43dc749a04ac8fb825cbd514f7c0e13f13bc6f2ee66043b76629d51776cff8e09060200161031e565b6040805173ffffffffffffffffffffffffffffffffffffffff84168152602081018390527f59bfc682b673f8cbf945f1e454df9334834abf7dfe7f92237ca29ecb9b43660091016102c4565b6040805163ffffffff87811682528681166020830152818301869052606082018590528316608082015290517f24d3d934adfef9b9029d6ffa463c07d0139ed47d26ee23506f85ece2879d2bd49181900360a00190a15050505050565b60405173ffffffffffffffffffffffffffffffffffffffff821681527f62e78cea01bee320cd4e420270b5ea74000d11b0c9f74754ebdbfc544b05a258906020015b60405180910390a150565b60405181907ff1ca1e9147be737b04a2b018a79405f687a97de8dd8a2559bbe62357343af41490600090a250565b60405173ffffffffffffffffffffffffffffffffffffffff821681527f5db9ee0a495bf2e6ff9c91a7834c1ba4fdd244a5e8aa4e537bd38aeae4b073aa906020016104c9565b60405173ffffffffffffffffffffffffffffffffffffffff8216815267ffffffffffffffff8316907f182bff9831466789164ca77075fffd84916d35a8180ba73c27e45634549b445b9060200161031e565b8073ffffffffffffffffffffffffffffffffffffffff168273ffffffffffffffffffffffffffffffffffffffff167f8be0079c531659141344cd1fd0a4f28419497f9722a3daafe3b4186f6b6457e060405160405180910390a35050565b60405160ff821681527f7f26b83ff96e1f2b6a682f133852f6798a09c465da95921460cefb3847402498906020016104c9565b6040805167ffffffffffffffff871681526bffffffffffffffffffffffff868116602083015285811682840152841660608201528215156080820152905187917fc8dc973332de19a5f71b6026983110e9c2e04b0c98b87eb771ccb78607fd114f919081900360a00190a2505050505050565b6040805173ffffffffffffffffffffffffffffffffffffffff841681526020810183905267ffffffffffffffff8516917fe8ed5b475a5b5987aa9165e8731bb78043f39eee32ec5a1169a89e27fcd49815910161037f565b6040805173ffffffffffffffffffffffffffffffffffffffff80851682528316602082015267ffffffffffffffff8516917f69436ea6df009049404f564eff6622cd00522b0bd6a89efd9e52a355c4a879be910161037f565b604080518381526020810183905267ffffffffffffffff8516917fd39ec07f4e209f627a4c427971473820dc129761ba28de8906bd56f57101d4f8910161037f565b817f99f7f4e65b4b9fbabd4e357c47ed3099b36e57ecd3a43e84662f34c207d0ebe48260405161031e9190610daa565b8073ffffffffffffffffffffffffffffffffffffffff168273ffffffffffffffffffffffffffffffffffffffff167fed8889f560326eb138920d842192f0eb3dd22b4f139c87a2c57538e05bae127860405160405180910390a35050565b7f4e487b7100000000000000000000000000000000000000000000000000000000600052604160045260246000fd5b604051610120810167ffffffffffffffff811182821017156108725761087261081f565b60405290565b604051601f82017fffffffffffffffffffffffffffffffffffffffffffffffffffffffffffffffe016810167ffffffffffffffff811182821017156108bf576108bf61081f565b604052919050565b803573ffffffffffffffffffffffffffffffffffffffff811681146108eb57600080fd5b919050565b6000806040838503121561090357600080fd5b823567ffffffffffffffff8082111561091b57600080fd5b818501915085601f83011261092f57600080fd5b81356020828211156109435761094361081f565b8160051b9250610954818401610878565b828152928401810192818101908985111561096e57600080fd5b948201945b8486101561099357610984866108c7565b82529482019490820190610973565b96506109a290508782016108c7565b9450505050509250929050565b803567ffffffffffffffff811681146108eb57600080fd5b600080604083850312156109da57600080fd5b6109e3836109af565b91506109f1602084016108c7565b90509250929050565b600080600060608486031215610a0f57600080fd5b610a18846109af565b9250610a26602085016108c7565b9150610a34604085016108c7565b90509250925092565b60008060408385031215610a5057600080fd5b610a59836108c7565b946020939093013593505050565b803563ffffffff811681146108eb57600080fd5b600080600080600060a08688031215610a9357600080fd5b610a9c86610a67565b9450610aaa60208701610a67565b93506040860135925060608601359150610ac660808701610a67565b90509295509295909350565b600060208284031215610ae457600080fd5b610aed826108c7565b9392505050565b600060208284031215610b0657600080fd5b5035919050565b60008060408385031215610b2057600080fd5b6109e3836108c7565b600060208284031215610b3b57600080fd5b813560ff81168114610aed57600080fd5b80356bffffffffffffffffffffffff811681146108eb57600080fd5b60008060008060008060c08789031215610b8157600080fd5b86359550610b91602088016109af565b9450610b9f60408801610b4c565b9350610bad60608801610b4c565b9250610bbb60808801610b4c565b915060a08701358015158114610bd057600080fd5b809150509295509295509295565b600080600060608486031215610bf357600080fd5b610bfc846109af565b9250610c0a602085016108c7565b9150604084013590509250925092565b600080600060608486031215610c2f57600080fd5b610c38846109af565b95602085013595506040909401359392505050565b600080828403610140811215610c6257600080fd5b83359250610120807fffffffffffffffffffffffffffffffffffffffffffffffffffffffffffffffe083011215610c9857600080fd5b610ca061084e565b9150610cae602086016109af565b8252610cbc604086016108c7565b6020830152610ccd60608601610a67565b604083015260808501356060830152610ce860a086016108c7565b6080830152610cf960c08601610b4c565b60a0830152610d0a60e08601610b4c565b60c0830152610100610d1d818701610b4c565b60e0840152940135938101939093525092909150565b604080825283519082018190526000906020906060840190828701845b82811015610d8257815173ffffffffffffffffffffffffffffffffffffffff1684529284019290840190600101610d50565b50505073ffffffffffffffffffffffffffffffffffffffff9490941692019190915250919050565b60006101208201905067ffffffffffffffff835116825273ffffffffffffffffffffffffffffffffffffffff60208401511660208301526040830151610df8604084018263ffffffff169052565b50606083015160608301526080830151610e2a608084018273ffffffffffffffffffffffffffffffffffffffff169052565b5060a0830151610e4a60a08401826bffffffffffffffffffffffff169052565b5060c0830151610e6a60c08401826bffffffffffffffffffffffff169052565b5060e0830151610e8a60e08401826bffffffffffffffffffffffff169052565b506101009283015191909201529056fea164736f6c6343000815000a",
    "linkReferences": {}
  },
  "methodIdentifiers": {
    "emitAuthorizedSendersChanged(address[],address)": "2d6d80b3",
    "emitBillingEnd(bytes32,uint64,uint96,uint96,uint96,bool)": "c1d2ad19",
    "emitBillingStart(bytes32,(uint64,address,uint32,uint256,address,uint96,uint96,uint96,uint256))": "e9c6260f",
    "emitConfigSet(uint32,uint32,uint256,int256,uint32)": "735bb082",
    "emitFundsRecovered(address,uint256)": "689300ea",
    "emitInitialized(uint8)": "bef9e183",
    "emitOwnershipTransferRequested(address,address)": "f7420bc2",
    "emitOwnershipTransferred(address,address)": "b019b4e8",
    "emitPaused(address)": "7be5c756",
    "emitRequestTimedOut(bytes32)": "7e1b44c0",
    "emitSubscriptionCanceled(uint64,address,uint256)": "dde69b3f",
    "emitSubscriptionConsumerAdded(uint64,address)": "675b9244",
    "emitSubscriptionConsumerRemoved(uint64,address)": "a5257226",
    "emitSubscriptionCreated(uint64,address)": "3f70afb6",
    "emitSubscriptionFunded(uint64,uint256,uint256)": "e2cab57b",
    "emitSubscriptionOwnerTransferRequested(uint64,address,address)": "e0f6eff1",
    "emitSubscriptionOwnerTransferred(uint64,address,address)": "4bf6a80d",
    "emitUnpaused(address)": "9ec3ce4b"
  },
  "id": 244
}