{
  "abi": [
    {
      "inputs": [],
      "stateMutability": "nonpayable",
      "type": "constructor"
    },
    {
      "inputs": [
        {
          "internalType": "address",
          "name": "_address",
          "type": "address"
        }
      ],
      "name": "balanceOf",
      "outputs": [
        {
          "internalType": "uint256",
          "name": "",
          "type": "uint256"
        }
      ],
      "stateMutability": "view",
      "type": "function"
    },
    {
      "inputs": [
        {
          "internalType": "address",
          "name": "",
          "type": "address"
        }
      ],
      "name": "balances",
      "outputs": [
        {
          "internalType": "uint256",
          "name": "",
          "type": "uint256"
        }
      ],
      "stateMutability": "view",
      "type": "function"
    },
    {
      "inputs": [
        {
          "internalType": "address",
          "name": "_address",
          "type": "address"
        },
        {
          "internalType": "uint256",
          "name": "_value",
          "type": "uint256"
        }
      ],
      "name": "setBalance",
      "outputs": [
        {
          "internalType": "bool",
          "name": "",
          "type": "bool"
        }
      ],
      "stateMutability": "nonpayable",
      "type": "function"
    },
    {
      "inputs": [],
      "name": "totalSupply",
      "outputs": [
        {
          "internalType": "uint256",
          "name": "totalTokensIssued",
          "type": "uint256"
        }
      ],
      "stateMutability": "pure",
      "type": "function"
    },
    {
      "inputs": [
        {
          "internalType": "address",
          "name": "_to",
          "type": "address"
        },
        {
          "internalType": "uint256",
          "name": "_value",
          "type": "uint256"
        }
      ],
      "name": "transfer",
      "outputs": [
        {
          "internalType": "bool",
          "name": "",
          "type": "bool"
        }
      ],
      "stateMutability": "nonpayable",
      "type": "function"
    },
    {
      "inputs": [
        {
          "internalType": "address",
          "name": "_to",
          "type": "address"
        },
        {
          "internalType": "uint256",
          "name": "_value",
          "type": "uint256"
        },
        {
          "internalType": "bytes",
          "name": "_data",
          "type": "bytes"
        }
      ],
      "name": "transferAndCall",
      "outputs": [
        {
          "internalType": "bool",
          "name": "success",
          "type": "bool"
        }
      ],
      "stateMutability": "nonpayable",
      "type": "function"
    }
  ],
  "bytecode": {
    "object": "0x608060405234801561001057600080fd5b503360009081526020819052604090206b033b2e3c9fd0803ce800000090556104718061003e6000396000f3fe608060405234801561001057600080fd5b50600436106100725760003560e01c806370a082311161005057806370a08231146100db578063a9059cbb14610111578063e30443bc1461012457600080fd5b806318160ddd1461007757806327e235e3146100985780634000aea0146100b8575b600080fd5b6b033b2e3c9fd0803ce80000005b6040519081526020015b60405180910390f35b6100856100a63660046102cb565b60006020819052908152604090205481565b6100cb6100c63660046102ed565b61015f565b604051901515815260200161008f565b6100856100e93660046102cb565b73ffffffffffffffffffffffffffffffffffffffff1660009081526020819052604090205490565b6100cb61011f366004610374565b61018a565b6100cb610132366004610374565b73ffffffffffffffffffffffffffffffffffffffff91909116600090815260208190526040902055600190565b600061016b858561018a565b50843b1561017f5761017f8585858561020f565b506001949350505050565b336000908152602081905260408120546101a59083906103cd565b336000908152602081905260408082209290925573ffffffffffffffffffffffffffffffffffffffff8516815220546101df9083906103e0565b73ffffffffffffffffffffffffffffffffffffffff84166000908152602081905260409020555060015b92915050565b6040517fa4c0ed36000000000000000000000000000000000000000000000000000000008152849073ffffffffffffffffffffffffffffffffffffffff82169063a4c0ed36906102699033908890889088906004016103f3565b600060405180830381600087803b15801561028357600080fd5b505af1158015610297573d6000803e3d6000fd5b505050505050505050565b803573ffffffffffffffffffffffffffffffffffffffff811681146102c657600080fd5b919050565b6000602082840312156102dd57600080fd5b6102e6826102a2565b9392505050565b6000806000806060858703121561030357600080fd5b61030c856102a2565b935060208501359250604085013567ffffffffffffffff8082111561033057600080fd5b818701915087601f83011261034457600080fd5b81358181111561035357600080fd5b88602082850101111561036557600080fd5b95989497505060200194505050565b6000806040838503121561038757600080fd5b610390836102a2565b946020939093013593505050565b7f4e487b7100000000000000000000000000000000000000000000000000000000600052601160045260246000fd5b818103818111156102095761020961039e565b808201808211156102095761020961039e565b73ffffffffffffffffffffffffffffffffffffffff8516815283602082015260606040820152816060820152818360808301376000818301608090810191909152601f9092017fffffffffffffffffffffffffffffffffffffffffffffffffffffffffffffffe0160101939250505056fea164736f6c6343000815000a",
    "linkReferences": {}
  },
  "methodIdentifiers": {
    "balanceOf(address)": "70a08231",
    "balances(address)": "27e235e3",
    "setBalance(address,uint256)": "e30443bc",
    "totalSupply()": "18160ddd",
    "transfer(address,uint256)": "a9059cbb",
    "transferAndCall(address,uint256,bytes)": "4000aea0"
  },
  "id": 247
}