{
  "abi": [
    {
      "inputs": [
        {
          "internalType": "address",
          "name": "router",
          "type": "address"
        }
      ],
      "stateMutability": "nonpayable",
      "type": "constructor"
    },
    {
      "inputs": [],
      "name": "EmptySource",
      "type": "error"
    },
    {
      "inputs": [],
      "name": "NoInlineSecrets",
      "type": "error"
    },
    {
      "inputs": [],
      "name": "OnlyRouterCanFulfill",
      "type": "error"
    },
    {
      "anonymous": false,
      "inputs": [
        {
          "indexed": false,
          "internalType": "bytes32",
          "name": "requestId",
          "type": "bytes32"
        },
        {
          "indexed": false,
          "internalType": "bytes",
          "name": "response",
          "type": "bytes"
        },
        {
          "indexed": false,
          "internalType": "bytes",
          "name": "err",
          "type": "bytes"
        }
      ],
      "name": "FulfillRequestInvoked",
      "type": "event"
    },
    {
      "anonymous": false,
      "inputs": [
        {
          "indexed": true,
          "internalType": "bytes32",
          "name": "id",
          "type": "bytes32"
        }
      ],
      "name": "RequestFulfilled",
      "type": "event"
    },
    {
      "anonymous": false,
      "inputs": [
        {
          "indexed": true,
          "internalType": "bytes32",
          "name": "id",
          "type": "bytes32"
        }
      ],
      "name": "RequestSent",
      "type": "event"
    },
    {
      "anonymous": false,
      "inputs": [
        {
          "indexed": false,
          "internalType": "bytes32",
          "name": "requestId",
          "type": "bytes32"
        },
        {
          "indexed": false,
          "internalType": "string",
          "name": "sourceCode",
          "type": "string"
        },
        {
          "indexed": false,
          "internalType": "uint64",
          "name": "subscriptionId",
          "type": "uint64"
        }
      ],
      "name": "SendRequestInvoked",
      "type": "event"
    },
    {
      "inputs": [
        {
          "internalType": "uint64",
          "name": "subscriptionId",
          "type": "uint64"
        }
      ],
      "name": "acceptSubscriptionOwnerTransfer",
      "outputs": [],
      "stateMutability": "nonpayable",
      "type": "function"
    },
    {
      "inputs": [
        {
          "internalType": "address",
          "name": "acceptor",
          "type": "address"
        },
        {
          "internalType": "address",
          "name": "recipient",
          "type": "address"
        },
        {
          "internalType": "bytes32",
          "name": "r",
          "type": "bytes32"
        },
        {
          "internalType": "bytes32",
          "name": "s",
          "type": "bytes32"
        },
        {
          "internalType": "uint8",
          "name": "v",
          "type": "uint8"
        }
      ],
      "name": "acceptTermsOfService",
      "outputs": [],
      "stateMutability": "nonpayable",
      "type": "function"
    },
    {
      "inputs": [
        {
          "internalType": "bytes32",
          "name": "requestId",
          "type": "bytes32"
        },
        {
          "internalType": "bytes",
          "name": "response",
          "type": "bytes"
        },
        {
          "internalType": "bytes",
          "name": "err",
          "type": "bytes"
        }
      ],
      "name": "handleOracleFulfillment",
      "outputs": [],
      "stateMutability": "nonpayable",
      "type": "function"
    },
    {
      "inputs": [
        {
          "internalType": "string",
          "name": "sourceCode",
          "type": "string"
        },
        {
          "internalType": "uint64",
          "name": "subscriptionId",
          "type": "uint64"
        },
        {
          "internalType": "bytes32",
          "name": "donId",
          "type": "bytes32"
        }
      ],
      "name": "sendRequestProposed",
      "outputs": [
        {
          "internalType": "bytes32",
          "name": "requestId",
          "type": "bytes32"
        }
      ],
      "stateMutability": "nonpayable",
      "type": "function"
    },
    {
      "inputs": [
        {
          "internalType": "string",
          "name": "sourceCode",
          "type": "string"
        },
        {
          "internalType": "uint64",
          "name": "subscriptionId",
          "type": "uint64"
        },
        {
          "internalType": "bytes32",
          "name": "donId",
          "type": "bytes32"
        },
        {
          "internalType": "uint32",
          "name": "callbackGasLimit",
          "type": "uint32"
        }
      ],
      "name": "sendSimpleRequestWithJavaScript",
      "outputs": [
        {
          "internalType": "bytes32",
          "name": "requestId",
          "type": "bytes32"
        }
      ],
      "stateMutability": "nonpayable",
      "type": "function"
    },
    {
      "inputs": [
        {
          "internalType": "bool",
          "name": "on",
          "type": "bool"
        }
      ],
      "name": "setDoInvalidOperation",
      "outputs": [],
      "stateMutability": "nonpayable",
      "type": "function"
    },
    {
      "inputs": [
        {
          "internalType": "bool",
          "name": "on",
          "type": "bool"
        },
        {
          "internalType": "uint64",
          "name": "subscriptionId",
          "type": "uint64"
        }
      ],
      "name": "setDoInvalidReentrantOperation",
      "outputs": [],
      "stateMutability": "nonpayable",
      "type": "function"
    },
    {
      "inputs": [
        {
          "internalType": "bool",
          "name": "on",
          "type": "bool"
        },
        {
          "internalType": "uint64",
          "name": "subscriptionId",
          "type": "uint64"
        },
        {
          "internalType": "bytes32",
          "name": "donId",
          "type": "bytes32"
        }
      ],
      "name": "setDoValidReentrantOperation",
      "outputs": [],
      "stateMutability": "nonpayable",
      "type": "function"
    },
    {
      "inputs": [
        {
          "internalType": "bool",
          "name": "on",
          "type": "bool"
        }
      ],
      "name": "setRevertFulfillRequest",
      "outputs": [],
      "stateMutability": "nonpayable",
      "type": "function"
    }
  ],
  "bytecode": {
    "object": "0x60a060405234801561001057600080fd5b50604051611bff380380611bff83398101604081905261002f91610040565b6001600160a01b0316608052610070565b60006020828403121561005257600080fd5b81516001600160a01b038116811461006957600080fd5b9392505050565b608051611b4a6100b5600039600081816102be015281816103540152818161042b015281816105de015281816107b7015281816109870152610dce0152611b4a6000f3fe608060405234801561001057600080fd5b50600436106100a35760003560e01c806371e4a02c11610076578063a889e66d1161005b578063a889e66d1461019c578063be495b01146101db578063d5d25fb81461026157600080fd5b806371e4a02c14610176578063823597401461018957600080fd5b80630ca76175146100a85780632b0c8ff0146100bd5780633908c4d41461013e57806342ab1a1c14610151575b600080fd5b6100bb6100b63660046114e9565b6102a6565b005b6100bb6100cb366004611583565b600080547fffffffffffffffffffffffffffffffffffffffff0000000000000000ff00ffff1662010000931515939093027fffffffffffffffffffffffffffffffffffffffff0000000000000000ffffffff169290921764010000000067ffffffffffffffff9290921691909102179055565b6100bb61014c3660046115db565b610350565b61016461015f366004611640565b610543565b60405190815260200160405180910390f35b610164610184366004611697565b6106d2565b6100bb61019736600461170a565b61077f565b6100bb6101aa366004611725565b600080547fffffffffffffffffffffffffffffffffffffffffffffffffffffffffffffff0016911515919091179055565b6100bb6101e9366004611740565b6000805467ffffffffffffffff909316640100000000027fffffffffffffffffffffffffffffffffffffffff0000000000000000ffffffff941515630100000002949094167fffffffffffffffffffffffffffffffffffffffff000000000000000000ffffff90931692909217929092179055600155565b6100bb61026f366004611725565b60008054911515610100027fffffffffffffffffffffffffffffffffffffffffffffffffffffffffffff00ff909216919091179055565b3373ffffffffffffffffffffffffffffffffffffffff7f00000000000000000000000000000000000000000000000000000000000000001614610315576040517fc6829f8300000000000000000000000000000000000000000000000000000000815260040160405180910390fd5b61032083838361082b565b60405183907f85e1543bf2f84fe80c6badbce3648c8539ad1df4d2b3d822938ca0538be727e690600090a2505050565b60007f000000000000000000000000000000000000000000000000000000000000000073ffffffffffffffffffffffffffffffffffffffff1663aab396bd6040518163ffffffff1660e01b8152600401602060405180830381865afa1580156103bd573d6000803e3d6000fd5b505050506040513d601f19601f820116820180604052508101906103e1919061176c565b6040517fa9c9a9180000000000000000000000000000000000000000000000000000000081526004810182905290915060009073ffffffffffffffffffffffffffffffffffffffff7f0000000000000000000000000000000000000000000000000000000000000000169063a9c9a91890602401602060405180830381865afa158015610472573d6000803e3d6000fd5b505050506040513d601f19601f820116820180604052508101906104969190611785565b6040517f3908c4d400000000000000000000000000000000000000000000000000000000815273ffffffffffffffffffffffffffffffffffffffff89811660048301528881166024830152604482018890526064820187905260ff8616608483015291925090821690633908c4d49060a401600060405180830381600087803b15801561052257600080fd5b505af1158015610536573d6000803e3d6000fd5b5050505050505050505050565b60006105866040805160e0810190915280600081526020016000815260200160008152602001606081526020016060815260200160608152602001606081525090565b614e206105938287610a39565b600061059e83610a4a565b6040517f41db4ca300000000000000000000000000000000000000000000000000000000815290915073ffffffffffffffffffffffffffffffffffffffff7f000000000000000000000000000000000000000000000000000000000000000016906341db4ca39061061c908990859060019088908c90600401611806565b6020604051808303816000875af115801561063b573d6000803e3d6000fd5b505050506040513d601f19601f8201168201806040525081019061065f919061176c565b60405190945084907f1131472297a800fee664d1d89cfa8f7676ff07189ecc53f80bbb5f4969099db890600090a27fd122632b5f6ee38b0707e73fd789a5599cb90246aac7e6db79da230cd4396b6b8488886040516106c093929190611850565b60405180910390a15050509392505050565b60006107156040805160e0810190915280600081526020016000815260200160008152602001606081526020016060815260200160608152602001606081525090565b61071f8187610a39565b600061072a82610a4a565b905061073881878688610dc9565b92507fd122632b5f6ee38b0707e73fd789a5599cb90246aac7e6db79da230cd4396b6b83888860405161076d93929190611850565b60405180910390a15050949350505050565b6040517f8235974000000000000000000000000000000000000000000000000000000000815267ffffffffffffffff821660048201527f000000000000000000000000000000000000000000000000000000000000000073ffffffffffffffffffffffffffffffffffffffff1690638235974090602401600060405180830381600087803b15801561081057600080fd5b505af1158015610824573d6000803e3d6000fd5b5050505050565b60005460ff161561089c576040517f08c379a000000000000000000000000000000000000000000000000000000000815260206004820152600f60248201527f61736b656420746f207265766572740000000000000000000000000000000000604482015260640160405180910390fd5b600054610100900460ff16156108be57600160006108ba81836118e1565b5050505b6000546301000000900460ff161561092d5761092b6040518060400160405280600881526020017f736f6d6564617461000000000000000000000000000000000000000000000000815250600060049054906101000a900467ffffffffffffffff16600154614e206106d2565b505b60005462010000900460ff16156109f9576000546040517fd7ae1d3000000000000000000000000000000000000000000000000000000000815264010000000090910467ffffffffffffffff1660048201523360248201527f000000000000000000000000000000000000000000000000000000000000000073ffffffffffffffffffffffffffffffffffffffff169063d7ae1d3090604401600060405180830381600087803b1580156109e057600080fd5b505af11580156109f4573d6000803e3d6000fd5b505050505b7f3934503db151627ef423447a0ddd63e58f42289bd4844c6715dbec5223400387838383604051610a2c939291906118f5565b60405180910390a1505050565b610a468260008084610ea8565b5050565b60606000610a59610100610f3f565b9050610aa36040518060400160405280600c81526020017f636f64654c6f636174696f6e000000000000000000000000000000000000000081525082610f6090919063ffffffff16565b8251610ac1906002811115610aba57610aba61192a565b8290610f7e565b60408051808201909152600881527f6c616e67756167650000000000000000000000000000000000000000000000006020820152610b00908290610f60565b6040830151610b17908015610aba57610aba61192a565b60408051808201909152600681527f736f7572636500000000000000000000000000000000000000000000000000006020820152610b56908290610f60565b6060830151610b66908290610f60565b60a08301515115610c135760408051808201909152600481527f61726773000000000000000000000000000000000000000000000000000000006020820152610bb0908290610f60565b610bb981610fb7565b60005b8360a0015151811015610c0957610bf98460a001518281518110610be257610be2611959565b602002602001015183610f6090919063ffffffff16565b610c0281611988565b9050610bbc565b50610c1381610fdb565b60808301515115610d1457600083602001516002811115610c3657610c3661192a565b03610c6d576040517fa80d31f700000000000000000000000000000000000000000000000000000000815260040160405180910390fd5b60408051808201909152600f81527f736563726574734c6f636174696f6e00000000000000000000000000000000006020820152610cac908290610f60565b610cc583602001516002811115610aba57610aba61192a565b60408051808201909152600781527f73656372657473000000000000000000000000000000000000000000000000006020820152610d04908290610f60565b6080830151610d14908290610ff9565b60c08301515115610dc15760408051808201909152600981527f62797465734172677300000000000000000000000000000000000000000000006020820152610d5e908290610f60565b610d6781610fb7565b60005b8360c0015151811015610db757610da78460c001518281518110610d9057610d90611959565b602002602001015183610ff990919063ffffffff16565b610db081611988565b9050610d6a565b50610dc181610fdb565b515192915050565b6000807f000000000000000000000000000000000000000000000000000000000000000073ffffffffffffffffffffffffffffffffffffffff1663461d27628688600188886040518663ffffffff1660e01b8152600401610e2e959493929190611806565b6020604051808303816000875af1158015610e4d573d6000803e3d6000fd5b505050506040513d601f19601f82011682018060405250810190610e71919061176c565b60405190915081907f1131472297a800fee664d1d89cfa8f7676ff07189ecc53f80bbb5f4969099db890600090a295945050505050565b8051600003610ee3576040517f22ce3edd00000000000000000000000000000000000000000000000000000000815260040160405180910390fd5b83836002811115610ef657610ef661192a565b90816002811115610f0957610f0961192a565b90525060408401828015610f1f57610f1f61192a565b90818015610f2f57610f2f61192a565b9052506060909301929092525050565b610f476113da565b8051610f539083611006565b5060006020820152919050565b610f6d8260038351611080565b8151610f7990826111a7565b505050565b8151610f8b9060c26111cf565b50610a468282604051602001610fa391815260200190565b604051602081830303815290604052610ff9565b610fc2816004611238565b600181602001818151610fd591906119c0565b90525050565b610fe6816007611238565b600181602001818151610fd591906119d3565b610f6d8260028351611080565b6040805180820190915260608152600060208201526110266020836119e6565b1561104e576110366020836119e6565b6110419060206119d3565b61104b90836119c0565b91505b60208084018390526040518085526000815290818401018181101561107257600080fd5b604052508290505b92915050565b60178167ffffffffffffffff16116110ad5782516110a79060e0600585901b1683176111cf565b50505050565b60ff8167ffffffffffffffff16116110ef5782516110d6906018611fe0600586901b16176111cf565b5082516110a79067ffffffffffffffff8316600161124f565b61ffff8167ffffffffffffffff1611611132578251611119906019611fe0600586901b16176111cf565b5082516110a79067ffffffffffffffff8316600261124f565b63ffffffff8167ffffffffffffffff161161117757825161115e90601a611fe0600586901b16176111cf565b5082516110a79067ffffffffffffffff8316600461124f565b825161118e90601b611fe0600586901b16176111cf565b5082516110a79067ffffffffffffffff8316600861124f565b6040805180820190915260608152600060208201526111c8838384516112d4565b9392505050565b60408051808201909152606081526000602082015282515160006111f48260016119c0565b90508460200151821061121557611215856112108360026119fa565b6113c3565b845160208382010185815350805182111561122e578181525b5093949350505050565b8151610f7990601f611fe0600585901b16176111cf565b604080518082019091526060815260006020820152835151600061127382856119c0565b9050856020015181111561129057611290866112108360026119fa565b600060016112a086610100611b31565b6112aa91906119d3565b905086518281018783198251161781525080518311156112c8578281525b50959695505050505050565b60408051808201909152606081526000602082015282518211156112f757600080fd5b835151600061130684836119c0565b9050856020015181111561132357611323866112108360026119fa565b85518051838201602001916000918085111561133d578482525b505050602086015b6020861061137d578051825261135c6020836119c0565b91506113696020826119c0565b90506113766020876119d3565b9550611345565b5181517fffffffffffffffffffffffffffffffffffffffffffffffffffffffffffffffff60208890036101000a0190811690199190911617905250849150509392505050565b81516113cf8383611006565b506110a783826111a7565b6040518060400160405280611402604051806040016040528060608152602001600081525090565b8152602001600081525090565b7f4e487b7100000000000000000000000000000000000000000000000000000000600052604160045260246000fd5b600082601f83011261144f57600080fd5b813567ffffffffffffffff8082111561146a5761146a61140f565b604051601f83017fffffffffffffffffffffffffffffffffffffffffffffffffffffffffffffffe0908116603f011681019082821181831017156114b0576114b061140f565b816040528381528660208588010111156114c957600080fd5b836020870160208301376000602085830101528094505050505092915050565b6000806000606084860312156114fe57600080fd5b83359250602084013567ffffffffffffffff8082111561151d57600080fd5b6115298783880161143e565b9350604086013591508082111561153f57600080fd5b5061154c8682870161143e565b9150509250925092565b8035801515811461156657600080fd5b919050565b803567ffffffffffffffff8116811461156657600080fd5b6000806040838503121561159657600080fd5b61159f83611556565b91506115ad6020840161156b565b90509250929050565b73ffffffffffffffffffffffffffffffffffffffff811681146115d857600080fd5b50565b600080600080600060a086880312156115f357600080fd5b85356115fe816115b6565b9450602086013561160e816115b6565b93506040860135925060608601359150608086013560ff8116811461163257600080fd5b809150509295509295909350565b60008060006060848603121561165557600080fd5b833567ffffffffffffffff81111561166c57600080fd5b6116788682870161143e565b9350506116876020850161156b565b9150604084013590509250925092565b600080600080608085870312156116ad57600080fd5b843567ffffffffffffffff8111156116c457600080fd5b6116d08782880161143e565b9450506116df6020860161156b565b925060408501359150606085013563ffffffff811681146116ff57600080fd5b939692955090935050565b60006020828403121561171c57600080fd5b6111c88261156b565b60006020828403121561173757600080fd5b6111c882611556565b60008060006060848603121561175557600080fd5b61175e84611556565b92506116876020850161156b565b60006020828403121561177e57600080fd5b5051919050565b60006020828403121561179757600080fd5b81516111c8816115b6565b6000815180845260005b818110156117c8576020818501810151868301820152016117ac565b5060006020828601015260207fffffffffffffffffffffffffffffffffffffffffffffffffffffffffffffffe0601f83011685010191505092915050565b67ffffffffffffffff8616815260a06020820152600061182960a08301876117a2565b61ffff9590951660408301525063ffffffff92909216606083015260809091015292915050565b83815260606020820152600061186960608301856117a2565b905067ffffffffffffffff83166040830152949350505050565b7f4e487b7100000000000000000000000000000000000000000000000000000000600052601260045260246000fd5b7f4e487b7100000000000000000000000000000000000000000000000000000000600052601160045260246000fd5b6000826118f0576118f0611883565b500490565b83815260606020820152600061190e60608301856117a2565b828103604084015261192081856117a2565b9695505050505050565b7f4e487b7100000000000000000000000000000000000000000000000000000000600052602160045260246000fd5b7f4e487b7100000000000000000000000000000000000000000000000000000000600052603260045260246000fd5b60007fffffffffffffffffffffffffffffffffffffffffffffffffffffffffffffffff82036119b9576119b96118b2565b5060010190565b8082018082111561107a5761107a6118b2565b8181038181111561107a5761107a6118b2565b6000826119f5576119f5611883565b500690565b808202811582820484141761107a5761107a6118b2565b600181815b80851115611a6a57817fffffffffffffffffffffffffffffffffffffffffffffffffffffffffffffffff04821115611a5057611a506118b2565b80851615611a5d57918102915b93841c9390800290611a16565b509250929050565b600082611a815750600161107a565b81611a8e5750600061107a565b8160018114611aa45760028114611aae57611aca565b600191505061107a565b60ff841115611abf57611abf6118b2565b50506001821b61107a565b5060208310610133831016604e8410600b8410161715611aed575081810a61107a565b611af78383611a11565b807fffffffffffffffffffffffffffffffffffffffffffffffffffffffffffffffff04821115611b2957611b296118b2565b029392505050565b60006111c88383611a7256fea164736f6c6343000815000a",
    "linkReferences": {}
  },
  "methodIdentifiers": {
    "acceptSubscriptionOwnerTransfer(uint64)": "82359740",
    "acceptTermsOfService(address,address,bytes32,bytes32,uint8)": "3908c4d4",
    "handleOracleFulfillment(bytes32,bytes,bytes)": "0ca76175",
    "sendRequestProposed(string,uint64,bytes32)": "42ab1a1c",
    "sendSimpleRequestWithJavaScript(string,uint64,bytes32,uint32)": "71e4a02c",
    "setDoInvalidOperation(bool)": "d5d25fb8",
    "setDoInvalidReentrantOperation(bool,uint64)": "2b0c8ff0",
    "setDoValidReentrantOperation(bool,uint64,bytes32)": "be495b01",
    "setRevertFulfillRequest(bool)": "a889e66d"
  },
  "id": 213
}