{
  "abi": [
    {
      "inputs": [
        {
          "internalType": "address[]",
          "name": "priceUpdaters",
          "type": "address[]"
        },
        {
          "internalType": "address[]",
          "name": "feeTokens",
          "type": "address[]"
        },
        {
          "internalType": "uint32",
          "name": "stalenessThreshold",
          "type": "uint32"
        }
      ],
      "stateMutability": "nonpayable",
      "type": "constructor"
    },
    {
      "inputs": [
        {
          "internalType": "uint64",
          "name": "chain",
          "type": "uint64"
        }
      ],
      "name": "ChainNotSupported",
      "type": "error"
    },
    {
      "inputs": [],
      "name": "InvalidStalenessThreshold",
      "type": "error"
    },
    {
      "inputs": [],
      "name": "OnlyCallableByUpdaterOrOwner",
      "type": "error"
    },
    {
      "inputs": [
        {
          "internalType": "uint64",
          "name": "destChainSelector",
          "type": "uint64"
        },
        {
          "internalType": "uint256",
          "name": "threshold",
          "type": "uint256"
        },
        {
          "internalType": "uint256",
          "name": "timePassed",
          "type": "uint256"
        }
      ],
      "name": "StaleGasPrice",
      "type": "error"
    },
    {
      "inputs": [
        {
          "internalType": "address",
          "name": "token",
          "type": "address"
        },
        {
          "internalType": "uint256",
          "name": "threshold",
          "type": "uint256"
        },
        {
          "internalType": "uint256",
          "name": "timePassed",
          "type": "uint256"
        }
      ],
      "name": "StaleTokenPrice",
      "type": "error"
    },
    {
      "inputs": [
        {
          "internalType": "address",
          "name": "token",
          "type": "address"
        }
      ],
      "name": "TokenNotSupported",
      "type": "error"
    },
    {
      "anonymous": false,
      "inputs": [
        {
          "indexed": true,
          "internalType": "address",
          "name": "feeToken",
          "type": "address"
        }
      ],
      "name": "FeeTokenAdded",
      "type": "event"
    },
    {
      "anonymous": false,
      "inputs": [
        {
          "indexed": true,
          "internalType": "address",
          "name": "feeToken",
          "type": "address"
        }
      ],
      "name": "FeeTokenRemoved",
      "type": "event"
    },
    {
      "anonymous": false,
      "inputs": [
        {
          "indexed": true,
          "internalType": "address",
          "name": "from",
          "type": "address"
        },
        {
          "indexed": true,
          "internalType": "address",
          "name": "to",
          "type": "address"
        }
      ],
      "name": "OwnershipTransferRequested",
      "type": "event"
    },
    {
      "anonymous": false,
      "inputs": [
        {
          "indexed": true,
          "internalType": "address",
          "name": "from",
          "type": "address"
        },
        {
          "indexed": true,
          "internalType": "address",
          "name": "to",
          "type": "address"
        }
      ],
      "name": "OwnershipTransferred",
      "type": "event"
    },
    {
      "anonymous": false,
      "inputs": [
        {
          "indexed": true,
          "internalType": "address",
          "name": "priceUpdater",
          "type": "address"
        }
      ],
      "name": "PriceUpdaterRemoved",
      "type": "event"
    },
    {
      "anonymous": false,
      "inputs": [
        {
          "indexed": true,
          "internalType": "address",
          "name": "priceUpdater",
          "type": "address"
        }
      ],
      "name": "PriceUpdaterSet",
      "type": "event"
    },
    {
      "anonymous": false,
      "inputs": [
        {
          "indexed": true,
          "internalType": "address",
          "name": "token",
          "type": "address"
        },
        {
          "indexed": false,
          "internalType": "uint256",
          "name": "value",
          "type": "uint256"
        },
        {
          "indexed": false,
          "internalType": "uint256",
          "name": "timestamp",
          "type": "uint256"
        }
      ],
      "name": "UsdPerTokenUpdated",
      "type": "event"
    },
    {
      "anonymous": false,
      "inputs": [
        {
          "indexed": true,
          "internalType": "uint64",
          "name": "destChain",
          "type": "uint64"
        },
        {
          "indexed": false,
          "internalType": "uint256",
          "name": "value",
          "type": "uint256"
        },
        {
          "indexed": false,
          "internalType": "uint256",
          "name": "timestamp",
          "type": "uint256"
        }
      ],
      "name": "UsdPerUnitGasUpdated",
      "type": "event"
    },
    {
      "inputs": [],
      "name": "acceptOwnership",
      "outputs": [],
      "stateMutability": "nonpayable",
      "type": "function"
    },
    {
      "inputs": [
        {
          "internalType": "address[]",
          "name": "feeTokensToAdd",
          "type": "address[]"
        },
        {
          "internalType": "address[]",
          "name": "feeTokensToRemove",
          "type": "address[]"
        }
      ],
      "name": "applyFeeTokensUpdates",
      "outputs": [],
      "stateMutability": "nonpayable",
      "type": "function"
    },
    {
      "inputs": [
        {
          "internalType": "address[]",
          "name": "priceUpdatersToAdd",
          "type": "address[]"
        },
        {
          "internalType": "address[]",
          "name": "priceUpdatersToRemove",
          "type": "address[]"
        }
      ],
      "name": "applyPriceUpdatersUpdates",
      "outputs": [],
      "stateMutability": "nonpayable",
      "type": "function"
    },
    {
      "inputs": [
        {
          "internalType": "address",
          "name": "fromToken",
          "type": "address"
        },
        {
          "internalType": "uint256",
          "name": "fromTokenAmount",
          "type": "uint256"
        },
        {
          "internalType": "address",
          "name": "toToken",
          "type": "address"
        }
      ],
      "name": "convertTokenAmount",
      "outputs": [
        {
          "internalType": "uint256",
          "name": "",
          "type": "uint256"
        }
      ],
      "stateMutability": "view",
      "type": "function"
    },
    {
      "inputs": [
        {
          "internalType": "uint64",
          "name": "destChainSelector",
          "type": "uint64"
        }
      ],
      "name": "getDestinationChainGasPrice",
      "outputs": [
        {
          "components": [
            {
              "internalType": "uint224",
              "name": "value",
              "type": "uint224"
            },
            {
              "internalType": "uint32",
              "name": "timestamp",
              "type": "uint32"
            }
          ],
          "internalType": "struct Internal.TimestampedPackedUint224",
          "name": "",
          "type": "tuple"
        }
      ],
      "stateMutability": "view",
      "type": "function"
    },
    {
      "inputs": [],
      "name": "getFeeTokens",
      "outputs": [
        {
          "internalType": "address[]",
          "name": "",
          "type": "address[]"
        }
      ],
      "stateMutability": "view",
      "type": "function"
    },
    {
      "inputs": [],
      "name": "getPriceUpdaters",
      "outputs": [
        {
          "internalType": "address[]",
          "name": "",
          "type": "address[]"
        }
      ],
      "stateMutability": "view",
      "type": "function"
    },
    {
      "inputs": [],
      "name": "getStalenessThreshold",
      "outputs": [
        {
          "internalType": "uint128",
          "name": "",
          "type": "uint128"
        }
      ],
      "stateMutability": "view",
      "type": "function"
    },
    {
      "inputs": [
        {
          "internalType": "address",
          "name": "token",
          "type": "address"
        },
        {
          "internalType": "uint64",
          "name": "destChainSelector",
          "type": "uint64"
        }
      ],
      "name": "getTokenAndGasPrices",
      "outputs": [
        {
          "internalType": "uint224",
          "name": "tokenPrice",
          "type": "uint224"
        },
        {
          "internalType": "uint224",
          "name": "gasPriceValue",
          "type": "uint224"
        }
      ],
      "stateMutability": "view",
      "type": "function"
    },
    {
      "inputs": [
        {
          "internalType": "address",
          "name": "token",
          "type": "address"
        }
      ],
      "name": "getTokenPrice",
      "outputs": [
        {
          "components": [
            {
              "internalType": "uint224",
              "name": "value",
              "type": "uint224"
            },
            {
              "internalType": "uint32",
              "name": "timestamp",
              "type": "uint32"
            }
          ],
          "internalType": "struct Internal.TimestampedPackedUint224",
          "name": "",
          "type": "tuple"
        }
      ],
      "stateMutability": "view",
      "type": "function"
    },
    {
      "inputs": [
        {
          "internalType": "address[]",
          "name": "tokens",
          "type": "address[]"
        }
      ],
      "name": "getTokenPrices",
      "outputs": [
        {
          "components": [
            {
              "internalType": "uint224",
              "name": "value",
              "type": "uint224"
            },
            {
              "internalType": "uint32",
              "name": "timestamp",
              "type": "uint32"
            }
          ],
          "internalType": "struct Internal.TimestampedPackedUint224[]",
          "name": "",
          "type": "tuple[]"
        }
      ],
      "stateMutability": "view",
      "type": "function"
    },
    {
      "inputs": [
        {
          "internalType": "address",
          "name": "token",
          "type": "address"
        }
      ],
      "name": "getValidatedTokenPrice",
      "outputs": [
        {
          "internalType": "uint224",
          "name": "",
          "type": "uint224"
        }
      ],
      "stateMutability": "view",
      "type": "function"
    },
    {
      "inputs": [],
      "name": "owner",
      "outputs": [
        {
          "internalType": "address",
          "name": "",
          "type": "address"
        }
      ],
      "stateMutability": "view",
      "type": "function"
    },
    {
      "inputs": [
        {
          "internalType": "address",
          "name": "to",
          "type": "address"
        }
      ],
      "name": "transferOwnership",
      "outputs": [],
      "stateMutability": "nonpayable",
      "type": "function"
    },
    {
      "inputs": [],
      "name": "typeAndVersion",
      "outputs": [
        {
          "internalType": "string",
          "name": "",
          "type": "string"
        }
      ],
      "stateMutability": "view",
      "type": "function"
    },
    {
      "inputs": [
        {
          "components": [
            {
              "components": [
                {
                  "internalType": "address",
                  "name": "sourceToken",
                  "type": "address"
                },
                {
                  "internalType": "uint224",
                  "name": "usdPerToken",
                  "type": "uint224"
                }
              ],
              "internalType": "struct Internal.TokenPriceUpdate[]",
              "name": "tokenPriceUpdates",
              "type": "tuple[]"
            },
            {
              "components": [
                {
                  "internalType": "uint64",
                  "name": "destChainSelector",
                  "type": "uint64"
                },
                {
                  "internalType": "uint224",
                  "name": "usdPerUnitGas",
                  "type": "uint224"
                }
              ],
              "internalType": "struct Internal.GasPriceUpdate[]",
              "name": "gasPriceUpdates",
              "type": "tuple[]"
            }
          ],
          "internalType": "struct Internal.PriceUpdates",
          "name": "priceUpdates",
          "type": "tuple"
        }
      ],
      "name": "updatePrices",
      "outputs": [],
      "stateMutability": "nonpayable",
      "type": "function"
    }
  ],
  "bytecode": {
    "object": "0x60a06040523480156200001157600080fd5b506040516200227f3803806200227f8339810160408190526200003491620006fe565b33806000816200008b5760405162461bcd60e51b815260206004820152601860248201527f43616e6e6f7420736574206f776e657220746f207a65726f000000000000000060448201526064015b60405180910390fd5b600080546001600160a01b0319166001600160a01b0384811691909117909155811615620000be57620000be8162000133565b5050604080516000815260208101909152620000dd91508490620001de565b604080516000815260208101909152620000f99083906200033a565b8063ffffffff166000036200012157604051631151410960e11b815260040160405180910390fd5b63ffffffff1660805250620007fa9050565b336001600160a01b038216036200018d5760405162461bcd60e51b815260206004820152601760248201527f43616e6e6f74207472616e7366657220746f2073656c66000000000000000000604482015260640162000082565b600180546001600160a01b0319166001600160a01b0383811691821790925560008054604051929316917fed8889f560326eb138920d842192f0eb3dd22b4f139c87a2c57538e05bae12789190a350565b60005b825181101562000289576200021d83828151811062000204576200020462000786565b602002602001015160046200049160201b90919060201c565b15620002765782818151811062000238576200023862000786565b60200260200101516001600160a01b03167f34a02290b7920078c19f58e94b78c77eb9cc10195b20676e19bd3b82085893b860405160405180910390a25b6200028181620007b2565b9050620001e1565b5060005b81518110156200033557620002c9828281518110620002b057620002b062000786565b60200260200101516004620004b160201b90919060201c565b156200032257818181518110620002e457620002e462000786565b60200260200101516001600160a01b03167fff7dbb85c77ca68ca1f894d6498570e3d5095cd19466f07ee8d222b337e4068c60405160405180910390a25b6200032d81620007b2565b90506200028d565b505050565b60005b8251811015620003e5576200037983828151811062000360576200036062000786565b602002602001015160066200049160201b90919060201c565b15620003d25782818151811062000394576200039462000786565b60200260200101516001600160a01b03167fdf1b1bd32a69711488d71554706bb130b1fc63a5fa1a2cd85e8440f84065ba2360405160405180910390a25b620003dd81620007b2565b90506200033d565b5060005b81518110156200033557620004258282815181106200040c576200040c62000786565b60200260200101516006620004b160201b90919060201c565b156200047e5781818151811062000440576200044062000786565b60200260200101516001600160a01b03167f1795838dc8ab2ffc5f431a1729a6afa0b587f982f7b2be0b9d7187a1ef547f9160405160405180910390a25b6200048981620007b2565b9050620003e9565b6000620004a8836001600160a01b038416620004c8565b90505b92915050565b6000620004a8836001600160a01b0384166200051a565b60008181526001830160205260408120546200051157508154600181810184556000848152602080822090930184905584548482528286019093526040902091909155620004ab565b506000620004ab565b600081815260018301602052604081205480156200061357600062000541600183620007ce565b85549091506000906200055790600190620007ce565b9050818114620005c35760008660000182815481106200057b576200057b62000786565b9060005260206000200154905080876000018481548110620005a157620005a162000786565b6000918252602080832090910192909255918252600188019052604090208390555b8554869080620005d757620005d7620007e4565b600190038181906000526020600020016000905590558560010160008681526020019081526020016000206000905560019350505050620004ab565b6000915050620004ab565b634e487b7160e01b600052604160045260246000fd5b80516001600160a01b03811681146200064c57600080fd5b919050565b600082601f8301126200066357600080fd5b815160206001600160401b03808311156200068257620006826200061e565b8260051b604051601f19603f83011681018181108482111715620006aa57620006aa6200061e565b604052938452858101830193838101925087851115620006c957600080fd5b83870191505b84821015620006f357620006e38262000634565b83529183019190830190620006cf565b979650505050505050565b6000806000606084860312156200071457600080fd5b83516001600160401b03808211156200072c57600080fd5b6200073a8783880162000651565b945060208601519150808211156200075157600080fd5b50620007608682870162000651565b925050604084015163ffffffff811681146200077b57600080fd5b809150509250925092565b634e487b7160e01b600052603260045260246000fd5b634e487b7160e01b600052601160045260246000fd5b600060018201620007c757620007c76200079c565b5060010190565b81810381811115620004ab57620004ab6200079c565b634e487b7160e01b600052603160045260246000fd5b608051611a4d62000832600039600081816102eb01528181610acd01528181610b3601528181610c970152610d0c0152611a4d6000f3fe608060405234801561001057600080fd5b50600436106100ff5760003560e01c80637afac32211610097578063cdc73d5111610066578063cdc73d511461032a578063d02641a014610332578063f2fde38b146103d4578063ffdb4b37146103e757600080fd5b80637afac322146102a65780638da5cb5b146102b9578063a6c94a73146102e1578063bfcd45661461031557600080fd5b80634ab35b0b116100d35780634ab35b0b146101a8578063514e8cff146101e857806352877af01461028b57806379ba50971461029e57600080fd5b806241e5be14610104578063181f5a771461012a5780633937306f1461017357806345ac924d14610188575b600080fd5b6101176101123660046113bd565b61042f565b6040519081526020015b60405180910390f35b6101666040518060400160405280601381526020017f5072696365526567697374727920312e322e300000000000000000000000000081525081565b60405161012191906113f9565b610186610181366004611465565b61049b565b005b61019b6101963660046114a0565b6107bf565b6040516101219190611515565b6101bb6101b6366004611590565b610893565b6040517bffffffffffffffffffffffffffffffffffffffffffffffffffffffff9091168152602001610121565b61027e6101f63660046115c3565b60408051808201909152600080825260208201525067ffffffffffffffff166000908152600260209081526040918290208251808401909352547bffffffffffffffffffffffffffffffffffffffffffffffffffffffff811683527c0100000000000000000000000000000000000000000000000000000000900463ffffffff169082015290565b60405161012191906115de565b610186610299366004611731565b61089e565b6101866108b4565b6101866102b4366004611731565b6109b6565b60005460405173ffffffffffffffffffffffffffffffffffffffff9091168152602001610121565b60405163ffffffff7f0000000000000000000000000000000000000000000000000000000000000000168152602001610121565b61031d6109c8565b6040516101219190611795565b61031d6109d9565b61027e610340366004611590565b60408051808201909152600080825260208201525073ffffffffffffffffffffffffffffffffffffffff166000908152600360209081526040918290208251808401909352547bffffffffffffffffffffffffffffffffffffffffffffffffffffffff811683527c0100000000000000000000000000000000000000000000000000000000900463ffffffff169082015290565b6101866103e2366004611590565b6109e5565b6103fa6103f53660046117ef565b6109f9565b604080517bffffffffffffffffffffffffffffffffffffffffffffffffffffffff938416815292909116602083015201610121565b600061043a82610b84565b7bffffffffffffffffffffffffffffffffffffffffffffffffffffffff1661046185610b84565b610489907bffffffffffffffffffffffffffffffffffffffffffffffffffffffff1685611851565b6104939190611868565b949350505050565b60005473ffffffffffffffffffffffffffffffffffffffff1633148015906104cb57506104c9600433610d48565b155b15610502576040517f46f0815400000000000000000000000000000000000000000000000000000000815260040160405180910390fd5b600061050e82806118a3565b9050905060005b8181101561066057600061052984806118a3565b838181106105395761053961190b565b90506040020180360381019061054f9190611966565b604080518082018252602080840180517bffffffffffffffffffffffffffffffffffffffffffffffffffffffff908116845263ffffffff42818116858701908152885173ffffffffffffffffffffffffffffffffffffffff9081166000908152600390975295889020965190519092167c010000000000000000000000000000000000000000000000000000000002919092161790935584519051935194955016927f52f50aa6d1a95a4595361ecf953d095f125d442e4673716dede699e049de148a926106479290917bffffffffffffffffffffffffffffffffffffffffffffffffffffffff929092168252602082015260400190565b60405180910390a250610659816119a3565b9050610515565b50600061067060208401846118a3565b9050905060005b818110156107b957600061068e60208601866118a3565b8381811061069e5761069e61190b565b9050604002018036038101906106b491906119db565b604080518082018252602080840180517bffffffffffffffffffffffffffffffffffffffffffffffffffffffff908116845263ffffffff42818116858701908152885167ffffffffffffffff9081166000908152600290975295889020965190519092167c010000000000000000000000000000000000000000000000000000000002919092161790935584519051935194955016927fdd84a3fa9ef9409f550d54d6affec7e9c480c878c6ab27b78912a03e1b371c6e926107a09290917bffffffffffffffffffffffffffffffffffffffffffffffffffffffff929092168252602082015260400190565b60405180910390a2506107b2816119a3565b9050610677565b50505050565b60608160008167ffffffffffffffff8111156107dd576107dd611619565b60405190808252806020026020018201604052801561082257816020015b60408051808201909152600080825260208201528152602001906001900390816107fb5790505b50905060005b828110156108885761085a8686838181106108455761084561190b565b90506020020160208101906103409190611590565b82828151811061086c5761086c61190b565b602002602001018190525080610881906119a3565b9050610828565b509150505b92915050565b600061088d82610b84565b6108a6610d7a565b6108b08282610dfd565b5050565b60015473ffffffffffffffffffffffffffffffffffffffff16331461093a576040517f08c379a000000000000000000000000000000000000000000000000000000000815260206004820152601660248201527f4d7573742062652070726f706f736564206f776e65720000000000000000000060448201526064015b60405180910390fd5b60008054337fffffffffffffffffffffffff00000000000000000000000000000000000000008083168217845560018054909116905560405173ffffffffffffffffffffffffffffffffffffffff90921692909183917f8be0079c531659141344cd1fd0a4f28419497f9722a3daafe3b4186f6b6457e091a350565b6109be610d7a565b6108b08282610f59565b60606109d460046110b0565b905090565b60606109d460066110b0565b6109ed610d7a565b6109f6816110bd565b50565b67ffffffffffffffff811660009081526002602090815260408083208151808301909252547bffffffffffffffffffffffffffffffffffffffffffffffffffffffff811682527c0100000000000000000000000000000000000000000000000000000000900463ffffffff1691810182905282918203610ab1576040517f2e59db3a00000000000000000000000000000000000000000000000000000000815267ffffffffffffffff85166004820152602401610931565b6000816020015163ffffffff1642610ac991906119fe565b90507f000000000000000000000000000000000000000000000000000000000000000063ffffffff16811115610b6a576040517ff08bcb3e00000000000000000000000000000000000000000000000000000000815267ffffffffffffffff8616600482015263ffffffff7f000000000000000000000000000000000000000000000000000000000000000016602482015260448101829052606401610931565b610b7386610b84565b9151919350909150505b9250929050565b73ffffffffffffffffffffffffffffffffffffffff811660009081526003602090815260408083208151808301909252547bffffffffffffffffffffffffffffffffffffffffffffffffffffffff811682527c0100000000000000000000000000000000000000000000000000000000900463ffffffff16918101829052901580610c2c575080517bffffffffffffffffffffffffffffffffffffffffffffffffffffffff16155b15610c7b576040517f06439c6b00000000000000000000000000000000000000000000000000000000815273ffffffffffffffffffffffffffffffffffffffff84166004820152602401610931565b6000816020015163ffffffff1642610c9391906119fe565b90507f000000000000000000000000000000000000000000000000000000000000000063ffffffff16811115610d40576040517fc65fdfca00000000000000000000000000000000000000000000000000000000815273ffffffffffffffffffffffffffffffffffffffff8516600482015263ffffffff7f000000000000000000000000000000000000000000000000000000000000000016602482015260448101829052606401610931565b505192915050565b73ffffffffffffffffffffffffffffffffffffffff8116600090815260018301602052604081205415155b9392505050565b60005473ffffffffffffffffffffffffffffffffffffffff163314610dfb576040517f08c379a000000000000000000000000000000000000000000000000000000000815260206004820152601660248201527f4f6e6c792063616c6c61626c65206279206f776e6572000000000000000000006044820152606401610931565b565b60005b8251811015610ea857610e36838281518110610e1e57610e1e61190b565b602002602001015160046111b290919063ffffffff16565b15610e9857828181518110610e4d57610e4d61190b565b602002602001015173ffffffffffffffffffffffffffffffffffffffff167f34a02290b7920078c19f58e94b78c77eb9cc10195b20676e19bd3b82085893b860405160405180910390a25b610ea1816119a3565b9050610e00565b5060005b8151811015610f5457610ee2828281518110610eca57610eca61190b565b602002602001015160046111d490919063ffffffff16565b15610f4457818181518110610ef957610ef961190b565b602002602001015173ffffffffffffffffffffffffffffffffffffffff167fff7dbb85c77ca68ca1f894d6498570e3d5095cd19466f07ee8d222b337e4068c60405160405180910390a25b610f4d816119a3565b9050610eac565b505050565b60005b825181101561100457610f92838281518110610f7a57610f7a61190b565b602002602001015160066111b290919063ffffffff16565b15610ff457828181518110610fa957610fa961190b565b602002602001015173ffffffffffffffffffffffffffffffffffffffff167fdf1b1bd32a69711488d71554706bb130b1fc63a5fa1a2cd85e8440f84065ba2360405160405180910390a25b610ffd816119a3565b9050610f5c565b5060005b8151811015610f545761103e8282815181106110265761102661190b565b602002602001015160066111d490919063ffffffff16565b156110a0578181815181106110555761105561190b565b602002602001015173ffffffffffffffffffffffffffffffffffffffff167f1795838dc8ab2ffc5f431a1729a6afa0b587f982f7b2be0b9d7187a1ef547f9160405160405180910390a25b6110a9816119a3565b9050611008565b60606000610d73836111f6565b3373ffffffffffffffffffffffffffffffffffffffff82160361113c576040517f08c379a000000000000000000000000000000000000000000000000000000000815260206004820152601760248201527f43616e6e6f74207472616e7366657220746f2073656c660000000000000000006044820152606401610931565b600180547fffffffffffffffffffffffff00000000000000000000000000000000000000001673ffffffffffffffffffffffffffffffffffffffff83811691821790925560008054604051929316917fed8889f560326eb138920d842192f0eb3dd22b4f139c87a2c57538e05bae12789190a350565b6000610d738373ffffffffffffffffffffffffffffffffffffffff8416611252565b6000610d738373ffffffffffffffffffffffffffffffffffffffff84166112a1565b60608160000180548060200260200160405190810160405280929190818152602001828054801561124657602002820191906000526020600020905b815481526020019060010190808311611232575b50505050509050919050565b60008181526001830160205260408120546112995750815460018181018455600084815260208082209093018490558454848252828601909352604090209190915561088d565b50600061088d565b6000818152600183016020526040812054801561138a5760006112c56001836119fe565b85549091506000906112d9906001906119fe565b905081811461133e5760008660000182815481106112f9576112f961190b565b906000526020600020015490508087600001848154811061131c5761131c61190b565b6000918252602080832090910192909255918252600188019052604090208390555b855486908061134f5761134f611a11565b60019003818190600052602060002001600090559055856001016000868152602001908152602001600020600090556001935050505061088d565b600091505061088d565b803573ffffffffffffffffffffffffffffffffffffffff811681146113b857600080fd5b919050565b6000806000606084860312156113d257600080fd5b6113db84611394565b9250602084013591506113f060408501611394565b90509250925092565b600060208083528351808285015260005b818110156114265785810183015185820160400152820161140a565b5060006040828601015260407fffffffffffffffffffffffffffffffffffffffffffffffffffffffffffffffe0601f8301168501019250505092915050565b60006020828403121561147757600080fd5b813567ffffffffffffffff81111561148e57600080fd5b820160408185031215610d7357600080fd5b600080602083850312156114b357600080fd5b823567ffffffffffffffff808211156114cb57600080fd5b818501915085601f8301126114df57600080fd5b8135818111156114ee57600080fd5b8660208260051b850101111561150357600080fd5b60209290920196919550909350505050565b602080825282518282018190526000919060409081850190868401855b828110156115835761157384835180517bffffffffffffffffffffffffffffffffffffffffffffffffffffffff16825260209081015163ffffffff16910152565b9284019290850190600101611532565b5091979650505050505050565b6000602082840312156115a257600080fd5b610d7382611394565b803567ffffffffffffffff811681146113b857600080fd5b6000602082840312156115d557600080fd5b610d73826115ab565b81517bffffffffffffffffffffffffffffffffffffffffffffffffffffffff16815260208083015163ffffffff16908201526040810161088d565b7f4e487b7100000000000000000000000000000000000000000000000000000000600052604160045260246000fd5b6040805190810167ffffffffffffffff8111828210171561166b5761166b611619565b60405290565b600082601f83011261168257600080fd5b8135602067ffffffffffffffff8083111561169f5761169f611619565b8260051b6040517fffffffffffffffffffffffffffffffffffffffffffffffffffffffffffffffe0603f830116810181811084821117156116e2576116e2611619565b60405293845285810183019383810192508785111561170057600080fd5b83870191505b848210156117265761171782611394565b83529183019190830190611706565b979650505050505050565b6000806040838503121561174457600080fd5b823567ffffffffffffffff8082111561175c57600080fd5b61176886838701611671565b9350602085013591508082111561177e57600080fd5b5061178b85828601611671565b9150509250929050565b6020808252825182820181905260009190848201906040850190845b818110156117e357835173ffffffffffffffffffffffffffffffffffffffff16835292840192918401916001016117b1565b50909695505050505050565b6000806040838503121561180257600080fd5b61180b83611394565b9150611819602084016115ab565b90509250929050565b7f4e487b7100000000000000000000000000000000000000000000000000000000600052601160045260246000fd5b808202811582820484141761088d5761088d611822565b60008261189e577f4e487b7100000000000000000000000000000000000000000000000000000000600052601260045260246000fd5b500490565b60008083357fffffffffffffffffffffffffffffffffffffffffffffffffffffffffffffffe18436030181126118d857600080fd5b83018035915067ffffffffffffffff8211156118f357600080fd5b6020019150600681901b3603821315610b7d57600080fd5b7f4e487b7100000000000000000000000000000000000000000000000000000000600052603260045260246000fd5b80357bffffffffffffffffffffffffffffffffffffffffffffffffffffffff811681146113b857600080fd5b60006040828403121561197857600080fd5b611980611648565b61198983611394565b81526119976020840161193a565b60208201529392505050565b60007fffffffffffffffffffffffffffffffffffffffffffffffffffffffffffffffff82036119d4576119d4611822565b5060010190565b6000604082840312156119ed57600080fd5b6119f5611648565b611989836115ab565b8181038181111561088d5761088d611822565b7f4e487b7100000000000000000000000000000000000000000000000000000000600052603160045260246000fdfea164736f6c6343000815000a",
    "linkReferences": {}
  },
  "methodIdentifiers": {
    "acceptOwnership()": "79ba5097",
    "applyFeeTokensUpdates(address[],address[])": "7afac322",
    "applyPriceUpdatersUpdates(address[],address[])": "52877af0",
    "convertTokenAmount(address,uint256,address)": "0041e5be",
    "getDestinationChainGasPrice(uint64)": "514e8cff",
    "getFeeTokens()": "cdc73d51",
    "getPriceUpdaters()": "bfcd4566",
    "getStalenessThreshold()": "a6c94a73",
    "getTokenAndGasPrices(address,uint64)": "ffdb4b37",
    "getTokenPrice(address)": "d02641a0",
    "getTokenPrices(address[])": "45ac924d",
    "getValidatedTokenPrice(address)": "4ab35b0b",
    "owner()": "8da5cb5b",
    "transferOwnership(address)": "f2fde38b",
    "typeAndVersion()": "181f5a77",
    "updatePrices(((address,uint224)[],(uint64,uint224)[]))": "3937306f"
  },
  "id": 102
}