{
  "abi": [
    {
      "inputs": [],
      "name": "AlreadySet",
      "type": "error"
    },
    {
      "inputs": [],
      "name": "CannotSelfTransfer",
      "type": "error"
    },
    {
      "inputs": [],
      "name": "EmptyBillingRegistry",
      "type": "error"
    },
    {
      "inputs": [],
      "name": "EmptyPublicKey",
      "type": "error"
    },
    {
      "inputs": [],
      "name": "EmptyRequestData",
      "type": "error"
    },
    {
      "inputs": [],
      "name": "EmptySendersList",
      "type": "error"
    },
    {
      "inputs": [],
      "name": "InconsistentReportData",
      "type": "error"
    },
    {
      "inputs": [],
      "name": "InvalidRequestID",
      "type": "error"
    },
    {
      "inputs": [],
      "name": "NotAllowedToSetSenders",
      "type": "error"
    },
    {
      "inputs": [],
      "name": "NotProposedOwner",
      "type": "error"
    },
    {
      "inputs": [],
      "name": "OnlyCallableByOwner",
      "type": "error"
    },
    {
      "inputs": [],
      "name": "OwnerMustBeSet",
      "type": "error"
    },
    {
      "inputs": [],
      "name": "ReportInvalid",
      "type": "error"
    },
    {
      "inputs": [],
      "name": "UnauthorizedPublicKeyChange",
      "type": "error"
    },
    {
      "inputs": [],
      "name": "UnauthorizedSender",
      "type": "error"
    },
    {
      "anonymous": false,
      "inputs": [
        {
          "indexed": false,
          "internalType": "address",
          "name": "account",
          "type": "address"
        }
      ],
      "name": "AuthorizedSendersActive",
      "type": "event"
    },
    {
      "anonymous": false,
      "inputs": [
        {
          "indexed": false,
          "internalType": "address[]",
          "name": "senders",
          "type": "address[]"
        },
        {
          "indexed": false,
          "internalType": "address",
          "name": "changedBy",
          "type": "address"
        }
      ],
      "name": "AuthorizedSendersChanged",
      "type": "event"
    },
    {
      "anonymous": false,
      "inputs": [
        {
          "indexed": false,
          "internalType": "address",
          "name": "account",
          "type": "address"
        }
      ],
      "name": "AuthorizedSendersDeactive",
      "type": "event"
    },
    {
      "anonymous": false,
      "inputs": [
        {
          "indexed": false,
          "internalType": "uint32",
          "name": "previousConfigBlockNumber",
          "type": "uint32"
        },
        {
          "indexed": false,
          "internalType": "bytes32",
          "name": "configDigest",
          "type": "bytes32"
        },
        {
          "indexed": false,
          "internalType": "uint64",
          "name": "configCount",
          "type": "uint64"
        },
        {
          "indexed": false,
          "internalType": "address[]",
          "name": "signers",
          "type": "address[]"
        },
        {
          "indexed": false,
          "internalType": "address[]",
          "name": "transmitters",
          "type": "address[]"
        },
        {
          "indexed": false,
          "internalType": "uint8",
          "name": "f",
          "type": "uint8"
        },
        {
          "indexed": false,
          "internalType": "bytes",
          "name": "onchainConfig",
          "type": "bytes"
        },
        {
          "indexed": false,
          "internalType": "uint64",
          "name": "offchainConfigVersion",
          "type": "uint64"
        },
        {
          "indexed": false,
          "internalType": "bytes",
          "name": "offchainConfig",
          "type": "bytes"
        }
      ],
      "name": "ConfigSet",
      "type": "event"
    },
    {
      "anonymous": false,
      "inputs": [
        {
          "indexed": false,
          "internalType": "uint8",
          "name": "version",
          "type": "uint8"
        }
      ],
      "name": "Initialized",
      "type": "event"
    },
    {
      "anonymous": false,
      "inputs": [
        {
          "indexed": true,
          "internalType": "bytes32",
          "name": "requestId",
          "type": "bytes32"
        },
        {
          "indexed": false,
          "internalType": "address",
          "name": "requestingContract",
          "type": "address"
        },
        {
          "indexed": false,
          "internalType": "address",
          "name": "requestInitiator",
          "type": "address"
        },
        {
          "indexed": false,
          "internalType": "uint64",
          "name": "subscriptionId",
          "type": "uint64"
        },
        {
          "indexed": false,
          "internalType": "address",
          "name": "subscriptionOwner",
          "type": "address"
        },
        {
          "indexed": false,
          "internalType": "bytes",
          "name": "data",
          "type": "bytes"
        }
      ],
      "name": "OracleRequest",
      "type": "event"
    },
    {
      "anonymous": false,
      "inputs": [
        {
          "indexed": true,
          "internalType": "bytes32",
          "name": "requestId",
          "type": "bytes32"
        }
      ],
      "name": "OracleResponse",
      "type": "event"
    },
    {
      "anonymous": false,
      "inputs": [
        {
          "indexed": true,
          "internalType": "address",
          "name": "from",
          "type": "address"
        },
        {
          "indexed": true,
          "internalType": "address",
          "name": "to",
          "type": "address"
        }
      ],
      "name": "OwnershipTransferRequested",
      "type": "event"
    },
    {
      "anonymous": false,
      "inputs": [
        {
          "indexed": true,
          "internalType": "address",
          "name": "from",
          "type": "address"
        },
        {
          "indexed": true,
          "internalType": "address",
          "name": "to",
          "type": "address"
        }
      ],
      "name": "OwnershipTransferred",
      "type": "event"
    },
    {
      "anonymous": false,
      "inputs": [
        {
          "indexed": false,
          "internalType": "bytes32",
          "name": "configDigest",
          "type": "bytes32"
        },
        {
          "indexed": false,
          "internalType": "uint32",
          "name": "epoch",
          "type": "uint32"
        }
      ],
      "name": "Transmitted",
      "type": "event"
    },
    {
      "anonymous": false,
      "inputs": [
        {
          "indexed": true,
          "internalType": "bytes32",
          "name": "requestId",
          "type": "bytes32"
        },
        {
          "indexed": false,
          "internalType": "string",
          "name": "reason",
          "type": "string"
        }
      ],
      "name": "UserCallbackError",
      "type": "event"
    },
    {
      "anonymous": false,
      "inputs": [
        {
          "indexed": true,
          "internalType": "bytes32",
          "name": "requestId",
          "type": "bytes32"
        },
        {
          "indexed": false,
          "internalType": "bytes",
          "name": "lowLevelData",
          "type": "bytes"
        }
      ],
      "name": "UserCallbackRawError",
      "type": "event"
    },
    {
      "inputs": [],
      "name": "acceptOwnership",
      "outputs": [],
      "stateMutability": "nonpayable",
      "type": "function"
    },
    {
      "inputs": [],
      "name": "activateAuthorizedReceiver",
      "outputs": [],
      "stateMutability": "nonpayable",
      "type": "function"
    },
    {
      "inputs": [
        {
          "internalType": "address[]",
          "name": "senders",
          "type": "address[]"
        }
      ],
      "name": "addAuthorizedSenders",
      "outputs": [],
      "stateMutability": "nonpayable",
      "type": "function"
    },
    {
      "inputs": [],
      "name": "authorizedReceiverActive",
      "outputs": [
        {
          "internalType": "bool",
          "name": "",
          "type": "bool"
        }
      ],
      "stateMutability": "view",
      "type": "function"
    },
    {
      "inputs": [
        {
          "internalType": "bytes",
          "name": "report",
          "type": "bytes"
        }
      ],
      "name": "callReport",
      "outputs": [],
      "stateMutability": "nonpayable",
      "type": "function"
    },
    {
      "inputs": [
        {
          "internalType": "bytes",
          "name": "report",
          "type": "bytes"
        },
        {
          "internalType": "address",
          "name": "secondSigner",
          "type": "address"
        }
      ],
      "name": "callReportMultipleSigners",
      "outputs": [],
      "stateMutability": "nonpayable",
      "type": "function"
    },
    {
      "inputs": [
        {
          "internalType": "bytes",
          "name": "report",
          "type": "bytes"
        }
      ],
      "name": "callValidateReport",
      "outputs": [
        {
          "internalType": "bool",
          "name": "isValid",
          "type": "bool"
        }
      ],
      "stateMutability": "pure",
      "type": "function"
    },
    {
      "inputs": [],
      "name": "deactivateAuthorizedReceiver",
      "outputs": [],
      "stateMutability": "nonpayable",
      "type": "function"
    },
    {
      "inputs": [
        {
          "internalType": "address",
          "name": "node",
          "type": "address"
        }
      ],
      "name": "deleteNodePublicKey",
      "outputs": [],
      "stateMutability": "nonpayable",
      "type": "function"
    },
    {
      "inputs": [
        {
          "internalType": "uint64",
          "name": "subscriptionId",
          "type": "uint64"
        },
        {
          "internalType": "bytes",
          "name": "data",
          "type": "bytes"
        },
        {
          "internalType": "uint32",
          "name": "gasLimit",
          "type": "uint32"
        },
        {
          "internalType": "uint256",
          "name": "gasPrice",
          "type": "uint256"
        }
      ],
      "name": "estimateCost",
      "outputs": [
        {
          "internalType": "uint96",
          "name": "",
          "type": "uint96"
        }
      ],
      "stateMutability": "view",
      "type": "function"
    },
    {
      "inputs": [],
      "name": "getAllNodePublicKeys",
      "outputs": [
        {
          "internalType": "address[]",
          "name": "",
          "type": "address[]"
        },
        {
          "internalType": "bytes[]",
          "name": "",
          "type": "bytes[]"
        }
      ],
      "stateMutability": "view",
      "type": "function"
    },
    {
      "inputs": [],
      "name": "getAuthorizedSenders",
      "outputs": [
        {
          "internalType": "address[]",
          "name": "",
          "type": "address[]"
        }
      ],
      "stateMutability": "view",
      "type": "function"
    },
    {
      "inputs": [],
      "name": "getDONPublicKey",
      "outputs": [
        {
          "internalType": "bytes",
          "name": "",
          "type": "bytes"
        }
      ],
      "stateMutability": "view",
      "type": "function"
    },
    {
      "inputs": [],
      "name": "getRegistry",
      "outputs": [
        {
          "internalType": "address",
          "name": "",
          "type": "address"
        }
      ],
      "stateMutability": "view",
      "type": "function"
    },
    {
      "inputs": [
        {
          "internalType": "bytes",
          "name": "",
          "type": "bytes"
        },
        {
          "components": [
            {
              "internalType": "uint64",
              "name": "subscriptionId",
              "type": "uint64"
            },
            {
              "internalType": "address",
              "name": "client",
              "type": "address"
            },
            {
              "internalType": "uint32",
              "name": "gasLimit",
              "type": "uint32"
            },
            {
              "internalType": "uint256",
              "name": "gasPrice",
              "type": "uint256"
            }
          ],
          "internalType": "struct FunctionsBillingRegistryInterface.RequestBilling",
          "name": "",
          "type": "tuple"
        }
      ],
      "name": "getRequiredFee",
      "outputs": [
        {
          "internalType": "uint96",
          "name": "",
          "type": "uint96"
        }
      ],
      "stateMutability": "pure",
      "type": "function"
    },
    {
      "inputs": [],
      "name": "initialize",
      "outputs": [],
      "stateMutability": "nonpayable",
      "type": "function"
    },
    {
      "inputs": [
        {
          "internalType": "address",
          "name": "sender",
          "type": "address"
        }
      ],
      "name": "isAuthorizedSender",
      "outputs": [
        {
          "internalType": "bool",
          "name": "",
          "type": "bool"
        }
      ],
      "stateMutability": "view",
      "type": "function"
    },
    {
      "inputs": [],
      "name": "latestConfigDetails",
      "outputs": [
        {
          "internalType": "uint32",
          "name": "configCount",
          "type": "uint32"
        },
        {
          "internalType": "uint32",
          "name": "blockNumber",
          "type": "uint32"
        },
        {
          "internalType": "bytes32",
          "name": "configDigest",
          "type": "bytes32"
        }
      ],
      "stateMutability": "view",
      "type": "function"
    },
    {
      "inputs": [],
      "name": "latestConfigDigestAndEpoch",
      "outputs": [
        {
          "internalType": "bool",
          "name": "scanLogs",
          "type": "bool"
        },
        {
          "internalType": "bytes32",
          "name": "configDigest",
          "type": "bytes32"
        },
        {
          "internalType": "uint32",
          "name": "epoch",
          "type": "uint32"
        }
      ],
      "stateMutability": "view",
      "type": "function"
    },
    {
      "inputs": [],
      "name": "owner",
      "outputs": [
        {
          "internalType": "address",
          "name": "",
          "type": "address"
        }
      ],
      "stateMutability": "view",
      "type": "function"
    },
    {
      "inputs": [
        {
          "internalType": "address[]",
          "name": "senders",
          "type": "address[]"
        }
      ],
      "name": "removeAuthorizedSenders",
      "outputs": [],
      "stateMutability": "nonpayable",
      "type": "function"
    },
    {
      "inputs": [
        {
          "internalType": "uint64",
          "name": "subscriptionId",
          "type": "uint64"
        },
        {
          "internalType": "bytes",
          "name": "data",
          "type": "bytes"
        },
        {
          "internalType": "uint32",
          "name": "gasLimit",
          "type": "uint32"
        }
      ],
      "name": "sendRequest",
      "outputs": [
        {
          "internalType": "bytes32",
          "name": "",
          "type": "bytes32"
        }
      ],
      "stateMutability": "nonpayable",
      "type": "function"
    },
    {
      "inputs": [
        {
          "internalType": "address[]",
          "name": "_signers",
          "type": "address[]"
        },
        {
          "internalType": "address[]",
          "name": "_transmitters",
          "type": "address[]"
        },
        {
          "internalType": "uint8",
          "name": "_f",
          "type": "uint8"
        },
        {
          "internalType": "bytes",
          "name": "_onchainConfig",
          "type": "bytes"
        },
        {
          "internalType": "uint64",
          "name": "_offchainConfigVersion",
          "type": "uint64"
        },
        {
          "internalType": "bytes",
          "name": "_offchainConfig",
          "type": "bytes"
        }
      ],
      "name": "setConfig",
      "outputs": [],
      "stateMutability": "nonpayable",
      "type": "function"
    },
    {
      "inputs": [
        {
          "internalType": "bytes",
          "name": "donPublicKey",
          "type": "bytes"
        }
      ],
      "name": "setDONPublicKey",
      "outputs": [],
      "stateMutability": "nonpayable",
      "type": "function"
    },
    {
      "inputs": [
        {
          "internalType": "address",
          "name": "node",
          "type": "address"
        },
        {
          "internalType": "bytes",
          "name": "publicKey",
          "type": "bytes"
        }
      ],
      "name": "setNodePublicKey",
      "outputs": [],
      "stateMutability": "nonpayable",
      "type": "function"
    },
    {
      "inputs": [
        {
          "internalType": "address",
          "name": "registryAddress",
          "type": "address"
        }
      ],
      "name": "setRegistry",
      "outputs": [],
      "stateMutability": "nonpayable",
      "type": "function"
    },
    {
      "inputs": [
        {
          "internalType": "address",
          "name": "to",
          "type": "address"
        }
      ],
      "name": "transferOwnership",
      "outputs": [],
      "stateMutability": "nonpayable",
      "type": "function"
    },
    {
      "inputs": [
        {
          "internalType": "bytes32[3]",
          "name": "reportContext",
          "type": "bytes32[3]"
        },
        {
          "internalType": "bytes",
          "name": "report",
          "type": "bytes"
        },
        {
          "internalType": "bytes32[]",
          "name": "rs",
          "type": "bytes32[]"
        },
        {
          "internalType": "bytes32[]",
          "name": "ss",
          "type": "bytes32[]"
        },
        {
          "internalType": "bytes32",
          "name": "rawVs",
          "type": "bytes32"
        }
      ],
      "name": "transmit",
      "outputs": [],
      "stateMutability": "nonpayable",
      "type": "function"
    },
    {
      "inputs": [],
      "name": "transmitters",
      "outputs": [
        {
          "internalType": "address[]",
          "name": "",
          "type": "address[]"
        }
      ],
      "stateMutability": "view",
      "type": "function"
    },
    {
      "inputs": [],
      "name": "typeAndVersion",
      "outputs": [
        {
          "internalType": "string",
          "name": "",
          "type": "string"
        }
      ],
      "stateMutability": "pure",
      "type": "function"
    }
  ],
  "bytecode": {
    "object": "0x608060405234801561001057600080fd5b50613de0806100206000396000f3fe608060405234801561001057600080fd5b50600436106101da5760003560e01c80638075603111610104578063afcb95d7116100a2578063e3d0e71211610071578063e3d0e71214610439578063f1e14a211461044c578063f2fde38b14610463578063fa00763a1461047657600080fd5b8063afcb95d7146103ce578063b1dc65a4146103ee578063d227d24514610401578063d328a91e1461043157600080fd5b806381ff7048116100de57806381ff70481461036c5780638da5cb5b1461039c57806391bb64eb146103b3578063a91ee0dc146103bb57600080fd5b806380756031146103495780638129fc1c1461035c578063814118341461036457600080fd5b80634b4fa0c11161017c578063736d7e0f1161014b578063736d7e0f14610308578063770c7f4c1461031b57806379ba50971461032e5780637f15e1661461033657600080fd5b80634b4fa0c1146102a35780634dcef404146102ba57806353398987146102cd5780635ab1bd53146102e357600080fd5b80632408afaa116101b85780632408afaa1461024757806326ceabac1461025c57806328242b041461026f5780633901c40e1461029057600080fd5b806303e1bf23146101df578063110254c8146101f4578063181f5a77146101fc575b600080fd5b6101f26101ed366004612d64565b610489565b005b6101f261059e565b60408051808201909152601581527f46756e6374696f6e734f7261636c65203f2e3f2e3f000000000000000000000060208201525b60405161023e9190612dec565b60405180910390f35b61024f610668565b60405161023e9190612e43565b6101f261026a366004612e6b565b610679565b61028261027d366004612efb565b61070c565b60405190815260200161023e565b6101f261029e366004612f60565b610931565b60085460ff165b604051901515815260200161023e565b6101f26102c8366004612d64565b610960565b6102d5610a35565b60405161023e929190612fb7565b600d546001600160a01b03165b6040516001600160a01b03909116815260200161023e565b6101f2610316366004613029565b610c01565b6102aa610329366004613029565b610c20565b6101f2610c6f565b6101f2610344366004613029565b610d48565b6101f261035736600461305f565b610d98565b6101f2610e3a565b61024f610fa4565b6004546002546040805163ffffffff8085168252640100000000909404909316602084015282015260600161023e565b6000546201000090046001600160a01b03166102f0565b6101f2611006565b6101f26103c9366004612e6b565b6110c6565b60408051600181526000602082018190529181019190915260600161023e565b6101f26103fc3660046130b4565b611148565b61041461040f36600461316b565b61176b565b6040516bffffffffffffffffffffffff909116815260200161023e565b6102316118a8565b6101f2610447366004613351565b611931565b61041461045a36600461341e565b60019392505050565b6101f2610471366004612e6b565b6121ae565b6102aa610484366004612e6b565b6121bf565b6000546201000090046001600160a01b031633146104d3576040517fad77f06100000000000000000000000000000000000000000000000000000000815260040160405180910390fd5b600081900361050e576040517f75158c3b00000000000000000000000000000000000000000000000000000000815260040160405180910390fd5b60005b8181101561055e5761054b83838381811061052e5761052e6134db565b90506020020160208101906105439190612e6b565b6009906121ea565b508061055681613539565b915050610511565b507ff263cfb3e4298332e776194610cf9fdc09ccb3ada8b9aa39764d882e11fbf0a082823360405161059293929190613571565b60405180910390a15050565b6000546201000090046001600160a01b031633146105e8576040517fad77f06100000000000000000000000000000000000000000000000000000000815260040160405180910390fd5b60085460ff1615610625576040517fa741a04500000000000000000000000000000000000000000000000000000000815260040160405180910390fd5b6008805460ff191660011790556040513381527fae51766a982895b0c444fc99fc1a560762b464d709e6c78376c85617f7eeb5ce906020015b60405180910390a1565b60606106746009612206565b905090565b6000546201000090046001600160a01b03166001600160a01b0316336001600160a01b031614806106b25750336001600160a01b038216145b6106e8576040517fed6dd19b00000000000000000000000000000000000000000000000000000000815260040160405180910390fd5b6001600160a01b0381166000908152600e6020526040812061070991612ca6565b50565b600d546000906001600160a01b0316610751576040517f9c5fe32400000000000000000000000000000000000000000000000000000000815260040160405180910390fd5b610759612213565b6000839003610793576040517ec1cfc000000000000000000000000000000000000000000000000000000000815260040160405180910390fd5b600d546040805160808101825267ffffffffffffffff8816815233602082015263ffffffff8516818301523a606082015290517fa9d03c050000000000000000000000000000000000000000000000000000000081526000926001600160a01b03169163a9d03c059161080d9189918991906004016135fc565b6020604051808303816000875af115801561082c573d6000803e3d6000fd5b505050506040513d601f19601f820116820180604052508101906108509190613658565b600d546040517fb2a489ff00000000000000000000000000000000000000000000000000000000815267ffffffffffffffff8916600482015291925082917fa1ec73989d79578cd6f67d4f593ac3e0a4d1020e5c0164db52108d7ff785406c91339132918b916001600160a01b039091169063b2a489ff90602401602060405180830381865afa1580156108e8573d6000803e3d6000fd5b505050506040513d601f19601f8201168201806040525081019061090c9190613671565b8a8a6040516109209695949392919061368e565b60405180910390a295945050505050565b610939612ce0565b3381526001600160a01b038216602082015261095a5a336002848888612254565b50505050565b6000546201000090046001600160a01b031633146109aa576040517fad77f06100000000000000000000000000000000000000000000000000000000815260040160405180910390fd5b60008190036109e5576040517f75158c3b00000000000000000000000000000000000000000000000000000000815260040160405180910390fd5b60005b8181101561055e57610a22838383818110610a0557610a056134db565b9050602002016020810190610a1a9190612e6b565b600990612563565b5080610a2d81613539565b9150506109e8565b6060806000306001600160a01b031663814118346040518163ffffffff1660e01b8152600401600060405180830381865afa158015610a78573d6000803e3d6000fd5b505050506040513d6000823e601f3d908101601f19168201604052610aa091908101906136df565b90506000815167ffffffffffffffff811115610abe57610abe6131d8565b604051908082528060200260200182016040528015610af157816020015b6060815260200190600190039081610adc5790505b50905060005b8251811015610bf757600e6000848381518110610b1657610b166134db565b60200260200101516001600160a01b03166001600160a01b031681526020019081526020016000208054610b4990613779565b80601f0160208091040260200160405190810160405280929190818152602001828054610b7590613779565b8015610bc25780601f10610b9757610100808354040283529160200191610bc2565b820191906000526020600020905b815481529060010190602001808311610ba557829003601f168201915b5050505050828281518110610bd957610bd96134db565b60200260200101819052508080610bef90613539565b915050610af7565b5090939092509050565b610c09612ce0565b338152610c1b5a336001848787612254565b505050565b6000806000610c66828287878080601f01602080910402602001604051908101604052809392919081815260200183838082843760009201919091525061045a92505050565b95945050505050565b6001546001600160a01b03163314610cb3576040517f0f22ca5f00000000000000000000000000000000000000000000000000000000815260040160405180910390fd5b6000805433620100008181027fffffffffffffffffffff0000000000000000000000000000000000000000ffff8416178455600180547fffffffffffffffffffffffff00000000000000000000000000000000000000001690556040516001600160a01b03919093041692909183917f8be0079c531659141344cd1fd0a4f28419497f9722a3daafe3b4186f6b6457e091a350565b610d50612578565b6000819003610d8b576040517f4f42be3d00000000000000000000000000000000000000000000000000000000815260040160405180910390fd5b600c610c1b82848361381a565b6000546201000090046001600160a01b03166001600160a01b0316336001600160a01b03161480610de15750610dcd336125c2565b8015610de15750336001600160a01b038416145b610e17576040517fed6dd19b00000000000000000000000000000000000000000000000000000000815260040160405180910390fd5b6001600160a01b0383166000908152600e6020526040902061095a82848361381a565b600054610100900460ff1615808015610e5a5750600054600160ff909116105b80610e745750303b158015610e74575060005460ff166001145b610eeb5760405162461bcd60e51b815260206004820152602e60248201527f496e697469616c697a61626c653a20636f6e747261637420697320616c72656160448201527f647920696e697469616c697a656400000000000000000000000000000000000060648201526084015b60405180910390fd5b6000805460ff191660011790558015610f2b57600080547fffffffffffffffffffffffffffffffffffffffffffffffffffffffffffff00ff166101001790555b610f356001612691565b610f3f6001612763565b801561070957600080547fffffffffffffffffffffffffffffffffffffffffffffffffffffffffffff00ff169055604051600181527f7f26b83ff96e1f2b6a682f133852f6798a09c465da95921460cefb38474024989060200160405180910390a150565b60606007805480602002602001604051908101604052809291908181526020018280548015610ffc57602002820191906000526020600020905b81546001600160a01b03168152600190910190602001808311610fde575b5050505050905090565b6000546201000090046001600160a01b03163314611050576040517fad77f06100000000000000000000000000000000000000000000000000000000815260040160405180910390fd5b60085460ff1661108c576040517fa741a04500000000000000000000000000000000000000000000000000000000815260040160405180910390fd5b6008805460ff191690556040513381527fea3828816a323b8d7ff49d755efd105e7719166d6c76fad97a28eee5eccc3d9a9060200161065e565b6110ce612578565b6001600160a01b03811661110e576040517f9c5fe32400000000000000000000000000000000000000000000000000000000815260040160405180910390fd5b600d80547fffffffffffffffffffffffff0000000000000000000000000000000000000000166001600160a01b0392909216919091179055565b60005a604080516020601f8b018190048102820181019092528981529192508a3591818c01359161119e91849163ffffffff851691908e908e908190840183828082843760009201919091525061045a92505050565b6111d4576040517f0be3632800000000000000000000000000000000000000000000000000000000815260040160405180910390fd5b6040805183815262ffffff600884901c1660208201527fb04e63db38c49950639fa09d29872f21f5d49d614f3a969d8adf3d4b52e41a62910160405180910390a16040805160608101825260025480825260035460ff8082166020850152610100909104169282019290925290831461128f5760405162461bcd60e51b815260206004820152601560248201527f636f6e666967446967657374206d69736d6174636800000000000000000000006044820152606401610ee2565b61129d8b8b8b8b8b8b6127f3565b60015460009074010000000000000000000000000000000000000000900460ff16156112f8576002826020015183604001516112d99190613917565b6112e3919061395f565b6112ee906001613917565b60ff16905061130e565b6020820151611308906001613917565b60ff1690505b88811461135d5760405162461bcd60e51b815260206004820152601a60248201527f77726f6e67206e756d626572206f66207369676e6174757265730000000000006044820152606401610ee2565b8887146113ac5760405162461bcd60e51b815260206004820152601e60248201527f7369676e617475726573206f7574206f6620726567697374726174696f6e00006044820152606401610ee2565b3360009081526005602090815260408083208151808301909252805460ff808216845292939192918401916101009091041660028111156113ef576113ef613981565b600281111561140057611400613981565b905250905060028160200151600281111561141d5761141d613981565b14801561145757506007816000015160ff168154811061143f5761143f6134db565b6000918252602090912001546001600160a01b031633145b6114a35760405162461bcd60e51b815260206004820152601860248201527f756e617574686f72697a6564207472616e736d697474657200000000000000006044820152606401610ee2565b50505050506114b0612ce0565b6000808a8a6040516114c39291906139b0565b6040519081900381206114da918e906020016139c0565b60408051601f198184030181528282528051602091820120838301909252600080845290830152915060005b8981101561174d576000600184898460208110611525576115256134db565b61153291901a601b613917565b8e8e86818110611544576115446134db565b905060200201358d8d8781811061155d5761155d6134db565b905060200201356040516000815260200160405260405161159a949392919093845260ff9290921660208401526040830152606082015260800190565b6020604051602081039080840390855afa1580156115bc573d6000803e3d6000fd5b505060408051601f198101516001600160a01b03811660009081526005602090815290849020838501909452835460ff8082168552929650929450840191610100900416600281111561161157611611613981565b600281111561162257611622613981565b905250925060018360200151600281111561163f5761163f613981565b1461168c5760405162461bcd60e51b815260206004820152601e60248201527f61646472657373206e6f7420617574686f72697a656420746f207369676e00006044820152606401610ee2565b8251600090879060ff16601f81106116a6576116a66134db565b60200201516001600160a01b0316146117015760405162461bcd60e51b815260206004820152601460248201527f6e6f6e2d756e69717565207369676e61747572650000000000000000000000006044820152606401610ee2565b8086846000015160ff16601f811061171b5761171b6134db565b6001600160a01b039092166020929092020152611739600186613917565b9450508061174690613539565b9050611506565b50505061175e833383858e8e612254565b5050505050505050505050565b600d546000906001600160a01b03166117b0576040517f9c5fe32400000000000000000000000000000000000000000000000000000000815260040160405180910390fd5b6040805160808101825267ffffffffffffffff8816815233602082015263ffffffff8516918101919091526060810183905260006001905060006001600d546040517fa1a6d04100000000000000000000000000000000000000000000000000000000815263ffffffff89166004820152602481018890526bffffffffffffffffffffffff8086166044830152831660648201529192506001600160a01b03169063a1a6d04190608401602060405180830381865afa158015611877573d6000803e3d6000fd5b505050506040513d601f19601f8201168201806040525081019061189b91906139d4565b9998505050505050505050565b6060600c80546118b790613779565b80601f01602080910402602001604051908101604052809291908181526020018280546118e390613779565b8015610ffc5780601f1061190557610100808354040283529160200191610ffc565b820191906000526020600020905b81548152906001019060200180831161191357509395945050505050565b855185518560ff16601f83111561198a5760405162461bcd60e51b815260206004820152601060248201527f746f6f206d616e79207369676e657273000000000000000000000000000000006044820152606401610ee2565b600081116119da5760405162461bcd60e51b815260206004820152601260248201527f66206d75737420626520706f73697469766500000000000000000000000000006044820152606401610ee2565b818314611a4e5760405162461bcd60e51b8152602060048201526024808201527f6f7261636c6520616464726573736573206f7574206f6620726567697374726160448201527f74696f6e000000000000000000000000000000000000000000000000000000006064820152608401610ee2565b611a59816003613a02565b8311611aa75760405162461bcd60e51b815260206004820152601860248201527f6661756c74792d6f7261636c65206620746f6f206869676800000000000000006044820152606401610ee2565b611aaf612578565b6040805160c0810182528a8152602081018a905260ff8916918101919091526060810187905267ffffffffffffffff8616608082015260a081018590525b60065415611c8857600654600090611b0790600190613a19565b9050600060068281548110611b1e57611b1e6134db565b6000918252602082200154600780546001600160a01b0390921693509084908110611b4b57611b4b6134db565b60009182526020808320909101546001600160a01b0385811684526005909252604080842080547fffffffffffffffffffffffffffffffffffffffffffffffffffffffffffff000090811690915592909116808452922080549091169055600680549192509080611bbe57611bbe613a2c565b60008281526020902081017fffffffffffffffffffffffffffffffffffffffffffffffffffffffffffffffff90810180547fffffffffffffffffffffffff00000000000000000000000000000000000000001690550190556007805480611c2757611c27613a2c565b60008281526020902081017fffffffffffffffffffffffffffffffffffffffffffffffffffffffffffffffff90810180547fffffffffffffffffffffffff000000000000000000000000000000000000000016905501905550611aed915050565b60005b81515181101561202f5760006005600084600001518481518110611cb157611cb16134db565b6020908102919091018101516001600160a01b0316825281019190915260400160002054610100900460ff166002811115611cee57611cee613981565b14611d3b5760405162461bcd60e51b815260206004820152601760248201527f7265706561746564207369676e657220616464726573730000000000000000006044820152606401610ee2565b6040805180820190915260ff82168152600160208201528251805160059160009185908110611d6c57611d6c6134db565b6020908102919091018101516001600160a01b03168252818101929092526040016000208251815460ff90911660ff1982168117835592840151919283917fffffffffffffffffffffffffffffffffffffffffffffffffffffffffffff00001617610100836002811115611de257611de2613981565b021790555060009150611df29050565b6005600084602001518481518110611e0c57611e0c6134db565b6020908102919091018101516001600160a01b0316825281019190915260400160002054610100900460ff166002811115611e4957611e49613981565b14611e965760405162461bcd60e51b815260206004820152601c60248201527f7265706561746564207472616e736d69747465722061646472657373000000006044820152606401610ee2565b6040805180820190915260ff821681526020810160028152506005600084602001518481518110611ec957611ec96134db565b6020908102919091018101516001600160a01b03168252818101929092526040016000208251815460ff90911660ff1982168117835592840151919283917fffffffffffffffffffffffffffffffffffffffffffffffffffffffffffff00001617610100836002811115611f3f57611f3f613981565b021790555050825180516006925083908110611f5d57611f5d6134db565b602090810291909101810151825460018101845560009384529282902090920180547fffffffffffffffffffffffff0000000000000000000000000000000000000000166001600160a01b039093169290921790915582015180516007919083908110611fcc57611fcc6134db565b60209081029190910181015182546001810184556000938452919092200180547fffffffffffffffffffffffff0000000000000000000000000000000000000000166001600160a01b0390921691909117905561202881613539565b9050611c8b565b5060408101516003805460ff191660ff909216919091179055600480547fffffffffffffffffffffffffffffffffffffffffffffffff00000000ffffffff811664010000000063ffffffff4381168202928317855590830481169360019390926000926120a3928692908216911617613a5b565b92506101000a81548163ffffffff021916908363ffffffff1602179055506121024630600460009054906101000a900463ffffffff1663ffffffff16856000015186602001518760400151886060015189608001518a60a00151612894565b6002819055825180516003805460ff909216610100027fffffffffffffffffffffffffffffffffffffffffffffffffffffffffffff00ff90921691909117905560045460208501516040808701516060880151608089015160a08a015193517f1591690b8638f5fb2dbec82ac741805ac5da8b45dc5263f4875b0496fdce4e05986121a1988b98919763ffffffff909216969095919491939192613a78565b60405180910390a161175e565b6121b6612578565b61070981612921565b60006121cd60085460ff1690565b6121d957506001919050565b6121e46009836129d3565b92915050565b60006121ff836001600160a01b0384166129f5565b9392505050565b606060006121ff83612aef565b61221c326121bf565b612252576040517f0809490800000000000000000000000000000000000000000000000000000000815260040160405180910390fd5b565b600d546001600160a01b0316612296576040517f9c5fe32400000000000000000000000000000000000000000000000000000000815260040160405180910390fd5b606080806122a684860186613b8e565b8251929550909350915015806122be57508151835114155b806122cb57508051835114155b15612302576040517f0be3632800000000000000000000000000000000000000000000000000000000815260040160405180910390fd5b600083515a612311908c613a19565b61231b9190613c6b565b905060005b845181101561175e57600d5485516001600160a01b0390911690630739e4f190879084908110612352576123526134db565b602002602001015186848151811061236c5761236c6134db565b6020026020010151868581518110612386576123866134db565b60200260200101518e8d8f895a6040518963ffffffff1660e01b81526004016123b6989796959493929190613c7f565b6020604051808303816000875af19250505080156123f1575060408051601f3d908101601f191682019092526123ee91810190613d16565b60015b61247c573d80801561241f576040519150601f19603f3d011682016040523d82523d6000602084013e612424565b606091505b50858281518110612437576124376134db565b60200260200101517fe0b838ffe6ee22a0d3acf19a85db6a41b34a1ab739e2d6c759a2e42d95bdccb28260405161246e9190612dec565b60405180910390a250612551565b80156124cd57858281518110612494576124946134db565b60200260200101517f9e9bc7616d42c2835d05ae617e508454e63b30b934be8aa932ebc125e0e58a6460405160405180910390a261254f565b8582815181106124df576124df6134db565b60200260200101517fb2931868c372fe17a25643458add467d60ec5c51125a99b7309f41f5bcd2da6c6040516125469060208082526011908201527f6572726f7220696e2063616c6c6261636b000000000000000000000000000000604082015260600190565b60405180910390a25b505b8061255b81613539565b915050612320565b60006121ff836001600160a01b038416612b4b565b6000546201000090046001600160a01b03163314612252576040517f2b5c74de00000000000000000000000000000000000000000000000000000000815260040160405180910390fd5b600080306001600160a01b031663814118346040518163ffffffff1660e01b8152600401600060405180830381865afa158015612603573d6000803e3d6000fd5b505050506040513d6000823e601f3d908101601f1916820160405261262b91908101906136df565b905060005b815181101561268757836001600160a01b0316828281518110612655576126556134db565b60200260200101516001600160a01b031603612675575060019392505050565b8061267f81613539565b915050612630565b5060009392505050565b600054610100900460ff1661270e5760405162461bcd60e51b815260206004820152602b60248201527f496e697469616c697a61626c653a20636f6e7472616374206973206e6f74206960448201527f6e697469616c697a696e670000000000000000000000000000000000000000006064820152608401610ee2565b612719336000612b9a565b6001805491151574010000000000000000000000000000000000000000027fffffffffffffffffffffff00ffffffffffffffffffffffffffffffffffffffff909216919091179055565b600054610100900460ff166127e05760405162461bcd60e51b815260206004820152602b60248201527f496e697469616c697a61626c653a20636f6e7472616374206973206e6f74206960448201527f6e697469616c697a696e670000000000000000000000000000000000000000006064820152608401610ee2565b6008805460ff1916911515919091179055565b6000612800826020613a02565b61280b856020613a02565b61281788610144613d38565b6128219190613d38565b61282b9190613d38565b612836906000613d38565b90503681146128875760405162461bcd60e51b815260206004820152601860248201527f63616c6c64617461206c656e677468206d69736d6174636800000000000000006044820152606401610ee2565b50505050505050565b5050565b6000808a8a8a8a8a8a8a8a8a6040516020016128b899989796959493929190613d4b565b60408051601f1981840301815291905280516020909101207dffffffffffffffffffffffffffffffffffffffffffffffffffffffffffff167e01000000000000000000000000000000000000000000000000000000000000179150509998505050505050505050565b336001600160a01b03821603612963576040517f282010c300000000000000000000000000000000000000000000000000000000815260040160405180910390fd5b600180547fffffffffffffffffffffffff0000000000000000000000000000000000000000166001600160a01b038381169182179092556000805460405192936201000090910416917fed8889f560326eb138920d842192f0eb3dd22b4f139c87a2c57538e05bae12789190a350565b6001600160a01b038116600090815260018301602052604081205415156121ff565b60008181526001830160205260408120548015612ade576000612a19600183613a19565b8554909150600090612a2d90600190613a19565b9050818114612a92576000866000018281548110612a4d57612a4d6134db565b9060005260206000200154905080876000018481548110612a7057612a706134db565b6000918252602080832090910192909255918252600188019052604090208390555b8554869080612aa357612aa3613a2c565b6001900381819060005260206000200160009055905585600101600086815260200190815260200160002060009055600193505050506121e4565b60009150506121e4565b5092915050565b606081600001805480602002602001604051908101604052809291908181526020018280548015612b3f57602002820191906000526020600020905b815481526020019060010190808311612b2b575b50505050509050919050565b6000818152600183016020526040812054612b92575081546001818101845560008481526020808220909301849055845484825282860190935260409020919091556121e4565b5060006121e4565b600054610100900460ff16612c175760405162461bcd60e51b815260206004820152602b60248201527f496e697469616c697a61626c653a20636f6e7472616374206973206e6f74206960448201527f6e697469616c697a696e670000000000000000000000000000000000000000006064820152608401610ee2565b6001600160a01b038216612c57576040517fb6b515fa00000000000000000000000000000000000000000000000000000000815260040160405180910390fd5b600080546001600160a01b0380851662010000027fffffffffffffffffffff0000000000000000000000000000000000000000ffff909216919091179091558116156128905761289081612921565b508054612cb290613779565b6000825580601f10612cc2575050565b601f0160209004906000526020600020908101906107099190612cff565b604051806103e00160405280601f906020820280368337509192915050565b5b80821115612d145760008155600101612d00565b5090565b60008083601f840112612d2a57600080fd5b50813567ffffffffffffffff811115612d4257600080fd5b6020830191508360208260051b8501011115612d5d57600080fd5b9250929050565b60008060208385031215612d7757600080fd5b823567ffffffffffffffff811115612d8e57600080fd5b612d9a85828601612d18565b90969095509350505050565b6000815180845260005b81811015612dcc57602081850181015186830182015201612db0565b506000602082860101526020601f19601f83011685010191505092915050565b6020815260006121ff6020830184612da6565b600081518084526020808501945080840160005b83811015612e385781516001600160a01b031687529582019590820190600101612e13565b509495945050505050565b6020815260006121ff6020830184612dff565b6001600160a01b038116811461070957600080fd5b600060208284031215612e7d57600080fd5b81356121ff81612e56565b803567ffffffffffffffff81168114612ea057600080fd5b919050565b60008083601f840112612eb757600080fd5b50813567ffffffffffffffff811115612ecf57600080fd5b602083019150836020828501011115612d5d57600080fd5b803563ffffffff81168114612ea057600080fd5b60008060008060608587031215612f1157600080fd5b612f1a85612e88565b9350602085013567ffffffffffffffff811115612f3657600080fd5b612f4287828801612ea5565b9094509250612f55905060408601612ee7565b905092959194509250565b600080600060408486031215612f7557600080fd5b833567ffffffffffffffff811115612f8c57600080fd5b612f9886828701612ea5565b9094509250506020840135612fac81612e56565b809150509250925092565b604081526000612fca6040830185612dff565b6020838203818501528185518084528284019150828160051b85010183880160005b8381101561301a57601f19878403018552613008838351612da6565b94860194925090850190600101612fec565b50909998505050505050505050565b6000806020838503121561303c57600080fd5b823567ffffffffffffffff81111561305357600080fd5b612d9a85828601612ea5565b60008060006040848603121561307457600080fd5b833561307f81612e56565b9250602084013567ffffffffffffffff81111561309b57600080fd5b6130a786828701612ea5565b9497909650939450505050565b60008060008060008060008060e0898b0312156130d057600080fd5b606089018a8111156130e157600080fd5b8998503567ffffffffffffffff808211156130fb57600080fd5b6131078c838d01612ea5565b909950975060808b013591508082111561312057600080fd5b61312c8c838d01612d18565b909750955060a08b013591508082111561314557600080fd5b506131528b828c01612d18565b999c989b50969995989497949560c00135949350505050565b60008060008060006080868803121561318357600080fd5b61318c86612e88565b9450602086013567ffffffffffffffff8111156131a857600080fd5b6131b488828901612ea5565b90955093506131c7905060408701612ee7565b949793965091946060013592915050565b7f4e487b7100000000000000000000000000000000000000000000000000000000600052604160045260246000fd5b604051601f8201601f1916810167ffffffffffffffff81118282101715613230576132306131d8565b604052919050565b600067ffffffffffffffff821115613252576132526131d8565b5060051b60200190565b600082601f83011261326d57600080fd5b8135602061328261327d83613238565b613207565b82815260059290921b840181019181810190868411156132a157600080fd5b8286015b848110156132c55780356132b881612e56565b83529183019183016132a5565b509695505050505050565b803560ff81168114612ea057600080fd5b600082601f8301126132f257600080fd5b813567ffffffffffffffff81111561330c5761330c6131d8565b61331f6020601f19601f84011601613207565b81815284602083860101111561333457600080fd5b816020850160208301376000918101602001919091529392505050565b60008060008060008060c0878903121561336a57600080fd5b863567ffffffffffffffff8082111561338257600080fd5b61338e8a838b0161325c565b975060208901359150808211156133a457600080fd5b6133b08a838b0161325c565b96506133be60408a016132d0565b955060608901359150808211156133d457600080fd5b6133e08a838b016132e1565b94506133ee60808a01612e88565b935060a089013591508082111561340457600080fd5b5061341189828a016132e1565b9150509295509295509295565b600080600083850360a081121561343457600080fd5b843567ffffffffffffffff8082111561344c57600080fd5b61345888838901612ea5565b90965094508491506080601f198401121561347257600080fd5b60405192506080830191508282108183111715613491576134916131d8565b506040526134a160208601612e88565b815260408501356134b181612e56565b60208201526134c260608601612ee7565b6040820152608094909401356060850152509093909250565b7f4e487b7100000000000000000000000000000000000000000000000000000000600052603260045260246000fd5b7f4e487b7100000000000000000000000000000000000000000000000000000000600052601160045260246000fd5b60007fffffffffffffffffffffffffffffffffffffffffffffffffffffffffffffffff820361356a5761356a61350a565b5060010190565b6040808252810183905260008460608301825b868110156135b457823561359781612e56565b6001600160a01b0316825260209283019290910190600101613584565b5080925050506001600160a01b0383166020830152949350505050565b818352818160208501375060006020828401015260006020601f19601f840116840101905092915050565b60a08152600061361060a0830185876135d1565b905067ffffffffffffffff83511660208301526001600160a01b03602084015116604083015263ffffffff604084015116606083015260608301516080830152949350505050565b60006020828403121561366a57600080fd5b5051919050565b60006020828403121561368357600080fd5b81516121ff81612e56565b60006001600160a01b038089168352808816602084015267ffffffffffffffff8716604084015280861660608401525060a060808301526136d360a0830184866135d1565b98975050505050505050565b600060208083850312156136f257600080fd5b825167ffffffffffffffff81111561370957600080fd5b8301601f8101851361371a57600080fd5b805161372861327d82613238565b81815260059190911b8201830190838101908783111561374757600080fd5b928401925b8284101561376e57835161375f81612e56565b8252928401929084019061374c565b979650505050505050565b600181811c9082168061378d57607f821691505b6020821081036137c6577f4e487b7100000000000000000000000000000000000000000000000000000000600052602260045260246000fd5b50919050565b601f821115610c1b57600081815260208120601f850160051c810160208610156137f35750805b601f850160051c820191505b81811015613812578281556001016137ff565b505050505050565b67ffffffffffffffff831115613832576138326131d8565b613846836138408354613779565b836137cc565b6000601f84116001811461389857600085156138625750838201355b7fffffffffffffffffffffffffffffffffffffffffffffffffffffffffffffffff600387901b1c1916600186901b178355613910565b600083815260209020601f19861690835b828110156138c957868501358255602094850194600190920191016138a9565b5086821015613904577fffffffffffffffffffffffffffffffffffffffffffffffffffffffffffffffff60f88860031b161c19848701351681555b505060018560011b0183555b5050505050565b60ff81811683821601908111156121e4576121e461350a565b7f4e487b7100000000000000000000000000000000000000000000000000000000600052601260045260246000fd5b600060ff83168061397257613972613930565b8060ff84160491505092915050565b7f4e487b7100000000000000000000000000000000000000000000000000000000600052602160045260246000fd5b8183823760009101908152919050565b828152606082602083013760800192915050565b6000602082840312156139e657600080fd5b81516bffffffffffffffffffffffff811681146121ff57600080fd5b80820281158282048414176121e4576121e461350a565b818103818111156121e4576121e461350a565b7f4e487b7100000000000000000000000000000000000000000000000000000000600052603160045260246000fd5b63ffffffff818116838216019080821115612ae857612ae861350a565b600061012063ffffffff808d1684528b6020850152808b16604085015250806060840152613aa88184018a612dff565b90508281036080840152613abc8189612dff565b905060ff871660a084015282810360c0840152613ad98187612da6565b905067ffffffffffffffff851660e0840152828103610100840152613afe8185612da6565b9c9b505050505050505050505050565b600082601f830112613b1f57600080fd5b81356020613b2f61327d83613238565b82815260059290921b84018101918181019086841115613b4e57600080fd5b8286015b848110156132c557803567ffffffffffffffff811115613b725760008081fd5b613b808986838b01016132e1565b845250918301918301613b52565b600080600060608486031215613ba357600080fd5b833567ffffffffffffffff80821115613bbb57600080fd5b818601915086601f830112613bcf57600080fd5b81356020613bdf61327d83613238565b82815260059290921b8401810191818101908a841115613bfe57600080fd5b948201945b83861015613c1c57853582529482019490820190613c03565b97505087013592505080821115613c3257600080fd5b613c3e87838801613b0e565b93506040860135915080821115613c5457600080fd5b50613c6186828701613b0e565b9150509250925092565b600082613c7a57613c7a613930565b500490565b60006104c08a835260208181850152613c9a8285018c612da6565b91508382036040850152613cae828b612da6565b92506001600160a01b0391508189166060850152608084018860005b601f811015613ce9578151851683529183019190830190600101613cca565b5050505050613cfe61046083018660ff169052565b6104808201939093526104a001529695505050505050565b600060208284031215613d2857600080fd5b815180151581146121ff57600080fd5b808201808211156121e4576121e461350a565b60006101208b83526001600160a01b038b16602084015267ffffffffffffffff808b166040850152816060850152613d858285018b612dff565b91508382036080850152613d99828a612dff565b915060ff881660a085015283820360c0850152613db68288612da6565b90861660e08501528381036101008501529050613afe8185612da656fea164736f6c6343000815000a",
    "linkReferences": {}
  },
  "methodIdentifiers": {
    "acceptOwnership()": "79ba5097",
    "activateAuthorizedReceiver()": "110254c8",
    "addAuthorizedSenders(address[])": "4dcef404",
    "authorizedReceiverActive()": "4b4fa0c1",
    "callReport(bytes)": "736d7e0f",
    "callReportMultipleSigners(bytes,address)": "3901c40e",
    "callValidateReport(bytes)": "770c7f4c",
    "deactivateAuthorizedReceiver()": "91bb64eb",
    "deleteNodePublicKey(address)": "26ceabac",
    "estimateCost(uint64,bytes,uint32,uint256)": "d227d245",
    "getAllNodePublicKeys()": "53398987",
    "getAuthorizedSenders()": "2408afaa",
    "getDONPublicKey()": "d328a91e",
    "getRegistry()": "5ab1bd53",
    "getRequiredFee(bytes,(uint64,address,uint32,uint256))": "f1e14a21",
    "initialize()": "8129fc1c",
    "isAuthorizedSender(address)": "fa00763a",
    "latestConfigDetails()": "81ff7048",
    "latestConfigDigestAndEpoch()": "afcb95d7",
    "owner()": "8da5cb5b",
    "removeAuthorizedSenders(address[])": "03e1bf23",
    "sendRequest(uint64,bytes,uint32)": "28242b04",
    "setConfig(address[],address[],uint8,bytes,uint64,bytes)": "e3d0e712",
    "setDONPublicKey(bytes)": "7f15e166",
    "setNodePublicKey(address,bytes)": "80756031",
    "setRegistry(address)": "a91ee0dc",
    "transferOwnership(address)": "f2fde38b",
    "transmit(bytes32[3],bytes,bytes32[],bytes32[],bytes32)": "b1dc65a4",
    "transmitters()": "81411834",
    "typeAndVersion()": "181f5a77"
  },
  "id": 182
}