{
  "abi": [
    {
      "inputs": [],
      "name": "InvalidInitialization",
      "type": "error"
    },
    {
      "inputs": [],
      "name": "NotInitializing",
      "type": "error"
    },
    {
      "inputs": [
        {
          "internalType": "address",
          "name": "owner",
          "type": "address"
        }
      ],
      "name": "OwnableInvalidOwner",
      "type": "error"
    },
    {
      "inputs": [
        {
          "internalType": "address",
          "name": "account",
          "type": "address"
        }
      ],
      "name": "OwnableUnauthorizedAccount",
      "type": "error"
    },
    {
      "anonymous": false,
      "inputs": [
        {
          "indexed": false,
          "internalType": "uint64",
          "name": "version",
          "type": "uint64"
        }
      ],
      "name": "Initialized",
      "type": "event"
    },
    {
      "anonymous": false,
      "inputs": [
        {
          "indexed": true,
          "internalType": "address",
          "name": "_module",
          "type": "address"
        }
      ],
      "name": "ModuleAdded",
      "type": "event"
    },
    {
      "anonymous": false,
      "inputs": [
        {
          "indexed": true,
          "internalType": "address",
          "name": "target",
          "type": "address"
        },
        {
          "indexed": false,
          "internalType": "bytes4",
          "name": "selector",
          "type": "bytes4"
        }
      ],
      "name": "ModuleInteraction",
      "type": "event"
    },
    {
      "anonymous": false,
      "inputs": [
        {
          "indexed": true,
          "internalType": "address",
          "name": "_module",
          "type": "address"
        }
      ],
      "name": "ModuleRemoved",
      "type": "event"
    },
    {
      "anonymous": false,
      "inputs": [
        {
          "indexed": true,
          "internalType": "address",
          "name": "previousOwner",
          "type": "address"
        },
        {
          "indexed": true,
          "internalType": "address",
          "name": "newOwner",
          "type": "address"
        }
      ],
      "name": "OwnershipTransferred",
      "type": "event"
    },
    {
      "anonymous": false,
      "inputs": [
        {
          "indexed": false,
          "internalType": "address",
          "name": "_token",
          "type": "address"
        }
      ],
      "name": "TokenBound",
      "type": "event"
    },
    {
      "anonymous": false,
      "inputs": [
        {
          "indexed": false,
          "internalType": "address",
          "name": "_token",
          "type": "address"
        }
      ],
      "name": "TokenUnbound",
      "type": "event"
    },
    {
      "inputs": [
        {
          "internalType": "address",
          "name": "_module",
          "type": "address"
        }
      ],
      "name": "addModule",
      "outputs": [],
      "stateMutability": "nonpayable",
      "type": "function"
    },
    {
      "inputs": [
        {
          "internalType": "address",
          "name": "_token",
          "type": "address"
        }
      ],
      "name": "bindToken",
      "outputs": [],
      "stateMutability": "nonpayable",
      "type": "function"
    },
    {
      "inputs": [
        {
          "internalType": "bytes",
          "name": "callData",
          "type": "bytes"
        },
        {
          "internalType": "address",
          "name": "_module",
          "type": "address"
        }
      ],
      "name": "callModuleFunction",
      "outputs": [],
      "stateMutability": "nonpayable",
      "type": "function"
    },
    {
      "inputs": [
        {
          "internalType": "address",
          "name": "_from",
          "type": "address"
        },
        {
          "internalType": "address",
          "name": "_to",
          "type": "address"
        },
        {
          "internalType": "uint256",
          "name": "_value",
          "type": "uint256"
        }
      ],
      "name": "canTransfer",
      "outputs": [
        {
          "internalType": "bool",
          "name": "",
          "type": "bool"
        }
      ],
      "stateMutability": "view",
      "type": "function"
    },
    {
      "inputs": [
        {
          "internalType": "address",
          "name": "_to",
          "type": "address"
        },
        {
          "internalType": "uint256",
          "name": "_value",
          "type": "uint256"
        }
      ],
      "name": "created",
      "outputs": [],
      "stateMutability": "nonpayable",
      "type": "function"
    },
    {
      "inputs": [
        {
          "internalType": "address",
          "name": "_from",
          "type": "address"
        },
        {
          "internalType": "uint256",
          "name": "_value",
          "type": "uint256"
        }
      ],
      "name": "destroyed",
      "outputs": [],
      "stateMutability": "nonpayable",
      "type": "function"
    },
    {
      "inputs": [],
      "name": "getModules",
      "outputs": [
        {
          "internalType": "address[]",
          "name": "",
          "type": "address[]"
        }
      ],
      "stateMutability": "view",
      "type": "function"
    },
    {
      "inputs": [],
      "name": "getTokenBound",
      "outputs": [
        {
          "internalType": "address",
          "name": "",
          "type": "address"
        }
      ],
      "stateMutability": "view",
      "type": "function"
    },
    {
      "inputs": [],
      "name": "init",
      "outputs": [],
      "stateMutability": "nonpayable",
      "type": "function"
    },
    {
      "inputs": [
        {
          "internalType": "address",
          "name": "_module",
          "type": "address"
        }
      ],
      "name": "isModuleBound",
      "outputs": [
        {
          "internalType": "bool",
          "name": "",
          "type": "bool"
        }
      ],
      "stateMutability": "view",
      "type": "function"
    },
    {
      "inputs": [],
      "name": "owner",
      "outputs": [
        {
          "internalType": "address",
          "name": "",
          "type": "address"
        }
      ],
      "stateMutability": "view",
      "type": "function"
    },
    {
      "inputs": [
        {
          "internalType": "address",
          "name": "_module",
          "type": "address"
        }
      ],
      "name": "removeModule",
      "outputs": [],
      "stateMutability": "nonpayable",
      "type": "function"
    },
    {
      "inputs": [],
      "name": "renounceOwnership",
      "outputs": [],
      "stateMutability": "nonpayable",
      "type": "function"
    },
    {
      "inputs": [
        {
          "internalType": "address",
          "name": "newOwner",
          "type": "address"
        }
      ],
      "name": "transferOwnership",
      "outputs": [],
      "stateMutability": "nonpayable",
      "type": "function"
    },
    {
      "inputs": [
        {
          "internalType": "address",
          "name": "_from",
          "type": "address"
        },
        {
          "internalType": "address",
          "name": "_to",
          "type": "address"
        },
        {
          "internalType": "uint256",
          "name": "_value",
          "type": "uint256"
        }
      ],
      "name": "transferred",
      "outputs": [],
      "stateMutability": "nonpayable",
      "type": "function"
    },
    {
      "inputs": [
        {
          "internalType": "address",
          "name": "_token",
          "type": "address"
        }
      ],
      "name": "unbindToken",
      "outputs": [],
      "stateMutability": "nonpayable",
      "type": "function"
    }
  ],
  "bytecode": {
    "object": "0x608060405234801561001057600080fd5b50611ae2806100206000396000f3fe608060405234801561001057600080fd5b50600436106101005760003560e01c80638da5cb5b11610097578063e1c7392a11610066578063e1c7392a1461023f578063e46638e614610247578063efb22d331461025a578063f2fde38b1461026d57600080fd5b80638da5cb5b146101ab578063a0632461146101db578063a446d49f146101ee578063b2494df31461022a57600080fd5b80636a3edf28116100d35780636a3edf2814610153578063715018a61461017d5780638baf29b4146101855780638d2ea7721461019857600080fd5b80631ed86f19146101055780633ff5aa021461011a57806340db3b501461012d5780635f8dead314610140575b600080fd5b61011861011336600461188c565b610280565b005b61011861012836600461188c565b610632565b61011861013b36600461188c565b6107a4565b61011861014e3660046118a7565b610953565b6000546001600160a01b03165b6040516001600160a01b0390911681526020015b60405180910390f35b610118610b62565b6101186101933660046118d1565b610b76565b6101186101a63660046118a7565b610dc9565b7f9016d09d72d40fdae2fd8ceac6b6234c7706214fd39c1cd1e609a0528c199300546001600160a01b0316610160565b6101186101e936600461188c565b610fd2565b61021a6101fc36600461188c565b6001600160a01b031660009081526002602052604090205460ff1690565b6040519015158152602001610174565b6102326112b3565b604051610174919061190d565b610118611315565b61021a6102553660046118d1565b611493565b61011861026836600461195a565b61158a565b61011861027b36600461188c565b611688565b6102886116df565b6001600160a01b0381166102e35760405162461bcd60e51b815260206004820152601f60248201527f696e76616c696420617267756d656e74202d207a65726f20616464726573730060448201526064015b60405180910390fd5b6001600160a01b03811660009081526002602052604090205460ff161561034c5760405162461bcd60e51b815260206004820152601460248201527f6d6f64756c6520616c726561647920626f756e6400000000000000000000000060448201526064016102da565b6001546018101561039f5760405162461bcd60e51b815260206004820152601f60248201527f63616e6e6f7420616464206d6f7265207468616e203235206d6f64756c65730060448201526064016102da565b6000819050806001600160a01b031663e6f5e8076040518163ffffffff1660e01b8152600401602060405180830381865afa1580156103e2573d6000803e3d6000fd5b505050506040513d601f19601f8201168201806040525081019061040691906119db565b6104fd576040517fbcc210530000000000000000000000000000000000000000000000000000000081523060048201526001600160a01b0382169063bcc2105390602401602060405180830381865afa158015610467573d6000803e3d6000fd5b505050506040513d601f19601f8201168201806040525081019061048b91906119db565b6104fd5760405162461bcd60e51b815260206004820152603460248201527f636f6d706c69616e6365206973206e6f74207375697461626c6520666f72206260448201527f696e64696e6720746f20746865206d6f64756c6500000000000000000000000060648201526084016102da565b6040517f4a9325440000000000000000000000000000000000000000000000000000000081523060048201526001600160a01b03821690634a93254490602401600060405180830381600087803b15801561055757600080fd5b505af115801561056b573d6000803e3d6000fd5b50506001805480820182557fb10e2d527612073b26eecdfd717e6a320cf44b4afac2b0732d9fcbe2b7fa0cf60180547fffffffffffffffffffffffff0000000000000000000000000000000000000000166001600160a01b03871690811790915560008181526002602052604080822080547fffffffffffffffffffffffffffffffffffffffffffffffffffffffffffffff001690941790935591519093507fead6a006345da1073a106d5f32372d2d2204f46cb0b4bca8f5ebafcbbed12b8a9250a25050565b336106647f9016d09d72d40fdae2fd8ceac6b6234c7706214fd39c1cd1e609a0528c199300546001600160a01b031690565b6001600160a01b0316148061069557506000546001600160a01b03161580156106955750336001600160a01b038216145b6106e15760405162461bcd60e51b815260206004820152601c60248201527f6f6e6c79206f776e6572206f7220746f6b656e2063616e2063616c6c0000000060448201526064016102da565b6001600160a01b0381166107375760405162461bcd60e51b815260206004820152601f60248201527f696e76616c696420617267756d656e74202d207a65726f20616464726573730060448201526064016102da565b600080547fffffffffffffffffffffffff0000000000000000000000000000000000000000166001600160a01b0383169081179091556040519081527f2de35142b19ed5a07796cf30791959c592018f70b1d2d7c460eef8ffe713692b906020015b60405180910390a150565b336107d67f9016d09d72d40fdae2fd8ceac6b6234c7706214fd39c1cd1e609a0528c199300546001600160a01b031690565b6001600160a01b031614806107f35750336001600160a01b038216145b61083f5760405162461bcd60e51b815260206004820152601c60248201527f6f6e6c79206f776e6572206f7220746f6b656e2063616e2063616c6c0000000060448201526064016102da565b6000546001600160a01b0382811691161461089c5760405162461bcd60e51b815260206004820152601760248201527f5468697320746f6b656e206973206e6f7420626f756e6400000000000000000060448201526064016102da565b6001600160a01b0381166108f25760405162461bcd60e51b815260206004820152601f60248201527f696e76616c696420617267756d656e74202d207a65726f20616464726573730060448201526064016102da565b600080547fffffffffffffffffffffffff00000000000000000000000000000000000000001690556040516001600160a01b03821681527f28a4ca7134a3b3f9aff286e79ad3daadb4a06d1b43d037a3a98bdc074edd9b7a90602001610799565b6000546001600160a01b031633146109fa5760405162461bcd60e51b8152602060048201526044602482018190527f6572726f72203a20746869732061646472657373206973206e6f74206120746f908201527f6b656e20626f756e6420746f2074686520636f6d706c69616e636520636f6e7460648201527f7261637400000000000000000000000000000000000000000000000000000000608482015260a4016102da565b6001600160a01b038216610a505760405162461bcd60e51b815260206004820152601f60248201527f696e76616c696420617267756d656e74202d207a65726f20616464726573730060448201526064016102da565b60008111610aa05760405162461bcd60e51b815260206004820181905260248201527f696e76616c696420617267756d656e74202d206e6f2076616c7565206d696e7460448201526064016102da565b60015460005b81811015610b5c5760018181548110610ac157610ac16119fd565b6000918252602090912001546040517ff104a8c90000000000000000000000000000000000000000000000000000000081526001600160a01b038681166004830152602482018690529091169063f104a8c990604401600060405180830381600087803b158015610b3157600080fd5b505af1158015610b45573d6000803e3d6000fd5b505050508080610b5490611a5b565b915050610aa6565b50505050565b610b6a6116df565b610b746000611753565b565b6000546001600160a01b03163314610c1d5760405162461bcd60e51b8152602060048201526044602482018190527f6572726f72203a20746869732061646472657373206973206e6f74206120746f908201527f6b656e20626f756e6420746f2074686520636f6d706c69616e636520636f6e7460648201527f7261637400000000000000000000000000000000000000000000000000000000608482015260a4016102da565b6001600160a01b03831615801590610c3d57506001600160a01b03821615155b610c895760405162461bcd60e51b815260206004820152601f60248201527f696e76616c696420617267756d656e74202d207a65726f20616464726573730060448201526064016102da565b60008111610cfe5760405162461bcd60e51b8152602060048201526024808201527f696e76616c696420617267756d656e74202d206e6f2076616c7565207472616e60448201527f736665720000000000000000000000000000000000000000000000000000000060648201526084016102da565b60015460005b81811015610dc25760018181548110610d1f57610d1f6119fd565b6000918252602090912001546040517f2cb7e1ec0000000000000000000000000000000000000000000000000000000081526001600160a01b03878116600483015286811660248301526044820186905290911690632cb7e1ec90606401600060405180830381600087803b158015610d9757600080fd5b505af1158015610dab573d6000803e3d6000fd5b505050508080610dba90611a5b565b915050610d04565b5050505050565b6000546001600160a01b03163314610e705760405162461bcd60e51b8152602060048201526044602482018190527f6572726f72203a20746869732061646472657373206973206e6f74206120746f908201527f6b656e20626f756e6420746f2074686520636f6d706c69616e636520636f6e7460648201527f7261637400000000000000000000000000000000000000000000000000000000608482015260a4016102da565b6001600160a01b038216610ec65760405162461bcd60e51b815260206004820152601f60248201527f696e76616c696420617267756d656e74202d207a65726f20616464726573730060448201526064016102da565b60008111610f165760405162461bcd60e51b815260206004820181905260248201527f696e76616c696420617267756d656e74202d206e6f2076616c7565206275726e60448201526064016102da565b60015460005b81811015610b5c5760018181548110610f3757610f376119fd565b6000918252602090912001546040517f372491a20000000000000000000000000000000000000000000000000000000081526001600160a01b038681166004830152602482018690529091169063372491a290604401600060405180830381600087803b158015610fa757600080fd5b505af1158015610fbb573d6000803e3d6000fd5b505050508080610fca90611a5b565b915050610f1c565b610fda6116df565b6001600160a01b0381166110305760405162461bcd60e51b815260206004820152601f60248201527f696e76616c696420617267756d656e74202d207a65726f20616464726573730060448201526064016102da565b6001600160a01b03811660009081526002602052604090205460ff166110985760405162461bcd60e51b815260206004820152601060248201527f6d6f64756c65206e6f7420626f756e640000000000000000000000000000000060448201526064016102da565b60015460005b818110156112ae57826001600160a01b0316600182815481106110c3576110c36119fd565b6000918252602090912001546001600160a01b03160361129c576040517f0694a5fb0000000000000000000000000000000000000000000000000000000081523060048201526001600160a01b03841690630694a5fb90602401600060405180830381600087803b15801561113757600080fd5b505af115801561114b573d6000803e3d6000fd5b505050506001808361115d9190611a93565b8154811061116d5761116d6119fd565b600091825260209091200154600180546001600160a01b039092169183908110611199576111996119fd565b9060005260206000200160006101000a8154816001600160a01b0302191690836001600160a01b0316021790555060018054806111d8576111d8611aa6565b6000828152602080822083017fffffffffffffffffffffffffffffffffffffffffffffffffffffffffffffffff90810180547fffffffffffffffffffffffff00000000000000000000000000000000000000001690559092019092556001600160a01b0385168083526002909152604080832080547fffffffffffffffffffffffffffffffffffffffffffffffffffffffffffffff001690555190917f0a1ee69f55c33d8467c69ca59ce2007a737a88603d75392972520bf67cb513b891a2505050565b806112a681611a5b565b91505061109e565b505050565b6060600180548060200260200160405190810160405280929190818152602001828054801561130b57602002820191906000526020600020905b81546001600160a01b031681526001909101906020018083116112ed575b5050505050905090565b7ff0c57e16840df040f15088dc2f81fe391c3923bec73e23a9662efc9c229c6a00805468010000000000000000810460ff16159067ffffffffffffffff166000811580156113605750825b905060008267ffffffffffffffff16600114801561137d5750303b155b90508115801561138b575080155b156113c2576040517ff92ee8a900000000000000000000000000000000000000000000000000000000815260040160405180910390fd5b84547fffffffffffffffffffffffffffffffffffffffffffffffff000000000000000016600117855583156114235784547fffffffffffffffffffffffffffffffffffffffffffffff00ffffffffffffffff16680100000000000000001785555b61142c336117dc565b8315610dc25784547fffffffffffffffffffffffffffffffffffffffffffffff00ffffffffffffffff168555604051600181527fc7f505b2f371ae2175ee4913f4499e1f2633a7b5936321eed1cdaeb6115181d29060200160405180910390a15050505050565b600154600090815b8181101561157c57600181815481106114b6576114b66119fd565b6000918252602090912001546040517f013b7ce40000000000000000000000000000000000000000000000000000000081526001600160a01b0388811660048301528781166024830152604482018790523060648301529091169063013b7ce490608401602060405180830381865afa158015611537573d6000803e3d6000fd5b505050506040513d601f19601f8201168201806040525081019061155b91906119db565b61156a57600092505050611583565b8061157481611a5b565b91505061149b565b5060019150505b9392505050565b6115926116df565b6001600160a01b03811660009081526002602052604090205460ff166115fa5760405162461bcd60e51b815260206004820152601960248201527f63616c6c206f6e6c79206f6e20626f756e64206d6f64756c650000000000000060448201526064016102da565b6040518284823760008084836000865af1611619573d6000803e3d6000fd5b50806001600160a01b03167f20d79de70adcc6e9353d8a9a5646b46dc352710d0a310b1ad1f67faeca7ef89161164f85856117ed565b6040517fffffffff00000000000000000000000000000000000000000000000000000000909116815260200160405180910390a2505050565b6116906116df565b6001600160a01b0381166116d3576040517f1e4fbdf7000000000000000000000000000000000000000000000000000000008152600060048201526024016102da565b6116dc81611753565b50565b336117117f9016d09d72d40fdae2fd8ceac6b6234c7706214fd39c1cd1e609a0528c199300546001600160a01b031690565b6001600160a01b031614610b74576040517f118cdaa70000000000000000000000000000000000000000000000000000000081523360048201526024016102da565b7f9016d09d72d40fdae2fd8ceac6b6234c7706214fd39c1cd1e609a0528c19930080547fffffffffffffffffffffffff000000000000000000000000000000000000000081166001600160a01b03848116918217845560405192169182907f8be0079c531659141344cd1fd0a4f28419497f9722a3daafe3b4186f6b6457e090600090a3505050565b6117e4611801565b6116dc81611868565b6000600482106117fb575081355b92915050565b7ff0c57e16840df040f15088dc2f81fe391c3923bec73e23a9662efc9c229c6a005468010000000000000000900460ff16610b74576040517fd7e6bcf800000000000000000000000000000000000000000000000000000000815260040160405180910390fd5b611690611801565b80356001600160a01b038116811461188757600080fd5b919050565b60006020828403121561189e57600080fd5b61158382611870565b600080604083850312156118ba57600080fd5b6118c383611870565b946020939093013593505050565b6000806000606084860312156118e657600080fd5b6118ef84611870565b92506118fd60208501611870565b9150604084013590509250925092565b6020808252825182820181905260009190848201906040850190845b8181101561194e5783516001600160a01b031683529284019291840191600101611929565b50909695505050505050565b60008060006040848603121561196f57600080fd5b833567ffffffffffffffff8082111561198757600080fd5b818601915086601f83011261199b57600080fd5b8135818111156119aa57600080fd5b8760208285010111156119bc57600080fd5b6020928301955093506119d29186019050611870565b90509250925092565b6000602082840312156119ed57600080fd5b8151801515811461158357600080fd5b7f4e487b7100000000000000000000000000000000000000000000000000000000600052603260045260246000fd5b7f4e487b7100000000000000000000000000000000000000000000000000000000600052601160045260246000fd5b60007fffffffffffffffffffffffffffffffffffffffffffffffffffffffffffffffff8203611a8c57611a8c611a2c565b5060010190565b818103818111156117fb576117fb611a2c565b7f4e487b7100000000000000000000000000000000000000000000000000000000600052603160045260246000fdfea164736f6c6343000815000a",
    "linkReferences": {}
  },
  "methodIdentifiers": {
    "addModule(address)": "1ed86f19",
    "bindToken(address)": "3ff5aa02",
    "callModuleFunction(bytes,address)": "efb22d33",
    "canTransfer(address,address,uint256)": "e46638e6",
    "created(address,uint256)": "5f8dead3",
    "destroyed(address,uint256)": "8d2ea772",
    "getModules()": "b2494df3",
    "getTokenBound()": "6a3edf28",
    "init()": "e1c7392a",
    "isModuleBound(address)": "a446d49f",
    "owner()": "8da5cb5b",
    "removeModule(address)": "a0632461",
    "renounceOwnership()": "715018a6",
    "transferOwnership(address)": "f2fde38b",
    "transferred(address,address,uint256)": "8baf29b4",
    "unbindToken(address)": "40db3b50"
  },
  "id": 2
}