{
  "abi": [
    {
      "inputs": [
        {
          "internalType": "address",
          "name": "router",
          "type": "address"
        },
        {
          "internalType": "address",
          "name": "token",
          "type": "address"
        }
      ],
      "stateMutability": "nonpayable",
      "type": "constructor"
    },
    {
      "inputs": [],
      "name": "GasShouldBeZero",
      "type": "error"
    },
    {
      "inputs": [],
      "name": "InvalidToken",
      "type": "error"
    },
    {
      "inputs": [],
      "name": "NoDataAllowed",
      "type": "error"
    },
    {
      "anonymous": false,
      "inputs": [
        {
          "indexed": true,
          "internalType": "address",
          "name": "from",
          "type": "address"
        },
        {
          "indexed": true,
          "internalType": "address",
          "name": "to",
          "type": "address"
        }
      ],
      "name": "OwnershipTransferRequested",
      "type": "event"
    },
    {
      "anonymous": false,
      "inputs": [
        {
          "indexed": true,
          "internalType": "address",
          "name": "from",
          "type": "address"
        },
        {
          "indexed": true,
          "internalType": "address",
          "name": "to",
          "type": "address"
        }
      ],
      "name": "OwnershipTransferred",
      "type": "event"
    },
    {
      "inputs": [],
      "name": "acceptOwnership",
      "outputs": [],
      "stateMutability": "nonpayable",
      "type": "function"
    },
    {
      "inputs": [
        {
          "internalType": "uint64",
          "name": "destinationChainSelector",
          "type": "uint64"
        },
        {
          "components": [
            {
              "internalType": "bytes",
              "name": "receiver",
              "type": "bytes"
            },
            {
              "internalType": "bytes",
              "name": "data",
              "type": "bytes"
            },
            {
              "components": [
                {
                  "internalType": "address",
                  "name": "token",
                  "type": "address"
                },
                {
                  "internalType": "uint256",
                  "name": "amount",
                  "type": "uint256"
                }
              ],
              "internalType": "struct Client.EVMTokenAmount[]",
              "name": "tokenAmounts",
              "type": "tuple[]"
            },
            {
              "internalType": "address",
              "name": "feeToken",
              "type": "address"
            },
            {
              "internalType": "bytes",
              "name": "extraArgs",
              "type": "bytes"
            }
          ],
          "internalType": "struct Client.EVM2AnyMessage",
          "name": "message",
          "type": "tuple"
        }
      ],
      "name": "ccipSend",
      "outputs": [
        {
          "internalType": "bytes32",
          "name": "messageId",
          "type": "bytes32"
        }
      ],
      "stateMutability": "payable",
      "type": "function"
    },
    {
      "inputs": [
        {
          "internalType": "uint64",
          "name": "destinationChainSelector",
          "type": "uint64"
        },
        {
          "components": [
            {
              "internalType": "bytes",
              "name": "receiver",
              "type": "bytes"
            },
            {
              "internalType": "bytes",
              "name": "data",
              "type": "bytes"
            },
            {
              "components": [
                {
                  "internalType": "address",
                  "name": "token",
                  "type": "address"
                },
                {
                  "internalType": "uint256",
                  "name": "amount",
                  "type": "uint256"
                }
              ],
              "internalType": "struct Client.EVMTokenAmount[]",
              "name": "tokenAmounts",
              "type": "tuple[]"
            },
            {
              "internalType": "address",
              "name": "feeToken",
              "type": "address"
            },
            {
              "internalType": "bytes",
              "name": "extraArgs",
              "type": "bytes"
            }
          ],
          "internalType": "struct Client.EVM2AnyMessage",
          "name": "message",
          "type": "tuple"
        }
      ],
      "name": "getFee",
      "outputs": [
        {
          "internalType": "uint256",
          "name": "fee",
          "type": "uint256"
        }
      ],
      "stateMutability": "view",
      "type": "function"
    },
    {
      "inputs": [],
      "name": "getRouter",
      "outputs": [
        {
          "internalType": "contract IRouterClient",
          "name": "",
          "type": "address"
        }
      ],
      "stateMutability": "view",
      "type": "function"
    },
    {
      "inputs": [],
      "name": "getToken",
      "outputs": [
        {
          "internalType": "address",
          "name": "",
          "type": "address"
        }
      ],
      "stateMutability": "view",
      "type": "function"
    },
    {
      "inputs": [],
      "name": "owner",
      "outputs": [
        {
          "internalType": "address",
          "name": "",
          "type": "address"
        }
      ],
      "stateMutability": "view",
      "type": "function"
    },
    {
      "inputs": [
        {
          "internalType": "address",
          "name": "to",
          "type": "address"
        }
      ],
      "name": "transferOwnership",
      "outputs": [],
      "stateMutability": "nonpayable",
      "type": "function"
    }
  ],
  "bytecode": {
    "object": "0x60c06040523480156200001157600080fd5b506040516200171038038062001710833981016040819052620000349162000217565b33806000816200008b5760405162461bcd60e51b815260206004820152601860248201527f43616e6e6f7420736574206f776e657220746f207a65726f000000000000000060448201526064015b60405180910390fd5b600080546001600160a01b0319166001600160a01b0384811691909117909155811615620000be57620000be816200014f565b5050506001600160a01b03828116608081905290821660a081905260405163095ea7b360e01b8152600481019290925260001960248301529063095ea7b3906044016020604051808303816000875af115801562000120573d6000803e3d6000fd5b505050506040513d601f19601f820116820180604052508101906200014691906200024f565b5050506200027a565b336001600160a01b03821603620001a95760405162461bcd60e51b815260206004820152601760248201527f43616e6e6f74207472616e7366657220746f2073656c66000000000000000000604482015260640162000082565b600180546001600160a01b0319166001600160a01b0383811691821790925560008054604051929316917fed8889f560326eb138920d842192f0eb3dd22b4f139c87a2c57538e05bae12789190a350565b80516001600160a01b03811681146200021257600080fd5b919050565b600080604083850312156200022b57600080fd5b6200023683620001fa565b91506200024660208401620001fa565b90509250929050565b6000602082840312156200026257600080fd5b815180151581146200027357600080fd5b9392505050565b60805160a05161144e620002c26000396000818160b70152610776015260008181610160015281816101ec015281816103e5015281816104e001526106b6015261144e6000f3fe6080604052600436106100705760003560e01c80638da5cb5b1161004e5780638da5cb5b1461011357806396f4e9f91461013e578063b0f479a114610151578063f2fde38b1461018457600080fd5b806320487ded1461007557806321df0da7146100a857806379ba5097146100fc575b600080fd5b34801561008157600080fd5b50610095610090366004610e9f565b6101a4565b6040519081526020015b60405180910390f35b3480156100b457600080fd5b507f00000000000000000000000000000000000000000000000000000000000000005b60405173ffffffffffffffffffffffffffffffffffffffff909116815260200161009f565b34801561010857600080fd5b5061011161026b565b005b34801561011f57600080fd5b5060005473ffffffffffffffffffffffffffffffffffffffff166100d7565b61009561014c366004610e9f565b61036d565b34801561015d57600080fd5b507f00000000000000000000000000000000000000000000000000000000000000006100d7565b34801561019057600080fd5b5061011161019f366004610f28565b610732565b60006101af82610746565b6040517f20487ded00000000000000000000000000000000000000000000000000000000815273ffffffffffffffffffffffffffffffffffffffff7f000000000000000000000000000000000000000000000000000000000000000016906320487ded906102239086908690600401611055565b602060405180830381865afa158015610240573d6000803e3d6000fd5b505050506040513d601f19601f82011682018060405250810190610264919061119e565b9392505050565b60015473ffffffffffffffffffffffffffffffffffffffff1633146102f1576040517f08c379a000000000000000000000000000000000000000000000000000000000815260206004820152601660248201527f4d7573742062652070726f706f736564206f776e65720000000000000000000060448201526064015b60405180910390fd5b60008054337fffffffffffffffffffffffff00000000000000000000000000000000000000008083168217845560018054909116905560405173ffffffffffffffffffffffffffffffffffffffff90921692909183917f8be0079c531659141344cd1fd0a4f28419497f9722a3daafe3b4186f6b6457e091a350565b600061037882610746565b600061038a6080840160608501610f28565b73ffffffffffffffffffffffffffffffffffffffff1614610561576040517f20487ded00000000000000000000000000000000000000000000000000000000815260009073ffffffffffffffffffffffffffffffffffffffff7f000000000000000000000000000000000000000000000000000000000000000016906320487ded9061041c9087908790600401611055565b602060405180830381865afa158015610439573d6000803e3d6000fd5b505050506040513d601f19601f8201168201806040525081019061045d919061119e565b90506104933330836104756080880160608901610f28565b73ffffffffffffffffffffffffffffffffffffffff1692919061096c565b6104a36080840160608501610f28565b6040517f095ea7b300000000000000000000000000000000000000000000000000000000815273ffffffffffffffffffffffffffffffffffffffff7f00000000000000000000000000000000000000000000000000000000000000008116600483015260248201849052919091169063095ea7b3906044016020604051808303816000875af115801561053a573d6000803e3d6000fd5b505050506040513d601f19601f8201168201806040525081019061055e91906111b7565b50505b61056e60408301836111d9565b600081811061057f5761057f611241565b6105959260206040909202019081019150610f28565b73ffffffffffffffffffffffffffffffffffffffff166323b872dd33306105bf60408701876111d9565b60008181106105d0576105d0611241565b6040805160e088901b7fffffffff0000000000000000000000000000000000000000000000000000000016815273ffffffffffffffffffffffffffffffffffffffff96871660048201529490951660248501529093020160200135604482015260640190506020604051808303816000875af1158015610654573d6000803e3d6000fd5b505050506040513d601f19601f8201168201806040525081019061067891906111b7565b506040517f96f4e9f900000000000000000000000000000000000000000000000000000000815273ffffffffffffffffffffffffffffffffffffffff7f000000000000000000000000000000000000000000000000000000000000000016906396f4e9f99034906106ef9087908790600401611055565b60206040518083038185885af115801561070d573d6000803e3d6000fd5b50505050506040513d601f19601f82011682018060405250810190610264919061119e565b61073a610a07565b61074381610a8a565b50565b61075360408201826111d9565b905060011415806107e3575073ffffffffffffffffffffffffffffffffffffffff7f0000000000000000000000000000000000000000000000000000000000000000166107a360408301836111d9565b60008181106107b4576107b4611241565b6107ca9260206040909202019081019150610f28565b73ffffffffffffffffffffffffffffffffffffffff1614155b1561081a576040517fc1ab6dc100000000000000000000000000000000000000000000000000000000815260040160405180910390fd5b60006108296020830183611270565b90501115610863576040517f27eb6f2d00000000000000000000000000000000000000000000000000000000815260040160405180910390fd5b6108706080820182611270565b159050806108d557507f97a657c9000000000000000000000000000000000000000000000000000000006108a76080830183611270565b6108b0916112d5565b7fffffffff000000000000000000000000000000000000000000000000000000001614155b1561090c576040517f6633e5f600000000000000000000000000000000000000000000000000000000815260040160405180910390fd5b6109196080820182611270565b61092791600490829061131d565b8101906109349190611347565b5115610743576040517f6633e5f600000000000000000000000000000000000000000000000000000000815260040160405180910390fd5b6040805173ffffffffffffffffffffffffffffffffffffffff85811660248301528416604482015260648082018490528251808303909101815260849091019091526020810180517bffffffffffffffffffffffffffffffffffffffffffffffffffffffff167f23b872dd00000000000000000000000000000000000000000000000000000000179052610a01908590610b7f565b50505050565b60005473ffffffffffffffffffffffffffffffffffffffff163314610a88576040517f08c379a000000000000000000000000000000000000000000000000000000000815260206004820152601660248201527f4f6e6c792063616c6c61626c65206279206f776e65720000000000000000000060448201526064016102e8565b565b3373ffffffffffffffffffffffffffffffffffffffff821603610b09576040517f08c379a000000000000000000000000000000000000000000000000000000000815260206004820152601760248201527f43616e6e6f74207472616e7366657220746f2073656c6600000000000000000060448201526064016102e8565b600180547fffffffffffffffffffffffff00000000000000000000000000000000000000001673ffffffffffffffffffffffffffffffffffffffff83811691821790925560008054604051929316917fed8889f560326eb138920d842192f0eb3dd22b4f139c87a2c57538e05bae12789190a350565b6000610be1826040518060400160405280602081526020017f5361666545524332303a206c6f772d6c6576656c2063616c6c206661696c65648152508573ffffffffffffffffffffffffffffffffffffffff16610c909092919063ffffffff16565b805190915015610c8b5780806020019051810190610bff91906111b7565b610c8b576040517f08c379a000000000000000000000000000000000000000000000000000000000815260206004820152602a60248201527f5361666545524332303a204552433230206f7065726174696f6e20646964206e60448201527f6f7420737563636565640000000000000000000000000000000000000000000060648201526084016102e8565b505050565b6060610c9f8484600085610ca7565b949350505050565b606082471015610d39576040517f08c379a000000000000000000000000000000000000000000000000000000000815260206004820152602660248201527f416464726573733a20696e73756666696369656e742062616c616e636520666f60448201527f722063616c6c000000000000000000000000000000000000000000000000000060648201526084016102e8565b6000808673ffffffffffffffffffffffffffffffffffffffff168587604051610d6291906113d4565b60006040518083038185875af1925050503d8060008114610d9f576040519150601f19603f3d011682016040523d82523d6000602084013e610da4565b606091505b5091509150610db587838387610dc0565b979650505050505050565b60608315610e56578251600003610e4f5773ffffffffffffffffffffffffffffffffffffffff85163b610e4f576040517f08c379a000000000000000000000000000000000000000000000000000000000815260206004820152601d60248201527f416464726573733a2063616c6c20746f206e6f6e2d636f6e747261637400000060448201526064016102e8565b5081610c9f565b610c9f8383815115610e6b5781518083602001fd5b806040517f08c379a00000000000000000000000000000000000000000000000000000000081526004016102e891906113f0565b60008060408385031215610eb257600080fd5b823567ffffffffffffffff8082168214610ecb57600080fd5b90925060208401359080821115610ee157600080fd5b50830160a08186031215610ef457600080fd5b809150509250929050565b803573ffffffffffffffffffffffffffffffffffffffff81168114610f2357600080fd5b919050565b600060208284031215610f3a57600080fd5b61026482610eff565b60008083357fffffffffffffffffffffffffffffffffffffffffffffffffffffffffffffffe1843603018112610f7857600080fd5b830160208101925035905067ffffffffffffffff811115610f9857600080fd5b803603821315610fa757600080fd5b9250929050565b8183528181602085013750600060208284010152600060207fffffffffffffffffffffffffffffffffffffffffffffffffffffffffffffffe0601f840116840101905092915050565b8183526000602080850194508260005b8581101561104a5773ffffffffffffffffffffffffffffffffffffffff61102d83610eff565b168752818301358388015260409687019690910190600101611007565b509495945050505050565b600067ffffffffffffffff8085168352604060208401526110768485610f43565b60a0604086015261108b60e086018284610fae565b91505061109b6020860186610f43565b7fffffffffffffffffffffffffffffffffffffffffffffffffffffffffffffffc0808785030160608801526110d1848385610fae565b9350604088013592507fffffffffffffffffffffffffffffffffffffffffffffffffffffffffffffffe188360301831261110a57600080fd5b6020928801928301923591508482111561112357600080fd5b8160061b360383131561113557600080fd5b8087850301608088015261114a848385610ff7565b945061115860608901610eff565b73ffffffffffffffffffffffffffffffffffffffff811660a089015293506111836080890189610f43565b94509250808786030160c08801525050610db5838383610fae565b6000602082840312156111b057600080fd5b5051919050565b6000602082840312156111c957600080fd5b8151801515811461026457600080fd5b60008083357fffffffffffffffffffffffffffffffffffffffffffffffffffffffffffffffe184360301811261120e57600080fd5b83018035915067ffffffffffffffff82111561122957600080fd5b6020019150600681901b3603821315610fa757600080fd5b7f4e487b7100000000000000000000000000000000000000000000000000000000600052603260045260246000fd5b60008083357fffffffffffffffffffffffffffffffffffffffffffffffffffffffffffffffe18436030181126112a557600080fd5b83018035915067ffffffffffffffff8211156112c057600080fd5b602001915036819003821315610fa757600080fd5b7fffffffff0000000000000000000000000000000000000000000000000000000081358181169160048510156113155780818660040360031b1b83161692505b505092915050565b6000808585111561132d57600080fd5b8386111561133a57600080fd5b5050820193919092039150565b60006020828403121561135957600080fd5b6040516020810181811067ffffffffffffffff821117156113a3577f4e487b7100000000000000000000000000000000000000000000000000000000600052604160045260246000fd5b6040529135825250919050565b60005b838110156113cb5781810151838201526020016113b3565b50506000910152565b600082516113e68184602087016113b0565b9190910192915050565b602081526000825180602084015261140f8160408501602087016113b0565b601f017fffffffffffffffffffffffffffffffffffffffffffffffffffffffffffffffe016919091016040019291505056fea164736f6c6343000815000a",
    "linkReferences": {}
  },
  "methodIdentifiers": {
    "acceptOwnership()": "79ba5097",
    "ccipSend(uint64,(bytes,bytes,(address,uint256)[],address,bytes))": "96f4e9f9",
    "getFee(uint64,(bytes,bytes,(address,uint256)[],address,bytes))": "20487ded",
    "getRouter()": "b0f479a1",
    "getToken()": "21df0da7",
    "owner()": "8da5cb5b",
    "transferOwnership(address)": "f2fde38b"
  },
  "id": 108
}