{
  "abi": [
    {
      "anonymous": false,
      "inputs": [
        {
          "components": [
            {
              "internalType": "uint16",
              "name": "maxConsumersPerSubscription",
              "type": "uint16"
            },
            {
              "internalType": "uint72",
              "name": "adminFee",
              "type": "uint72"
            },
            {
              "internalType": "bytes4",
              "name": "handleOracleFulfillmentSelector",
              "type": "bytes4"
            },
            {
              "internalType": "uint16",
              "name": "gasForCallExactCheck",
              "type": "uint16"
            },
            {
              "internalType": "uint32[]",
              "name": "maxCallbackGasLimits",
              "type": "uint32[]"
            }
          ],
          "indexed": false,
          "internalType": "struct FunctionsV1EventsMock.Config",
          "name": "param1",
          "type": "tuple"
        }
      ],
      "name": "ConfigUpdated",
      "type": "event"
    },
    {
      "anonymous": false,
      "inputs": [
        {
          "indexed": false,
          "internalType": "bytes32",
          "name": "proposedContractSetId",
          "type": "bytes32"
        },
        {
          "indexed": false,
          "internalType": "address",
          "name": "proposedContractSetFromAddress",
          "type": "address"
        },
        {
          "indexed": false,
          "internalType": "address",
          "name": "proposedContractSetToAddress",
          "type": "address"
        }
      ],
      "name": "ContractProposed",
      "type": "event"
    },
    {
      "anonymous": false,
      "inputs": [
        {
          "indexed": false,
          "internalType": "bytes32",
          "name": "id",
          "type": "bytes32"
        },
        {
          "indexed": false,
          "internalType": "address",
          "name": "from",
          "type": "address"
        },
        {
          "indexed": false,
          "internalType": "address",
          "name": "to",
          "type": "address"
        }
      ],
      "name": "ContractUpdated",
      "type": "event"
    },
    {
      "anonymous": false,
      "inputs": [
        {
          "indexed": false,
          "internalType": "address",
          "name": "to",
          "type": "address"
        },
        {
          "indexed": false,
          "internalType": "uint256",
          "name": "amount",
          "type": "uint256"
        }
      ],
      "name": "FundsRecovered",
      "type": "event"
    },
    {
      "anonymous": false,
      "inputs": [
        {
          "indexed": true,
          "internalType": "address",
          "name": "from",
          "type": "address"
        },
        {
          "indexed": true,
          "internalType": "address",
          "name": "to",
          "type": "address"
        }
      ],
      "name": "OwnershipTransferRequested",
      "type": "event"
    },
    {
      "anonymous": false,
      "inputs": [
        {
          "indexed": true,
          "internalType": "address",
          "name": "from",
          "type": "address"
        },
        {
          "indexed": true,
          "internalType": "address",
          "name": "to",
          "type": "address"
        }
      ],
      "name": "OwnershipTransferred",
      "type": "event"
    },
    {
      "anonymous": false,
      "inputs": [
        {
          "indexed": false,
          "internalType": "address",
          "name": "account",
          "type": "address"
        }
      ],
      "name": "Paused",
      "type": "event"
    },
    {
      "anonymous": false,
      "inputs": [
        {
          "indexed": true,
          "internalType": "bytes32",
          "name": "requestId",
          "type": "bytes32"
        },
        {
          "indexed": false,
          "internalType": "address",
          "name": "coordinator",
          "type": "address"
        },
        {
          "indexed": false,
          "internalType": "address",
          "name": "transmitter",
          "type": "address"
        },
        {
          "indexed": false,
          "internalType": "uint8",
          "name": "resultCode",
          "type": "uint8"
        }
      ],
      "name": "RequestNotProcessed",
      "type": "event"
    },
    {
      "anonymous": false,
      "inputs": [
        {
          "indexed": true,
          "internalType": "bytes32",
          "name": "requestId",
          "type": "bytes32"
        },
        {
          "indexed": true,
          "internalType": "uint64",
          "name": "subscriptionId",
          "type": "uint64"
        },
        {
          "indexed": false,
          "internalType": "uint96",
          "name": "totalCostJuels",
          "type": "uint96"
        },
        {
          "indexed": false,
          "internalType": "address",
          "name": "transmitter",
          "type": "address"
        },
        {
          "indexed": false,
          "internalType": "uint8",
          "name": "resultCode",
          "type": "uint8"
        },
        {
          "indexed": false,
          "internalType": "bytes",
          "name": "response",
          "type": "bytes"
        },
        {
          "indexed": false,
          "internalType": "bytes",
          "name": "err",
          "type": "bytes"
        },
        {
          "indexed": false,
          "internalType": "bytes",
          "name": "callbackReturnData",
          "type": "bytes"
        }
      ],
      "name": "RequestProcessed",
      "type": "event"
    },
    {
      "anonymous": false,
      "inputs": [
        {
          "indexed": true,
          "internalType": "bytes32",
          "name": "requestId",
          "type": "bytes32"
        },
        {
          "indexed": true,
          "internalType": "bytes32",
          "name": "donId",
          "type": "bytes32"
        },
        {
          "indexed": true,
          "internalType": "uint64",
          "name": "subscriptionId",
          "type": "uint64"
        },
        {
          "indexed": false,
          "internalType": "address",
          "name": "subscriptionOwner",
          "type": "address"
        },
        {
          "indexed": false,
          "internalType": "address",
          "name": "requestingContract",
          "type": "address"
        },
        {
          "indexed": false,
          "internalType": "address",
          "name": "requestInitiator",
          "type": "address"
        },
        {
          "indexed": false,
          "internalType": "bytes",
          "name": "data",
          "type": "bytes"
        },
        {
          "indexed": false,
          "internalType": "uint16",
          "name": "dataVersion",
          "type": "uint16"
        },
        {
          "indexed": false,
          "internalType": "uint32",
          "name": "callbackGasLimit",
          "type": "uint32"
        },
        {
          "indexed": false,
          "internalType": "uint96",
          "name": "estimatedTotalCostJuels",
          "type": "uint96"
        }
      ],
      "name": "RequestStart",
      "type": "event"
    },
    {
      "anonymous": false,
      "inputs": [
        {
          "indexed": true,
          "internalType": "bytes32",
          "name": "requestId",
          "type": "bytes32"
        }
      ],
      "name": "RequestTimedOut",
      "type": "event"
    },
    {
      "anonymous": false,
      "inputs": [
        {
          "indexed": true,
          "internalType": "uint64",
          "name": "subscriptionId",
          "type": "uint64"
        },
        {
          "indexed": false,
          "internalType": "address",
          "name": "fundsRecipient",
          "type": "address"
        },
        {
          "indexed": false,
          "internalType": "uint256",
          "name": "fundsAmount",
          "type": "uint256"
        }
      ],
      "name": "SubscriptionCanceled",
      "type": "event"
    },
    {
      "anonymous": false,
      "inputs": [
        {
          "indexed": true,
          "internalType": "uint64",
          "name": "subscriptionId",
          "type": "uint64"
        },
        {
          "indexed": false,
          "internalType": "address",
          "name": "consumer",
          "type": "address"
        }
      ],
      "name": "SubscriptionConsumerAdded",
      "type": "event"
    },
    {
      "anonymous": false,
      "inputs": [
        {
          "indexed": true,
          "internalType": "uint64",
          "name": "subscriptionId",
          "type": "uint64"
        },
        {
          "indexed": false,
          "internalType": "address",
          "name": "consumer",
          "type": "address"
        }
      ],
      "name": "SubscriptionConsumerRemoved",
      "type": "event"
    },
    {
      "anonymous": false,
      "inputs": [
        {
          "indexed": true,
          "internalType": "uint64",
          "name": "subscriptionId",
          "type": "uint64"
        },
        {
          "indexed": false,
          "internalType": "address",
          "name": "owner",
          "type": "address"
        }
      ],
      "name": "SubscriptionCreated",
      "type": "event"
    },
    {
      "anonymous": false,
      "inputs": [
        {
          "indexed": true,
          "internalType": "uint64",
          "name": "subscriptionId",
          "type": "uint64"
        },
        {
          "indexed": false,
          "internalType": "uint256",
          "name": "oldBalance",
          "type": "uint256"
        },
        {
          "indexed": false,
          "internalType": "uint256",
          "name": "newBalance",
          "type": "uint256"
        }
      ],
      "name": "SubscriptionFunded",
      "type": "event"
    },
    {
      "anonymous": false,
      "inputs": [
        {
          "indexed": true,
          "internalType": "uint64",
          "name": "subscriptionId",
          "type": "uint64"
        },
        {
          "indexed": false,
          "internalType": "address",
          "name": "from",
          "type": "address"
        },
        {
          "indexed": false,
          "internalType": "address",
          "name": "to",
          "type": "address"
        }
      ],
      "name": "SubscriptionOwnerTransferRequested",
      "type": "event"
    },
    {
      "anonymous": false,
      "inputs": [
        {
          "indexed": true,
          "internalType": "uint64",
          "name": "subscriptionId",
          "type": "uint64"
        },
        {
          "indexed": false,
          "internalType": "address",
          "name": "from",
          "type": "address"
        },
        {
          "indexed": false,
          "internalType": "address",
          "name": "to",
          "type": "address"
        }
      ],
      "name": "SubscriptionOwnerTransferred",
      "type": "event"
    },
    {
      "anonymous": false,
      "inputs": [
        {
          "indexed": false,
          "internalType": "address",
          "name": "account",
          "type": "address"
        }
      ],
      "name": "Unpaused",
      "type": "event"
    },
    {
      "inputs": [
        {
          "components": [
            {
              "internalType": "uint16",
              "name": "maxConsumersPerSubscription",
              "type": "uint16"
            },
            {
              "internalType": "uint72",
              "name": "adminFee",
              "type": "uint72"
            },
            {
              "internalType": "bytes4",
              "name": "handleOracleFulfillmentSelector",
              "type": "bytes4"
            },
            {
              "internalType": "uint16",
              "name": "gasForCallExactCheck",
              "type": "uint16"
            },
            {
              "internalType": "uint32[]",
              "name": "maxCallbackGasLimits",
              "type": "uint32[]"
            }
          ],
          "internalType": "struct FunctionsV1EventsMock.Config",
          "name": "param1",
          "type": "tuple"
        }
      ],
      "name": "emitConfigUpdated",
      "outputs": [],
      "stateMutability": "nonpayable",
      "type": "function"
    },
    {
      "inputs": [
        {
          "internalType": "bytes32",
          "name": "proposedContractSetId",
          "type": "bytes32"
        },
        {
          "internalType": "address",
          "name": "proposedContractSetFromAddress",
          "type": "address"
        },
        {
          "internalType": "address",
          "name": "proposedContractSetToAddress",
          "type": "address"
        }
      ],
      "name": "emitContractProposed",
      "outputs": [],
      "stateMutability": "nonpayable",
      "type": "function"
    },
    {
      "inputs": [
        {
          "internalType": "bytes32",
          "name": "id",
          "type": "bytes32"
        },
        {
          "internalType": "address",
          "name": "from",
          "type": "address"
        },
        {
          "internalType": "address",
          "name": "to",
          "type": "address"
        }
      ],
      "name": "emitContractUpdated",
      "outputs": [],
      "stateMutability": "nonpayable",
      "type": "function"
    },
    {
      "inputs": [
        {
          "internalType": "address",
          "name": "to",
          "type": "address"
        },
        {
          "internalType": "uint256",
          "name": "amount",
          "type": "uint256"
        }
      ],
      "name": "emitFundsRecovered",
      "outputs": [],
      "stateMutability": "nonpayable",
      "type": "function"
    },
    {
      "inputs": [
        {
          "internalType": "address",
          "name": "from",
          "type": "address"
        },
        {
          "internalType": "address",
          "name": "to",
          "type": "address"
        }
      ],
      "name": "emitOwnershipTransferRequested",
      "outputs": [],
      "stateMutability": "nonpayable",
      "type": "function"
    },
    {
      "inputs": [
        {
          "internalType": "address",
          "name": "from",
          "type": "address"
        },
        {
          "internalType": "address",
          "name": "to",
          "type": "address"
        }
      ],
      "name": "emitOwnershipTransferred",
      "outputs": [],
      "stateMutability": "nonpayable",
      "type": "function"
    },
    {
      "inputs": [
        {
          "internalType": "address",
          "name": "account",
          "type": "address"
        }
      ],
      "name": "emitPaused",
      "outputs": [],
      "stateMutability": "nonpayable",
      "type": "function"
    },
    {
      "inputs": [
        {
          "internalType": "bytes32",
          "name": "requestId",
          "type": "bytes32"
        },
        {
          "internalType": "address",
          "name": "coordinator",
          "type": "address"
        },
        {
          "internalType": "address",
          "name": "transmitter",
          "type": "address"
        },
        {
          "internalType": "uint8",
          "name": "resultCode",
          "type": "uint8"
        }
      ],
      "name": "emitRequestNotProcessed",
      "outputs": [],
      "stateMutability": "nonpayable",
      "type": "function"
    },
    {
      "inputs": [
        {
          "internalType": "bytes32",
          "name": "requestId",
          "type": "bytes32"
        },
        {
          "internalType": "uint64",
          "name": "subscriptionId",
          "type": "uint64"
        },
        {
          "internalType": "uint96",
          "name": "totalCostJuels",
          "type": "uint96"
        },
        {
          "internalType": "address",
          "name": "transmitter",
          "type": "address"
        },
        {
          "internalType": "uint8",
          "name": "resultCode",
          "type": "uint8"
        },
        {
          "internalType": "bytes",
          "name": "response",
          "type": "bytes"
        },
        {
          "internalType": "bytes",
          "name": "err",
          "type": "bytes"
        },
        {
          "internalType": "bytes",
          "name": "callbackReturnData",
          "type": "bytes"
        }
      ],
      "name": "emitRequestProcessed",
      "outputs": [],
      "stateMutability": "nonpayable",
      "type": "function"
    },
    {
      "inputs": [
        {
          "internalType": "bytes32",
          "name": "requestId",
          "type": "bytes32"
        },
        {
          "internalType": "bytes32",
          "name": "donId",
          "type": "bytes32"
        },
        {
          "internalType": "uint64",
          "name": "subscriptionId",
          "type": "uint64"
        },
        {
          "internalType": "address",
          "name": "subscriptionOwner",
          "type": "address"
        },
        {
          "internalType": "address",
          "name": "requestingContract",
          "type": "address"
        },
        {
          "internalType": "address",
          "name": "requestInitiator",
          "type": "address"
        },
        {
          "internalType": "bytes",
          "name": "data",
          "type": "bytes"
        },
        {
          "internalType": "uint16",
          "name": "dataVersion",
          "type": "uint16"
        },
        {
          "internalType": "uint32",
          "name": "callbackGasLimit",
          "type": "uint32"
        },
        {
          "internalType": "uint96",
          "name": "estimatedTotalCostJuels",
          "type": "uint96"
        }
      ],
      "name": "emitRequestStart",
      "outputs": [],
      "stateMutability": "nonpayable",
      "type": "function"
    },
    {
      "inputs": [
        {
          "internalType": "bytes32",
          "name": "requestId",
          "type": "bytes32"
        }
      ],
      "name": "emitRequestTimedOut",
      "outputs": [],
      "stateMutability": "nonpayable",
      "type": "function"
    },
    {
      "inputs": [
        {
          "internalType": "uint64",
          "name": "subscriptionId",
          "type": "uint64"
        },
        {
          "internalType": "address",
          "name": "fundsRecipient",
          "type": "address"
        },
        {
          "internalType": "uint256",
          "name": "fundsAmount",
          "type": "uint256"
        }
      ],
      "name": "emitSubscriptionCanceled",
      "outputs": [],
      "stateMutability": "nonpayable",
      "type": "function"
    },
    {
      "inputs": [
        {
          "internalType": "uint64",
          "name": "subscriptionId",
          "type": "uint64"
        },
        {
          "internalType": "address",
          "name": "consumer",
          "type": "address"
        }
      ],
      "name": "emitSubscriptionConsumerAdded",
      "outputs": [],
      "stateMutability": "nonpayable",
      "type": "function"
    },
    {
      "inputs": [
        {
          "internalType": "uint64",
          "name": "subscriptionId",
          "type": "uint64"
        },
        {
          "internalType": "address",
          "name": "consumer",
          "type": "address"
        }
      ],
      "name": "emitSubscriptionConsumerRemoved",
      "outputs": [],
      "stateMutability": "nonpayable",
      "type": "function"
    },
    {
      "inputs": [
        {
          "internalType": "uint64",
          "name": "subscriptionId",
          "type": "uint64"
        },
        {
          "internalType": "address",
          "name": "owner",
          "type": "address"
        }
      ],
      "name": "emitSubscriptionCreated",
      "outputs": [],
      "stateMutability": "nonpayable",
      "type": "function"
    },
    {
      "inputs": [
        {
          "internalType": "uint64",
          "name": "subscriptionId",
          "type": "uint64"
        },
        {
          "internalType": "uint256",
          "name": "oldBalance",
          "type": "uint256"
        },
        {
          "internalType": "uint256",
          "name": "newBalance",
          "type": "uint256"
        }
      ],
      "name": "emitSubscriptionFunded",
      "outputs": [],
      "stateMutability": "nonpayable",
      "type": "function"
    },
    {
      "inputs": [
        {
          "internalType": "uint64",
          "name": "subscriptionId",
          "type": "uint64"
        },
        {
          "internalType": "address",
          "name": "from",
          "type": "address"
        },
        {
          "internalType": "address",
          "name": "to",
          "type": "address"
        }
      ],
      "name": "emitSubscriptionOwnerTransferRequested",
      "outputs": [],
      "stateMutability": "nonpayable",
      "type": "function"
    },
    {
      "inputs": [
        {
          "internalType": "uint64",
          "name": "subscriptionId",
          "type": "uint64"
        },
        {
          "internalType": "address",
          "name": "from",
          "type": "address"
        },
        {
          "internalType": "address",
          "name": "to",
          "type": "address"
        }
      ],
      "name": "emitSubscriptionOwnerTransferred",
      "outputs": [],
      "stateMutability": "nonpayable",
      "type": "function"
    },
    {
      "inputs": [
        {
          "internalType": "address",
          "name": "account",
          "type": "address"
        }
      ],
      "name": "emitUnpaused",
      "outputs": [],
      "stateMutability": "nonpayable",
      "type": "function"
    }
  ],
  "bytecode": {
    "object": "0x608060405234801561001057600080fd5b506111a8806100206000396000f3fe608060405234801561001057600080fd5b50600436106101515760003560e01c8063a5257226116100cd578063e0f6eff111610081578063e9bfcd1811610066578063e9bfcd1814610288578063f7420bc21461029b578063fa7dd96b146102ae57600080fd5b8063e0f6eff114610262578063e2cab57b1461027557600080fd5b8063b24a02cb116100b2578063b24a02cb14610229578063ce150ef11461023c578063dde69b3f1461024f57600080fd5b8063a525722614610203578063b019b4e81461021657600080fd5b8063689300ea116101245780637e1b44c0116101095780637e1b44c0146101ca57806389d38eb4146101dd5780639ec3ce4b146101f057600080fd5b8063689300ea146101a45780637be5c756146101b757600080fd5b8063027d7d22146101565780633f70afb61461016b5780634bf6a80d1461017e578063675b924414610191575b600080fd5b610169610164366004610919565b6102c1565b005b61016961017936600461097e565b610323565b61016961018c3660046109b1565b61037d565b61016961019f36600461097e565b6103df565b6101696101b23660046109f4565b610431565b6101696101c5366004610a1e565b610484565b6101696101d8366004610a40565b6104d1565b6101696101eb366004610bd0565b6104ff565b6101696101fe366004610a1e565b61055b565b61016961021136600461097e565b6105a1565b610169610224366004610c97565b6105f3565b610169610237366004610cb3565b610651565b61016961024a366004610cd8565b6106b1565b61016961025d366004610dad565b610708565b6101696102703660046109b1565b610760565b610169610283366004610de9565b6107b9565b610169610296366004610cb3565b6107fb565b6101696102a9366004610c97565b610852565b6101696102bc366004610ea3565b6108b0565b6040805173ffffffffffffffffffffffffffffffffffffffff85811682528416602082015260ff831681830152905185917f1a90e9a50793db2e394cf581e7c522e10c358a81e70acf6b5a0edd620c08dee1919081900360600190a250505050565b60405173ffffffffffffffffffffffffffffffffffffffff8216815267ffffffffffffffff8316907f464722b4166576d3dcbba877b999bc35cf911f4eaf434b7eba68fa113951d0bf906020015b60405180910390a25050565b6040805173ffffffffffffffffffffffffffffffffffffffff80851682528316602082015267ffffffffffffffff8516917f6f1dc65165ffffedfd8e507b4a0f1fcfdada045ed11f6c26ba27cedfe87802f091015b60405180910390a2505050565b60405173ffffffffffffffffffffffffffffffffffffffff8216815267ffffffffffffffff8316907f43dc749a04ac8fb825cbd514f7c0e13f13bc6f2ee66043b76629d51776cff8e090602001610371565b6040805173ffffffffffffffffffffffffffffffffffffffff84168152602081018390527f59bfc682b673f8cbf945f1e454df9334834abf7dfe7f92237ca29ecb9b436600910160405180910390a15050565b60405173ffffffffffffffffffffffffffffffffffffffff821681527f62e78cea01bee320cd4e420270b5ea74000d11b0c9f74754ebdbfc544b05a258906020015b60405180910390a150565b60405181907ff1ca1e9147be737b04a2b018a79405f687a97de8dd8a2559bbe62357343af41490600090a250565b8767ffffffffffffffff16898b7ff67aec45c9a7ede407974a3e0c3a743dffeab99ee3f2d4c9a8144c2ebf2c7ec98a8a8a8a8a8a8a6040516105479796959493929190610fef565b60405180910390a450505050505050505050565b60405173ffffffffffffffffffffffffffffffffffffffff821681527f5db9ee0a495bf2e6ff9c91a7834c1ba4fdd244a5e8aa4e537bd38aeae4b073aa906020016104c6565b60405173ffffffffffffffffffffffffffffffffffffffff8216815267ffffffffffffffff8316907f182bff9831466789164ca77075fffd84916d35a8180ba73c27e45634549b445b90602001610371565b8073ffffffffffffffffffffffffffffffffffffffff168273ffffffffffffffffffffffffffffffffffffffff167f8be0079c531659141344cd1fd0a4f28419497f9722a3daafe3b4186f6b6457e060405160405180910390a35050565b6040805184815273ffffffffffffffffffffffffffffffffffffffff80851660208301528316918101919091527f8b052f0f4bf82fede7daffea71592b29d5ef86af1f3c7daaa0345dbb2f52f481906060015b60405180910390a1505050565b8667ffffffffffffffff16887f64778f26c70b60a8d7e29e2451b3844302d959448401c0535b768ed88c6b505e8888888888886040516106f696959493929190611067565b60405180910390a35050505050505050565b6040805173ffffffffffffffffffffffffffffffffffffffff841681526020810183905267ffffffffffffffff8516917fe8ed5b475a5b5987aa9165e8731bb78043f39eee32ec5a1169a89e27fcd4981591016103d2565b6040805173ffffffffffffffffffffffffffffffffffffffff80851682528316602082015267ffffffffffffffff8516917f69436ea6df009049404f564eff6622cd00522b0bd6a89efd9e52a355c4a879be91016103d2565b604080518381526020810183905267ffffffffffffffff8516917fd39ec07f4e209f627a4c427971473820dc129761ba28de8906bd56f57101d4f891016103d2565b6040805184815273ffffffffffffffffffffffffffffffffffffffff80851660208301528316918101919091527ff8a6175bca1ba37d682089187edc5e20a859989727f10ca6bd9a5bc0de8caf94906060016106a4565b8073ffffffffffffffffffffffffffffffffffffffff168273ffffffffffffffffffffffffffffffffffffffff167fed8889f560326eb138920d842192f0eb3dd22b4f139c87a2c57538e05bae127860405160405180910390a35050565b7f049ce2e6e1420eb4b07b425e90129186833eb346bda40b37d5d921aad482f71c816040516104c691906110e6565b803573ffffffffffffffffffffffffffffffffffffffff8116811461090357600080fd5b919050565b803560ff8116811461090357600080fd5b6000806000806080858703121561092f57600080fd5b8435935061093f602086016108df565b925061094d604086016108df565b915061095b60608601610908565b905092959194509250565b803567ffffffffffffffff8116811461090357600080fd5b6000806040838503121561099157600080fd5b61099a83610966565b91506109a8602084016108df565b90509250929050565b6000806000606084860312156109c657600080fd5b6109cf84610966565b92506109dd602085016108df565b91506109eb604085016108df565b90509250925092565b60008060408385031215610a0757600080fd5b610a10836108df565b946020939093013593505050565b600060208284031215610a3057600080fd5b610a39826108df565b9392505050565b600060208284031215610a5257600080fd5b5035919050565b7f4e487b7100000000000000000000000000000000000000000000000000000000600052604160045260246000fd5b60405160a0810167ffffffffffffffff81118282101715610aab57610aab610a59565b60405290565b604051601f82017fffffffffffffffffffffffffffffffffffffffffffffffffffffffffffffffe016810167ffffffffffffffff81118282101715610af857610af8610a59565b604052919050565b600082601f830112610b1157600080fd5b813567ffffffffffffffff811115610b2b57610b2b610a59565b610b5c60207fffffffffffffffffffffffffffffffffffffffffffffffffffffffffffffffe0601f84011601610ab1565b818152846020838601011115610b7157600080fd5b816020850160208301376000918101602001919091529392505050565b803561ffff8116811461090357600080fd5b803563ffffffff8116811461090357600080fd5b80356bffffffffffffffffffffffff8116811461090357600080fd5b6000806000806000806000806000806101408b8d031215610bf057600080fd5b8a35995060208b01359850610c0760408c01610966565b9750610c1560608c016108df565b9650610c2360808c016108df565b9550610c3160a08c016108df565b945060c08b013567ffffffffffffffff811115610c4d57600080fd5b610c598d828e01610b00565b945050610c6860e08c01610b8e565b9250610c776101008c01610ba0565b9150610c866101208c01610bb4565b90509295989b9194979a5092959850565b60008060408385031215610caa57600080fd5b61099a836108df565b600080600060608486031215610cc857600080fd5b833592506109dd602085016108df565b600080600080600080600080610100898b031215610cf557600080fd5b88359750610d0560208a01610966565b9650610d1360408a01610bb4565b9550610d2160608a016108df565b9450610d2f60808a01610908565b935060a089013567ffffffffffffffff80821115610d4c57600080fd5b610d588c838d01610b00565b945060c08b0135915080821115610d6e57600080fd5b610d7a8c838d01610b00565b935060e08b0135915080821115610d9057600080fd5b50610d9d8b828c01610b00565b9150509295985092959890939650565b600080600060608486031215610dc257600080fd5b610dcb84610966565b9250610dd9602085016108df565b9150604084013590509250925092565b600080600060608486031215610dfe57600080fd5b610e0784610966565b95602085013595506040909401359392505050565b600082601f830112610e2d57600080fd5b8135602067ffffffffffffffff821115610e4957610e49610a59565b8160051b610e58828201610ab1565b9283528481018201928281019087851115610e7257600080fd5b83870192505b84831015610e9857610e8983610ba0565b82529183019190830190610e78565b979650505050505050565b600060208284031215610eb557600080fd5b813567ffffffffffffffff80821115610ecd57600080fd5b9083019060a08286031215610ee157600080fd5b610ee9610a88565b610ef283610b8e565b8152602083013568ffffffffffffffffff81168114610f1057600080fd5b602082015260408301357fffffffff0000000000000000000000000000000000000000000000000000000081168114610f4857600080fd5b6040820152610f5960608401610b8e565b6060820152608083013582811115610f7057600080fd5b610f7c87828601610e1c565b60808301525095945050505050565b6000815180845260005b81811015610fb157602081850181015186830182015201610f95565b5060006020828601015260207fffffffffffffffffffffffffffffffffffffffffffffffffffffffffffffffe0601f83011685010191505092915050565b600073ffffffffffffffffffffffffffffffffffffffff808a168352808916602084015280881660408401525060e0606083015261103060e0830187610f8b565b61ffff9590951660808301525063ffffffff9290921660a08301526bffffffffffffffffffffffff1660c090910152949350505050565b6bffffffffffffffffffffffff8716815273ffffffffffffffffffffffffffffffffffffffff8616602082015260ff8516604082015260c0606082015260006110b360c0830186610f8b565b82810360808401526110c58186610f8b565b905082810360a08401526110d98185610f8b565b9998505050505050505050565b6000602080835260c0830161ffff808651168386015268ffffffffffffffffff838701511660408601527fffffffff00000000000000000000000000000000000000000000000000000000604087015116606086015280606087015116608086015250608085015160a08086015281815180845260e0870191508483019350600092505b8083101561119057835163ffffffff16825292840192600192909201919084019061116a565b50969550505050505056fea164736f6c6343000815000a",
    "linkReferences": {}
  },
  "methodIdentifiers": {
    "emitConfigUpdated((uint16,uint72,bytes4,uint16,uint32[]))": "fa7dd96b",
    "emitContractProposed(bytes32,address,address)": "b24a02cb",
    "emitContractUpdated(bytes32,address,address)": "e9bfcd18",
    "emitFundsRecovered(address,uint256)": "689300ea",
    "emitOwnershipTransferRequested(address,address)": "f7420bc2",
    "emitOwnershipTransferred(address,address)": "b019b4e8",
    "emitPaused(address)": "7be5c756",
    "emitRequestNotProcessed(bytes32,address,address,uint8)": "027d7d22",
    "emitRequestProcessed(bytes32,uint64,uint96,address,uint8,bytes,bytes,bytes)": "ce150ef1",
    "emitRequestStart(bytes32,bytes32,uint64,address,address,address,bytes,uint16,uint32,uint96)": "89d38eb4",
    "emitRequestTimedOut(bytes32)": "7e1b44c0",
    "emitSubscriptionCanceled(uint64,address,uint256)": "dde69b3f",
    "emitSubscriptionConsumerAdded(uint64,address)": "675b9244",
    "emitSubscriptionConsumerRemoved(uint64,address)": "a5257226",
    "emitSubscriptionCreated(uint64,address)": "3f70afb6",
    "emitSubscriptionFunded(uint64,uint256,uint256)": "e2cab57b",
    "emitSubscriptionOwnerTransferRequested(uint64,address,address)": "e0f6eff1",
    "emitSubscriptionOwnerTransferred(uint64,address,address)": "4bf6a80d",
    "emitUnpaused(address)": "9ec3ce4b"
  },
  "id": 172
}