{
  "abi": [
    {
      "inputs": [
        {
          "internalType": "address",
          "name": "router",
          "type": "address"
        },
        {
          "components": [
            {
              "internalType": "uint32",
              "name": "fulfillmentGasPriceOverEstimationBP",
              "type": "uint32"
            },
            {
              "internalType": "uint32",
              "name": "feedStalenessSeconds",
              "type": "uint32"
            },
            {
              "internalType": "uint32",
              "name": "gasOverheadBeforeCallback",
              "type": "uint32"
            },
            {
              "internalType": "uint32",
              "name": "gasOverheadAfterCallback",
              "type": "uint32"
            },
            {
              "internalType": "uint32",
              "name": "requestTimeoutSeconds",
              "type": "uint32"
            },
            {
              "internalType": "uint72",
              "name": "donFee",
              "type": "uint72"
            },
            {
              "internalType": "uint16",
              "name": "maxSupportedRequestDataVersion",
              "type": "uint16"
            },
            {
              "internalType": "uint224",
              "name": "fallbackNativePerUnitLink",
              "type": "uint224"
            }
          ],
          "internalType": "struct FunctionsBilling.Config",
          "name": "config",
          "type": "tuple"
        },
        {
          "internalType": "address",
          "name": "linkToNativeFeed",
          "type": "address"
        }
      ],
      "stateMutability": "nonpayable",
      "type": "constructor"
    },
    {
      "inputs": [],
      "name": "EmptyPublicKey",
      "type": "error"
    },
    {
      "inputs": [],
      "name": "InconsistentReportData",
      "type": "error"
    },
    {
      "inputs": [],
      "name": "InsufficientBalance",
      "type": "error"
    },
    {
      "inputs": [],
      "name": "InvalidCalldata",
      "type": "error"
    },
    {
      "inputs": [
        {
          "internalType": "string",
          "name": "message",
          "type": "string"
        }
      ],
      "name": "InvalidConfig",
      "type": "error"
    },
    {
      "inputs": [
        {
          "internalType": "int256",
          "name": "linkWei",
          "type": "int256"
        }
      ],
      "name": "InvalidLinkWeiPrice",
      "type": "error"
    },
    {
      "inputs": [],
      "name": "InvalidSubscription",
      "type": "error"
    },
    {
      "inputs": [
        {
          "internalType": "address",
          "name": "owner",
          "type": "address"
        }
      ],
      "name": "MustBeSubOwner",
      "type": "error"
    },
    {
      "inputs": [],
      "name": "NoTransmittersSet",
      "type": "error"
    },
    {
      "inputs": [],
      "name": "OnlyCallableByRouter",
      "type": "error"
    },
    {
      "inputs": [],
      "name": "OnlyCallableByRouterOwner",
      "type": "error"
    },
    {
      "inputs": [],
      "name": "PaymentTooLarge",
      "type": "error"
    },
    {
      "inputs": [],
      "name": "ReportInvalid",
      "type": "error"
    },
    {
      "inputs": [],
      "name": "RouterMustBeSet",
      "type": "error"
    },
    {
      "inputs": [],
      "name": "UnauthorizedPublicKeyChange",
      "type": "error"
    },
    {
      "inputs": [],
      "name": "UnauthorizedSender",
      "type": "error"
    },
    {
      "inputs": [],
      "name": "UnsupportedRequestDataVersion",
      "type": "error"
    },
    {
      "anonymous": false,
      "inputs": [
        {
          "indexed": false,
          "internalType": "bytes32",
          "name": "requestId",
          "type": "bytes32"
        }
      ],
      "name": "CommitmentDeleted",
      "type": "event"
    },
    {
      "anonymous": false,
      "inputs": [
        {
          "indexed": false,
          "internalType": "uint32",
          "name": "previousConfigBlockNumber",
          "type": "uint32"
        },
        {
          "indexed": false,
          "internalType": "bytes32",
          "name": "configDigest",
          "type": "bytes32"
        },
        {
          "indexed": false,
          "internalType": "uint64",
          "name": "configCount",
          "type": "uint64"
        },
        {
          "indexed": false,
          "internalType": "address[]",
          "name": "signers",
          "type": "address[]"
        },
        {
          "indexed": false,
          "internalType": "address[]",
          "name": "transmitters",
          "type": "address[]"
        },
        {
          "indexed": false,
          "internalType": "uint8",
          "name": "f",
          "type": "uint8"
        },
        {
          "indexed": false,
          "internalType": "bytes",
          "name": "onchainConfig",
          "type": "bytes"
        },
        {
          "indexed": false,
          "internalType": "uint64",
          "name": "offchainConfigVersion",
          "type": "uint64"
        },
        {
          "indexed": false,
          "internalType": "bytes",
          "name": "offchainConfig",
          "type": "bytes"
        }
      ],
      "name": "ConfigSet",
      "type": "event"
    },
    {
      "anonymous": false,
      "inputs": [
        {
          "components": [
            {
              "internalType": "uint32",
              "name": "fulfillmentGasPriceOverEstimationBP",
              "type": "uint32"
            },
            {
              "internalType": "uint32",
              "name": "feedStalenessSeconds",
              "type": "uint32"
            },
            {
              "internalType": "uint32",
              "name": "gasOverheadBeforeCallback",
              "type": "uint32"
            },
            {
              "internalType": "uint32",
              "name": "gasOverheadAfterCallback",
              "type": "uint32"
            },
            {
              "internalType": "uint32",
              "name": "requestTimeoutSeconds",
              "type": "uint32"
            },
            {
              "internalType": "uint72",
              "name": "donFee",
              "type": "uint72"
            },
            {
              "internalType": "uint16",
              "name": "maxSupportedRequestDataVersion",
              "type": "uint16"
            },
            {
              "internalType": "uint224",
              "name": "fallbackNativePerUnitLink",
              "type": "uint224"
            }
          ],
          "indexed": false,
          "internalType": "struct FunctionsBilling.Config",
          "name": "config",
          "type": "tuple"
        }
      ],
      "name": "ConfigUpdated",
      "type": "event"
    },
    {
      "anonymous": false,
      "inputs": [
        {
          "indexed": true,
          "internalType": "bytes32",
          "name": "requestId",
          "type": "bytes32"
        },
        {
          "indexed": true,
          "internalType": "address",
          "name": "requestingContract",
          "type": "address"
        },
        {
          "indexed": false,
          "internalType": "address",
          "name": "requestInitiator",
          "type": "address"
        },
        {
          "indexed": false,
          "internalType": "uint64",
          "name": "subscriptionId",
          "type": "uint64"
        },
        {
          "indexed": false,
          "internalType": "address",
          "name": "subscriptionOwner",
          "type": "address"
        },
        {
          "indexed": false,
          "internalType": "bytes",
          "name": "data",
          "type": "bytes"
        },
        {
          "indexed": false,
          "internalType": "uint16",
          "name": "dataVersion",
          "type": "uint16"
        },
        {
          "indexed": false,
          "internalType": "bytes32",
          "name": "flags",
          "type": "bytes32"
        },
        {
          "indexed": false,
          "internalType": "uint64",
          "name": "callbackGasLimit",
          "type": "uint64"
        },
        {
          "components": [
            {
              "internalType": "bytes32",
              "name": "requestId",
              "type": "bytes32"
            },
            {
              "internalType": "address",
              "name": "coordinator",
              "type": "address"
            },
            {
              "internalType": "uint96",
              "name": "estimatedTotalCostJuels",
              "type": "uint96"
            },
            {
              "internalType": "address",
              "name": "client",
              "type": "address"
            },
            {
              "internalType": "uint64",
              "name": "subscriptionId",
              "type": "uint64"
            },
            {
              "internalType": "uint32",
              "name": "callbackGasLimit",
              "type": "uint32"
            },
            {
              "internalType": "uint72",
              "name": "adminFee",
              "type": "uint72"
            },
            {
              "internalType": "uint72",
              "name": "donFee",
              "type": "uint72"
            },
            {
              "internalType": "uint40",
              "name": "gasOverheadBeforeCallback",
              "type": "uint40"
            },
            {
              "internalType": "uint40",
              "name": "gasOverheadAfterCallback",
              "type": "uint40"
            },
            {
              "internalType": "uint32",
              "name": "timeoutTimestamp",
              "type": "uint32"
            }
          ],
          "indexed": false,
          "internalType": "struct FunctionsResponse.Commitment",
          "name": "commitment",
          "type": "tuple"
        }
      ],
      "name": "OracleRequest",
      "type": "event"
    },
    {
      "anonymous": false,
      "inputs": [
        {
          "indexed": true,
          "internalType": "bytes32",
          "name": "requestId",
          "type": "bytes32"
        },
        {
          "indexed": false,
          "internalType": "address",
          "name": "transmitter",
          "type": "address"
        }
      ],
      "name": "OracleResponse",
      "type": "event"
    },
    {
      "anonymous": false,
      "inputs": [
        {
          "indexed": true,
          "internalType": "address",
          "name": "from",
          "type": "address"
        },
        {
          "indexed": true,
          "internalType": "address",
          "name": "to",
          "type": "address"
        }
      ],
      "name": "OwnershipTransferRequested",
      "type": "event"
    },
    {
      "anonymous": false,
      "inputs": [
        {
          "indexed": true,
          "internalType": "address",
          "name": "from",
          "type": "address"
        },
        {
          "indexed": true,
          "internalType": "address",
          "name": "to",
          "type": "address"
        }
      ],
      "name": "OwnershipTransferred",
      "type": "event"
    },
    {
      "anonymous": false,
      "inputs": [
        {
          "indexed": false,
          "internalType": "bytes32",
          "name": "configDigest",
          "type": "bytes32"
        },
        {
          "indexed": false,
          "internalType": "uint32",
          "name": "epoch",
          "type": "uint32"
        }
      ],
      "name": "Transmitted",
      "type": "event"
    },
    {
      "inputs": [],
      "name": "acceptOwnership",
      "outputs": [],
      "stateMutability": "nonpayable",
      "type": "function"
    },
    {
      "inputs": [
        {
          "internalType": "bytes",
          "name": "report",
          "type": "bytes"
        }
      ],
      "name": "callReport",
      "outputs": [],
      "stateMutability": "nonpayable",
      "type": "function"
    },
    {
      "inputs": [
        {
          "internalType": "bytes",
          "name": "report",
          "type": "bytes"
        },
        {
          "internalType": "address",
          "name": "secondSigner",
          "type": "address"
        }
      ],
      "name": "callReportMultipleSigners",
      "outputs": [],
      "stateMutability": "nonpayable",
      "type": "function"
    },
    {
      "inputs": [
        {
          "internalType": "bytes",
          "name": "report",
          "type": "bytes"
        },
        {
          "internalType": "address[31]",
          "name": "signers",
          "type": "address[31]"
        }
      ],
      "name": "callReportWithSigners",
      "outputs": [],
      "stateMutability": "nonpayable",
      "type": "function"
    },
    {
      "inputs": [
        {
          "internalType": "bytes32",
          "name": "requestId",
          "type": "bytes32"
        }
      ],
      "name": "deleteCommitment",
      "outputs": [],
      "stateMutability": "nonpayable",
      "type": "function"
    },
    {
      "inputs": [
        {
          "internalType": "uint64",
          "name": "subscriptionId",
          "type": "uint64"
        },
        {
          "internalType": "bytes",
          "name": "data",
          "type": "bytes"
        },
        {
          "internalType": "uint32",
          "name": "callbackGasLimit",
          "type": "uint32"
        },
        {
          "internalType": "uint256",
          "name": "gasPriceWei",
          "type": "uint256"
        }
      ],
      "name": "estimateCost",
      "outputs": [
        {
          "internalType": "uint96",
          "name": "",
          "type": "uint96"
        }
      ],
      "stateMutability": "view",
      "type": "function"
    },
    {
      "inputs": [],
      "name": "getAdminFee",
      "outputs": [
        {
          "internalType": "uint72",
          "name": "",
          "type": "uint72"
        }
      ],
      "stateMutability": "view",
      "type": "function"
    },
    {
      "inputs": [],
      "name": "getConfig",
      "outputs": [
        {
          "components": [
            {
              "internalType": "uint32",
              "name": "fulfillmentGasPriceOverEstimationBP",
              "type": "uint32"
            },
            {
              "internalType": "uint32",
              "name": "feedStalenessSeconds",
              "type": "uint32"
            },
            {
              "internalType": "uint32",
              "name": "gasOverheadBeforeCallback",
              "type": "uint32"
            },
            {
              "internalType": "uint32",
              "name": "gasOverheadAfterCallback",
              "type": "uint32"
            },
            {
              "internalType": "uint32",
              "name": "requestTimeoutSeconds",
              "type": "uint32"
            },
            {
              "internalType": "uint72",
              "name": "donFee",
              "type": "uint72"
            },
            {
              "internalType": "uint16",
              "name": "maxSupportedRequestDataVersion",
              "type": "uint16"
            },
            {
              "internalType": "uint224",
              "name": "fallbackNativePerUnitLink",
              "type": "uint224"
            }
          ],
          "internalType": "struct FunctionsBilling.Config",
          "name": "",
          "type": "tuple"
        }
      ],
      "stateMutability": "view",
      "type": "function"
    },
    {
      "inputs": [
        {
          "internalType": "bytes",
          "name": "",
          "type": "bytes"
        }
      ],
      "name": "getDONFee",
      "outputs": [
        {
          "internalType": "uint72",
          "name": "",
          "type": "uint72"
        }
      ],
      "stateMutability": "view",
      "type": "function"
    },
    {
      "inputs": [],
      "name": "getDONPublicKey",
      "outputs": [
        {
          "internalType": "bytes",
          "name": "",
          "type": "bytes"
        }
      ],
      "stateMutability": "view",
      "type": "function"
    },
    {
      "inputs": [],
      "name": "getThresholdPublicKey",
      "outputs": [
        {
          "internalType": "bytes",
          "name": "",
          "type": "bytes"
        }
      ],
      "stateMutability": "view",
      "type": "function"
    },
    {
      "inputs": [],
      "name": "getWeiPerUnitLink",
      "outputs": [
        {
          "internalType": "uint256",
          "name": "",
          "type": "uint256"
        }
      ],
      "stateMutability": "view",
      "type": "function"
    },
    {
      "inputs": [],
      "name": "latestConfigDetails",
      "outputs": [
        {
          "internalType": "uint32",
          "name": "configCount",
          "type": "uint32"
        },
        {
          "internalType": "uint32",
          "name": "blockNumber",
          "type": "uint32"
        },
        {
          "internalType": "bytes32",
          "name": "configDigest",
          "type": "bytes32"
        }
      ],
      "stateMutability": "view",
      "type": "function"
    },
    {
      "inputs": [],
      "name": "latestConfigDigestAndEpoch",
      "outputs": [
        {
          "internalType": "bool",
          "name": "scanLogs",
          "type": "bool"
        },
        {
          "internalType": "bytes32",
          "name": "configDigest",
          "type": "bytes32"
        },
        {
          "internalType": "uint32",
          "name": "epoch",
          "type": "uint32"
        }
      ],
      "stateMutability": "view",
      "type": "function"
    },
    {
      "inputs": [
        {
          "internalType": "address",
          "name": "recipient",
          "type": "address"
        },
        {
          "internalType": "uint96",
          "name": "amount",
          "type": "uint96"
        }
      ],
      "name": "oracleWithdraw",
      "outputs": [],
      "stateMutability": "nonpayable",
      "type": "function"
    },
    {
      "inputs": [],
      "name": "oracleWithdrawAll",
      "outputs": [],
      "stateMutability": "nonpayable",
      "type": "function"
    },
    {
      "inputs": [],
      "name": "owner",
      "outputs": [
        {
          "internalType": "address",
          "name": "",
          "type": "address"
        }
      ],
      "stateMutability": "view",
      "type": "function"
    },
    {
      "inputs": [
        {
          "internalType": "address[]",
          "name": "_signers",
          "type": "address[]"
        },
        {
          "internalType": "address[]",
          "name": "_transmitters",
          "type": "address[]"
        },
        {
          "internalType": "uint8",
          "name": "_f",
          "type": "uint8"
        },
        {
          "internalType": "bytes",
          "name": "_onchainConfig",
          "type": "bytes"
        },
        {
          "internalType": "uint64",
          "name": "_offchainConfigVersion",
          "type": "uint64"
        },
        {
          "internalType": "bytes",
          "name": "_offchainConfig",
          "type": "bytes"
        }
      ],
      "name": "setConfig",
      "outputs": [],
      "stateMutability": "nonpayable",
      "type": "function"
    },
    {
      "inputs": [
        {
          "internalType": "bytes",
          "name": "donPublicKey",
          "type": "bytes"
        }
      ],
      "name": "setDONPublicKey",
      "outputs": [],
      "stateMutability": "nonpayable",
      "type": "function"
    },
    {
      "inputs": [
        {
          "internalType": "bytes",
          "name": "thresholdPublicKey",
          "type": "bytes"
        }
      ],
      "name": "setThresholdPublicKey",
      "outputs": [],
      "stateMutability": "nonpayable",
      "type": "function"
    },
    {
      "inputs": [
        {
          "components": [
            {
              "internalType": "bytes",
              "name": "data",
              "type": "bytes"
            },
            {
              "internalType": "bytes32",
              "name": "flags",
              "type": "bytes32"
            },
            {
              "internalType": "address",
              "name": "requestingContract",
              "type": "address"
            },
            {
              "internalType": "uint96",
              "name": "availableBalance",
              "type": "uint96"
            },
            {
              "internalType": "uint72",
              "name": "adminFee",
              "type": "uint72"
            },
            {
              "internalType": "uint64",
              "name": "subscriptionId",
              "type": "uint64"
            },
            {
              "internalType": "uint64",
              "name": "initiatedRequests",
              "type": "uint64"
            },
            {
              "internalType": "uint32",
              "name": "callbackGasLimit",
              "type": "uint32"
            },
            {
              "internalType": "uint16",
              "name": "dataVersion",
              "type": "uint16"
            },
            {
              "internalType": "uint64",
              "name": "completedRequests",
              "type": "uint64"
            },
            {
              "internalType": "address",
              "name": "subscriptionOwner",
              "type": "address"
            }
          ],
          "internalType": "struct FunctionsResponse.RequestMeta",
          "name": "request",
          "type": "tuple"
        }
      ],
      "name": "startRequest",
      "outputs": [
        {
          "components": [
            {
              "internalType": "bytes32",
              "name": "requestId",
              "type": "bytes32"
            },
            {
              "internalType": "address",
              "name": "coordinator",
              "type": "address"
            },
            {
              "internalType": "uint96",
              "name": "estimatedTotalCostJuels",
              "type": "uint96"
            },
            {
              "internalType": "address",
              "name": "client",
              "type": "address"
            },
            {
              "internalType": "uint64",
              "name": "subscriptionId",
              "type": "uint64"
            },
            {
              "internalType": "uint32",
              "name": "callbackGasLimit",
              "type": "uint32"
            },
            {
              "internalType": "uint72",
              "name": "adminFee",
              "type": "uint72"
            },
            {
              "internalType": "uint72",
              "name": "donFee",
              "type": "uint72"
            },
            {
              "internalType": "uint40",
              "name": "gasOverheadBeforeCallback",
              "type": "uint40"
            },
            {
              "internalType": "uint40",
              "name": "gasOverheadAfterCallback",
              "type": "uint40"
            },
            {
              "internalType": "uint32",
              "name": "timeoutTimestamp",
              "type": "uint32"
            }
          ],
          "internalType": "struct FunctionsResponse.Commitment",
          "name": "commitment",
          "type": "tuple"
        }
      ],
      "stateMutability": "nonpayable",
      "type": "function"
    },
    {
      "inputs": [
        {
          "internalType": "address",
          "name": "to",
          "type": "address"
        }
      ],
      "name": "transferOwnership",
      "outputs": [],
      "stateMutability": "nonpayable",
      "type": "function"
    },
    {
      "inputs": [
        {
          "internalType": "bytes32[3]",
          "name": "reportContext",
          "type": "bytes32[3]"
        },
        {
          "internalType": "bytes",
          "name": "report",
          "type": "bytes"
        },
        {
          "internalType": "bytes32[]",
          "name": "rs",
          "type": "bytes32[]"
        },
        {
          "internalType": "bytes32[]",
          "name": "ss",
          "type": "bytes32[]"
        },
        {
          "internalType": "bytes32",
          "name": "rawVs",
          "type": "bytes32"
        }
      ],
      "name": "transmit",
      "outputs": [],
      "stateMutability": "nonpayable",
      "type": "function"
    },
    {
      "inputs": [],
      "name": "transmitters",
      "outputs": [
        {
          "internalType": "address[]",
          "name": "",
          "type": "address[]"
        }
      ],
      "stateMutability": "view",
      "type": "function"
    },
    {
      "inputs": [],
      "name": "typeAndVersion",
      "outputs": [
        {
          "internalType": "string",
          "name": "",
          "type": "string"
        }
      ],
      "stateMutability": "view",
      "type": "function"
    },
    {
      "inputs": [
        {
          "components": [
            {
              "internalType": "uint32",
              "name": "fulfillmentGasPriceOverEstimationBP",
              "type": "uint32"
            },
            {
              "internalType": "uint32",
              "name": "feedStalenessSeconds",
              "type": "uint32"
            },
            {
              "internalType": "uint32",
              "name": "gasOverheadBeforeCallback",
              "type": "uint32"
            },
            {
              "internalType": "uint32",
              "name": "gasOverheadAfterCallback",
              "type": "uint32"
            },
            {
              "internalType": "uint32",
              "name": "requestTimeoutSeconds",
              "type": "uint32"
            },
            {
              "internalType": "uint72",
              "name": "donFee",
              "type": "uint72"
            },
            {
              "internalType": "uint16",
              "name": "maxSupportedRequestDataVersion",
              "type": "uint16"
            },
            {
              "internalType": "uint224",
              "name": "fallbackNativePerUnitLink",
              "type": "uint224"
            }
          ],
          "internalType": "struct FunctionsBilling.Config",
          "name": "config",
          "type": "tuple"
        }
      ],
      "name": "updateConfig",
      "outputs": [],
      "stateMutability": "nonpayable",
      "type": "function"
    }
  ],
  "bytecode": {
    "object": "0x60c06040523480156200001157600080fd5b50604051620050553803806200505583398101604081905262000034916200041e565b8282828282828260013380600081620000945760405162461bcd60e51b815260206004820152601860248201527f43616e6e6f7420736574206f776e657220746f207a65726f000000000000000060448201526064015b60405180910390fd5b600080546001600160a01b0319166001600160a01b0384811691909117909155811615620000c757620000c78162000146565b50505015156080526001600160a01b038116620000f757604051632530e88560e11b815260040160405180910390fd5b6001600160a01b0390811660a052600b80549183166c01000000000000000000000000026001600160601b039092169190911790556200013782620001f1565b505050505050505050620005cc565b336001600160a01b03821603620001a05760405162461bcd60e51b815260206004820152601760248201527f43616e6e6f74207472616e7366657220746f2073656c6600000000000000000060448201526064016200008b565b600180546001600160a01b0319166001600160a01b0383811691821790925560008054604051929316917fed8889f560326eb138920d842192f0eb3dd22b4f139c87a2c57538e05bae12789190a350565b620001fb62000341565b80516008805460208401516040808601516060870151608088015160a089015160c08a015161ffff16600160e81b0261ffff60e81b196001600160481b03909216600160a01b02600160a01b600160e81b031963ffffffff948516600160801b0216600160801b600160e81b03199585166c010000000000000000000000000263ffffffff60601b19978616680100000000000000000297909716600160401b600160801b0319998616640100000000026001600160401b0319909b1695909c1694909417989098179690961698909817929092171617929092179390931692909217905560e0820151600980546001600160e01b039092166001600160e01b0319909216919091179055517f8efd15b0efe82b55a8dc915f88e835007cc65ad0b442997d3c10604961e3907a90620003369083906200053c565b60405180910390a150565b6200034b6200034d565b565b6000546001600160a01b031633146200034b5760405162461bcd60e51b815260206004820152601660248201527f4f6e6c792063616c6c61626c65206279206f776e65720000000000000000000060448201526064016200008b565b80516001600160a01b0381168114620003c157600080fd5b919050565b805163ffffffff81168114620003c157600080fd5b80516001600160481b0381168114620003c157600080fd5b805161ffff81168114620003c157600080fd5b80516001600160e01b0381168114620003c157600080fd5b60008060008385036101408112156200043657600080fd5b6200044185620003a9565b935061010080601f19830112156200045857600080fd5b60405191508082016001600160401b03811183821017156200048a57634e487b7160e01b600052604160045260246000fd5b6040526200049b60208701620003c6565b8252620004ab60408701620003c6565b6020830152620004be60608701620003c6565b6040830152620004d160808701620003c6565b6060830152620004e460a08701620003c6565b6080830152620004f760c08701620003db565b60a08301526200050a60e08701620003f3565b60c08301526200051c81870162000406565b60e0830152509150620005336101208501620003a9565b90509250925092565b60006101008201905063ffffffff8084511683528060208501511660208401528060408501511660408401528060608501511660608401528060808501511660808401525060018060481b0360a08401511660a083015260c0830151620005a960c084018261ffff169052565b5060e0830151620005c560e08401826001600160e01b03169052565b5092915050565b60805160a051614a396200061c60003960008181610618015281816107e201528181610ac401528181610d580152818161109f015281816117b20152613126015260006112ae0152614a396000f3fe608060405234801561001057600080fd5b50600436106101ae5760003560e01c806381ff7048116100ee578063b1dc65a411610097578063d328a91e11610071578063d328a91e1461057b578063e3d0e71214610583578063e4ddcea614610596578063f2fde38b146105ac57600080fd5b8063b1dc65a4146103fb578063c3f909d41461040e578063d227d2451461054b57600080fd5b80639314176d116100c85780639314176d146103a8578063a631571e146103bb578063afcb95d7146103db57600080fd5b806381ff70481461030057806385b214cf1461036d5780638da5cb5b1461038057600080fd5b8063736d7e0f1161015b5780637d480787116101355780637d480787146102c85780637f15e166146102d057806381411834146102e357806381f1b938146102f857600080fd5b8063736d7e0f1461029a57806377d28a35146102ad57806379ba5097146102c057600080fd5b80633901c40e1161018c5780633901c40e1461023c57806359b5b7ac1461024f57806366316d8d1461028757600080fd5b8063083a5466146101b3578063181f5a77146101c85780632a905ccc1461021a575b600080fd5b6101c66101c13660046133ff565b6105bf565b005b6102046040518060400160405280601c81526020017f46756e6374696f6e7320436f6f7264696e61746f722076312e302e300000000081525081565b6040516102119190613487565b60405180910390f35b610222610614565b60405168ffffffffffffffffff9091168152602001610211565b6101c661024a3660046134ce565b6106aa565b61022261025d36600461361f565b5060085474010000000000000000000000000000000000000000900468ffffffffffffffffff1690565b6101c6610295366004613681565b6106e6565b6101c66102a83660046133ff565b61089f565b6101c66102bb3660046136ba565b6108b9565b6101c66108c8565b6101c66109b0565b6101c66102de3660046133ff565b610bb0565b6102eb610c00565b60405161021191906137c4565b610204610c6f565b61034a60015460025463ffffffff74010000000000000000000000000000000000000000830481169378010000000000000000000000000000000000000000000000009093041691565b6040805163ffffffff948516815293909216602084015290820152606001610211565b6101c661037b3660046137d7565b610d40565b60005460405173ffffffffffffffffffffffffffffffffffffffff9091168152602001610211565b6101c66103b636600461386d565b610dfd565b6103ce6103c9366004613937565b61102e565b6040516102119190613a96565b604080516001815260006020820181905291810191909152606001610211565b6101c6610409366004613aea565b6111cf565b61053e6040805161010081018252600080825260208201819052918101829052606081018290526080810182905260a0810182905260c0810182905260e081019190915250604080516101008101825260085463ffffffff80821683526401000000008204811660208401526801000000000000000082048116938301939093526c010000000000000000000000008104831660608301527001000000000000000000000000000000008104909216608082015274010000000000000000000000000000000000000000820468ffffffffffffffffff1660a08201527d01000000000000000000000000000000000000000000000000000000000090910461ffff1660c08201526009547bffffffffffffffffffffffffffffffffffffffffffffffffffffffff1660e082015290565b6040516102119190613ba1565b61055e610559366004613c61565b6117ae565b6040516bffffffffffffffffffffffff9091168152602001610211565b610204611910565b6101c6610591366004613d7a565b611967565b61059e61235f565b604051908152602001610211565b6101c66105ba366004613e47565b612584565b6105c7612598565b6000819003610602576040517f4f42be3d00000000000000000000000000000000000000000000000000000000815260040160405180910390fd5b600d61060f828483613efd565b505050565b60007f000000000000000000000000000000000000000000000000000000000000000073ffffffffffffffffffffffffffffffffffffffff16632a905ccc6040518163ffffffff1660e01b8152600401602060405180830381865afa158015610681573d6000803e3d6000fd5b505050506040513d601f19601f820116820180604052508101906106a59190614005565b905090565b6106b2613397565b33815273ffffffffffffffffffffffffffffffffffffffff821660208201526106e05a336002848888612601565b50505050565b6106ee6127cf565b806bffffffffffffffffffffffff166000036107285750336000908152600a60205260409020546bffffffffffffffffffffffff16610782565b336000908152600a60205260409020546bffffffffffffffffffffffff80831691161015610782576040517ff4d678b800000000000000000000000000000000000000000000000000000000815260040160405180910390fd5b336000908152600a6020526040812080548392906107af9084906bffffffffffffffffffffffff16614080565b92506101000a8154816bffffffffffffffffffffffff02191690836bffffffffffffffffffffffff1602179055506108047f000000000000000000000000000000000000000000000000000000000000000090565b6040517f66316d8d00000000000000000000000000000000000000000000000000000000815273ffffffffffffffffffffffffffffffffffffffff84811660048301526bffffffffffffffffffffffff8416602483015291909116906366316d8d90604401600060405180830381600087803b15801561088357600080fd5b505af1158015610897573d6000803e3d6000fd5b505050505050565b6108a7613397565b33815261060f5a336001848787612601565b61060f5a336002848787612601565b60015473ffffffffffffffffffffffffffffffffffffffff1633146109345760405162461bcd60e51b815260206004820152601660248201527f4d7573742062652070726f706f736564206f776e65720000000000000000000060448201526064015b60405180910390fd5b60008054337fffffffffffffffffffffffff00000000000000000000000000000000000000008083168217845560018054909116905560405173ffffffffffffffffffffffffffffffffffffffff90921692909183917f8be0079c531659141344cd1fd0a4f28419497f9722a3daafe3b4186f6b6457e091a350565b6109b861297a565b6109c06127cf565b60006109ca610c00565b905060005b8151811015610bac576000600a60008484815181106109f0576109f0614022565b60209081029190910181015173ffffffffffffffffffffffffffffffffffffffff168252810191909152604001600020546bffffffffffffffffffffffff1690508015610b9b576000600a6000858581518110610a4f57610a4f614022565b602002602001015173ffffffffffffffffffffffffffffffffffffffff1673ffffffffffffffffffffffffffffffffffffffff16815260200190815260200160002060006101000a8154816bffffffffffffffffffffffff02191690836bffffffffffffffffffffffff160217905550610ae67f000000000000000000000000000000000000000000000000000000000000000090565b73ffffffffffffffffffffffffffffffffffffffff166366316d8d848481518110610b1357610b13614022565b6020026020010151836040518363ffffffff1660e01b8152600401610b6892919073ffffffffffffffffffffffffffffffffffffffff9290921682526bffffffffffffffffffffffff16602082015260400190565b600060405180830381600087803b158015610b8257600080fd5b505af1158015610b96573d6000803e3d6000fd5b505050505b50610ba5816140a5565b90506109cf565b5050565b610bb8612598565b6000819003610bf3576040517f4f42be3d00000000000000000000000000000000000000000000000000000000815260040160405180910390fd5b600c61060f828483613efd565b60606006805480602002602001604051908101604052809291908181526020018280548015610c6557602002820191906000526020600020905b815473ffffffffffffffffffffffffffffffffffffffff168152600190910190602001808311610c3a575b5050505050905090565b6060600d8054610c7e90613e64565b9050600003610cb9576040517f4f42be3d00000000000000000000000000000000000000000000000000000000815260040160405180910390fd5b600d8054610cc690613e64565b80601f0160208091040260200160405190810160405280929190818152602001828054610cf290613e64565b8015610c655780601f10610d1457610100808354040283529160200191610c65565b820191906000526020600020905b815481529060010190602001808311610d2257509395945050505050565b3373ffffffffffffffffffffffffffffffffffffffff7f00000000000000000000000000000000000000000000000000000000000000001614610daf576040517fc41a5b0900000000000000000000000000000000000000000000000000000000815260040160405180910390fd5b60008181526007602052604080822091909155517f8a4b97add3359bd6bcf5e82874363670eb5ad0f7615abddbd0ed0a3a98f0f41690610df29083815260200190565b60405180910390a150565b610e0561297a565b80516008805460208401516040808601516060870151608088015160a089015160c08a015161ffff167d010000000000000000000000000000000000000000000000000000000000027fff0000ffffffffffffffffffffffffffffffffffffffffffffffffffffffffff68ffffffffffffffffff90921674010000000000000000000000000000000000000000027fffffff000000000000000000ffffffffffffffffffffffffffffffffffffffff63ffffffff94851670010000000000000000000000000000000002167fffffff00000000000000000000000000ffffffffffffffffffffffffffffffff9585166c01000000000000000000000000027fffffffffffffffffffffffffffffffff00000000ffffffffffffffffffffffff9786166801000000000000000002979097167fffffffffffffffffffffffffffffffff0000000000000000ffffffffffffffff998616640100000000027fffffffffffffffffffffffffffffffffffffffffffffffff0000000000000000909b1695909c1694909417989098179690961698909817929092171617929092179390931692909217905560e0820151600980547bffffffffffffffffffffffffffffffffffffffffffffffffffffffff9092167fffffffff00000000000000000000000000000000000000000000000000000000909216919091179055517f8efd15b0efe82b55a8dc915f88e835007cc65ad0b442997d3c10604961e3907a90610df2908390613ba1565b6040805161016081018252600080825260208201819052918101829052606081018290526080810182905260a0810182905260c0810182905260e08101829052610100810182905261012081018290526101408101919091523373ffffffffffffffffffffffffffffffffffffffff7f000000000000000000000000000000000000000000000000000000000000000016146110f6576040517fc41a5b0900000000000000000000000000000000000000000000000000000000815260040160405180910390fd5b611107611102836140dd565b612982565b90506111196060830160408401613e47565b815173ffffffffffffffffffffffffffffffffffffffff91909116907fbf50768ccf13bd0110ca6d53a9c4f1f3271abdd4c24a56878863ed25b20598ff3261116760c0870160a088016141ca565b61117961016088016101408901613e47565b61118388806141e7565b6111956101208b016101008c0161424c565b60208b01356111ab6101008d0160e08e01614267565b8b6040516111c199989796959493929190614284565b60405180910390a35b919050565b60005a604080518b3580825262ffffff6020808f0135600881901c929092169084015293945092917fb04e63db38c49950639fa09d29872f21f5d49d614f3a969d8adf3d4b52e41a62910160405180910390a16040805160608101825260025480825260035460ff8082166020850152610100909104169282019290925290831461129c5760405162461bcd60e51b815260206004820152601560248201527f636f6e666967446967657374206d69736d617463680000000000000000000000604482015260640161092b565b6112aa8b8b8b8b8b8b612d65565b60007f000000000000000000000000000000000000000000000000000000000000000015611307576002826020015183604001516112e8919061430e565b6112f29190614356565b6112fd90600161430e565b60ff16905061131d565b602082015161131790600161430e565b60ff1690505b88811461136c5760405162461bcd60e51b815260206004820152601a60248201527f77726f6e67206e756d626572206f66207369676e617475726573000000000000604482015260640161092b565b8887146113bb5760405162461bcd60e51b815260206004820152601e60248201527f7369676e617475726573206f7574206f6620726567697374726174696f6e0000604482015260640161092b565b3360009081526004602090815260408083208151808301909252805460ff808216845292939192918401916101009091041660028111156113fe576113fe614378565b600281111561140f5761140f614378565b905250905060028160200151600281111561142c5761142c614378565b14801561147357506006816000015160ff168154811061144e5761144e614022565b60009182526020909120015473ffffffffffffffffffffffffffffffffffffffff1633145b6114bf5760405162461bcd60e51b815260206004820152601860248201527f756e617574686f72697a6564207472616e736d69747465720000000000000000604482015260640161092b565b50505050506114cc613397565b6000808a8a6040516114df9291906143a7565b6040519081900381206114f6918e906020016143b7565b60408051601f198184030181528282528051602091820120838301909252600080845290830152915060005b8981101561179057600060018489846020811061154157611541614022565b61154e91901a601b61430e565b8e8e8681811061156057611560614022565b905060200201358d8d8781811061157957611579614022565b90506020020135604051600081526020016040526040516115b6949392919093845260ff9290921660208401526040830152606082015260800190565b6020604051602081039080840390855afa1580156115d8573d6000803e3d6000fd5b505060408051601f1981015173ffffffffffffffffffffffffffffffffffffffff811660009081526004602090815290849020838501909452835460ff8082168552929650929450840191610100900416600281111561163a5761163a614378565b600281111561164b5761164b614378565b905250925060018360200151600281111561166857611668614378565b146116b55760405162461bcd60e51b815260206004820152601e60248201527f61646472657373206e6f7420617574686f72697a656420746f207369676e0000604482015260640161092b565b8251600090879060ff16601f81106116cf576116cf614022565b602002015173ffffffffffffffffffffffffffffffffffffffff16146117375760405162461bcd60e51b815260206004820152601460248201527f6e6f6e2d756e69717565207369676e6174757265000000000000000000000000604482015260640161092b565b8086846000015160ff16601f811061175157611751614022565b73ffffffffffffffffffffffffffffffffffffffff909216602092909202015261177c60018661430e565b94505080611789906140a5565b9050611522565b5050506117a1833383858e8e612601565b5050505050505050505050565b60007f00000000000000000000000000000000000000000000000000000000000000006040517f10fc49c100000000000000000000000000000000000000000000000000000000815267ffffffffffffffff8816600482015263ffffffff8516602482015273ffffffffffffffffffffffffffffffffffffffff91909116906310fc49c19060440160006040518083038186803b15801561184e57600080fd5b505afa158015611862573d6000803e3d6000fd5b5050505066038d7ea4c680008211156118a7576040517f8129bbcd00000000000000000000000000000000000000000000000000000000815260040160405180910390fd5b60006118b1610614565b905060006118f487878080601f01602080910402602001604051908101604052809392919081815260200183838082843760009201919091525061025d92505050565b905061190285858385612e02565b925050505b95945050505050565b6060600c805461191f90613e64565b905060000361195a576040517f4f42be3d00000000000000000000000000000000000000000000000000000000815260040160405180910390fd5b600c8054610cc690613e64565b855185518560ff16601f8311156119da576040517f89a6198900000000000000000000000000000000000000000000000000000000815260206004820152601060248201527f746f6f206d616e79207369676e65727300000000000000000000000000000000604482015260640161092b565b80600003611a44576040517f89a6198900000000000000000000000000000000000000000000000000000000815260206004820152601260248201527f66206d75737420626520706f7369746976650000000000000000000000000000604482015260640161092b565b818314611ad2576040517f89a61989000000000000000000000000000000000000000000000000000000008152602060048201526024808201527f6f7261636c6520616464726573736573206f7574206f6620726567697374726160448201527f74696f6e00000000000000000000000000000000000000000000000000000000606482015260840161092b565b611add8160036143cb565b8311611b45576040517f89a6198900000000000000000000000000000000000000000000000000000000815260206004820152601860248201527f6661756c74792d6f7261636c65206620746f6f20686967680000000000000000604482015260640161092b565b611b4d612598565b6040805160c0810182528a8152602081018a905260ff89169181018290526060810188905267ffffffffffffffff8716608082015260a0810186905290611b949088612eec565b60055415611d4957600554600090611bae906001906143e2565b9050600060058281548110611bc557611bc5614022565b60009182526020822001546006805473ffffffffffffffffffffffffffffffffffffffff90921693509084908110611bff57611bff614022565b600091825260208083209091015473ffffffffffffffffffffffffffffffffffffffff85811684526004909252604080842080547fffffffffffffffffffffffffffffffffffffffffffffffffffffffffffff000090811690915592909116808452922080549091169055600580549192509080611c7f57611c7f6143f5565b60008281526020902081017fffffffffffffffffffffffffffffffffffffffffffffffffffffffffffffffff90810180547fffffffffffffffffffffffff00000000000000000000000000000000000000001690550190556006805480611ce857611ce86143f5565b60008281526020902081017fffffffffffffffffffffffffffffffffffffffffffffffffffffffffffffffff90810180547fffffffffffffffffffffffff000000000000000000000000000000000000000016905501905550611b94915050565b60005b81515181101561217c5760006004600084600001518481518110611d7257611d72614022565b60209081029190910181015173ffffffffffffffffffffffffffffffffffffffff16825281019190915260400160002054610100900460ff166002811115611dbc57611dbc614378565b14611e095760405162461bcd60e51b815260206004820152601760248201527f7265706561746564207369676e65722061646472657373000000000000000000604482015260640161092b565b6040805180820190915260ff82168152600160208201528251805160049160009185908110611e3a57611e3a614022565b60209081029190910181015173ffffffffffffffffffffffffffffffffffffffff168252818101929092526040016000208251815460ff9091167fffffffffffffffffffffffffffffffffffffffffffffffffffffffffffffff0082168117835592840151919283917fffffffffffffffffffffffffffffffffffffffffffffffffffffffffffff00001617610100836002811115611edb57611edb614378565b021790555060009150611eeb9050565b6004600084602001518481518110611f0557611f05614022565b60209081029190910181015173ffffffffffffffffffffffffffffffffffffffff16825281019190915260400160002054610100900460ff166002811115611f4f57611f4f614378565b14611f9c5760405162461bcd60e51b815260206004820152601c60248201527f7265706561746564207472616e736d6974746572206164647265737300000000604482015260640161092b565b6040805180820190915260ff821681526020810160028152506004600084602001518481518110611fcf57611fcf614022565b60209081029190910181015173ffffffffffffffffffffffffffffffffffffffff168252818101929092526040016000208251815460ff9091167fffffffffffffffffffffffffffffffffffffffffffffffffffffffffffffff0082168117835592840151919283917fffffffffffffffffffffffffffffffffffffffffffffffffffffffffffff0000161761010083600281111561207057612070614378565b02179055505082518051600592508390811061208e5761208e614022565b602090810291909101810151825460018101845560009384529282902090920180547fffffffffffffffffffffffff00000000000000000000000000000000000000001673ffffffffffffffffffffffffffffffffffffffff909316929092179091558201518051600691908390811061210a5761210a614022565b60209081029190910181015182546001810184556000938452919092200180547fffffffffffffffffffffffff00000000000000000000000000000000000000001673ffffffffffffffffffffffffffffffffffffffff90921691909117905580612174816140a5565b915050611d4c565b506040810151600380547fffffffffffffffffffffffffffffffffffffffffffffffffffffffffffffff001660ff909216919091179055600180547fffffffff00000000ffffffffffffffffffffffffffffffffffffffffffffffff8116780100000000000000000000000000000000000000000000000063ffffffff438116820292909217808555920481169291829160149161223491849174010000000000000000000000000000000000000000900416614424565b92506101000a81548163ffffffff021916908363ffffffff1602179055506122934630600160149054906101000a900463ffffffff1663ffffffff16856000015186602001518760400151886060015189608001518a60a00151612f05565b600281905582518051600380547fffffffffffffffffffffffffffffffffffffffffffffffffffffffffffff00ff1661010060ff9093169290920291909117905560015460208501516040808701516060880151608089015160a08a015193517f1591690b8638f5fb2dbec82ac741805ac5da8b45dc5263f4875b0496fdce4e059861234a988b9891977401000000000000000000000000000000000000000090920463ffffffff16969095919491939192614441565b60405180910390a15050505050505050505050565b604080516101008101825260085463ffffffff80821683526401000000008204811660208401526801000000000000000082048116838501526c01000000000000000000000000808304821660608501527001000000000000000000000000000000008304909116608084015274010000000000000000000000000000000000000000820468ffffffffffffffffff1660a0808501919091527d01000000000000000000000000000000000000000000000000000000000090920461ffff1660c08401526009547bffffffffffffffffffffffffffffffffffffffffffffffffffffffff1660e0840152600b5484517ffeaf968c00000000000000000000000000000000000000000000000000000000815294516000958694859490930473ffffffffffffffffffffffffffffffffffffffff169263feaf968c926004808401938290030181865afa1580156124b9573d6000803e3d6000fd5b505050506040513d601f19601f820116820180604052508101906124dd91906144f1565b5093505092505080426124f091906143e2565b836020015163ffffffff1610801561251257506000836020015163ffffffff16115b1561254057505060e001517bffffffffffffffffffffffffffffffffffffffffffffffffffffffff16919050565b6000821361257d576040517f43d4cf660000000000000000000000000000000000000000000000000000000081526004810183905260240161092b565b5092915050565b61258c612598565b61259581612f92565b50565b60005473ffffffffffffffffffffffffffffffffffffffff1633146125ff5760405162461bcd60e51b815260206004820152601660248201527f4f6e6c792063616c6c61626c65206279206f776e657200000000000000000000604482015260640161092b565b565b6060808080806126138688018861461c565b845194995092975090955093509150158061263057508351855114155b8061263d57508251855114155b8061264a57508151855114155b8061265757508051855114155b1561268e576040517f0be3632800000000000000000000000000000000000000000000000000000000815260040160405180910390fd5b60005b85518110156127c15760006127268783815181106126b1576126b1614022565b60200260200101518784815181106126cb576126cb614022565b60200260200101518785815181106126e5576126e5614022565b60200260200101518786815181106126ff576126ff614022565b602002602001015187878151811061271957612719614022565b602002602001015161306d565b9050600081600681111561273c5761273c614378565b14806127595750600181600681111561275757612757614378565b145b156127b05786828151811061277057612770614022565b60209081029190910181015160405133815290917fc708e0440951fd63499c0f7a73819b469ee5dd3ecc356c0ab4eb7f18389009d9910160405180910390a25b506127ba816140a5565b9050612691565b505050505050505050505050565b600b546bffffffffffffffffffffffff166000036127e957565b60006127f3610c00565b90508051600003612830576040517f30274b3a00000000000000000000000000000000000000000000000000000000815260040160405180910390fd5b8051600b5460009161284f916bffffffffffffffffffffffff166146ee565b905060005b825181101561291b5781600a600085848151811061287457612874614022565b602002602001015173ffffffffffffffffffffffffffffffffffffffff1673ffffffffffffffffffffffffffffffffffffffff16815260200190815260200160002060008282829054906101000a90046bffffffffffffffffffffffff166128dc9190614719565b92506101000a8154816bffffffffffffffffffffffff02191690836bffffffffffffffffffffffff16021790555080612914906140a5565b9050612854565b508151612928908261473e565b600b80546000906129489084906bffffffffffffffffffffffff16614080565b92506101000a8154816bffffffffffffffffffffffff02191690836bffffffffffffffffffffffff1602179055505050565b6125ff612598565b6040805161016081018252600080825260208201819052918101829052606081018290526080810182905260a0810182905260c0810182905260e081018290526101008101829052610120810182905261014081019190915260408051610100808201835260085463ffffffff80821684526401000000008204811660208501526801000000000000000082048116948401949094526c010000000000000000000000008104841660608401527001000000000000000000000000000000008104909316608083015274010000000000000000000000000000000000000000830468ffffffffffffffffff1660a08301527d01000000000000000000000000000000000000000000000000000000000090920461ffff90811660c083018190526009547bffffffffffffffffffffffffffffffffffffffffffffffffffffffff1660e084015292850151919291161115612b08576040517fdada758700000000000000000000000000000000000000000000000000000000815260040160405180910390fd5b60085460009074010000000000000000000000000000000000000000900468ffffffffffffffffff1690506000612b498560e001513a848860800151612e02565b9050806bffffffffffffffffffffffff1685606001516bffffffffffffffffffffffff161015612ba5576040517ff4d678b800000000000000000000000000000000000000000000000000000000815260040160405180910390fd5b6000612c283087604001518860a001518960c001516001612bc6919061476e565b6040805173ffffffffffffffffffffffffffffffffffffffff958616602080830191909152949095168582015267ffffffffffffffff928316606086015291166080808501919091528151808503909101815260a09093019052815191012090565b90506040518061016001604052808281526020013073ffffffffffffffffffffffffffffffffffffffff168152602001836bffffffffffffffffffffffff168152602001876040015173ffffffffffffffffffffffffffffffffffffffff1681526020018760a0015167ffffffffffffffff1681526020018760e0015163ffffffff168152602001876080015168ffffffffffffffffff1681526020018468ffffffffffffffffff168152602001856040015163ffffffff1664ffffffffff168152602001856060015163ffffffff1664ffffffffff168152602001856080015163ffffffff1642612d1a919061478f565b63ffffffff16815250945084604051602001612d369190613a96565b60408051601f198184030181529181528151602092830120600093845260079092529091205550919392505050565b6000612d728260206143cb565b612d7d8560206143cb565b612d898861014461478f565b612d93919061478f565b612d9d919061478f565b612da890600061478f565b9050368114612df95760405162461bcd60e51b815260206004820152601860248201527f63616c6c64617461206c656e677468206d69736d617463680000000000000000604482015260640161092b565b50505050505050565b60085460009081908690612e3a9063ffffffff6c01000000000000000000000000820481169168010000000000000000900416614424565b612e449190614424565b60085463ffffffff918216925060009161271091612e639116886143cb565b612e6d91906147a2565b612e77908761478f565b90506000612e84826132e0565b90506000612ea0846bffffffffffffffffffffffff84166143cb565b90506000612ebc68ffffffffffffffffff808916908a16614719565b9050612ede612ed96bffffffffffffffffffffffff83168461478f565b61330f565b9a9950505050505050505050565b6000612ef6610c00565b511115610bac57610bac6127cf565b6000808a8a8a8a8a8a8a8a8a604051602001612f29999897969594939291906147b6565b60408051601f1981840301815291905280516020909101207dffffffffffffffffffffffffffffffffffffffffffffffffffffffffffff167e01000000000000000000000000000000000000000000000000000000000000179150509998505050505050505050565b3373ffffffffffffffffffffffffffffffffffffffff821603612ff75760405162461bcd60e51b815260206004820152601760248201527f43616e6e6f74207472616e7366657220746f2073656c66000000000000000000604482015260640161092b565b600180547fffffffffffffffffffffffff00000000000000000000000000000000000000001673ffffffffffffffffffffffffffffffffffffffff83811691821790925560008054604051929316917fed8889f560326eb138920d842192f0eb3dd22b4f139c87a2c57538e05bae12789190a350565b60008083806020019051810190613084919061488c565b6000888152600760205260409020549091506130a4576002915050611907565b806040516020016130b59190613a96565b60408051601f19818403018152918152815160209283012060008a81526007909352912054146130e9576006915050611907565b60006130f43a6132e0565b9050600082610120015183610100015161310e919061495f565b61311f9064ffffffffff168361473e565b90506000807f000000000000000000000000000000000000000000000000000000000000000073ffffffffffffffffffffffffffffffffffffffff1663330605298b8b878960e0015168ffffffffffffffffff168861317e9190614719565b338b6040518763ffffffff1660e01b81526004016131a19695949392919061497d565b60408051808303816000875af11580156131bf573d6000803e3d6000fd5b505050506040513d601f19601f820116820180604052508101906131e391906149f9565b909250905060008260068111156131fc576131fc614378565b14806132195750600182600681111561321757613217614378565b145b156132d25760008b8152600760205260408120556132378184614719565b336000908152600a6020526040812080547fffffffffffffffffffffffffffffffffffffffff000000000000000000000000166bffffffffffffffffffffffff93841617905560e0870151600b805468ffffffffffffffffff909216939092916132a391859116614719565b92506101000a8154816bffffffffffffffffffffffff02191690836bffffffffffffffffffffffff1602179055505b509998505050505050505050565b60006133096132ed61235f565b6132ff84670de0b6b3a76400006143cb565b612ed991906147a2565b92915050565b60006bffffffffffffffffffffffff8211156133935760405162461bcd60e51b815260206004820152602660248201527f53616665436173743a2076616c756520646f65736e27742066697420696e203960448201527f3620626974730000000000000000000000000000000000000000000000000000606482015260840161092b565b5090565b604051806103e00160405280601f906020820280368337509192915050565b60008083601f8401126133c857600080fd5b50813567ffffffffffffffff8111156133e057600080fd5b6020830191508360208285010111156133f857600080fd5b9250929050565b6000806020838503121561341257600080fd5b823567ffffffffffffffff81111561342957600080fd5b613435858286016133b6565b90969095509350505050565b6000815180845260005b818110156134675760208185018101518683018201520161344b565b506000602082860101526020601f19601f83011685010191505092915050565b60208152600061349a6020830184613441565b9392505050565b73ffffffffffffffffffffffffffffffffffffffff8116811461259557600080fd5b80356111ca816134a1565b6000806000604084860312156134e357600080fd5b833567ffffffffffffffff8111156134fa57600080fd5b613506868287016133b6565b909450925050602084013561351a816134a1565b809150509250925092565b7f4e487b7100000000000000000000000000000000000000000000000000000000600052604160045260246000fd5b604051610160810167ffffffffffffffff8111828210171561357857613578613525565b60405290565b604051601f8201601f1916810167ffffffffffffffff811182821017156135a7576135a7613525565b604052919050565b600082601f8301126135c057600080fd5b813567ffffffffffffffff8111156135da576135da613525565b6135ed6020601f19601f8401160161357e565b81815284602083860101111561360257600080fd5b816020850160208301376000918101602001919091529392505050565b60006020828403121561363157600080fd5b813567ffffffffffffffff81111561364857600080fd5b613654848285016135af565b949350505050565b6bffffffffffffffffffffffff8116811461259557600080fd5b80356111ca8161365c565b6000806040838503121561369457600080fd5b823561369f816134a1565b915060208301356136af8161365c565b809150509250929050565b60008060006104008085870312156136d157600080fd5b843567ffffffffffffffff808211156136e957600080fd5b6136f5888389016133b6565b909650945060209150603f8701881361370d57600080fd5b6040516103e08101818110838211171561372957613729613525565b604052928701929050808884111561374057600080fd5b8288015b84811015613764578035613757816134a1565b8352918301918301613744565b50809450505050509250925092565b600081518084526020808501945080840160005b838110156137b957815173ffffffffffffffffffffffffffffffffffffffff1687529582019590820190600101613787565b509495945050505050565b60208152600061349a6020830184613773565b6000602082840312156137e957600080fd5b5035919050565b63ffffffff8116811461259557600080fd5b80356111ca816137f0565b68ffffffffffffffffff8116811461259557600080fd5b80356111ca8161380d565b803561ffff811681146111ca57600080fd5b80357bffffffffffffffffffffffffffffffffffffffffffffffffffffffff811681146111ca57600080fd5b600061010080838503121561388157600080fd5b6040519081019067ffffffffffffffff821181831017156138a4576138a4613525565b81604052833591506138b5826137f0565b8181526138c460208501613802565b60208201526138d560408501613802565b60408201526138e660608501613802565b60608201526138f760808501613802565b608082015261390860a08501613824565b60a082015261391960c0850161382f565b60c082015261392a60e08501613841565b60e0820152949350505050565b60006020828403121561394957600080fd5b813567ffffffffffffffff81111561396057600080fd5b8201610160818503121561349a57600080fd5b80518252602081015161399e602084018273ffffffffffffffffffffffffffffffffffffffff169052565b5060408101516139be60408401826bffffffffffffffffffffffff169052565b5060608101516139e6606084018273ffffffffffffffffffffffffffffffffffffffff169052565b506080810151613a02608084018267ffffffffffffffff169052565b5060a0810151613a1a60a084018263ffffffff169052565b5060c0810151613a3760c084018268ffffffffffffffffff169052565b5060e0810151613a5460e084018268ffffffffffffffffff169052565b506101008181015164ffffffffff81168483015250506101208181015164ffffffffff81168483015250506101408181015163ffffffff8116848301526106e0565b61016081016133098284613973565b60008083601f840112613ab757600080fd5b50813567ffffffffffffffff811115613acf57600080fd5b6020830191508360208260051b85010111156133f857600080fd5b60008060008060008060008060e0898b031215613b0657600080fd5b606089018a811115613b1757600080fd5b8998503567ffffffffffffffff80821115613b3157600080fd5b613b3d8c838d016133b6565b909950975060808b0135915080821115613b5657600080fd5b613b628c838d01613aa5565b909750955060a08b0135915080821115613b7b57600080fd5b50613b888b828c01613aa5565b999c989b50969995989497949560c00135949350505050565b60006101008201905063ffffffff8084511683528060208501511660208401528060408501511660408401528060608501511660608401528060808501511660808401525068ffffffffffffffffff60a08401511660a083015260c0830151613c1060c084018261ffff169052565b5060e083015161257d60e08401827bffffffffffffffffffffffffffffffffffffffffffffffffffffffff169052565b67ffffffffffffffff8116811461259557600080fd5b80356111ca81613c40565b600080600080600060808688031215613c7957600080fd5b8535613c8481613c40565b9450602086013567ffffffffffffffff811115613ca057600080fd5b613cac888289016133b6565b9095509350506040860135613cc0816137f0565b949793965091946060013592915050565b600067ffffffffffffffff821115613ceb57613ceb613525565b5060051b60200190565b600082601f830112613d0657600080fd5b81356020613d1b613d1683613cd1565b61357e565b82815260059290921b84018101918181019086841115613d3a57600080fd5b8286015b84811015613d5e578035613d51816134a1565b8352918301918301613d3e565b509695505050505050565b803560ff811681146111ca57600080fd5b60008060008060008060c08789031215613d9357600080fd5b863567ffffffffffffffff80821115613dab57600080fd5b613db78a838b01613cf5565b97506020890135915080821115613dcd57600080fd5b613dd98a838b01613cf5565b9650613de760408a01613d69565b95506060890135915080821115613dfd57600080fd5b613e098a838b016135af565b9450613e1760808a01613c56565b935060a0890135915080821115613e2d57600080fd5b50613e3a89828a016135af565b9150509295509295509295565b600060208284031215613e5957600080fd5b813561349a816134a1565b600181811c90821680613e7857607f821691505b602082108103613eb1577f4e487b7100000000000000000000000000000000000000000000000000000000600052602260045260246000fd5b50919050565b601f82111561060f57600081815260208120601f850160051c81016020861015613ede5750805b601f850160051c820191505b8181101561089757828155600101613eea565b67ffffffffffffffff831115613f1557613f15613525565b613f2983613f238354613e64565b83613eb7565b6000601f841160018114613f7b5760008515613f455750838201355b7fffffffffffffffffffffffffffffffffffffffffffffffffffffffffffffffff600387901b1c1916600186901b178355613ff3565b600083815260209020601f19861690835b82811015613fac5786850135825560209485019460019092019101613f8c565b5086821015613fe7577fffffffffffffffffffffffffffffffffffffffffffffffffffffffffffffffff60f88860031b161c19848701351681555b505060018560011b0183555b5050505050565b80516111ca8161380d565b60006020828403121561401757600080fd5b815161349a8161380d565b7f4e487b7100000000000000000000000000000000000000000000000000000000600052603260045260246000fd5b7f4e487b7100000000000000000000000000000000000000000000000000000000600052601160045260246000fd5b6bffffffffffffffffffffffff82811682821603908082111561257d5761257d614051565b60007fffffffffffffffffffffffffffffffffffffffffffffffffffffffffffffffff82036140d6576140d6614051565b5060010190565b600061016082360312156140f057600080fd5b6140f8613554565b823567ffffffffffffffff81111561410f57600080fd5b61411b368286016135af565b82525060208301356020820152614134604084016134c3565b604082015261414560608401613676565b606082015261415660808401613824565b608082015261416760a08401613c56565b60a082015261417860c08401613c56565b60c082015261418960e08401613802565b60e082015261010061419c81850161382f565b908201526101206141ae848201613c56565b908201526101406141c08482016134c3565b9082015292915050565b6000602082840312156141dc57600080fd5b813561349a81613c40565b60008083357fffffffffffffffffffffffffffffffffffffffffffffffffffffffffffffffe184360301811261421c57600080fd5b83018035915067ffffffffffffffff82111561423757600080fd5b6020019150368190038213156133f857600080fd5b60006020828403121561425e57600080fd5b61349a8261382f565b60006020828403121561427957600080fd5b813561349a816137f0565b73ffffffffffffffffffffffffffffffffffffffff8a8116825267ffffffffffffffff8a166020830152881660408201526102406060820181905281018690526000610260878982850137600083890182015261ffff8716608084015260a0830186905263ffffffff851660c0840152601f8801601f19168301019050612ede60e0830184613973565b60ff818116838216019081111561330957613309614051565b7f4e487b7100000000000000000000000000000000000000000000000000000000600052601260045260246000fd5b600060ff83168061436957614369614327565b8060ff84160491505092915050565b7f4e487b7100000000000000000000000000000000000000000000000000000000600052602160045260246000fd5b8183823760009101908152919050565b828152606082602083013760800192915050565b808202811582820484141761330957613309614051565b8181038181111561330957613309614051565b7f4e487b7100000000000000000000000000000000000000000000000000000000600052603160045260246000fd5b63ffffffff81811683821601908082111561257d5761257d614051565b600061012063ffffffff808d1684528b6020850152808b166040850152508060608401526144718184018a613773565b905082810360808401526144858189613773565b905060ff871660a084015282810360c08401526144a28187613441565b905067ffffffffffffffff851660e08401528281036101008401526144c78185613441565b9c9b505050505050505050505050565b805169ffffffffffffffffffff811681146111ca57600080fd5b600080600080600060a0868803121561450957600080fd5b614512866144d7565b9450602086015193506040860151925060608601519150614535608087016144d7565b90509295509295909350565b600082601f83011261455257600080fd5b81356020614562613d1683613cd1565b82815260059290921b8401810191818101908684111561458157600080fd5b8286015b84811015613d5e5780358352918301918301614585565b600082601f8301126145ad57600080fd5b813560206145bd613d1683613cd1565b82815260059290921b840181019181810190868411156145dc57600080fd5b8286015b84811015613d5e57803567ffffffffffffffff8111156146005760008081fd5b61460e8986838b01016135af565b8452509183019183016145e0565b600080600080600060a0868803121561463457600080fd5b853567ffffffffffffffff8082111561464c57600080fd5b61465889838a01614541565b9650602088013591508082111561466e57600080fd5b61467a89838a0161459c565b9550604088013591508082111561469057600080fd5b61469c89838a0161459c565b945060608801359150808211156146b257600080fd5b6146be89838a0161459c565b935060808801359150808211156146d457600080fd5b506146e18882890161459c565b9150509295509295909350565b60006bffffffffffffffffffffffff8084168061470d5761470d614327565b92169190910492915050565b6bffffffffffffffffffffffff81811683821601908082111561257d5761257d614051565b6bffffffffffffffffffffffff81811683821602808216919082811461476657614766614051565b505092915050565b67ffffffffffffffff81811683821601908082111561257d5761257d614051565b8082018082111561330957613309614051565b6000826147b1576147b1614327565b500490565b60006101208b835273ffffffffffffffffffffffffffffffffffffffff8b16602084015267ffffffffffffffff808b1660408501528160608501526147fd8285018b613773565b91508382036080850152614811828a613773565b915060ff881660a085015283820360c085015261482e8288613441565b90861660e085015283810361010085015290506144c78185613441565b80516111ca816134a1565b80516111ca8161365c565b80516111ca81613c40565b80516111ca816137f0565b805164ffffffffff811681146111ca57600080fd5b6000610160828403121561489f57600080fd5b6148a7613554565b825181526148b76020840161484b565b60208201526148c860408401614856565b60408201526148d96060840161484b565b60608201526148ea60808401614861565b60808201526148fb60a0840161486c565b60a082015261490c60c08401613ffa565b60c082015261491d60e08401613ffa565b60e0820152610100614930818501614877565b90820152610120614942848201614877565b9082015261014061495484820161486c565b908201529392505050565b64ffffffffff81811683821601908082111561257d5761257d614051565b60006102008083526149918184018a613441565b905082810360208401526149a58189613441565b6bffffffffffffffffffffffff88811660408601528716606085015273ffffffffffffffffffffffffffffffffffffffff8616608085015291506149ee905060a0830184613973565b979650505050505050565b60008060408385031215614a0c57600080fd5b825160078110614a1b57600080fd5b60208401519092506136af8161365c56fea164736f6c6343000815000a",
    "linkReferences": {}
  },
  "methodIdentifiers": {
    "acceptOwnership()": "79ba5097",
    "callReport(bytes)": "736d7e0f",
    "callReportMultipleSigners(bytes,address)": "3901c40e",
    "callReportWithSigners(bytes,address[31])": "77d28a35",
    "deleteCommitment(bytes32)": "85b214cf",
    "estimateCost(uint64,bytes,uint32,uint256)": "d227d245",
    "getAdminFee()": "2a905ccc",
    "getConfig()": "c3f909d4",
    "getDONFee(bytes)": "59b5b7ac",
    "getDONPublicKey()": "d328a91e",
    "getThresholdPublicKey()": "81f1b938",
    "getWeiPerUnitLink()": "e4ddcea6",
    "latestConfigDetails()": "81ff7048",
    "latestConfigDigestAndEpoch()": "afcb95d7",
    "oracleWithdraw(address,uint96)": "66316d8d",
    "oracleWithdrawAll()": "7d480787",
    "owner()": "8da5cb5b",
    "setConfig(address[],address[],uint8,bytes,uint64,bytes)": "e3d0e712",
    "setDONPublicKey(bytes)": "7f15e166",
    "setThresholdPublicKey(bytes)": "083a5466",
    "startRequest((bytes,bytes32,address,uint96,uint72,uint64,uint64,uint32,uint16,uint64,address))": "a631571e",
    "transferOwnership(address)": "f2fde38b",
    "transmit(bytes32[3],bytes,bytes32[],bytes32[],bytes32)": "b1dc65a4",
    "transmitters()": "81411834",
    "typeAndVersion()": "181f5a77",
    "updateConfig((uint32,uint32,uint32,uint32,uint32,uint72,uint16,uint224))": "9314176d"
  },
  "id": 216
}