{
  "abi": [
    {
      "inputs": [
        {
          "internalType": "string",
          "name": "name",
          "type": "string"
        },
        {
          "internalType": "string",
          "name": "symbol",
          "type": "string"
        },
        {
          "internalType": "uint8",
          "name": "decimals_",
          "type": "uint8"
        },
        {
          "internalType": "uint256",
          "name": "maxSupply_",
          "type": "uint256"
        },
        {
          "internalType": "address",
          "name": "l1Token",
          "type": "address"
        },
        {
          "internalType": "address",
          "name": "l2Bridge",
          "type": "address"
        }
      ],
      "stateMutability": "nonpayable",
      "type": "constructor"
    },
    {
      "inputs": [
        {
          "internalType": "uint256",
          "name": "supplyAfterMint",
          "type": "uint256"
        }
      ],
      "name": "MaxSupplyExceeded",
      "type": "error"
    },
    {
      "inputs": [
        {
          "internalType": "address",
          "name": "sender",
          "type": "address"
        }
      ],
      "name": "SenderNotBurner",
      "type": "error"
    },
    {
      "inputs": [
        {
          "internalType": "address",
          "name": "sender",
          "type": "address"
        }
      ],
      "name": "SenderNotMinter",
      "type": "error"
    },
    {
      "anonymous": false,
      "inputs": [
        {
          "indexed": true,
          "internalType": "address",
          "name": "owner",
          "type": "address"
        },
        {
          "indexed": true,
          "internalType": "address",
          "name": "spender",
          "type": "address"
        },
        {
          "indexed": false,
          "internalType": "uint256",
          "name": "value",
          "type": "uint256"
        }
      ],
      "name": "Approval",
      "type": "event"
    },
    {
      "anonymous": false,
      "inputs": [
        {
          "indexed": true,
          "internalType": "address",
          "name": "burner",
          "type": "address"
        }
      ],
      "name": "BurnAccessGranted",
      "type": "event"
    },
    {
      "anonymous": false,
      "inputs": [
        {
          "indexed": true,
          "internalType": "address",
          "name": "burner",
          "type": "address"
        }
      ],
      "name": "BurnAccessRevoked",
      "type": "event"
    },
    {
      "anonymous": false,
      "inputs": [
        {
          "indexed": true,
          "internalType": "address",
          "name": "minter",
          "type": "address"
        }
      ],
      "name": "MintAccessGranted",
      "type": "event"
    },
    {
      "anonymous": false,
      "inputs": [
        {
          "indexed": true,
          "internalType": "address",
          "name": "minter",
          "type": "address"
        }
      ],
      "name": "MintAccessRevoked",
      "type": "event"
    },
    {
      "anonymous": false,
      "inputs": [
        {
          "indexed": true,
          "internalType": "address",
          "name": "from",
          "type": "address"
        },
        {
          "indexed": true,
          "internalType": "address",
          "name": "to",
          "type": "address"
        }
      ],
      "name": "OwnershipTransferRequested",
      "type": "event"
    },
    {
      "anonymous": false,
      "inputs": [
        {
          "indexed": true,
          "internalType": "address",
          "name": "from",
          "type": "address"
        },
        {
          "indexed": true,
          "internalType": "address",
          "name": "to",
          "type": "address"
        }
      ],
      "name": "OwnershipTransferred",
      "type": "event"
    },
    {
      "anonymous": false,
      "inputs": [
        {
          "indexed": true,
          "internalType": "address",
          "name": "from",
          "type": "address"
        },
        {
          "indexed": true,
          "internalType": "address",
          "name": "to",
          "type": "address"
        },
        {
          "indexed": false,
          "internalType": "uint256",
          "name": "value",
          "type": "uint256"
        },
        {
          "indexed": false,
          "internalType": "bytes",
          "name": "data",
          "type": "bytes"
        }
      ],
      "name": "Transfer",
      "type": "event"
    },
    {
      "anonymous": false,
      "inputs": [
        {
          "indexed": true,
          "internalType": "address",
          "name": "from",
          "type": "address"
        },
        {
          "indexed": true,
          "internalType": "address",
          "name": "to",
          "type": "address"
        },
        {
          "indexed": false,
          "internalType": "uint256",
          "name": "value",
          "type": "uint256"
        }
      ],
      "name": "Transfer",
      "type": "event"
    },
    {
      "inputs": [],
      "name": "acceptOwnership",
      "outputs": [],
      "stateMutability": "nonpayable",
      "type": "function"
    },
    {
      "inputs": [
        {
          "internalType": "address",
          "name": "owner",
          "type": "address"
        },
        {
          "internalType": "address",
          "name": "spender",
          "type": "address"
        }
      ],
      "name": "allowance",
      "outputs": [
        {
          "internalType": "uint256",
          "name": "",
          "type": "uint256"
        }
      ],
      "stateMutability": "view",
      "type": "function"
    },
    {
      "inputs": [
        {
          "internalType": "address",
          "name": "spender",
          "type": "address"
        },
        {
          "internalType": "uint256",
          "name": "amount",
          "type": "uint256"
        }
      ],
      "name": "approve",
      "outputs": [
        {
          "internalType": "bool",
          "name": "",
          "type": "bool"
        }
      ],
      "stateMutability": "nonpayable",
      "type": "function"
    },
    {
      "inputs": [
        {
          "internalType": "address",
          "name": "account",
          "type": "address"
        }
      ],
      "name": "balanceOf",
      "outputs": [
        {
          "internalType": "uint256",
          "name": "",
          "type": "uint256"
        }
      ],
      "stateMutability": "view",
      "type": "function"
    },
    {
      "inputs": [],
      "name": "bridge",
      "outputs": [
        {
          "internalType": "address",
          "name": "",
          "type": "address"
        }
      ],
      "stateMutability": "view",
      "type": "function"
    },
    {
      "inputs": [
        {
          "internalType": "uint256",
          "name": "amount",
          "type": "uint256"
        }
      ],
      "name": "burn",
      "outputs": [],
      "stateMutability": "nonpayable",
      "type": "function"
    },
    {
      "inputs": [
        {
          "internalType": "address",
          "name": "account",
          "type": "address"
        },
        {
          "internalType": "uint256",
          "name": "amount",
          "type": "uint256"
        }
      ],
      "name": "burn",
      "outputs": [],
      "stateMutability": "nonpayable",
      "type": "function"
    },
    {
      "inputs": [
        {
          "internalType": "address",
          "name": "account",
          "type": "address"
        },
        {
          "internalType": "uint256",
          "name": "amount",
          "type": "uint256"
        }
      ],
      "name": "burnFrom",
      "outputs": [],
      "stateMutability": "nonpayable",
      "type": "function"
    },
    {
      "inputs": [],
      "name": "decimals",
      "outputs": [
        {
          "internalType": "uint8",
          "name": "",
          "type": "uint8"
        }
      ],
      "stateMutability": "view",
      "type": "function"
    },
    {
      "inputs": [
        {
          "internalType": "address",
          "name": "spender",
          "type": "address"
        },
        {
          "internalType": "uint256",
          "name": "subtractedValue",
          "type": "uint256"
        }
      ],
      "name": "decreaseAllowance",
      "outputs": [
        {
          "internalType": "bool",
          "name": "",
          "type": "bool"
        }
      ],
      "stateMutability": "nonpayable",
      "type": "function"
    },
    {
      "inputs": [
        {
          "internalType": "address",
          "name": "spender",
          "type": "address"
        },
        {
          "internalType": "uint256",
          "name": "subtractedValue",
          "type": "uint256"
        }
      ],
      "name": "decreaseApproval",
      "outputs": [
        {
          "internalType": "bool",
          "name": "success",
          "type": "bool"
        }
      ],
      "stateMutability": "nonpayable",
      "type": "function"
    },
    {
      "inputs": [],
      "name": "getBurners",
      "outputs": [
        {
          "internalType": "address[]",
          "name": "",
          "type": "address[]"
        }
      ],
      "stateMutability": "view",
      "type": "function"
    },
    {
      "inputs": [],
      "name": "getMinters",
      "outputs": [
        {
          "internalType": "address[]",
          "name": "",
          "type": "address[]"
        }
      ],
      "stateMutability": "view",
      "type": "function"
    },
    {
      "inputs": [
        {
          "internalType": "address",
          "name": "burner",
          "type": "address"
        }
      ],
      "name": "grantBurnRole",
      "outputs": [],
      "stateMutability": "nonpayable",
      "type": "function"
    },
    {
      "inputs": [
        {
          "internalType": "address",
          "name": "burnAndMinter",
          "type": "address"
        }
      ],
      "name": "grantMintAndBurnRoles",
      "outputs": [],
      "stateMutability": "nonpayable",
      "type": "function"
    },
    {
      "inputs": [
        {
          "internalType": "address",
          "name": "minter",
          "type": "address"
        }
      ],
      "name": "grantMintRole",
      "outputs": [],
      "stateMutability": "nonpayable",
      "type": "function"
    },
    {
      "inputs": [
        {
          "internalType": "address",
          "name": "spender",
          "type": "address"
        },
        {
          "internalType": "uint256",
          "name": "addedValue",
          "type": "uint256"
        }
      ],
      "name": "increaseAllowance",
      "outputs": [
        {
          "internalType": "bool",
          "name": "",
          "type": "bool"
        }
      ],
      "stateMutability": "nonpayable",
      "type": "function"
    },
    {
      "inputs": [
        {
          "internalType": "address",
          "name": "spender",
          "type": "address"
        },
        {
          "internalType": "uint256",
          "name": "addedValue",
          "type": "uint256"
        }
      ],
      "name": "increaseApproval",
      "outputs": [],
      "stateMutability": "nonpayable",
      "type": "function"
    },
    {
      "inputs": [
        {
          "internalType": "address",
          "name": "burner",
          "type": "address"
        }
      ],
      "name": "isBurner",
      "outputs": [
        {
          "internalType": "bool",
          "name": "",
          "type": "bool"
        }
      ],
      "stateMutability": "view",
      "type": "function"
    },
    {
      "inputs": [
        {
          "internalType": "address",
          "name": "minter",
          "type": "address"
        }
      ],
      "name": "isMinter",
      "outputs": [
        {
          "internalType": "bool",
          "name": "",
          "type": "bool"
        }
      ],
      "stateMutability": "view",
      "type": "function"
    },
    {
      "inputs": [],
      "name": "maxSupply",
      "outputs": [
        {
          "internalType": "uint256",
          "name": "",
          "type": "uint256"
        }
      ],
      "stateMutability": "view",
      "type": "function"
    },
    {
      "inputs": [
        {
          "internalType": "address",
          "name": "account",
          "type": "address"
        },
        {
          "internalType": "uint256",
          "name": "amount",
          "type": "uint256"
        }
      ],
      "name": "mint",
      "outputs": [],
      "stateMutability": "nonpayable",
      "type": "function"
    },
    {
      "inputs": [],
      "name": "name",
      "outputs": [
        {
          "internalType": "string",
          "name": "",
          "type": "string"
        }
      ],
      "stateMutability": "view",
      "type": "function"
    },
    {
      "inputs": [],
      "name": "owner",
      "outputs": [
        {
          "internalType": "address",
          "name": "",
          "type": "address"
        }
      ],
      "stateMutability": "view",
      "type": "function"
    },
    {
      "inputs": [],
      "name": "remoteToken",
      "outputs": [
        {
          "internalType": "address",
          "name": "",
          "type": "address"
        }
      ],
      "stateMutability": "view",
      "type": "function"
    },
    {
      "inputs": [
        {
          "internalType": "address",
          "name": "burner",
          "type": "address"
        }
      ],
      "name": "revokeBurnRole",
      "outputs": [],
      "stateMutability": "nonpayable",
      "type": "function"
    },
    {
      "inputs": [
        {
          "internalType": "address",
          "name": "minter",
          "type": "address"
        }
      ],
      "name": "revokeMintRole",
      "outputs": [],
      "stateMutability": "nonpayable",
      "type": "function"
    },
    {
      "inputs": [
        {
          "internalType": "bytes4",
          "name": "interfaceId",
          "type": "bytes4"
        }
      ],
      "name": "supportsInterface",
      "outputs": [
        {
          "internalType": "bool",
          "name": "",
          "type": "bool"
        }
      ],
      "stateMutability": "pure",
      "type": "function"
    },
    {
      "inputs": [],
      "name": "symbol",
      "outputs": [
        {
          "internalType": "string",
          "name": "",
          "type": "string"
        }
      ],
      "stateMutability": "view",
      "type": "function"
    },
    {
      "inputs": [],
      "name": "totalSupply",
      "outputs": [
        {
          "internalType": "uint256",
          "name": "",
          "type": "uint256"
        }
      ],
      "stateMutability": "view",
      "type": "function"
    },
    {
      "inputs": [
        {
          "internalType": "address",
          "name": "to",
          "type": "address"
        },
        {
          "internalType": "uint256",
          "name": "amount",
          "type": "uint256"
        }
      ],
      "name": "transfer",
      "outputs": [
        {
          "internalType": "bool",
          "name": "",
          "type": "bool"
        }
      ],
      "stateMutability": "nonpayable",
      "type": "function"
    },
    {
      "inputs": [
        {
          "internalType": "address",
          "name": "to",
          "type": "address"
        },
        {
          "internalType": "uint256",
          "name": "amount",
          "type": "uint256"
        },
        {
          "internalType": "bytes",
          "name": "data",
          "type": "bytes"
        }
      ],
      "name": "transferAndCall",
      "outputs": [
        {
          "internalType": "bool",
          "name": "success",
          "type": "bool"
        }
      ],
      "stateMutability": "nonpayable",
      "type": "function"
    },
    {
      "inputs": [
        {
          "internalType": "address",
          "name": "from",
          "type": "address"
        },
        {
          "internalType": "address",
          "name": "to",
          "type": "address"
        },
        {
          "internalType": "uint256",
          "name": "amount",
          "type": "uint256"
        }
      ],
      "name": "transferFrom",
      "outputs": [
        {
          "internalType": "bool",
          "name": "",
          "type": "bool"
        }
      ],
      "stateMutability": "nonpayable",
      "type": "function"
    },
    {
      "inputs": [
        {
          "internalType": "address",
          "name": "to",
          "type": "address"
        }
      ],
      "name": "transferOwnership",
      "outputs": [],
      "stateMutability": "nonpayable",
      "type": "function"
    }
  ],
  "bytecode": {
    "object": "0x6101006040523480156200001257600080fd5b506040516200233e3803806200233e8339810160408190526200003591620002af565b85858585338060008686818160036200004f8382620003f0565b5060046200005e8282620003f0565b5050506001600160a01b0384169150620000c190505760405162461bcd60e51b815260206004820152601860248201527f43616e6e6f7420736574206f776e657220746f207a65726f000000000000000060448201526064015b60405180910390fd5b600580546001600160a01b0319166001600160a01b0384811691909117909155811615620000f457620000f48162000121565b50505060ff90911660805260a05250506001600160a01b0391821660c0521660e05250620004bc92505050565b336001600160a01b038216036200017b5760405162461bcd60e51b815260206004820152601760248201527f43616e6e6f74207472616e7366657220746f2073656c660000000000000000006044820152606401620000b8565b600680546001600160a01b0319166001600160a01b03838116918217909255600554604051919216907fed8889f560326eb138920d842192f0eb3dd22b4f139c87a2c57538e05bae127890600090a350565b634e487b7160e01b600052604160045260246000fd5b600082601f830112620001f557600080fd5b81516001600160401b0380821115620002125762000212620001cd565b604051601f8301601f19908116603f011681019082821181831017156200023d576200023d620001cd565b816040528381526020925086838588010111156200025a57600080fd5b600091505b838210156200027e57858201830151818301840152908201906200025f565b600093810190920192909252949350505050565b80516001600160a01b0381168114620002aa57600080fd5b919050565b60008060008060008060c08789031215620002c957600080fd5b86516001600160401b0380821115620002e157600080fd5b620002ef8a838b01620001e3565b975060208901519150808211156200030657600080fd5b506200031589828a01620001e3565b955050604087015160ff811681146200032d57600080fd5b60608801519094509250620003456080880162000292565b91506200035560a0880162000292565b90509295509295509295565b600181811c908216806200037657607f821691505b6020821081036200039757634e487b7160e01b600052602260045260246000fd5b50919050565b601f821115620003eb57600081815260208120601f850160051c81016020861015620003c65750805b601f850160051c820191505b81811015620003e757828155600101620003d2565b5050505b505050565b81516001600160401b038111156200040c576200040c620001cd565b62000424816200041d845462000361565b846200039d565b602080601f8311600181146200045c5760008415620004435750858301515b600019600386901b1c1916600185901b178555620003e7565b600085815260208120601f198616915b828110156200048d578886015182559484019460019091019084016200046c565b5085821015620004ac5787850151600019600388901b60f8161c191681555b5050505050600190811b01905550565b60805160a05160c05160e051611e3a620005046000396000610539015260006104ba015260008181610494015281816108d301526108fd015260006102a70152611e3a6000f3fe608060405234801561001057600080fd5b50600436106102265760003560e01c806386fe8b431161012a578063c630948d116100bd578063d73dd6231161008c578063e78cea9211610071578063e78cea9214610537578063f2fde38b1461055d578063f81094f31461057057600080fd5b8063d73dd623146104de578063dd62ed3e146104f157600080fd5b8063c630948d1461046c578063c64d0ebc1461047f578063d5abeb0114610492578063d6c0b2c4146104b857600080fd5b8063a457c2d7116100f9578063a457c2d714610420578063a9059cbb14610433578063aa271e1a14610446578063c2e3273d1461045957600080fd5b806386fe8b43146103be5780638da5cb5b146103c657806395d89b41146104055780639dc29fac1461040d57600080fd5b806340c10f19116101bd578063661884631161018c57806370a082311161017157806370a082311461036d57806379ba5097146103a357806379cc6790146103ab57600080fd5b806366188463146103455780636b32810b1461035857600080fd5b806340c10f19146102f757806342966c681461030c5780634334614a1461031f5780634f5632f81461033257600080fd5b806323b872dd116101f957806323b872dd1461028d578063313ce567146102a057806339509351146102d15780634000aea0146102e457600080fd5b806301ffc9a71461022b57806306fdde0314610253578063095ea7b31461026857806318160ddd1461027b575b600080fd5b61023e6102393660046119a7565b610583565b60405190151581526020015b60405180910390f35b61025b61062b565b60405161024a9190611a4d565b61023e610276366004611a89565b6106bd565b6002545b60405190815260200161024a565b61023e61029b366004611ab3565b6106d5565b60405160ff7f000000000000000000000000000000000000000000000000000000000000000016815260200161024a565b61023e6102df366004611a89565b6106f9565b61023e6102f2366004611b1e565b610745565b61030a610305366004611a89565b610868565b005b61030a61031a366004611c07565b61098f565b61023e61032d366004611c20565b6109dc565b61030a610340366004611c20565b6109e9565b61023e610353366004611a89565b610a45565b610360610a58565b60405161024a9190611c3b565b61027f61037b366004611c20565b73ffffffffffffffffffffffffffffffffffffffff1660009081526020819052604090205490565b61030a610a69565b61030a6103b9366004611a89565b610b50565b610360610b9f565b60055473ffffffffffffffffffffffffffffffffffffffff165b60405173ffffffffffffffffffffffffffffffffffffffff909116815260200161024a565b61025b610bab565b61030a61041b366004611a89565b610bba565b61023e61042e366004611a89565b610bc4565b61023e610441366004611a89565b610c7b565b61023e610454366004611c20565b610c89565b61030a610467366004611c20565b610c96565b61030a61047a366004611c20565b610cf2565b61030a61048d366004611c20565b610d00565b7f000000000000000000000000000000000000000000000000000000000000000061027f565b7f00000000000000000000000000000000000000000000000000000000000000006103e0565b61030a6104ec366004611a89565b610d5c565b61027f6104ff366004611c95565b73ffffffffffffffffffffffffffffffffffffffff918216600090815260016020908152604080832093909416825291909152205490565b7f00000000000000000000000000000000000000000000000000000000000000006103e0565b61030a61056b366004611c20565b610d66565b61030a61057e366004611c20565b610d77565b60007fffffffff0000000000000000000000000000000000000000000000000000000082167fdd0390b500000000000000000000000000000000000000000000000000000000148061061657507fffffffff0000000000000000000000000000000000000000000000000000000082167f314c585600000000000000000000000000000000000000000000000000000000145b80610625575061062582610dd3565b92915050565b60606003805461063a90611cc8565b80601f016020809104026020016040519081016040528092919081815260200182805461066690611cc8565b80156106b35780601f10610688576101008083540402835291602001916106b3565b820191906000526020600020905b81548152906001019060200180831161069657829003601f168201915b5050505050905090565b6000336106cb818585610f03565b5060019392505050565b6000336106e3858285610f37565b6106ee858585610fee565b506001949350505050565b33600081815260016020908152604080832073ffffffffffffffffffffffffffffffffffffffff871684529091528120549091906106cb9082908690610740908790611d4a565b610f03565b60006107518484610c7b565b508373ffffffffffffffffffffffffffffffffffffffff163373ffffffffffffffffffffffffffffffffffffffff167fe19260aff97b920c7df27010903aeb9c8d2be5d310a2c67824cf3f15396e4c1685856040516107b1929190611d5d565b60405180910390a373ffffffffffffffffffffffffffffffffffffffff84163b156106cb576040517fa4c0ed3600000000000000000000000000000000000000000000000000000000815273ffffffffffffffffffffffffffffffffffffffff85169063a4c0ed369061082c90339087908790600401611d7e565b600060405180830381600087803b15801561084657600080fd5b505af115801561085a573d6000803e3d6000fd5b505050505060019392505050565b61087133610c89565b6108ae576040517fe2c8c9d50000000000000000000000000000000000000000000000000000000081523360048201526024015b60405180910390fd5b813073ffffffffffffffffffffffffffffffffffffffff8216036108d157600080fd5b7f00000000000000000000000000000000000000000000000000000000000000001580159061093257507f00000000000000000000000000000000000000000000000000000000000000008261092660025490565b6109309190611d4a565b115b15610980578161094160025490565b61094b9190611d4a565b6040517fcbbf11130000000000000000000000000000000000000000000000000000000081526004016108a591815260200190565b61098a838361101c565b505050565b610998336109dc565b6109d0576040517fc820b10b0000000000000000000000000000000000000000000000000000000081523360048201526024016108a5565b6109d9816110f5565b50565b60006106256009836110ff565b6109f161112e565b6109fc600982611197565b156109d95760405173ffffffffffffffffffffffffffffffffffffffff8216907f0a675452746933cefe3d74182e78db7afe57ba60eaa4234b5d85e9aa41b0610c90600090a250565b6000610a518383610bc4565b9392505050565b6060610a6460076111b9565b905090565b60065473ffffffffffffffffffffffffffffffffffffffff163314610ad05760405162461bcd60e51b815260206004820152601660248201527f4d7573742062652070726f706f736564206f776e65720000000000000000000060448201526064016108a5565b600580547fffffffffffffffffffffffff00000000000000000000000000000000000000008082163390811790935560068054909116905560405173ffffffffffffffffffffffffffffffffffffffff909116919082907f8be0079c531659141344cd1fd0a4f28419497f9722a3daafe3b4186f6b6457e090600090a350565b610b59336109dc565b610b91576040517fc820b10b0000000000000000000000000000000000000000000000000000000081523360048201526024016108a5565b610b9b82826111c6565b5050565b6060610a6460096111b9565b60606004805461063a90611cc8565b610b9b8282610b50565b33600081815260016020908152604080832073ffffffffffffffffffffffffffffffffffffffff8716845290915281205490919083811015610c6e5760405162461bcd60e51b815260206004820152602560248201527f45524332303a2064656372656173656420616c6c6f77616e63652062656c6f7760448201527f207a65726f00000000000000000000000000000000000000000000000000000060648201526084016108a5565b6106ee8286868403610f03565b6000336106cb818585610fee565b60006106256007836110ff565b610c9e61112e565b610ca96007826111db565b156109d95760405173ffffffffffffffffffffffffffffffffffffffff8216907fe46fef8bbff1389d9010703cf8ebb363fb3daf5bf56edc27080b67bc8d9251ea90600090a250565b610cfb81610c96565b6109d9815b610d0861112e565b610d136009826111db565b156109d95760405173ffffffffffffffffffffffffffffffffffffffff8216907f92308bb7573b2a3d17ddb868b39d8ebec433f3194421abc22d084f89658c9bad90600090a250565b61098a82826106f9565b610d6e61112e565b6109d9816111fd565b610d7f61112e565b610d8a600782611197565b156109d95760405173ffffffffffffffffffffffffffffffffffffffff8216907fed998b960f6340d045f620c119730f7aa7995e7425c2401d3a5b64ff998a59e990600090a250565b60007fffffffff0000000000000000000000000000000000000000000000000000000082167f36372b07000000000000000000000000000000000000000000000000000000001480610e6657507fffffffff0000000000000000000000000000000000000000000000000000000082167f4000aea000000000000000000000000000000000000000000000000000000000145b80610eb257507fffffffff0000000000000000000000000000000000000000000000000000000082167fe6599b4d00000000000000000000000000000000000000000000000000000000145b8061062557507fffffffff0000000000000000000000000000000000000000000000000000000082167f01ffc9a7000000000000000000000000000000000000000000000000000000001492915050565b813073ffffffffffffffffffffffffffffffffffffffff821603610f2657600080fd5b610f318484846112d9565b50505050565b73ffffffffffffffffffffffffffffffffffffffff8381166000908152600160209081526040808320938616835292905220547fffffffffffffffffffffffffffffffffffffffffffffffffffffffffffffffff8114610f315781811015610fe15760405162461bcd60e51b815260206004820152601d60248201527f45524332303a20696e73756666696369656e7420616c6c6f77616e636500000060448201526064016108a5565b610f318484848403610f03565b813073ffffffffffffffffffffffffffffffffffffffff82160361101157600080fd5b610f31848484611458565b73ffffffffffffffffffffffffffffffffffffffff821661107f5760405162461bcd60e51b815260206004820152601f60248201527f45524332303a206d696e7420746f20746865207a65726f20616464726573730060448201526064016108a5565b80600260008282546110919190611d4a565b909155505073ffffffffffffffffffffffffffffffffffffffff8216600081815260208181526040808320805486019055518481527fddf252ad1be2c89b69c2b068fc378daa952ba7f163c4a11628f55a4df523b3ef910160405180910390a35050565b6109d93382611679565b73ffffffffffffffffffffffffffffffffffffffff811660009081526001830160205260408120541515610a51565b60055473ffffffffffffffffffffffffffffffffffffffff1633146111955760405162461bcd60e51b815260206004820152601660248201527f4f6e6c792063616c6c61626c65206279206f776e65720000000000000000000060448201526064016108a5565b565b6000610a518373ffffffffffffffffffffffffffffffffffffffff8416611809565b60606000610a51836118fc565b6111d1823383610f37565b610b9b8282611679565b6000610a518373ffffffffffffffffffffffffffffffffffffffff8416611958565b3373ffffffffffffffffffffffffffffffffffffffff8216036112625760405162461bcd60e51b815260206004820152601760248201527f43616e6e6f74207472616e7366657220746f2073656c6600000000000000000060448201526064016108a5565b600680547fffffffffffffffffffffffff00000000000000000000000000000000000000001673ffffffffffffffffffffffffffffffffffffffff838116918217909255600554604051919216907fed8889f560326eb138920d842192f0eb3dd22b4f139c87a2c57538e05bae127890600090a350565b73ffffffffffffffffffffffffffffffffffffffff83166113615760405162461bcd60e51b8152602060048201526024808201527f45524332303a20617070726f76652066726f6d20746865207a65726f2061646460448201527f726573730000000000000000000000000000000000000000000000000000000060648201526084016108a5565b73ffffffffffffffffffffffffffffffffffffffff82166113ea5760405162461bcd60e51b815260206004820152602260248201527f45524332303a20617070726f766520746f20746865207a65726f20616464726560448201527f737300000000000000000000000000000000000000000000000000000000000060648201526084016108a5565b73ffffffffffffffffffffffffffffffffffffffff83811660008181526001602090815260408083209487168084529482529182902085905590518481527f8c5be1e5ebec7d5bd14f71427d1e84f3dd0314c0f7b2291e5b200ac8c7c3b925910160405180910390a3505050565b73ffffffffffffffffffffffffffffffffffffffff83166114e15760405162461bcd60e51b815260206004820152602560248201527f45524332303a207472616e736665722066726f6d20746865207a65726f20616460448201527f647265737300000000000000000000000000000000000000000000000000000060648201526084016108a5565b73ffffffffffffffffffffffffffffffffffffffff821661156a5760405162461bcd60e51b815260206004820152602360248201527f45524332303a207472616e7366657220746f20746865207a65726f206164647260448201527f657373000000000000000000000000000000000000000000000000000000000060648201526084016108a5565b73ffffffffffffffffffffffffffffffffffffffff8316600090815260208190526040902054818110156116065760405162461bcd60e51b815260206004820152602660248201527f45524332303a207472616e7366657220616d6f756e742065786365656473206260448201527f616c616e6365000000000000000000000000000000000000000000000000000060648201526084016108a5565b73ffffffffffffffffffffffffffffffffffffffff848116600081815260208181526040808320878703905593871680835291849020805487019055925185815290927fddf252ad1be2c89b69c2b068fc378daa952ba7f163c4a11628f55a4df523b3ef910160405180910390a3610f31565b73ffffffffffffffffffffffffffffffffffffffff82166117025760405162461bcd60e51b815260206004820152602160248201527f45524332303a206275726e2066726f6d20746865207a65726f2061646472657360448201527f730000000000000000000000000000000000000000000000000000000000000060648201526084016108a5565b73ffffffffffffffffffffffffffffffffffffffff82166000908152602081905260409020548181101561179e5760405162461bcd60e51b815260206004820152602260248201527f45524332303a206275726e20616d6f756e7420657863656564732062616c616e60448201527f636500000000000000000000000000000000000000000000000000000000000060648201526084016108a5565b73ffffffffffffffffffffffffffffffffffffffff83166000818152602081815260408083208686039055600280548790039055518581529192917fddf252ad1be2c89b69c2b068fc378daa952ba7f163c4a11628f55a4df523b3ef910160405180910390a3505050565b600081815260018301602052604081205480156118f257600061182d600183611dbc565b855490915060009061184190600190611dbc565b90508181146118a657600086600001828154811061186157611861611dcf565b906000526020600020015490508087600001848154811061188457611884611dcf565b6000918252602080832090910192909255918252600188019052604090208390555b85548690806118b7576118b7611dfe565b600190038181906000526020600020016000905590558560010160008681526020019081526020016000206000905560019350505050610625565b6000915050610625565b60608160000180548060200260200160405190810160405280929190818152602001828054801561194c57602002820191906000526020600020905b815481526020019060010190808311611938575b50505050509050919050565b600081815260018301602052604081205461199f57508154600181810184556000848152602080822090930184905584548482528286019093526040902091909155610625565b506000610625565b6000602082840312156119b957600080fd5b81357fffffffff0000000000000000000000000000000000000000000000000000000081168114610a5157600080fd5b6000815180845260005b81811015611a0f576020818501810151868301820152016119f3565b5060006020828601015260207fffffffffffffffffffffffffffffffffffffffffffffffffffffffffffffffe0601f83011685010191505092915050565b602081526000610a5160208301846119e9565b803573ffffffffffffffffffffffffffffffffffffffff81168114611a8457600080fd5b919050565b60008060408385031215611a9c57600080fd5b611aa583611a60565b946020939093013593505050565b600080600060608486031215611ac857600080fd5b611ad184611a60565b9250611adf60208501611a60565b9150604084013590509250925092565b7f4e487b7100000000000000000000000000000000000000000000000000000000600052604160045260246000fd5b600080600060608486031215611b3357600080fd5b611b3c84611a60565b925060208401359150604084013567ffffffffffffffff80821115611b6057600080fd5b818601915086601f830112611b7457600080fd5b813581811115611b8657611b86611aef565b604051601f82017fffffffffffffffffffffffffffffffffffffffffffffffffffffffffffffffe0908116603f01168101908382118183101715611bcc57611bcc611aef565b81604052828152896020848701011115611be557600080fd5b8260208601602083013760006020848301015280955050505050509250925092565b600060208284031215611c1957600080fd5b5035919050565b600060208284031215611c3257600080fd5b610a5182611a60565b6020808252825182820181905260009190848201906040850190845b81811015611c8957835173ffffffffffffffffffffffffffffffffffffffff1683529284019291840191600101611c57565b50909695505050505050565b60008060408385031215611ca857600080fd5b611cb183611a60565b9150611cbf60208401611a60565b90509250929050565b600181811c90821680611cdc57607f821691505b602082108103611d15577f4e487b7100000000000000000000000000000000000000000000000000000000600052602260045260246000fd5b50919050565b7f4e487b7100000000000000000000000000000000000000000000000000000000600052601160045260246000fd5b8082018082111561062557610625611d1b565b828152604060208201526000611d7660408301846119e9565b949350505050565b73ffffffffffffffffffffffffffffffffffffffff84168152826020820152606060408201526000611db360608301846119e9565b95945050505050565b8181038181111561062557610625611d1b565b7f4e487b7100000000000000000000000000000000000000000000000000000000600052603260045260246000fd5b7f4e487b7100000000000000000000000000000000000000000000000000000000600052603160045260246000fdfea164736f6c6343000815000a",
    "linkReferences": {}
  },
  "methodIdentifiers": {
    "acceptOwnership()": "79ba5097",
    "allowance(address,address)": "dd62ed3e",
    "approve(address,uint256)": "095ea7b3",
    "balanceOf(address)": "70a08231",
    "bridge()": "e78cea92",
    "burn(address,uint256)": "9dc29fac",
    "burn(uint256)": "42966c68",
    "burnFrom(address,uint256)": "79cc6790",
    "decimals()": "313ce567",
    "decreaseAllowance(address,uint256)": "a457c2d7",
    "decreaseApproval(address,uint256)": "66188463",
    "getBurners()": "86fe8b43",
    "getMinters()": "6b32810b",
    "grantBurnRole(address)": "c64d0ebc",
    "grantMintAndBurnRoles(address)": "c630948d",
    "grantMintRole(address)": "c2e3273d",
    "increaseAllowance(address,uint256)": "39509351",
    "increaseApproval(address,uint256)": "d73dd623",
    "isBurner(address)": "4334614a",
    "isMinter(address)": "aa271e1a",
    "maxSupply()": "d5abeb01",
    "mint(address,uint256)": "40c10f19",
    "name()": "06fdde03",
    "owner()": "8da5cb5b",
    "remoteToken()": "d6c0b2c4",
    "revokeBurnRole(address)": "4f5632f8",
    "revokeMintRole(address)": "f81094f3",
    "supportsInterface(bytes4)": "01ffc9a7",
    "symbol()": "95d89b41",
    "totalSupply()": "18160ddd",
    "transfer(address,uint256)": "a9059cbb",
    "transferAndCall(address,uint256,bytes)": "4000aea0",
    "transferFrom(address,address,uint256)": "23b872dd",
    "transferOwnership(address)": "f2fde38b"
  },
  "id": 275
}