{
  "abi": [
    {
      "inputs": [
        {
          "internalType": "contract IRouterClient",
          "name": "router",
          "type": "address"
        },
        {
          "internalType": "contract IERC20",
          "name": "feeToken",
          "type": "address"
        }
      ],
      "stateMutability": "nonpayable",
      "type": "constructor"
    },
    {
      "inputs": [],
      "name": "ErrorCase",
      "type": "error"
    },
    {
      "inputs": [
        {
          "internalType": "uint64",
          "name": "chainSelector",
          "type": "uint64"
        }
      ],
      "name": "InvalidChain",
      "type": "error"
    },
    {
      "inputs": [],
      "name": "InvalidConfig",
      "type": "error"
    },
    {
      "inputs": [
        {
          "internalType": "address",
          "name": "router",
          "type": "address"
        }
      ],
      "name": "InvalidRouter",
      "type": "error"
    },
    {
      "inputs": [
        {
          "internalType": "bytes32",
          "name": "messageId",
          "type": "bytes32"
        }
      ],
      "name": "MessageNotFailed",
      "type": "error"
    },
    {
      "inputs": [],
      "name": "OnlySelf",
      "type": "error"
    },
    {
      "anonymous": false,
      "inputs": [
        {
          "indexed": true,
          "internalType": "bytes32",
          "name": "messageId",
          "type": "bytes32"
        },
        {
          "indexed": false,
          "internalType": "bytes",
          "name": "reason",
          "type": "bytes"
        }
      ],
      "name": "MessageFailed",
      "type": "event"
    },
    {
      "anonymous": false,
      "inputs": [
        {
          "indexed": false,
          "internalType": "bytes32",
          "name": "messageId",
          "type": "bytes32"
        }
      ],
      "name": "MessageReceived",
      "type": "event"
    },
    {
      "anonymous": false,
      "inputs": [
        {
          "indexed": true,
          "internalType": "bytes32",
          "name": "messageId",
          "type": "bytes32"
        }
      ],
      "name": "MessageRecovered",
      "type": "event"
    },
    {
      "anonymous": false,
      "inputs": [
        {
          "indexed": false,
          "internalType": "bytes32",
          "name": "messageId",
          "type": "bytes32"
        }
      ],
      "name": "MessageSent",
      "type": "event"
    },
    {
      "anonymous": false,
      "inputs": [
        {
          "indexed": true,
          "internalType": "bytes32",
          "name": "messageId",
          "type": "bytes32"
        }
      ],
      "name": "MessageSucceeded",
      "type": "event"
    },
    {
      "anonymous": false,
      "inputs": [
        {
          "indexed": true,
          "internalType": "address",
          "name": "from",
          "type": "address"
        },
        {
          "indexed": true,
          "internalType": "address",
          "name": "to",
          "type": "address"
        }
      ],
      "name": "OwnershipTransferRequested",
      "type": "event"
    },
    {
      "anonymous": false,
      "inputs": [
        {
          "indexed": true,
          "internalType": "address",
          "name": "from",
          "type": "address"
        },
        {
          "indexed": true,
          "internalType": "address",
          "name": "to",
          "type": "address"
        }
      ],
      "name": "OwnershipTransferred",
      "type": "event"
    },
    {
      "inputs": [],
      "name": "acceptOwnership",
      "outputs": [],
      "stateMutability": "nonpayable",
      "type": "function"
    },
    {
      "inputs": [
        {
          "components": [
            {
              "internalType": "bytes32",
              "name": "messageId",
              "type": "bytes32"
            },
            {
              "internalType": "uint64",
              "name": "sourceChainSelector",
              "type": "uint64"
            },
            {
              "internalType": "bytes",
              "name": "sender",
              "type": "bytes"
            },
            {
              "internalType": "bytes",
              "name": "data",
              "type": "bytes"
            },
            {
              "components": [
                {
                  "internalType": "address",
                  "name": "token",
                  "type": "address"
                },
                {
                  "internalType": "uint256",
                  "name": "amount",
                  "type": "uint256"
                }
              ],
              "internalType": "struct Client.EVMTokenAmount[]",
              "name": "destTokenAmounts",
              "type": "tuple[]"
            }
          ],
          "internalType": "struct Client.Any2EVMMessage",
          "name": "message",
          "type": "tuple"
        }
      ],
      "name": "ccipReceive",
      "outputs": [],
      "stateMutability": "nonpayable",
      "type": "function"
    },
    {
      "inputs": [
        {
          "internalType": "uint64",
          "name": "chainSelector",
          "type": "uint64"
        }
      ],
      "name": "disableChain",
      "outputs": [],
      "stateMutability": "nonpayable",
      "type": "function"
    },
    {
      "inputs": [
        {
          "internalType": "uint64",
          "name": "chainSelector",
          "type": "uint64"
        },
        {
          "internalType": "bytes",
          "name": "extraArgs",
          "type": "bytes"
        }
      ],
      "name": "enableChain",
      "outputs": [],
      "stateMutability": "nonpayable",
      "type": "function"
    },
    {
      "inputs": [],
      "name": "getRouter",
      "outputs": [
        {
          "internalType": "address",
          "name": "",
          "type": "address"
        }
      ],
      "stateMutability": "view",
      "type": "function"
    },
    {
      "inputs": [],
      "name": "owner",
      "outputs": [
        {
          "internalType": "address",
          "name": "",
          "type": "address"
        }
      ],
      "stateMutability": "view",
      "type": "function"
    },
    {
      "inputs": [
        {
          "components": [
            {
              "internalType": "bytes32",
              "name": "messageId",
              "type": "bytes32"
            },
            {
              "internalType": "uint64",
              "name": "sourceChainSelector",
              "type": "uint64"
            },
            {
              "internalType": "bytes",
              "name": "sender",
              "type": "bytes"
            },
            {
              "internalType": "bytes",
              "name": "data",
              "type": "bytes"
            },
            {
              "components": [
                {
                  "internalType": "address",
                  "name": "token",
                  "type": "address"
                },
                {
                  "internalType": "uint256",
                  "name": "amount",
                  "type": "uint256"
                }
              ],
              "internalType": "struct Client.EVMTokenAmount[]",
              "name": "destTokenAmounts",
              "type": "tuple[]"
            }
          ],
          "internalType": "struct Client.Any2EVMMessage",
          "name": "message",
          "type": "tuple"
        }
      ],
      "name": "processMessage",
      "outputs": [],
      "stateMutability": "nonpayable",
      "type": "function"
    },
    {
      "inputs": [
        {
          "internalType": "bytes32",
          "name": "messageId",
          "type": "bytes32"
        },
        {
          "internalType": "address",
          "name": "tokenReceiver",
          "type": "address"
        }
      ],
      "name": "retryFailedMessage",
      "outputs": [],
      "stateMutability": "nonpayable",
      "type": "function"
    },
    {
      "inputs": [
        {
          "internalType": "uint64",
          "name": "destChainSelector",
          "type": "uint64"
        }
      ],
      "name": "s_chains",
      "outputs": [
        {
          "internalType": "bytes",
          "name": "extraArgsBytes",
          "type": "bytes"
        }
      ],
      "stateMutability": "view",
      "type": "function"
    },
    {
      "inputs": [],
      "name": "s_feeToken",
      "outputs": [
        {
          "internalType": "contract IERC20",
          "name": "",
          "type": "address"
        }
      ],
      "stateMutability": "view",
      "type": "function"
    },
    {
      "inputs": [
        {
          "internalType": "bytes32",
          "name": "messageId",
          "type": "bytes32"
        }
      ],
      "name": "s_messageContents",
      "outputs": [
        {
          "internalType": "bytes32",
          "name": "messageId",
          "type": "bytes32"
        },
        {
          "internalType": "uint64",
          "name": "sourceChainSelector",
          "type": "uint64"
        },
        {
          "internalType": "bytes",
          "name": "sender",
          "type": "bytes"
        },
        {
          "internalType": "bytes",
          "name": "data",
          "type": "bytes"
        }
      ],
      "stateMutability": "view",
      "type": "function"
    },
    {
      "inputs": [
        {
          "internalType": "uint64",
          "name": "destChainSelector",
          "type": "uint64"
        },
        {
          "internalType": "bytes",
          "name": "receiver",
          "type": "bytes"
        },
        {
          "internalType": "bytes",
          "name": "data",
          "type": "bytes"
        },
        {
          "components": [
            {
              "internalType": "address",
              "name": "token",
              "type": "address"
            },
            {
              "internalType": "uint256",
              "name": "amount",
              "type": "uint256"
            }
          ],
          "internalType": "struct Client.EVMTokenAmount[]",
          "name": "tokenAmounts",
          "type": "tuple[]"
        }
      ],
      "name": "sendDataAndTokens",
      "outputs": [],
      "stateMutability": "nonpayable",
      "type": "function"
    },
    {
      "inputs": [
        {
          "internalType": "uint64",
          "name": "destChainSelector",
          "type": "uint64"
        },
        {
          "internalType": "bytes",
          "name": "receiver",
          "type": "bytes"
        },
        {
          "internalType": "bytes",
          "name": "data",
          "type": "bytes"
        }
      ],
      "name": "sendDataPayFeeToken",
      "outputs": [],
      "stateMutability": "nonpayable",
      "type": "function"
    },
    {
      "inputs": [
        {
          "internalType": "uint64",
          "name": "destChainSelector",
          "type": "uint64"
        },
        {
          "internalType": "bytes",
          "name": "receiver",
          "type": "bytes"
        },
        {
          "internalType": "bytes",
          "name": "data",
          "type": "bytes"
        }
      ],
      "name": "sendDataPayNative",
      "outputs": [],
      "stateMutability": "nonpayable",
      "type": "function"
    },
    {
      "inputs": [
        {
          "internalType": "uint64",
          "name": "destChainSelector",
          "type": "uint64"
        },
        {
          "internalType": "bytes",
          "name": "receiver",
          "type": "bytes"
        },
        {
          "components": [
            {
              "internalType": "address",
              "name": "token",
              "type": "address"
            },
            {
              "internalType": "uint256",
              "name": "amount",
              "type": "uint256"
            }
          ],
          "internalType": "struct Client.EVMTokenAmount[]",
          "name": "tokenAmounts",
          "type": "tuple[]"
        }
      ],
      "name": "sendTokens",
      "outputs": [],
      "stateMutability": "nonpayable",
      "type": "function"
    },
    {
      "inputs": [
        {
          "internalType": "bool",
          "name": "simRevert",
          "type": "bool"
        }
      ],
      "name": "setSimRevert",
      "outputs": [],
      "stateMutability": "nonpayable",
      "type": "function"
    },
    {
      "inputs": [
        {
          "internalType": "bytes4",
          "name": "interfaceId",
          "type": "bytes4"
        }
      ],
      "name": "supportsInterface",
      "outputs": [
        {
          "internalType": "bool",
          "name": "",
          "type": "bool"
        }
      ],
      "stateMutability": "pure",
      "type": "function"
    },
    {
      "inputs": [
        {
          "internalType": "address",
          "name": "to",
          "type": "address"
        }
      ],
      "name": "transferOwnership",
      "outputs": [],
      "stateMutability": "nonpayable",
      "type": "function"
    }
  ],
  "bytecode": {
    "object": "0x60a06040526008805460ff191690553480156200001b57600080fd5b50604051620031d3380380620031d38339810160408190526200003e9162000264565b818133806000846001600160a01b03811662000075576040516335fdcccd60e21b8152600060048201526024015b60405180910390fd5b6001600160a01b039081166080528216620000d35760405162461bcd60e51b815260206004820152601860248201527f43616e6e6f7420736574206f776e657220746f207a65726f000000000000000060448201526064016200006c565b600080546001600160a01b0319166001600160a01b038481169190911790915581161562000106576200010681620001a0565b5050600280546001600160a01b0319166001600160a01b0384811691821790925560405163095ea7b360e01b815291851660048301526000196024830152915063095ea7b3906044016020604051808303816000875af11580156200016f573d6000803e3d6000fd5b505050506040513d601f19601f82011682018060405250810190620001959190620002a3565b5050505050620002ce565b336001600160a01b03821603620001fa5760405162461bcd60e51b815260206004820152601760248201527f43616e6e6f74207472616e7366657220746f2073656c6600000000000000000060448201526064016200006c565b600180546001600160a01b0319166001600160a01b0383811691821790925560008054604051929316917fed8889f560326eb138920d842192f0eb3dd22b4f139c87a2c57538e05bae12789190a350565b6001600160a01b03811681146200026157600080fd5b50565b600080604083850312156200027857600080fd5b825162000285816200024b565b602084015190925062000298816200024b565b809150509250929050565b600060208284031215620002b657600080fd5b81518015158114620002c757600080fd5b9392505050565b608051612ebf6200031460003960008181610266015281816108a201528181610bfa01528181610edf01528181611126015281816114d3015261150f0152612ebf6000f3fe608060405234801561001057600080fd5b50600436106101365760003560e01c806379ba5097116100b2578063c0cb2d0811610081578063d0d1fc3d11610066578063d0d1fc3d146102b0578063f2fde38b146102d3578063ff2deec3146102e657600080fd5b8063c0cb2d081461028a578063cf6730f81461029d57600080fd5b806379ba50971461020a57806385572ffb146102125780638da5cb5b14610225578063b0f479a11461026457600080fd5b80635d8e7f18116101095780635dc5ebdb116100ee5780635dc5ebdb146101c4578063686fab79146101e45780637383c8fb146101f757600080fd5b80635d8e7f181461019e5780635dc02a2c146101b157600080fd5b806301ffc9a71461013b578063369f7f661461016357806341eade461461017857806352f813c31461018b575b600080fd5b61014e610149366004611fca565b610306565b60405190151581526020015b60405180910390f35b61017661017136600461202e565b61039f565b005b610176610186366004612074565b6106a1565b61017661019936600461209f565b6106ce565b6101766101ac3660046121b5565b610707565b6101766101bf36600461222b565b610982565b6101d76101d2366004612074565b6109b2565b60405161015a91906122cb565b6101766101f236600461238b565b610a4c565b6101766102053660046123f7565b610d31565b610176611011565b610176610220366004612492565b61110e565b60005473ffffffffffffffffffffffffffffffffffffffff165b60405173ffffffffffffffffffffffffffffffffffffffff909116815260200161015a565b7f000000000000000000000000000000000000000000000000000000000000000061023f565b6101766102983660046121b5565b611330565b6101766102ab366004612492565b61160b565b6102c36102be3660046124cd565b6117c1565b60405161015a94939291906124e6565b6101766102e1366004612521565b611905565b60025461023f9073ffffffffffffffffffffffffffffffffffffffff1681565b60007fffffffff0000000000000000000000000000000000000000000000000000000082167f85572ffb00000000000000000000000000000000000000000000000000000000148061039957507fffffffff0000000000000000000000000000000000000000000000000000000082167f01ffc9a700000000000000000000000000000000000000000000000000000000145b92915050565b6103a7611916565b60016103b4600584611999565b146103f3576040517fb6e78260000000000000000000000000000000000000000000000000000000008152600481018390526024015b60405180910390fd5b6104038260005b600591906119ac565b506000828152600460209081526040808320815160a08101835281548152600182015467ffffffffffffffff1693810193909352600281018054919284019161044b9061253e565b80601f01602080910402602001604051908101604052809291908181526020018280546104779061253e565b80156104c45780601f10610499576101008083540402835291602001916104c4565b820191906000526020600020905b8154815290600101906020018083116104a757829003601f168201915b505050505081526020016003820180546104dd9061253e565b80601f01602080910402602001604051908101604052809291908181526020018280546105099061253e565b80156105565780601f1061052b57610100808354040283529160200191610556565b820191906000526020600020905b81548152906001019060200180831161053957829003601f168201915b5050505050815260200160048201805480602002602001604051908101604052809291908181526020016000905b828210156105d95760008481526020908190206040805180820190915260028502909101805473ffffffffffffffffffffffffffffffffffffffff168252600190810154828401529083529092019101610584565b5050505081525050905060005b81608001515181101561067057610660838360800151838151811061060d5761060d612591565b6020026020010151602001518460800151848151811061062f5761062f612591565b60200260200101516000015173ffffffffffffffffffffffffffffffffffffffff166119c19092919063ffffffff16565b610669816125ef565b90506105e6565b5060405183907fef3bf8c64bc480286c4f3503b870ceb23e648d2d902e31fb7bb46680da6de8ad90600090a2505050565b6106a9611916565b67ffffffffffffffff811660009081526003602052604081206106cb91611f7c565b50565b6106d6611916565b600880547fffffffffffffffffffffffffffffffffffffffffffffffffffffffffffffff0016911515919091179055565b67ffffffffffffffff83166000908152600360205260409020805484919061072e9061253e565b9050600003610775576040517fd79f2ea400000000000000000000000000000000000000000000000000000000815267ffffffffffffffff821660048201526024016103ea565b60408051600080825260208201909252816107b2565b604080518082019091526000808252602082015281526020019060019003908161078b5790505b506040805160a081018252868152602080820187905281830184905260025473ffffffffffffffffffffffffffffffffffffffff16606083015267ffffffffffffffff891660009081526003909152918220805493945091929091608083019161081b9061253e565b80601f01602080910402602001604051908101604052809291908181526020018280546108479061253e565b80156108945780601f1061086957610100808354040283529160200191610894565b820191906000526020600020905b81548152906001019060200180831161087757829003601f168201915b5050505050815250905060007f000000000000000000000000000000000000000000000000000000000000000073ffffffffffffffffffffffffffffffffffffffff166396f4e9f988846040518363ffffffff1660e01b81526004016108fb929190612627565b6020604051808303816000875af115801561091a573d6000803e3d6000fd5b505050506040513d601f19601f8201168201806040525081019061093e9190612739565b90507f54791b38f3859327992a1ca0590ad3c0f08feba98d1a4f56ab0dca74d203392a8160405161097191815260200190565b60405180910390a150505050505050565b61098a611916565b67ffffffffffffffff821660009081526003602052604090206109ad82826127a0565b505050565b600360205260009081526040902080546109cb9061253e565b80601f01602080910402602001604051908101604052809291908181526020018280546109f79061253e565b8015610a445780601f10610a1957610100808354040283529160200191610a44565b820191906000526020600020905b815481529060010190602001808311610a2757829003601f168201915b505050505081565b67ffffffffffffffff831660009081526003602052604090208054849190610a739061253e565b9050600003610aba576040517fd79f2ea400000000000000000000000000000000000000000000000000000000815267ffffffffffffffff821660048201526024016103ea565b60005b8251811015610cc957828181518110610ad857610ad8612591565b60200260200101516000015173ffffffffffffffffffffffffffffffffffffffff166323b872dd3330868581518110610b1357610b13612591565b60209081029190910181015101516040517fffffffff0000000000000000000000000000000000000000000000000000000060e086901b16815273ffffffffffffffffffffffffffffffffffffffff938416600482015292909116602483015260448201526064016020604051808303816000875af1158015610b9a573d6000803e3d6000fd5b505050506040513d601f19601f82011682018060405250810190610bbe919061289c565b50828181518110610bd157610bd1612591565b60200260200101516000015173ffffffffffffffffffffffffffffffffffffffff1663095ea7b37f0000000000000000000000000000000000000000000000000000000000000000858481518110610c2b57610c2b612591565b6020026020010151602001516040518363ffffffff1660e01b8152600401610c7592919073ffffffffffffffffffffffffffffffffffffffff929092168252602082015260400190565b6020604051808303816000875af1158015610c94573d6000803e3d6000fd5b505050506040513d601f19601f82011682018060405250810190610cb8919061289c565b50610cc2816125ef565b9050610abd565b506040805160a0810182528481526060602080830182905282840186905260025473ffffffffffffffffffffffffffffffffffffffff168383015267ffffffffffffffff88166000908152600390915292832080549193929160808301919061081b9061253e565b67ffffffffffffffff841660009081526003602052604090208054859190610d589061253e565b9050600003610d9f576040517fd79f2ea400000000000000000000000000000000000000000000000000000000815267ffffffffffffffff821660048201526024016103ea565b60005b8251811015610fae57828181518110610dbd57610dbd612591565b60200260200101516000015173ffffffffffffffffffffffffffffffffffffffff166323b872dd3330868581518110610df857610df8612591565b60209081029190910181015101516040517fffffffff0000000000000000000000000000000000000000000000000000000060e086901b16815273ffffffffffffffffffffffffffffffffffffffff938416600482015292909116602483015260448201526064016020604051808303816000875af1158015610e7f573d6000803e3d6000fd5b505050506040513d601f19601f82011682018060405250810190610ea3919061289c565b50828181518110610eb657610eb6612591565b60200260200101516000015173ffffffffffffffffffffffffffffffffffffffff1663095ea7b37f0000000000000000000000000000000000000000000000000000000000000000858481518110610f1057610f10612591565b6020026020010151602001516040518363ffffffff1660e01b8152600401610f5a92919073ffffffffffffffffffffffffffffffffffffffff929092168252602082015260400190565b6020604051808303816000875af1158015610f79573d6000803e3d6000fd5b505050506040513d601f19601f82011682018060405250810190610f9d919061289c565b50610fa7816125ef565b9050610da2565b506040805160a081018252858152602080820186905281830185905260025473ffffffffffffffffffffffffffffffffffffffff16606083015267ffffffffffffffff881660009081526003909152918220805460808301919061081b9061253e565b60015473ffffffffffffffffffffffffffffffffffffffff163314611092576040517f08c379a000000000000000000000000000000000000000000000000000000000815260206004820152601660248201527f4d7573742062652070726f706f736564206f776e65720000000000000000000060448201526064016103ea565b60008054337fffffffffffffffffffffffff00000000000000000000000000000000000000008083168217845560018054909116905560405173ffffffffffffffffffffffffffffffffffffffff90921692909183917f8be0079c531659141344cd1fd0a4f28419497f9722a3daafe3b4186f6b6457e091a350565b3373ffffffffffffffffffffffffffffffffffffffff7f0000000000000000000000000000000000000000000000000000000000000000161461117f576040517fd7f733340000000000000000000000000000000000000000000000000000000081523360048201526024016103ea565b61118f6040820160208301612074565b67ffffffffffffffff8116600090815260036020526040902080546111b39061253e565b90506000036111fa576040517fd79f2ea400000000000000000000000000000000000000000000000000000000815267ffffffffffffffff821660048201526024016103ea565b6040517fcf6730f8000000000000000000000000000000000000000000000000000000008152309063cf6730f8906112369085906004016129af565b600060405180830381600087803b15801561125057600080fd5b505af1925050508015611261575060015b611300573d80801561128f576040519150601f19603f3d011682016040523d82523d6000602084013e611294565b606091505b506112a1833560016103fa565b508235600090815260046020526040902083906112be8282612d96565b50506040518335907f55bc02a9ef6f146737edeeb425738006f67f077e7138de3bf84a15bde1a5b56f906112f39084906122cb565b60405180910390a2505050565b6040518235907fdf6958669026659bac75ba986685e11a7d271284989f565f2802522663e9a70f90600090a25050565b67ffffffffffffffff8316600090815260036020526040902080548491906113579061253e565b905060000361139e576040517fd79f2ea400000000000000000000000000000000000000000000000000000000815267ffffffffffffffff821660048201526024016103ea565b60408051600080825260208201909252816113db565b60408051808201909152600080825260208201528152602001906001900390816113b45790505b50905060006040518060a00160405280868152602001858152602001838152602001600073ffffffffffffffffffffffffffffffffffffffff168152602001600360008967ffffffffffffffff1667ffffffffffffffff168152602001908152602001600020805461144c9061253e565b80601f01602080910402602001604051908101604052809291908181526020018280546114789061253e565b80156114c55780601f1061149a576101008083540402835291602001916114c5565b820191906000526020600020905b8154815290600101906020018083116114a857829003601f168201915b5050505050815250905060007f000000000000000000000000000000000000000000000000000000000000000073ffffffffffffffffffffffffffffffffffffffff166396f4e9f97f000000000000000000000000000000000000000000000000000000000000000073ffffffffffffffffffffffffffffffffffffffff166320487ded8a866040518363ffffffff1660e01b8152600401611568929190612627565b602060405180830381865afa158015611585573d6000803e3d6000fd5b505050506040513d601f19601f820116820180604052508101906115a99190612739565b89856040518463ffffffff1660e01b81526004016115c8929190612627565b60206040518083038185885af11580156115e6573d6000803e3d6000fd5b50505050506040513d601f19601f8201168201806040525081019061093e9190612739565b333014611644576040517f14d4a4e800000000000000000000000000000000000000000000000000000000815260040160405180910390fd5b6116546040820160208301612074565b67ffffffffffffffff8116600090815260036020526040902080546116789061253e565b90506000036116bf576040517fd79f2ea400000000000000000000000000000000000000000000000000000000815267ffffffffffffffff821660048201526024016103ea565b60085460ff16156116fc576040517f79f79e0b00000000000000000000000000000000000000000000000000000000815260040160405180910390fd5b60005b61170c6080840184612c01565b90508110156109ad576117b161173760005473ffffffffffffffffffffffffffffffffffffffff1690565b6117446080860186612c01565b8481811061175457611754612591565b9050604002016020013585806080019061176e9190612c01565b8581811061177e5761177e612591565b6117949260206040909202019081019150612521565b73ffffffffffffffffffffffffffffffffffffffff1691906119c1565b6117ba816125ef565b90506116ff565b600460205260009081526040902080546001820154600283018054929367ffffffffffffffff909216926117f49061253e565b80601f01602080910402602001604051908101604052809291908181526020018280546118209061253e565b801561186d5780601f106118425761010080835404028352916020019161186d565b820191906000526020600020905b81548152906001019060200180831161185057829003601f168201915b5050505050908060030180546118829061253e565b80601f01602080910402602001604051908101604052809291908181526020018280546118ae9061253e565b80156118fb5780601f106118d0576101008083540402835291602001916118fb565b820191906000526020600020905b8154815290600101906020018083116118de57829003601f168201915b5050505050905084565b61190d611916565b6106cb81611a4e565b60005473ffffffffffffffffffffffffffffffffffffffff163314611997576040517f08c379a000000000000000000000000000000000000000000000000000000000815260206004820152601660248201527f4f6e6c792063616c6c61626c65206279206f776e65720000000000000000000060448201526064016103ea565b565b60006119a58383611b43565b9392505050565b60006119b9848484611bcd565b949350505050565b6040805173ffffffffffffffffffffffffffffffffffffffff8416602482015260448082018490528251808303909101815260649091019091526020810180517bffffffffffffffffffffffffffffffffffffffffffffffffffffffff167fa9059cbb000000000000000000000000000000000000000000000000000000001790526109ad908490611bea565b3373ffffffffffffffffffffffffffffffffffffffff821603611acd576040517f08c379a000000000000000000000000000000000000000000000000000000000815260206004820152601760248201527f43616e6e6f74207472616e7366657220746f2073656c6600000000000000000060448201526064016103ea565b600180547fffffffffffffffffffffffff00000000000000000000000000000000000000001673ffffffffffffffffffffffffffffffffffffffff83811691821790925560008054604051929316917fed8889f560326eb138920d842192f0eb3dd22b4f139c87a2c57538e05bae12789190a350565b600081815260028301602052604081205480151580611b675750611b678484611cf6565b6119a5576040517f08c379a000000000000000000000000000000000000000000000000000000000815260206004820152601e60248201527f456e756d657261626c654d61703a206e6f6e6578697374656e74206b6579000060448201526064016103ea565b600082815260028401602052604081208290556119b98484611d02565b6000611c4c826040518060400160405280602081526020017f5361666545524332303a206c6f772d6c6576656c2063616c6c206661696c65648152508573ffffffffffffffffffffffffffffffffffffffff16611d0e9092919063ffffffff16565b8051909150156109ad5780806020019051810190611c6a919061289c565b6109ad576040517f08c379a000000000000000000000000000000000000000000000000000000000815260206004820152602a60248201527f5361666545524332303a204552433230206f7065726174696f6e20646964206e60448201527f6f7420737563636565640000000000000000000000000000000000000000000060648201526084016103ea565b60006119a58383611d1d565b60006119a58383611d35565b60606119b98484600085611d84565b600081815260018301602052604081205415156119a5565b6000818152600183016020526040812054611d7c57508154600181810184556000848152602080822090930184905584548482528286019093526040902091909155610399565b506000610399565b606082471015611e16576040517f08c379a000000000000000000000000000000000000000000000000000000000815260206004820152602660248201527f416464726573733a20696e73756666696369656e742062616c616e636520666f60448201527f722063616c6c000000000000000000000000000000000000000000000000000060648201526084016103ea565b6000808673ffffffffffffffffffffffffffffffffffffffff168587604051611e3f9190612e96565b60006040518083038185875af1925050503d8060008114611e7c576040519150601f19603f3d011682016040523d82523d6000602084013e611e81565b606091505b5091509150611e9287838387611e9d565b979650505050505050565b60608315611f33578251600003611f2c5773ffffffffffffffffffffffffffffffffffffffff85163b611f2c576040517f08c379a000000000000000000000000000000000000000000000000000000000815260206004820152601d60248201527f416464726573733a2063616c6c20746f206e6f6e2d636f6e747261637400000060448201526064016103ea565b50816119b9565b6119b98383815115611f485781518083602001fd5b806040517f08c379a00000000000000000000000000000000000000000000000000000000081526004016103ea91906122cb565b508054611f889061253e565b6000825580601f10611f98575050565b601f0160209004906000526020600020908101906106cb91905b80821115611fc65760008155600101611fb2565b5090565b600060208284031215611fdc57600080fd5b81357fffffffff00000000000000000000000000000000000000000000000000000000811681146119a557600080fd5b73ffffffffffffffffffffffffffffffffffffffff811681146106cb57600080fd5b6000806040838503121561204157600080fd5b8235915060208301356120538161200c565b809150509250929050565b67ffffffffffffffff811681146106cb57600080fd5b60006020828403121561208657600080fd5b81356119a58161205e565b80151581146106cb57600080fd5b6000602082840312156120b157600080fd5b81356119a581612091565b7f4e487b7100000000000000000000000000000000000000000000000000000000600052604160045260246000fd5b6040805190810167ffffffffffffffff8111828210171561210e5761210e6120bc565b60405290565b604051601f8201601f1916810167ffffffffffffffff8111828210171561213d5761213d6120bc565b604052919050565b600082601f83011261215657600080fd5b813567ffffffffffffffff811115612170576121706120bc565b6121836020601f19601f84011601612114565b81815284602083860101111561219857600080fd5b816020850160208301376000918101602001919091529392505050565b6000806000606084860312156121ca57600080fd5b83356121d58161205e565b9250602084013567ffffffffffffffff808211156121f257600080fd5b6121fe87838801612145565b9350604086013591508082111561221457600080fd5b5061222186828701612145565b9150509250925092565b6000806040838503121561223e57600080fd5b82356122498161205e565b9150602083013567ffffffffffffffff81111561226557600080fd5b61227185828601612145565b9150509250929050565b60005b8381101561229657818101518382015260200161227e565b50506000910152565b600081518084526122b781602086016020860161227b565b601f01601f19169290920160200192915050565b6020815260006119a5602083018461229f565b600082601f8301126122ef57600080fd5b8135602067ffffffffffffffff82111561230b5761230b6120bc565b612319818360051b01612114565b82815260069290921b8401810191818101908684111561233857600080fd5b8286015b8481101561238057604081890312156123555760008081fd5b61235d6120eb565b81356123688161200c565b8152818501358582015283529183019160400161233c565b509695505050505050565b6000806000606084860312156123a057600080fd5b83356123ab8161205e565b9250602084013567ffffffffffffffff808211156123c857600080fd5b6123d487838801612145565b935060408601359150808211156123ea57600080fd5b50612221868287016122de565b6000806000806080858703121561240d57600080fd5b84356124188161205e565b9350602085013567ffffffffffffffff8082111561243557600080fd5b61244188838901612145565b9450604087013591508082111561245757600080fd5b61246388838901612145565b9350606087013591508082111561247957600080fd5b50612486878288016122de565b91505092959194509250565b6000602082840312156124a457600080fd5b813567ffffffffffffffff8111156124bb57600080fd5b820160a081850312156119a557600080fd5b6000602082840312156124df57600080fd5b5035919050565b84815267ffffffffffffffff8416602082015260806040820152600061250f608083018561229f565b8281036060840152611e92818561229f565b60006020828403121561253357600080fd5b81356119a58161200c565b600181811c9082168061255257607f821691505b60208210810361258b577f4e487b7100000000000000000000000000000000000000000000000000000000600052602260045260246000fd5b50919050565b7f4e487b7100000000000000000000000000000000000000000000000000000000600052603260045260246000fd5b7f4e487b7100000000000000000000000000000000000000000000000000000000600052601160045260246000fd5b60007fffffffffffffffffffffffffffffffffffffffffffffffffffffffffffffffff8203612620576126206125c0565b5060010190565b6000604067ffffffffffffffff8516835260208181850152845160a08386015261265460e086018261229f565b9050818601517fffffffffffffffffffffffffffffffffffffffffffffffffffffffffffffffc08087840301606088015261268f838361229f565b88860151888203830160808a01528051808352908601945060009350908501905b808410156126ef578451805173ffffffffffffffffffffffffffffffffffffffff168352860151868301529385019360019390930192908601906126b0565b50606089015173ffffffffffffffffffffffffffffffffffffffff1660a08901526080890151888203830160c08a0152955061272b818761229f565b9a9950505050505050505050565b60006020828403121561274b57600080fd5b5051919050565b601f8211156109ad57600081815260208120601f850160051c810160208610156127795750805b601f850160051c820191505b8181101561279857828155600101612785565b505050505050565b815167ffffffffffffffff8111156127ba576127ba6120bc565b6127ce816127c8845461253e565b84612752565b602080601f83116001811461282157600084156127eb5750858301515b7fffffffffffffffffffffffffffffffffffffffffffffffffffffffffffffffff600386901b1c1916600185901b178555612798565b600085815260208120601f198616915b8281101561285057888601518255948401946001909101908401612831565b508582101561288c57878501517fffffffffffffffffffffffffffffffffffffffffffffffffffffffffffffffff600388901b60f8161c191681555b5050505050600190811b01905550565b6000602082840312156128ae57600080fd5b81516119a581612091565b60008083357fffffffffffffffffffffffffffffffffffffffffffffffffffffffffffffffe18436030181126128ee57600080fd5b830160208101925035905067ffffffffffffffff81111561290e57600080fd5b80360382131561291d57600080fd5b9250929050565b818352818160208501375060006020828401015260006020601f19601f840116840101905092915050565b8183526000602080850194508260005b858110156129a45781356129728161200c565b73ffffffffffffffffffffffffffffffffffffffff16875281830135838801526040968701969091019060010161295f565b509495945050505050565b6020815281356020820152600060208301356129ca8161205e565b67ffffffffffffffff80821660408501526129e860408601866128b9565b925060a060608601526129ff60c086018483612924565b925050612a0f60608601866128b9565b601f1980878603016080880152612a27858385612924565b9450608088013592507fffffffffffffffffffffffffffffffffffffffffffffffffffffffffffffffe1883603018312612a6057600080fd5b60209288019283019235915083821115612a7957600080fd5b8160061b3603831315612a8b57600080fd5b8685030160a0870152611e9284828461294f565b60008083357fffffffffffffffffffffffffffffffffffffffffffffffffffffffffffffffe1843603018112612ad457600080fd5b83018035915067ffffffffffffffff821115612aef57600080fd5b60200191503681900382131561291d57600080fd5b67ffffffffffffffff831115612b1c57612b1c6120bc565b612b3083612b2a835461253e565b83612752565b6000601f841160018114612b825760008515612b4c5750838201355b7fffffffffffffffffffffffffffffffffffffffffffffffffffffffffffffffff600387901b1c1916600186901b178355612bfa565b600083815260209020601f19861690835b82811015612bb35786850135825560209485019460019092019101612b93565b5086821015612bee577fffffffffffffffffffffffffffffffffffffffffffffffffffffffffffffffff60f88860031b161c19848701351681555b505060018560011b0183555b5050505050565b60008083357fffffffffffffffffffffffffffffffffffffffffffffffffffffffffffffffe1843603018112612c3657600080fd5b83018035915067ffffffffffffffff821115612c5157600080fd5b6020019150600681901b360382131561291d57600080fd5b8135612c748161200c565b73ffffffffffffffffffffffffffffffffffffffff81167fffffffffffffffffffffffff000000000000000000000000000000000000000083541617825550602082013560018201555050565b68010000000000000000831115612cda57612cda6120bc565b805483825580841015612d615760017f7fffffffffffffffffffffffffffffffffffffffffffffffffffffffffffffff8083168314612d1b57612d1b6125c0565b8086168614612d2c57612d2c6125c0565b5060008381526020812086831b81019084841b015b80821015612d5c578282558284830155600282019150612d41565b505050505b5060008181526020812083915b8581101561279857612d808383612c69565b6040929092019160029190910190600101612d6e565b81358155600181016020830135612dac8161205e565b67ffffffffffffffff8082167fffffffffffffffffffffffffffffffffffffffffffffffff0000000000000000845416178355612dec6040860186612a9f565b93509150612dfe838360028701612b04565b612e0b6060860186612a9f565b93509150612e1d838360038701612b04565b608085013592507fffffffffffffffffffffffffffffffffffffffffffffffffffffffffffffffe1853603018312612e5457600080fd5b918401918235915080821115612e6957600080fd5b506020820191508060061b3603821315612e8257600080fd5b612e90818360048601612cc1565b50505050565b60008251612ea881846020870161227b565b919091019291505056fea164736f6c6343000815000a",
    "linkReferences": {}
  },
  "methodIdentifiers": {
    "acceptOwnership()": "79ba5097",
    "ccipReceive((bytes32,uint64,bytes,bytes,(address,uint256)[]))": "85572ffb",
    "disableChain(uint64)": "41eade46",
    "enableChain(uint64,bytes)": "5dc02a2c",
    "getRouter()": "b0f479a1",
    "owner()": "8da5cb5b",
    "processMessage((bytes32,uint64,bytes,bytes,(address,uint256)[]))": "cf6730f8",
    "retryFailedMessage(bytes32,address)": "369f7f66",
    "s_chains(uint64)": "5dc5ebdb",
    "s_feeToken()": "ff2deec3",
    "s_messageContents(bytes32)": "d0d1fc3d",
    "sendDataAndTokens(uint64,bytes,bytes,(address,uint256)[])": "7383c8fb",
    "sendDataPayFeeToken(uint64,bytes,bytes)": "5d8e7f18",
    "sendDataPayNative(uint64,bytes,bytes)": "c0cb2d08",
    "sendTokens(uint64,bytes,(address,uint256)[])": "686fab79",
    "setSimRevert(bool)": "52f813c3",
    "supportsInterface(bytes4)": "01ffc9a7",
    "transferOwnership(address)": "f2fde38b"
  },
  "id": 106
}