{
  "abi": [
    {
      "inputs": [
        {
          "internalType": "contract IERC20",
          "name": "token",
          "type": "address"
        },
        {
          "internalType": "address[]",
          "name": "allowlist",
          "type": "address[]"
        },
        {
          "internalType": "address",
          "name": "armProxy",
          "type": "address"
        },
        {
          "internalType": "bool",
          "name": "acceptLiquidity",
          "type": "bool"
        }
      ],
      "stateMutability": "nonpayable",
      "type": "constructor"
    },
    {
      "inputs": [
        {
          "internalType": "uint256",
          "name": "capacity",
          "type": "uint256"
        },
        {
          "internalType": "uint256",
          "name": "requested",
          "type": "uint256"
        }
      ],
      "name": "AggregateValueMaxCapacityExceeded",
      "type": "error"
    },
    {
      "inputs": [
        {
          "internalType": "uint256",
          "name": "minWaitInSeconds",
          "type": "uint256"
        },
        {
          "internalType": "uint256",
          "name": "available",
          "type": "uint256"
        }
      ],
      "name": "AggregateValueRateLimitReached",
      "type": "error"
    },
    {
      "inputs": [],
      "name": "AllowListNotEnabled",
      "type": "error"
    },
    {
      "inputs": [],
      "name": "BadARMSignal",
      "type": "error"
    },
    {
      "inputs": [],
      "name": "BucketOverfilled",
      "type": "error"
    },
    {
      "inputs": [],
      "name": "InsufficientLiquidity",
      "type": "error"
    },
    {
      "inputs": [],
      "name": "LiquidityNotAccepted",
      "type": "error"
    },
    {
      "inputs": [
        {
          "internalType": "address",
          "name": "ramp",
          "type": "address"
        }
      ],
      "name": "NonExistentRamp",
      "type": "error"
    },
    {
      "inputs": [],
      "name": "PermissionsError",
      "type": "error"
    },
    {
      "inputs": [
        {
          "internalType": "address",
          "name": "ramp",
          "type": "address"
        }
      ],
      "name": "RampAlreadyExists",
      "type": "error"
    },
    {
      "inputs": [
        {
          "internalType": "address",
          "name": "sender",
          "type": "address"
        }
      ],
      "name": "SenderNotAllowed",
      "type": "error"
    },
    {
      "inputs": [
        {
          "internalType": "uint256",
          "name": "capacity",
          "type": "uint256"
        },
        {
          "internalType": "uint256",
          "name": "requested",
          "type": "uint256"
        },
        {
          "internalType": "address",
          "name": "tokenAddress",
          "type": "address"
        }
      ],
      "name": "TokenMaxCapacityExceeded",
      "type": "error"
    },
    {
      "inputs": [
        {
          "internalType": "uint256",
          "name": "minWaitInSeconds",
          "type": "uint256"
        },
        {
          "internalType": "uint256",
          "name": "available",
          "type": "uint256"
        },
        {
          "internalType": "address",
          "name": "tokenAddress",
          "type": "address"
        }
      ],
      "name": "TokenRateLimitReached",
      "type": "error"
    },
    {
      "inputs": [],
      "name": "WithdrawalTooHigh",
      "type": "error"
    },
    {
      "inputs": [],
      "name": "ZeroAddressNotAllowed",
      "type": "error"
    },
    {
      "anonymous": false,
      "inputs": [
        {
          "indexed": false,
          "internalType": "address",
          "name": "sender",
          "type": "address"
        }
      ],
      "name": "AllowListAdd",
      "type": "event"
    },
    {
      "anonymous": false,
      "inputs": [
        {
          "indexed": false,
          "internalType": "address",
          "name": "sender",
          "type": "address"
        }
      ],
      "name": "AllowListRemove",
      "type": "event"
    },
    {
      "anonymous": false,
      "inputs": [
        {
          "indexed": true,
          "internalType": "address",
          "name": "sender",
          "type": "address"
        },
        {
          "indexed": false,
          "internalType": "uint256",
          "name": "amount",
          "type": "uint256"
        }
      ],
      "name": "Burned",
      "type": "event"
    },
    {
      "anonymous": false,
      "inputs": [
        {
          "components": [
            {
              "internalType": "bool",
              "name": "isEnabled",
              "type": "bool"
            },
            {
              "internalType": "uint128",
              "name": "capacity",
              "type": "uint128"
            },
            {
              "internalType": "uint128",
              "name": "rate",
              "type": "uint128"
            }
          ],
          "indexed": false,
          "internalType": "struct RateLimiter.Config",
          "name": "config",
          "type": "tuple"
        }
      ],
      "name": "ConfigChanged",
      "type": "event"
    },
    {
      "anonymous": false,
      "inputs": [
        {
          "indexed": true,
          "internalType": "address",
          "name": "provider",
          "type": "address"
        },
        {
          "indexed": true,
          "internalType": "uint256",
          "name": "amount",
          "type": "uint256"
        }
      ],
      "name": "LiquidityAdded",
      "type": "event"
    },
    {
      "anonymous": false,
      "inputs": [
        {
          "indexed": true,
          "internalType": "address",
          "name": "provider",
          "type": "address"
        },
        {
          "indexed": true,
          "internalType": "uint256",
          "name": "amount",
          "type": "uint256"
        }
      ],
      "name": "LiquidityRemoved",
      "type": "event"
    },
    {
      "anonymous": false,
      "inputs": [
        {
          "indexed": true,
          "internalType": "address",
          "name": "sender",
          "type": "address"
        },
        {
          "indexed": false,
          "internalType": "uint256",
          "name": "amount",
          "type": "uint256"
        }
      ],
      "name": "Locked",
      "type": "event"
    },
    {
      "anonymous": false,
      "inputs": [
        {
          "indexed": true,
          "internalType": "address",
          "name": "sender",
          "type": "address"
        },
        {
          "indexed": true,
          "internalType": "address",
          "name": "recipient",
          "type": "address"
        },
        {
          "indexed": false,
          "internalType": "uint256",
          "name": "amount",
          "type": "uint256"
        }
      ],
      "name": "Minted",
      "type": "event"
    },
    {
      "anonymous": false,
      "inputs": [
        {
          "indexed": false,
          "internalType": "address",
          "name": "offRamp",
          "type": "address"
        },
        {
          "components": [
            {
              "internalType": "bool",
              "name": "isEnabled",
              "type": "bool"
            },
            {
              "internalType": "uint128",
              "name": "capacity",
              "type": "uint128"
            },
            {
              "internalType": "uint128",
              "name": "rate",
              "type": "uint128"
            }
          ],
          "indexed": false,
          "internalType": "struct RateLimiter.Config",
          "name": "rateLimiterConfig",
          "type": "tuple"
        }
      ],
      "name": "OffRampAdded",
      "type": "event"
    },
    {
      "anonymous": false,
      "inputs": [
        {
          "indexed": false,
          "internalType": "address",
          "name": "offRamp",
          "type": "address"
        },
        {
          "components": [
            {
              "internalType": "bool",
              "name": "isEnabled",
              "type": "bool"
            },
            {
              "internalType": "uint128",
              "name": "capacity",
              "type": "uint128"
            },
            {
              "internalType": "uint128",
              "name": "rate",
              "type": "uint128"
            }
          ],
          "indexed": false,
          "internalType": "struct RateLimiter.Config",
          "name": "rateLimiterConfig",
          "type": "tuple"
        }
      ],
      "name": "OffRampConfigured",
      "type": "event"
    },
    {
      "anonymous": false,
      "inputs": [
        {
          "indexed": false,
          "internalType": "address",
          "name": "offRamp",
          "type": "address"
        }
      ],
      "name": "OffRampRemoved",
      "type": "event"
    },
    {
      "anonymous": false,
      "inputs": [
        {
          "indexed": false,
          "internalType": "address",
          "name": "onRamp",
          "type": "address"
        },
        {
          "components": [
            {
              "internalType": "bool",
              "name": "isEnabled",
              "type": "bool"
            },
            {
              "internalType": "uint128",
              "name": "capacity",
              "type": "uint128"
            },
            {
              "internalType": "uint128",
              "name": "rate",
              "type": "uint128"
            }
          ],
          "indexed": false,
          "internalType": "struct RateLimiter.Config",
          "name": "rateLimiterConfig",
          "type": "tuple"
        }
      ],
      "name": "OnRampAdded",
      "type": "event"
    },
    {
      "anonymous": false,
      "inputs": [
        {
          "indexed": false,
          "internalType": "address",
          "name": "onRamp",
          "type": "address"
        },
        {
          "components": [
            {
              "internalType": "bool",
              "name": "isEnabled",
              "type": "bool"
            },
            {
              "internalType": "uint128",
              "name": "capacity",
              "type": "uint128"
            },
            {
              "internalType": "uint128",
              "name": "rate",
              "type": "uint128"
            }
          ],
          "indexed": false,
          "internalType": "struct RateLimiter.Config",
          "name": "rateLimiterConfig",
          "type": "tuple"
        }
      ],
      "name": "OnRampConfigured",
      "type": "event"
    },
    {
      "anonymous": false,
      "inputs": [
        {
          "indexed": false,
          "internalType": "address",
          "name": "onRamp",
          "type": "address"
        }
      ],
      "name": "OnRampRemoved",
      "type": "event"
    },
    {
      "anonymous": false,
      "inputs": [
        {
          "indexed": true,
          "internalType": "address",
          "name": "from",
          "type": "address"
        },
        {
          "indexed": true,
          "internalType": "address",
          "name": "to",
          "type": "address"
        }
      ],
      "name": "OwnershipTransferRequested",
      "type": "event"
    },
    {
      "anonymous": false,
      "inputs": [
        {
          "indexed": true,
          "internalType": "address",
          "name": "from",
          "type": "address"
        },
        {
          "indexed": true,
          "internalType": "address",
          "name": "to",
          "type": "address"
        }
      ],
      "name": "OwnershipTransferred",
      "type": "event"
    },
    {
      "anonymous": false,
      "inputs": [
        {
          "indexed": true,
          "internalType": "address",
          "name": "sender",
          "type": "address"
        },
        {
          "indexed": true,
          "internalType": "address",
          "name": "recipient",
          "type": "address"
        },
        {
          "indexed": false,
          "internalType": "uint256",
          "name": "amount",
          "type": "uint256"
        }
      ],
      "name": "Released",
      "type": "event"
    },
    {
      "anonymous": false,
      "inputs": [
        {
          "indexed": false,
          "internalType": "uint256",
          "name": "tokens",
          "type": "uint256"
        }
      ],
      "name": "TokensConsumed",
      "type": "event"
    },
    {
      "inputs": [],
      "name": "acceptOwnership",
      "outputs": [],
      "stateMutability": "nonpayable",
      "type": "function"
    },
    {
      "inputs": [
        {
          "internalType": "uint256",
          "name": "amount",
          "type": "uint256"
        }
      ],
      "name": "addLiquidity",
      "outputs": [],
      "stateMutability": "nonpayable",
      "type": "function"
    },
    {
      "inputs": [
        {
          "internalType": "address[]",
          "name": "removes",
          "type": "address[]"
        },
        {
          "internalType": "address[]",
          "name": "adds",
          "type": "address[]"
        }
      ],
      "name": "applyAllowListUpdates",
      "outputs": [],
      "stateMutability": "nonpayable",
      "type": "function"
    },
    {
      "inputs": [
        {
          "components": [
            {
              "internalType": "address",
              "name": "ramp",
              "type": "address"
            },
            {
              "internalType": "bool",
              "name": "allowed",
              "type": "bool"
            },
            {
              "components": [
                {
                  "internalType": "bool",
                  "name": "isEnabled",
                  "type": "bool"
                },
                {
                  "internalType": "uint128",
                  "name": "capacity",
                  "type": "uint128"
                },
                {
                  "internalType": "uint128",
                  "name": "rate",
                  "type": "uint128"
                }
              ],
              "internalType": "struct RateLimiter.Config",
              "name": "rateLimiterConfig",
              "type": "tuple"
            }
          ],
          "internalType": "struct TokenPool.RampUpdate[]",
          "name": "onRamps",
          "type": "tuple[]"
        },
        {
          "components": [
            {
              "internalType": "address",
              "name": "ramp",
              "type": "address"
            },
            {
              "internalType": "bool",
              "name": "allowed",
              "type": "bool"
            },
            {
              "components": [
                {
                  "internalType": "bool",
                  "name": "isEnabled",
                  "type": "bool"
                },
                {
                  "internalType": "uint128",
                  "name": "capacity",
                  "type": "uint128"
                },
                {
                  "internalType": "uint128",
                  "name": "rate",
                  "type": "uint128"
                }
              ],
              "internalType": "struct RateLimiter.Config",
              "name": "rateLimiterConfig",
              "type": "tuple"
            }
          ],
          "internalType": "struct TokenPool.RampUpdate[]",
          "name": "offRamps",
          "type": "tuple[]"
        }
      ],
      "name": "applyRampUpdates",
      "outputs": [],
      "stateMutability": "nonpayable",
      "type": "function"
    },
    {
      "inputs": [],
      "name": "canAcceptLiquidity",
      "outputs": [
        {
          "internalType": "bool",
          "name": "",
          "type": "bool"
        }
      ],
      "stateMutability": "view",
      "type": "function"
    },
    {
      "inputs": [
        {
          "internalType": "address",
          "name": "offRamp",
          "type": "address"
        }
      ],
      "name": "currentOffRampRateLimiterState",
      "outputs": [
        {
          "components": [
            {
              "internalType": "uint128",
              "name": "tokens",
              "type": "uint128"
            },
            {
              "internalType": "uint32",
              "name": "lastUpdated",
              "type": "uint32"
            },
            {
              "internalType": "bool",
              "name": "isEnabled",
              "type": "bool"
            },
            {
              "internalType": "uint128",
              "name": "capacity",
              "type": "uint128"
            },
            {
              "internalType": "uint128",
              "name": "rate",
              "type": "uint128"
            }
          ],
          "internalType": "struct RateLimiter.TokenBucket",
          "name": "",
          "type": "tuple"
        }
      ],
      "stateMutability": "view",
      "type": "function"
    },
    {
      "inputs": [
        {
          "internalType": "address",
          "name": "onRamp",
          "type": "address"
        }
      ],
      "name": "currentOnRampRateLimiterState",
      "outputs": [
        {
          "components": [
            {
              "internalType": "uint128",
              "name": "tokens",
              "type": "uint128"
            },
            {
              "internalType": "uint32",
              "name": "lastUpdated",
              "type": "uint32"
            },
            {
              "internalType": "bool",
              "name": "isEnabled",
              "type": "bool"
            },
            {
              "internalType": "uint128",
              "name": "capacity",
              "type": "uint128"
            },
            {
              "internalType": "uint128",
              "name": "rate",
              "type": "uint128"
            }
          ],
          "internalType": "struct RateLimiter.TokenBucket",
          "name": "",
          "type": "tuple"
        }
      ],
      "stateMutability": "view",
      "type": "function"
    },
    {
      "inputs": [],
      "name": "getAllowList",
      "outputs": [
        {
          "internalType": "address[]",
          "name": "",
          "type": "address[]"
        }
      ],
      "stateMutability": "view",
      "type": "function"
    },
    {
      "inputs": [],
      "name": "getAllowListEnabled",
      "outputs": [
        {
          "internalType": "bool",
          "name": "",
          "type": "bool"
        }
      ],
      "stateMutability": "view",
      "type": "function"
    },
    {
      "inputs": [],
      "name": "getArmProxy",
      "outputs": [
        {
          "internalType": "address",
          "name": "armProxy",
          "type": "address"
        }
      ],
      "stateMutability": "view",
      "type": "function"
    },
    {
      "inputs": [],
      "name": "getLockReleaseInterfaceId",
      "outputs": [
        {
          "internalType": "bytes4",
          "name": "",
          "type": "bytes4"
        }
      ],
      "stateMutability": "pure",
      "type": "function"
    },
    {
      "inputs": [],
      "name": "getOffRamps",
      "outputs": [
        {
          "internalType": "address[]",
          "name": "",
          "type": "address[]"
        }
      ],
      "stateMutability": "view",
      "type": "function"
    },
    {
      "inputs": [],
      "name": "getOnRamps",
      "outputs": [
        {
          "internalType": "address[]",
          "name": "",
          "type": "address[]"
        }
      ],
      "stateMutability": "view",
      "type": "function"
    },
    {
      "inputs": [
        {
          "internalType": "address",
          "name": "provider",
          "type": "address"
        }
      ],
      "name": "getProvidedLiquidity",
      "outputs": [
        {
          "internalType": "uint256",
          "name": "",
          "type": "uint256"
        }
      ],
      "stateMutability": "view",
      "type": "function"
    },
    {
      "inputs": [],
      "name": "getToken",
      "outputs": [
        {
          "internalType": "contract IERC20",
          "name": "token",
          "type": "address"
        }
      ],
      "stateMutability": "view",
      "type": "function"
    },
    {
      "inputs": [
        {
          "internalType": "address",
          "name": "offRamp",
          "type": "address"
        }
      ],
      "name": "isOffRamp",
      "outputs": [
        {
          "internalType": "bool",
          "name": "",
          "type": "bool"
        }
      ],
      "stateMutability": "view",
      "type": "function"
    },
    {
      "inputs": [
        {
          "internalType": "address",
          "name": "onRamp",
          "type": "address"
        }
      ],
      "name": "isOnRamp",
      "outputs": [
        {
          "internalType": "bool",
          "name": "",
          "type": "bool"
        }
      ],
      "stateMutability": "view",
      "type": "function"
    },
    {
      "inputs": [
        {
          "internalType": "address",
          "name": "originalSender",
          "type": "address"
        },
        {
          "internalType": "bytes",
          "name": "",
          "type": "bytes"
        },
        {
          "internalType": "uint256",
          "name": "amount",
          "type": "uint256"
        },
        {
          "internalType": "uint64",
          "name": "",
          "type": "uint64"
        },
        {
          "internalType": "bytes",
          "name": "",
          "type": "bytes"
        }
      ],
      "name": "lockOrBurn",
      "outputs": [
        {
          "internalType": "bytes",
          "name": "",
          "type": "bytes"
        }
      ],
      "stateMutability": "nonpayable",
      "type": "function"
    },
    {
      "inputs": [],
      "name": "owner",
      "outputs": [
        {
          "internalType": "address",
          "name": "",
          "type": "address"
        }
      ],
      "stateMutability": "view",
      "type": "function"
    },
    {
      "inputs": [
        {
          "internalType": "bytes",
          "name": "",
          "type": "bytes"
        },
        {
          "internalType": "address",
          "name": "receiver",
          "type": "address"
        },
        {
          "internalType": "uint256",
          "name": "amount",
          "type": "uint256"
        },
        {
          "internalType": "uint64",
          "name": "",
          "type": "uint64"
        },
        {
          "internalType": "bytes",
          "name": "",
          "type": "bytes"
        }
      ],
      "name": "releaseOrMint",
      "outputs": [],
      "stateMutability": "nonpayable",
      "type": "function"
    },
    {
      "inputs": [
        {
          "internalType": "uint256",
          "name": "amount",
          "type": "uint256"
        }
      ],
      "name": "removeLiquidity",
      "outputs": [],
      "stateMutability": "nonpayable",
      "type": "function"
    },
    {
      "inputs": [
        {
          "internalType": "address",
          "name": "offRamp",
          "type": "address"
        },
        {
          "components": [
            {
              "internalType": "bool",
              "name": "isEnabled",
              "type": "bool"
            },
            {
              "internalType": "uint128",
              "name": "capacity",
              "type": "uint128"
            },
            {
              "internalType": "uint128",
              "name": "rate",
              "type": "uint128"
            }
          ],
          "internalType": "struct RateLimiter.Config",
          "name": "config",
          "type": "tuple"
        }
      ],
      "name": "setOffRampRateLimiterConfig",
      "outputs": [],
      "stateMutability": "nonpayable",
      "type": "function"
    },
    {
      "inputs": [
        {
          "internalType": "address",
          "name": "onRamp",
          "type": "address"
        },
        {
          "components": [
            {
              "internalType": "bool",
              "name": "isEnabled",
              "type": "bool"
            },
            {
              "internalType": "uint128",
              "name": "capacity",
              "type": "uint128"
            },
            {
              "internalType": "uint128",
              "name": "rate",
              "type": "uint128"
            }
          ],
          "internalType": "struct RateLimiter.Config",
          "name": "config",
          "type": "tuple"
        }
      ],
      "name": "setOnRampRateLimiterConfig",
      "outputs": [],
      "stateMutability": "nonpayable",
      "type": "function"
    },
    {
      "inputs": [
        {
          "internalType": "bytes4",
          "name": "interfaceId",
          "type": "bytes4"
        }
      ],
      "name": "supportsInterface",
      "outputs": [
        {
          "internalType": "bool",
          "name": "",
          "type": "bool"
        }
      ],
      "stateMutability": "pure",
      "type": "function"
    },
    {
      "inputs": [
        {
          "internalType": "address",
          "name": "to",
          "type": "address"
        }
      ],
      "name": "transferOwnership",
      "outputs": [],
      "stateMutability": "nonpayable",
      "type": "function"
    },
    {
      "inputs": [],
      "name": "typeAndVersion",
      "outputs": [
        {
          "internalType": "string",
          "name": "",
          "type": "string"
        }
      ],
      "stateMutability": "view",
      "type": "function"
    }
  ],
  "bytecode": {
    "object": "0x6101006040523480156200001257600080fd5b506040516200349738038062003497833981016040819052620000359162000535565b83838333806000816200008f5760405162461bcd60e51b815260206004820152601860248201527f43616e6e6f7420736574206f776e657220746f207a65726f000000000000000060448201526064015b60405180910390fd5b600080546001600160a01b0319166001600160a01b0384811691909117909155811615620000c257620000c2816200013a565b5050506001600160a01b038316620000ed576040516342bcdf7f60e11b815260040160405180910390fd5b6001600160a01b03808416608052811660a052815115801560c0526200012857604080516000815260208101909152620001289083620001e5565b505050151560e05250620006b9915050565b336001600160a01b03821603620001945760405162461bcd60e51b815260206004820152601760248201527f43616e6e6f74207472616e7366657220746f2073656c66000000000000000000604482015260640162000086565b600180546001600160a01b0319166001600160a01b0383811691821790925560008054604051929316917fed8889f560326eb138920d842192f0eb3dd22b4f139c87a2c57538e05bae12789190a350565b60c05162000206576040516335f4a7b360e01b815260040160405180910390fd5b60005b82518110156200029b5760008382815181106200022a576200022a62000645565b602090810291909101015190506200024460028262000356565b1562000287576040516001600160a01b03821681527f800671136ab6cfee9fbe5ed1fb7ca417811aca3cf864800d127b927adedf75669060200160405180910390a15b50620002938162000671565b905062000209565b5060005b815181101562000351576000828281518110620002c057620002c062000645565b6020026020010151905060006001600160a01b0316816001600160a01b031603620002ec57506200033e565b620002f960028262000376565b156200033c576040516001600160a01b03821681527f2640d4d76caf8bf478aabfa982fa4e1c4eb71a37f93cd15e80dbc657911546d89060200160405180910390a15b505b620003498162000671565b90506200029f565b505050565b60006200036d836001600160a01b0384166200038d565b90505b92915050565b60006200036d836001600160a01b03841662000491565b6000818152600183016020526040812054801562000486576000620003b46001836200068d565b8554909150600090620003ca906001906200068d565b905081811462000436576000866000018281548110620003ee57620003ee62000645565b906000526020600020015490508087600001848154811062000414576200041462000645565b6000918252602080832090910192909255918252600188019052604090208390555b85548690806200044a576200044a620006a3565b60019003818190600052602060002001600090559055856001016000868152602001908152602001600020600090556001935050505062000370565b600091505062000370565b6000818152600183016020526040812054620004da5750815460018181018455600084815260208082209093018490558454848252828601909352604090209190915562000370565b50600062000370565b6001600160a01b0381168114620004f957600080fd5b50565b634e487b7160e01b600052604160045260246000fd5b80516200051f81620004e3565b919050565b805180151581146200051f57600080fd5b600080600080608085870312156200054c57600080fd5b84516200055981620004e3565b602086810151919550906001600160401b03808211156200057957600080fd5b818801915088601f8301126200058e57600080fd5b815181811115620005a357620005a3620004fc565b8060051b604051601f19603f83011681018181108582111715620005cb57620005cb620004fc565b60405291825284820192508381018501918b831115620005ea57600080fd5b938501935b828510156200061357620006038562000512565b84529385019392850192620005ef565b8098505050505050506200062a6040860162000512565b91506200063a6060860162000524565b905092959194509250565b634e487b7160e01b600052603260045260246000fd5b634e487b7160e01b600052601160045260246000fd5b6000600182016200068657620006866200065b565b5060010190565b818103818111156200037057620003706200065b565b634e487b7160e01b600052603160045260246000fd5b60805160a05160c05160e051612d576200074060003960008181610445015261053301526000818161049101528181610ad401526111c3015260008181610288015281816109440152610b4b0152600081816102390152818161059501528181610a1101528181610cd501528181610db2015281816115cf015261165f0152612d576000f3fe608060405234801561001057600080fd5b50600436106101ae5760003560e01c806387381314116100ee578063a7cd63b711610097578063c49907b511610071578063c49907b514610469578063d612b9451461047c578063e0351e131461048f578063f2fde38b146104b557600080fd5b8063a7cd63b714610428578063b3a3fb4114610430578063bb98546b1461044357600080fd5b806396875445116100c857806396875445146103fa5780639c8f9f231461040d578063a40e69c71461042057600080fd5b806387381314146103a65780638bfca18c146103bb5780638da5cb5b146103e957600080fd5b806354c8a4f31161015b5780637448b3c7116101355780637448b3c7146103095780637787e7ab1461031c57806379ba50971461038b5780638627fad61461039357600080fd5b806354c8a4f3146102ac57806356dd1e81146102bf5780636f32b872146102f657600080fd5b806321df0da71161018c57806321df0da71461023757806351c6590a146102715780635246492f1461028657600080fd5b806301ffc9a7146101b3578063181f5a77146101db5780631d7a74a014610224575b600080fd5b6101c66101c13660046124e9565b6104c8565b60405190151581526020015b60405180910390f35b6102176040518060400160405280601a81526020017f4c6f636b52656c65617365546f6b656e506f6f6c20312e322e3000000000000081525081565b6040516101d29190612599565b6101c66102323660046125c8565b610524565b7f00000000000000000000000000000000000000000000000000000000000000005b6040516001600160a01b0390911681526020016101d2565b61028461027f3660046125e3565b610531565b005b7f0000000000000000000000000000000000000000000000000000000000000000610259565b6102846102ba366004612648565b610611565b6102e86102cd3660046125c8565b6001600160a01b03166000908152600a602052604090205490565b6040519081526020016101d2565b6101c66103043660046125c8565b61068c565b61028461031736600461278b565b610699565b61032f61032a3660046125c8565b61074f565b6040516101d2919081516fffffffffffffffffffffffffffffffff908116825260208084015163ffffffff1690830152604080840151151590830152606080840151821690830152608092830151169181019190915260a00190565b610284610820565b6102846103a1366004612882565b610903565b6103ae610a7f565b6040516101d29190612911565b6040517f98a471770000000000000000000000000000000000000000000000000000000081526020016101d2565b6000546001600160a01b0316610259565b6102176104083660046129a0565b610a90565b61028461041b3660046125e3565b610c5c565b6103ae610e09565b6103ae610e15565b61032f61043e3660046125c8565b610e21565b7f00000000000000000000000000000000000000000000000000000000000000006101c6565b610284610477366004612a83565b610ef2565b61028461048a36600461278b565b610f06565b7f00000000000000000000000000000000000000000000000000000000000000006101c6565b6102846104c33660046125c8565b610fab565b60007fffffffff0000000000000000000000000000000000000000000000000000000082167f98a4717700000000000000000000000000000000000000000000000000000000148061051e575061051e82610fbf565b92915050565b600061051e600783611057565b7f0000000000000000000000000000000000000000000000000000000000000000610588576040517fe93f8fa400000000000000000000000000000000000000000000000000000000815260040160405180910390fd5b6105bd6001600160a01b037f00000000000000000000000000000000000000000000000000000000000000001633308461107c565b336000908152600a6020526040812080548392906105dc908490612b12565b9091555050604051819033907fc17cea59c2955cb181b03393209566960365771dbba9dc3d510180e7cb31208890600090a350565b61061961114b565b610686848480806020026020016040519081016040528093929190818152602001838360200280828437600092019190915250506040805160208088028281018201909352878252909350879250869182918501908490808284376000920191909152506111c192505050565b50505050565b600061051e600483611057565b6106a161114b565b6106aa8261068c565b6106f0576040517f498f12f60000000000000000000000000000000000000000000000000000000081526001600160a01b03831660048201526024015b60405180910390fd5b6001600160a01b03821660009081526006602052604090206107129082611358565b7f578db78e348076074dbff64a94073a83e9a65aa6766b8c75fdc89282b0e30ed68282604051610743929190612b25565b60405180910390a15050565b6040805160a0810182526000808252602082018190529181018290526060810182905260808101919091526001600160a01b038216600090815260066020908152604091829020825160a08101845281546fffffffffffffffffffffffffffffffff808216835270010000000000000000000000000000000080830463ffffffff16958401959095527401000000000000000000000000000000000000000090910460ff16151594820194909452600190910154808416606083015291909104909116608082015261051e90611507565b6001546001600160a01b03163314610894576040517f08c379a000000000000000000000000000000000000000000000000000000000815260206004820152601660248201527f4d7573742062652070726f706f736564206f776e65720000000000000000000060448201526064016106e7565b60008054337fffffffffffffffffffffffff0000000000000000000000000000000000000000808316821784556001805490911690556040516001600160a01b0390921692909183917f8be0079c531659141344cd1fd0a4f28419497f9722a3daafe3b4186f6b6457e091a350565b61090c33610524565b610942576040517f5307f5ab00000000000000000000000000000000000000000000000000000000815260040160405180910390fd5b7f00000000000000000000000000000000000000000000000000000000000000006001600160a01b031663397796f76040518163ffffffff1660e01b8152600401602060405180830381865afa1580156109a0573d6000803e3d6000fd5b505050506040513d601f19601f820116820180604052508101906109c49190612b70565b156109fb576040517fc148371500000000000000000000000000000000000000000000000000000000815260040160405180910390fd5b610a04836115b9565b610a386001600160a01b037f00000000000000000000000000000000000000000000000000000000000000001685856115f3565b6040518381526001600160a01b0385169033907f2d87480f50083e2b2759522a8fdda59802650a8055e609a7772cf70c07748f529060200160405180910390a35050505050565b6060610a8b600461163c565b905090565b6060610a9b3361068c565b610ad1576040517f5307f5ab00000000000000000000000000000000000000000000000000000000815260040160405180910390fd5b877f00000000000000000000000000000000000000000000000000000000000000008015610b075750610b05600282611057565b155b15610b49576040517fd0d259760000000000000000000000000000000000000000000000000000000081526001600160a01b03821660048201526024016106e7565b7f00000000000000000000000000000000000000000000000000000000000000006001600160a01b031663397796f76040518163ffffffff1660e01b8152600401602060405180830381865afa158015610ba7573d6000803e3d6000fd5b505050506040513d601f19601f82011682018060405250810190610bcb9190612b70565b15610c02576040517fc148371500000000000000000000000000000000000000000000000000000000815260040160405180910390fd5b610c0b86611649565b60405186815233907f9f1ec8c880f76798e7b793325d625e9b60e4082a553c98f42b6cda368dd600089060200160405180910390a25050604080516020810190915260008152979650505050505050565b336000908152600a6020526040902054811115610ca5576040517f6982012000000000000000000000000000000000000000000000000000000000815260040160405180910390fd5b6040517f70a0823100000000000000000000000000000000000000000000000000000000815230600482015281907f00000000000000000000000000000000000000000000000000000000000000006001600160a01b0316906370a0823190602401602060405180830381865afa158015610d24573d6000803e3d6000fd5b505050506040513d601f19601f82011682018060405250810190610d489190612b8d565b1015610d80576040517fbb55fd2700000000000000000000000000000000000000000000000000000000815260040160405180910390fd5b336000908152600a602052604081208054839290610d9f908490612ba6565b90915550610dd990506001600160a01b037f00000000000000000000000000000000000000000000000000000000000000001633836115f3565b604051819033907fc2c3f06e49b9f15e7b4af9055e183b0d73362e033ad82a07dec9bf984017171990600090a350565b6060610a8b600761163c565b6060610a8b600261163c565b6040805160a0810182526000808252602082018190529181018290526060810182905260808101919091526001600160a01b038216600090815260096020908152604091829020825160a08101845281546fffffffffffffffffffffffffffffffff808216835270010000000000000000000000000000000080830463ffffffff16958401959095527401000000000000000000000000000000000000000090910460ff16151594820194909452600190910154808416606083015291909104909116608082015261051e90611507565b610efa61114b565b61068684848484611683565b610f0e61114b565b610f1782610524565b610f58576040517f498f12f60000000000000000000000000000000000000000000000000000000081526001600160a01b03831660048201526024016106e7565b6001600160a01b0382166000908152600960205260409020610f7a9082611358565b7fb3ba339cfbb8ef80d7a29ce5493051cb90e64fcfa85d7124efc1adfa4c68399f8282604051610743929190612b25565b610fb361114b565b610fbc81611bcb565b50565b60007fffffffff0000000000000000000000000000000000000000000000000000000082167f317fa33400000000000000000000000000000000000000000000000000000000148061051e57507fffffffff0000000000000000000000000000000000000000000000000000000082167f01ffc9a7000000000000000000000000000000000000000000000000000000001492915050565b6001600160a01b038116600090815260018301602052604081205415155b9392505050565b6040516001600160a01b03808516602483015283166044820152606481018290526106869085907f23b872dd00000000000000000000000000000000000000000000000000000000906084015b604080517fffffffffffffffffffffffffffffffffffffffffffffffffffffffffffffffe08184030181529190526020810180517bffffffffffffffffffffffffffffffffffffffffffffffffffffffff167fffffffff0000000000000000000000000000000000000000000000000000000090931692909217909152611ca6565b6000546001600160a01b031633146111bf576040517f08c379a000000000000000000000000000000000000000000000000000000000815260206004820152601660248201527f4f6e6c792063616c6c61626c65206279206f776e65720000000000000000000060448201526064016106e7565b565b7f0000000000000000000000000000000000000000000000000000000000000000611218576040517f35f4a7b300000000000000000000000000000000000000000000000000000000815260040160405180910390fd5b60005b82518110156112a957600083828151811061123857611238612bb9565b60200260200101519050611256816002611da590919063ffffffff16565b15611298576040516001600160a01b03821681527f800671136ab6cfee9fbe5ed1fb7ca417811aca3cf864800d127b927adedf75669060200160405180910390a15b506112a281612be8565b905061121b565b5060005b81518110156113535760008282815181106112ca576112ca612bb9565b6020026020010151905060006001600160a01b0316816001600160a01b0316036112f45750611343565b6112ff600282611dba565b15611341576040516001600160a01b03821681527f2640d4d76caf8bf478aabfa982fa4e1c4eb71a37f93cd15e80dbc657911546d89060200160405180910390a15b505b61134c81612be8565b90506112ad565b505050565b815460009061138190700100000000000000000000000000000000900463ffffffff1642612ba6565b9050801561142357600183015483546113c9916fffffffffffffffffffffffffffffffff80821692811691859170010000000000000000000000000000000090910416611dcf565b83546fffffffffffffffffffffffffffffffff919091167fffffffffffffffffffffffff0000000000000000000000000000000000000000909116177001000000000000000000000000000000004263ffffffff16021783555b60208201518354611449916fffffffffffffffffffffffffffffffff9081169116611df9565b83548351151574010000000000000000000000000000000000000000027fffffffffffffffffffffff00ffffffff000000000000000000000000000000009091166fffffffffffffffffffffffffffffffff92831617178455602083015160408085015183167001000000000000000000000000000000000291909216176001850155517f9ea3374b67bf275e6bb9c8ae68f9cae023e1c528b4b27e092f0bb209d3531c19906114fa908490612c20565b60405180910390a1505050565b6040805160a08101825260008082526020820181905291810182905260608101829052608081019190915261159582606001516fffffffffffffffffffffffffffffffff1683600001516fffffffffffffffffffffffffffffffff16846020015163ffffffff16426115799190612ba6565b85608001516fffffffffffffffffffffffffffffffff16611dcf565b6fffffffffffffffffffffffffffffffff1682525063ffffffff4216602082015290565b336000908152600960205260409020610fbc90827f0000000000000000000000000000000000000000000000000000000000000000611e0f565b6040516001600160a01b0383166024820152604481018290526113539084907fa9059cbb00000000000000000000000000000000000000000000000000000000906064016110c9565b606060006110758361215e565b336000908152600660205260409020610fbc90827f0000000000000000000000000000000000000000000000000000000000000000611e0f565b61168b61114b565b60005b838110156119675760008585838181106116aa576116aa612bb9565b905060a002018036038101906116c09190612c5c565b905080602001511561187e5780516116da90600490611dba565b1561183e576040805160a08101825282820180516020908101516fffffffffffffffffffffffffffffffff908116845263ffffffff4281168386019081528451511515868801908152855185015184166060880190815286518901518516608089019081528a516001600160a01b031660009081526006909752958990209751885493519251151574010000000000000000000000000000000000000000027fffffffffffffffffffffff00ffffffffffffffffffffffffffffffffffffffff939095167001000000000000000000000000000000009081027fffffffffffffffffffffffff0000000000000000000000000000000000000000909516918716919091179390931791909116929092178655905192518216029116176001909201919091558251905191517f0b594bb0555ff7b252e0c789ccc9d8903fec294172064308727d570505cee1ac926118319291612b25565b60405180910390a1611956565b80516040517fd3eb6bc50000000000000000000000000000000000000000000000000000000081526001600160a01b0390911660048201526024016106e7565b805161188c90600490611da5565b156119165780516001600160a01b031660009081526006602052604080822080547fffffffffffffffffffffff00000000000000000000000000000000000000000016815560010191909155815190517f7fd064821314ad863a0714a3f1229375ace6b6427ed5544b7b2ba1c47b1b529491611831916001600160a01b0391909116815260200190565b80516040517f498f12f60000000000000000000000000000000000000000000000000000000081526001600160a01b0390911660048201526024016106e7565b5061196081612be8565b905061168e565b5060005b81811015611bc457600083838381811061198757611987612bb9565b905060a0020180360381019061199d9190612c5c565b9050806020015115611b1b5780516119b790600790611dba565b1561183e576040805160a08101825282820180516020908101516fffffffffffffffffffffffffffffffff908116845263ffffffff4281168386019081528451511515868801908152855185015184166060880190815286518901518516608089019081528a516001600160a01b031660009081526009909752958990209751885493519251151574010000000000000000000000000000000000000000027fffffffffffffffffffffff00ffffffffffffffffffffffffffffffffffffffff939095167001000000000000000000000000000000009081027fffffffffffffffffffffffff0000000000000000000000000000000000000000909516918716919091179390931791909116929092178655905192518216029116176001909201919091558251905191517f395b7374909d2b54e5796f53c898ebf41d767c86c78ea86519acf2b805852d8892611b0e9291612b25565b60405180910390a1611bb3565b8051611b2990600790611da5565b156119165780516001600160a01b031660009081526009602052604080822080547fffffffffffffffffffffff00000000000000000000000000000000000000000016815560010191909155815190517fcf91daec21e3510e2f2aea4b09d08c235d5c6844980be709f282ef591dbf420c91611b0e916001600160a01b0391909116815260200190565b50611bbd81612be8565b905061196b565b5050505050565b336001600160a01b03821603611c3d576040517f08c379a000000000000000000000000000000000000000000000000000000000815260206004820152601760248201527f43616e6e6f74207472616e7366657220746f2073656c6600000000000000000060448201526064016106e7565b600180547fffffffffffffffffffffffff0000000000000000000000000000000000000000166001600160a01b0383811691821790925560008054604051929316917fed8889f560326eb138920d842192f0eb3dd22b4f139c87a2c57538e05bae12789190a350565b6000611cfb826040518060400160405280602081526020017f5361666545524332303a206c6f772d6c6576656c2063616c6c206661696c6564815250856001600160a01b03166121ba9092919063ffffffff16565b8051909150156113535780806020019051810190611d199190612b70565b611353576040517f08c379a000000000000000000000000000000000000000000000000000000000815260206004820152602a60248201527f5361666545524332303a204552433230206f7065726174696f6e20646964206e60448201527f6f7420737563636565640000000000000000000000000000000000000000000060648201526084016106e7565b6000611075836001600160a01b0384166121c9565b6000611075836001600160a01b0384166122bc565b6000611dee85611ddf8486612cad565b611de99087612b12565b611df9565b90505b949350505050565b6000818310611e085781611075565b5090919050565b825474010000000000000000000000000000000000000000900460ff161580611e36575081155b15611e4057505050565b825460018401546fffffffffffffffffffffffffffffffff80831692911690600090611e8690700100000000000000000000000000000000900463ffffffff1642612ba6565b90508015611f465781831115611ec8576040517f9725942a00000000000000000000000000000000000000000000000000000000815260040160405180910390fd5b6001860154611f029083908590849070010000000000000000000000000000000090046fffffffffffffffffffffffffffffffff16611dcf565b86547fffffffffffffffffffffffff00000000ffffffffffffffffffffffffffffffff167001000000000000000000000000000000004263ffffffff160217875592505b84821015611fe3576001600160a01b038416611f98576040517ff94ebcd100000000000000000000000000000000000000000000000000000000815260048101839052602481018690526044016106e7565b6040517f1a76572a00000000000000000000000000000000000000000000000000000000815260048101839052602481018690526001600160a01b03851660448201526064016106e7565b848310156120dc5760018681015470010000000000000000000000000000000090046fffffffffffffffffffffffffffffffff169060009082906120279082612ba6565b612031878a612ba6565b61203b9190612b12565b6120459190612cc4565b90506001600160a01b038616612091576040517f15279c0800000000000000000000000000000000000000000000000000000000815260048101829052602481018690526044016106e7565b6040517fd0c8d23a00000000000000000000000000000000000000000000000000000000815260048101829052602481018690526001600160a01b03871660448201526064016106e7565b6120e68584612ba6565b86547fffffffffffffffffffffffffffffffff00000000000000000000000000000000166fffffffffffffffffffffffffffffffff82161787556040518681529093507f1871cdf8010e63f2eb8384381a68dfa7416dc571a5517e66e88b2d2d0c0a690a9060200160405180910390a1505050505050565b6060816000018054806020026020016040519081016040528092919081815260200182805480156121ae57602002820191906000526020600020905b81548152602001906001019080831161219a575b50505050509050919050565b6060611df1848460008561230b565b600081815260018301602052604081205480156122b25760006121ed600183612ba6565b855490915060009061220190600190612ba6565b905081811461226657600086600001828154811061222157612221612bb9565b906000526020600020015490508087600001848154811061224457612244612bb9565b6000918252602080832090910192909255918252600188019052604090208390555b855486908061227757612277612cff565b60019003818190600052602060002001600090559055856001016000868152602001908152602001600020600090556001935050505061051e565b600091505061051e565b60008181526001830160205260408120546123035750815460018181018455600084815260208082209093018490558454848252828601909352604090209190915561051e565b50600061051e565b60608247101561239d576040517f08c379a000000000000000000000000000000000000000000000000000000000815260206004820152602660248201527f416464726573733a20696e73756666696369656e742062616c616e636520666f60448201527f722063616c6c000000000000000000000000000000000000000000000000000060648201526084016106e7565b600080866001600160a01b031685876040516123b99190612d2e565b60006040518083038185875af1925050503d80600081146123f6576040519150601f19603f3d011682016040523d82523d6000602084013e6123fb565b606091505b509150915061240c87838387612417565b979650505050505050565b606083156124a0578251600003612499576001600160a01b0385163b612499576040517f08c379a000000000000000000000000000000000000000000000000000000000815260206004820152601d60248201527f416464726573733a2063616c6c20746f206e6f6e2d636f6e747261637400000060448201526064016106e7565b5081611df1565b611df183838151156124b55781518083602001fd5b806040517f08c379a00000000000000000000000000000000000000000000000000000000081526004016106e79190612599565b6000602082840312156124fb57600080fd5b81357fffffffff000000000000000000000000000000000000000000000000000000008116811461107557600080fd5b60005b8381101561254657818101518382015260200161252e565b50506000910152565b6000815180845261256781602086016020860161252b565b601f017fffffffffffffffffffffffffffffffffffffffffffffffffffffffffffffffe0169290920160200192915050565b602081526000611075602083018461254f565b80356001600160a01b03811681146125c357600080fd5b919050565b6000602082840312156125da57600080fd5b611075826125ac565b6000602082840312156125f557600080fd5b5035919050565b60008083601f84011261260e57600080fd5b50813567ffffffffffffffff81111561262657600080fd5b6020830191508360208260051b850101111561264157600080fd5b9250929050565b6000806000806040858703121561265e57600080fd5b843567ffffffffffffffff8082111561267657600080fd5b612682888389016125fc565b9096509450602087013591508082111561269b57600080fd5b506126a8878288016125fc565b95989497509550505050565b7f4e487b7100000000000000000000000000000000000000000000000000000000600052604160045260246000fd5b6040516060810167ffffffffffffffff81118282101715612706576127066126b4565b60405290565b8015158114610fbc57600080fd5b80356fffffffffffffffffffffffffffffffff811681146125c357600080fd5b60006060828403121561274c57600080fd5b6127546126e3565b905081356127618161270c565b815261276f6020830161271a565b60208201526127806040830161271a565b604082015292915050565b6000806080838503121561279e57600080fd5b6127a7836125ac565b91506127b6846020850161273a565b90509250929050565b600082601f8301126127d057600080fd5b813567ffffffffffffffff808211156127eb576127eb6126b4565b604051601f83017fffffffffffffffffffffffffffffffffffffffffffffffffffffffffffffffe0908116603f01168101908282118183101715612831576128316126b4565b8160405283815286602085880101111561284a57600080fd5b836020870160208301376000602085830101528094505050505092915050565b803567ffffffffffffffff811681146125c357600080fd5b600080600080600060a0868803121561289a57600080fd5b853567ffffffffffffffff808211156128b257600080fd5b6128be89838a016127bf565b96506128cc602089016125ac565b9550604088013594506128e16060890161286a565b935060808801359150808211156128f757600080fd5b50612904888289016127bf565b9150509295509295909350565b6020808252825182820181905260009190848201906040850190845b818110156129525783516001600160a01b03168352928401929184019160010161292d565b50909695505050505050565b60008083601f84011261297057600080fd5b50813567ffffffffffffffff81111561298857600080fd5b60208301915083602082850101111561264157600080fd5b600080600080600080600060a0888a0312156129bb57600080fd5b6129c4886125ac565b9650602088013567ffffffffffffffff808211156129e157600080fd5b6129ed8b838c0161295e565b909850965060408a01359550869150612a0860608b0161286a565b945060808a0135915080821115612a1e57600080fd5b50612a2b8a828b0161295e565b989b979a50959850939692959293505050565b60008083601f840112612a5057600080fd5b50813567ffffffffffffffff811115612a6857600080fd5b60208301915083602060a08302850101111561264157600080fd5b60008060008060408587031215612a9957600080fd5b843567ffffffffffffffff80821115612ab157600080fd5b612abd88838901612a3e565b90965094506020870135915080821115612ad657600080fd5b506126a887828801612a3e565b7f4e487b7100000000000000000000000000000000000000000000000000000000600052601160045260246000fd5b8082018082111561051e5761051e612ae3565b6001600160a01b03831681526080810161107560208301848051151582526020808201516fffffffffffffffffffffffffffffffff9081169184019190915260409182015116910152565b600060208284031215612b8257600080fd5b81516110758161270c565b600060208284031215612b9f57600080fd5b5051919050565b8181038181111561051e5761051e612ae3565b7f4e487b7100000000000000000000000000000000000000000000000000000000600052603260045260246000fd5b60007fffffffffffffffffffffffffffffffffffffffffffffffffffffffffffffffff8203612c1957612c19612ae3565b5060010190565b6060810161051e82848051151582526020808201516fffffffffffffffffffffffffffffffff9081169184019190915260409182015116910152565b600060a08284031215612c6e57600080fd5b612c766126e3565b612c7f836125ac565b81526020830135612c8f8161270c565b6020820152612ca1846040850161273a565b60408201529392505050565b808202811582820484141761051e5761051e612ae3565b600082612cfa577f4e487b7100000000000000000000000000000000000000000000000000000000600052601260045260246000fd5b500490565b7f4e487b7100000000000000000000000000000000000000000000000000000000600052603160045260246000fd5b60008251612d4081846020870161252b565b919091019291505056fea164736f6c6343000815000a",
    "linkReferences": {}
  },
  "methodIdentifiers": {
    "acceptOwnership()": "79ba5097",
    "addLiquidity(uint256)": "51c6590a",
    "applyAllowListUpdates(address[],address[])": "54c8a4f3",
    "applyRampUpdates((address,bool,(bool,uint128,uint128))[],(address,bool,(bool,uint128,uint128))[])": "c49907b5",
    "canAcceptLiquidity()": "bb98546b",
    "currentOffRampRateLimiterState(address)": "b3a3fb41",
    "currentOnRampRateLimiterState(address)": "7787e7ab",
    "getAllowList()": "a7cd63b7",
    "getAllowListEnabled()": "e0351e13",
    "getArmProxy()": "5246492f",
    "getLockReleaseInterfaceId()": "8bfca18c",
    "getOffRamps()": "a40e69c7",
    "getOnRamps()": "87381314",
    "getProvidedLiquidity(address)": "56dd1e81",
    "getToken()": "21df0da7",
    "isOffRamp(address)": "1d7a74a0",
    "isOnRamp(address)": "6f32b872",
    "lockOrBurn(address,bytes,uint256,uint64,bytes)": "96875445",
    "owner()": "8da5cb5b",
    "releaseOrMint(bytes,address,uint256,uint64,bytes)": "8627fad6",
    "removeLiquidity(uint256)": "9c8f9f23",
    "setOffRampRateLimiterConfig(address,(bool,uint128,uint128))": "d612b945",
    "setOnRampRateLimiterConfig(address,(bool,uint128,uint128))": "7448b3c7",
    "supportsInterface(bytes4)": "01ffc9a7",
    "transferOwnership(address)": "f2fde38b",
    "typeAndVersion()": "181f5a77"
  },
  "id": 133
}