{
  "abi": [
    {
      "inputs": [
        {
          "internalType": "address",
          "name": "sender",
          "type": "address"
        }
      ],
      "stateMutability": "nonpayable",
      "type": "constructor"
    },
    {
      "anonymous": false,
      "inputs": [
        {
          "indexed": false,
          "internalType": "bytes32",
          "name": "msgHash",
          "type": "bytes32"
        }
      ],
      "name": "FailedRelayedMessage",
      "type": "event"
    },
    {
      "anonymous": false,
      "inputs": [
        {
          "indexed": false,
          "internalType": "bytes32",
          "name": "msgHash",
          "type": "bytes32"
        }
      ],
      "name": "RelayedMessage",
      "type": "event"
    },
    {
      "anonymous": false,
      "inputs": [
        {
          "indexed": false,
          "internalType": "bytes",
          "name": "message",
          "type": "bytes"
        }
      ],
      "name": "SentMessage",
      "type": "event"
    },
    {
      "inputs": [
        {
          "internalType": "address",
          "name": "sender",
          "type": "address"
        }
      ],
      "name": "_setMockMessageSender",
      "outputs": [],
      "stateMutability": "nonpayable",
      "type": "function"
    },
    {
      "inputs": [
        {
          "internalType": "address",
          "name": "_target",
          "type": "address"
        },
        {
          "internalType": "bytes",
          "name": "_message",
          "type": "bytes"
        },
        {
          "internalType": "uint32",
          "name": "_gasLimit",
          "type": "uint32"
        }
      ],
      "name": "sendMessage",
      "outputs": [],
      "stateMutability": "nonpayable",
      "type": "function"
    },
    {
      "inputs": [],
      "name": "xDomainMessageSender",
      "outputs": [
        {
          "internalType": "address",
          "name": "",
          "type": "address"
        }
      ],
      "stateMutability": "view",
      "type": "function"
    }
  ],
  "bytecode": {
    "object": "0x608060405234801561001057600080fd5b5060405161058738038061058783398101604081905261002f91610054565b600080546001600160a01b0319166001600160a01b0392909216919091179055610084565b60006020828403121561006657600080fd5b81516001600160a01b038116811461007d57600080fd5b9392505050565b6104f4806100936000396000f3fe608060405234801561001057600080fd5b50600436106100415760003560e01c80633b61c142146100465780633dbb202b1461009d5780636e296e45146100b0575b600080fd5b61009b610054366004610395565b600080547fffffffffffffffffffffffff00000000000000000000000000000000000000001673ffffffffffffffffffffffffffffffffffffffff92909216919091179055565b005b61009b6100ab3660046103b7565b6100dc565b6000546040805173ffffffffffffffffffffffffffffffffffffffff9092168252519081900360200190f35b6101518484848080601f0160208091040260200160405190810160405280939291908181526020018383808284376000920191909152505060408051808201909152601481527f73656e644d657373616765207265766572746564000000000000000000000000602082015291506101589050565b5050505050565b6060610167848460008561016f565b949350505050565b606082471015610206576040517f08c379a000000000000000000000000000000000000000000000000000000000815260206004820152602660248201527f416464726573733a20696e73756666696369656e742062616c616e636520666f60448201527f722063616c6c000000000000000000000000000000000000000000000000000060648201526084015b60405180910390fd5b6000808673ffffffffffffffffffffffffffffffffffffffff16858760405161022f919061047a565b60006040518083038185875af1925050503d806000811461026c576040519150601f19603f3d011682016040523d82523d6000602084013e610271565b606091505b50915091506102828783838761028d565b979650505050505050565b6060831561032357825160000361031c5773ffffffffffffffffffffffffffffffffffffffff85163b61031c576040517f08c379a000000000000000000000000000000000000000000000000000000000815260206004820152601d60248201527f416464726573733a2063616c6c20746f206e6f6e2d636f6e747261637400000060448201526064016101fd565b5081610167565b61016783838151156103385781518083602001fd5b806040517f08c379a00000000000000000000000000000000000000000000000000000000081526004016101fd9190610496565b803573ffffffffffffffffffffffffffffffffffffffff8116811461039057600080fd5b919050565b6000602082840312156103a757600080fd5b6103b08261036c565b9392505050565b600080600080606085870312156103cd57600080fd5b6103d68561036c565b9350602085013567ffffffffffffffff808211156103f357600080fd5b818701915087601f83011261040757600080fd5b81358181111561041657600080fd5b88602082850101111561042857600080fd5b602083019550809450505050604085013563ffffffff8116811461044b57600080fd5b939692955090935050565b60005b83811015610471578181015183820152602001610459565b50506000910152565b6000825161048c818460208701610456565b9190910192915050565b60208152600082518060208401526104b5816040850160208701610456565b601f017fffffffffffffffffffffffffffffffffffffffffffffffffffffffffffffffe016919091016040019291505056fea164736f6c6343000815000a",
    "linkReferences": {}
  },
  "methodIdentifiers": {
    "_setMockMessageSender(address)": "3b61c142",
    "sendMessage(address,bytes,uint32)": "3dbb202b",
    "xDomainMessageSender()": "6e296e45"
  },
  "id": 286
}