{
  "abi": [
    {
      "inputs": [],
      "name": "EmptySendersList",
      "type": "error"
    },
    {
      "inputs": [],
      "name": "NotAllowedToSetSenders",
      "type": "error"
    },
    {
      "inputs": [],
      "name": "UnauthorizedSender",
      "type": "error"
    },
    {
      "anonymous": false,
      "inputs": [
        {
          "indexed": false,
          "internalType": "address[]",
          "name": "senders",
          "type": "address[]"
        },
        {
          "indexed": false,
          "internalType": "address",
          "name": "changedBy",
          "type": "address"
        }
      ],
      "name": "AuthorizedSendersChanged",
      "type": "event"
    },
    {
      "inputs": [
        {
          "internalType": "bool",
          "name": "on",
          "type": "bool"
        }
      ],
      "name": "changeSetAuthorizedSender",
      "outputs": [],
      "stateMutability": "nonpayable",
      "type": "function"
    },
    {
      "inputs": [],
      "name": "getAuthorizedSenders",
      "outputs": [
        {
          "internalType": "address[]",
          "name": "",
          "type": "address[]"
        }
      ],
      "stateMutability": "view",
      "type": "function"
    },
    {
      "inputs": [
        {
          "internalType": "address",
          "name": "sender",
          "type": "address"
        }
      ],
      "name": "isAuthorizedSender",
      "outputs": [
        {
          "internalType": "bool",
          "name": "",
          "type": "bool"
        }
      ],
      "stateMutability": "view",
      "type": "function"
    },
    {
      "inputs": [
        {
          "internalType": "address[]",
          "name": "senders",
          "type": "address[]"
        }
      ],
      "name": "setAuthorizedSenders",
      "outputs": [],
      "stateMutability": "nonpayable",
      "type": "function"
    },
    {
      "inputs": [],
      "name": "verifyValidateAuthorizedSender",
      "outputs": [
        {
          "internalType": "bool",
          "name": "",
          "type": "bool"
        }
      ],
      "stateMutability": "view",
      "type": "function"
    }
  ],
  "bytecode": {
    "object": "0x60806040526003805460ff1916600117905534801561001d57600080fd5b506108378061002d6000396000f3fe608060405234801561001057600080fd5b50600436106100675760003560e01c8063ee56997b11610050578063ee56997b146100a2578063f88c64ba146100b7578063fa00763a146100f657600080fd5b80632408afaa1461006c578063bd8fe0611461008a575b600080fd5b610074610109565b60405161008191906105a5565b60405180910390f35b610092610178565b6040519015158152602001610081565b6100b56100b03660046105ff565b610188565b005b6100b56100c5366004610674565b600380547fffffffffffffffffffffffffffffffffffffffffffffffffffffffffffffff0016911515919091179055565b6100926101043660046106bf565b6102f9565b6060600280548060200260200160405190810160405280929190818152602001828054801561016e57602002820191906000526020600020905b815473ffffffffffffffffffffffffffffffffffffffff168152600190910190602001808311610143575b5050505050905090565b600061018261030b565b50600190565b60035460ff166101c4576040517fad77f06100000000000000000000000000000000000000000000000000000000815260040160405180910390fd5b60008190036101ff576040517f75158c3b00000000000000000000000000000000000000000000000000000000815260040160405180910390fd5b60005b60025481101561025b5761024860028281548110610222576102226106da565b600091825260208220015473ffffffffffffffffffffffffffffffffffffffff1661034c565b508061025381610738565b915050610202565b5060005b818110156102ac5761029983838381811061027c5761027c6106da565b905060200201602081019061029191906106bf565b600090610375565b50806102a481610738565b91505061025f565b506102b960028383610508565b507ff263cfb3e4298332e776194610cf9fdc09ccb3ada8b9aa39764d882e11fbf0a08282336040516102ed93929190610770565b60405180910390a15050565b60006103058183610397565b92915050565b610314336102f9565b61034a576040517f0809490800000000000000000000000000000000000000000000000000000000815260040160405180910390fd5b565b600061036e8373ffffffffffffffffffffffffffffffffffffffff84166103c6565b9392505050565b600061036e8373ffffffffffffffffffffffffffffffffffffffff84166104b9565b73ffffffffffffffffffffffffffffffffffffffff81166000908152600183016020526040812054151561036e565b600081815260018301602052604081205480156104af5760006103ea6001836107e8565b85549091506000906103fe906001906107e8565b905081811461046357600086600001828154811061041e5761041e6106da565b9060005260206000200154905080876000018481548110610441576104416106da565b6000918252602080832090910192909255918252600188019052604090208390555b8554869080610474576104746107fb565b600190038181906000526020600020016000905590558560010160008681526020019081526020016000206000905560019350505050610305565b6000915050610305565b600081815260018301602052604081205461050057508154600181810184556000848152602080822090930184905584548482528286019093526040902091909155610305565b506000610305565b828054828255906000526020600020908101928215610580579160200282015b828111156105805781547fffffffffffffffffffffffff00000000000000000000000000000000000000001673ffffffffffffffffffffffffffffffffffffffff843516178255602090920191600190910190610528565b5061058c929150610590565b5090565b5b8082111561058c5760008155600101610591565b6020808252825182820181905260009190848201906040850190845b818110156105f357835173ffffffffffffffffffffffffffffffffffffffff16835292840192918401916001016105c1565b50909695505050505050565b6000806020838503121561061257600080fd5b823567ffffffffffffffff8082111561062a57600080fd5b818501915085601f83011261063e57600080fd5b81358181111561064d57600080fd5b8660208260051b850101111561066257600080fd5b60209290920196919550909350505050565b60006020828403121561068657600080fd5b8135801515811461036e57600080fd5b803573ffffffffffffffffffffffffffffffffffffffff811681146106ba57600080fd5b919050565b6000602082840312156106d157600080fd5b61036e82610696565b7f4e487b7100000000000000000000000000000000000000000000000000000000600052603260045260246000fd5b7f4e487b7100000000000000000000000000000000000000000000000000000000600052601160045260246000fd5b60007fffffffffffffffffffffffffffffffffffffffffffffffffffffffffffffffff820361076957610769610709565b5060010190565b6040808252810183905260008460608301825b868110156107be5773ffffffffffffffffffffffffffffffffffffffff6107a984610696565b16825260209283019290910190600101610783565b50809250505073ffffffffffffffffffffffffffffffffffffffff83166020830152949350505050565b8181038181111561030557610305610709565b7f4e487b7100000000000000000000000000000000000000000000000000000000600052603160045260246000fdfea164736f6c6343000815000a",
    "linkReferences": {}
  },
  "methodIdentifiers": {
    "changeSetAuthorizedSender(bool)": "f88c64ba",
    "getAuthorizedSenders()": "2408afaa",
    "isAuthorizedSender(address)": "fa00763a",
    "setAuthorizedSenders(address[])": "ee56997b",
    "verifyValidateAuthorizedSender()": "bd8fe061"
  },
  "id": 178
}