{
  "abi": [
    {
      "inputs": [
        {
          "internalType": "uint256",
          "name": "internalBalance",
          "type": "uint256"
        },
        {
          "internalType": "uint256",
          "name": "externalBalance",
          "type": "uint256"
        }
      ],
      "name": "BalanceInvariantViolated",
      "type": "error"
    },
    {
      "inputs": [],
      "name": "CannotSelfTransfer",
      "type": "error"
    },
    {
      "inputs": [],
      "name": "EmptySendersList",
      "type": "error"
    },
    {
      "inputs": [
        {
          "internalType": "uint32",
          "name": "have",
          "type": "uint32"
        },
        {
          "internalType": "uint32",
          "name": "want",
          "type": "uint32"
        }
      ],
      "name": "GasLimitTooBig",
      "type": "error"
    },
    {
      "inputs": [],
      "name": "IncorrectRequestID",
      "type": "error"
    },
    {
      "inputs": [],
      "name": "InsufficientBalance",
      "type": "error"
    },
    {
      "inputs": [],
      "name": "InvalidCalldata",
      "type": "error"
    },
    {
      "inputs": [
        {
          "internalType": "uint64",
          "name": "subscriptionId",
          "type": "uint64"
        },
        {
          "internalType": "address",
          "name": "consumer",
          "type": "address"
        }
      ],
      "name": "InvalidConsumer",
      "type": "error"
    },
    {
      "inputs": [
        {
          "internalType": "int256",
          "name": "linkWei",
          "type": "int256"
        }
      ],
      "name": "InvalidLinkWeiPrice",
      "type": "error"
    },
    {
      "inputs": [],
      "name": "InvalidSubscription",
      "type": "error"
    },
    {
      "inputs": [
        {
          "internalType": "address",
          "name": "proposedOwner",
          "type": "address"
        }
      ],
      "name": "MustBeRequestedOwner",
      "type": "error"
    },
    {
      "inputs": [
        {
          "internalType": "address",
          "name": "owner",
          "type": "address"
        }
      ],
      "name": "MustBeSubOwner",
      "type": "error"
    },
    {
      "inputs": [],
      "name": "NotAllowedToSetSenders",
      "type": "error"
    },
    {
      "inputs": [],
      "name": "NotProposedOwner",
      "type": "error"
    },
    {
      "inputs": [],
      "name": "OnlyCallableByOwner",
      "type": "error"
    },
    {
      "inputs": [],
      "name": "OnlyCallableFromLink",
      "type": "error"
    },
    {
      "inputs": [],
      "name": "OwnerMustBeSet",
      "type": "error"
    },
    {
      "inputs": [],
      "name": "PaymentTooLarge",
      "type": "error"
    },
    {
      "inputs": [],
      "name": "PendingRequestExists",
      "type": "error"
    },
    {
      "inputs": [],
      "name": "Reentrant",
      "type": "error"
    },
    {
      "inputs": [],
      "name": "TooManyConsumers",
      "type": "error"
    },
    {
      "inputs": [],
      "name": "UnauthorizedSender",
      "type": "error"
    },
    {
      "anonymous": false,
      "inputs": [
        {
          "indexed": false,
          "internalType": "address[]",
          "name": "senders",
          "type": "address[]"
        },
        {
          "indexed": false,
          "internalType": "address",
          "name": "changedBy",
          "type": "address"
        }
      ],
      "name": "AuthorizedSendersChanged",
      "type": "event"
    },
    {
      "anonymous": false,
      "inputs": [
        {
          "indexed": true,
          "internalType": "bytes32",
          "name": "requestId",
          "type": "bytes32"
        },
        {
          "indexed": false,
          "internalType": "uint64",
          "name": "subscriptionId",
          "type": "uint64"
        },
        {
          "indexed": false,
          "internalType": "uint96",
          "name": "signerPayment",
          "type": "uint96"
        },
        {
          "indexed": false,
          "internalType": "uint96",
          "name": "transmitterPayment",
          "type": "uint96"
        },
        {
          "indexed": false,
          "internalType": "uint96",
          "name": "totalCost",
          "type": "uint96"
        },
        {
          "indexed": false,
          "internalType": "bool",
          "name": "success",
          "type": "bool"
        }
      ],
      "name": "BillingEnd",
      "type": "event"
    },
    {
      "anonymous": false,
      "inputs": [
        {
          "indexed": true,
          "internalType": "bytes32",
          "name": "requestId",
          "type": "bytes32"
        },
        {
          "components": [
            {
              "internalType": "uint64",
              "name": "subscriptionId",
              "type": "uint64"
            },
            {
              "internalType": "address",
              "name": "client",
              "type": "address"
            },
            {
              "internalType": "uint32",
              "name": "gasLimit",
              "type": "uint32"
            },
            {
              "internalType": "uint256",
              "name": "gasPrice",
              "type": "uint256"
            },
            {
              "internalType": "address",
              "name": "don",
              "type": "address"
            },
            {
              "internalType": "uint96",
              "name": "donFee",
              "type": "uint96"
            },
            {
              "internalType": "uint96",
              "name": "registryFee",
              "type": "uint96"
            },
            {
              "internalType": "uint96",
              "name": "estimatedCost",
              "type": "uint96"
            },
            {
              "internalType": "uint256",
              "name": "timestamp",
              "type": "uint256"
            }
          ],
          "indexed": false,
          "internalType": "struct FunctionsBillingRegistryOriginal.Commitment",
          "name": "commitment",
          "type": "tuple"
        }
      ],
      "name": "BillingStart",
      "type": "event"
    },
    {
      "anonymous": false,
      "inputs": [
        {
          "indexed": false,
          "internalType": "uint32",
          "name": "maxGasLimit",
          "type": "uint32"
        },
        {
          "indexed": false,
          "internalType": "uint32",
          "name": "stalenessSeconds",
          "type": "uint32"
        },
        {
          "indexed": false,
          "internalType": "uint256",
          "name": "gasAfterPaymentCalculation",
          "type": "uint256"
        },
        {
          "indexed": false,
          "internalType": "int256",
          "name": "fallbackWeiPerUnitLink",
          "type": "int256"
        },
        {
          "indexed": false,
          "internalType": "uint32",
          "name": "gasOverhead",
          "type": "uint32"
        }
      ],
      "name": "ConfigSet",
      "type": "event"
    },
    {
      "anonymous": false,
      "inputs": [
        {
          "indexed": false,
          "internalType": "address",
          "name": "to",
          "type": "address"
        },
        {
          "indexed": false,
          "internalType": "uint256",
          "name": "amount",
          "type": "uint256"
        }
      ],
      "name": "FundsRecovered",
      "type": "event"
    },
    {
      "anonymous": false,
      "inputs": [
        {
          "indexed": false,
          "internalType": "uint8",
          "name": "version",
          "type": "uint8"
        }
      ],
      "name": "Initialized",
      "type": "event"
    },
    {
      "anonymous": false,
      "inputs": [
        {
          "indexed": true,
          "internalType": "address",
          "name": "from",
          "type": "address"
        },
        {
          "indexed": true,
          "internalType": "address",
          "name": "to",
          "type": "address"
        }
      ],
      "name": "OwnershipTransferRequested",
      "type": "event"
    },
    {
      "anonymous": false,
      "inputs": [
        {
          "indexed": true,
          "internalType": "address",
          "name": "from",
          "type": "address"
        },
        {
          "indexed": true,
          "internalType": "address",
          "name": "to",
          "type": "address"
        }
      ],
      "name": "OwnershipTransferred",
      "type": "event"
    },
    {
      "anonymous": false,
      "inputs": [
        {
          "indexed": false,
          "internalType": "address",
          "name": "account",
          "type": "address"
        }
      ],
      "name": "Paused",
      "type": "event"
    },
    {
      "anonymous": false,
      "inputs": [
        {
          "indexed": true,
          "internalType": "bytes32",
          "name": "requestId",
          "type": "bytes32"
        }
      ],
      "name": "RequestTimedOut",
      "type": "event"
    },
    {
      "anonymous": false,
      "inputs": [
        {
          "indexed": true,
          "internalType": "uint64",
          "name": "subscriptionId",
          "type": "uint64"
        },
        {
          "indexed": false,
          "internalType": "address",
          "name": "to",
          "type": "address"
        },
        {
          "indexed": false,
          "internalType": "uint256",
          "name": "amount",
          "type": "uint256"
        }
      ],
      "name": "SubscriptionCanceled",
      "type": "event"
    },
    {
      "anonymous": false,
      "inputs": [
        {
          "indexed": true,
          "internalType": "uint64",
          "name": "subscriptionId",
          "type": "uint64"
        },
        {
          "indexed": false,
          "internalType": "address",
          "name": "consumer",
          "type": "address"
        }
      ],
      "name": "SubscriptionConsumerAdded",
      "type": "event"
    },
    {
      "anonymous": false,
      "inputs": [
        {
          "indexed": true,
          "internalType": "uint64",
          "name": "subscriptionId",
          "type": "uint64"
        },
        {
          "indexed": false,
          "internalType": "address",
          "name": "consumer",
          "type": "address"
        }
      ],
      "name": "SubscriptionConsumerRemoved",
      "type": "event"
    },
    {
      "anonymous": false,
      "inputs": [
        {
          "indexed": true,
          "internalType": "uint64",
          "name": "subscriptionId",
          "type": "uint64"
        },
        {
          "indexed": false,
          "internalType": "address",
          "name": "owner",
          "type": "address"
        }
      ],
      "name": "SubscriptionCreated",
      "type": "event"
    },
    {
      "anonymous": false,
      "inputs": [
        {
          "indexed": true,
          "internalType": "uint64",
          "name": "subscriptionId",
          "type": "uint64"
        },
        {
          "indexed": false,
          "internalType": "uint256",
          "name": "oldBalance",
          "type": "uint256"
        },
        {
          "indexed": false,
          "internalType": "uint256",
          "name": "newBalance",
          "type": "uint256"
        }
      ],
      "name": "SubscriptionFunded",
      "type": "event"
    },
    {
      "anonymous": false,
      "inputs": [
        {
          "indexed": true,
          "internalType": "uint64",
          "name": "subscriptionId",
          "type": "uint64"
        },
        {
          "indexed": false,
          "internalType": "address",
          "name": "from",
          "type": "address"
        },
        {
          "indexed": false,
          "internalType": "address",
          "name": "to",
          "type": "address"
        }
      ],
      "name": "SubscriptionOwnerTransferRequested",
      "type": "event"
    },
    {
      "anonymous": false,
      "inputs": [
        {
          "indexed": true,
          "internalType": "uint64",
          "name": "subscriptionId",
          "type": "uint64"
        },
        {
          "indexed": false,
          "internalType": "address",
          "name": "from",
          "type": "address"
        },
        {
          "indexed": false,
          "internalType": "address",
          "name": "to",
          "type": "address"
        }
      ],
      "name": "SubscriptionOwnerTransferred",
      "type": "event"
    },
    {
      "anonymous": false,
      "inputs": [
        {
          "indexed": false,
          "internalType": "address",
          "name": "account",
          "type": "address"
        }
      ],
      "name": "Unpaused",
      "type": "event"
    },
    {
      "inputs": [],
      "name": "LINK",
      "outputs": [
        {
          "internalType": "contract LinkTokenInterface",
          "name": "",
          "type": "address"
        }
      ],
      "stateMutability": "view",
      "type": "function"
    },
    {
      "inputs": [],
      "name": "LINK_ETH_FEED",
      "outputs": [
        {
          "internalType": "contract AggregatorV3Interface",
          "name": "",
          "type": "address"
        }
      ],
      "stateMutability": "view",
      "type": "function"
    },
    {
      "inputs": [],
      "name": "MAX_CONSUMERS",
      "outputs": [
        {
          "internalType": "uint16",
          "name": "",
          "type": "uint16"
        }
      ],
      "stateMutability": "view",
      "type": "function"
    },
    {
      "inputs": [],
      "name": "acceptOwnership",
      "outputs": [],
      "stateMutability": "nonpayable",
      "type": "function"
    },
    {
      "inputs": [
        {
          "internalType": "uint64",
          "name": "subscriptionId",
          "type": "uint64"
        }
      ],
      "name": "acceptSubscriptionOwnerTransfer",
      "outputs": [],
      "stateMutability": "nonpayable",
      "type": "function"
    },
    {
      "inputs": [
        {
          "internalType": "uint64",
          "name": "subscriptionId",
          "type": "uint64"
        },
        {
          "internalType": "address",
          "name": "consumer",
          "type": "address"
        }
      ],
      "name": "addConsumer",
      "outputs": [],
      "stateMutability": "nonpayable",
      "type": "function"
    },
    {
      "inputs": [
        {
          "internalType": "uint64",
          "name": "subscriptionId",
          "type": "uint64"
        },
        {
          "internalType": "address",
          "name": "to",
          "type": "address"
        }
      ],
      "name": "cancelSubscription",
      "outputs": [],
      "stateMutability": "nonpayable",
      "type": "function"
    },
    {
      "inputs": [],
      "name": "createSubscription",
      "outputs": [
        {
          "internalType": "uint64",
          "name": "",
          "type": "uint64"
        }
      ],
      "stateMutability": "nonpayable",
      "type": "function"
    },
    {
      "inputs": [
        {
          "internalType": "uint32",
          "name": "gasLimit",
          "type": "uint32"
        },
        {
          "internalType": "uint256",
          "name": "gasPrice",
          "type": "uint256"
        },
        {
          "internalType": "uint96",
          "name": "donFee",
          "type": "uint96"
        },
        {
          "internalType": "uint96",
          "name": "registryFee",
          "type": "uint96"
        }
      ],
      "name": "estimateCost",
      "outputs": [
        {
          "internalType": "uint96",
          "name": "",
          "type": "uint96"
        }
      ],
      "stateMutability": "view",
      "type": "function"
    },
    {
      "inputs": [
        {
          "internalType": "bytes32",
          "name": "requestId",
          "type": "bytes32"
        },
        {
          "internalType": "bytes",
          "name": "response",
          "type": "bytes"
        },
        {
          "internalType": "bytes",
          "name": "err",
          "type": "bytes"
        },
        {
          "internalType": "address",
          "name": "transmitter",
          "type": "address"
        },
        {
          "internalType": "address[31]",
          "name": "signers",
          "type": "address[31]"
        },
        {
          "internalType": "uint8",
          "name": "signerCount",
          "type": "uint8"
        },
        {
          "internalType": "uint256",
          "name": "reportValidationGas",
          "type": "uint256"
        },
        {
          "internalType": "uint256",
          "name": "initialGas",
          "type": "uint256"
        }
      ],
      "name": "fulfillAndBill",
      "outputs": [
        {
          "internalType": "bool",
          "name": "success",
          "type": "bool"
        }
      ],
      "stateMutability": "nonpayable",
      "type": "function"
    },
    {
      "inputs": [],
      "name": "getAuthorizedSenders",
      "outputs": [
        {
          "internalType": "address[]",
          "name": "",
          "type": "address[]"
        }
      ],
      "stateMutability": "view",
      "type": "function"
    },
    {
      "inputs": [],
      "name": "getConfig",
      "outputs": [
        {
          "internalType": "uint32",
          "name": "maxGasLimit",
          "type": "uint32"
        },
        {
          "internalType": "uint32",
          "name": "stalenessSeconds",
          "type": "uint32"
        },
        {
          "internalType": "uint256",
          "name": "gasAfterPaymentCalculation",
          "type": "uint256"
        },
        {
          "internalType": "int256",
          "name": "fallbackWeiPerUnitLink",
          "type": "int256"
        },
        {
          "internalType": "uint32",
          "name": "gasOverhead",
          "type": "uint32"
        }
      ],
      "stateMutability": "view",
      "type": "function"
    },
    {
      "inputs": [],
      "name": "getCurrentsubscriptionId",
      "outputs": [
        {
          "internalType": "uint64",
          "name": "",
          "type": "uint64"
        }
      ],
      "stateMutability": "view",
      "type": "function"
    },
    {
      "inputs": [],
      "name": "getRequestConfig",
      "outputs": [
        {
          "internalType": "uint32",
          "name": "",
          "type": "uint32"
        },
        {
          "internalType": "address[]",
          "name": "",
          "type": "address[]"
        }
      ],
      "stateMutability": "view",
      "type": "function"
    },
    {
      "inputs": [
        {
          "internalType": "bytes",
          "name": "",
          "type": "bytes"
        },
        {
          "components": [
            {
              "internalType": "uint64",
              "name": "subscriptionId",
              "type": "uint64"
            },
            {
              "internalType": "address",
              "name": "client",
              "type": "address"
            },
            {
              "internalType": "uint32",
              "name": "gasLimit",
              "type": "uint32"
            },
            {
              "internalType": "uint256",
              "name": "gasPrice",
              "type": "uint256"
            }
          ],
          "internalType": "struct FunctionsBillingRegistryInterface.RequestBilling",
          "name": "",
          "type": "tuple"
        }
      ],
      "name": "getRequiredFee",
      "outputs": [
        {
          "internalType": "uint96",
          "name": "",
          "type": "uint96"
        }
      ],
      "stateMutability": "pure",
      "type": "function"
    },
    {
      "inputs": [
        {
          "internalType": "uint64",
          "name": "subscriptionId",
          "type": "uint64"
        }
      ],
      "name": "getSubscription",
      "outputs": [
        {
          "internalType": "uint96",
          "name": "balance",
          "type": "uint96"
        },
        {
          "internalType": "address",
          "name": "owner",
          "type": "address"
        },
        {
          "internalType": "address[]",
          "name": "consumers",
          "type": "address[]"
        }
      ],
      "stateMutability": "view",
      "type": "function"
    },
    {
      "inputs": [
        {
          "internalType": "uint64",
          "name": "subscriptionId",
          "type": "uint64"
        }
      ],
      "name": "getSubscriptionOwner",
      "outputs": [
        {
          "internalType": "address",
          "name": "owner",
          "type": "address"
        }
      ],
      "stateMutability": "view",
      "type": "function"
    },
    {
      "inputs": [],
      "name": "getTotalBalance",
      "outputs": [
        {
          "internalType": "uint256",
          "name": "",
          "type": "uint256"
        }
      ],
      "stateMutability": "view",
      "type": "function"
    },
    {
      "inputs": [
        {
          "internalType": "address",
          "name": "link",
          "type": "address"
        },
        {
          "internalType": "address",
          "name": "linkEthFeed",
          "type": "address"
        },
        {
          "internalType": "address",
          "name": "oracle",
          "type": "address"
        }
      ],
      "name": "initialize",
      "outputs": [],
      "stateMutability": "nonpayable",
      "type": "function"
    },
    {
      "inputs": [
        {
          "internalType": "address",
          "name": "sender",
          "type": "address"
        }
      ],
      "name": "isAuthorizedSender",
      "outputs": [
        {
          "internalType": "bool",
          "name": "",
          "type": "bool"
        }
      ],
      "stateMutability": "view",
      "type": "function"
    },
    {
      "inputs": [
        {
          "internalType": "address",
          "name": "",
          "type": "address"
        },
        {
          "internalType": "uint256",
          "name": "amount",
          "type": "uint256"
        },
        {
          "internalType": "bytes",
          "name": "data",
          "type": "bytes"
        }
      ],
      "name": "onTokenTransfer",
      "outputs": [],
      "stateMutability": "nonpayable",
      "type": "function"
    },
    {
      "inputs": [
        {
          "internalType": "address",
          "name": "recipient",
          "type": "address"
        },
        {
          "internalType": "uint96",
          "name": "amount",
          "type": "uint96"
        }
      ],
      "name": "oracleWithdraw",
      "outputs": [],
      "stateMutability": "nonpayable",
      "type": "function"
    },
    {
      "inputs": [],
      "name": "owner",
      "outputs": [
        {
          "internalType": "address",
          "name": "",
          "type": "address"
        }
      ],
      "stateMutability": "view",
      "type": "function"
    },
    {
      "inputs": [
        {
          "internalType": "uint64",
          "name": "subscriptionId",
          "type": "uint64"
        }
      ],
      "name": "ownerCancelSubscription",
      "outputs": [],
      "stateMutability": "nonpayable",
      "type": "function"
    },
    {
      "inputs": [],
      "name": "pause",
      "outputs": [],
      "stateMutability": "nonpayable",
      "type": "function"
    },
    {
      "inputs": [],
      "name": "paused",
      "outputs": [
        {
          "internalType": "bool",
          "name": "",
          "type": "bool"
        }
      ],
      "stateMutability": "view",
      "type": "function"
    },
    {
      "inputs": [
        {
          "internalType": "uint64",
          "name": "subscriptionId",
          "type": "uint64"
        }
      ],
      "name": "pendingRequestExists",
      "outputs": [
        {
          "internalType": "bool",
          "name": "",
          "type": "bool"
        }
      ],
      "stateMutability": "view",
      "type": "function"
    },
    {
      "inputs": [
        {
          "internalType": "address",
          "name": "to",
          "type": "address"
        }
      ],
      "name": "recoverFunds",
      "outputs": [],
      "stateMutability": "nonpayable",
      "type": "function"
    },
    {
      "inputs": [
        {
          "internalType": "uint64",
          "name": "subscriptionId",
          "type": "uint64"
        },
        {
          "internalType": "address",
          "name": "consumer",
          "type": "address"
        }
      ],
      "name": "removeConsumer",
      "outputs": [],
      "stateMutability": "nonpayable",
      "type": "function"
    },
    {
      "inputs": [
        {
          "internalType": "uint64",
          "name": "subscriptionId",
          "type": "uint64"
        },
        {
          "internalType": "address",
          "name": "newOwner",
          "type": "address"
        }
      ],
      "name": "requestSubscriptionOwnerTransfer",
      "outputs": [],
      "stateMutability": "nonpayable",
      "type": "function"
    },
    {
      "inputs": [
        {
          "internalType": "address[]",
          "name": "senders",
          "type": "address[]"
        }
      ],
      "name": "setAuthorizedSenders",
      "outputs": [],
      "stateMutability": "nonpayable",
      "type": "function"
    },
    {
      "inputs": [
        {
          "internalType": "uint32",
          "name": "maxGasLimit",
          "type": "uint32"
        },
        {
          "internalType": "uint32",
          "name": "stalenessSeconds",
          "type": "uint32"
        },
        {
          "internalType": "uint256",
          "name": "gasAfterPaymentCalculation",
          "type": "uint256"
        },
        {
          "internalType": "int256",
          "name": "fallbackWeiPerUnitLink",
          "type": "int256"
        },
        {
          "internalType": "uint32",
          "name": "gasOverhead",
          "type": "uint32"
        },
        {
          "internalType": "uint32",
          "name": "requestTimeoutSeconds",
          "type": "uint32"
        }
      ],
      "name": "setConfig",
      "outputs": [],
      "stateMutability": "nonpayable",
      "type": "function"
    },
    {
      "inputs": [
        {
          "internalType": "bytes",
          "name": "data",
          "type": "bytes"
        },
        {
          "components": [
            {
              "internalType": "uint64",
              "name": "subscriptionId",
              "type": "uint64"
            },
            {
              "internalType": "address",
              "name": "client",
              "type": "address"
            },
            {
              "internalType": "uint32",
              "name": "gasLimit",
              "type": "uint32"
            },
            {
              "internalType": "uint256",
              "name": "gasPrice",
              "type": "uint256"
            }
          ],
          "internalType": "struct FunctionsBillingRegistryInterface.RequestBilling",
          "name": "billing",
          "type": "tuple"
        }
      ],
      "name": "startBilling",
      "outputs": [
        {
          "internalType": "bytes32",
          "name": "",
          "type": "bytes32"
        }
      ],
      "stateMutability": "nonpayable",
      "type": "function"
    },
    {
      "inputs": [
        {
          "internalType": "bytes32[]",
          "name": "requestIdsToTimeout",
          "type": "bytes32[]"
        }
      ],
      "name": "timeoutRequests",
      "outputs": [],
      "stateMutability": "nonpayable",
      "type": "function"
    },
    {
      "inputs": [
        {
          "internalType": "address",
          "name": "to",
          "type": "address"
        }
      ],
      "name": "transferOwnership",
      "outputs": [],
      "stateMutability": "nonpayable",
      "type": "function"
    },
    {
      "inputs": [],
      "name": "unpause",
      "outputs": [],
      "stateMutability": "nonpayable",
      "type": "function"
    }
  ],
  "bytecode": {
    "object": "0x608060405234801561001057600080fd5b50615318806100206000396000f3fe608060405234801561001057600080fd5b506004361061025b5760003560e01c80638da5cb5b11610145578063c0c53b8b116100bd578063e82ad7d41161008c578063f1e14a2111610071578063f1e14a2114610574578063f2fde38b1461058b578063fa00763a1461059e57600080fd5b8063e82ad7d41461054e578063ee56997b1461056157600080fd5b8063c0c53b8b146104ca578063c3f909d4146104dd578063d7ae1d3014610528578063e72f6e301461053b57600080fd5b8063a47c769611610114578063a9d03c05116100f9578063a9d03c0514610491578063ad178361146104a4578063b2a489ff146104b757600080fd5b8063a47c76961461045c578063a4c0ed361461047e57600080fd5b80638da5cb5b146103fa5780639f87fad714610411578063a1a6d04114610424578063a21a23e41461045457600080fd5b80633f4ba83a116101d8578063665871ec116101a757806379ba50971161018c57806379ba5097146103d757806382359740146103df5780638456cb59146103f257600080fd5b8063665871ec146103b15780637341c10c146103c457600080fd5b80633f4ba83a146103705780635c975abb1461037857806364d51a2a1461038357806366316d8d1461039e57600080fd5b806312b583491161022f5780632408afaa116102145780632408afaa1461032157806327923e411461033657806333652e3e1461034957600080fd5b806312b58349146102ca5780631b6b6d23146102f657600080fd5b80620122911461026057806302bcc5b61461027f57806304c357cb146102945780630739e4f1146102a7575b600080fd5b6102686105b1565b6040516102769291906147a9565b60405180910390f35b61029261028d3660046147ed565b6105d0565b005b6102926102a236600461481f565b610640565b6102ba6102b53660046148db565b6107fa565b6040519015158152602001610276565b606f546801000000000000000090046bffffffffffffffffffffffff165b604051908152602001610276565b606954610309906001600160a01b031681565b6040516001600160a01b039091168152602001610276565b610329610ead565b60405161027691906149fa565b610292610344366004614a21565b610f0f565b606f5467ffffffffffffffff165b60405167ffffffffffffffff9091168152602001610276565b610292611062565b60345460ff166102ba565b61038b606481565b60405161ffff9091168152602001610276565b6102926103ac366004614aa1565b611074565b6102926103bf366004614b1d565b6112c1565b6102926103d236600461481f565b611573565b6102926117de565b6102926103ed3660046147ed565b6118b7565b610292611bbf565b6000546201000090046001600160a01b0316610309565b61029261041f36600461481f565b611bcf565b610437610432366004614b5f565b611fd4565b6040516bffffffffffffffffffffffff9091168152602001610276565b6103576120f8565b61046f61046a3660046147ed565b61243e565b60405161027693929190614bb0565b61029261048c366004614bef565b612548565b6102e861049f366004614c49565b612787565b606a54610309906001600160a01b031681565b6103096104c53660046147ed565b612f1d565b6102926104d8366004614cc6565b612f9c565b6073546074546072546075546040805163ffffffff8087168252650100000000009096048616602082015290810193909352606083019190915291909116608082015260a001610276565b61029261053636600461481f565b613191565b610292610549366004614d09565b6132d1565b6102ba61055c3660046147ed565b6134a9565b61029261056f366004614b1d565b6136a7565b610437610582366004614d9d565b60009392505050565b610292610599366004614d09565b613811565b6102ba6105ac366004614d09565b613825565b60735460009060609063ffffffff166105c8610ead565b915091509091565b6105d8613838565b67ffffffffffffffff81166000908152606d60205260409020546001600160a01b031680610632576040517f1f6a65b600000000000000000000000000000000000000000000000000000000815260040160405180910390fd5b61063c8282613882565b5050565b67ffffffffffffffff82166000908152606d602052604090205482906001600160a01b03168061069c576040517f1f6a65b600000000000000000000000000000000000000000000000000000000815260040160405180910390fd5b336001600160a01b038216146106ee576040517fd8a3fb520000000000000000000000000000000000000000000000000000000081526001600160a01b03821660048201526024015b60405180910390fd5b607354640100000000900460ff1615610733576040517fed3ba6a600000000000000000000000000000000000000000000000000000000815260040160405180910390fd5b61073b613c39565b67ffffffffffffffff84166000908152606d60205260409020600101546001600160a01b038481169116146107f45767ffffffffffffffff84166000818152606d602090815260409182902060010180547fffffffffffffffffffffffff0000000000000000000000000000000000000000166001600160a01b0388169081179091558251338152918201527f69436ea6df009049404f564eff6622cd00522b0bd6a89efd9e52a355c4a879be91015b60405180910390a25b50505050565b6000610804613ca6565b607354640100000000900460ff1615610849576040517fed3ba6a600000000000000000000000000000000000000000000000000000000815260040160405180910390fd5b610851613c39565b60008b815260716020908152604091829020825161012081018452815467ffffffffffffffff811682526801000000000000000081046001600160a01b03908116948301949094527c0100000000000000000000000000000000000000000000000000000000900463ffffffff169381019390935260018101546060840152600281015491821660808401819052740100000000000000000000000000000000000000009092046bffffffffffffffffffffffff90811660a0850152600382015480821660c08601526c0100000000000000000000000090041660e084015260040154610100830152610970576040517fda7aa3e100000000000000000000000000000000000000000000000000000000815260040160405180910390fd5b60008c81526071602052604080822082815560018101839055600281018390556003810180547fffffffffffffffff000000000000000000000000000000000000000000000000169055600401829055517f0ca7617500000000000000000000000000000000000000000000000000000000906109f9908f908f908f908f908f90602401614e32565b604080517fffffffffffffffffffffffffffffffffffffffffffffffffffffffffffffffe0818403018152918152602080830180517bffffffffffffffffffffffffffffffffffffffffffffffffffffffff167fffffffff0000000000000000000000000000000000000000000000000000000090951694909417909352607380547fffffffffffffffffffffffffffffffffffffffffffffffffffffff00ffffffff1664010000000017905584015191840151909250610ac19163ffffffff169083613ce5565b607380547fffffffffffffffffffffffffffffffffffffffffffffffffffffff00ffffffff16905560745460a084015160c0850151929550600092610b0d92889290918b908b3a613d31565b604080820151855167ffffffffffffffff166000908152606e60205291909120549192506bffffffffffffffffffffffff90811691161015610b7b576040517ff4d678b800000000000000000000000000000000000000000000000000000000815260040160405180910390fd5b604080820151845167ffffffffffffffff166000908152606e602052918220805491929091610bb99084906bffffffffffffffffffffffff16614e9a565b92506101000a8154816bffffffffffffffffffffffff02191690836bffffffffffffffffffffffff16021790555060005b8760ff16811015610cc857896001600160a01b03168982601f8110610c1157610c11614ebf565b60200201516001600160a01b031614610cb6578151607060008b84601f8110610c3c57610c3c614ebf565b60200201516001600160a01b03166001600160a01b0316815260200190815260200160002060008282829054906101000a90046bffffffffffffffffffffffff16610c879190614eee565b92506101000a8154816bffffffffffffffffffffffff02191690836bffffffffffffffffffffffff1602179055505b80610cc081614f13565b915050610bea565b508260c0015160706000610ceb6000546001600160a01b03620100009091041690565b6001600160a01b03168152602081019190915260400160009081208054909190610d249084906bffffffffffffffffffffffff16614eee565b82546101009290920a6bffffffffffffffffffffffff8181021990931691831602179091556020838101516001600160a01b038d166000908152607090925260408220805491945092610d7991859116614eee565b82546101009290920a6bffffffffffffffffffffffff81810219909316918316021790915560e0850151855167ffffffffffffffff166000908152606e60205260409020805491935091600c91610de29185916c01000000000000000000000000900416614e9a565b92506101000a8154816bffffffffffffffffffffffff02191690836bffffffffffffffffffffffff1602179055508d7fc8dc973332de19a5f71b6026983110e9c2e04b0c98b87eb771ccb78607fd114f846000015183600001518460200151856040015189604051610e9495949392919067ffffffffffffffff9590951685526bffffffffffffffffffffffff9384166020860152918316604085015290911660608301521515608082015260a00190565b60405180910390a25050509a9950505050505050505050565b60606068805480602002602001604051908101604052809291908181526020018280548015610f0557602002820191906000526020600020905b81546001600160a01b03168152600190910190602001808311610ee7575b5050505050905090565b610f17613838565b60008313610f54576040517f43d4cf66000000000000000000000000000000000000000000000000000000008152600481018490526024016106e5565b6040805160c08101825263ffffffff888116808352600060208085019190915289831684860181905260608086018b9052888516608080880182905295891660a0978801819052607380547fffffffffffffffffffffffffffffffffffffffffffffff00000000000000000016871765010000000000860217905560748d9055607580547fffffffffffffffffffffffffffffffffffffffffffffffff000000000000000016831764010000000090920291909117905560728b9055875194855292840191909152948201899052938101879052908101929092527f24d3d934adfef9b9029d6ffa463c07d0139ed47d26ee23506f85ece2879d2bd4910160405180910390a1505050505050565b61106a613838565b611072613ebe565b565b607354640100000000900460ff16156110b9576040517fed3ba6a600000000000000000000000000000000000000000000000000000000815260040160405180910390fd5b6110c1613c39565b806bffffffffffffffffffffffff166000036110f75750336000908152607060205260409020546bffffffffffffffffffffffff165b336000908152607060205260409020546bffffffffffffffffffffffff80831691161015611151576040517ff4d678b800000000000000000000000000000000000000000000000000000000815260040160405180910390fd5b336000908152607060205260408120805483929061117e9084906bffffffffffffffffffffffff16614e9a565b92506101000a8154816bffffffffffffffffffffffff02191690836bffffffffffffffffffffffff16021790555080606f60088282829054906101000a90046bffffffffffffffffffffffff166111d59190614e9a565b82546101009290920a6bffffffffffffffffffffffff8181021990931691831602179091556069546040517fa9059cbb0000000000000000000000000000000000000000000000000000000081526001600160a01b03868116600483015292851660248201529116915063a9059cbb906044016020604051808303816000875af1158015611267573d6000803e3d6000fd5b505050506040513d601f19601f8201168201806040525081019061128b9190614f4b565b61063c576040517ff4d678b800000000000000000000000000000000000000000000000000000000815260040160405180910390fd5b6112c9613c39565b60005b8181101561156e5760008383838181106112e8576112e8614ebf565b602090810292909201356000818152607184526040808220815161012081018352815467ffffffffffffffff81168083526801000000000000000082046001600160a01b03908116848b01527c010000000000000000000000000000000000000000000000000000000090920463ffffffff168386015260018401546060840152600284015480831660808501527401000000000000000000000000000000000000000090046bffffffffffffffffffffffff90811660a0850152600385015480821660c08601526c0100000000000000000000000090041660e0840152600490930154610100830152918452606d909652912054919450163314905061144357805167ffffffffffffffff166000908152606d6020526040908190205490517fd8a3fb520000000000000000000000000000000000000000000000000000000081526001600160a01b0390911660048201526024016106e5565b60755461010082015142916114679164010000000090910463ffffffff1690614f6d565b11156115595760e0810151815167ffffffffffffffff166000908152606e602052604090208054600c906114ba9084906c0100000000000000000000000090046bffffffffffffffffffffffff16614e9a565b82546bffffffffffffffffffffffff9182166101009390930a92830291909202199091161790555060008281526071602052604080822082815560018101839055600281018390556003810180547fffffffffffffffff0000000000000000000000000000000000000000000000001690556004018290555183917ff1ca1e9147be737b04a2b018a79405f687a97de8dd8a2559bbe62357343af41491a25b5050808061156690614f13565b9150506112cc565b505050565b67ffffffffffffffff82166000908152606d602052604090205482906001600160a01b0316806115cf576040517f1f6a65b600000000000000000000000000000000000000000000000000000000815260040160405180910390fd5b336001600160a01b0382161461161c576040517fd8a3fb520000000000000000000000000000000000000000000000000000000081526001600160a01b03821660048201526024016106e5565b607354640100000000900460ff1615611661576040517fed3ba6a600000000000000000000000000000000000000000000000000000000815260040160405180910390fd5b611669613c39565b67ffffffffffffffff84166000908152606d60205260409020600201547fffffffffffffffffffffffffffffffffffffffffffffffffffffffffffffff9c016116de576040517f05a48e0f00000000000000000000000000000000000000000000000000000000815260040160405180910390fd5b6001600160a01b0383166000908152606c6020908152604080832067ffffffffffffffff808916855292528220541690036107f4576001600160a01b0383166000818152606c6020908152604080832067ffffffffffffffff891680855290835281842080547fffffffffffffffffffffffffffffffffffffffffffffffff0000000000000000166001908117909155606d84528285206002018054918201815585529383902090930180547fffffffffffffffffffffffff000000000000000000000000000000000000000016851790555192835290917f43dc749a04ac8fb825cbd514f7c0e13f13bc6f2ee66043b76629d51776cff8e091016107eb565b6001546001600160a01b03163314611822576040517f0f22ca5f00000000000000000000000000000000000000000000000000000000815260040160405180910390fd5b6000805433620100008181027fffffffffffffffffffff0000000000000000000000000000000000000000ffff8416178455600180547fffffffffffffffffffffffff00000000000000000000000000000000000000001690556040516001600160a01b03919093041692909183917f8be0079c531659141344cd1fd0a4f28419497f9722a3daafe3b4186f6b6457e091a350565b607354640100000000900460ff16156118fc576040517fed3ba6a600000000000000000000000000000000000000000000000000000000815260040160405180910390fd5b611904613c39565b606b60009054906101000a90046001600160a01b03166001600160a01b0316634b4fa0c16040518163ffffffff1660e01b8152600401602060405180830381865afa158015611957573d6000803e3d6000fd5b505050506040513d601f19601f8201168201806040525081019061197b9190614f4b565b8015611a095750606b546040517ffa00763a0000000000000000000000000000000000000000000000000000000081523360048201526001600160a01b039091169063fa00763a90602401602060405180830381865afa1580156119e3573d6000803e3d6000fd5b505050506040513d601f19601f82011682018060405250810190611a079190614f4b565b155b15611a40576040517f0809490800000000000000000000000000000000000000000000000000000000815260040160405180910390fd5b67ffffffffffffffff81166000908152606d60205260409020546001600160a01b0316611a99576040517f1f6a65b600000000000000000000000000000000000000000000000000000000815260040160405180910390fd5b67ffffffffffffffff81166000908152606d60205260409020600101546001600160a01b03163314611b215767ffffffffffffffff81166000908152606d6020526040908190206001015490517fd084e9750000000000000000000000000000000000000000000000000000000081526001600160a01b0390911660048201526024016106e5565b67ffffffffffffffff81166000818152606d60209081526040918290208054337fffffffffffffffffffffffff0000000000000000000000000000000000000000808316821784556001909301805490931690925583516001600160a01b03909116808252928101919091529092917f6f1dc65165ffffedfd8e507b4a0f1fcfdada045ed11f6c26ba27cedfe87802f0910160405180910390a25050565b611bc7613838565b611072613f2e565b67ffffffffffffffff82166000908152606d602052604090205482906001600160a01b031680611c2b576040517f1f6a65b600000000000000000000000000000000000000000000000000000000815260040160405180910390fd5b336001600160a01b03821614611c78576040517fd8a3fb520000000000000000000000000000000000000000000000000000000081526001600160a01b03821660048201526024016106e5565b607354640100000000900460ff1615611cbd576040517fed3ba6a600000000000000000000000000000000000000000000000000000000815260040160405180910390fd5b611cc5613c39565b6001600160a01b0383166000908152606c6020908152604080832067ffffffffffffffff80891685529252822054169003611d47576040517ff0019fe600000000000000000000000000000000000000000000000000000000815267ffffffffffffffff851660048201526001600160a01b03841660248201526044016106e5565b67ffffffffffffffff84166000908152606d6020908152604080832060020180548251818502810185019093528083529192909190830182828015611db557602002820191906000526020600020905b81546001600160a01b03168152600190910190602001808311611d97575b50505050509050600060018251611dcc9190614f80565b905060005b8251811015611f4357856001600160a01b0316838281518110611df657611df6614ebf565b60200260200101516001600160a01b031603611f31576000838381518110611e2057611e20614ebf565b6020026020010151905080606d60008a67ffffffffffffffff1667ffffffffffffffff1681526020019081526020016000206002018381548110611e6657611e66614ebf565b600091825260208083209190910180547fffffffffffffffffffffffff0000000000000000000000000000000000000000166001600160a01b03949094169390931790925567ffffffffffffffff8a168152606d90915260409020600201805480611ed357611ed3614f93565b60008281526020902081017fffffffffffffffffffffffffffffffffffffffffffffffffffffffffffffffff90810180547fffffffffffffffffffffffff000000000000000000000000000000000000000016905501905550611f43565b80611f3b81614f13565b915050611dd1565b506001600160a01b0385166000818152606c6020908152604080832067ffffffffffffffff8b168085529083529281902080547fffffffffffffffffffffffffffffffffffffffffffffffff00000000000000001690555192835290917f182bff9831466789164ca77075fffd84916d35a8180ba73c27e45634549b445b91015b60405180910390a2505050505050565b600080611fdf613f89565b90506000811361201e576040517f43d4cf66000000000000000000000000000000000000000000000000000000008152600481018290526024016106e5565b60745460755460009163ffffffff808a169261203b929116614f6d565b6120459190614f6d565b90506000828261205d89670de0b6b3a7640000614fc2565b6120679190614fc2565b6120719190615008565b905060006120906bffffffffffffffffffffffff808816908916614f6d565b90506120a8816b033b2e3c9fd0803ce8000000614f80565b8211156120e1576040517fe80fa38100000000000000000000000000000000000000000000000000000000815260040160405180910390fd5b6120eb8183614f6d565b9998505050505050505050565b607354600090640100000000900460ff1615612140576040517fed3ba6a600000000000000000000000000000000000000000000000000000000815260040160405180910390fd5b612148613c39565b606b60009054906101000a90046001600160a01b03166001600160a01b0316634b4fa0c16040518163ffffffff1660e01b8152600401602060405180830381865afa15801561219b573d6000803e3d6000fd5b505050506040513d601f19601f820116820180604052508101906121bf9190614f4b565b801561224d5750606b546040517ffa00763a0000000000000000000000000000000000000000000000000000000081523360048201526001600160a01b039091169063fa00763a90602401602060405180830381865afa158015612227573d6000803e3d6000fd5b505050506040513d601f19601f8201168201806040525081019061224b9190614f4b565b155b15612284576040517f0809490800000000000000000000000000000000000000000000000000000000815260040160405180910390fd5b606f805467ffffffffffffffff1690600061229e8361501c565b82546101009290920a67ffffffffffffffff818102199093169183160217909155606f541690506000806040519080825280602002602001820160405280156122f1578160200160208202803683370190505b506040805180820182526000808252602080830182815267ffffffffffffffff8816808452606e83528584209451855492516bffffffffffffffffffffffff9081166c01000000000000000000000000027fffffffffffffffff000000000000000000000000000000000000000000000000909416911617919091179093558351606081018552338152808201838152818601878152948452606d835294909220825181546001600160a01b039182167fffffffffffffffffffffffff00000000000000000000000000000000000000009182161783559551600183018054919092169616959095179094559151805194955090936123f69260028501920190614652565b505060405133815267ffffffffffffffff841691507f464722b4166576d3dcbba877b999bc35cf911f4eaf434b7eba68fa113951d0bf9060200160405180910390a250905090565b67ffffffffffffffff81166000908152606d602052604081205481906060906001600160a01b031661249c576040517f1f6a65b600000000000000000000000000000000000000000000000000000000815260040160405180910390fd5b67ffffffffffffffff84166000908152606e6020908152604080832054606d8352928190208054600290910180548351818602810186019094528084526bffffffffffffffffffffffff909516946001600160a01b0390921693909291839183018282801561253457602002820191906000526020600020905b81546001600160a01b03168152600190910190602001808311612516575b505050505090509250925092509193909250565b607354640100000000900460ff161561258d576040517fed3ba6a600000000000000000000000000000000000000000000000000000000815260040160405180910390fd5b612595613c39565b6069546001600160a01b031633146125d9576040517f44b0e3c300000000000000000000000000000000000000000000000000000000815260040160405180910390fd5b60208114612613576040517f8129bbcd00000000000000000000000000000000000000000000000000000000815260040160405180910390fd5b6000612621828401846147ed565b67ffffffffffffffff81166000908152606d60205260409020549091506001600160a01b031661267d576040517f1f6a65b600000000000000000000000000000000000000000000000000000000815260040160405180910390fd5b67ffffffffffffffff81166000908152606e6020526040812080546bffffffffffffffffffffffff16918691906126b48385614eee565b92506101000a8154816bffffffffffffffffffffffff02191690836bffffffffffffffffffffffff16021790555084606f60088282829054906101000a90046bffffffffffffffffffffffff1661270b9190614eee565b92506101000a8154816bffffffffffffffffffffffff02191690836bffffffffffffffffffffffff1602179055508167ffffffffffffffff167fd39ec07f4e209f627a4c427971473820dc129761ba28de8906bd56f57101d4f88287846127729190614f6d565b60408051928352602083019190915201611fc4565b6000612791613ca6565b607354640100000000900460ff16156127d6576040517fed3ba6a600000000000000000000000000000000000000000000000000000000815260040160405180910390fd5b6127de613c39565b6000606d816127f060208601866147ed565b67ffffffffffffffff1681526020810191909152604001600020546001600160a01b03160361284b576040517f1f6a65b600000000000000000000000000000000000000000000000000000000815260040160405180910390fd5b6000606c816128606040860160208701614d09565b6001600160a01b03168152602080820192909252604001600090812091612889908601866147ed565b67ffffffffffffffff90811682526020820192909252604001600090812054909116915081900361291e576128c160208401846147ed565b6128d16040850160208601614d09565b6040517ff0019fe600000000000000000000000000000000000000000000000000000000815267ffffffffffffffff90921660048301526001600160a01b031660248201526044016106e5565b60735463ffffffff166129376060850160408601615043565b63ffffffff161115612998576129536060840160408501615043565b6073546040517ff5d7e01e00000000000000000000000000000000000000000000000000000000815263ffffffff9283166004820152911660248201526044016106e5565b6040517ff1e14a21000000000000000000000000000000000000000000000000000000008152600090339063f1e14a21906129db9089908990899060040161505e565b602060405180830381865afa1580156129f8573d6000803e3d6000fd5b505050506040513d601f19601f82011682018060405250810190612a1c91906150cf565b90506000612a348787610582368990038901896150ec565b90506000612a57612a4b6060880160408901615043565b87606001358585611fd4565b90506000606e81612a6b60208a018a6147ed565b67ffffffffffffffff1681526020808201929092526040016000908120546c0100000000000000000000000090046bffffffffffffffffffffffff1691606e9190612ab8908b018b6147ed565b67ffffffffffffffff168152602081019190915260400160002054612aeb91906bffffffffffffffffffffffff16614e9a565b9050816bffffffffffffffffffffffff16816bffffffffffffffffffffffff161015612b43576040517ff4d678b800000000000000000000000000000000000000000000000000000000815260040160405180910390fd5b6000612b50866001615108565b90506000612bcb33612b6860408c0160208d01614d09565b612b7560208d018d6147ed565b85604080516001600160a01b03958616602080830191909152949095168582015267ffffffffffffffff928316606086015291166080808501919091528151808503909101815260a09093019052815191012090565b60408051610120810190915290915060009080612beb60208d018d6147ed565b67ffffffffffffffff1681526020018b6020016020810190612c0d9190614d09565b6001600160a01b03168152602001612c2b60608d0160408e01615043565b63ffffffff90811682526060808e0135602080850191909152336040808601919091526bffffffffffffffffffffffff808e16848701528c81166080808801919091528c821660a0808901919091524260c09889015260008b8152607186528481208a5181548c890151978d0151909a167c0100000000000000000000000000000000000000000000000000000000027bffffffffffffffffffffffffffffffffffffffffffffffffffffffff6001600160a01b0398891668010000000000000000027fffffffff00000000000000000000000000000000000000000000000000000000909c1667ffffffffffffffff909316929092179a909a171698909817885595890151600188015590880151908801518216740100000000000000000000000000000000000000000292169190911760028501559385015160038401805460e088015187166c01000000000000000000000000027fffffffffffffffff0000000000000000000000000000000000000000000000009091169290961691909117949094179093556101008401516004909201919091559192508691606e91612dd8908e018e6147ed565b67ffffffffffffffff16815260208101919091526040016000208054600c90612e209084906c0100000000000000000000000090046bffffffffffffffffffffffff16614eee565b92506101000a8154816bffffffffffffffffffffffff02191690836bffffffffffffffffffffffff160217905550817f99f7f4e65b4b9fbabd4e357c47ed3099b36e57ecd3a43e84662f34c207d0ebe482604051612e7e9190615129565b60405180910390a282606c6000612e9b60408e0160208f01614d09565b6001600160a01b03168152602080820192909252604001600090812091612ec4908e018e6147ed565b67ffffffffffffffff9081168252602082019290925260400160002080547fffffffffffffffffffffffffffffffffffffffffffffffff00000000000000001692909116919091179055509a9950505050505050505050565b67ffffffffffffffff81166000908152606d60205260408120546001600160a01b0316612f76576040517f1f6a65b600000000000000000000000000000000000000000000000000000000815260040160405180910390fd5b5067ffffffffffffffff166000908152606d60205260409020546001600160a01b031690565b600054610100900460ff1615808015612fbc5750600054600160ff909116105b80612fd65750303b158015612fd6575060005460ff166001145b613062576040517f08c379a000000000000000000000000000000000000000000000000000000000815260206004820152602e60248201527f496e697469616c697a61626c653a20636f6e747261637420697320616c72656160448201527f647920696e697469616c697a656400000000000000000000000000000000000060648201526084016106e5565b600080547fffffffffffffffffffffffffffffffffffffffffffffffffffffffffffffff0016600117905580156130c057600080547fffffffffffffffffffffffffffffffffffffffffffffffffffffffffffff00ff166101001790555b6130c8614060565b6130d33360006140ff565b606980546001600160a01b038087167fffffffffffffffffffffffff000000000000000000000000000000000000000092831617909255606a8054868416908316179055606b80549285169290911691909117905580156107f457600080547fffffffffffffffffffffffffffffffffffffffffffffffffffffffffffff00ff169055604051600181527f7f26b83ff96e1f2b6a682f133852f6798a09c465da95921460cefb3847402498906020015b60405180910390a150505050565b67ffffffffffffffff82166000908152606d602052604090205482906001600160a01b0316806131ed576040517f1f6a65b600000000000000000000000000000000000000000000000000000000815260040160405180910390fd5b336001600160a01b0382161461323a576040517fd8a3fb520000000000000000000000000000000000000000000000000000000081526001600160a01b03821660048201526024016106e5565b607354640100000000900460ff161561327f576040517fed3ba6a600000000000000000000000000000000000000000000000000000000815260040160405180910390fd5b613287613c39565b613290846134a9565b156132c7576040517fb42f66e800000000000000000000000000000000000000000000000000000000815260040160405180910390fd5b6107f48484613882565b6132d9613838565b6069546040517f70a082310000000000000000000000000000000000000000000000000000000081523060048201526000916001600160a01b0316906370a0823190602401602060405180830381865afa15801561333b573d6000803e3d6000fd5b505050506040513d601f19601f8201168201806040525081019061335f91906151ff565b606f549091506801000000000000000090046bffffffffffffffffffffffff16818111156133c3576040517fa99da30200000000000000000000000000000000000000000000000000000000815260048101829052602481018390526044016106e5565b8181101561156e5760006133d78284614f80565b6069546040517fa9059cbb0000000000000000000000000000000000000000000000000000000081526001600160a01b0387811660048301526024820184905292935091169063a9059cbb906044016020604051808303816000875af1158015613445573d6000803e3d6000fd5b505050506040513d601f19601f820116820180604052508101906134699190614f4b565b50604080516001600160a01b0386168152602081018390527f59bfc682b673f8cbf945f1e454df9334834abf7dfe7f92237ca29ecb9b4366009101613183565b67ffffffffffffffff81166000908152606d602090815260408083206002018054825181850281018501909352808352849383018282801561351457602002820191906000526020600020905b81546001600160a01b031681526001909101906020018083116134f6575b505050505090506000613525610ead565b905060005b825181101561369c5760005b825181101561368957600061364684838151811061355657613556614ebf565b602002602001015186858151811061357057613570614ebf565b602002602001015189606c60008a898151811061358f5761358f614ebf565b60200260200101516001600160a01b03166001600160a01b0316815260200190815260200160002060008c67ffffffffffffffff1667ffffffffffffffff16815260200190815260200160002060009054906101000a900467ffffffffffffffff16604080516001600160a01b03958616602080830191909152949095168582015267ffffffffffffffff928316606086015291166080808501919091528151808503909101815260a09093019052815191012090565b6000818152607160205260409020600201549091506001600160a01b031615613676575060019695505050505050565b508061368181614f13565b915050613536565b508061369481614f13565b91505061352a565b506000949350505050565b6136af614225565b6136e5576040517fad77f06100000000000000000000000000000000000000000000000000000000815260040160405180910390fd5b6000819003613720576040517f75158c3b00000000000000000000000000000000000000000000000000000000815260040160405180910390fd5b60005b606854811015613773576137606068828154811061374357613743614ebf565b6000918252602090912001546066906001600160a01b0316614235565b508061376b81614f13565b915050613723565b5060005b818110156137c4576137b183838381811061379457613794614ebf565b90506020020160208101906137a99190614d09565b606690614251565b50806137bc81614f13565b915050613777565b506137d1606883836146cb565b507ff263cfb3e4298332e776194610cf9fdc09ccb3ada8b9aa39764d882e11fbf0a082823360405161380593929190615218565b60405180910390a15050565b613819613838565b61382281614266565b50565b6000613832606683614318565b92915050565b6000546201000090046001600160a01b03163314611072576040517f2b5c74de00000000000000000000000000000000000000000000000000000000815260040160405180910390fd5b607354640100000000900460ff16156138c7576040517fed3ba6a600000000000000000000000000000000000000000000000000000000815260040160405180910390fd5b67ffffffffffffffff82166000908152606d60209081526040808320815160608101835281546001600160a01b0390811682526001830154168185015260028201805484518187028101870186528181529295939486019383018282801561395857602002820191906000526020600020905b81546001600160a01b0316815260019091019060200180831161393a575b5050509190925250505067ffffffffffffffff84166000908152606e60205260408120549192506bffffffffffffffffffffffff909116905b826040015151811015613a2a57606c6000846040015183815181106139b8576139b8614ebf565b6020908102919091018101516001600160a01b03168252818101929092526040908101600090812067ffffffffffffffff89168252909252902080547fffffffffffffffffffffffffffffffffffffffffffffffff000000000000000016905580613a2281614f13565b915050613991565b5067ffffffffffffffff84166000908152606d6020526040812080547fffffffffffffffffffffffff00000000000000000000000000000000000000009081168255600182018054909116905590613a856002830182614736565b505067ffffffffffffffff84166000908152606e6020526040902080547fffffffffffffffff000000000000000000000000000000000000000000000000169055606f8054829190600890613af59084906801000000000000000090046bffffffffffffffffffffffff16614e9a565b82546101009290920a6bffffffffffffffffffffffff8181021990931691831602179091556069546040517fa9059cbb0000000000000000000000000000000000000000000000000000000081526001600160a01b03878116600483015292851660248201529116915063a9059cbb906044016020604051808303816000875af1158015613b87573d6000803e3d6000fd5b505050506040513d601f19601f82011682018060405250810190613bab9190614f4b565b613be1576040517ff4d678b800000000000000000000000000000000000000000000000000000000815260040160405180910390fd5b604080516001600160a01b03851681526bffffffffffffffffffffffff8316602082015267ffffffffffffffff8616917fe8ed5b475a5b5987aa9165e8731bb78043f39eee32ec5a1169a89e27fcd4981591016107eb565b60345460ff1615611072576040517f08c379a000000000000000000000000000000000000000000000000000000000815260206004820152601060248201527f5061757361626c653a207061757365640000000000000000000000000000000060448201526064016106e5565b613caf33613825565b611072576040517f0809490800000000000000000000000000000000000000000000000000000000815260040160405180910390fd5b60005a611388811015613cf757600080fd5b611388810390508460408204820311613d0f57600080fd5b50823b613d1b57600080fd5b60008083516020850160008789f1949350505050565b6040805160608101825260008082526020820181905291810182905290613d56613f89565b905060008113613d95576040517f43d4cf66000000000000000000000000000000000000000000000000000000008152600481018290526024016106e5565b6000815a8b613da48c89614f6d565b613dae9190614f6d565b613db89190614f80565b613dca86670de0b6b3a7640000614fc2565b613dd49190614fc2565b613dde9190615008565b90506000613dfd6bffffffffffffffffffffffff808916908b16614f6d565b9050613e15816b033b2e3c9fd0803ce8000000614f80565b821115613e4e576040517fe80fa38100000000000000000000000000000000000000000000000000000000815260040160405180910390fd5b6000613e5d60ff8a168b615276565b90506000613e6b8285614eee565b90506000613e81613e7c8587614f6d565b61433a565b604080516060810182526bffffffffffffffffffffffff958616815293851660208501529316928201929092529c9b505050505050505050505050565b613ec66143dc565b603480547fffffffffffffffffffffffffffffffffffffffffffffffffffffffffffffff001690557f5db9ee0a495bf2e6ff9c91a7834c1ba4fdd244a5e8aa4e537bd38aeae4b073aa335b6040516001600160a01b03909116815260200160405180910390a1565b613f36613c39565b603480547fffffffffffffffffffffffffffffffffffffffffffffffffffffffffffffff001660011790557f62e78cea01bee320cd4e420270b5ea74000d11b0c9f74754ebdbfc544b05a258613f113390565b607354606a54604080517ffeaf968c000000000000000000000000000000000000000000000000000000008152905160009365010000000000900463ffffffff169283151592859283926001600160a01b03169163feaf968c9160048083019260a09291908290030181865afa158015614007573d6000803e3d6000fd5b505050506040513d601f19601f8201168201806040525081019061402b91906152bb565b5093505092505082801561404d57506140448142614f80565b8463ffffffff16105b156140585760725491505b509392505050565b600054610100900460ff166140f7576040517f08c379a000000000000000000000000000000000000000000000000000000000815260206004820152602b60248201527f496e697469616c697a61626c653a20636f6e7472616374206973206e6f74206960448201527f6e697469616c697a696e6700000000000000000000000000000000000000000060648201526084016106e5565b611072614448565b600054610100900460ff16614196576040517f08c379a000000000000000000000000000000000000000000000000000000000815260206004820152602b60248201527f496e697469616c697a61626c653a20636f6e7472616374206973206e6f74206960448201527f6e697469616c697a696e6700000000000000000000000000000000000000000060648201526084016106e5565b6001600160a01b0382166141d6576040517fb6b515fa00000000000000000000000000000000000000000000000000000000815260040160405180910390fd5b600080546001600160a01b0380851662010000027fffffffffffffffffffff0000000000000000000000000000000000000000ffff9092169190911790915581161561063c5761063c81614266565b600061422f613838565b50600190565b600061424a836001600160a01b038416614509565b9392505050565b600061424a836001600160a01b038416614603565b336001600160a01b038216036142a8576040517f282010c300000000000000000000000000000000000000000000000000000000815260040160405180910390fd5b600180547fffffffffffffffffffffffff0000000000000000000000000000000000000000166001600160a01b038381169182179092556000805460405192936201000090910416917fed8889f560326eb138920d842192f0eb3dd22b4f139c87a2c57538e05bae12789190a350565b6001600160a01b0381166000908152600183016020526040812054151561424a565b60006bffffffffffffffffffffffff8211156143d8576040517f08c379a000000000000000000000000000000000000000000000000000000000815260206004820152602660248201527f53616665436173743a2076616c756520646f65736e27742066697420696e203960448201527f362062697473000000000000000000000000000000000000000000000000000060648201526084016106e5565b5090565b60345460ff16611072576040517f08c379a000000000000000000000000000000000000000000000000000000000815260206004820152601460248201527f5061757361626c653a206e6f742070617573656400000000000000000000000060448201526064016106e5565b600054610100900460ff166144df576040517f08c379a000000000000000000000000000000000000000000000000000000000815260206004820152602b60248201527f496e697469616c697a61626c653a20636f6e7472616374206973206e6f74206960448201527f6e697469616c697a696e6700000000000000000000000000000000000000000060648201526084016106e5565b603480547fffffffffffffffffffffffffffffffffffffffffffffffffffffffffffffff00169055565b600081815260018301602052604081205480156145f257600061452d600183614f80565b855490915060009061454190600190614f80565b90508181146145a657600086600001828154811061456157614561614ebf565b906000526020600020015490508087600001848154811061458457614584614ebf565b6000918252602080832090910192909255918252600188019052604090208390555b85548690806145b7576145b7614f93565b600190038181906000526020600020016000905590558560010160008681526020019081526020016000206000905560019350505050613832565b6000915050613832565b5092915050565b600081815260018301602052604081205461464a57508154600181810184556000848152602080822090930184905584548482528286019093526040902091909155613832565b506000613832565b8280548282559060005260206000209081019282156146bf579160200282015b828111156146bf57825182547fffffffffffffffffffffffff0000000000000000000000000000000000000000166001600160a01b03909116178255602090920191600190910190614672565b506143d8929150614750565b8280548282559060005260206000209081019282156146bf579160200282015b828111156146bf5781547fffffffffffffffffffffffff0000000000000000000000000000000000000000166001600160a01b038435161782556020909201916001909101906146eb565b508054600082559060005260206000209081019061382291905b5b808211156143d85760008155600101614751565b600081518084526020808501945080840160005b8381101561479e5781516001600160a01b031687529582019590820190600101614779565b509495945050505050565b63ffffffff831681526040602082015260006147c86040830184614765565b949350505050565b803567ffffffffffffffff811681146147e857600080fd5b919050565b6000602082840312156147ff57600080fd5b61424a826147d0565b80356001600160a01b03811681146147e857600080fd5b6000806040838503121561483257600080fd5b61483b836147d0565b915061484960208401614808565b90509250929050565b60008083601f84011261486457600080fd5b50813567ffffffffffffffff81111561487c57600080fd5b60208301915083602082850101111561489457600080fd5b9250929050565b7f4e487b7100000000000000000000000000000000000000000000000000000000600052604160045260246000fd5b803560ff811681146147e857600080fd5b6000806000806000806000806000806104c08b8d0312156148fb57600080fd5b8a35995060208b013567ffffffffffffffff8082111561491a57600080fd5b6149268e838f01614852565b909b50995060408d013591508082111561493f57600080fd5b61494b8e838f01614852565b909950975087915061495f60608e01614808565b96508d609f8e011261497057600080fd5b60405191506103e08201828110828211171561498e5761498e61489b565b60405250806104608d018e8111156149a557600080fd5b60808e015b818110156149c9576149bb81614808565b8352602092830192016149aa565b508296506149d6816148ca565b95505050506104808b013591506104a08b013590509295989b9194979a5092959850565b60208152600061424a6020830184614765565b803563ffffffff811681146147e857600080fd5b60008060008060008060c08789031215614a3a57600080fd5b614a4387614a0d565b9550614a5160208801614a0d565b94506040870135935060608701359250614a6d60808801614a0d565b9150614a7b60a08801614a0d565b90509295509295509295565b6bffffffffffffffffffffffff8116811461382257600080fd5b60008060408385031215614ab457600080fd5b614abd83614808565b91506020830135614acd81614a87565b809150509250929050565b60008083601f840112614aea57600080fd5b50813567ffffffffffffffff811115614b0257600080fd5b6020830191508360208260051b850101111561489457600080fd5b60008060208385031215614b3057600080fd5b823567ffffffffffffffff811115614b4757600080fd5b614b5385828601614ad8565b90969095509350505050565b60008060008060808587031215614b7557600080fd5b614b7e85614a0d565b9350602085013592506040850135614b9581614a87565b91506060850135614ba581614a87565b939692955090935050565b6bffffffffffffffffffffffff841681526001600160a01b0383166020820152606060408201526000614be66060830184614765565b95945050505050565b60008060008060608587031215614c0557600080fd5b614c0e85614808565b935060208501359250604085013567ffffffffffffffff811115614c3157600080fd5b614c3d87828801614852565b95989497509550505050565b600080600083850360a0811215614c5f57600080fd5b843567ffffffffffffffff811115614c7657600080fd5b614c8287828801614852565b90955093505060807fffffffffffffffffffffffffffffffffffffffffffffffffffffffffffffffe082011215614cb857600080fd5b506020840190509250925092565b600080600060608486031215614cdb57600080fd5b614ce484614808565b9250614cf260208501614808565b9150614d0060408501614808565b90509250925092565b600060208284031215614d1b57600080fd5b61424a82614808565b600060808284031215614d3657600080fd5b6040516080810181811067ffffffffffffffff82111715614d5957614d5961489b565b604052905080614d68836147d0565b8152614d7660208401614808565b6020820152614d8760408401614a0d565b6040820152606083013560608201525092915050565b600080600060a08486031215614db257600080fd5b833567ffffffffffffffff811115614dc957600080fd5b614dd586828701614852565b9094509250614d0090508560208601614d24565b8183528181602085013750600060208284010152600060207fffffffffffffffffffffffffffffffffffffffffffffffffffffffffffffffe0601f840116840101905092915050565b858152606060208201526000614e4c606083018688614de9565b8281036040840152614e5f818587614de9565b98975050505050505050565b7f4e487b7100000000000000000000000000000000000000000000000000000000600052601160045260246000fd5b6bffffffffffffffffffffffff8281168282160390808211156145fc576145fc614e6b565b7f4e487b7100000000000000000000000000000000000000000000000000000000600052603260045260246000fd5b6bffffffffffffffffffffffff8181168382160190808211156145fc576145fc614e6b565b60007fffffffffffffffffffffffffffffffffffffffffffffffffffffffffffffffff8203614f4457614f44614e6b565b5060010190565b600060208284031215614f5d57600080fd5b8151801515811461424a57600080fd5b8082018082111561383257613832614e6b565b8181038181111561383257613832614e6b565b7f4e487b7100000000000000000000000000000000000000000000000000000000600052603160045260246000fd5b808202811582820484141761383257613832614e6b565b7f4e487b7100000000000000000000000000000000000000000000000000000000600052601260045260246000fd5b60008261501757615017614fd9565b500490565b600067ffffffffffffffff80831681810361503957615039614e6b565b6001019392505050565b60006020828403121561505557600080fd5b61424a82614a0d565b60a08152600061507260a083018587614de9565b905067ffffffffffffffff615086846147d0565b1660208301526001600160a01b036150a060208501614808565b16604083015263ffffffff6150b760408501614a0d565b16606083015260608301356080830152949350505050565b6000602082840312156150e157600080fd5b815161424a81614a87565b6000608082840312156150fe57600080fd5b61424a8383614d24565b67ffffffffffffffff8181168382160190808211156145fc576145fc614e6b565b60006101208201905067ffffffffffffffff83511682526001600160a01b036020840151166020830152604083015161516a604084018263ffffffff169052565b5060608301516060830152608083015161518f60808401826001600160a01b03169052565b5060a08301516151af60a08401826bffffffffffffffffffffffff169052565b5060c08301516151cf60c08401826bffffffffffffffffffffffff169052565b5060e08301516151ef60e08401826bffffffffffffffffffffffff169052565b5061010092830151919092015290565b60006020828403121561521157600080fd5b5051919050565b6040808252810183905260008460608301825b86811015615259576001600160a01b0361524484614808565b1682526020928301929091019060010161522b565b5080925050506001600160a01b0383166020830152949350505050565b60006bffffffffffffffffffffffff8084168061529557615295614fd9565b92169190910492915050565b805169ffffffffffffffffffff811681146147e857600080fd5b600080600080600060a086880312156152d357600080fd5b6152dc866152a1565b94506020860151935060408601519250606086015191506152ff608087016152a1565b9050929550929590935056fea164736f6c6343000815000a",
    "linkReferences": {}
  },
  "methodIdentifiers": {
    "LINK()": "1b6b6d23",
    "LINK_ETH_FEED()": "ad178361",
    "MAX_CONSUMERS()": "64d51a2a",
    "acceptOwnership()": "79ba5097",
    "acceptSubscriptionOwnerTransfer(uint64)": "82359740",
    "addConsumer(uint64,address)": "7341c10c",
    "cancelSubscription(uint64,address)": "d7ae1d30",
    "createSubscription()": "a21a23e4",
    "estimateCost(uint32,uint256,uint96,uint96)": "a1a6d041",
    "fulfillAndBill(bytes32,bytes,bytes,address,address[31],uint8,uint256,uint256)": "0739e4f1",
    "getAuthorizedSenders()": "2408afaa",
    "getConfig()": "c3f909d4",
    "getCurrentsubscriptionId()": "33652e3e",
    "getRequestConfig()": "00012291",
    "getRequiredFee(bytes,(uint64,address,uint32,uint256))": "f1e14a21",
    "getSubscription(uint64)": "a47c7696",
    "getSubscriptionOwner(uint64)": "b2a489ff",
    "getTotalBalance()": "12b58349",
    "initialize(address,address,address)": "c0c53b8b",
    "isAuthorizedSender(address)": "fa00763a",
    "onTokenTransfer(address,uint256,bytes)": "a4c0ed36",
    "oracleWithdraw(address,uint96)": "66316d8d",
    "owner()": "8da5cb5b",
    "ownerCancelSubscription(uint64)": "02bcc5b6",
    "pause()": "8456cb59",
    "paused()": "5c975abb",
    "pendingRequestExists(uint64)": "e82ad7d4",
    "recoverFunds(address)": "e72f6e30",
    "removeConsumer(uint64,address)": "9f87fad7",
    "requestSubscriptionOwnerTransfer(uint64,address)": "04c357cb",
    "setAuthorizedSenders(address[])": "ee56997b",
    "setConfig(uint32,uint32,uint256,int256,uint32,uint32)": "27923e41",
    "startBilling(bytes,(uint64,address,uint32,uint256))": "a9d03c05",
    "timeoutRequests(bytes32[])": "665871ec",
    "transferOwnership(address)": "f2fde38b",
    "unpause()": "3f4ba83a"
  },
  "id": 194
}