{
  "abi": [
    {
      "inputs": [],
      "stateMutability": "nonpayable",
      "type": "constructor"
    },
    {
      "inputs": [
        {
          "internalType": "address",
          "name": "spender",
          "type": "address"
        },
        {
          "internalType": "uint256",
          "name": "allowance",
          "type": "uint256"
        },
        {
          "internalType": "uint256",
          "name": "needed",
          "type": "uint256"
        }
      ],
      "name": "ERC20InsufficientAllowance",
      "type": "error"
    },
    {
      "inputs": [
        {
          "internalType": "address",
          "name": "sender",
          "type": "address"
        },
        {
          "internalType": "uint256",
          "name": "balance",
          "type": "uint256"
        },
        {
          "internalType": "uint256",
          "name": "needed",
          "type": "uint256"
        }
      ],
      "name": "ERC20InsufficientBalance",
      "type": "error"
    },
    {
      "inputs": [
        {
          "internalType": "address",
          "name": "approver",
          "type": "address"
        }
      ],
      "name": "ERC20InvalidApprover",
      "type": "error"
    },
    {
      "inputs": [
        {
          "internalType": "address",
          "name": "receiver",
          "type": "address"
        }
      ],
      "name": "ERC20InvalidReceiver",
      "type": "error"
    },
    {
      "inputs": [
        {
          "internalType": "address",
          "name": "sender",
          "type": "address"
        }
      ],
      "name": "ERC20InvalidSender",
      "type": "error"
    },
    {
      "inputs": [
        {
          "internalType": "address",
          "name": "spender",
          "type": "address"
        }
      ],
      "name": "ERC20InvalidSpender",
      "type": "error"
    },
    {
      "inputs": [
        {
          "internalType": "address",
          "name": "owner",
          "type": "address"
        }
      ],
      "name": "OwnableInvalidOwner",
      "type": "error"
    },
    {
      "inputs": [
        {
          "internalType": "address",
          "name": "account",
          "type": "address"
        }
      ],
      "name": "OwnableUnauthorizedAccount",
      "type": "error"
    },
    {
      "anonymous": false,
      "inputs": [
        {
          "indexed": true,
          "internalType": "address",
          "name": "owner",
          "type": "address"
        },
        {
          "indexed": true,
          "internalType": "address",
          "name": "spender",
          "type": "address"
        },
        {
          "indexed": false,
          "internalType": "uint256",
          "name": "value",
          "type": "uint256"
        }
      ],
      "name": "Approval",
      "type": "event"
    },
    {
      "anonymous": false,
      "inputs": [
        {
          "indexed": true,
          "internalType": "address",
          "name": "governor",
          "type": "address"
        },
        {
          "indexed": false,
          "internalType": "bool",
          "name": "authorized",
          "type": "bool"
        }
      ],
      "name": "NewGovernor",
      "type": "event"
    },
    {
      "anonymous": false,
      "inputs": [
        {
          "indexed": true,
          "internalType": "address",
          "name": "previousOwner",
          "type": "address"
        },
        {
          "indexed": true,
          "internalType": "address",
          "name": "newOwner",
          "type": "address"
        }
      ],
      "name": "OwnershipTransferred",
      "type": "event"
    },
    {
      "anonymous": false,
      "inputs": [
        {
          "indexed": false,
          "internalType": "enum oracleDrex.State",
          "name": "state",
          "type": "uint8"
        }
      ],
      "name": "StateUpdated",
      "type": "event"
    },
    {
      "anonymous": false,
      "inputs": [
        {
          "indexed": true,
          "internalType": "address",
          "name": "from",
          "type": "address"
        },
        {
          "indexed": true,
          "internalType": "address",
          "name": "to",
          "type": "address"
        },
        {
          "indexed": false,
          "internalType": "uint256",
          "name": "value",
          "type": "uint256"
        }
      ],
      "name": "Transfer",
      "type": "event"
    },
    {
      "anonymous": false,
      "inputs": [
        {
          "indexed": true,
          "internalType": "address",
          "name": "target",
          "type": "address"
        },
        {
          "indexed": false,
          "internalType": "bool",
          "name": "authorized",
          "type": "bool"
        }
      ],
      "name": "UpdatedAuthorization",
      "type": "event"
    },
    {
      "inputs": [
        {
          "internalType": "address",
          "name": "owner",
          "type": "address"
        },
        {
          "internalType": "address",
          "name": "spender",
          "type": "address"
        }
      ],
      "name": "allowance",
      "outputs": [
        {
          "internalType": "uint256",
          "name": "",
          "type": "uint256"
        }
      ],
      "stateMutability": "view",
      "type": "function"
    },
    {
      "inputs": [
        {
          "internalType": "address",
          "name": "spender",
          "type": "address"
        },
        {
          "internalType": "uint256",
          "name": "value",
          "type": "uint256"
        }
      ],
      "name": "approve",
      "outputs": [
        {
          "internalType": "bool",
          "name": "",
          "type": "bool"
        }
      ],
      "stateMutability": "nonpayable",
      "type": "function"
    },
    {
      "inputs": [
        {
          "internalType": "address",
          "name": "",
          "type": "address"
        }
      ],
      "name": "authorizedAddresses",
      "outputs": [
        {
          "internalType": "bool",
          "name": "",
          "type": "bool"
        }
      ],
      "stateMutability": "view",
      "type": "function"
    },
    {
      "inputs": [
        {
          "internalType": "address",
          "name": "account",
          "type": "address"
        }
      ],
      "name": "balanceOf",
      "outputs": [
        {
          "internalType": "uint256",
          "name": "",
          "type": "uint256"
        }
      ],
      "stateMutability": "view",
      "type": "function"
    },
    {
      "inputs": [
        {
          "internalType": "address",
          "name": "_user",
          "type": "address"
        },
        {
          "internalType": "uint256",
          "name": "_shares",
          "type": "uint256"
        }
      ],
      "name": "burn",
      "outputs": [],
      "stateMutability": "nonpayable",
      "type": "function"
    },
    {
      "inputs": [],
      "name": "decimals",
      "outputs": [
        {
          "internalType": "uint8",
          "name": "",
          "type": "uint8"
        }
      ],
      "stateMutability": "view",
      "type": "function"
    },
    {
      "inputs": [],
      "name": "emergencyPause",
      "outputs": [],
      "stateMutability": "nonpayable",
      "type": "function"
    },
    {
      "inputs": [
        {
          "internalType": "address",
          "name": "",
          "type": "address"
        }
      ],
      "name": "governor",
      "outputs": [
        {
          "internalType": "bool",
          "name": "",
          "type": "bool"
        }
      ],
      "stateMutability": "view",
      "type": "function"
    },
    {
      "inputs": [
        {
          "internalType": "address",
          "name": "_to",
          "type": "address"
        },
        {
          "internalType": "uint256",
          "name": "_shares",
          "type": "uint256"
        }
      ],
      "name": "mint",
      "outputs": [],
      "stateMutability": "nonpayable",
      "type": "function"
    },
    {
      "inputs": [],
      "name": "name",
      "outputs": [
        {
          "internalType": "string",
          "name": "",
          "type": "string"
        }
      ],
      "stateMutability": "view",
      "type": "function"
    },
    {
      "inputs": [],
      "name": "owner",
      "outputs": [
        {
          "internalType": "address",
          "name": "",
          "type": "address"
        }
      ],
      "stateMutability": "view",
      "type": "function"
    },
    {
      "inputs": [],
      "name": "renounceOwnership",
      "outputs": [],
      "stateMutability": "nonpayable",
      "type": "function"
    },
    {
      "inputs": [
        {
          "internalType": "address",
          "name": "_target",
          "type": "address"
        },
        {
          "internalType": "bool",
          "name": "_value",
          "type": "bool"
        }
      ],
      "name": "setAuthorized",
      "outputs": [],
      "stateMutability": "nonpayable",
      "type": "function"
    },
    {
      "inputs": [
        {
          "internalType": "address",
          "name": "_governance",
          "type": "address"
        },
        {
          "internalType": "bool",
          "name": "_value",
          "type": "bool"
        }
      ],
      "name": "setGovernor",
      "outputs": [],
      "stateMutability": "nonpayable",
      "type": "function"
    },
    {
      "inputs": [],
      "name": "setLock",
      "outputs": [],
      "stateMutability": "nonpayable",
      "type": "function"
    },
    {
      "inputs": [],
      "name": "startTime",
      "outputs": [
        {
          "internalType": "uint256",
          "name": "",
          "type": "uint256"
        }
      ],
      "stateMutability": "view",
      "type": "function"
    },
    {
      "inputs": [],
      "name": "state",
      "outputs": [
        {
          "internalType": "enum oracleDrex.State",
          "name": "",
          "type": "uint8"
        }
      ],
      "stateMutability": "view",
      "type": "function"
    },
    {
      "inputs": [],
      "name": "stateBeforePause",
      "outputs": [
        {
          "internalType": "enum oracleDrex.State",
          "name": "",
          "type": "uint8"
        }
      ],
      "stateMutability": "view",
      "type": "function"
    },
    {
      "inputs": [],
      "name": "symbol",
      "outputs": [
        {
          "internalType": "string",
          "name": "",
          "type": "string"
        }
      ],
      "stateMutability": "view",
      "type": "function"
    },
    {
      "inputs": [],
      "name": "totalSupply",
      "outputs": [
        {
          "internalType": "uint256",
          "name": "",
          "type": "uint256"
        }
      ],
      "stateMutability": "view",
      "type": "function"
    },
    {
      "inputs": [
        {
          "internalType": "address",
          "name": "to",
          "type": "address"
        },
        {
          "internalType": "uint256",
          "name": "value",
          "type": "uint256"
        }
      ],
      "name": "transfer",
      "outputs": [
        {
          "internalType": "bool",
          "name": "",
          "type": "bool"
        }
      ],
      "stateMutability": "nonpayable",
      "type": "function"
    },
    {
      "inputs": [
        {
          "internalType": "address",
          "name": "from",
          "type": "address"
        },
        {
          "internalType": "address",
          "name": "to",
          "type": "address"
        },
        {
          "internalType": "uint256",
          "name": "value",
          "type": "uint256"
        }
      ],
      "name": "transferFrom",
      "outputs": [
        {
          "internalType": "bool",
          "name": "",
          "type": "bool"
        }
      ],
      "stateMutability": "nonpayable",
      "type": "function"
    },
    {
      "inputs": [
        {
          "internalType": "address",
          "name": "newOwner",
          "type": "address"
        }
      ],
      "name": "transferOwnership",
      "outputs": [],
      "stateMutability": "nonpayable",
      "type": "function"
    }
  ],
  "bytecode": {
    "object": "0x60806040523480156200001157600080fd5b503360405180604001604052806004815260200163088a48ab60e31b815250604051806040016040528060058152602001640e688a48ab60db1b81525081600390816200005f9190620001c0565b5060046200006e8282620001c0565b5050506001600160a01b038116620000a057604051631e4fbdf760e01b81526000600482015260240160405180910390fd5b620000ab81620000c9565b506005805460ff60a01b1916600160a01b179055426006556200028c565b600580546001600160a01b038381166001600160a01b0319831681179093556040519116919082907f8be0079c531659141344cd1fd0a4f28419497f9722a3daafe3b4186f6b6457e090600090a35050565b634e487b7160e01b600052604160045260246000fd5b600181811c908216806200014657607f821691505b6020821081036200016757634e487b7160e01b600052602260045260246000fd5b50919050565b601f821115620001bb57600081815260208120601f850160051c81016020861015620001965750805b601f850160051c820191505b81811015620001b757828155600101620001a2565b5050505b505050565b81516001600160401b03811115620001dc57620001dc6200011b565b620001f481620001ed845462000131565b846200016d565b602080601f8311600181146200022c5760008415620002135750858301515b600019600386901b1c1916600185901b178555620001b7565b600085815260208120601f198616915b828110156200025d578886015182559484019460019091019084016200023c565b50858210156200027c5787850151600019600388901b60f8161c191681555b5050505050600190811b01905550565b6112a0806200029c6000396000f3fe608060405234801561001057600080fd5b506004361061018d5760003560e01c8063715018a6116100e35780639dc29fac1161008c578063dd62ed3e11610066578063dd62ed3e1461036a578063f19e207e146103b0578063f2fde38b146103d357600080fd5b80639dc29fac1461031f578063a9059cbb14610332578063c19d93fb1461034557600080fd5b80638d64fd60116100bd5780638d64fd60146102bc5780638da5cb5b146102ef57806395d89b411461031757600080fd5b8063715018a6146102a357806378e97925146102ab5780637aba6f37146102b457600080fd5b806340c10f191161014557806370a082311161011f57806370a082311461023757806370ec42e81461026d578063711bf9b21461029057600080fd5b806340c10f19146102075780635160696c1461021c57806351858e271461022f57600080fd5b806318160ddd1161017657806318160ddd146101d357806323b872dd146101e5578063313ce567146101f857600080fd5b806306fdde0314610192578063095ea7b3146101b0575b600080fd5b61019a6103e6565b6040516101a7919061100a565b60405180910390f35b6101c36101be36600461109f565b610478565b60405190151581526020016101a7565b6002545b6040519081526020016101a7565b6101c36101f33660046110c9565b610492565b604051601281526020016101a7565b61021a61021536600461109f565b6104b6565b005b61021a61022a366004611105565b610561565b61021a6105fc565b6101d7610245366004611141565b73ffffffffffffffffffffffffffffffffffffffff1660009081526020819052604090205490565b6101c361027b366004611141565b60086020526000908152604090205460ff1681565b61021a61029e366004611105565b6106ef565b61021a61077a565b6101d760065481565b61021a61078e565b6005546102e2907501000000000000000000000000000000000000000000900460ff1681565b6040516101a79190611192565b60055460405173ffffffffffffffffffffffffffffffffffffffff90911681526020016101a7565b61019a610860565b61021a61032d36600461109f565b61086f565b6101c361034036600461109f565b610919565b6005546102e29074010000000000000000000000000000000000000000900460ff1681565b6101d76103783660046111d3565b73ffffffffffffffffffffffffffffffffffffffff918216600090815260016020908152604080832093909416825291909152205490565b6101c36103be366004611141565b60076020526000908152604090205460ff1681565b61021a6103e1366004611141565b610927565b6060600380546103f590611206565b80601f016020809104026020016040519081016040528092919081815260200182805461042190611206565b801561046e5780601f106104435761010080835404028352916020019161046e565b820191906000526020600020905b81548152906001019060200180831161045157829003601f168201915b5050505050905090565b60003361048681858561098b565b60019150505b92915050565b6000336104a085828561099d565b6104ab858585610a6c565b506001949350505050565b600160055474010000000000000000000000000000000000000000900460ff1660028111156104e7576104e7611163565b14610553576040517f08c379a000000000000000000000000000000000000000000000000000000000815260206004820152600960248201527f21556e6c6f636b6564000000000000000000000000000000000000000000000060448201526064015b60405180910390fd5b61055d8282610b17565b5050565b610569610b73565b610571610bc6565b73ffffffffffffffffffffffffffffffffffffffff821660008181526008602090815260409182902080547fffffffffffffffffffffffffffffffffffffffffffffffffffffffffffffff001685151590811790915591519182527fbb35d79a0e42810e1556183f4de163f21b0dfa425332429ffc7f12d1b1be36d991015b60405180910390a25050565b610604610b73565b6005805460ff7401000000000000000000000000000000000000000082041691907fffffffffffffffffffff00ffffffffffffffffffffffffffffffffffffffffff16750100000000000000000000000000000000000000000083600281111561067057610670611163565b0217905550600580547fffffffffffffffffffffff00ffffffffffffffffffffffffffffffffffffffff16740200000000000000000000000000000000000000001790556040517f23ad33ab6a13a00aa7d06cd167b2abd03dec86af3cf3cc91759dcd3ae8411887906106e590600290611192565b60405180910390a1565b6106f7610bc6565b73ffffffffffffffffffffffffffffffffffffffff821660008181526007602090815260409182902080547fffffffffffffffffffffffffffffffffffffffffffffffffffffffffffffff001685151590811790915591519182527f8d6437292b994fc738dc2a2d36adca80c5c3516dde0ca63fedcbb70101b21a3191016105f0565b610782610b73565b61078c6000610c44565b565b610796610b73565b6005805460ff7401000000000000000000000000000000000000000082041691907fffffffffffffffffffff00ffffffffffffffffffffffffffffffffffffffffff16750100000000000000000000000000000000000000000083600281111561080257610802611163565b0217905550600580547fffffffffffffffffffffff00ffffffffffffffffffffffffffffffffffffffff1690556040517f23ad33ab6a13a00aa7d06cd167b2abd03dec86af3cf3cc91759dcd3ae8411887906106e590600090611192565b6060600480546103f590611206565b600160055474010000000000000000000000000000000000000000900460ff1660028111156108a0576108a0611163565b14610907576040517f08c379a000000000000000000000000000000000000000000000000000000000815260206004820152600960248201527f21556e6c6f636b65640000000000000000000000000000000000000000000000604482015260640161054a565b61090f610bc6565b61055d8282610cbb565b600033610486818585610a6c565b61092f610b73565b73ffffffffffffffffffffffffffffffffffffffff811661097f576040517f1e4fbdf70000000000000000000000000000000000000000000000000000000081526000600482015260240161054a565b61098881610c44565b50565b6109988383836001610d17565b505050565b73ffffffffffffffffffffffffffffffffffffffff8381166000908152600160209081526040808320938616835292905220547fffffffffffffffffffffffffffffffffffffffffffffffffffffffffffffffff8114610a665781811015610a57576040517ffb8f41b200000000000000000000000000000000000000000000000000000000815273ffffffffffffffffffffffffffffffffffffffff84166004820152602481018290526044810183905260640161054a565b610a6684848484036000610d17565b50505050565b73ffffffffffffffffffffffffffffffffffffffff8316610abc576040517f96c6fd1e0000000000000000000000000000000000000000000000000000000081526000600482015260240161054a565b73ffffffffffffffffffffffffffffffffffffffff8216610b0c576040517fec442f050000000000000000000000000000000000000000000000000000000081526000600482015260240161054a565b610998838383610e5f565b73ffffffffffffffffffffffffffffffffffffffff8216610b67576040517fec442f050000000000000000000000000000000000000000000000000000000081526000600482015260240161054a565b61055d60008383610e5f565b60055473ffffffffffffffffffffffffffffffffffffffff16331461078c576040517f118cdaa700000000000000000000000000000000000000000000000000000000815233600482015260240161054a565b3360009081526008602052604090205460ff16151560011461078c576040517f08c379a000000000000000000000000000000000000000000000000000000000815260206004820152600960248201527f21676f7665726e6f720000000000000000000000000000000000000000000000604482015260640161054a565b6005805473ffffffffffffffffffffffffffffffffffffffff8381167fffffffffffffffffffffffff0000000000000000000000000000000000000000831681179093556040519116919082907f8be0079c531659141344cd1fd0a4f28419497f9722a3daafe3b4186f6b6457e090600090a35050565b73ffffffffffffffffffffffffffffffffffffffff8216610d0b576040517f96c6fd1e0000000000000000000000000000000000000000000000000000000081526000600482015260240161054a565b61055d82600083610e5f565b73ffffffffffffffffffffffffffffffffffffffff8416610d67576040517fe602df050000000000000000000000000000000000000000000000000000000081526000600482015260240161054a565b73ffffffffffffffffffffffffffffffffffffffff8316610db7576040517f94280d620000000000000000000000000000000000000000000000000000000081526000600482015260240161054a565b73ffffffffffffffffffffffffffffffffffffffff80851660009081526001602090815260408083209387168352929052208290558015610a66578273ffffffffffffffffffffffffffffffffffffffff168473ffffffffffffffffffffffffffffffffffffffff167f8c5be1e5ebec7d5bd14f71427d1e84f3dd0314c0f7b2291e5b200ac8c7c3b92584604051610e5191815260200190565b60405180910390a350505050565b73ffffffffffffffffffffffffffffffffffffffff8316610e97578060026000828254610e8c9190611259565b90915550610f499050565b73ffffffffffffffffffffffffffffffffffffffff831660009081526020819052604090205481811015610f1d576040517fe450d38c00000000000000000000000000000000000000000000000000000000815273ffffffffffffffffffffffffffffffffffffffff85166004820152602481018290526044810183905260640161054a565b73ffffffffffffffffffffffffffffffffffffffff841660009081526020819052604090209082900390555b73ffffffffffffffffffffffffffffffffffffffff8216610f7257600280548290039055610f9e565b73ffffffffffffffffffffffffffffffffffffffff821660009081526020819052604090208054820190555b8173ffffffffffffffffffffffffffffffffffffffff168373ffffffffffffffffffffffffffffffffffffffff167fddf252ad1be2c89b69c2b068fc378daa952ba7f163c4a11628f55a4df523b3ef83604051610ffd91815260200190565b60405180910390a3505050565b600060208083528351808285015260005b818110156110375785810183015185820160400152820161101b565b5060006040828601015260407fffffffffffffffffffffffffffffffffffffffffffffffffffffffffffffffe0601f8301168501019250505092915050565b803573ffffffffffffffffffffffffffffffffffffffff8116811461109a57600080fd5b919050565b600080604083850312156110b257600080fd5b6110bb83611076565b946020939093013593505050565b6000806000606084860312156110de57600080fd5b6110e784611076565b92506110f560208501611076565b9150604084013590509250925092565b6000806040838503121561111857600080fd5b61112183611076565b91506020830135801515811461113657600080fd5b809150509250929050565b60006020828403121561115357600080fd5b61115c82611076565b9392505050565b7f4e487b7100000000000000000000000000000000000000000000000000000000600052602160045260246000fd5b60208101600383106111cd577f4e487b7100000000000000000000000000000000000000000000000000000000600052602160045260246000fd5b91905290565b600080604083850312156111e657600080fd5b6111ef83611076565b91506111fd60208401611076565b90509250929050565b600181811c9082168061121a57607f821691505b602082108103611253577f4e487b7100000000000000000000000000000000000000000000000000000000600052602260045260246000fd5b50919050565b8082018082111561048c577f4e487b7100000000000000000000000000000000000000000000000000000000600052601160045260246000fdfea164736f6c6343000815000a",
    "linkReferences": {}
  },
  "methodIdentifiers": {
    "allowance(address,address)": "dd62ed3e",
    "approve(address,uint256)": "095ea7b3",
    "authorizedAddresses(address)": "f19e207e",
    "balanceOf(address)": "70a08231",
    "burn(address,uint256)": "9dc29fac",
    "decimals()": "313ce567",
    "emergencyPause()": "51858e27",
    "governor(address)": "70ec42e8",
    "mint(address,uint256)": "40c10f19",
    "name()": "06fdde03",
    "owner()": "8da5cb5b",
    "renounceOwnership()": "715018a6",
    "setAuthorized(address,bool)": "711bf9b2",
    "setGovernor(address,bool)": "5160696c",
    "setLock()": "7aba6f37",
    "startTime()": "78e97925",
    "state()": "c19d93fb",
    "stateBeforePause()": "8d64fd60",
    "symbol()": "95d89b41",
    "totalSupply()": "18160ddd",
    "transfer(address,uint256)": "a9059cbb",
    "transferFrom(address,address,uint256)": "23b872dd",
    "transferOwnership(address)": "f2fde38b"
  },
  "id": 89
}