{
  "abi": [
    {
      "inputs": [
        {
          "internalType": "address",
          "name": "wrappedNative",
          "type": "address"
        },
        {
          "internalType": "address",
          "name": "armProxy",
          "type": "address"
        }
      ],
      "stateMutability": "nonpayable",
      "type": "constructor"
    },
    {
      "inputs": [],
      "name": "BadARMSignal",
      "type": "error"
    },
    {
      "inputs": [],
      "name": "FailedToSendValue",
      "type": "error"
    },
    {
      "inputs": [],
      "name": "InsufficientFeeTokenAmount",
      "type": "error"
    },
    {
      "inputs": [],
      "name": "InvalidMsgValue",
      "type": "error"
    },
    {
      "inputs": [
        {
          "internalType": "address",
          "name": "to",
          "type": "address"
        }
      ],
      "name": "InvalidRecipientAddress",
      "type": "error"
    },
    {
      "inputs": [
        {
          "internalType": "uint64",
          "name": "chainSelector",
          "type": "uint64"
        },
        {
          "internalType": "address",
          "name": "offRamp",
          "type": "address"
        }
      ],
      "name": "OffRampMismatch",
      "type": "error"
    },
    {
      "inputs": [],
      "name": "OnlyOffRamp",
      "type": "error"
    },
    {
      "inputs": [
        {
          "internalType": "uint64",
          "name": "destChainSelector",
          "type": "uint64"
        }
      ],
      "name": "UnsupportedDestinationChain",
      "type": "error"
    },
    {
      "anonymous": false,
      "inputs": [
        {
          "indexed": false,
          "internalType": "bytes32",
          "name": "messageId",
          "type": "bytes32"
        },
        {
          "indexed": false,
          "internalType": "uint64",
          "name": "sourceChainSelector",
          "type": "uint64"
        },
        {
          "indexed": false,
          "internalType": "address",
          "name": "offRamp",
          "type": "address"
        },
        {
          "indexed": false,
          "internalType": "bytes32",
          "name": "calldataHash",
          "type": "bytes32"
        }
      ],
      "name": "MessageExecuted",
      "type": "event"
    },
    {
      "anonymous": false,
      "inputs": [
        {
          "indexed": true,
          "internalType": "uint64",
          "name": "sourceChainSelector",
          "type": "uint64"
        },
        {
          "indexed": false,
          "internalType": "address",
          "name": "offRamp",
          "type": "address"
        }
      ],
      "name": "OffRampAdded",
      "type": "event"
    },
    {
      "anonymous": false,
      "inputs": [
        {
          "indexed": true,
          "internalType": "uint64",
          "name": "sourceChainSelector",
          "type": "uint64"
        },
        {
          "indexed": false,
          "internalType": "address",
          "name": "offRamp",
          "type": "address"
        }
      ],
      "name": "OffRampRemoved",
      "type": "event"
    },
    {
      "anonymous": false,
      "inputs": [
        {
          "indexed": true,
          "internalType": "uint64",
          "name": "destChainSelector",
          "type": "uint64"
        },
        {
          "indexed": false,
          "internalType": "address",
          "name": "onRamp",
          "type": "address"
        }
      ],
      "name": "OnRampSet",
      "type": "event"
    },
    {
      "anonymous": false,
      "inputs": [
        {
          "indexed": true,
          "internalType": "address",
          "name": "from",
          "type": "address"
        },
        {
          "indexed": true,
          "internalType": "address",
          "name": "to",
          "type": "address"
        }
      ],
      "name": "OwnershipTransferRequested",
      "type": "event"
    },
    {
      "anonymous": false,
      "inputs": [
        {
          "indexed": true,
          "internalType": "address",
          "name": "from",
          "type": "address"
        },
        {
          "indexed": true,
          "internalType": "address",
          "name": "to",
          "type": "address"
        }
      ],
      "name": "OwnershipTransferred",
      "type": "event"
    },
    {
      "inputs": [],
      "name": "MAX_RET_BYTES",
      "outputs": [
        {
          "internalType": "uint16",
          "name": "",
          "type": "uint16"
        }
      ],
      "stateMutability": "view",
      "type": "function"
    },
    {
      "inputs": [],
      "name": "acceptOwnership",
      "outputs": [],
      "stateMutability": "nonpayable",
      "type": "function"
    },
    {
      "inputs": [
        {
          "components": [
            {
              "internalType": "uint64",
              "name": "destChainSelector",
              "type": "uint64"
            },
            {
              "internalType": "address",
              "name": "onRamp",
              "type": "address"
            }
          ],
          "internalType": "struct Router.OnRamp[]",
          "name": "onRampUpdates",
          "type": "tuple[]"
        },
        {
          "components": [
            {
              "internalType": "uint64",
              "name": "sourceChainSelector",
              "type": "uint64"
            },
            {
              "internalType": "address",
              "name": "offRamp",
              "type": "address"
            }
          ],
          "internalType": "struct Router.OffRamp[]",
          "name": "offRampRemoves",
          "type": "tuple[]"
        },
        {
          "components": [
            {
              "internalType": "uint64",
              "name": "sourceChainSelector",
              "type": "uint64"
            },
            {
              "internalType": "address",
              "name": "offRamp",
              "type": "address"
            }
          ],
          "internalType": "struct Router.OffRamp[]",
          "name": "offRampAdds",
          "type": "tuple[]"
        }
      ],
      "name": "applyRampUpdates",
      "outputs": [],
      "stateMutability": "nonpayable",
      "type": "function"
    },
    {
      "inputs": [
        {
          "internalType": "uint64",
          "name": "destinationChainSelector",
          "type": "uint64"
        },
        {
          "components": [
            {
              "internalType": "bytes",
              "name": "receiver",
              "type": "bytes"
            },
            {
              "internalType": "bytes",
              "name": "data",
              "type": "bytes"
            },
            {
              "components": [
                {
                  "internalType": "address",
                  "name": "token",
                  "type": "address"
                },
                {
                  "internalType": "uint256",
                  "name": "amount",
                  "type": "uint256"
                }
              ],
              "internalType": "struct Client.EVMTokenAmount[]",
              "name": "tokenAmounts",
              "type": "tuple[]"
            },
            {
              "internalType": "address",
              "name": "feeToken",
              "type": "address"
            },
            {
              "internalType": "bytes",
              "name": "extraArgs",
              "type": "bytes"
            }
          ],
          "internalType": "struct Client.EVM2AnyMessage",
          "name": "message",
          "type": "tuple"
        }
      ],
      "name": "ccipSend",
      "outputs": [
        {
          "internalType": "bytes32",
          "name": "",
          "type": "bytes32"
        }
      ],
      "stateMutability": "payable",
      "type": "function"
    },
    {
      "inputs": [],
      "name": "getArmProxy",
      "outputs": [
        {
          "internalType": "address",
          "name": "",
          "type": "address"
        }
      ],
      "stateMutability": "view",
      "type": "function"
    },
    {
      "inputs": [
        {
          "internalType": "uint64",
          "name": "destinationChainSelector",
          "type": "uint64"
        },
        {
          "components": [
            {
              "internalType": "bytes",
              "name": "receiver",
              "type": "bytes"
            },
            {
              "internalType": "bytes",
              "name": "data",
              "type": "bytes"
            },
            {
              "components": [
                {
                  "internalType": "address",
                  "name": "token",
                  "type": "address"
                },
                {
                  "internalType": "uint256",
                  "name": "amount",
                  "type": "uint256"
                }
              ],
              "internalType": "struct Client.EVMTokenAmount[]",
              "name": "tokenAmounts",
              "type": "tuple[]"
            },
            {
              "internalType": "address",
              "name": "feeToken",
              "type": "address"
            },
            {
              "internalType": "bytes",
              "name": "extraArgs",
              "type": "bytes"
            }
          ],
          "internalType": "struct Client.EVM2AnyMessage",
          "name": "message",
          "type": "tuple"
        }
      ],
      "name": "getFee",
      "outputs": [
        {
          "internalType": "uint256",
          "name": "fee",
          "type": "uint256"
        }
      ],
      "stateMutability": "view",
      "type": "function"
    },
    {
      "inputs": [],
      "name": "getOffRamps",
      "outputs": [
        {
          "components": [
            {
              "internalType": "uint64",
              "name": "sourceChainSelector",
              "type": "uint64"
            },
            {
              "internalType": "address",
              "name": "offRamp",
              "type": "address"
            }
          ],
          "internalType": "struct Router.OffRamp[]",
          "name": "",
          "type": "tuple[]"
        }
      ],
      "stateMutability": "view",
      "type": "function"
    },
    {
      "inputs": [
        {
          "internalType": "uint64",
          "name": "destChainSelector",
          "type": "uint64"
        }
      ],
      "name": "getOnRamp",
      "outputs": [
        {
          "internalType": "address",
          "name": "",
          "type": "address"
        }
      ],
      "stateMutability": "view",
      "type": "function"
    },
    {
      "inputs": [
        {
          "internalType": "uint64",
          "name": "chainSelector",
          "type": "uint64"
        }
      ],
      "name": "getSupportedTokens",
      "outputs": [
        {
          "internalType": "address[]",
          "name": "",
          "type": "address[]"
        }
      ],
      "stateMutability": "view",
      "type": "function"
    },
    {
      "inputs": [],
      "name": "getWrappedNative",
      "outputs": [
        {
          "internalType": "address",
          "name": "",
          "type": "address"
        }
      ],
      "stateMutability": "view",
      "type": "function"
    },
    {
      "inputs": [
        {
          "internalType": "uint64",
          "name": "chainSelector",
          "type": "uint64"
        }
      ],
      "name": "isChainSupported",
      "outputs": [
        {
          "internalType": "bool",
          "name": "",
          "type": "bool"
        }
      ],
      "stateMutability": "view",
      "type": "function"
    },
    {
      "inputs": [
        {
          "internalType": "uint64",
          "name": "sourceChainSelector",
          "type": "uint64"
        },
        {
          "internalType": "address",
          "name": "offRamp",
          "type": "address"
        }
      ],
      "name": "isOffRamp",
      "outputs": [
        {
          "internalType": "bool",
          "name": "",
          "type": "bool"
        }
      ],
      "stateMutability": "view",
      "type": "function"
    },
    {
      "inputs": [],
      "name": "owner",
      "outputs": [
        {
          "internalType": "address",
          "name": "",
          "type": "address"
        }
      ],
      "stateMutability": "view",
      "type": "function"
    },
    {
      "inputs": [
        {
          "internalType": "address",
          "name": "tokenAddress",
          "type": "address"
        },
        {
          "internalType": "address",
          "name": "to",
          "type": "address"
        },
        {
          "internalType": "uint256",
          "name": "amount",
          "type": "uint256"
        }
      ],
      "name": "recoverTokens",
      "outputs": [],
      "stateMutability": "nonpayable",
      "type": "function"
    },
    {
      "inputs": [
        {
          "components": [
            {
              "internalType": "bytes32",
              "name": "messageId",
              "type": "bytes32"
            },
            {
              "internalType": "uint64",
              "name": "sourceChainSelector",
              "type": "uint64"
            },
            {
              "internalType": "bytes",
              "name": "sender",
              "type": "bytes"
            },
            {
              "internalType": "bytes",
              "name": "data",
              "type": "bytes"
            },
            {
              "components": [
                {
                  "internalType": "address",
                  "name": "token",
                  "type": "address"
                },
                {
                  "internalType": "uint256",
                  "name": "amount",
                  "type": "uint256"
                }
              ],
              "internalType": "struct Client.EVMTokenAmount[]",
              "name": "destTokenAmounts",
              "type": "tuple[]"
            }
          ],
          "internalType": "struct Client.Any2EVMMessage",
          "name": "message",
          "type": "tuple"
        },
        {
          "internalType": "uint16",
          "name": "gasForCallExactCheck",
          "type": "uint16"
        },
        {
          "internalType": "uint256",
          "name": "gasLimit",
          "type": "uint256"
        },
        {
          "internalType": "address",
          "name": "receiver",
          "type": "address"
        }
      ],
      "name": "routeMessage",
      "outputs": [
        {
          "internalType": "bool",
          "name": "success",
          "type": "bool"
        },
        {
          "internalType": "bytes",
          "name": "retData",
          "type": "bytes"
        }
      ],
      "stateMutability": "nonpayable",
      "type": "function"
    },
    {
      "inputs": [
        {
          "internalType": "address",
          "name": "wrappedNative",
          "type": "address"
        }
      ],
      "name": "setWrappedNative",
      "outputs": [],
      "stateMutability": "nonpayable",
      "type": "function"
    },
    {
      "inputs": [
        {
          "internalType": "address",
          "name": "to",
          "type": "address"
        }
      ],
      "name": "transferOwnership",
      "outputs": [],
      "stateMutability": "nonpayable",
      "type": "function"
    },
    {
      "inputs": [],
      "name": "typeAndVersion",
      "outputs": [
        {
          "internalType": "string",
          "name": "",
          "type": "string"
        }
      ],
      "stateMutability": "view",
      "type": "function"
    }
  ],
  "bytecode": {
    "object": "0x60a06040523480156200001157600080fd5b50604051620029d4380380620029d48339810160408190526200003491620001af565b33806000816200008b5760405162461bcd60e51b815260206004820152601860248201527f43616e6e6f7420736574206f776e657220746f207a65726f000000000000000060448201526064015b60405180910390fd5b600080546001600160a01b0319166001600160a01b0384811691909117909155811615620000be57620000be81620000e7565b5050600280546001600160a01b0319166001600160a01b039485161790555016608052620001e7565b336001600160a01b03821603620001415760405162461bcd60e51b815260206004820152601760248201527f43616e6e6f74207472616e7366657220746f2073656c66000000000000000000604482015260640162000082565b600180546001600160a01b0319166001600160a01b0383811691821790925560008054604051929316917fed8889f560326eb138920d842192f0eb3dd22b4f139c87a2c57538e05bae12789190a350565b80516001600160a01b0381168114620001aa57600080fd5b919050565b60008060408385031215620001c357600080fd5b620001ce8362000192565b9150620001de6020840162000192565b90509250929050565b6080516127c362000211600039600081816101f80152818161056901526109da01526127c36000f3fe6080604052600436106101295760003560e01c80638da5cb5b116100a5578063a8d87a3b11610074578063e861e90711610059578063e861e907146103d4578063f2fde38b146103f2578063fbca3b741461041257600080fd5b8063a8d87a3b14610374578063da5fcac8146103b457600080fd5b80638da5cb5b146102df57806396f4e9f9146102fd578063a40e69c714610310578063a48a90581461033257600080fd5b806352cb60ca116100fc578063787350e3116100e1578063787350e31461027257806379ba50971461029a57806383826b2b146102af57600080fd5b806352cb60ca146102305780635f3e849f1461025257600080fd5b8063181f5a771461012e57806320487ded1461018d5780633cf97983146101bb5780635246492f146101e9575b600080fd5b34801561013a57600080fd5b506101776040518060400160405280600c81526020017f526f7574657220312e322e30000000000000000000000000000000000000000081525081565b6040516101849190611c93565b60405180910390f35b34801561019957600080fd5b506101ad6101a8366004611ebb565b61043f565b604051908152602001610184565b3480156101c757600080fd5b506101db6101d6366004611fb8565b610563565b604051610184929190612030565b3480156101f557600080fd5b507f00000000000000000000000000000000000000000000000000000000000000005b6040516001600160a01b039091168152602001610184565b34801561023c57600080fd5b5061025061024b36600461204b565b61078e565b005b34801561025e57600080fd5b5061025061026d366004612068565b6107d0565b34801561027e57600080fd5b50610287608481565b60405161ffff9091168152602001610184565b3480156102a657600080fd5b506102506108dd565b3480156102bb57600080fd5b506102cf6102ca3660046120a9565b6109c0565b6040519015158152602001610184565b3480156102eb57600080fd5b506000546001600160a01b0316610218565b6101ad61030b366004611ebb565b6109d6565b34801561031c57600080fd5b50610325610ee8565b60405161018491906120e0565b34801561033e57600080fd5b506102cf61034d366004612142565b67ffffffffffffffff166000908152600360205260409020546001600160a01b0316151590565b34801561038057600080fd5b5061021861038f366004612142565b67ffffffffffffffff166000908152600360205260409020546001600160a01b031690565b3480156103c057600080fd5b506102506103cf3660046121a9565b610fe8565b3480156103e057600080fd5b506002546001600160a01b0316610218565b3480156103fe57600080fd5b5061025061040d36600461204b565b6112d3565b34801561041e57600080fd5b5061043261042d366004612142565b6112e7565b6040516101849190612243565b60608101516000906001600160a01b0316610466576002546001600160a01b031660608301525b67ffffffffffffffff83166000908152600360205260409020546001600160a01b0316806104d1576040517fae236d9c00000000000000000000000000000000000000000000000000000000815267ffffffffffffffff851660048201526024015b60405180910390fd5b6040517f20487ded0000000000000000000000000000000000000000000000000000000081526001600160a01b038216906320487ded906105189087908790600401612353565b602060405180830381865afa158015610535573d6000803e3d6000fd5b505050506040513d601f19601f820116820180604052508101906105599190612376565b9150505b92915050565b600060607f00000000000000000000000000000000000000000000000000000000000000006001600160a01b031663397796f76040518163ffffffff1660e01b8152600401602060405180830381865afa1580156105c5573d6000803e3d6000fd5b505050506040513d601f19601f820116820180604052508101906105e9919061238f565b15610620576040517fc148371500000000000000000000000000000000000000000000000000000000815260040160405180910390fd5b61064461063c6106366040890160208a01612142565b336113cf565b600490611406565b61067a576040517fd2316ede00000000000000000000000000000000000000000000000000000000815260040160405180910390fd5b60006385572ffb60e01b876040516024016106959190612493565b60408051601f198184030181529190526020810180517bffffffffffffffffffffffffffffffffffffffffffffffffffffffff167fffffffff0000000000000000000000000000000000000000000000000000000090931692909217909152905061070481858760848a61141e565b90935091507f9b877de93ea9895756e337442c657f95a34fc68e7eb988bdfa693d5be83016b6873561073c60408a0160208b01612142565b8351602085012060405161077c939291339193845267ffffffffffffffff9290921660208401526001600160a01b03166040830152606082015260800190565b60405180910390a15094509492505050565b610796611541565b600280547fffffffffffffffffffffffff0000000000000000000000000000000000000000166001600160a01b0392909216919091179055565b6107d8611541565b6001600160a01b038216610823576040517f26a78f8f0000000000000000000000000000000000000000000000000000000081526001600160a01b03831660048201526024016104c8565b6001600160a01b0383166108c4576000826001600160a01b03168260405160006040518083038185875af1925050503d806000811461087e576040519150601f19603f3d011682016040523d82523d6000602084013e610883565b606091505b50509050806108be576040517fe417b80b00000000000000000000000000000000000000000000000000000000815260040160405180910390fd5b50505050565b6108d86001600160a01b03841683836115b7565b505050565b6001546001600160a01b03163314610951576040517f08c379a000000000000000000000000000000000000000000000000000000000815260206004820152601660248201527f4d7573742062652070726f706f736564206f776e65720000000000000000000060448201526064016104c8565b60008054337fffffffffffffffffffffffff0000000000000000000000000000000000000000808316821784556001805490911690556040516001600160a01b0390921692909183917f8be0079c531659141344cd1fd0a4f28419497f9722a3daafe3b4186f6b6457e091a350565b60006109cf61063c84846113cf565b9392505050565b60007f00000000000000000000000000000000000000000000000000000000000000006001600160a01b031663397796f76040518163ffffffff1660e01b8152600401602060405180830381865afa158015610a36573d6000803e3d6000fd5b505050506040513d601f19601f82011682018060405250810190610a5a919061238f565b15610a91576040517fc148371500000000000000000000000000000000000000000000000000000000815260040160405180910390fd5b67ffffffffffffffff83166000908152600360205260409020546001600160a01b031680610af7576040517fae236d9c00000000000000000000000000000000000000000000000000000000815267ffffffffffffffff851660048201526024016104c8565b60608301516000906001600160a01b0316610c55576002546001600160a01b0390811660608601526040517f20487ded000000000000000000000000000000000000000000000000000000008152908316906320487ded90610b5f9088908890600401612353565b602060405180830381865afa158015610b7c573d6000803e3d6000fd5b505050506040513d601f19601f82011682018060405250810190610ba09190612376565b905080341015610bdc576040517f07da6ee600000000000000000000000000000000000000000000000000000000815260040160405180910390fd5b34905083606001516001600160a01b031663d0e30db0826040518263ffffffff1660e01b81526004016000604051808303818588803b158015610c1e57600080fd5b505af1158015610c32573d6000803e3d6000fd5b505050506060850151610c5091506001600160a01b031683836115b7565b610d32565b3415610c8d576040517f1841b4e100000000000000000000000000000000000000000000000000000000815260040160405180910390fd5b6040517f20487ded0000000000000000000000000000000000000000000000000000000081526001600160a01b038316906320487ded90610cd49088908890600401612353565b602060405180830381865afa158015610cf1573d6000803e3d6000fd5b505050506040513d601f19601f82011682018060405250810190610d159190612376565b6060850151909150610d32906001600160a01b0316338484611660565b60005b846040015151811015610e5057600085604001518281518110610d5a57610d5a612581565b6020908102919091010151516040517f48a98aa400000000000000000000000000000000000000000000000000000000815267ffffffffffffffff891660048201526001600160a01b038083166024830152919250610e3f913391908716906348a98aa490604401602060405180830381865afa158015610ddf573d6000803e3d6000fd5b505050506040513d601f19601f82011682018060405250810190610e0391906125b0565b88604001518581518110610e1957610e19612581565b602002602001015160200151846001600160a01b0316611660909392919063ffffffff16565b50610e49816125fc565b9050610d35565b506040517fdf0aa9e90000000000000000000000000000000000000000000000000000000081526001600160a01b0383169063df0aa9e990610e9c908890889086903390600401612634565b6020604051808303816000875af1158015610ebb573d6000803e3d6000fd5b505050506040513d601f19601f82011682018060405250810190610edf9190612376565b95945050505050565b60606000610ef660046116b1565b90506000815167ffffffffffffffff811115610f1457610f14611cc3565b604051908082528060200260200182016040528015610f5957816020015b6040805180820190915260008082526020820152815260200190600190039081610f325790505b50905060005b8251811015610fe1576000838281518110610f7c57610f7c612581565b60200260200101519050604051806040016040528060a083901c67ffffffffffffffff168152602001826001600160a01b0316815250838381518110610fc457610fc4612581565b60200260200101819052505080610fda906125fc565b9050610f5f565b5092915050565b610ff0611541565b60005b858110156110c757600087878381811061100f5761100f612581565b9050604002018036038101906110259190612677565b60208181018051835167ffffffffffffffff90811660009081526003855260409081902080547fffffffffffffffffffffffff0000000000000000000000000000000000000000166001600160a01b03948516179055855193519051921682529394509216917f1f7d0ec248b80e5c0dde0ee531c4fc8fdb6ce9a2b3d90f560c74acd6a7202f23910160405180910390a2506110c0816125fc565b9050610ff3565b5060005b838110156111ee5760008585838181106110e7576110e7612581565b6110fd9260206040909202019081019150612142565b9050600086868481811061111357611113612581565b905060400201602001602081019061112b919061204b565b905061114261113a83836113cf565b6004906116be565b611193576040517f4964779000000000000000000000000000000000000000000000000000000000815267ffffffffffffffff831660048201526001600160a01b03821660248201526044016104c8565b6040516001600160a01b038216815267ffffffffffffffff8316907fa823809efda3ba66c873364eec120fa0923d9fabda73bc97dd5663341e2d9bcb9060200160405180910390a25050806111e7906125fc565b90506110cb565b5060005b818110156112ca57600083838381811061120e5761120e612581565b6112249260206040909202019081019150612142565b9050600084848481811061123a5761123a612581565b9050604002016020016020810190611252919061204b565b905061126961126183836113cf565b6004906116ca565b156112b7576040516001600160a01b038216815267ffffffffffffffff8316907fa4bdf64ebdf3316320601a081916a75aa144bcef6c4beeb0e9fb1982cacc6b949060200160405180910390a25b5050806112c3906125fc565b90506111f2565b50505050505050565b6112db611541565b6112e4816116d6565b50565b60606113148267ffffffffffffffff166000908152600360205260409020546001600160a01b0316151590565b61132e576040805160008082526020820190925290610fe1565b67ffffffffffffffff8216600081815260036020526040908190205490517ffbca3b7400000000000000000000000000000000000000000000000000000000815260048101929092526001600160a01b03169063fbca3b7490602401600060405180830381865afa1580156113a7573d6000803e3d6000fd5b505050506040513d6000823e601f3d908101601f1916820160405261055d91908101906126b6565b60006109cf6001600160a01b0383167bffffffffffffffff000000000000000000000000000000000000000060a086901b16612745565b600081815260018301602052604081205415156109cf565b600060608361ffff1667ffffffffffffffff81111561143f5761143f611cc3565b6040519080825280601f01601f191660200182016040528015611469576020820181803683370190505b5090507f0c3b563c000000000000000000000000000000000000000000000000000000007fafa32a2c000000000000000000000000000000000000000000000000000000007f37c3be2900000000000000000000000000000000000000000000000000000000883b6114df578260005260046000fd5b5a868110156114f2578260005260046000fd5b869003604081048103891061150b578160005260046000fd5b506000808b5160208d0160008d8df194503d878111156115285750865b808552806000602087013e505050509550959350505050565b6000546001600160a01b031633146115b5576040517f08c379a000000000000000000000000000000000000000000000000000000000815260206004820152601660248201527f4f6e6c792063616c6c61626c65206279206f776e65720000000000000000000060448201526064016104c8565b565b6040516001600160a01b0383166024820152604481018290526108d89084907fa9059cbb00000000000000000000000000000000000000000000000000000000906064015b60408051601f198184030181529190526020810180517bffffffffffffffffffffffffffffffffffffffffffffffffffffffff167fffffffff00000000000000000000000000000000000000000000000000000000909316929092179091526117b1565b6040516001600160a01b03808516602483015283166044820152606481018290526108be9085907f23b872dd00000000000000000000000000000000000000000000000000000000906084016115fc565b606060006109cf836118b0565b60006109cf838361190c565b60006109cf83836119ff565b336001600160a01b03821603611748576040517f08c379a000000000000000000000000000000000000000000000000000000000815260206004820152601760248201527f43616e6e6f74207472616e7366657220746f2073656c6600000000000000000060448201526064016104c8565b600180547fffffffffffffffffffffffff0000000000000000000000000000000000000000166001600160a01b0383811691821790925560008054604051929316917fed8889f560326eb138920d842192f0eb3dd22b4f139c87a2c57538e05bae12789190a350565b6000611806826040518060400160405280602081526020017f5361666545524332303a206c6f772d6c6576656c2063616c6c206661696c6564815250856001600160a01b0316611a4e9092919063ffffffff16565b8051909150156108d85780806020019051810190611824919061238f565b6108d8576040517f08c379a000000000000000000000000000000000000000000000000000000000815260206004820152602a60248201527f5361666545524332303a204552433230206f7065726174696f6e20646964206e60448201527f6f7420737563636565640000000000000000000000000000000000000000000060648201526084016104c8565b60608160000180548060200260200160405190810160405280929190818152602001828054801561190057602002820191906000526020600020905b8154815260200190600101908083116118ec575b50505050509050919050565b600081815260018301602052604081205480156119f5576000611930600183612758565b855490915060009061194490600190612758565b90508181146119a957600086600001828154811061196457611964612581565b906000526020600020015490508087600001848154811061198757611987612581565b6000918252602080832090910192909255918252600188019052604090208390555b85548690806119ba576119ba61276b565b60019003818190600052602060002001600090559055856001016000868152602001908152602001600020600090556001935050505061055d565b600091505061055d565b6000818152600183016020526040812054611a465750815460018181018455600084815260208082209093018490558454848252828601909352604090209190915561055d565b50600061055d565b6060611a5d8484600085611a65565b949350505050565b606082471015611af7576040517f08c379a000000000000000000000000000000000000000000000000000000000815260206004820152602660248201527f416464726573733a20696e73756666696369656e742062616c616e636520666f60448201527f722063616c6c000000000000000000000000000000000000000000000000000060648201526084016104c8565b600080866001600160a01b03168587604051611b13919061279a565b60006040518083038185875af1925050503d8060008114611b50576040519150601f19603f3d011682016040523d82523d6000602084013e611b55565b606091505b5091509150611b6687838387611b71565b979650505050505050565b60608315611bfa578251600003611bf3576001600160a01b0385163b611bf3576040517f08c379a000000000000000000000000000000000000000000000000000000000815260206004820152601d60248201527f416464726573733a2063616c6c20746f206e6f6e2d636f6e747261637400000060448201526064016104c8565b5081611a5d565b611a5d8383815115611c0f5781518083602001fd5b806040517f08c379a00000000000000000000000000000000000000000000000000000000081526004016104c89190611c93565b60005b83811015611c5e578181015183820152602001611c46565b50506000910152565b60008151808452611c7f816020860160208601611c43565b601f01601f19169290920160200192915050565b6020815260006109cf6020830184611c67565b803567ffffffffffffffff81168114611cbe57600080fd5b919050565b7f4e487b7100000000000000000000000000000000000000000000000000000000600052604160045260246000fd5b6040805190810167ffffffffffffffff81118282101715611d1557611d15611cc3565b60405290565b60405160a0810167ffffffffffffffff81118282101715611d1557611d15611cc3565b604051601f8201601f1916810167ffffffffffffffff81118282101715611d6757611d67611cc3565b604052919050565b600082601f830112611d8057600080fd5b813567ffffffffffffffff811115611d9a57611d9a611cc3565b611dad6020601f19601f84011601611d3e565b818152846020838601011115611dc257600080fd5b816020850160208301376000918101602001919091529392505050565b600067ffffffffffffffff821115611df957611df9611cc3565b5060051b60200190565b6001600160a01b03811681146112e457600080fd5b8035611cbe81611e03565b600082601f830112611e3457600080fd5b81356020611e49611e4483611ddf565b611d3e565b82815260069290921b84018101918181019086841115611e6857600080fd5b8286015b84811015611eb05760408189031215611e855760008081fd5b611e8d611cf2565b8135611e9881611e03565b81528185013585820152835291830191604001611e6c565b509695505050505050565b60008060408385031215611ece57600080fd5b611ed783611ca6565b9150602083013567ffffffffffffffff80821115611ef457600080fd5b9084019060a08287031215611f0857600080fd5b611f10611d1b565b823582811115611f1f57600080fd5b611f2b88828601611d6f565b825250602083013582811115611f4057600080fd5b611f4c88828601611d6f565b602083015250604083013582811115611f6457600080fd5b611f7088828601611e23565b604083015250611f8260608401611e18565b6060820152608083013582811115611f9957600080fd5b611fa588828601611d6f565b6080830152508093505050509250929050565b60008060008060808587031215611fce57600080fd5b843567ffffffffffffffff811115611fe557600080fd5b850160a08188031215611ff757600080fd5b9350602085013561ffff8116811461200e57600080fd5b925060408501359150606085013561202581611e03565b939692955090935050565b8215158152604060208201526000611a5d6040830184611c67565b60006020828403121561205d57600080fd5b81356109cf81611e03565b60008060006060848603121561207d57600080fd5b833561208881611e03565b9250602084013561209881611e03565b929592945050506040919091013590565b600080604083850312156120bc57600080fd5b6120c583611ca6565b915060208301356120d581611e03565b809150509250929050565b602080825282518282018190526000919060409081850190868401855b82811015612135578151805167ffffffffffffffff1685528601516001600160a01b03168685015292840192908501906001016120fd565b5091979650505050505050565b60006020828403121561215457600080fd5b6109cf82611ca6565b60008083601f84011261216f57600080fd5b50813567ffffffffffffffff81111561218757600080fd5b6020830191508360208260061b85010111156121a257600080fd5b9250929050565b600080600080600080606087890312156121c257600080fd5b863567ffffffffffffffff808211156121da57600080fd5b6121e68a838b0161215d565b909850965060208901359150808211156121ff57600080fd5b61220b8a838b0161215d565b9096509450604089013591508082111561222457600080fd5b5061223189828a0161215d565b979a9699509497509295939492505050565b6020808252825182820181905260009190848201906040850190845b818110156122845783516001600160a01b03168352928401929184019160010161225f565b50909695505050505050565b6000815160a084526122a560a0850182611c67565b9050602080840151858303828701526122be8382611c67565b60408681015188830389830152805180845290850195509092506000918401905b8083101561231157855180516001600160a01b03168352850151858301529484019460019290920191908301906122df565b506060870151945061232e60608901866001600160a01b03169052565b6080870151945087810360808901526123478186611c67565b98975050505050505050565b67ffffffffffffffff83168152604060208201526000611a5d6040830184612290565b60006020828403121561238857600080fd5b5051919050565b6000602082840312156123a157600080fd5b815180151581146109cf57600080fd5b60008083357fffffffffffffffffffffffffffffffffffffffffffffffffffffffffffffffe18436030181126123e657600080fd5b830160208101925035905067ffffffffffffffff81111561240657600080fd5b8036038213156121a257600080fd5b818352818160208501375060006020828401015260006020601f19601f840116840101905092915050565b8183526000602080850194508260005b8581101561248857813561246381611e03565b6001600160a01b03168752818301358388015260409687019690910190600101612450565b509495945050505050565b602081528135602082015260006124ac60208401611ca6565b67ffffffffffffffff80821660408501526124ca60408601866123b1565b925060a060608601526124e160c086018483612415565b9250506124f160608601866123b1565b601f1980878603016080880152612509858385612415565b9450608088013592507fffffffffffffffffffffffffffffffffffffffffffffffffffffffffffffffe188360301831261254257600080fd5b6020928801928301923591508382111561255b57600080fd5b8160061b360383131561256d57600080fd5b8685030160a0870152611b66848284612440565b7f4e487b7100000000000000000000000000000000000000000000000000000000600052603260045260246000fd5b6000602082840312156125c257600080fd5b81516109cf81611e03565b7f4e487b7100000000000000000000000000000000000000000000000000000000600052601160045260246000fd5b60007fffffffffffffffffffffffffffffffffffffffffffffffffffffffffffffffff820361262d5761262d6125cd565b5060010190565b67ffffffffffffffff851681526080602082015260006126576080830186612290565b90508360408301526001600160a01b038316606083015295945050505050565b60006040828403121561268957600080fd5b612691611cf2565b61269a83611ca6565b815260208301356126aa81611e03565b60208201529392505050565b600060208083850312156126c957600080fd5b825167ffffffffffffffff8111156126e057600080fd5b8301601f810185136126f157600080fd5b80516126ff611e4482611ddf565b81815260059190911b8201830190838101908783111561271e57600080fd5b928401925b82841015611b6657835161273681611e03565b82529284019290840190612723565b8082018082111561055d5761055d6125cd565b8181038181111561055d5761055d6125cd565b7f4e487b7100000000000000000000000000000000000000000000000000000000600052603160045260246000fd5b600082516127ac818460208701611c43565b919091019291505056fea164736f6c6343000815000a",
    "linkReferences": {}
  },
  "methodIdentifiers": {
    "MAX_RET_BYTES()": "787350e3",
    "acceptOwnership()": "79ba5097",
    "applyRampUpdates((uint64,address)[],(uint64,address)[],(uint64,address)[])": "da5fcac8",
    "ccipSend(uint64,(bytes,bytes,(address,uint256)[],address,bytes))": "96f4e9f9",
    "getArmProxy()": "5246492f",
    "getFee(uint64,(bytes,bytes,(address,uint256)[],address,bytes))": "20487ded",
    "getOffRamps()": "a40e69c7",
    "getOnRamp(uint64)": "a8d87a3b",
    "getSupportedTokens(uint64)": "fbca3b74",
    "getWrappedNative()": "e861e907",
    "isChainSupported(uint64)": "a48a9058",
    "isOffRamp(uint64,address)": "83826b2b",
    "owner()": "8da5cb5b",
    "recoverTokens(address,address,uint256)": "5f3e849f",
    "routeMessage((bytes32,uint64,bytes,bytes,(address,uint256)[]),uint16,uint256,address)": "3cf97983",
    "setWrappedNative(address)": "52cb60ca",
    "transferOwnership(address)": "f2fde38b",
    "typeAndVersion()": "181f5a77"
  },
  "id": 103
}