{
  "abi": [
    {
      "inputs": [
        {
          "internalType": "uint256",
          "name": "preOpGas",
          "type": "uint256"
        },
        {
          "internalType": "uint256",
          "name": "paid",
          "type": "uint256"
        },
        {
          "internalType": "uint48",
          "name": "validAfter",
          "type": "uint48"
        },
        {
          "internalType": "uint48",
          "name": "validUntil",
          "type": "uint48"
        },
        {
          "internalType": "bool",
          "name": "targetSuccess",
          "type": "bool"
        },
        {
          "internalType": "bytes",
          "name": "targetResult",
          "type": "bytes"
        }
      ],
      "name": "ExecutionResult",
      "type": "error"
    },
    {
      "inputs": [
        {
          "internalType": "uint256",
          "name": "opIndex",
          "type": "uint256"
        },
        {
          "internalType": "string",
          "name": "reason",
          "type": "string"
        }
      ],
      "name": "FailedOp",
      "type": "error"
    },
    {
      "inputs": [
        {
          "internalType": "address",
          "name": "sender",
          "type": "address"
        }
      ],
      "name": "SenderAddressResult",
      "type": "error"
    },
    {
      "inputs": [
        {
          "internalType": "address",
          "name": "aggregator",
          "type": "address"
        }
      ],
      "name": "SignatureValidationFailed",
      "type": "error"
    },
    {
      "inputs": [
        {
          "components": [
            {
              "internalType": "uint256",
              "name": "preOpGas",
              "type": "uint256"
            },
            {
              "internalType": "uint256",
              "name": "prefund",
              "type": "uint256"
            },
            {
              "internalType": "bool",
              "name": "sigFailed",
              "type": "bool"
            },
            {
              "internalType": "uint48",
              "name": "validAfter",
              "type": "uint48"
            },
            {
              "internalType": "uint48",
              "name": "validUntil",
              "type": "uint48"
            },
            {
              "internalType": "bytes",
              "name": "paymasterContext",
              "type": "bytes"
            }
          ],
          "internalType": "struct IEntryPoint.ReturnInfo",
          "name": "returnInfo",
          "type": "tuple"
        },
        {
          "components": [
            {
              "internalType": "uint256",
              "name": "stake",
              "type": "uint256"
            },
            {
              "internalType": "uint256",
              "name": "unstakeDelaySec",
              "type": "uint256"
            }
          ],
          "internalType": "struct IStakeManager.StakeInfo",
          "name": "senderInfo",
          "type": "tuple"
        },
        {
          "components": [
            {
              "internalType": "uint256",
              "name": "stake",
              "type": "uint256"
            },
            {
              "internalType": "uint256",
              "name": "unstakeDelaySec",
              "type": "uint256"
            }
          ],
          "internalType": "struct IStakeManager.StakeInfo",
          "name": "factoryInfo",
          "type": "tuple"
        },
        {
          "components": [
            {
              "internalType": "uint256",
              "name": "stake",
              "type": "uint256"
            },
            {
              "internalType": "uint256",
              "name": "unstakeDelaySec",
              "type": "uint256"
            }
          ],
          "internalType": "struct IStakeManager.StakeInfo",
          "name": "paymasterInfo",
          "type": "tuple"
        }
      ],
      "name": "ValidationResult",
      "type": "error"
    },
    {
      "inputs": [
        {
          "components": [
            {
              "internalType": "uint256",
              "name": "preOpGas",
              "type": "uint256"
            },
            {
              "internalType": "uint256",
              "name": "prefund",
              "type": "uint256"
            },
            {
              "internalType": "bool",
              "name": "sigFailed",
              "type": "bool"
            },
            {
              "internalType": "uint48",
              "name": "validAfter",
              "type": "uint48"
            },
            {
              "internalType": "uint48",
              "name": "validUntil",
              "type": "uint48"
            },
            {
              "internalType": "bytes",
              "name": "paymasterContext",
              "type": "bytes"
            }
          ],
          "internalType": "struct IEntryPoint.ReturnInfo",
          "name": "returnInfo",
          "type": "tuple"
        },
        {
          "components": [
            {
              "internalType": "uint256",
              "name": "stake",
              "type": "uint256"
            },
            {
              "internalType": "uint256",
              "name": "unstakeDelaySec",
              "type": "uint256"
            }
          ],
          "internalType": "struct IStakeManager.StakeInfo",
          "name": "senderInfo",
          "type": "tuple"
        },
        {
          "components": [
            {
              "internalType": "uint256",
              "name": "stake",
              "type": "uint256"
            },
            {
              "internalType": "uint256",
              "name": "unstakeDelaySec",
              "type": "uint256"
            }
          ],
          "internalType": "struct IStakeManager.StakeInfo",
          "name": "factoryInfo",
          "type": "tuple"
        },
        {
          "components": [
            {
              "internalType": "uint256",
              "name": "stake",
              "type": "uint256"
            },
            {
              "internalType": "uint256",
              "name": "unstakeDelaySec",
              "type": "uint256"
            }
          ],
          "internalType": "struct IStakeManager.StakeInfo",
          "name": "paymasterInfo",
          "type": "tuple"
        },
        {
          "components": [
            {
              "internalType": "address",
              "name": "aggregator",
              "type": "address"
            },
            {
              "components": [
                {
                  "internalType": "uint256",
                  "name": "stake",
                  "type": "uint256"
                },
                {
                  "internalType": "uint256",
                  "name": "unstakeDelaySec",
                  "type": "uint256"
                }
              ],
              "internalType": "struct IStakeManager.StakeInfo",
              "name": "stakeInfo",
              "type": "tuple"
            }
          ],
          "internalType": "struct IEntryPoint.AggregatorStakeInfo",
          "name": "aggregatorInfo",
          "type": "tuple"
        }
      ],
      "name": "ValidationResultWithAggregation",
      "type": "error"
    },
    {
      "anonymous": false,
      "inputs": [
        {
          "indexed": true,
          "internalType": "bytes32",
          "name": "userOpHash",
          "type": "bytes32"
        },
        {
          "indexed": true,
          "internalType": "address",
          "name": "sender",
          "type": "address"
        },
        {
          "indexed": false,
          "internalType": "address",
          "name": "factory",
          "type": "address"
        },
        {
          "indexed": false,
          "internalType": "address",
          "name": "paymaster",
          "type": "address"
        }
      ],
      "name": "AccountDeployed",
      "type": "event"
    },
    {
      "anonymous": false,
      "inputs": [
        {
          "indexed": true,
          "internalType": "address",
          "name": "account",
          "type": "address"
        },
        {
          "indexed": false,
          "internalType": "uint256",
          "name": "totalDeposit",
          "type": "uint256"
        }
      ],
      "name": "Deposited",
      "type": "event"
    },
    {
      "anonymous": false,
      "inputs": [
        {
          "indexed": true,
          "internalType": "address",
          "name": "aggregator",
          "type": "address"
        }
      ],
      "name": "SignatureAggregatorChanged",
      "type": "event"
    },
    {
      "anonymous": false,
      "inputs": [
        {
          "indexed": true,
          "internalType": "address",
          "name": "account",
          "type": "address"
        },
        {
          "indexed": false,
          "internalType": "uint256",
          "name": "totalStaked",
          "type": "uint256"
        },
        {
          "indexed": false,
          "internalType": "uint256",
          "name": "unstakeDelaySec",
          "type": "uint256"
        }
      ],
      "name": "StakeLocked",
      "type": "event"
    },
    {
      "anonymous": false,
      "inputs": [
        {
          "indexed": true,
          "internalType": "address",
          "name": "account",
          "type": "address"
        },
        {
          "indexed": false,
          "internalType": "uint256",
          "name": "withdrawTime",
          "type": "uint256"
        }
      ],
      "name": "StakeUnlocked",
      "type": "event"
    },
    {
      "anonymous": false,
      "inputs": [
        {
          "indexed": true,
          "internalType": "address",
          "name": "account",
          "type": "address"
        },
        {
          "indexed": false,
          "internalType": "address",
          "name": "withdrawAddress",
          "type": "address"
        },
        {
          "indexed": false,
          "internalType": "uint256",
          "name": "amount",
          "type": "uint256"
        }
      ],
      "name": "StakeWithdrawn",
      "type": "event"
    },
    {
      "anonymous": false,
      "inputs": [
        {
          "indexed": true,
          "internalType": "bytes32",
          "name": "userOpHash",
          "type": "bytes32"
        },
        {
          "indexed": true,
          "internalType": "address",
          "name": "sender",
          "type": "address"
        },
        {
          "indexed": true,
          "internalType": "address",
          "name": "paymaster",
          "type": "address"
        },
        {
          "indexed": false,
          "internalType": "uint256",
          "name": "nonce",
          "type": "uint256"
        },
        {
          "indexed": false,
          "internalType": "bool",
          "name": "success",
          "type": "bool"
        },
        {
          "indexed": false,
          "internalType": "uint256",
          "name": "actualGasCost",
          "type": "uint256"
        },
        {
          "indexed": false,
          "internalType": "uint256",
          "name": "actualGasUsed",
          "type": "uint256"
        }
      ],
      "name": "UserOperationEvent",
      "type": "event"
    },
    {
      "anonymous": false,
      "inputs": [
        {
          "indexed": true,
          "internalType": "bytes32",
          "name": "userOpHash",
          "type": "bytes32"
        },
        {
          "indexed": true,
          "internalType": "address",
          "name": "sender",
          "type": "address"
        },
        {
          "indexed": false,
          "internalType": "uint256",
          "name": "nonce",
          "type": "uint256"
        },
        {
          "indexed": false,
          "internalType": "bytes",
          "name": "revertReason",
          "type": "bytes"
        }
      ],
      "name": "UserOperationRevertReason",
      "type": "event"
    },
    {
      "anonymous": false,
      "inputs": [
        {
          "indexed": true,
          "internalType": "address",
          "name": "account",
          "type": "address"
        },
        {
          "indexed": false,
          "internalType": "address",
          "name": "withdrawAddress",
          "type": "address"
        },
        {
          "indexed": false,
          "internalType": "uint256",
          "name": "amount",
          "type": "uint256"
        }
      ],
      "name": "Withdrawn",
      "type": "event"
    },
    {
      "inputs": [],
      "name": "SIG_VALIDATION_FAILED",
      "outputs": [
        {
          "internalType": "uint256",
          "name": "",
          "type": "uint256"
        }
      ],
      "stateMutability": "view",
      "type": "function"
    },
    {
      "inputs": [
        {
          "internalType": "bytes",
          "name": "initCode",
          "type": "bytes"
        },
        {
          "internalType": "address",
          "name": "sender",
          "type": "address"
        },
        {
          "internalType": "bytes",
          "name": "paymasterAndData",
          "type": "bytes"
        }
      ],
      "name": "_validateSenderAndPaymaster",
      "outputs": [],
      "stateMutability": "view",
      "type": "function"
    },
    {
      "inputs": [
        {
          "internalType": "uint32",
          "name": "unstakeDelaySec",
          "type": "uint32"
        }
      ],
      "name": "addStake",
      "outputs": [],
      "stateMutability": "payable",
      "type": "function"
    },
    {
      "inputs": [
        {
          "internalType": "address",
          "name": "account",
          "type": "address"
        }
      ],
      "name": "balanceOf",
      "outputs": [
        {
          "internalType": "uint256",
          "name": "",
          "type": "uint256"
        }
      ],
      "stateMutability": "view",
      "type": "function"
    },
    {
      "inputs": [
        {
          "internalType": "address",
          "name": "account",
          "type": "address"
        }
      ],
      "name": "depositTo",
      "outputs": [],
      "stateMutability": "payable",
      "type": "function"
    },
    {
      "inputs": [
        {
          "internalType": "address",
          "name": "",
          "type": "address"
        }
      ],
      "name": "deposits",
      "outputs": [
        {
          "internalType": "uint112",
          "name": "deposit",
          "type": "uint112"
        },
        {
          "internalType": "bool",
          "name": "staked",
          "type": "bool"
        },
        {
          "internalType": "uint112",
          "name": "stake",
          "type": "uint112"
        },
        {
          "internalType": "uint32",
          "name": "unstakeDelaySec",
          "type": "uint32"
        },
        {
          "internalType": "uint48",
          "name": "withdrawTime",
          "type": "uint48"
        }
      ],
      "stateMutability": "view",
      "type": "function"
    },
    {
      "inputs": [
        {
          "internalType": "address",
          "name": "account",
          "type": "address"
        }
      ],
      "name": "getDepositInfo",
      "outputs": [
        {
          "components": [
            {
              "internalType": "uint112",
              "name": "deposit",
              "type": "uint112"
            },
            {
              "internalType": "bool",
              "name": "staked",
              "type": "bool"
            },
            {
              "internalType": "uint112",
              "name": "stake",
              "type": "uint112"
            },
            {
              "internalType": "uint32",
              "name": "unstakeDelaySec",
              "type": "uint32"
            },
            {
              "internalType": "uint48",
              "name": "withdrawTime",
              "type": "uint48"
            }
          ],
          "internalType": "struct IStakeManager.DepositInfo",
          "name": "info",
          "type": "tuple"
        }
      ],
      "stateMutability": "view",
      "type": "function"
    },
    {
      "inputs": [
        {
          "internalType": "bytes",
          "name": "initCode",
          "type": "bytes"
        }
      ],
      "name": "getSenderAddress",
      "outputs": [],
      "stateMutability": "nonpayable",
      "type": "function"
    },
    {
      "inputs": [
        {
          "components": [
            {
              "internalType": "address",
              "name": "sender",
              "type": "address"
            },
            {
              "internalType": "uint256",
              "name": "nonce",
              "type": "uint256"
            },
            {
              "internalType": "bytes",
              "name": "initCode",
              "type": "bytes"
            },
            {
              "internalType": "bytes",
              "name": "callData",
              "type": "bytes"
            },
            {
              "internalType": "uint256",
              "name": "callGasLimit",
              "type": "uint256"
            },
            {
              "internalType": "uint256",
              "name": "verificationGasLimit",
              "type": "uint256"
            },
            {
              "internalType": "uint256",
              "name": "preVerificationGas",
              "type": "uint256"
            },
            {
              "internalType": "uint256",
              "name": "maxFeePerGas",
              "type": "uint256"
            },
            {
              "internalType": "uint256",
              "name": "maxPriorityFeePerGas",
              "type": "uint256"
            },
            {
              "internalType": "bytes",
              "name": "paymasterAndData",
              "type": "bytes"
            },
            {
              "internalType": "bytes",
              "name": "signature",
              "type": "bytes"
            }
          ],
          "internalType": "struct UserOperation",
          "name": "userOp",
          "type": "tuple"
        }
      ],
      "name": "getUserOpHash",
      "outputs": [
        {
          "internalType": "bytes32",
          "name": "",
          "type": "bytes32"
        }
      ],
      "stateMutability": "view",
      "type": "function"
    },
    {
      "inputs": [
        {
          "components": [
            {
              "components": [
                {
                  "internalType": "address",
                  "name": "sender",
                  "type": "address"
                },
                {
                  "internalType": "uint256",
                  "name": "nonce",
                  "type": "uint256"
                },
                {
                  "internalType": "bytes",
                  "name": "initCode",
                  "type": "bytes"
                },
                {
                  "internalType": "bytes",
                  "name": "callData",
                  "type": "bytes"
                },
                {
                  "internalType": "uint256",
                  "name": "callGasLimit",
                  "type": "uint256"
                },
                {
                  "internalType": "uint256",
                  "name": "verificationGasLimit",
                  "type": "uint256"
                },
                {
                  "internalType": "uint256",
                  "name": "preVerificationGas",
                  "type": "uint256"
                },
                {
                  "internalType": "uint256",
                  "name": "maxFeePerGas",
                  "type": "uint256"
                },
                {
                  "internalType": "uint256",
                  "name": "maxPriorityFeePerGas",
                  "type": "uint256"
                },
                {
                  "internalType": "bytes",
                  "name": "paymasterAndData",
                  "type": "bytes"
                },
                {
                  "internalType": "bytes",
                  "name": "signature",
                  "type": "bytes"
                }
              ],
              "internalType": "struct UserOperation[]",
              "name": "userOps",
              "type": "tuple[]"
            },
            {
              "internalType": "contract IAggregator",
              "name": "aggregator",
              "type": "address"
            },
            {
              "internalType": "bytes",
              "name": "signature",
              "type": "bytes"
            }
          ],
          "internalType": "struct IEntryPoint.UserOpsPerAggregator[]",
          "name": "opsPerAggregator",
          "type": "tuple[]"
        },
        {
          "internalType": "address payable",
          "name": "beneficiary",
          "type": "address"
        }
      ],
      "name": "handleAggregatedOps",
      "outputs": [],
      "stateMutability": "nonpayable",
      "type": "function"
    },
    {
      "inputs": [
        {
          "components": [
            {
              "internalType": "address",
              "name": "sender",
              "type": "address"
            },
            {
              "internalType": "uint256",
              "name": "nonce",
              "type": "uint256"
            },
            {
              "internalType": "bytes",
              "name": "initCode",
              "type": "bytes"
            },
            {
              "internalType": "bytes",
              "name": "callData",
              "type": "bytes"
            },
            {
              "internalType": "uint256",
              "name": "callGasLimit",
              "type": "uint256"
            },
            {
              "internalType": "uint256",
              "name": "verificationGasLimit",
              "type": "uint256"
            },
            {
              "internalType": "uint256",
              "name": "preVerificationGas",
              "type": "uint256"
            },
            {
              "internalType": "uint256",
              "name": "maxFeePerGas",
              "type": "uint256"
            },
            {
              "internalType": "uint256",
              "name": "maxPriorityFeePerGas",
              "type": "uint256"
            },
            {
              "internalType": "bytes",
              "name": "paymasterAndData",
              "type": "bytes"
            },
            {
              "internalType": "bytes",
              "name": "signature",
              "type": "bytes"
            }
          ],
          "internalType": "struct UserOperation[]",
          "name": "ops",
          "type": "tuple[]"
        },
        {
          "internalType": "address payable",
          "name": "beneficiary",
          "type": "address"
        }
      ],
      "name": "handleOps",
      "outputs": [],
      "stateMutability": "nonpayable",
      "type": "function"
    },
    {
      "inputs": [
        {
          "internalType": "bytes",
          "name": "callData",
          "type": "bytes"
        },
        {
          "components": [
            {
              "components": [
                {
                  "internalType": "address",
                  "name": "sender",
                  "type": "address"
                },
                {
                  "internalType": "uint256",
                  "name": "nonce",
                  "type": "uint256"
                },
                {
                  "internalType": "uint256",
                  "name": "callGasLimit",
                  "type": "uint256"
                },
                {
                  "internalType": "uint256",
                  "name": "verificationGasLimit",
                  "type": "uint256"
                },
                {
                  "internalType": "uint256",
                  "name": "preVerificationGas",
                  "type": "uint256"
                },
                {
                  "internalType": "address",
                  "name": "paymaster",
                  "type": "address"
                },
                {
                  "internalType": "uint256",
                  "name": "maxFeePerGas",
                  "type": "uint256"
                },
                {
                  "internalType": "uint256",
                  "name": "maxPriorityFeePerGas",
                  "type": "uint256"
                }
              ],
              "internalType": "struct EntryPoint.MemoryUserOp",
              "name": "mUserOp",
              "type": "tuple"
            },
            {
              "internalType": "bytes32",
              "name": "userOpHash",
              "type": "bytes32"
            },
            {
              "internalType": "uint256",
              "name": "prefund",
              "type": "uint256"
            },
            {
              "internalType": "uint256",
              "name": "contextOffset",
              "type": "uint256"
            },
            {
              "internalType": "uint256",
              "name": "preOpGas",
              "type": "uint256"
            }
          ],
          "internalType": "struct EntryPoint.UserOpInfo",
          "name": "opInfo",
          "type": "tuple"
        },
        {
          "internalType": "bytes",
          "name": "context",
          "type": "bytes"
        }
      ],
      "name": "innerHandleOp",
      "outputs": [
        {
          "internalType": "uint256",
          "name": "actualGasCost",
          "type": "uint256"
        }
      ],
      "stateMutability": "nonpayable",
      "type": "function"
    },
    {
      "inputs": [
        {
          "components": [
            {
              "internalType": "address",
              "name": "sender",
              "type": "address"
            },
            {
              "internalType": "uint256",
              "name": "nonce",
              "type": "uint256"
            },
            {
              "internalType": "bytes",
              "name": "initCode",
              "type": "bytes"
            },
            {
              "internalType": "bytes",
              "name": "callData",
              "type": "bytes"
            },
            {
              "internalType": "uint256",
              "name": "callGasLimit",
              "type": "uint256"
            },
            {
              "internalType": "uint256",
              "name": "verificationGasLimit",
              "type": "uint256"
            },
            {
              "internalType": "uint256",
              "name": "preVerificationGas",
              "type": "uint256"
            },
            {
              "internalType": "uint256",
              "name": "maxFeePerGas",
              "type": "uint256"
            },
            {
              "internalType": "uint256",
              "name": "maxPriorityFeePerGas",
              "type": "uint256"
            },
            {
              "internalType": "bytes",
              "name": "paymasterAndData",
              "type": "bytes"
            },
            {
              "internalType": "bytes",
              "name": "signature",
              "type": "bytes"
            }
          ],
          "internalType": "struct UserOperation",
          "name": "op",
          "type": "tuple"
        },
        {
          "internalType": "address",
          "name": "target",
          "type": "address"
        },
        {
          "internalType": "bytes",
          "name": "targetCallData",
          "type": "bytes"
        }
      ],
      "name": "simulateHandleOp",
      "outputs": [],
      "stateMutability": "nonpayable",
      "type": "function"
    },
    {
      "inputs": [
        {
          "components": [
            {
              "internalType": "address",
              "name": "sender",
              "type": "address"
            },
            {
              "internalType": "uint256",
              "name": "nonce",
              "type": "uint256"
            },
            {
              "internalType": "bytes",
              "name": "initCode",
              "type": "bytes"
            },
            {
              "internalType": "bytes",
              "name": "callData",
              "type": "bytes"
            },
            {
              "internalType": "uint256",
              "name": "callGasLimit",
              "type": "uint256"
            },
            {
              "internalType": "uint256",
              "name": "verificationGasLimit",
              "type": "uint256"
            },
            {
              "internalType": "uint256",
              "name": "preVerificationGas",
              "type": "uint256"
            },
            {
              "internalType": "uint256",
              "name": "maxFeePerGas",
              "type": "uint256"
            },
            {
              "internalType": "uint256",
              "name": "maxPriorityFeePerGas",
              "type": "uint256"
            },
            {
              "internalType": "bytes",
              "name": "paymasterAndData",
              "type": "bytes"
            },
            {
              "internalType": "bytes",
              "name": "signature",
              "type": "bytes"
            }
          ],
          "internalType": "struct UserOperation",
          "name": "userOp",
          "type": "tuple"
        }
      ],
      "name": "simulateValidation",
      "outputs": [],
      "stateMutability": "nonpayable",
      "type": "function"
    },
    {
      "inputs": [],
      "name": "unlockStake",
      "outputs": [],
      "stateMutability": "nonpayable",
      "type": "function"
    },
    {
      "inputs": [
        {
          "internalType": "address payable",
          "name": "withdrawAddress",
          "type": "address"
        }
      ],
      "name": "withdrawStake",
      "outputs": [],
      "stateMutability": "nonpayable",
      "type": "function"
    },
    {
      "inputs": [
        {
          "internalType": "address payable",
          "name": "withdrawAddress",
          "type": "address"
        },
        {
          "internalType": "uint256",
          "name": "withdrawAmount",
          "type": "uint256"
        }
      ],
      "name": "withdrawTo",
      "outputs": [],
      "stateMutability": "nonpayable",
      "type": "function"
    },
    {
      "stateMutability": "payable",
      "type": "receive"
    }
  ],
  "bytecode": {
    "object": "0x60a0604052604051620000129062000050565b604051809103906000f0801580156200002f573d6000803e3d6000fd5b506001600160a01b03166080523480156200004957600080fd5b506200005e565b61020a80620042bc83390190565b60805161423b62000081600039600081816112a70152612f62015261423b6000f3fe6080604052600436106101125760003560e01c8063957122ab116100a5578063bb9fe6bf11610074578063d6383f9411610059578063d6383f9414610412578063ee21942314610432578063fc7e286d1461045257600080fd5b8063bb9fe6bf146103dd578063c23a5cea146103f257600080fd5b8063957122ab1461036a5780639b249f691461038a578063a6193531146103aa578063b760faf9146103ca57600080fd5b80634b1d7cf5116100e15780634b1d7cf5146101ad5780635287ce12146101cd57806370a082311461030f5780638f41ec5a1461035557600080fd5b80630396cb60146101275780631d7327561461013a5780631fad948c1461016d578063205c28781461018d57600080fd5b36610122576101203361052c565b005b600080fd5b610120610135366004613222565b61059a565b34801561014657600080fd5b5061015a610155366004613450565b6108b5565b6040519081526020015b60405180910390f35b34801561017957600080fd5b5061012061018836600461355b565b610a41565b34801561019957600080fd5b506101206101a83660046135b2565b610b82565b3480156101b957600080fd5b506101206101c836600461355b565b610d36565b3480156101d957600080fd5b506102b06101e83660046135de565b6040805160a081018252600080825260208201819052918101829052606081018290526080810191909152506001600160a01b031660009081526020818152604091829020825160a08101845281546dffffffffffffffffffffffffffff80821683526e010000000000000000000000000000820460ff161515948301949094526f0100000000000000000000000000000090049092169282019290925260019091015463ffffffff81166060830152640100000000900465ffffffffffff16608082015290565b6040805182516dffffffffffffffffffffffffffff908116825260208085015115159083015283830151169181019190915260608083015163ffffffff169082015260809182015165ffffffffffff169181019190915260a001610164565b34801561031b57600080fd5b5061015a61032a3660046135de565b6001600160a01b03166000908152602081905260409020546dffffffffffffffffffffffffffff1690565b34801561036157600080fd5b5061015a600181565b34801561037657600080fd5b506101206103853660046135fb565b61117a565b34801561039657600080fd5b506101206103a5366004613680565b611277565b3480156103b657600080fd5b5061015a6103c53660046136db565b61135f565b6101206103d83660046135de565b61052c565b3480156103e957600080fd5b506101206113a1565b3480156103fe57600080fd5b5061012061040d3660046135de565b611524565b34801561041e57600080fd5b5061012061042d366004613710565b6117a2565b34801561043e57600080fd5b5061012061044d3660046136db565b6118b6565b34801561045e57600080fd5b506104df61046d3660046135de565b600060208190529081526040902080546001909101546dffffffffffffffffffffffffffff808316926e010000000000000000000000000000810460ff16926f010000000000000000000000000000009091049091169063ffffffff811690640100000000900465ffffffffffff1685565b604080516dffffffffffffffffffffffffffff96871681529415156020860152929094169183019190915263ffffffff16606082015265ffffffffffff909116608082015260a001610164565b6105368134611bc3565b6001600160a01b03811660008181526020818152604091829020805492516dffffffffffffffffffffffffffff909316835292917f2da466a7b24304f47e87fa2e1e5a81b9831ce54fec19055ce277ca2f39ba42c491015b60405180910390a25050565b33600090815260208190526040902063ffffffff82166106015760405162461bcd60e51b815260206004820152601a60248201527f6d757374207370656369667920756e7374616b652064656c617900000000000060448201526064015b60405180910390fd5b600181015463ffffffff908116908316101561065f5760405162461bcd60e51b815260206004820152601c60248201527f63616e6e6f7420646563726561736520756e7374616b652074696d650000000060448201526064016105f8565b80546000906106929034906f0100000000000000000000000000000090046dffffffffffffffffffffffffffff166137a1565b9050600081116106e45760405162461bcd60e51b815260206004820152601260248201527f6e6f207374616b6520737065636966696564000000000000000000000000000060448201526064016105f8565b6dffffffffffffffffffffffffffff8111156107425760405162461bcd60e51b815260206004820152600e60248201527f7374616b65206f766572666c6f7700000000000000000000000000000000000060448201526064016105f8565b6040805160a08101825283546dffffffffffffffffffffffffffff90811682526001602080840182815286841685870190815263ffffffff808b16606088019081526000608089018181523380835296829052908a9020985189549551945189166f01000000000000000000000000000000027fffffff0000000000000000000000000000ffffffffffffffffffffffffffffff9515156e010000000000000000000000000000027fffffffffffffffffffffffffffffffffff0000000000000000000000000000009097169190991617949094179290921695909517865551949092018054925165ffffffffffff16640100000000027fffffffffffffffffffffffffffffffffffffffffffff00000000000000000000909316949093169390931717905590517fa5ae833d0bb1dcd632d98a8b70973e8516812898e19bf27b70071ebc8dc52c01906108a8908490879091825263ffffffff16602082015260400190565b60405180910390a2505050565b6000805a905033301461090a5760405162461bcd60e51b815260206004820152601760248201527f4141393220696e7465726e616c2063616c6c206f6e6c7900000000000000000060448201526064016105f8565b8451604081015160608201518101611388015a101561094d577fdeaddead0000000000000000000000000000000000000000000000000000000060005260206000fd5b8751600090156109e157600061096a846000015160008c86611c99565b9050806109df57600061097e610800611cb1565b8051909150156109d95784600001516001600160a01b03168a602001517f1c4fada7374c0a9ee8841fc38afe82932dc0f8e69012e927f061a8bae611a2018760200151846040516109d0929190613804565b60405180910390a35b60019250505b505b600088608001515a8603019050610a336000838b8b8b8080601f016020809104026020016040519081016040528093929190818152602001838380828437600092019190915250889250611cdd915050565b9a9950505050505050505050565b8160008167ffffffffffffffff811115610a5d57610a5d613248565b604051908082528060200260200182016040528015610a9657816020015b610a83613198565b815260200190600190039081610a7b5790505b50905060005b82811015610b0f576000828281518110610ab857610ab861381d565b60200260200101519050600080610af3848a8a87818110610adb57610adb61381d565b9050602002810190610aed919061384c565b85612011565b91509150610b048483836000612193565b505050600101610a9c565b506000805b83811015610b6f57610b6381888884818110610b3257610b3261381d565b9050602002810190610b44919061384c565b858481518110610b5657610b5661381d565b602002602001015161235d565b90910190600101610b14565b50610b7a84826124ab565b505050505050565b33600090815260208190526040902080546dffffffffffffffffffffffffffff16821115610bf25760405162461bcd60e51b815260206004820152601960248201527f576974686472617720616d6f756e7420746f6f206c617267650000000000000060448201526064016105f8565b8054610c0f9083906dffffffffffffffffffffffffffff1661388a565b81547fffffffffffffffffffffffffffffffffffff0000000000000000000000000000166dffffffffffffffffffffffffffff91909116178155604080516001600160a01b03851681526020810184905233917fd1c19fbcd4551a5edfb66d43d2e337c04837afda3482b42bdf569a8fccdae5fb910160405180910390a26000836001600160a01b03168360405160006040518083038185875af1925050503d8060008114610cda576040519150601f19603f3d011682016040523d82523d6000602084013e610cdf565b606091505b5050905080610d305760405162461bcd60e51b815260206004820152601260248201527f6661696c656420746f207769746864726177000000000000000000000000000060448201526064016105f8565b50505050565b816000805b82811015610ee15736868683818110610d5657610d5661381d565b9050602002810190610d68919061389d565b9050366000610d7783806138d1565b90925090506000610d8e60408501602086016135de565b90507fffffffffffffffffffffffffffffffffffffffffffffffffffffffffffffffff6001600160a01b03821601610e085760405162461bcd60e51b815260206004820152601760248201527f4141393620696e76616c69642061676772656761746f7200000000000000000060448201526064016105f8565b6001600160a01b03811615610ebe576001600160a01b03811663e3563a4f8484610e356040890189613939565b6040518563ffffffff1660e01b8152600401610e549493929190613b24565b60006040518083038186803b158015610e6c57600080fd5b505afa925050508015610e7d575060015b610ebe576040517f86a9f7500000000000000000000000000000000000000000000000000000000081526001600160a01b03821660048201526024016105f8565b610ec882876137a1565b9550505050508080610ed990613bdb565b915050610d3b565b5060008167ffffffffffffffff811115610efd57610efd613248565b604051908082528060200260200182016040528015610f3657816020015b610f23613198565b815260200190600190039081610f1b5790505b5090506000805b848110156110215736888883818110610f5857610f5861381d565b9050602002810190610f6a919061389d565b9050366000610f7983806138d1565b90925090506000610f9060408501602086016135de565b90508160005b81811015611008576000898981518110610fb257610fb261381d565b60200260200101519050600080610fd58b898987818110610adb57610adb61381d565b91509150610fe584838389612193565b8a610fef81613bdb565b9b5050505050808061100090613bdb565b915050610f96565b505050505050808061101990613bdb565b915050610f3d565b50600080915060005b8581101561113a57368989838181106110455761104561381d565b9050602002810190611057919061389d565b905061106960408201602083016135de565b6001600160a01b03167f575ff3acadd5ab348fe1855e217e0f3678f8d767d7494c9f9fefbee2e17cca4d60405160405180910390a23660006110ab83806138d1565b90925090508060005b81811015611122576110f6888585848181106110d2576110d261381d565b90506020028101906110e4919061384c565b8b8b81518110610b5657610b5661381d565b61110090886137a1565b96508761110c81613bdb565b985050808061111a90613bdb565b9150506110b4565b5050505050808061113290613bdb565b91505061102a565b506040516000907f575ff3acadd5ab348fe1855e217e0f3678f8d767d7494c9f9fefbee2e17cca4d908290a261117086826124ab565b5050505050505050565b8315801561119057506001600160a01b0383163b155b156111dd5760405162461bcd60e51b815260206004820152601960248201527f41413230206163636f756e74206e6f74206465706c6f7965640000000000000060448201526064016105f8565b601481106112555760006111f46014828486613c13565b6111fd91613c3d565b60601c9050803b6000036112535760405162461bcd60e51b815260206004820152601b60248201527f41413330207061796d6173746572206e6f74206465706c6f796564000000000060448201526064016105f8565b505b60405162461bcd60e51b815260206004820152600060248201526044016105f8565b6040517f570e1a360000000000000000000000000000000000000000000000000000000081526001600160a01b037f0000000000000000000000000000000000000000000000000000000000000000169063570e1a36906112de9085908590600401613c85565b6020604051808303816000875af11580156112fd573d6000803e3d6000fd5b505050506040513d601f19601f820116820180604052508101906113219190613c99565b6040517f6ca7b8060000000000000000000000000000000000000000000000000000000081526001600160a01b0390911660048201526024016105f8565b600061136a826125a9565b6040805160208101929092523090820152466060820152608001604051602081830303815290604052805190602001209050919050565b3360009081526020819052604081206001810154909163ffffffff909116900361140d5760405162461bcd60e51b815260206004820152600a60248201527f6e6f74207374616b65640000000000000000000000000000000000000000000060448201526064016105f8565b80546e010000000000000000000000000000900460ff166114705760405162461bcd60e51b815260206004820152601160248201527f616c726561647920756e7374616b696e6700000000000000000000000000000060448201526064016105f8565b60018101546000906114889063ffffffff1642613cb6565b6001830180547fffffffffffffffffffffffffffffffffffffffffffff000000000000ffffffff1664010000000065ffffffffffff84169081029190911790915583547fffffffffffffffffffffffffffffffffff00ffffffffffffffffffffffffffff16845560405190815290915033907ffa9b3c14cc825c412c9ed81b3ba365a5b459439403f18829e572ed53a4180f0a9060200161058e565b33600090815260208190526040902080546f0100000000000000000000000000000090046dffffffffffffffffffffffffffff16806115a55760405162461bcd60e51b815260206004820152601460248201527f4e6f207374616b6520746f20776974686472617700000000000000000000000060448201526064016105f8565b6001820154640100000000900465ffffffffffff166116065760405162461bcd60e51b815260206004820152601d60248201527f6d7573742063616c6c20756e6c6f636b5374616b65282920666972737400000060448201526064016105f8565b60018201544264010000000090910465ffffffffffff16111561166b5760405162461bcd60e51b815260206004820152601b60248201527f5374616b65207769746864726177616c206973206e6f7420647565000000000060448201526064016105f8565b6001820180547fffffffffffffffffffffffffffffffffffffffffffff0000000000000000000016905581547fffffff0000000000000000000000000000ffffffffffffffffffffffffffffff168255604080516001600160a01b03851681526020810183905233917fb7c918e0e249f999e965cafeb6c664271b3f4317d296461500e71da39f0cbda3910160405180910390a26000836001600160a01b03168260405160006040518083038185875af1925050503d806000811461174c576040519150601f19603f3d011682016040523d82523d6000602084013e611751565b606091505b5050905080610d305760405162461bcd60e51b815260206004820152601860248201527f6661696c656420746f207769746864726177207374616b65000000000000000060448201526064016105f8565b6117aa613198565b6117b3856125c2565b6000806117c260008885612011565b9150915060006117d2838361269c565b90506117dd43600052565b60006117eb60008a8761235d565b90506117f643600052565b600060606001600160a01b038a161561186c57896001600160a01b03168989604051611823929190613cdc565b6000604051808303816000865af19150503d8060008114611860576040519150601f19603f3d011682016040523d82523d6000602084013e611865565b606091505b5090925090505b8660800151838560200151866040015185856040517f8b7ac9800000000000000000000000000000000000000000000000000000000081526004016105f896959493929190613cec565b6118be613198565b6118c7826125c2565b6000806118d660008585612011565b845160a00151604080518082018252600080825260208083018281526001600160a01b03958616835282825284832080546dffffffffffffffffffffffffffff6f01000000000000000000000000000000918290048116875260019283015463ffffffff9081169094528d51518851808a018a5287815280870188815291909a1687528686528887208054939093049091168952910154909116905283518085019094528184528301529395509193509036600061199760408a018a613939565b9092509050600060148210156119ae5760006119c9565b6119bc601460008486613c13565b6119c591613c3d565b60601c5b604080518082018252600080825260208083018281526001600160a01b03861683529082905292902080546f0100000000000000000000000000000090046dffffffffffffffffffffffffffff1682526001015463ffffffff1690915290915093505050506000611a3a868661269c565b9050600081600001519050600060016001600160a01b0316826001600160a01b031614905060006040518060c001604052808b6080015181526020018b6040015181526020018315158152602001856020015165ffffffffffff168152602001856040015165ffffffffffff168152602001611ab78c6060015190565b905290506001600160a01b03831615801590611add57506001600160a01b038316600114155b15611b89576040805180820182526001600160a01b03851680825282518084018452600080825260208083018281529382528181529085902080546f0100000000000000000000000000000090046dffffffffffffffffffffffffffff1683526001015463ffffffff169092529082015290517ffaecb4e40000000000000000000000000000000000000000000000000000000081526105f8908390899089908c908690600401613d8e565b808686896040517fe0cff05f0000000000000000000000000000000000000000000000000000000081526004016105f89493929190613e0e565b6001600160a01b03821660009081526020819052604081208054909190611bfb9084906dffffffffffffffffffffffffffff166137a1565b90506dffffffffffffffffffffffffffff811115611c5b5760405162461bcd60e51b815260206004820152601060248201527f6465706f736974206f766572666c6f770000000000000000000000000000000060448201526064016105f8565b81547fffffffffffffffffffffffffffffffffffff0000000000000000000000000000166dffffffffffffffffffffffffffff919091161790555050565b6000806000845160208601878987f195945050505050565b60603d82811115611cbf5750815b604051602082018101604052818152816000602083013e9392505050565b6000805a855190915060009081611cf382612769565b60a08301519091506001600160a01b038116611d125782519350611ef6565b809350600088511115611ef657868202955060028a6002811115611d3857611d38613e65565b14611dc35760608301516040517fa9a234090000000000000000000000000000000000000000000000000000000081526001600160a01b0383169163a9a2340991611d8b908e908d908c90600401613e94565b600060405180830381600088803b158015611da557600080fd5b5087f1158015611db9573d6000803e3d6000fd5b5050505050611ef6565b60608301516040517fa9a234090000000000000000000000000000000000000000000000000000000081526001600160a01b0383169163a9a2340991611e11908e908d908c90600401613e94565b600060405180830381600088803b158015611e2b57600080fd5b5087f193505050508015611e3d575060015b611ef657611e49613ef4565b806308c379a003611ea25750611e5d613f10565b80611e685750611ea4565b8b81604051602001611e7a9190613fb8565b60408051601f1981840301815290829052631101335b60e11b82526105f89291600401613804565b505b8a604051631101335b60e11b81526004016105f89181526040602082018190526012908201527f4141353020706f73744f70207265766572740000000000000000000000000000606082015260800190565b5a85038701965081870295508589604001511015611f5f578a604051631101335b60e11b81526004016105f891815260406020808301829052908201527f414135312070726566756e642062656c6f772061637475616c476173436f7374606082015260800190565b6040890151869003611f718582611bc3565b6000808c6002811115611f8657611f86613e65565b1490508460a001516001600160a01b031685600001516001600160a01b03168c602001517f49628fd1471006c1482da88028e9ce4dbb080b815c9b0344d39e5a8e6ec1419f8860200151858d8f604051611ff9949392919093845291151560208401526040830152606082015260800190565b60405180910390a45050505050505095945050505050565b60008060005a84519091506120268682612799565b61202f8661135f565b6020860152604081015160608201516080830151171760e087013517610100870135176effffffffffffffffffffffffffffff8111156120b15760405162461bcd60e51b815260206004820152601860248201527f41413934206761732076616c756573206f766572666c6f77000000000000000060448201526064016105f8565b6000806120bd84612892565b90506120cb8a8a8a846128df565b975091506120d843600052565b60a08401516060906001600160a01b031615612100576120fb8b8b8b8587612b64565b975090505b60005a87039050808b60a001351015612165578b604051631101335b60e11b81526004016105f8918152604060208201819052601e908201527f41413430206f76657220766572696669636174696f6e4761734c696d69740000606082015260800190565b60408a018390528160608b015260c08b01355a8803018a608001818152505050505050505050935093915050565b60008061219f85612da3565b91509150816001600160a01b0316836001600160a01b03161461220e5785604051631101335b60e11b81526004016105f89181526040602082018190526014908201527f41413234207369676e6174757265206572726f72000000000000000000000000606082015260800190565b80156122665785604051631101335b60e11b81526004016105f89181526040602082018190526017908201527f414132322065787069726564206f72206e6f7420647565000000000000000000606082015260800190565b600061227185612da3565b925090506001600160a01b038116156122d65786604051631101335b60e11b81526004016105f89181526040602082018190526014908201527f41413334207369676e6174757265206572726f72000000000000000000000000606082015260800190565b81156123545786604051631101335b60e11b81526004016105f89181526040602082018190526021908201527f41413332207061796d61737465722065787069726564206f72206e6f7420647560608201527f6500000000000000000000000000000000000000000000000000000000000000608082015260a00190565b50505050505050565b6000805a90506000612370846060015190565b905030631d7327566123856060880188613939565b87856040518563ffffffff1660e01b81526004016123a69493929190613ffd565b6020604051808303816000875af19250505080156123e1575060408051601f3d908101601f191682019092526123de918101906140b1565b60015b61249f57600060206000803e506000517f2152215300000000000000000000000000000000000000000000000000000000810161246a5786604051631101335b60e11b81526004016105f8918152604060208201819052600f908201527f41413935206f7574206f66206761730000000000000000000000000000000000606082015260800190565b600085608001515a61247c908661388a565b61248691906137a1565b9050612496886002888685611cdd565b945050506124a2565b92505b50509392505050565b6001600160a01b0382166125015760405162461bcd60e51b815260206004820152601860248201527f4141393020696e76616c69642062656e6566696369617279000000000000000060448201526064016105f8565b6000826001600160a01b03168260405160006040518083038185875af1925050503d806000811461254e576040519150601f19603f3d011682016040523d82523d6000602084013e612553565b606091505b50509050806125a45760405162461bcd60e51b815260206004820152601f60248201527f41413931206661696c65642073656e6420746f2062656e65666963696172790060448201526064016105f8565b505050565b60006125b482612df6565b805190602001209050919050565b3063957122ab6125d56040840184613939565b6125e260208601866135de565b6125f0610120870187613939565b6040518663ffffffff1660e01b81526004016126109594939291906140ca565b60006040518083038186803b15801561262857600080fd5b505afa925050508015612639575060015b61269957612645613ef4565b806308c379a00361268d5750612659613f10565b80612664575061268f565b80511561268957600081604051631101335b60e11b81526004016105f8929190613804565b5050565b505b3d6000803e3d6000fd5b50565b60408051606081018252600080825260208201819052918101829052906126c284612e35565b905060006126cf84612e35565b82519091506001600160a01b0381166126e6575080515b602080840151604080860151928501519085015191929165ffffffffffff8083169085161015612714578193505b8065ffffffffffff168365ffffffffffff161115612730578092505b5050604080516060810182526001600160a01b03909416845265ffffffffffff9283166020850152911690820152925050505b92915050565b60c081015160e082015160009190808203612785575092915050565b61279182488301612ea6565b949350505050565b6127a660208301836135de565b6001600160a01b0316815260208083013590820152608080830135604083015260a0830135606083015260c0808401359183019190915260e0808401359183019190915261010083013590820152366000612805610120850185613939565b909250905080156128855760148110156128615760405162461bcd60e51b815260206004820152601d60248201527f4141393320696e76616c6964207061796d6173746572416e644461746100000060448201526064016105f8565b61286f601460008385613c13565b61287891613c3d565b60601c60a0840152610d30565b600060a084015250505050565b60a081015160009081906001600160a01b03166128b05760016128b3565b60035b60ff16905060008360800151828560600151028560400151010190508360c00151810292505050919050565b60008060005a855180519192509061290489886128ff60408c018c613939565b612ebe565b60a082015161291243600052565b60006001600160a01b038216612961576001600160a01b0383166000908152602081905260409020546dffffffffffffffffffffffffffff1688811161295a5780890361295d565b60005b9150505b606084015160208a01516040517f3a871cdd0000000000000000000000000000000000000000000000000000000081526001600160a01b03861692633a871cdd9290916129b4918f918790600401614100565b60206040518083038160008887f1935050505080156129f0575060408051601f3d908101601f191682019092526129ed918101906140b1565b60015b612a81576129fc613ef4565b806308c379a003612a2d5750612a10613f10565b80612a1b5750612a2f565b8b81604051602001611e7a9190614125565b505b8a604051631101335b60e11b81526004016105f89181526040602082018190526016908201527f4141323320726576657274656420286f72204f4f472900000000000000000000606082015260800190565b95506001600160a01b038216612b51576001600160a01b038316600090815260208190526040902080546dffffffffffffffffffffffffffff16808a1115612b15578c604051631101335b60e11b81526004016105f89181526040602082018190526017908201527f41413231206469646e2774207061792070726566756e64000000000000000000606082015260800190565b81547fffffffffffffffffffffffffffffffffffff000000000000000000000000000016908a90036dffffffffffffffffffffffffffff161790555b5a85039650505050505094509492505050565b82516060818101519091600091848111612bc05760405162461bcd60e51b815260206004820152601f60248201527f4141343120746f6f206c6974746c6520766572696669636174696f6e4761730060448201526064016105f8565b60a08201516001600160a01b038116600090815260208190526040902080548784039291906dffffffffffffffffffffffffffff1689811015612c4f578c604051631101335b60e11b81526004016105f8918152604060208201819052601e908201527f41413331207061796d6173746572206465706f73697420746f6f206c6f770000606082015260800190565b8981038260000160006101000a8154816dffffffffffffffffffffffffffff02191690836dffffffffffffffffffffffffffff160217905550826001600160a01b031663f465c77e858e8e602001518e6040518563ffffffff1660e01b8152600401612cbd93929190614100565b60006040518083038160008887f193505050508015612cfe57506040513d6000823e601f3d908101601f19168201604052612cfb919081019061416a565b60015b612d8f57612d0a613ef4565b806308c379a003612d3b5750612d1e613f10565b80612d295750612d3d565b8d81604051602001611e7a91906141f6565b505b8c604051631101335b60e11b81526004016105f89181526040602082018190526016908201527f4141333320726576657274656420286f72204f4f472900000000000000000000606082015260800190565b909e909d509b505050505050505050505050565b60008082600003612db957506000928392509050565b6000612dc484612e35565b9050806040015165ffffffffffff16421180612deb5750806020015165ffffffffffff1642105b905194909350915050565b6060366000612e09610140850185613939565b915091508360208184030360405194506020810185016040528085528082602087013750505050919050565b60408051606081018252600080825260208201819052918101919091528160a081901c65ffffffffffff8116600003612e71575065ffffffffffff5b604080516060810182526001600160a01b03909316835260d09490941c602083015265ffffffffffff16928101929092525090565b6000818310612eb55781612eb7565b825b9392505050565b8015610d30578251516001600160a01b0381163b15612f295784604051631101335b60e11b81526004016105f8918152604060208201819052601f908201527f414131302073656e64657220616c726561647920636f6e737472756374656400606082015260800190565b8351606001516040517f570e1a360000000000000000000000000000000000000000000000000000000081526000916001600160a01b037f0000000000000000000000000000000000000000000000000000000000000000169163570e1a369190612f9a9088908890600401613c85565b60206040518083038160008887f1158015612fb9573d6000803e3d6000fd5b50505050506040513d601f19601f82011682018060405250810190612fde9190613c99565b90506001600160a01b0381166130405785604051631101335b60e11b81526004016105f8918152604060208201819052601b908201527f4141313320696e6974436f6465206661696c6564206f72204f4f470000000000606082015260800190565b816001600160a01b0316816001600160a01b0316146130aa5785604051631101335b60e11b81526004016105f891815260406020808301829052908201527f4141313420696e6974436f6465206d7573742072657475726e2073656e646572606082015260800190565b806001600160a01b03163b60000361310d5785604051631101335b60e11b81526004016105f891815260406020808301829052908201527f4141313520696e6974436f6465206d757374206372656174652073656e646572606082015260800190565b600061311c6014828688613c13565b61312591613c3d565b60601c9050826001600160a01b031686602001517fd51a9c61267aa6196961883ecf5ff2da6619c37dac0fa92122513fb32c032d2d83896000015160a001516040516131879291906001600160a01b0392831681529116602082015260400190565b60405180910390a350505050505050565b6040518060a001604052806131fd60405180610100016040528060006001600160a01b031681526020016000815260200160008152602001600081526020016000815260200160006001600160a01b0316815260200160008152602001600081525090565b8152602001600080191681526020016000815260200160008152602001600081525090565b60006020828403121561323457600080fd5b813563ffffffff81168114612eb757600080fd5b7f4e487b7100000000000000000000000000000000000000000000000000000000600052604160045260246000fd5b60a0810181811067ffffffffffffffff8211171561329757613297613248565b60405250565b610100810181811067ffffffffffffffff8211171561329757613297613248565b601f19601f830116810181811067ffffffffffffffff821117156132e4576132e4613248565b6040525050565b600067ffffffffffffffff82111561330557613305613248565b50601f01601f191660200190565b6001600160a01b038116811461269957600080fd5b803561333381613313565b919050565b600081830361018081121561334c57600080fd5b60405161335881613277565b8092506101008083121561336b57600080fd5b60405192506133798361329d565b61338285613328565b8352602085013560208401526040850135604084015260608501356060840152608085013560808401526133b860a08601613328565b60a084015260c085013560c084015260e085013560e084015282825280850135602083015250610120840135604082015261014084013560608201526101608401356080820152505092915050565b60008083601f84011261341957600080fd5b50813567ffffffffffffffff81111561343157600080fd5b60208301915083602082850101111561344957600080fd5b9250929050565b6000806000806101c0858703121561346757600080fd5b843567ffffffffffffffff8082111561347f57600080fd5b818701915087601f83011261349357600080fd5b813561349e816132eb565b6040516134ab82826132be565b8281528a60208487010111156134c057600080fd5b826020860160208301376000602084830101528098505050506134e68860208901613338565b94506101a08701359150808211156134fd57600080fd5b5061350a87828801613407565b95989497509550505050565b60008083601f84011261352857600080fd5b50813567ffffffffffffffff81111561354057600080fd5b6020830191508360208260051b850101111561344957600080fd5b60008060006040848603121561357057600080fd5b833567ffffffffffffffff81111561358757600080fd5b61359386828701613516565b90945092505060208401356135a781613313565b809150509250925092565b600080604083850312156135c557600080fd5b82356135d081613313565b946020939093013593505050565b6000602082840312156135f057600080fd5b8135612eb781613313565b60008060008060006060868803121561361357600080fd5b853567ffffffffffffffff8082111561362b57600080fd5b61363789838a01613407565b90975095506020880135915061364c82613313565b9093506040870135908082111561366257600080fd5b5061366f88828901613407565b969995985093965092949392505050565b6000806020838503121561369357600080fd5b823567ffffffffffffffff8111156136aa57600080fd5b6136b685828601613407565b90969095509350505050565b600061016082840312156136d557600080fd5b50919050565b6000602082840312156136ed57600080fd5b813567ffffffffffffffff81111561370457600080fd5b612791848285016136c2565b6000806000806060858703121561372657600080fd5b843567ffffffffffffffff8082111561373e57600080fd5b61374a888389016136c2565b95506020870135915061375c82613313565b909350604086013590808211156134fd57600080fd5b7f4e487b7100000000000000000000000000000000000000000000000000000000600052601160045260246000fd5b8082018082111561276357612763613772565b60005b838110156137cf5781810151838201526020016137b7565b50506000910152565b600081518084526137f08160208601602086016137b4565b601f01601f19169290920160200192915050565b82815260406020820152600061279160408301846137d8565b7f4e487b7100000000000000000000000000000000000000000000000000000000600052603260045260246000fd5b600082357ffffffffffffffffffffffffffffffffffffffffffffffffffffffffffffffea183360301811261388057600080fd5b9190910192915050565b8181038181111561276357612763613772565b600082357fffffffffffffffffffffffffffffffffffffffffffffffffffffffffffffffa183360301811261388057600080fd5b60008083357fffffffffffffffffffffffffffffffffffffffffffffffffffffffffffffffe184360301811261390657600080fd5b83018035915067ffffffffffffffff82111561392157600080fd5b6020019150600581901b360382131561344957600080fd5b60008083357fffffffffffffffffffffffffffffffffffffffffffffffffffffffffffffffe184360301811261396e57600080fd5b83018035915067ffffffffffffffff82111561398957600080fd5b60200191503681900382131561344957600080fd5b60008083357fffffffffffffffffffffffffffffffffffffffffffffffffffffffffffffffe18436030181126139d357600080fd5b830160208101925035905067ffffffffffffffff8111156139f357600080fd5b80360382131561344957600080fd5b818352818160208501375060006020828401015260006020601f19601f840116840101905092915050565b6000610160613a4c84613a3f85613328565b6001600160a01b03169052565b60208301356020850152613a63604084018461399e565b826040870152613a768387018284613a02565b92505050613a87606084018461399e565b8583036060870152613a9a838284613a02565b925050506080830135608085015260a083013560a085015260c083013560c085015260e083013560e0850152610100808401358186015250610120613ae18185018561399e565b86840383880152613af3848284613a02565b9350505050610140613b078185018561399e565b86840383880152613b19848284613a02565b979650505050505050565b6040808252810184905260006060600586901b830181019083018783805b89811015613bc4577fffffffffffffffffffffffffffffffffffffffffffffffffffffffffffffffa087860301845282357ffffffffffffffffffffffffffffffffffffffffffffffffffffffffffffffea18c3603018112613ba2578283fd5b613bae868d8301613a2d565b9550506020938401939290920191600101613b42565b505050508281036020840152613b19818587613a02565b60007fffffffffffffffffffffffffffffffffffffffffffffffffffffffffffffffff8203613c0c57613c0c613772565b5060010190565b60008085851115613c2357600080fd5b83861115613c3057600080fd5b5050820193919092039150565b7fffffffffffffffffffffffffffffffffffffffff0000000000000000000000008135818116916014851015613c7d5780818660140360031b1b83161692505b505092915050565b602081526000612791602083018486613a02565b600060208284031215613cab57600080fd5b8151612eb781613313565b65ffffffffffff818116838216019080821115613cd557613cd5613772565b5092915050565b8183823760009101908152919050565b868152856020820152600065ffffffffffff8087166040840152808616606084015250831515608083015260c060a0830152613d2b60c08301846137d8565b98975050505050505050565b80518252602081015160208301526040810151151560408301526000606082015165ffffffffffff8082166060860152806080850151166080860152505060a082015160c060a085015261279160c08501826137d8565b6000610140808352613da281840189613d37565b915050613dbc602083018780518252602090810151910152565b845160608301526020948501516080830152835160a08301529284015160c082015281516001600160a01b031660e0820152908301518051610100830152909201516101209092019190915292915050565b60e081526000613e2160e0830187613d37565b9050613e3a602083018680518252602090810151910152565b8351606083015260208401516080830152825160a0830152602083015160c083015295945050505050565b7f4e487b7100000000000000000000000000000000000000000000000000000000600052602160045260246000fd5b600060038510613ecd577f4e487b7100000000000000000000000000000000000000000000000000000000600052602160045260246000fd5b84825260606020830152613ee460608301856137d8565b9050826040830152949350505050565b600060033d1115613f0d5760046000803e5060005160e01c5b90565b600060443d1015613f1e5790565b6040517ffffffffffffffffffffffffffffffffffffffffffffffffffffffffffffffffc803d016004833e81513d67ffffffffffffffff8160248401118184111715613f6c57505050505090565b8285019150815181811115613f845750505050505090565b843d8701016020828501011115613f9e5750505050505090565b613fad602082860101876132be565b509095945050505050565b7f4141353020706f73744f702072657665727465643a2000000000000000000000815260008251613ff08160168501602087016137b4565b9190910160160192915050565b60006101c08083526140128184018789613a02565b905084516001600160a01b03808251166020860152602082015160408601526040820151606086015260608201516080860152608082015160a08601528060a08301511660c08601525060c081015160e085015260e08101516101008501525060208501516101208401526040850151610140840152606085015161016084015260808501516101808401528281036101a0840152613b1981856137d8565b6000602082840312156140c357600080fd5b5051919050565b6060815260006140de606083018789613a02565b6001600160a01b03861660208401528281036040840152613d2b818587613a02565b6060815260006141136060830186613a2d565b60208301949094525060400152919050565b7f414132332072657665727465643a20000000000000000000000000000000000081526000825161415d81600f8501602087016137b4565b91909101600f0192915050565b6000806040838503121561417d57600080fd5b825167ffffffffffffffff81111561419457600080fd5b8301601f810185136141a557600080fd5b80516141b0816132eb565b6040516141bd82826132be565b8281528760208486010111156141d257600080fd5b6141e38360208301602087016137b4565b6020969096015195979596505050505050565b7f414133332072657665727465643a20000000000000000000000000000000000081526000825161415d81600f8501602087016137b456fea164736f6c6343000815000a608060405234801561001057600080fd5b506101ea806100206000396000f3fe608060405234801561001057600080fd5b506004361061002b5760003560e01c8063570e1a3614610030575b600080fd5b61004361003e3660046100f9565b61006c565b60405173ffffffffffffffffffffffffffffffffffffffff909116815260200160405180910390f35b60008061007c601482858761016b565b61008591610195565b60601c90506000610099846014818861016b565b8080601f016020809104026020016040519081016040528093929190818152602001838380828437600092018290525084519495509360209350849250905082850182875af190506000519350806100f057600093505b50505092915050565b6000806020838503121561010c57600080fd5b823567ffffffffffffffff8082111561012457600080fd5b818501915085601f83011261013857600080fd5b81358181111561014757600080fd5b86602082850101111561015957600080fd5b60209290920196919550909350505050565b6000808585111561017b57600080fd5b8386111561018857600080fd5b5050820193919092039150565b7fffffffffffffffffffffffffffffffffffffffff00000000000000000000000081358181169160148510156101d55780818660140360031b1b83161692505b50509291505056fea164736f6c6343000815000a",
    "linkReferences": {}
  },
  "methodIdentifiers": {
    "SIG_VALIDATION_FAILED()": "8f41ec5a",
    "_validateSenderAndPaymaster(bytes,address,bytes)": "957122ab",
    "addStake(uint32)": "0396cb60",
    "balanceOf(address)": "70a08231",
    "depositTo(address)": "b760faf9",
    "deposits(address)": "fc7e286d",
    "getDepositInfo(address)": "5287ce12",
    "getSenderAddress(bytes)": "9b249f69",
    "getUserOpHash((address,uint256,bytes,bytes,uint256,uint256,uint256,uint256,uint256,bytes,bytes))": "a6193531",
    "handleAggregatedOps(((address,uint256,bytes,bytes,uint256,uint256,uint256,uint256,uint256,bytes,bytes)[],address,bytes)[],address)": "4b1d7cf5",
    "handleOps((address,uint256,bytes,bytes,uint256,uint256,uint256,uint256,uint256,bytes,bytes)[],address)": "1fad948c",
    "innerHandleOp(bytes,((address,uint256,uint256,uint256,uint256,address,uint256,uint256),bytes32,uint256,uint256,uint256),bytes)": "1d732756",
    "simulateHandleOp((address,uint256,bytes,bytes,uint256,uint256,uint256,uint256,uint256,bytes,bytes),address,bytes)": "d6383f94",
    "simulateValidation((address,uint256,bytes,bytes,uint256,uint256,uint256,uint256,uint256,bytes,bytes))": "ee219423",
    "unlockStake()": "bb9fe6bf",
    "withdrawStake(address)": "c23a5cea",
    "withdrawTo(address,uint256)": "205c2878"
  },
  "id": 293
}