{
  "abi": [
    {
      "inputs": [],
      "name": "InvalidInitialization",
      "type": "error"
    },
    {
      "inputs": [],
      "name": "NotInitializing",
      "type": "error"
    },
    {
      "inputs": [
        {
          "internalType": "address",
          "name": "owner",
          "type": "address"
        }
      ],
      "name": "OwnableInvalidOwner",
      "type": "error"
    },
    {
      "inputs": [
        {
          "internalType": "address",
          "name": "account",
          "type": "address"
        }
      ],
      "name": "OwnableUnauthorizedAccount",
      "type": "error"
    },
    {
      "anonymous": false,
      "inputs": [
        {
          "indexed": true,
          "internalType": "address",
          "name": "_userAddress",
          "type": "address"
        },
        {
          "indexed": true,
          "internalType": "bool",
          "name": "_isFrozen",
          "type": "bool"
        },
        {
          "indexed": true,
          "internalType": "address",
          "name": "_owner",
          "type": "address"
        }
      ],
      "name": "AddressFrozen",
      "type": "event"
    },
    {
      "anonymous": false,
      "inputs": [
        {
          "indexed": true,
          "internalType": "address",
          "name": "_agent",
          "type": "address"
        }
      ],
      "name": "AgentAdded",
      "type": "event"
    },
    {
      "anonymous": false,
      "inputs": [
        {
          "indexed": true,
          "internalType": "address",
          "name": "_agent",
          "type": "address"
        }
      ],
      "name": "AgentRemoved",
      "type": "event"
    },
    {
      "anonymous": false,
      "inputs": [
        {
          "indexed": true,
          "internalType": "address",
          "name": "owner",
          "type": "address"
        },
        {
          "indexed": true,
          "internalType": "address",
          "name": "spender",
          "type": "address"
        },
        {
          "indexed": false,
          "internalType": "uint256",
          "name": "value",
          "type": "uint256"
        }
      ],
      "name": "Approval",
      "type": "event"
    },
    {
      "anonymous": false,
      "inputs": [
        {
          "indexed": true,
          "internalType": "address",
          "name": "_compliance",
          "type": "address"
        }
      ],
      "name": "ComplianceAdded",
      "type": "event"
    },
    {
      "anonymous": false,
      "inputs": [
        {
          "indexed": true,
          "internalType": "address",
          "name": "_identityRegistry",
          "type": "address"
        }
      ],
      "name": "IdentityRegistryAdded",
      "type": "event"
    },
    {
      "anonymous": false,
      "inputs": [
        {
          "indexed": false,
          "internalType": "uint64",
          "name": "version",
          "type": "uint64"
        }
      ],
      "name": "Initialized",
      "type": "event"
    },
    {
      "anonymous": false,
      "inputs": [
        {
          "indexed": true,
          "internalType": "address",
          "name": "previousOwner",
          "type": "address"
        },
        {
          "indexed": true,
          "internalType": "address",
          "name": "newOwner",
          "type": "address"
        }
      ],
      "name": "OwnershipTransferred",
      "type": "event"
    },
    {
      "anonymous": false,
      "inputs": [
        {
          "indexed": false,
          "internalType": "address",
          "name": "_userAddress",
          "type": "address"
        }
      ],
      "name": "Paused",
      "type": "event"
    },
    {
      "anonymous": false,
      "inputs": [
        {
          "indexed": true,
          "internalType": "address",
          "name": "_lostWallet",
          "type": "address"
        },
        {
          "indexed": true,
          "internalType": "address",
          "name": "_newWallet",
          "type": "address"
        },
        {
          "indexed": true,
          "internalType": "address",
          "name": "_investorOnchainID",
          "type": "address"
        }
      ],
      "name": "RecoverySuccess",
      "type": "event"
    },
    {
      "anonymous": false,
      "inputs": [
        {
          "indexed": true,
          "internalType": "address",
          "name": "_userAddress",
          "type": "address"
        },
        {
          "indexed": false,
          "internalType": "uint256",
          "name": "_amount",
          "type": "uint256"
        }
      ],
      "name": "TokensFrozen",
      "type": "event"
    },
    {
      "anonymous": false,
      "inputs": [
        {
          "indexed": true,
          "internalType": "address",
          "name": "_userAddress",
          "type": "address"
        },
        {
          "indexed": false,
          "internalType": "uint256",
          "name": "_amount",
          "type": "uint256"
        }
      ],
      "name": "TokensUnfrozen",
      "type": "event"
    },
    {
      "anonymous": false,
      "inputs": [
        {
          "indexed": true,
          "internalType": "address",
          "name": "from",
          "type": "address"
        },
        {
          "indexed": true,
          "internalType": "address",
          "name": "to",
          "type": "address"
        },
        {
          "indexed": false,
          "internalType": "uint256",
          "name": "value",
          "type": "uint256"
        }
      ],
      "name": "Transfer",
      "type": "event"
    },
    {
      "anonymous": false,
      "inputs": [
        {
          "indexed": false,
          "internalType": "address",
          "name": "_userAddress",
          "type": "address"
        }
      ],
      "name": "Unpaused",
      "type": "event"
    },
    {
      "anonymous": false,
      "inputs": [
        {
          "indexed": true,
          "internalType": "string",
          "name": "_newName",
          "type": "string"
        },
        {
          "indexed": true,
          "internalType": "string",
          "name": "_newSymbol",
          "type": "string"
        },
        {
          "indexed": false,
          "internalType": "uint8",
          "name": "_newDecimals",
          "type": "uint8"
        },
        {
          "indexed": false,
          "internalType": "string",
          "name": "_newVersion",
          "type": "string"
        },
        {
          "indexed": true,
          "internalType": "address",
          "name": "_newOnchainID",
          "type": "address"
        }
      ],
      "name": "UpdatedTokenInformation",
      "type": "event"
    },
    {
      "inputs": [
        {
          "internalType": "address",
          "name": "_agent",
          "type": "address"
        }
      ],
      "name": "addAgent",
      "outputs": [],
      "stateMutability": "nonpayable",
      "type": "function"
    },
    {
      "inputs": [
        {
          "internalType": "address",
          "name": "_owner",
          "type": "address"
        },
        {
          "internalType": "address",
          "name": "_spender",
          "type": "address"
        }
      ],
      "name": "allowance",
      "outputs": [
        {
          "internalType": "uint256",
          "name": "",
          "type": "uint256"
        }
      ],
      "stateMutability": "view",
      "type": "function"
    },
    {
      "inputs": [
        {
          "internalType": "address",
          "name": "_spender",
          "type": "address"
        },
        {
          "internalType": "uint256",
          "name": "_amount",
          "type": "uint256"
        }
      ],
      "name": "approve",
      "outputs": [
        {
          "internalType": "bool",
          "name": "",
          "type": "bool"
        }
      ],
      "stateMutability": "nonpayable",
      "type": "function"
    },
    {
      "inputs": [
        {
          "internalType": "address",
          "name": "_userAddress",
          "type": "address"
        }
      ],
      "name": "balanceOf",
      "outputs": [
        {
          "internalType": "uint256",
          "name": "",
          "type": "uint256"
        }
      ],
      "stateMutability": "view",
      "type": "function"
    },
    {
      "inputs": [
        {
          "internalType": "address[]",
          "name": "_userAddresses",
          "type": "address[]"
        },
        {
          "internalType": "uint256[]",
          "name": "_amounts",
          "type": "uint256[]"
        }
      ],
      "name": "batchBurn",
      "outputs": [],
      "stateMutability": "nonpayable",
      "type": "function"
    },
    {
      "inputs": [
        {
          "internalType": "address[]",
          "name": "_fromList",
          "type": "address[]"
        },
        {
          "internalType": "address[]",
          "name": "_toList",
          "type": "address[]"
        },
        {
          "internalType": "uint256[]",
          "name": "_amounts",
          "type": "uint256[]"
        }
      ],
      "name": "batchForcedTransfer",
      "outputs": [],
      "stateMutability": "nonpayable",
      "type": "function"
    },
    {
      "inputs": [
        {
          "internalType": "address[]",
          "name": "_userAddresses",
          "type": "address[]"
        },
        {
          "internalType": "uint256[]",
          "name": "_amounts",
          "type": "uint256[]"
        }
      ],
      "name": "batchFreezePartialTokens",
      "outputs": [],
      "stateMutability": "nonpayable",
      "type": "function"
    },
    {
      "inputs": [
        {
          "internalType": "address[]",
          "name": "_toList",
          "type": "address[]"
        },
        {
          "internalType": "uint256[]",
          "name": "_amounts",
          "type": "uint256[]"
        }
      ],
      "name": "batchMint",
      "outputs": [],
      "stateMutability": "nonpayable",
      "type": "function"
    },
    {
      "inputs": [
        {
          "internalType": "address[]",
          "name": "_userAddresses",
          "type": "address[]"
        },
        {
          "internalType": "bool[]",
          "name": "_freeze",
          "type": "bool[]"
        }
      ],
      "name": "batchSetAddressFrozen",
      "outputs": [],
      "stateMutability": "nonpayable",
      "type": "function"
    },
    {
      "inputs": [
        {
          "internalType": "address[]",
          "name": "_toList",
          "type": "address[]"
        },
        {
          "internalType": "uint256[]",
          "name": "_amounts",
          "type": "uint256[]"
        }
      ],
      "name": "batchTransfer",
      "outputs": [],
      "stateMutability": "nonpayable",
      "type": "function"
    },
    {
      "inputs": [
        {
          "internalType": "address[]",
          "name": "_userAddresses",
          "type": "address[]"
        },
        {
          "internalType": "uint256[]",
          "name": "_amounts",
          "type": "uint256[]"
        }
      ],
      "name": "batchUnfreezePartialTokens",
      "outputs": [],
      "stateMutability": "nonpayable",
      "type": "function"
    },
    {
      "inputs": [
        {
          "internalType": "address",
          "name": "_userAddress",
          "type": "address"
        },
        {
          "internalType": "uint256",
          "name": "_amount",
          "type": "uint256"
        }
      ],
      "name": "burn",
      "outputs": [],
      "stateMutability": "nonpayable",
      "type": "function"
    },
    {
      "inputs": [],
      "name": "compliance",
      "outputs": [
        {
          "internalType": "contract IModularCompliance",
          "name": "",
          "type": "address"
        }
      ],
      "stateMutability": "view",
      "type": "function"
    },
    {
      "inputs": [],
      "name": "decimals",
      "outputs": [
        {
          "internalType": "uint8",
          "name": "",
          "type": "uint8"
        }
      ],
      "stateMutability": "view",
      "type": "function"
    },
    {
      "inputs": [
        {
          "internalType": "address",
          "name": "_spender",
          "type": "address"
        },
        {
          "internalType": "uint256",
          "name": "_subtractedValue",
          "type": "uint256"
        }
      ],
      "name": "decreaseAllowance",
      "outputs": [
        {
          "internalType": "bool",
          "name": "",
          "type": "bool"
        }
      ],
      "stateMutability": "nonpayable",
      "type": "function"
    },
    {
      "inputs": [
        {
          "internalType": "address",
          "name": "_from",
          "type": "address"
        },
        {
          "internalType": "address",
          "name": "_to",
          "type": "address"
        },
        {
          "internalType": "uint256",
          "name": "_amount",
          "type": "uint256"
        }
      ],
      "name": "forcedTransfer",
      "outputs": [
        {
          "internalType": "bool",
          "name": "",
          "type": "bool"
        }
      ],
      "stateMutability": "nonpayable",
      "type": "function"
    },
    {
      "inputs": [
        {
          "internalType": "address",
          "name": "_userAddress",
          "type": "address"
        },
        {
          "internalType": "uint256",
          "name": "_amount",
          "type": "uint256"
        }
      ],
      "name": "freezePartialTokens",
      "outputs": [],
      "stateMutability": "nonpayable",
      "type": "function"
    },
    {
      "inputs": [
        {
          "internalType": "address",
          "name": "_userAddress",
          "type": "address"
        }
      ],
      "name": "getFrozenTokens",
      "outputs": [
        {
          "internalType": "uint256",
          "name": "",
          "type": "uint256"
        }
      ],
      "stateMutability": "view",
      "type": "function"
    },
    {
      "inputs": [],
      "name": "identityRegistry",
      "outputs": [
        {
          "internalType": "contract IIdentityRegistry",
          "name": "",
          "type": "address"
        }
      ],
      "stateMutability": "view",
      "type": "function"
    },
    {
      "inputs": [
        {
          "internalType": "address",
          "name": "_spender",
          "type": "address"
        },
        {
          "internalType": "uint256",
          "name": "_addedValue",
          "type": "uint256"
        }
      ],
      "name": "increaseAllowance",
      "outputs": [
        {
          "internalType": "bool",
          "name": "",
          "type": "bool"
        }
      ],
      "stateMutability": "nonpayable",
      "type": "function"
    },
    {
      "inputs": [
        {
          "internalType": "address",
          "name": "_agent",
          "type": "address"
        }
      ],
      "name": "isAgent",
      "outputs": [
        {
          "internalType": "bool",
          "name": "",
          "type": "bool"
        }
      ],
      "stateMutability": "view",
      "type": "function"
    },
    {
      "inputs": [
        {
          "internalType": "address",
          "name": "_userAddress",
          "type": "address"
        }
      ],
      "name": "isFrozen",
      "outputs": [
        {
          "internalType": "bool",
          "name": "",
          "type": "bool"
        }
      ],
      "stateMutability": "view",
      "type": "function"
    },
    {
      "inputs": [
        {
          "internalType": "address",
          "name": "_to",
          "type": "address"
        },
        {
          "internalType": "uint256",
          "name": "_amount",
          "type": "uint256"
        }
      ],
      "name": "mint",
      "outputs": [],
      "stateMutability": "nonpayable",
      "type": "function"
    },
    {
      "inputs": [],
      "name": "name",
      "outputs": [
        {
          "internalType": "string",
          "name": "",
          "type": "string"
        }
      ],
      "stateMutability": "view",
      "type": "function"
    },
    {
      "inputs": [],
      "name": "onchainID",
      "outputs": [
        {
          "internalType": "address",
          "name": "",
          "type": "address"
        }
      ],
      "stateMutability": "view",
      "type": "function"
    },
    {
      "inputs": [],
      "name": "owner",
      "outputs": [
        {
          "internalType": "address",
          "name": "",
          "type": "address"
        }
      ],
      "stateMutability": "view",
      "type": "function"
    },
    {
      "inputs": [],
      "name": "pause",
      "outputs": [],
      "stateMutability": "nonpayable",
      "type": "function"
    },
    {
      "inputs": [],
      "name": "paused",
      "outputs": [
        {
          "internalType": "bool",
          "name": "",
          "type": "bool"
        }
      ],
      "stateMutability": "view",
      "type": "function"
    },
    {
      "inputs": [
        {
          "internalType": "address",
          "name": "_lostWallet",
          "type": "address"
        },
        {
          "internalType": "address",
          "name": "_newWallet",
          "type": "address"
        },
        {
          "internalType": "address",
          "name": "_investorOnchainID",
          "type": "address"
        }
      ],
      "name": "recoveryAddress",
      "outputs": [
        {
          "internalType": "bool",
          "name": "",
          "type": "bool"
        }
      ],
      "stateMutability": "nonpayable",
      "type": "function"
    },
    {
      "inputs": [
        {
          "internalType": "address",
          "name": "_agent",
          "type": "address"
        }
      ],
      "name": "removeAgent",
      "outputs": [],
      "stateMutability": "nonpayable",
      "type": "function"
    },
    {
      "inputs": [],
      "name": "renounceOwnership",
      "outputs": [],
      "stateMutability": "nonpayable",
      "type": "function"
    },
    {
      "inputs": [
        {
          "internalType": "address",
          "name": "_userAddress",
          "type": "address"
        },
        {
          "internalType": "bool",
          "name": "_freeze",
          "type": "bool"
        }
      ],
      "name": "setAddressFrozen",
      "outputs": [],
      "stateMutability": "nonpayable",
      "type": "function"
    },
    {
      "inputs": [
        {
          "internalType": "address",
          "name": "_compliance",
          "type": "address"
        }
      ],
      "name": "setCompliance",
      "outputs": [],
      "stateMutability": "nonpayable",
      "type": "function"
    },
    {
      "inputs": [
        {
          "internalType": "address",
          "name": "_identityRegistry",
          "type": "address"
        }
      ],
      "name": "setIdentityRegistry",
      "outputs": [],
      "stateMutability": "nonpayable",
      "type": "function"
    },
    {
      "inputs": [
        {
          "internalType": "string",
          "name": "_name",
          "type": "string"
        }
      ],
      "name": "setName",
      "outputs": [],
      "stateMutability": "nonpayable",
      "type": "function"
    },
    {
      "inputs": [
        {
          "internalType": "address",
          "name": "_onchainID",
          "type": "address"
        }
      ],
      "name": "setOnchainID",
      "outputs": [],
      "stateMutability": "nonpayable",
      "type": "function"
    },
    {
      "inputs": [
        {
          "internalType": "string",
          "name": "_symbol",
          "type": "string"
        }
      ],
      "name": "setSymbol",
      "outputs": [],
      "stateMutability": "nonpayable",
      "type": "function"
    },
    {
      "inputs": [],
      "name": "symbol",
      "outputs": [
        {
          "internalType": "string",
          "name": "",
          "type": "string"
        }
      ],
      "stateMutability": "view",
      "type": "function"
    },
    {
      "inputs": [],
      "name": "totalSupply",
      "outputs": [
        {
          "internalType": "uint256",
          "name": "",
          "type": "uint256"
        }
      ],
      "stateMutability": "view",
      "type": "function"
    },
    {
      "inputs": [
        {
          "internalType": "address",
          "name": "_to",
          "type": "address"
        },
        {
          "internalType": "uint256",
          "name": "_amount",
          "type": "uint256"
        }
      ],
      "name": "transfer",
      "outputs": [
        {
          "internalType": "bool",
          "name": "",
          "type": "bool"
        }
      ],
      "stateMutability": "nonpayable",
      "type": "function"
    },
    {
      "inputs": [
        {
          "internalType": "address",
          "name": "_from",
          "type": "address"
        },
        {
          "internalType": "address",
          "name": "_to",
          "type": "address"
        },
        {
          "internalType": "uint256",
          "name": "_amount",
          "type": "uint256"
        }
      ],
      "name": "transferFrom",
      "outputs": [
        {
          "internalType": "bool",
          "name": "",
          "type": "bool"
        }
      ],
      "stateMutability": "nonpayable",
      "type": "function"
    },
    {
      "inputs": [
        {
          "internalType": "address",
          "name": "newOwner",
          "type": "address"
        }
      ],
      "name": "transferOwnership",
      "outputs": [],
      "stateMutability": "nonpayable",
      "type": "function"
    },
    {
      "inputs": [
        {
          "internalType": "address",
          "name": "_userAddress",
          "type": "address"
        },
        {
          "internalType": "uint256",
          "name": "_amount",
          "type": "uint256"
        }
      ],
      "name": "unfreezePartialTokens",
      "outputs": [],
      "stateMutability": "nonpayable",
      "type": "function"
    },
    {
      "inputs": [],
      "name": "unpause",
      "outputs": [],
      "stateMutability": "nonpayable",
      "type": "function"
    },
    {
      "inputs": [],
      "name": "version",
      "outputs": [
        {
          "internalType": "string",
          "name": "",
          "type": "string"
        }
      ],
      "stateMutability": "pure",
      "type": "function"
    }
  ],
  "bytecode": {
    "object": "0x60806040526009805460ff1916905534801561001a57600080fd5b506139fd8061002a6000396000f3fe608060405234801561001057600080fd5b50600436106102ff5760003560e01c806370a082311161019c578063a457c2d7116100ee578063cbf3f86111610097578063f2fde38b11610071578063f2fde38b146106d6578063f8981789146106e9578063fc7e5fa8146106fc57600080fd5b8063cbf3f8611461065e578063dd62ed3e14610671578063e5839836146106aa57600080fd5b8063b84c8246116100c8578063b84c824614610625578063c47f002714610638578063c69c09cf1461064b57600080fd5b8063a457c2d7146105e9578063a9059cbb146105fc578063aba637051461060f57600080fd5b80638da5cb5b1161015057806397a6278e1161012a57806397a6278e146105b05780639dc29fac146105c35780639fc1d0e7146105d657600080fd5b80638da5cb5b146105655780639285948a1461059557806395d89b41146105a857600080fd5b80638456cb59116101815780638456cb591461053757806384e798421461053f57806388d695b21461055257600080fd5b806370a0823114610506578063715018a61461052f57600080fd5b806339509351116102555780634710362d116102095780635c975abb116101e35780635c975abb146104d75780636290865d146104e257806368573107146104f357600080fd5b80634710362d146104785780634a6cc6771461048b57806354fd4d501461049e57600080fd5b80633f4ba83a1161023a5780633f4ba83a1461044a57806340c10f191461045257806342a47abc1461046557600080fd5b806339509351146104245780633d1ddc5b1461043757600080fd5b806318160ddd116102b75780631ffbb064116102915780631ffbb064146103e957806323b872dd146103fc578063313ce5671461040f57600080fd5b806318160ddd146103bb5780631a7af379146103c35780631fe56f7d146103d657600080fd5b8063125c4a33116102e8578063125c4a3314610345578063134e18f41461035a578063158b1a571461038457600080fd5b806306fdde0314610304578063095ea7b314610322575b600080fd5b61030c61070f565b60405161031991906132de565b60405180910390f35b61033561033036600461330d565b6107a1565b6040519015158152602001610319565b61035861035336600461330d565b6107b8565b005b60095461010090046001600160a01b03165b6040516001600160a01b039091168152602001610319565b6103ad610392366004613337565b6001600160a01b031660009081526008602052604090205490565b604051908152602001610319565b6003546103ad565b6103586103d136600461339e565b610937565b6103586103e436600461330d565b6109ac565b6103356103f7366004613337565b610b34565b61033561040a36600461340a565b610b40565b60065460405160ff9091168152602001610319565b61033561043236600461330d565b610ef6565b610358610445366004613337565b610f2d565b61035861101a565b61035861046036600461330d565b611127565b610358610473366004613446565b6113e9565b61035861048636600461339e565b61147f565b61035861049936600461339e565b6114e4565b60408051808201909152600581527f342e312e31000000000000000000000000000000000000000000000000000000602082015261030c565b60095460ff16610335565b600a546001600160a01b031661036c565b61035861050136600461339e565b611549565b6103ad610514366004613337565b6001600160a01b031660009081526001602052604090205490565b6103586115ae565b6103586115c2565b61035861054d366004613337565b6116cd565b61035861056036600461339e565b61176d565b7f9016d09d72d40fdae2fd8ceac6b6234c7706214fd39c1cd1e609a0528c199300546001600160a01b031661036c565b6103356105a33660046134e0565b6117d3565b61030c611c3b565b6103586105be366004613337565b611c4a565b6103586105d136600461330d565b611cea565b6103356105e436600461340a565b611f1c565b6103356105f736600461330d565b6121f9565b61033561060a36600461330d565b612230565b60065461010090046001600160a01b031661036c565b610358610633366004613523565b612546565b610358610646366004613523565b6126ba565b6103586106593660046135a3565b612776565b61035861066c366004613337565b612846565b6103ad61067f3660046135da565b6001600160a01b03918216600090815260026020908152604080832093909416825291909152205490565b6103356106b8366004613337565b6001600160a01b031660009081526007602052604090205460ff1690565b6103586106e4366004613337565b6128b7565b6103586106f7366004613337565b61290e565b61035861070a36600461339e565b612a72565b60606004805461071e9061360d565b80601f016020809104026020016040519081016040528092919081815260200182805461074a9061360d565b80156107975780601f1061076c57610100808354040283529160200191610797565b820191906000526020600020905b81548152906001019060200180831161077a57829003601f168201915b5050505050905090565b60006107ae338484612ad7565b5060015b92915050565b6107c133610b34565b6108385760405162461bcd60e51b815260206004820152602e60248201527f4167656e74526f6c653a2063616c6c657220646f6573206e6f7420686176652060448201527f746865204167656e7420726f6c6500000000000000000000000000000000000060648201526084015b60405180910390fd5b6001600160a01b03821660009081526001602090815260408083205460089092529091205461086890839061368f565b8110156108b75760405162461bcd60e51b815260206004820181905260248201527f416d6f756e74206578636565647320617661696c61626c652062616c616e6365604482015260640161082f565b6001600160a01b0383166000908152600860205260409020546108db90839061368f565b6001600160a01b038416600081815260086020526040908190209290925590517fa065e63c631c86f1b9f66a4a2f63f2093bf1c2168d23290259dbd969e0222a459061092a9085815260200190565b60405180910390a2505050565b60005b838110156109a557610993858583818110610957576109576136a2565b905060200201602081019061096c9190613337565b84848481811061097e5761097e6136a2565b905060200201602081019061065991906136d1565b8061099d816136ee565b91505061093a565b5050505050565b6109b533610b34565b610a275760405162461bcd60e51b815260206004820152602e60248201527f4167656e74526f6c653a2063616c6c657220646f6573206e6f7420686176652060448201527f746865204167656e7420726f6c65000000000000000000000000000000000000606482015260840161082f565b6001600160a01b038216600090815260086020526040902054811115610ab55760405162461bcd60e51b815260206004820152603460248201527f416d6f756e742073686f756c64206265206c657373207468616e206f7220657160448201527f75616c20746f2066726f7a656e20746f6b656e73000000000000000000000000606482015260840161082f565b6001600160a01b038216600090815260086020526040902054610ad9908290613726565b6001600160a01b038316600081815260086020526040908190209290925590517f9bed35cb62ad0dba04f9d5bfee4b5bc91443e77da8a65c4c84834c51bb08b0d690610b289084815260200190565b60405180910390a25050565b60006107b28183612c30565b60095460009060ff1615610b965760405162461bcd60e51b815260206004820152601060248201527f5061757361626c653a2070617573656400000000000000000000000000000000604482015260640161082f565b6001600160a01b03831660009081526007602052604090205460ff16158015610bd857506001600160a01b03841660009081526007602052604090205460ff16155b610c245760405162461bcd60e51b815260206004820152601060248201527f77616c6c65742069732066726f7a656e00000000000000000000000000000000604482015260640161082f565b6001600160a01b038416600090815260086020908152604080832054600190925290912054610c539190613726565b821115610ca25760405162461bcd60e51b815260206004820152601460248201527f496e73756666696369656e742042616c616e6365000000000000000000000000604482015260640161082f565b6009546040517fb9209e330000000000000000000000000000000000000000000000000000000081526001600160a01b0385811660048301526101009092049091169063b9209e3390602401602060405180830381865afa158015610d0b573d6000803e3d6000fd5b505050506040513d601f19601f82011682018060405250810190610d2f9190613739565b8015610dcc5750600a546040517fe46638e60000000000000000000000000000000000000000000000000000000081526001600160a01b0386811660048301528581166024830152604482018590529091169063e46638e690606401602060405180830381865afa158015610da8573d6000803e3d6000fd5b505050506040513d601f19601f82011682018060405250810190610dcc9190613739565b15610ea7576001600160a01b038416600090815260026020908152604080832033808552925290912054610e0c918691610e07908690613726565b612ad7565b610e17848484612cce565b600a546040517f8baf29b40000000000000000000000000000000000000000000000000000000081526001600160a01b03868116600483015285811660248301526044820185905290911690638baf29b490606401600060405180830381600087803b158015610e8657600080fd5b505af1158015610e9a573d6000803e3d6000fd5b5050505060019050610eef565b60405162461bcd60e51b815260206004820152601560248201527f5472616e73666572206e6f7420706f737369626c650000000000000000000000604482015260640161082f565b9392505050565b3360008181526002602090815260408083206001600160a01b038716845290915281205490916107ae918590610e0790869061368f565b610f35612e6e565b600680547fffffffffffffffffffffff0000000000000000000000000000000000000000ff166101006001600160a01b038481168202929092179283905560405192041690610f8690600590613756565b60405180910390206004604051610f9d9190613756565b604080519182900382206006548383018352600584527f342e312e310000000000000000000000000000000000000000000000000000006020850152915190927f6a1105ac8148a3c319adbc369f9072573e8a11d3a3d195e067e7c40767ec54d19261100f9260ff90911691906137cc565b60405180910390a450565b61102333610b34565b6110955760405162461bcd60e51b815260206004820152602e60248201527f4167656e74526f6c653a2063616c6c657220646f6573206e6f7420686176652060448201527f746865204167656e7420726f6c65000000000000000000000000000000000000606482015260840161082f565b60095460ff166110e75760405162461bcd60e51b815260206004820152601460248201527f5061757361626c653a206e6f7420706175736564000000000000000000000000604482015260640161082f565b6009805460ff191690556040513381527f5db9ee0a495bf2e6ff9c91a7834c1ba4fdd244a5e8aa4e537bd38aeae4b073aa906020015b60405180910390a1565b61113033610b34565b6111a25760405162461bcd60e51b815260206004820152602e60248201527f4167656e74526f6c653a2063616c6c657220646f6573206e6f7420686176652060448201527f746865204167656e7420726f6c65000000000000000000000000000000000000606482015260840161082f565b6009546040517fb9209e330000000000000000000000000000000000000000000000000000000081526001600160a01b0384811660048301526101009092049091169063b9209e3390602401602060405180830381865afa15801561120b573d6000803e3d6000fd5b505050506040513d601f19601f8201168201806040525081019061122f9190613739565b61127b5760405162461bcd60e51b815260206004820152601960248201527f4964656e74697479206973206e6f742076657269666965642e00000000000000604482015260640161082f565b600a546040517fe46638e6000000000000000000000000000000000000000000000000000000008152600060048201526001600160a01b038481166024830152604482018490529091169063e46638e690606401602060405180830381865afa1580156112ec573d6000803e3d6000fd5b505050506040513d601f19601f820116820180604052508101906113109190613739565b61135c5760405162461bcd60e51b815260206004820152601760248201527f436f6d706c69616e6365206e6f7420666f6c6c6f776564000000000000000000604482015260640161082f565b6113668282612ee2565b600a546040517f5f8dead30000000000000000000000000000000000000000000000000000000081526001600160a01b0384811660048301526024820184905290911690635f8dead390604401600060405180830381600087803b1580156113cd57600080fd5b505af11580156113e1573d6000803e3d6000fd5b505050505050565b60005b8581101561147657611463878783818110611409576114096136a2565b905060200201602081019061141e9190613337565b868684818110611430576114306136a2565b90506020020160208101906114459190613337565b858585818110611457576114576136a2565b90506020020135611f1c565b508061146e816136ee565b9150506113ec565b50505050505050565b60005b838110156109a5576114d285858381811061149f5761149f6136a2565b90506020020160208101906114b49190613337565b8484848181106114c6576114c66136a2565b905060200201356109ac565b806114dc816136ee565b915050611482565b60005b838110156109a557611537858583818110611504576115046136a2565b90506020020160208101906115199190613337565b84848481811061152b5761152b6136a2565b90506020020135611cea565b80611541816136ee565b9150506114e7565b60005b838110156109a55761159c858583818110611569576115696136a2565b905060200201602081019061157e9190613337565b848484818110611590576115906136a2565b90506020020135611127565b806115a6816136ee565b91505061154c565b6115b6612e6e565b6115c06000612fca565b565b6115cb33610b34565b61163d5760405162461bcd60e51b815260206004820152602e60248201527f4167656e74526f6c653a2063616c6c657220646f6573206e6f7420686176652060448201527f746865204167656e7420726f6c65000000000000000000000000000000000000606482015260840161082f565b60095460ff16156116905760405162461bcd60e51b815260206004820152601060248201527f5061757361626c653a2070617573656400000000000000000000000000000000604482015260640161082f565b6009805460ff191660011790556040513381527f62e78cea01bee320cd4e420270b5ea74000d11b0c9f74754ebdbfc544b05a2589060200161111d565b6116d5612e6e565b6001600160a01b03811661172b5760405162461bcd60e51b815260206004820152601f60248201527f696e76616c696420617267756d656e74202d207a65726f206164647265737300604482015260640161082f565b611736600082613053565b6040516001600160a01b038216907ff68e73cec97f2d70aa641fb26e87a4383686e2efacb648f2165aeb02ac562ec590600090a250565b60005b838110156109a5576117c085858381811061178d5761178d6136a2565b90506020020160208101906117a29190613337565b8484848181106117b4576117b46136a2565b90506020020135612230565b50806117cb816136ee565b915050611770565b60006117de33610b34565b6118505760405162461bcd60e51b815260206004820152602e60248201527f4167656e74526f6c653a2063616c6c657220646f6573206e6f7420686176652060448201527f746865204167656e7420726f6c65000000000000000000000000000000000000606482015260840161082f565b6001600160a01b0384166000908152600160205260409020546000036118b85760405162461bcd60e51b815260206004820152601460248201527f6e6f20746f6b656e7320746f207265636f766572000000000000000000000000604482015260640161082f565b604080516001600160a01b0385166020820152839160009101604080518083037fffffffffffffffffffffffffffffffffffffffffffffffffffffffffffffffe00181529082905280516020909101207fd202158d000000000000000000000000000000000000000000000000000000008252600482018190526001602483015291506001600160a01b0383169063d202158d90604401602060405180830381865afa15801561196c573d6000803e3d6000fd5b505050506040513d601f19601f820116820180604052508101906119909190613739565b15611bf3576001600160a01b0386811660008181526001602090815260408083205460088352928190205460095482517f7e42683b0000000000000000000000000000000000000000000000000000000081526004810196909652915193959094610100909204169263454a03e0928b9289928692637e42683b92602480820193918290030181865afa158015611a2b573d6000803e3d6000fd5b505050506040513d601f19601f82011682018060405250810190611a4f91906137f0565b6040517fffffffff0000000000000000000000000000000000000000000000000000000060e086901b1681526001600160a01b03938416600482015292909116602483015261ffff166044820152606401600060405180830381600087803b158015611aba57600080fd5b505af1158015611ace573d6000803e3d6000fd5b50505050611add888884611f1c565b508015611aee57611aee87826107b8565b6001600160a01b03881660009081526007602052604090205460ff161515600103611b1e57611b1e876001612776565b6009546040517fa8d29d1d0000000000000000000000000000000000000000000000000000000081526001600160a01b038a811660048301526101009092049091169063a8d29d1d90602401600060405180830381600087803b158015611b8457600080fd5b505af1158015611b98573d6000803e3d6000fd5b50505050856001600160a01b0316876001600160a01b0316896001600160a01b03167ff0c9129a94f30f1caaceb63e44b9811d0a3edf1d6c23757f346093af5553fed060405160405180910390a46001945050505050610eef565b60405162461bcd60e51b815260206004820152601560248201527f5265636f76657279206e6f7420706f737369626c650000000000000000000000604482015260640161082f565b60606005805461071e9061360d565b611c52612e6e565b6001600160a01b038116611ca85760405162461bcd60e51b815260206004820152601f60248201527f696e76616c696420617267756d656e74202d207a65726f206164647265737300604482015260640161082f565b611cb36000826130cf565b6040516001600160a01b038216907fed9c8ad8d5a0a66898ea49d2956929c93ae2e8bd50281b2ed897c5d1a6737e0b90600090a250565b611cf333610b34565b611d655760405162461bcd60e51b815260206004820152602e60248201527f4167656e74526f6c653a2063616c6c657220646f6573206e6f7420686176652060448201527f746865204167656e7420726f6c65000000000000000000000000000000000000606482015260840161082f565b80611d85836001600160a01b031660009081526001602052604090205490565b1015611dd35760405162461bcd60e51b815260206004820152601d60248201527f63616e6e6f74206275726e206d6f7265207468616e2062616c616e6365000000604482015260640161082f565b6001600160a01b0382166000908152600860209081526040808320546001909252822054611e019190613726565b905080821115611e97576000611e178284613726565b6001600160a01b038516600090815260086020526040902054909150611e3e908290613726565b6001600160a01b038516600081815260086020526040908190209290925590517f9bed35cb62ad0dba04f9d5bfee4b5bc91443e77da8a65c4c84834c51bb08b0d690611e8d9084815260200190565b60405180910390a2505b611ea1838361316d565b600a546040517f8d2ea7720000000000000000000000000000000000000000000000000000000081526001600160a01b0385811660048301526024820185905290911690638d2ea77290604401600060405180830381600087803b158015611f0857600080fd5b505af1158015611476573d6000803e3d6000fd5b6000611f2733610b34565b611f995760405162461bcd60e51b815260206004820152602e60248201527f4167656e74526f6c653a2063616c6c657220646f6573206e6f7420686176652060448201527f746865204167656e7420726f6c65000000000000000000000000000000000000606482015260840161082f565b81611fb9856001600160a01b031660009081526001602052604090205490565b10156120075760405162461bcd60e51b815260206004820152601660248201527f73656e6465722062616c616e636520746f6f206c6f7700000000000000000000604482015260640161082f565b6001600160a01b03841660009081526008602090815260408083205460019092528220546120359190613726565b9050808311156120cb57600061204b8285613726565b6001600160a01b038716600090815260086020526040902054909150612072908290613726565b6001600160a01b038716600081815260086020526040908190209290925590517f9bed35cb62ad0dba04f9d5bfee4b5bc91443e77da8a65c4c84834c51bb08b0d6906120c19084815260200190565b60405180910390a2505b6009546040517fb9209e330000000000000000000000000000000000000000000000000000000081526001600160a01b0386811660048301526101009092049091169063b9209e3390602401602060405180830381865afa158015612134573d6000803e3d6000fd5b505050506040513d601f19601f820116820180604052508101906121589190613739565b15610ea757612168858585612cce565b600a546040517f8baf29b40000000000000000000000000000000000000000000000000000000081526001600160a01b03878116600483015286811660248301526044820186905290911690638baf29b490606401600060405180830381600087803b1580156121d757600080fd5b505af11580156121eb573d6000803e3d6000fd5b505050506001915050610eef565b3360008181526002602090815260408083206001600160a01b038716845290915281205490916107ae918590610e07908690613726565b60095460009060ff16156122865760405162461bcd60e51b815260206004820152601060248201527f5061757361626c653a2070617573656400000000000000000000000000000000604482015260640161082f565b6001600160a01b03831660009081526007602052604090205460ff161580156122bf57503360009081526007602052604090205460ff16155b61230b5760405162461bcd60e51b815260206004820152601060248201527f77616c6c65742069732066726f7a656e00000000000000000000000000000000604482015260640161082f565b336000908152600860209081526040808320546001909252909120546123319190613726565b8211156123805760405162461bcd60e51b815260206004820152601460248201527f496e73756666696369656e742042616c616e6365000000000000000000000000604482015260640161082f565b6009546040517fb9209e330000000000000000000000000000000000000000000000000000000081526001600160a01b0385811660048301526101009092049091169063b9209e3390602401602060405180830381865afa1580156123e9573d6000803e3d6000fd5b505050506040513d601f19601f8201168201806040525081019061240d9190613739565b80156124a85750600a546040517fe46638e60000000000000000000000000000000000000000000000000000000081523360048201526001600160a01b038581166024830152604482018590529091169063e46638e690606401602060405180830381865afa158015612484573d6000803e3d6000fd5b505050506040513d601f19601f820116820180604052508101906124a89190613739565b15610ea7576124b8338484612cce565b600a546040517f8baf29b40000000000000000000000000000000000000000000000000000000081523360048201526001600160a01b0385811660248301526044820185905290911690638baf29b490606401600060405180830381600087803b15801561252557600080fd5b505af1158015612539573d6000803e3d6000fd5b50505050600190506107b2565b61254e612e6e565b60405160200161256990602080825260009082015260400190565b604051602081830303815290604052805190602001208282604051602001612592929190613814565b60405160208183030381529060405280519060200120036125f55760405162461bcd60e51b815260206004820152601f60248201527f696e76616c696420617267756d656e74202d20656d70747920737472696e6700604482015260640161082f565b60056126028284836138d6565b506006546040516101009091046001600160a01b03169061262590600590613756565b6040518091039020600460405161263c9190613756565b604080519182900382206006548383018352600584527f342e312e310000000000000000000000000000000000000000000000000000006020850152915190927f6a1105ac8148a3c319adbc369f9072573e8a11d3a3d195e067e7c40767ec54d1926126ae9260ff90911691906137cc565b60405180910390a45050565b6126c2612e6e565b6040516020016126dd90602080825260009082015260400190565b604051602081830303815290604052805190602001208282604051602001612706929190613814565b60405160208183030381529060405280519060200120036127695760405162461bcd60e51b815260206004820152601f60248201527f696e76616c696420617267756d656e74202d20656d70747920737472696e6700604482015260640161082f565b60046126028284836138d6565b61277f33610b34565b6127f15760405162461bcd60e51b815260206004820152602e60248201527f4167656e74526f6c653a2063616c6c657220646f6573206e6f7420686176652060448201527f746865204167656e7420726f6c65000000000000000000000000000000000000606482015260840161082f565b6001600160a01b038216600081815260076020526040808220805460ff19168515159081179091559051339391927f7fa523c84ab8d7fc5b72f08b9e46dbbf10c39e119a075b3e317002d14bc9f43691a45050565b61284e612e6e565b600980547fffffffffffffffffffffff0000000000000000000000000000000000000000ff166101006001600160a01b038416908102919091179091556040517fd2be862d755bca7e0d39772b2cab3a5578da9c285f69199f4c063c2294a7f36c90600090a250565b6128bf612e6e565b6001600160a01b038116612902576040517f1e4fbdf70000000000000000000000000000000000000000000000000000000081526000600482015260240161082f565b61290b81612fca565b50565b612916612e6e565b600a546001600160a01b03161561299e57600a546040517f40db3b500000000000000000000000000000000000000000000000000000000081523060048201526001600160a01b03909116906340db3b5090602401600060405180830381600087803b15801561298557600080fd5b505af1158015612999573d6000803e3d6000fd5b505050505b600a80547fffffffffffffffffffffffff0000000000000000000000000000000000000000166001600160a01b0383169081179091556040517f3ff5aa02000000000000000000000000000000000000000000000000000000008152306004820152633ff5aa0290602401600060405180830381600087803b158015612a2357600080fd5b505af1158015612a37573d6000803e3d6000fd5b50506040516001600160a01b03841692507f7f3a888862559648ec01d97deb7b5012bff86dc91e654a1de397170db40e35b69150600090a250565b60005b838110156109a557612ac5858583818110612a9257612a926136a2565b9050602002016020810190612aa79190613337565b848484818110612ab957612ab96136a2565b905060200201356107b8565b80612acf816136ee565b915050612a75565b6001600160a01b038316612b525760405162461bcd60e51b8152602060048201526024808201527f45524332303a20617070726f76652066726f6d20746865207a65726f2061646460448201527f7265737300000000000000000000000000000000000000000000000000000000606482015260840161082f565b6001600160a01b038216612bce5760405162461bcd60e51b815260206004820152602260248201527f45524332303a20617070726f766520746f20746865207a65726f20616464726560448201527f7373000000000000000000000000000000000000000000000000000000000000606482015260840161082f565b6001600160a01b0383811660008181526002602090815260408083209487168084529482529182902085905590518481527f8c5be1e5ebec7d5bd14f71427d1e84f3dd0314c0f7b2291e5b200ac8c7c3b92591015b60405180910390a3505050565b60006001600160a01b038216612cae5760405162461bcd60e51b815260206004820152602260248201527f526f6c65733a206163636f756e7420697320746865207a65726f20616464726560448201527f7373000000000000000000000000000000000000000000000000000000000000606482015260840161082f565b506001600160a01b03166000908152602091909152604090205460ff1690565b6001600160a01b038316612d4a5760405162461bcd60e51b815260206004820152602560248201527f45524332303a207472616e736665722066726f6d20746865207a65726f20616460448201527f6472657373000000000000000000000000000000000000000000000000000000606482015260840161082f565b6001600160a01b038216612dc65760405162461bcd60e51b815260206004820152602360248201527f45524332303a207472616e7366657220746f20746865207a65726f206164647260448201527f6573730000000000000000000000000000000000000000000000000000000000606482015260840161082f565b6001600160a01b038316600090815260016020526040902054612dea908290613726565b6001600160a01b038085166000908152600160205260408082209390935590841681522054612e1a90829061368f565b6001600160a01b0380841660008181526001602052604090819020939093559151908516907fddf252ad1be2c89b69c2b068fc378daa952ba7f163c4a11628f55a4df523b3ef90612c239085815260200190565b33612ea07f9016d09d72d40fdae2fd8ceac6b6234c7706214fd39c1cd1e609a0528c199300546001600160a01b031690565b6001600160a01b0316146115c0576040517f118cdaa700000000000000000000000000000000000000000000000000000000815233600482015260240161082f565b6001600160a01b038216612f385760405162461bcd60e51b815260206004820152601f60248201527f45524332303a206d696e7420746f20746865207a65726f206164647265737300604482015260640161082f565b80600354612f46919061368f565b6003556001600160a01b038216600090815260016020526040902054612f6d90829061368f565b6001600160a01b0383166000818152600160205260408082209390935591519091907fddf252ad1be2c89b69c2b068fc378daa952ba7f163c4a11628f55a4df523b3ef90612fbe9085815260200190565b60405180910390a35050565b7f9016d09d72d40fdae2fd8ceac6b6234c7706214fd39c1cd1e609a0528c19930080547fffffffffffffffffffffffff000000000000000000000000000000000000000081166001600160a01b03848116918217845560405192169182907f8be0079c531659141344cd1fd0a4f28419497f9722a3daafe3b4186f6b6457e090600090a3505050565b61305d8282612c30565b156130aa5760405162461bcd60e51b815260206004820152601f60248201527f526f6c65733a206163636f756e7420616c72656164792068617320726f6c6500604482015260640161082f565b6001600160a01b0316600090815260209190915260409020805460ff19166001179055565b6130d98282612c30565b61314b5760405162461bcd60e51b815260206004820152602160248201527f526f6c65733a206163636f756e7420646f6573206e6f74206861766520726f6c60448201527f6500000000000000000000000000000000000000000000000000000000000000606482015260840161082f565b6001600160a01b0316600090815260209190915260409020805460ff19169055565b6001600160a01b0382166131e95760405162461bcd60e51b815260206004820152602160248201527f45524332303a206275726e2066726f6d20746865207a65726f2061646472657360448201527f7300000000000000000000000000000000000000000000000000000000000000606482015260840161082f565b6001600160a01b03821660009081526001602052604090205461320d908290613726565b6001600160a01b038316600090815260016020526040902055600354613234908290613726565b6003556040518181526000906001600160a01b038416907fddf252ad1be2c89b69c2b068fc378daa952ba7f163c4a11628f55a4df523b3ef90602001612fbe565b505050565b6000815180845260005b818110156132a057602081850181015186830182015201613284565b5060006020828601015260207fffffffffffffffffffffffffffffffffffffffffffffffffffffffffffffffe0601f83011685010191505092915050565b602081526000610eef602083018461327a565b80356001600160a01b038116811461330857600080fd5b919050565b6000806040838503121561332057600080fd5b613329836132f1565b946020939093013593505050565b60006020828403121561334957600080fd5b610eef826132f1565b60008083601f84011261336457600080fd5b50813567ffffffffffffffff81111561337c57600080fd5b6020830191508360208260051b850101111561339757600080fd5b9250929050565b600080600080604085870312156133b457600080fd5b843567ffffffffffffffff808211156133cc57600080fd5b6133d888838901613352565b909650945060208701359150808211156133f157600080fd5b506133fe87828801613352565b95989497509550505050565b60008060006060848603121561341f57600080fd5b613428846132f1565b9250613436602085016132f1565b9150604084013590509250925092565b6000806000806000806060878903121561345f57600080fd5b863567ffffffffffffffff8082111561347757600080fd5b6134838a838b01613352565b9098509650602089013591508082111561349c57600080fd5b6134a88a838b01613352565b909650945060408901359150808211156134c157600080fd5b506134ce89828a01613352565b979a9699509497509295939492505050565b6000806000606084860312156134f557600080fd5b6134fe846132f1565b925061350c602085016132f1565b915061351a604085016132f1565b90509250925092565b6000806020838503121561353657600080fd5b823567ffffffffffffffff8082111561354e57600080fd5b818501915085601f83011261356257600080fd5b81358181111561357157600080fd5b86602082850101111561358357600080fd5b60209290920196919550909350505050565b801515811461290b57600080fd5b600080604083850312156135b657600080fd5b6135bf836132f1565b915060208301356135cf81613595565b809150509250929050565b600080604083850312156135ed57600080fd5b6135f6836132f1565b9150613604602084016132f1565b90509250929050565b600181811c9082168061362157607f821691505b60208210810361365a577f4e487b7100000000000000000000000000000000000000000000000000000000600052602260045260246000fd5b50919050565b7f4e487b7100000000000000000000000000000000000000000000000000000000600052601160045260246000fd5b808201808211156107b2576107b2613660565b7f4e487b7100000000000000000000000000000000000000000000000000000000600052603260045260246000fd5b6000602082840312156136e357600080fd5b8135610eef81613595565b60007fffffffffffffffffffffffffffffffffffffffffffffffffffffffffffffffff820361371f5761371f613660565b5060010190565b818103818111156107b2576107b2613660565b60006020828403121561374b57600080fd5b8151610eef81613595565b60008083546137648161360d565b6001828116801561377c5760018114613791576137c0565b60ff19841687528215158302870194506137c0565b8760005260208060002060005b858110156137b75781548a82015290840190820161379e565b50505082870194505b50929695505050505050565b60ff831681526040602082015260006137e8604083018461327a565b949350505050565b60006020828403121561380257600080fd5b815161ffff81168114610eef57600080fd5b60208152816020820152818360408301376000818301604090810191909152601f9092017fffffffffffffffffffffffffffffffffffffffffffffffffffffffffffffffe0160101919050565b7f4e487b7100000000000000000000000000000000000000000000000000000000600052604160045260246000fd5b601f82111561327557600081815260208120601f850160051c810160208610156138b75750805b601f850160051c820191505b818110156113e1578281556001016138c3565b67ffffffffffffffff8311156138ee576138ee613861565b613902836138fc835461360d565b83613890565b6000601f841160018114613954576000851561391e5750838201355b7fffffffffffffffffffffffffffffffffffffffffffffffffffffffffffffffff600387901b1c1916600186901b1783556109a5565b6000838152602090207fffffffffffffffffffffffffffffffffffffffffffffffffffffffffffffffe0861690835b828110156139a35786850135825560209485019460019092019101613983565b50868210156139de577fffffffffffffffffffffffffffffffffffffffffffffffffffffffffffffffff60f88860031b161c19848701351681555b505060018560011b018355505050505056fea164736f6c6343000815000a",
    "linkReferences": {}
  },
  "methodIdentifiers": {
    "addAgent(address)": "84e79842",
    "allowance(address,address)": "dd62ed3e",
    "approve(address,uint256)": "095ea7b3",
    "balanceOf(address)": "70a08231",
    "batchBurn(address[],uint256[])": "4a6cc677",
    "batchForcedTransfer(address[],address[],uint256[])": "42a47abc",
    "batchFreezePartialTokens(address[],uint256[])": "fc7e5fa8",
    "batchMint(address[],uint256[])": "68573107",
    "batchSetAddressFrozen(address[],bool[])": "1a7af379",
    "batchTransfer(address[],uint256[])": "88d695b2",
    "batchUnfreezePartialTokens(address[],uint256[])": "4710362d",
    "burn(address,uint256)": "9dc29fac",
    "compliance()": "6290865d",
    "decimals()": "313ce567",
    "decreaseAllowance(address,uint256)": "a457c2d7",
    "forcedTransfer(address,address,uint256)": "9fc1d0e7",
    "freezePartialTokens(address,uint256)": "125c4a33",
    "getFrozenTokens(address)": "158b1a57",
    "identityRegistry()": "134e18f4",
    "increaseAllowance(address,uint256)": "39509351",
    "isAgent(address)": "1ffbb064",
    "isFrozen(address)": "e5839836",
    "mint(address,uint256)": "40c10f19",
    "name()": "06fdde03",
    "onchainID()": "aba63705",
    "owner()": "8da5cb5b",
    "pause()": "8456cb59",
    "paused()": "5c975abb",
    "recoveryAddress(address,address,address)": "9285948a",
    "removeAgent(address)": "97a6278e",
    "renounceOwnership()": "715018a6",
    "setAddressFrozen(address,bool)": "c69c09cf",
    "setCompliance(address)": "f8981789",
    "setIdentityRegistry(address)": "cbf3f861",
    "setName(string)": "c47f0027",
    "setOnchainID(address)": "3d1ddc5b",
    "setSymbol(string)": "b84c8246",
    "symbol()": "95d89b41",
    "totalSupply()": "18160ddd",
    "transfer(address,uint256)": "a9059cbb",
    "transferFrom(address,address,uint256)": "23b872dd",
    "transferOwnership(address)": "f2fde38b",
    "unfreezePartialTokens(address,uint256)": "1fe56f7d",
    "unpause()": "3f4ba83a",
    "version()": "54fd4d50"
  },
  "id": 58
}