{
  "abi": [
    {
      "inputs": [
        {
          "components": [
            {
              "internalType": "address",
              "name": "linkToken",
              "type": "address"
            },
            {
              "internalType": "uint64",
              "name": "chainSelector",
              "type": "uint64"
            },
            {
              "internalType": "uint64",
              "name": "destChainSelector",
              "type": "uint64"
            },
            {
              "internalType": "uint64",
              "name": "defaultTxGasLimit",
              "type": "uint64"
            },
            {
              "internalType": "uint96",
              "name": "maxNopFeesJuels",
              "type": "uint96"
            },
            {
              "internalType": "address",
              "name": "prevOnRamp",
              "type": "address"
            },
            {
              "internalType": "address",
              "name": "armProxy",
              "type": "address"
            }
          ],
          "internalType": "struct EVM2EVMOnRamp.StaticConfig",
          "name": "staticConfig",
          "type": "tuple"
        },
        {
          "components": [
            {
              "internalType": "address",
              "name": "router",
              "type": "address"
            },
            {
              "internalType": "uint16",
              "name": "maxNumberOfTokensPerMsg",
              "type": "uint16"
            },
            {
              "internalType": "uint32",
              "name": "destGasOverhead",
              "type": "uint32"
            },
            {
              "internalType": "uint16",
              "name": "destGasPerPayloadByte",
              "type": "uint16"
            },
            {
              "internalType": "uint32",
              "name": "destDataAvailabilityOverheadGas",
              "type": "uint32"
            },
            {
              "internalType": "uint16",
              "name": "destGasPerDataAvailabilityByte",
              "type": "uint16"
            },
            {
              "internalType": "uint16",
              "name": "destDataAvailabilityMultiplierBps",
              "type": "uint16"
            },
            {
              "internalType": "address",
              "name": "priceRegistry",
              "type": "address"
            },
            {
              "internalType": "uint32",
              "name": "maxDataBytes",
              "type": "uint32"
            },
            {
              "internalType": "uint32",
              "name": "maxPerMsgGasLimit",
              "type": "uint32"
            }
          ],
          "internalType": "struct EVM2EVMOnRamp.DynamicConfig",
          "name": "dynamicConfig",
          "type": "tuple"
        },
        {
          "components": [
            {
              "internalType": "address",
              "name": "token",
              "type": "address"
            },
            {
              "internalType": "address",
              "name": "pool",
              "type": "address"
            }
          ],
          "internalType": "struct Internal.PoolUpdate[]",
          "name": "tokensAndPools",
          "type": "tuple[]"
        },
        {
          "components": [
            {
              "internalType": "bool",
              "name": "isEnabled",
              "type": "bool"
            },
            {
              "internalType": "uint128",
              "name": "capacity",
              "type": "uint128"
            },
            {
              "internalType": "uint128",
              "name": "rate",
              "type": "uint128"
            }
          ],
          "internalType": "struct RateLimiter.Config",
          "name": "rateLimiterConfig",
          "type": "tuple"
        },
        {
          "components": [
            {
              "internalType": "address",
              "name": "token",
              "type": "address"
            },
            {
              "internalType": "uint32",
              "name": "networkFeeUSDCents",
              "type": "uint32"
            },
            {
              "internalType": "uint64",
              "name": "gasMultiplierWeiPerEth",
              "type": "uint64"
            },
            {
              "internalType": "uint64",
              "name": "premiumMultiplierWeiPerEth",
              "type": "uint64"
            },
            {
              "internalType": "bool",
              "name": "enabled",
              "type": "bool"
            }
          ],
          "internalType": "struct EVM2EVMOnRamp.FeeTokenConfigArgs[]",
          "name": "feeTokenConfigs",
          "type": "tuple[]"
        },
        {
          "components": [
            {
              "internalType": "address",
              "name": "token",
              "type": "address"
            },
            {
              "internalType": "uint32",
              "name": "minFeeUSDCents",
              "type": "uint32"
            },
            {
              "internalType": "uint32",
              "name": "maxFeeUSDCents",
              "type": "uint32"
            },
            {
              "internalType": "uint16",
              "name": "deciBps",
              "type": "uint16"
            },
            {
              "internalType": "uint32",
              "name": "destGasOverhead",
              "type": "uint32"
            },
            {
              "internalType": "uint32",
              "name": "destBytesOverhead",
              "type": "uint32"
            }
          ],
          "internalType": "struct EVM2EVMOnRamp.TokenTransferFeeConfigArgs[]",
          "name": "tokenTransferFeeConfigArgs",
          "type": "tuple[]"
        },
        {
          "components": [
            {
              "internalType": "address",
              "name": "nop",
              "type": "address"
            },
            {
              "internalType": "uint16",
              "name": "weight",
              "type": "uint16"
            }
          ],
          "internalType": "struct EVM2EVMOnRamp.NopAndWeight[]",
          "name": "nopsAndWeights",
          "type": "tuple[]"
        }
      ],
      "stateMutability": "nonpayable",
      "type": "constructor"
    },
    {
      "inputs": [
        {
          "internalType": "uint256",
          "name": "capacity",
          "type": "uint256"
        },
        {
          "internalType": "uint256",
          "name": "requested",
          "type": "uint256"
        }
      ],
      "name": "AggregateValueMaxCapacityExceeded",
      "type": "error"
    },
    {
      "inputs": [
        {
          "internalType": "uint256",
          "name": "minWaitInSeconds",
          "type": "uint256"
        },
        {
          "internalType": "uint256",
          "name": "available",
          "type": "uint256"
        }
      ],
      "name": "AggregateValueRateLimitReached",
      "type": "error"
    },
    {
      "inputs": [],
      "name": "BadARMSignal",
      "type": "error"
    },
    {
      "inputs": [],
      "name": "BucketOverfilled",
      "type": "error"
    },
    {
      "inputs": [],
      "name": "CannotSendZeroTokens",
      "type": "error"
    },
    {
      "inputs": [],
      "name": "InsufficientBalance",
      "type": "error"
    },
    {
      "inputs": [
        {
          "internalType": "bytes",
          "name": "encodedAddress",
          "type": "bytes"
        }
      ],
      "name": "InvalidAddress",
      "type": "error"
    },
    {
      "inputs": [
        {
          "internalType": "uint64",
          "name": "chainSelector",
          "type": "uint64"
        }
      ],
      "name": "InvalidChainSelector",
      "type": "error"
    },
    {
      "inputs": [],
      "name": "InvalidConfig",
      "type": "error"
    },
    {
      "inputs": [],
      "name": "InvalidExtraArgsTag",
      "type": "error"
    },
    {
      "inputs": [
        {
          "internalType": "address",
          "name": "nop",
          "type": "address"
        }
      ],
      "name": "InvalidNopAddress",
      "type": "error"
    },
    {
      "inputs": [],
      "name": "InvalidTokenPoolConfig",
      "type": "error"
    },
    {
      "inputs": [],
      "name": "InvalidWithdrawParams",
      "type": "error"
    },
    {
      "inputs": [],
      "name": "LinkBalanceNotSettled",
      "type": "error"
    },
    {
      "inputs": [],
      "name": "MaxFeeBalanceReached",
      "type": "error"
    },
    {
      "inputs": [],
      "name": "MessageGasLimitTooHigh",
      "type": "error"
    },
    {
      "inputs": [
        {
          "internalType": "uint256",
          "name": "maxSize",
          "type": "uint256"
        },
        {
          "internalType": "uint256",
          "name": "actualSize",
          "type": "uint256"
        }
      ],
      "name": "MessageTooLarge",
      "type": "error"
    },
    {
      "inputs": [],
      "name": "MustBeCalledByRouter",
      "type": "error"
    },
    {
      "inputs": [],
      "name": "NoFeesToPay",
      "type": "error"
    },
    {
      "inputs": [],
      "name": "NoNopsToPay",
      "type": "error"
    },
    {
      "inputs": [
        {
          "internalType": "address",
          "name": "token",
          "type": "address"
        }
      ],
      "name": "NotAFeeToken",
      "type": "error"
    },
    {
      "inputs": [],
      "name": "OnlyCallableByAdminOrOwner",
      "type": "error"
    },
    {
      "inputs": [],
      "name": "OnlyCallableByOwnerOrAdmin",
      "type": "error"
    },
    {
      "inputs": [],
      "name": "OnlyCallableByOwnerOrAdminOrNop",
      "type": "error"
    },
    {
      "inputs": [],
      "name": "PoolAlreadyAdded",
      "type": "error"
    },
    {
      "inputs": [
        {
          "internalType": "address",
          "name": "token",
          "type": "address"
        }
      ],
      "name": "PoolDoesNotExist",
      "type": "error"
    },
    {
      "inputs": [
        {
          "internalType": "address",
          "name": "token",
          "type": "address"
        }
      ],
      "name": "PriceNotFoundForToken",
      "type": "error"
    },
    {
      "inputs": [],
      "name": "RouterMustSetOriginalSender",
      "type": "error"
    },
    {
      "inputs": [
        {
          "internalType": "address",
          "name": "token",
          "type": "address"
        }
      ],
      "name": "SourceTokenDataTooLarge",
      "type": "error"
    },
    {
      "inputs": [
        {
          "internalType": "uint256",
          "name": "capacity",
          "type": "uint256"
        },
        {
          "internalType": "uint256",
          "name": "requested",
          "type": "uint256"
        },
        {
          "internalType": "address",
          "name": "tokenAddress",
          "type": "address"
        }
      ],
      "name": "TokenMaxCapacityExceeded",
      "type": "error"
    },
    {
      "inputs": [],
      "name": "TokenPoolMismatch",
      "type": "error"
    },
    {
      "inputs": [
        {
          "internalType": "uint256",
          "name": "minWaitInSeconds",
          "type": "uint256"
        },
        {
          "internalType": "uint256",
          "name": "available",
          "type": "uint256"
        },
        {
          "internalType": "address",
          "name": "tokenAddress",
          "type": "address"
        }
      ],
      "name": "TokenRateLimitReached",
      "type": "error"
    },
    {
      "inputs": [],
      "name": "TooManyNops",
      "type": "error"
    },
    {
      "inputs": [],
      "name": "UnsupportedNumberOfTokens",
      "type": "error"
    },
    {
      "inputs": [
        {
          "internalType": "contract IERC20",
          "name": "token",
          "type": "address"
        }
      ],
      "name": "UnsupportedToken",
      "type": "error"
    },
    {
      "anonymous": false,
      "inputs": [
        {
          "indexed": false,
          "internalType": "address",
          "name": "newAdmin",
          "type": "address"
        }
      ],
      "name": "AdminSet",
      "type": "event"
    },
    {
      "anonymous": false,
      "inputs": [
        {
          "components": [
            {
              "internalType": "uint64",
              "name": "sourceChainSelector",
              "type": "uint64"
            },
            {
              "internalType": "address",
              "name": "sender",
              "type": "address"
            },
            {
              "internalType": "address",
              "name": "receiver",
              "type": "address"
            },
            {
              "internalType": "uint64",
              "name": "sequenceNumber",
              "type": "uint64"
            },
            {
              "internalType": "uint256",
              "name": "gasLimit",
              "type": "uint256"
            },
            {
              "internalType": "bool",
              "name": "strict",
              "type": "bool"
            },
            {
              "internalType": "uint64",
              "name": "nonce",
              "type": "uint64"
            },
            {
              "internalType": "address",
              "name": "feeToken",
              "type": "address"
            },
            {
              "internalType": "uint256",
              "name": "feeTokenAmount",
              "type": "uint256"
            },
            {
              "internalType": "bytes",
              "name": "data",
              "type": "bytes"
            },
            {
              "components": [
                {
                  "internalType": "address",
                  "name": "token",
                  "type": "address"
                },
                {
                  "internalType": "uint256",
                  "name": "amount",
                  "type": "uint256"
                }
              ],
              "internalType": "struct Client.EVMTokenAmount[]",
              "name": "tokenAmounts",
              "type": "tuple[]"
            },
            {
              "internalType": "bytes[]",
              "name": "sourceTokenData",
              "type": "bytes[]"
            },
            {
              "internalType": "bytes32",
              "name": "messageId",
              "type": "bytes32"
            }
          ],
          "indexed": false,
          "internalType": "struct Internal.EVM2EVMMessage",
          "name": "message",
          "type": "tuple"
        }
      ],
      "name": "CCIPSendRequested",
      "type": "event"
    },
    {
      "anonymous": false,
      "inputs": [
        {
          "components": [
            {
              "internalType": "bool",
              "name": "isEnabled",
              "type": "bool"
            },
            {
              "internalType": "uint128",
              "name": "capacity",
              "type": "uint128"
            },
            {
              "internalType": "uint128",
              "name": "rate",
              "type": "uint128"
            }
          ],
          "indexed": false,
          "internalType": "struct RateLimiter.Config",
          "name": "config",
          "type": "tuple"
        }
      ],
      "name": "ConfigChanged",
      "type": "event"
    },
    {
      "anonymous": false,
      "inputs": [
        {
          "components": [
            {
              "internalType": "address",
              "name": "linkToken",
              "type": "address"
            },
            {
              "internalType": "uint64",
              "name": "chainSelector",
              "type": "uint64"
            },
            {
              "internalType": "uint64",
              "name": "destChainSelector",
              "type": "uint64"
            },
            {
              "internalType": "uint64",
              "name": "defaultTxGasLimit",
              "type": "uint64"
            },
            {
              "internalType": "uint96",
              "name": "maxNopFeesJuels",
              "type": "uint96"
            },
            {
              "internalType": "address",
              "name": "prevOnRamp",
              "type": "address"
            },
            {
              "internalType": "address",
              "name": "armProxy",
              "type": "address"
            }
          ],
          "indexed": false,
          "internalType": "struct EVM2EVMOnRamp.StaticConfig",
          "name": "staticConfig",
          "type": "tuple"
        },
        {
          "components": [
            {
              "internalType": "address",
              "name": "router",
              "type": "address"
            },
            {
              "internalType": "uint16",
              "name": "maxNumberOfTokensPerMsg",
              "type": "uint16"
            },
            {
              "internalType": "uint32",
              "name": "destGasOverhead",
              "type": "uint32"
            },
            {
              "internalType": "uint16",
              "name": "destGasPerPayloadByte",
              "type": "uint16"
            },
            {
              "internalType": "uint32",
              "name": "destDataAvailabilityOverheadGas",
              "type": "uint32"
            },
            {
              "internalType": "uint16",
              "name": "destGasPerDataAvailabilityByte",
              "type": "uint16"
            },
            {
              "internalType": "uint16",
              "name": "destDataAvailabilityMultiplierBps",
              "type": "uint16"
            },
            {
              "internalType": "address",
              "name": "priceRegistry",
              "type": "address"
            },
            {
              "internalType": "uint32",
              "name": "maxDataBytes",
              "type": "uint32"
            },
            {
              "internalType": "uint32",
              "name": "maxPerMsgGasLimit",
              "type": "uint32"
            }
          ],
          "indexed": false,
          "internalType": "struct EVM2EVMOnRamp.DynamicConfig",
          "name": "dynamicConfig",
          "type": "tuple"
        }
      ],
      "name": "ConfigSet",
      "type": "event"
    },
    {
      "anonymous": false,
      "inputs": [
        {
          "components": [
            {
              "internalType": "address",
              "name": "token",
              "type": "address"
            },
            {
              "internalType": "uint32",
              "name": "networkFeeUSDCents",
              "type": "uint32"
            },
            {
              "internalType": "uint64",
              "name": "gasMultiplierWeiPerEth",
              "type": "uint64"
            },
            {
              "internalType": "uint64",
              "name": "premiumMultiplierWeiPerEth",
              "type": "uint64"
            },
            {
              "internalType": "bool",
              "name": "enabled",
              "type": "bool"
            }
          ],
          "indexed": false,
          "internalType": "struct EVM2EVMOnRamp.FeeTokenConfigArgs[]",
          "name": "feeConfig",
          "type": "tuple[]"
        }
      ],
      "name": "FeeConfigSet",
      "type": "event"
    },
    {
      "anonymous": false,
      "inputs": [
        {
          "indexed": true,
          "internalType": "address",
          "name": "nop",
          "type": "address"
        },
        {
          "indexed": false,
          "internalType": "uint256",
          "name": "amount",
          "type": "uint256"
        }
      ],
      "name": "NopPaid",
      "type": "event"
    },
    {
      "anonymous": false,
      "inputs": [
        {
          "indexed": false,
          "internalType": "uint256",
          "name": "nopWeightsTotal",
          "type": "uint256"
        },
        {
          "components": [
            {
              "internalType": "address",
              "name": "nop",
              "type": "address"
            },
            {
              "internalType": "uint16",
              "name": "weight",
              "type": "uint16"
            }
          ],
          "indexed": false,
          "internalType": "struct EVM2EVMOnRamp.NopAndWeight[]",
          "name": "nopsAndWeights",
          "type": "tuple[]"
        }
      ],
      "name": "NopsSet",
      "type": "event"
    },
    {
      "anonymous": false,
      "inputs": [
        {
          "indexed": true,
          "internalType": "address",
          "name": "from",
          "type": "address"
        },
        {
          "indexed": true,
          "internalType": "address",
          "name": "to",
          "type": "address"
        }
      ],
      "name": "OwnershipTransferRequested",
      "type": "event"
    },
    {
      "anonymous": false,
      "inputs": [
        {
          "indexed": true,
          "internalType": "address",
          "name": "from",
          "type": "address"
        },
        {
          "indexed": true,
          "internalType": "address",
          "name": "to",
          "type": "address"
        }
      ],
      "name": "OwnershipTransferred",
      "type": "event"
    },
    {
      "anonymous": false,
      "inputs": [
        {
          "indexed": false,
          "internalType": "address",
          "name": "token",
          "type": "address"
        },
        {
          "indexed": false,
          "internalType": "address",
          "name": "pool",
          "type": "address"
        }
      ],
      "name": "PoolAdded",
      "type": "event"
    },
    {
      "anonymous": false,
      "inputs": [
        {
          "indexed": false,
          "internalType": "address",
          "name": "token",
          "type": "address"
        },
        {
          "indexed": false,
          "internalType": "address",
          "name": "pool",
          "type": "address"
        }
      ],
      "name": "PoolRemoved",
      "type": "event"
    },
    {
      "anonymous": false,
      "inputs": [
        {
          "components": [
            {
              "internalType": "address",
              "name": "token",
              "type": "address"
            },
            {
              "internalType": "uint32",
              "name": "minFeeUSDCents",
              "type": "uint32"
            },
            {
              "internalType": "uint32",
              "name": "maxFeeUSDCents",
              "type": "uint32"
            },
            {
              "internalType": "uint16",
              "name": "deciBps",
              "type": "uint16"
            },
            {
              "internalType": "uint32",
              "name": "destGasOverhead",
              "type": "uint32"
            },
            {
              "internalType": "uint32",
              "name": "destBytesOverhead",
              "type": "uint32"
            }
          ],
          "indexed": false,
          "internalType": "struct EVM2EVMOnRamp.TokenTransferFeeConfigArgs[]",
          "name": "transferFeeConfig",
          "type": "tuple[]"
        }
      ],
      "name": "TokenTransferFeeConfigSet",
      "type": "event"
    },
    {
      "anonymous": false,
      "inputs": [
        {
          "indexed": false,
          "internalType": "uint256",
          "name": "tokens",
          "type": "uint256"
        }
      ],
      "name": "TokensConsumed",
      "type": "event"
    },
    {
      "inputs": [],
      "name": "acceptOwnership",
      "outputs": [],
      "stateMutability": "nonpayable",
      "type": "function"
    },
    {
      "inputs": [
        {
          "components": [
            {
              "internalType": "address",
              "name": "token",
              "type": "address"
            },
            {
              "internalType": "address",
              "name": "pool",
              "type": "address"
            }
          ],
          "internalType": "struct Internal.PoolUpdate[]",
          "name": "removes",
          "type": "tuple[]"
        },
        {
          "components": [
            {
              "internalType": "address",
              "name": "token",
              "type": "address"
            },
            {
              "internalType": "address",
              "name": "pool",
              "type": "address"
            }
          ],
          "internalType": "struct Internal.PoolUpdate[]",
          "name": "adds",
          "type": "tuple[]"
        }
      ],
      "name": "applyPoolUpdates",
      "outputs": [],
      "stateMutability": "nonpayable",
      "type": "function"
    },
    {
      "inputs": [],
      "name": "currentRateLimiterState",
      "outputs": [
        {
          "components": [
            {
              "internalType": "uint128",
              "name": "tokens",
              "type": "uint128"
            },
            {
              "internalType": "uint32",
              "name": "lastUpdated",
              "type": "uint32"
            },
            {
              "internalType": "bool",
              "name": "isEnabled",
              "type": "bool"
            },
            {
              "internalType": "uint128",
              "name": "capacity",
              "type": "uint128"
            },
            {
              "internalType": "uint128",
              "name": "rate",
              "type": "uint128"
            }
          ],
          "internalType": "struct RateLimiter.TokenBucket",
          "name": "",
          "type": "tuple"
        }
      ],
      "stateMutability": "view",
      "type": "function"
    },
    {
      "inputs": [
        {
          "internalType": "uint64",
          "name": "destChainSelector",
          "type": "uint64"
        },
        {
          "components": [
            {
              "internalType": "bytes",
              "name": "receiver",
              "type": "bytes"
            },
            {
              "internalType": "bytes",
              "name": "data",
              "type": "bytes"
            },
            {
              "components": [
                {
                  "internalType": "address",
                  "name": "token",
                  "type": "address"
                },
                {
                  "internalType": "uint256",
                  "name": "amount",
                  "type": "uint256"
                }
              ],
              "internalType": "struct Client.EVMTokenAmount[]",
              "name": "tokenAmounts",
              "type": "tuple[]"
            },
            {
              "internalType": "address",
              "name": "feeToken",
              "type": "address"
            },
            {
              "internalType": "bytes",
              "name": "extraArgs",
              "type": "bytes"
            }
          ],
          "internalType": "struct Client.EVM2AnyMessage",
          "name": "message",
          "type": "tuple"
        },
        {
          "internalType": "uint256",
          "name": "feeTokenAmount",
          "type": "uint256"
        },
        {
          "internalType": "address",
          "name": "originalSender",
          "type": "address"
        }
      ],
      "name": "forwardFromRouter",
      "outputs": [
        {
          "internalType": "bytes32",
          "name": "",
          "type": "bytes32"
        }
      ],
      "stateMutability": "nonpayable",
      "type": "function"
    },
    {
      "inputs": [],
      "name": "getDynamicConfig",
      "outputs": [
        {
          "components": [
            {
              "internalType": "address",
              "name": "router",
              "type": "address"
            },
            {
              "internalType": "uint16",
              "name": "maxNumberOfTokensPerMsg",
              "type": "uint16"
            },
            {
              "internalType": "uint32",
              "name": "destGasOverhead",
              "type": "uint32"
            },
            {
              "internalType": "uint16",
              "name": "destGasPerPayloadByte",
              "type": "uint16"
            },
            {
              "internalType": "uint32",
              "name": "destDataAvailabilityOverheadGas",
              "type": "uint32"
            },
            {
              "internalType": "uint16",
              "name": "destGasPerDataAvailabilityByte",
              "type": "uint16"
            },
            {
              "internalType": "uint16",
              "name": "destDataAvailabilityMultiplierBps",
              "type": "uint16"
            },
            {
              "internalType": "address",
              "name": "priceRegistry",
              "type": "address"
            },
            {
              "internalType": "uint32",
              "name": "maxDataBytes",
              "type": "uint32"
            },
            {
              "internalType": "uint32",
              "name": "maxPerMsgGasLimit",
              "type": "uint32"
            }
          ],
          "internalType": "struct EVM2EVMOnRamp.DynamicConfig",
          "name": "dynamicConfig",
          "type": "tuple"
        }
      ],
      "stateMutability": "view",
      "type": "function"
    },
    {
      "inputs": [],
      "name": "getExpectedNextSequenceNumber",
      "outputs": [
        {
          "internalType": "uint64",
          "name": "",
          "type": "uint64"
        }
      ],
      "stateMutability": "view",
      "type": "function"
    },
    {
      "inputs": [
        {
          "internalType": "uint64",
          "name": "destChainSelector",
          "type": "uint64"
        },
        {
          "components": [
            {
              "internalType": "bytes",
              "name": "receiver",
              "type": "bytes"
            },
            {
              "internalType": "bytes",
              "name": "data",
              "type": "bytes"
            },
            {
              "components": [
                {
                  "internalType": "address",
                  "name": "token",
                  "type": "address"
                },
                {
                  "internalType": "uint256",
                  "name": "amount",
                  "type": "uint256"
                }
              ],
              "internalType": "struct Client.EVMTokenAmount[]",
              "name": "tokenAmounts",
              "type": "tuple[]"
            },
            {
              "internalType": "address",
              "name": "feeToken",
              "type": "address"
            },
            {
              "internalType": "bytes",
              "name": "extraArgs",
              "type": "bytes"
            }
          ],
          "internalType": "struct Client.EVM2AnyMessage",
          "name": "message",
          "type": "tuple"
        }
      ],
      "name": "getFee",
      "outputs": [
        {
          "internalType": "uint256",
          "name": "feeTokenAmount",
          "type": "uint256"
        }
      ],
      "stateMutability": "view",
      "type": "function"
    },
    {
      "inputs": [
        {
          "internalType": "address",
          "name": "token",
          "type": "address"
        }
      ],
      "name": "getFeeTokenConfig",
      "outputs": [
        {
          "components": [
            {
              "internalType": "uint32",
              "name": "networkFeeUSDCents",
              "type": "uint32"
            },
            {
              "internalType": "uint64",
              "name": "gasMultiplierWeiPerEth",
              "type": "uint64"
            },
            {
              "internalType": "uint64",
              "name": "premiumMultiplierWeiPerEth",
              "type": "uint64"
            },
            {
              "internalType": "bool",
              "name": "enabled",
              "type": "bool"
            }
          ],
          "internalType": "struct EVM2EVMOnRamp.FeeTokenConfig",
          "name": "feeTokenConfig",
          "type": "tuple"
        }
      ],
      "stateMutability": "view",
      "type": "function"
    },
    {
      "inputs": [],
      "name": "getNopFeesJuels",
      "outputs": [
        {
          "internalType": "uint96",
          "name": "",
          "type": "uint96"
        }
      ],
      "stateMutability": "view",
      "type": "function"
    },
    {
      "inputs": [],
      "name": "getNops",
      "outputs": [
        {
          "components": [
            {
              "internalType": "address",
              "name": "nop",
              "type": "address"
            },
            {
              "internalType": "uint16",
              "name": "weight",
              "type": "uint16"
            }
          ],
          "internalType": "struct EVM2EVMOnRamp.NopAndWeight[]",
          "name": "nopsAndWeights",
          "type": "tuple[]"
        },
        {
          "internalType": "uint256",
          "name": "weightsTotal",
          "type": "uint256"
        }
      ],
      "stateMutability": "view",
      "type": "function"
    },
    {
      "inputs": [
        {
          "internalType": "uint64",
          "name": "",
          "type": "uint64"
        },
        {
          "internalType": "contract IERC20",
          "name": "sourceToken",
          "type": "address"
        }
      ],
      "name": "getPoolBySourceToken",
      "outputs": [
        {
          "internalType": "contract IPool",
          "name": "",
          "type": "address"
        }
      ],
      "stateMutability": "view",
      "type": "function"
    },
    {
      "inputs": [
        {
          "internalType": "address",
          "name": "sender",
          "type": "address"
        }
      ],
      "name": "getSenderNonce",
      "outputs": [
        {
          "internalType": "uint64",
          "name": "",
          "type": "uint64"
        }
      ],
      "stateMutability": "view",
      "type": "function"
    },
    {
      "inputs": [],
      "name": "getStaticConfig",
      "outputs": [
        {
          "components": [
            {
              "internalType": "address",
              "name": "linkToken",
              "type": "address"
            },
            {
              "internalType": "uint64",
              "name": "chainSelector",
              "type": "uint64"
            },
            {
              "internalType": "uint64",
              "name": "destChainSelector",
              "type": "uint64"
            },
            {
              "internalType": "uint64",
              "name": "defaultTxGasLimit",
              "type": "uint64"
            },
            {
              "internalType": "uint96",
              "name": "maxNopFeesJuels",
              "type": "uint96"
            },
            {
              "internalType": "address",
              "name": "prevOnRamp",
              "type": "address"
            },
            {
              "internalType": "address",
              "name": "armProxy",
              "type": "address"
            }
          ],
          "internalType": "struct EVM2EVMOnRamp.StaticConfig",
          "name": "",
          "type": "tuple"
        }
      ],
      "stateMutability": "view",
      "type": "function"
    },
    {
      "inputs": [
        {
          "internalType": "uint64",
          "name": "",
          "type": "uint64"
        }
      ],
      "name": "getSupportedTokens",
      "outputs": [
        {
          "internalType": "address[]",
          "name": "",
          "type": "address[]"
        }
      ],
      "stateMutability": "view",
      "type": "function"
    },
    {
      "inputs": [],
      "name": "getTokenLimitAdmin",
      "outputs": [
        {
          "internalType": "address",
          "name": "",
          "type": "address"
        }
      ],
      "stateMutability": "view",
      "type": "function"
    },
    {
      "inputs": [
        {
          "internalType": "address",
          "name": "token",
          "type": "address"
        }
      ],
      "name": "getTokenTransferFeeConfig",
      "outputs": [
        {
          "components": [
            {
              "internalType": "uint32",
              "name": "minFeeUSDCents",
              "type": "uint32"
            },
            {
              "internalType": "uint32",
              "name": "maxFeeUSDCents",
              "type": "uint32"
            },
            {
              "internalType": "uint16",
              "name": "deciBps",
              "type": "uint16"
            },
            {
              "internalType": "uint32",
              "name": "destGasOverhead",
              "type": "uint32"
            },
            {
              "internalType": "uint32",
              "name": "destBytesOverhead",
              "type": "uint32"
            }
          ],
          "internalType": "struct EVM2EVMOnRamp.TokenTransferFeeConfig",
          "name": "tokenTransferFeeConfig",
          "type": "tuple"
        }
      ],
      "stateMutability": "view",
      "type": "function"
    },
    {
      "inputs": [],
      "name": "linkAvailableForPayment",
      "outputs": [
        {
          "internalType": "int256",
          "name": "",
          "type": "int256"
        }
      ],
      "stateMutability": "view",
      "type": "function"
    },
    {
      "inputs": [],
      "name": "owner",
      "outputs": [
        {
          "internalType": "address",
          "name": "",
          "type": "address"
        }
      ],
      "stateMutability": "view",
      "type": "function"
    },
    {
      "inputs": [],
      "name": "payNops",
      "outputs": [],
      "stateMutability": "nonpayable",
      "type": "function"
    },
    {
      "inputs": [
        {
          "internalType": "address",
          "name": "newAdmin",
          "type": "address"
        }
      ],
      "name": "setAdmin",
      "outputs": [],
      "stateMutability": "nonpayable",
      "type": "function"
    },
    {
      "inputs": [
        {
          "components": [
            {
              "internalType": "address",
              "name": "router",
              "type": "address"
            },
            {
              "internalType": "uint16",
              "name": "maxNumberOfTokensPerMsg",
              "type": "uint16"
            },
            {
              "internalType": "uint32",
              "name": "destGasOverhead",
              "type": "uint32"
            },
            {
              "internalType": "uint16",
              "name": "destGasPerPayloadByte",
              "type": "uint16"
            },
            {
              "internalType": "uint32",
              "name": "destDataAvailabilityOverheadGas",
              "type": "uint32"
            },
            {
              "internalType": "uint16",
              "name": "destGasPerDataAvailabilityByte",
              "type": "uint16"
            },
            {
              "internalType": "uint16",
              "name": "destDataAvailabilityMultiplierBps",
              "type": "uint16"
            },
            {
              "internalType": "address",
              "name": "priceRegistry",
              "type": "address"
            },
            {
              "internalType": "uint32",
              "name": "maxDataBytes",
              "type": "uint32"
            },
            {
              "internalType": "uint32",
              "name": "maxPerMsgGasLimit",
              "type": "uint32"
            }
          ],
          "internalType": "struct EVM2EVMOnRamp.DynamicConfig",
          "name": "dynamicConfig",
          "type": "tuple"
        }
      ],
      "name": "setDynamicConfig",
      "outputs": [],
      "stateMutability": "nonpayable",
      "type": "function"
    },
    {
      "inputs": [
        {
          "components": [
            {
              "internalType": "address",
              "name": "token",
              "type": "address"
            },
            {
              "internalType": "uint32",
              "name": "networkFeeUSDCents",
              "type": "uint32"
            },
            {
              "internalType": "uint64",
              "name": "gasMultiplierWeiPerEth",
              "type": "uint64"
            },
            {
              "internalType": "uint64",
              "name": "premiumMultiplierWeiPerEth",
              "type": "uint64"
            },
            {
              "internalType": "bool",
              "name": "enabled",
              "type": "bool"
            }
          ],
          "internalType": "struct EVM2EVMOnRamp.FeeTokenConfigArgs[]",
          "name": "feeTokenConfigArgs",
          "type": "tuple[]"
        }
      ],
      "name": "setFeeTokenConfig",
      "outputs": [],
      "stateMutability": "nonpayable",
      "type": "function"
    },
    {
      "inputs": [
        {
          "components": [
            {
              "internalType": "address",
              "name": "nop",
              "type": "address"
            },
            {
              "internalType": "uint16",
              "name": "weight",
              "type": "uint16"
            }
          ],
          "internalType": "struct EVM2EVMOnRamp.NopAndWeight[]",
          "name": "nopsAndWeights",
          "type": "tuple[]"
        }
      ],
      "name": "setNops",
      "outputs": [],
      "stateMutability": "nonpayable",
      "type": "function"
    },
    {
      "inputs": [
        {
          "components": [
            {
              "internalType": "bool",
              "name": "isEnabled",
              "type": "bool"
            },
            {
              "internalType": "uint128",
              "name": "capacity",
              "type": "uint128"
            },
            {
              "internalType": "uint128",
              "name": "rate",
              "type": "uint128"
            }
          ],
          "internalType": "struct RateLimiter.Config",
          "name": "config",
          "type": "tuple"
        }
      ],
      "name": "setRateLimiterConfig",
      "outputs": [],
      "stateMutability": "nonpayable",
      "type": "function"
    },
    {
      "inputs": [
        {
          "components": [
            {
              "internalType": "address",
              "name": "token",
              "type": "address"
            },
            {
              "internalType": "uint32",
              "name": "minFeeUSDCents",
              "type": "uint32"
            },
            {
              "internalType": "uint32",
              "name": "maxFeeUSDCents",
              "type": "uint32"
            },
            {
              "internalType": "uint16",
              "name": "deciBps",
              "type": "uint16"
            },
            {
              "internalType": "uint32",
              "name": "destGasOverhead",
              "type": "uint32"
            },
            {
              "internalType": "uint32",
              "name": "destBytesOverhead",
              "type": "uint32"
            }
          ],
          "internalType": "struct EVM2EVMOnRamp.TokenTransferFeeConfigArgs[]",
          "name": "tokenTransferFeeConfigArgs",
          "type": "tuple[]"
        }
      ],
      "name": "setTokenTransferFeeConfig",
      "outputs": [],
      "stateMutability": "nonpayable",
      "type": "function"
    },
    {
      "inputs": [
        {
          "internalType": "address",
          "name": "to",
          "type": "address"
        }
      ],
      "name": "transferOwnership",
      "outputs": [],
      "stateMutability": "nonpayable",
      "type": "function"
    },
    {
      "inputs": [],
      "name": "typeAndVersion",
      "outputs": [
        {
          "internalType": "string",
          "name": "",
          "type": "string"
        }
      ],
      "stateMutability": "view",
      "type": "function"
    },
    {
      "inputs": [
        {
          "internalType": "address",
          "name": "feeToken",
          "type": "address"
        },
        {
          "internalType": "address",
          "name": "to",
          "type": "address"
        }
      ],
      "name": "withdrawNonLinkFees",
      "outputs": [],
      "stateMutability": "nonpayable",
      "type": "function"
    }
  ],
  "bytecode": {
    "object": "0x6101806040523480156200001257600080fd5b506040516200849a3803806200849a833981016040819052620000359162001e40565b8333806000816200008d5760405162461bcd60e51b815260206004820152601860248201527f43616e6e6f7420736574206f776e657220746f207a65726f000000000000000060448201526064015b60405180910390fd5b600080546001600160a01b0319166001600160a01b0384811691909117909155811615620000c057620000c08162000323565b50506040805160a081018252602084810180516001600160801b039081168085524263ffffffff169385018490528751151585870181905292518216606086018190529790950151166080909301839052600380546001600160a01b031916909417600160801b9283021760ff60a01b1916600160a01b90910217909255029091176004555086516001600160a01b0316158062000169575060208701516001600160401b0316155b8062000180575060408701516001600160401b0316155b8062000197575060608701516001600160401b0316155b80620001ae575060c08701516001600160a01b0316155b15620001cd576040516306b7c75960e31b815260040160405180910390fd5b6020808801516040808a015181517f8acd72527118c8324937b1a42e02cd246697c3b633f1742f3cae11de233722b3948101949094526001600160401b039283169184019190915216606082015230608082015260a00160408051601f198184030181529181528151602092830120608090815289516001600160a01b0390811660e052928a01516001600160401b0390811661010052918a015182166101205260608a015190911660a0908152908901516001600160601b031660c0908152908901518216610140528801511661016052620002aa86620003ce565b620002b58362000645565b620002c0826200077f565b620002cb81620008e5565b6040805160008082526020820190925262000316916200030e565b6040805180820190915260008082526020820152815260200190600190039081620002e65790505b508662000b0f565b505050505050506200241a565b336001600160a01b038216036200037d5760405162461bcd60e51b815260206004820152601760248201527f43616e6e6f74207472616e7366657220746f2073656c66000000000000000000604482015260640162000084565b600180546001600160a01b0319166001600160a01b0383811691821790925560008054604051929316917fed8889f560326eb138920d842192f0eb3dd22b4f139c87a2c57538e05bae12789190a350565b60e08101516001600160a01b0316620003fa576040516306b7c75960e31b815260040160405180910390fd5b80600560008201518160000160006101000a8154816001600160a01b0302191690836001600160a01b0316021790555060208201518160000160146101000a81548161ffff021916908361ffff16021790555060408201518160000160166101000a81548163ffffffff021916908363ffffffff160217905550606082015181600001601a6101000a81548161ffff021916908361ffff160217905550608082015181600001601c6101000a81548163ffffffff021916908363ffffffff16021790555060a08201518160010160006101000a81548161ffff021916908361ffff16021790555060c08201518160010160026101000a81548161ffff021916908361ffff16021790555060e08201518160010160046101000a8154816001600160a01b0302191690836001600160a01b031602179055506101008201518160010160186101000a81548163ffffffff021916908363ffffffff16021790555061012082015181600101601c6101000a81548163ffffffff021916908363ffffffff1602179055509050507f2a57f7c2027cf032c78b77d4d8d2fbd20ad22e5d5e5b5fb23ac7d7820d44adc66040518060e0016040528060e0516001600160a01b03168152602001610100516001600160401b03168152602001610120516001600160401b0316815260200160a0516001600160401b0316815260200160c0516001600160601b03168152602001610140516001600160a01b03168152602001610160516001600160a01b0316815250826040516200063a92919062002015565b60405180910390a150565b60005b81518110156200074d57600082828151811062000669576200066962002095565b60209081029190910181015160408051608080820183528385015163ffffffff9081168352838501516001600160401b03908116848801908152606080880151831686880190815294880151151590860190815296516001600160a01b03166000908152600d90985294909620925183549451925195511515600160a01b0260ff60a01b199688166c010000000000000000000000000296909616600160601b600160a81b031993909716640100000000026001600160601b0319909516911617929092179190911692909217179055506200074581620020c1565b905062000648565b507f067924bf9277d905a9a4631a06d959bc032ace86b3caa835ae7e403d4f39010e816040516200063a9190620020dd565b60005b8151811015620008b3576000828281518110620007a357620007a362002095565b6020908102919091018101516040805160a080820183528385015163ffffffff908116835283850151811683870190815260608087015161ffff9081168688019081526080808a0151861693880193845295890151851695870195865297516001600160a01b03166000908152600e909952959097209351845491519651975193518316600160701b0263ffffffff60701b199484166a01000000000000000000000263ffffffff60501b199990971668010000000000000000029890981665ffffffffffff60401b19978416640100000000026001600160401b03199093169190931617179490941693909317919091179190911691909117905550620008ab81620020c1565b905062000782565b507f555c74101f7a15746d31c6731170310e667bcc607996b2fc0b981a7b26a416e9816040516200063a91906200216c565b805160408111156200090a57604051635ad0867d60e11b815260040160405180910390fd5b6010546c01000000000000000000000000900463ffffffff161580159062000954575060105463ffffffff6c010000000000000000000000008204166001600160601b0390911610155b1562000964576200096462000e12565b600062000972600762001012565b90505b8015620009be576000620009986200098f600184620021f3565b60079062001025565b509050620009a860078262001043565b505080620009b69062002209565b905062000975565b506000805b8281101562000aa6576000848281518110620009e357620009e362002095565b6020026020010151600001519050600085838151811062000a085762000a0862002095565b602002602001015160200151905060e0516001600160a01b0316826001600160a01b0316148062000a4057506001600160a01b038216155b1562000a6b57604051634de938d160e01b81526001600160a01b038316600482015260240162000084565b62000a7d60078361ffff841662001061565b5062000a8e61ffff82168562002223565b935050508062000a9e90620020c1565b9050620009c3565b506010805463ffffffff60601b19166c0100000000000000000000000063ffffffff8416021790556040517f8c337bff38141c507abd25c547606bdde78fe8c12e941ab613f3a565fea6cd249062000b02908390869062002243565b60405180910390a1505050565b60005b825181101562000c4b57600083828151811062000b335762000b3362002095565b6020026020010151600001519050600084838151811062000b585762000b5862002095565b6020908102919091018101510151905062000b75600a8362001081565b62000b9f576040516373913ebd60e01b81526001600160a01b038316600482015260240162000084565b6001600160a01b03811662000bb6600a8462001098565b6001600160a01b03161462000bde57604051630d98f73360e31b815260040160405180910390fd5b62000beb600a83620010af565b1562000c3557604080516001600160a01b038085168252831660208201527f987eb3c2f78454541205f72f34839b434c306c9eaf4922efd7c0c3060fdb2e4c910160405180910390a15b50508062000c4390620020c1565b905062000b12565b5060005b815181101562000e0d57600082828151811062000c705762000c7062002095565b6020026020010151600001519050600083838151811062000c955762000c9562002095565b602002602001015160200151905060006001600160a01b0316826001600160a01b0316148062000ccc57506001600160a01b038116155b1562000cea5760405162d8548360e71b815260040160405180910390fd5b806001600160a01b03166321df0da76040518163ffffffff1660e01b8152600401602060405180830381865afa15801562000d29573d6000803e3d6000fd5b505050506040513d601f19601f8201168201806040525081019062000d4f9190620022b0565b6001600160a01b0316826001600160a01b03161462000d8157604051630d98f73360e31b815260040160405180910390fd5b62000d8f600a8383620010c6565b1562000dde57604080516001600160a01b038085168252831660208201527f95f865c2808f8b2a85eea2611db7843150ee7835ef1403f9755918a97d76933c910160405180910390a162000df7565b604051633caf458560e01b815260040160405180910390fd5b50508062000e0590620020c1565b905062000c4f565b505050565b6000546001600160a01b0316331480159062000e3957506002546001600160a01b03163314155b801562000e50575062000e4e600733620010de565b155b1562000e6f5760405163032bb72b60e31b815260040160405180910390fd5b6010546c01000000000000000000000000900463ffffffff16600081900362000eab5760405163990e30bf60e01b815260040160405180910390fd5b6010546001600160601b03168181101562000ed9576040516311a1ee3b60e31b815260040160405180910390fd5b600062000ee5620010f5565b121562000f0557604051631e9acf1760e31b815260040160405180910390fd5b80600062000f14600762001012565b905060005b8181101562000fec5760008062000f3260078462001025565b909250905060008762000f4f836001600160601b038a16620022d0565b62000f5b9190620022ea565b905062000f6981876200230d565b60e05190965062000f8e906001600160a01b0316846001600160601b03841662001183565b6040516001600160601b03821681526001600160a01b038416907f55fdec2aab60a41fa5abb106670eb1006f5aeaee1ba7afea2bc89b5b3ec7678f9060200160405180910390a25050508062000fe490620020c1565b905062000f19565b5050601080546001600160601b0319166001600160601b03929092169190911790555050565b60006200101f82620011db565b92915050565b6000808080620010368686620011e8565b9097909650945050505050565b60006200105a836001600160a01b03841662001215565b9392505050565b600062001079846001600160a01b0385168462001234565b949350505050565b60006200105a836001600160a01b03841662001253565b60006200105a836001600160a01b03841662001261565b60006200105a836001600160a01b0384166200126f565b600062001079846001600160a01b038516846200127d565b60006200105a836001600160a01b03841662001295565b60105460e0516040516370a0823160e01b81523060048201526000926001600160601b0316916001600160a01b0316906370a0823190602401602060405180830381865afa1580156200114c573d6000803e3d6000fd5b505050506040513d601f19601f8201168201806040525081019062001172919062002330565b6200117e91906200234a565b905090565b604080516001600160a01b038416602482015260448082018490528251808303909101815260649091019091526020810180516001600160e01b0390811663a9059cbb60e01b1790915262000e0d918591620012a316565b60006200101f8262001374565b60008080620011f885856200137f565b600081815260029690960160205260409095205494959350505050565b600081815260028301602052604081208190556200105a83836200138d565b600082815260028401602052604081208290556200107984846200139b565b60006200105a838362001295565b60006200105a8383620013a9565b60006200105a838362001215565b60006200107984846001600160a01b03851662001234565b60006200105a83836200141e565b6040805180820190915260208082527f5361666545524332303a206c6f772d6c6576656c2063616c6c206661696c656490820152600090620012f2906001600160a01b03851690849062001437565b80519091501562000e0d57808060200190518101906200131391906200236d565b62000e0d5760405162461bcd60e51b815260206004820152602a60248201527f5361666545524332303a204552433230206f7065726174696f6e20646964206e6044820152691bdd081cdd58d8d9595960b21b606482015260840162000084565b60006200101f825490565b60006200105a838362001448565b60006200105a838362001475565b60006200105a838362001580565b600081815260028301602052604081205480151580620013d05750620013d0848462001295565b6200105a5760405162461bcd60e51b815260206004820152601e60248201527f456e756d657261626c654d61703a206e6f6e6578697374656e74206b65790000604482015260640162000084565b600081815260018301602052604081205415156200105a565b6060620010798484600085620015d2565b600082600001828154811062001462576200146262002095565b9060005260206000200154905092915050565b600081815260018301602052604081205480156200156e5760006200149c600183620021f3565b8554909150600090620014b290600190620021f3565b90508181146200151e576000866000018281548110620014d657620014d662002095565b9060005260206000200154905080876000018481548110620014fc57620014fc62002095565b6000918252602080832090910192909255918252600188019052604090208390555b85548690806200153257620015326200238b565b6001900381819060005260206000200160009055905585600101600086815260200190815260200160002060009055600193505050506200101f565b60009150506200101f565b5092915050565b6000818152600183016020526040812054620015c9575081546001818101845560008481526020808220909301849055845484825282860190935260409020919091556200101f565b5060006200101f565b606082471015620016355760405162461bcd60e51b815260206004820152602660248201527f416464726573733a20696e73756666696369656e742062616c616e636520666f6044820152651c8818d85b1b60d21b606482015260840162000084565b600080866001600160a01b03168587604051620016539190620023c7565b60006040518083038185875af1925050503d806000811462001692576040519150601f19603f3d011682016040523d82523d6000602084013e62001697565b606091505b509092509050620016ab87838387620016b6565b979650505050505050565b606083156200172a57825160000362001722576001600160a01b0385163b620017225760405162461bcd60e51b815260206004820152601d60248201527f416464726573733a2063616c6c20746f206e6f6e2d636f6e7472616374000000604482015260640162000084565b508162001079565b620010798383815115620017415781518083602001fd5b8060405162461bcd60e51b8152600401620000849190620023e5565b634e487b7160e01b600052604160045260246000fd5b60405160e081016001600160401b03811182821017156200179857620017986200175d565b60405290565b60405161014081016001600160401b03811182821017156200179857620017986200175d565b604080519081016001600160401b03811182821017156200179857620017986200175d565b60405160a081016001600160401b03811182821017156200179857620017986200175d565b60405160c081016001600160401b03811182821017156200179857620017986200175d565b604051601f8201601f191681016001600160401b03811182821017156200185e576200185e6200175d565b604052919050565b6001600160a01b03811681146200187c57600080fd5b50565b80516200188c8162001866565b919050565b80516001600160401b03811681146200188c57600080fd5b600060e08284031215620018bc57600080fd5b620018c662001773565b90508151620018d58162001866565b8152620018e56020830162001891565b6020820152620018f86040830162001891565b60408201526200190b6060830162001891565b606082015260808201516001600160601b03811681146200192b57600080fd5b60808201526200193e60a083016200187f565b60a08201526200195160c083016200187f565b60c082015292915050565b805161ffff811681146200188c57600080fd5b805163ffffffff811681146200188c57600080fd5b600061014082840312156200199857600080fd5b620019a26200179e565b9050620019af826200187f565b8152620019bf602083016200195c565b6020820152620019d2604083016200196f565b6040820152620019e5606083016200195c565b6060820152620019f8608083016200196f565b608082015262001a0b60a083016200195c565b60a082015262001a1e60c083016200195c565b60c082015262001a3160e083016200187f565b60e082015261010062001a468184016200196f565b9082015261012062001a5a8382016200196f565b9082015292915050565b60006001600160401b0382111562001a805762001a806200175d565b5060051b60200190565b600082601f83011262001a9c57600080fd5b8151602062001ab562001aaf8362001a64565b62001833565b82815260069290921b8401810191818101908684111562001ad557600080fd5b8286015b8481101562001b2f576040818903121562001af45760008081fd5b62001afe620017c4565b815162001b0b8162001866565b81528185015162001b1c8162001866565b8186015283529183019160400162001ad9565b509695505050505050565b805180151581146200188c57600080fd5b80516001600160801b03811681146200188c57600080fd5b60006060828403121562001b7657600080fd5b604051606081016001600160401b038111828210171562001b9b5762001b9b6200175d565b60405290508062001bac8362001b3a565b815262001bbc6020840162001b4b565b602082015262001bcf6040840162001b4b565b60408201525092915050565b600082601f83011262001bed57600080fd5b8151602062001c0062001aaf8362001a64565b82815260a0928302850182019282820191908785111562001c2057600080fd5b8387015b8581101562001caf5781818a03121562001c3e5760008081fd5b62001c48620017e9565b815162001c558162001866565b815262001c648287016200196f565b86820152604062001c7781840162001891565b90820152606062001c8a83820162001891565b90820152608062001c9d83820162001b3a565b90820152845292840192810162001c24565b5090979650505050505050565b600082601f83011262001cce57600080fd5b8151602062001ce162001aaf8362001a64565b82815260c0928302850182019282820191908785111562001d0157600080fd5b8387015b8581101562001caf5781818a03121562001d1f5760008081fd5b62001d296200180e565b815162001d368162001866565b815262001d458287016200196f565b86820152604062001d588184016200196f565b90820152606062001d6b8382016200195c565b90820152608062001d7e8382016200196f565b9082015260a062001d918382016200196f565b90820152845292840192810162001d05565b600082601f83011262001db557600080fd5b8151602062001dc862001aaf8362001a64565b82815260069290921b8401810191818101908684111562001de857600080fd5b8286015b8481101562001b2f576040818903121562001e075760008081fd5b62001e11620017c4565b815162001e1e8162001866565b815262001e2d8286016200195c565b8186015283529183019160400162001dec565b6000806000806000806000610300888a03121562001e5d57600080fd5b62001e698989620018a9565b965062001e7a8960e08a0162001984565b6102208901519096506001600160401b038082111562001e9957600080fd5b62001ea78b838c0162001a8a565b965062001eb98b6102408c0162001b63565b95506102a08a015191508082111562001ed157600080fd5b62001edf8b838c0162001bdb565b94506102c08a015191508082111562001ef757600080fd5b62001f058b838c0162001cbc565b93506102e08a015191508082111562001f1d57600080fd5b5062001f2c8a828b0162001da3565b91505092959891949750929550565b80516001600160a01b03168252602081015162001f5e602084018261ffff169052565b50604081015162001f77604084018263ffffffff169052565b50606081015162001f8e606084018261ffff169052565b50608081015162001fa7608084018263ffffffff169052565b5060a081015162001fbe60a084018261ffff169052565b5060c081015162001fd560c084018261ffff169052565b5060e081015162001ff160e08401826001600160a01b03169052565b506101008181015163ffffffff908116918401919091526101209182015116910152565b82516001600160a01b0390811682526020808501516001600160401b0390811691840191909152604080860151821690840152606080860151909116908301526080808501516001600160601b03169083015260a08085015182169083015260c0808501519091169082015261022081016200105a60e083018462001f3b565b634e487b7160e01b600052603260045260246000fd5b634e487b7160e01b600052601160045260246000fd5b600060018201620020d657620020d6620020ab565b5060010190565b602080825282518282018190526000919060409081850190868401855b828110156200215f57815180516001600160a01b031685528681015163ffffffff1687860152858101516001600160401b03908116878701526060808301519091169086015260809081015115159085015260a09093019290850190600101620020fa565b5091979650505050505050565b602080825282518282018190526000919060409081850190868401855b828110156200215f57815180516001600160a01b031685528681015163ffffffff908116888701528682015181168787015260608083015161ffff169087015260808083015182169087015260a091820151169085015260c0909301929085019060010162002189565b818103818111156200101f576200101f620020ab565b6000816200221b576200221b620020ab565b506000190190565b63ffffffff818116838216019080821115620015795762001579620020ab565b6000604080830163ffffffff8616845260208281860152818651808452606087019150828801935060005b81811015620022a257845180516001600160a01b0316845284015161ffff168484015293830193918501916001016200226e565b509098975050505050505050565b600060208284031215620022c357600080fd5b81516200105a8162001866565b80820281158282048414176200101f576200101f620020ab565b6000826200230857634e487b7160e01b600052601260045260246000fd5b500490565b6001600160601b03828116828216039080821115620015795762001579620020ab565b6000602082840312156200234357600080fd5b5051919050565b8181036000831280158383131683831282161715620015795762001579620020ab565b6000602082840312156200238057600080fd5b6200105a8262001b3a565b634e487b7160e01b600052603160045260246000fd5b60005b83811015620023be578181015183820152602001620023a4565b50506000910152565b60008251620023db818460208701620023a1565b9190910192915050565b602081526000825180602084015262002406816040850160208701620023a1565b601f01601f19169190910160400192915050565b60805160a05160c05160e05161010051610120516101405161016051615f726200252860003960008181610334015281816116530152613dfb015260008181610305015281816114060152818161146e01528181611c3501528181611c9d0152613dcc0152600081816102710152818161097f01528181611790015281816120350152613d3801526000818161024101528181611d680152613d0801526000818161021201528181610fb4015281816119e001528181611ae1015281816123a301528181613090015281816132c60152613cd90152600081816102d101528181611bad0152613d980152600081816102a1015281816125d30152613d680152600061215e0152615f726000f3fe608060405234801561001057600080fd5b50600436106101c45760003560e01c806379ba5097116100f9578063d09dc33911610097578063eff7cc4811610071578063eff7cc481461092d578063f25561fd14610935578063f2fde38b14610948578063fbca3b741461095b57600080fd5b8063d09dc339146108ff578063df0aa9e914610907578063e687b40a1461091a57600080fd5b80638da5cb5b116100d35780638da5cb5b146107c05780639a113c36146107d1578063b06d41bc146108d6578063c92b2832146108ec57600080fd5b806379ba5097146107925780637ec757511461079a578063856c8247146107ad57600080fd5b8063546719cd11610166578063599f643111610140578063599f6431146105ec578063704b6c02146105fd5780637437ff9f1461061057806376f6ae761461077f57600080fd5b8063546719cd14610555578063549e946f146105b957806354b71468146105cc57600080fd5b806320487ded116101a257806320487ded146104d35780633a87ac53146104f45780634120fccd1461050957806348a98aa41461052a57600080fd5b806306285c69146101c95780631772047e1461037a578063181f5a771461048a575b600080fd5b6103646040805160e081018252600080825260208201819052918101829052606081018290526080810182905260a0810182905260c08101919091526040518060e001604052807f00000000000000000000000000000000000000000000000000000000000000006001600160a01b031681526020017f000000000000000000000000000000000000000000000000000000000000000067ffffffffffffffff1681526020017f000000000000000000000000000000000000000000000000000000000000000067ffffffffffffffff1681526020017f000000000000000000000000000000000000000000000000000000000000000067ffffffffffffffff1681526020017f00000000000000000000000000000000000000000000000000000000000000006bffffffffffffffffffffffff1681526020017f00000000000000000000000000000000000000000000000000000000000000006001600160a01b031681526020017f00000000000000000000000000000000000000000000000000000000000000006001600160a01b0316815250905090565b6040516103719190614ac2565b60405180910390f35b61043c610388366004614b63565b6040805160a081018252600080825260208201819052918101829052606081018290526080810191909152506001600160a01b03166000908152600e6020908152604091829020825160a081018452905463ffffffff8082168352640100000000820481169383019390935261ffff68010000000000000000820416938201939093526a01000000000000000000008304821660608201526e01000000000000000000000000000090920416608082015290565b6040516103719190815163ffffffff908116825260208084015182169083015260408084015161ffff1690830152606080840151821690830152608092830151169181019190915260a00190565b6104c66040518060400160405280601381526020017f45564d3245564d4f6e52616d7020312e322e300000000000000000000000000081525081565b6040516103719190614bd0565b6104e66104e1366004614c11565b61097b565b604051908152602001610371565b610507610502366004614e19565b610dfb565b005b610511610e11565b60405167ffffffffffffffff9091168152602001610371565b61053d610538366004614e73565b610e45565b6040516001600160a01b039091168152602001610371565b61055d610ea5565b604051610371919081516fffffffffffffffffffffffffffffffff908116825260208084015163ffffffff1690830152604080840151151590830152606080840151821690830152608092830151169181019190915260a00190565b6105076105c7366004614eac565b610f55565b6010546040516bffffffffffffffffffffffff9091168152602001610371565b6002546001600160a01b031661053d565b61050761060b366004614b63565b61110a565b6107726040805161014081018252600080825260208201819052918101829052606081018290526080810182905260a0810182905260c0810182905260e0810182905261010081018290526101208101919091525060408051610140810182526005546001600160a01b03808216835261ffff7401000000000000000000000000000000000000000083048116602085015263ffffffff76010000000000000000000000000000000000000000000084048116958501959095527a0100000000000000000000000000000000000000000000000000008304811660608501527c0100000000000000000000000000000000000000000000000000000000928390048516608085015260065480821660a086015262010000810490911660c0850152640100000000810490911660e08401527801000000000000000000000000000000000000000000000000810484166101008401520490911661012082015290565b6040516103719190614fa5565b61050761078d366004614fb4565b6111d4565b61050761128c565b6105076107a8366004615058565b61136f565b6105116107bb366004614b63565b6113d8565b6000546001600160a01b031661053d565b61088c6107df366004614b63565b604080516080810182526000808252602082018190529181018290526060810191909152506001600160a01b03166000908152600d60209081526040918290208251608081018452905463ffffffff8116825267ffffffffffffffff64010000000082048116938301939093526c0100000000000000000000000081049092169281019290925260ff74010000000000000000000000000000000000000000909104161515606082015290565b60408051825163ffffffff16815260208084015167ffffffffffffffff90811691830191909152838301511691810191909152606091820151151591810191909152608001610371565b6108de6114d9565b6040516103719291906151bb565b6105076108fa36600461520b565b6115dd565b6104e6611645565b6104e6610915366004615279565b61164f565b6105076109283660046152e5565b6121d3565b6105076121e4565b6105076109433660046153ad565b61247b565b610507610956366004614b63565b6124e1565b61096e6109693660046154a0565b6124f2565b60405161037191906154bd565b60007f000000000000000000000000000000000000000000000000000000000000000067ffffffffffffffff168367ffffffffffffffff16146109fb576040517fd9a9cd6800000000000000000000000000000000000000000000000000000000815267ffffffffffffffff841660048201526024015b60405180910390fd5b6000610a12610a0d608085018561550a565b6125a4565b519050610a3c610a25602085018561550a565b905082610a35604087018761556f565b9050612698565b6000600d81610a516080870160608801614b63565b6001600160a01b0316815260208082019290925260409081016000208151608081018352905463ffffffff81168252640100000000810467ffffffffffffffff908116948301949094526c010000000000000000000000008104909316918101919091527401000000000000000000000000000000000000000090910460ff16151560608201819052909150610b2f57610af16080850160608601614b63565b6040517fa7499d200000000000000000000000000000000000000000000000000000000081526001600160a01b0390911660048201526024016109f2565b600654600090819064010000000090046001600160a01b031663ffdb4b37610b5d6080890160608a01614b63565b6040517fffffffff0000000000000000000000000000000000000000000000000000000060e084901b1681526001600160a01b03909116600482015267ffffffffffffffff8a1660248201526044016040805180830381865afa158015610bc8573d6000803e3d6000fd5b505050506040513d601f19601f82011682018060405250810190610bec9190615603565b9092509050806000808080610c0460408c018c61556f565b90501115610c3e57610c32610c1f60808c0160608d01614b63565b87610c2d60408e018e61556f565b6127c1565b91945092509050610c5a565b8651610c579063ffffffff16662386f26fc10000615665565b92505b6040870151610c739067ffffffffffffffff1684615665565b60208881015160055492955060009267ffffffffffffffff9091169163ffffffff8616917a010000000000000000000000000000000000000000000000000000900461ffff1690610cc6908f018f61550a565b610cd1929150615665565b600554610cfe90760100000000000000000000000000000000000000000000900463ffffffff168d61567c565b610d08919061567c565b610d12919061567c565b610d1c9190615665565b610d36906dffffffffffffffffffffffffffff8716615665565b60065490915060009062010000900461ffff1615610daa576000607060ff16887bffffffffffffffffffffffffffffffffffffffffffffffffffffffff16901c9050610da6818e8060200190610d8c919061550a565b90508f8060400190610d9e919061556f565b905087612acb565b9150505b7bffffffffffffffffffffffffffffffffffffffffffffffffffffffff881681610dd4848861567c565b610dde919061567c565b610de8919061568f565b9a50505050505050505050505b92915050565b610e03612b9b565b610e0d8282612c11565b5050565b601054600090610e4090700100000000000000000000000000000000900467ffffffffffffffff1660016156ca565b905090565b6000610e52600a83612f71565b610e93576040517fbf16aab60000000000000000000000000000000000000000000000000000000081526001600160a01b03831660048201526024016109f2565b610e9e600a83612f86565b9392505050565b6040805160a0810182526000808252602082018190529181018290526060810182905260808101919091526040805160a0810182526003546fffffffffffffffffffffffffffffffff808216835270010000000000000000000000000000000080830463ffffffff1660208501527401000000000000000000000000000000000000000090920460ff161515938301939093526004548084166060840152049091166080820152610e4090612f9b565b6000546001600160a01b03163314801590610f7b57506002546001600160a01b03163314155b15610fb2576040517ffbdb8e5600000000000000000000000000000000000000000000000000000000815260040160405180910390fd5b7f00000000000000000000000000000000000000000000000000000000000000006001600160a01b0316826001600160a01b03161480610ff957506001600160a01b038116155b15611030576040517f232cb97f00000000000000000000000000000000000000000000000000000000815260040160405180910390fd5b600061103a61304d565b1215611072576040517f02075e0000000000000000000000000000000000000000000000000000000000815260040160405180910390fd5b6040517f70a08231000000000000000000000000000000000000000000000000000000008152306004820152610e0d9082906001600160a01b038516906370a0823190602401602060405180830381865afa1580156110d5573d6000803e3d6000fd5b505050506040513d601f19601f820116820180604052508101906110f991906156eb565b6001600160a01b038516919061310d565b6000546001600160a01b0316331480159061113057506002546001600160a01b03163314155b15611167576040517ff6cd562000000000000000000000000000000000000000000000000000000000815260040160405180910390fd5b600280547fffffffffffffffffffffffff0000000000000000000000000000000000000000166001600160a01b0383169081179091556040519081527f8fe72c3e0020beb3234e76ae6676fa576fbfcae600af1c4fea44784cf0db329c906020015b60405180910390a150565b6000546001600160a01b031633148015906111fa57506002546001600160a01b03163314155b15611231576040517ffbdb8e5600000000000000000000000000000000000000000000000000000000815260040160405180910390fd5b610e0d8282808060200260200160405190810160405280939291908181526020016000905b828210156112825761127360408302860136819003810190615704565b81526020019060010190611256565b505050505061318d565b6001546001600160a01b03163314611300576040517f08c379a000000000000000000000000000000000000000000000000000000000815260206004820152601660248201527f4d7573742062652070726f706f736564206f776e65720000000000000000000060448201526064016109f2565b60008054337fffffffffffffffffffffffff0000000000000000000000000000000000000000808316821784556001805490911690556040516001600160a01b0390921692909183917f8be0079c531659141344cd1fd0a4f28419497f9722a3daafe3b4186f6b6457e091a350565b6000546001600160a01b0316331480159061139557506002546001600160a01b03163314155b156113cc576040517ffbdb8e5600000000000000000000000000000000000000000000000000000000815260040160405180910390fd5b6113d581613400565b50565b6001600160a01b0381166000908152600f602052604081205467ffffffffffffffff168015801561143157507f00000000000000000000000000000000000000000000000000000000000000006001600160a01b031615155b15610df5576040517f856c82470000000000000000000000000000000000000000000000000000000081526001600160a01b0384811660048301527f0000000000000000000000000000000000000000000000000000000000000000169063856c824790602401602060405180830381865afa1580156114b5573d6000803e3d6000fd5b505050506040513d601f19601f82011682018060405250810190610e9e9190615743565b60606000806114e860076135c6565b90508067ffffffffffffffff81111561150357611503614c61565b60405190808252806020026020018201604052801561154857816020015b60408051808201909152600080825260208201528152602001906001900390816115215790505b50925060005b818110156115ba576000806115646007846135d1565b915091506040518060400160405280836001600160a01b031681526020018261ffff1681525086848151811061159c5761159c615760565b60200260200101819052505050806115b39061578f565b905061154e565b505060105491926c0100000000000000000000000090920463ffffffff16919050565b6000546001600160a01b0316331480159061160357506002546001600160a01b03163314155b1561163a576040517ff6cd562000000000000000000000000000000000000000000000000000000000815260040160405180910390fd5b6113d56003826135ef565b6000610e4061304d565b60007f00000000000000000000000000000000000000000000000000000000000000006001600160a01b031663397796f76040518163ffffffff1660e01b8152600401602060405180830381865afa1580156116af573d6000803e3d6000fd5b505050506040513d601f19601f820116820180604052508101906116d391906157c7565b1561170a576040517fc148371500000000000000000000000000000000000000000000000000000000815260040160405180910390fd5b6001600160a01b03821661174a576040517fa4ec747900000000000000000000000000000000000000000000000000000000815260040160405180910390fd5b6005546001600160a01b0316331461178e576040517f1c0a352900000000000000000000000000000000000000000000000000000000815260040160405180910390fd5b7f000000000000000000000000000000000000000000000000000000000000000067ffffffffffffffff168567ffffffffffffffff1614611807576040517fd9a9cd6800000000000000000000000000000000000000000000000000000000815267ffffffffffffffff861660048201526024016109f2565b611811848061550a565b905060201461185857611824848061550a565b6040517f370d875f0000000000000000000000000000000000000000000000000000000081526004016109f292919061580f565b6000611864858061550a565b8101906118719190615823565b90506001600160a01b038111806118885750600a81105b1561189757611824858061550a565b60006118a9610a0d608088018861550a565b51905060006118bb604088018861556f565b91506118d890506118cf602089018961550a565b90508383612698565b80156119d65760005b81811015611959576118f6604089018961556f565b8281811061190657611906615760565b90506040020160200135600003611949576040517f5cf0444900000000000000000000000000000000000000000000000000000000815260040160405180910390fd5b6119528161578f565b90506118e1565b506119d661196a604089018961556f565b808060200260200160405190810160405280939291908181526020016000905b828210156119b6576119a76040830286013681900381019061583c565b8152602001906001019061198a565b505060065464010000000090046001600160a01b031692506137c7915050565b6001600160a01b037f000000000000000000000000000000000000000000000000000000000000000016611a106080890160608a01614b63565b6001600160a01b031603611a745760108054879190600090611a419084906bffffffffffffffffffffffff16615876565b92506101000a8154816bffffffffffffffffffffffff02191690836bffffffffffffffffffffffff160217905550611b9b565b60065464010000000090046001600160a01b03166241e5be611a9c60808a0160608b01614b63565b60405160e083901b7fffffffff000000000000000000000000000000000000000000000000000000001681526001600160a01b039182166004820152602481018a90527f00000000000000000000000000000000000000000000000000000000000000009091166044820152606401602060405180830381865afa158015611b28573d6000803e3d6000fd5b505050506040513d601f19601f82011682018060405250810190611b4c91906156eb565b60108054600090611b6c9084906bffffffffffffffffffffffff16615876565b92506101000a8154816bffffffffffffffffffffffff02191690836bffffffffffffffffffffffff1602179055505b6010546bffffffffffffffffffffffff7f0000000000000000000000000000000000000000000000000000000000000000811691161115611c08576040517fe5c7a49100000000000000000000000000000000000000000000000000000000815260040160405180910390fd5b6001600160a01b0385166000908152600f602052604090205467ffffffffffffffff16158015611c6057507f00000000000000000000000000000000000000000000000000000000000000006001600160a01b031615155b15611d58576040517f856c82470000000000000000000000000000000000000000000000000000000081526001600160a01b0386811660048301527f0000000000000000000000000000000000000000000000000000000000000000169063856c824790602401602060405180830381865afa158015611ce4573d6000803e3d6000fd5b505050506040513d601f19601f82011682018060405250810190611d089190615743565b6001600160a01b0386166000908152600f6020526040902080547fffffffffffffffffffffffffffffffffffffffffffffffff00000000000000001667ffffffffffffffff929092169190911790555b6000604051806101a001604052807f000000000000000000000000000000000000000000000000000000000000000067ffffffffffffffff168152602001876001600160a01b03168152602001856001600160a01b0316815260200160108081819054906101000a900467ffffffffffffffff16611dd59061589b565b825467ffffffffffffffff9182166101009390930a838102908302199091161790925582526020808301879052600060408085018290526001600160a01b038c168252600f90925290812080546060909401939092611e34911661589b565b825467ffffffffffffffff9182166101009390930a83810292021916179091558152602001611e6960808b0160608c01614b63565b6001600160a01b03168152602001888152602001898060200190611e8d919061550a565b8080601f016020809104026020016040519081016040528093929190818152602001838380828437600092019190915250505090825250602001611ed460408b018b61556f565b808060200260200160405190810160405280939291908181526020016000905b82821015611f2057611f116040830286013681900381019061583c565b81526020019060010190611ef4565b505050505081526020018367ffffffffffffffff811115611f4357611f43614c61565b604051908082528060200260200182016040528015611f7657816020015b6060815260200190600190039081611f615790505b508152600060209091018190529091505b82811015612157576000611f9e60408b018b61556f565b83818110611fae57611fae615760565b905060400201803603810190611fc4919061583c565b90506000611fd68c8360000151610e45565b6001600160a01b031663968754458a611fef8e8061550a565b60208088015160408051928301815260008352517fffffffff0000000000000000000000000000000000000000000000000000000060e088901b16815261205d959493927f0000000000000000000000000000000000000000000000000000000000000000916004016158c2565b6000604051808303816000875af115801561207c573d6000803e3d6000fd5b505050506040513d6000823e601f3d908101601f191682016040526120a4919081019061591a565b82516001600160a01b03166000908152600e602052604090205481519192506e010000000000000000000000000000900463ffffffff1610156121215781516040517f36f536ca0000000000000000000000000000000000000000000000000000000081526001600160a01b0390911660048201526024016109f2565b80846101600151848151811061213957612139615760565b60200260200101819052505050806121509061578f565b9050611f87565b50612182817f0000000000000000000000000000000000000000000000000000000000000000613982565b6101808201526040517fd0c3c799bf9e2639de44391e7f524d229b2b55f5b1ea94b2bf7da42f7243dddd906121b8908390615a47565b60405180910390a1610180015193505050505b949350505050565b6121db612b9b565b6113d581613add565b6000546001600160a01b0316331480159061220a57506002546001600160a01b03163314155b801561221e575061221c600733613e35565b155b15612255576040517f195db95800000000000000000000000000000000000000000000000000000000815260040160405180910390fd5b6010546c01000000000000000000000000900463ffffffff1660008190036122a9576040517f990e30bf00000000000000000000000000000000000000000000000000000000815260040160405180910390fd5b6010546bffffffffffffffffffffffff16818110156122f4576040517f8d0f71d800000000000000000000000000000000000000000000000000000000815260040160405180910390fd5b60006122fe61304d565b1215612336576040517ff4d678b800000000000000000000000000000000000000000000000000000000815260040160405180910390fd5b80600061234360076135c6565b905060005b818110156124385760008061235e6007846135d1565b909250905060008761237e836bffffffffffffffffffffffff8a16615665565b612388919061568f565b90506123948187615b7c565b95506123d86001600160a01b037f000000000000000000000000000000000000000000000000000000000000000016846bffffffffffffffffffffffff841661310d565b6040516bffffffffffffffffffffffff821681526001600160a01b038416907f55fdec2aab60a41fa5abb106670eb1006f5aeaee1ba7afea2bc89b5b3ec7678f9060200160405180910390a2505050806124319061578f565b9050612348565b5050601080547fffffffffffffffffffffffffffffffffffffffff000000000000000000000000166bffffffffffffffffffffffff929092169190911790555050565b6000546001600160a01b031633148015906124a157506002546001600160a01b03163314155b156124d8576040517ffbdb8e5600000000000000000000000000000000000000000000000000000000815260040160405180910390fd5b6113d581613e4a565b6124e9612b9b565b6113d581613fd5565b60606000612500600a6140b0565b67ffffffffffffffff81111561251857612518614c61565b604051908082528060200260200182016040528015612541578160200160208202803683370190505b50905060005b815181101561259d5761255b600a826140bb565b5082828151811061256e5761256e615760565b60200260200101816001600160a01b03166001600160a01b031681525050806125969061578f565b9050612547565b5092915050565b60408051602081019091526000815260008290036125fa5750604080516020810190915267ffffffffffffffff7f0000000000000000000000000000000000000000000000000000000000000000168152610df5565b7f97a657c9000000000000000000000000000000000000000000000000000000006126258385615ba1565b7fffffffff00000000000000000000000000000000000000000000000000000000161461267e576040517f5247fdce00000000000000000000000000000000000000000000000000000000815260040160405180910390fd5b61268b8260048186615be9565b810190610e9e9190615c13565b6006547801000000000000000000000000000000000000000000000000900463ffffffff1680841115612701576040517f8693378900000000000000000000000000000000000000000000000000000000815260048101829052602481018590526044016109f2565b6006547c0100000000000000000000000000000000000000000000000000000000900463ffffffff16831115612763576040517f4c4fc93a00000000000000000000000000000000000000000000000000000000815260040160405180910390fd5b60055474010000000000000000000000000000000000000000900461ffff168211156127bb576040517f4c056b6a00000000000000000000000000000000000000000000000000000000815260040160405180910390fd5b50505050565b6000808083815b81811015612abf5760008787838181106127e4576127e4615760565b9050604002018036038101906127fa919061583c565b80516001600160a01b03166000908152600e6020908152604091829020825160a081018452905463ffffffff8082168352640100000000820481169383019390935261ffff68010000000000000000820416938201939093526a01000000000000000000008304821660608201526e010000000000000000000000000000909204811660808301528251929350909161289791600a9190612f7116565b6128db5781516040517fbf16aab60000000000000000000000000000000000000000000000000000000081526001600160a01b0390911660048201526024016109f2565b604081015160009061ffff16156129ff5760008c6001600160a01b031684600001516001600160a01b0316146129a25760065484516040517f4ab35b0b0000000000000000000000000000000000000000000000000000000081526001600160a01b0391821660048201526401000000009092041690634ab35b0b90602401602060405180830381865afa158015612977573d6000803e3d6000fd5b505050506040513d601f19601f8201168201806040525081019061299b9190615c55565b90506129a5565b508a5b620186a0836040015161ffff166129e78660200151847bffffffffffffffffffffffffffffffffffffffffffffffffffffffff166140ca90919063ffffffff16565b6129f19190615665565b6129fb919061568f565b9150505b6060820151612a0e9088615c70565b9650816080015186612a209190615c70565b8251909650600090612a3f9063ffffffff16662386f26fc10000615665565b905080821015612a5e57612a53818a61567c565b985050505050612aaf565b6000836020015163ffffffff16662386f26fc10000612a7d9190615665565b905080831115612a9d57612a91818b61567c565b99505050505050612aaf565b612aa7838b61567c565b995050505050505b612ab88161578f565b90506127c8565b50509450945094915050565b60008063ffffffff8316612ae0608086615665565b612aec8761022061567c565b612af6919061567c565b612b00919061567c565b6005546006549192506000917c010000000000000000000000000000000000000000000000000000000090910463ffffffff1690612b429061ffff1684615665565b612b4c919061567c565b60065490915062010000900461ffff16612b766dffffffffffffffffffffffffffff891683615665565b612b809190615665565b612b9090655af3107a4000615665565b979650505050505050565b6000546001600160a01b03163314612c0f576040517f08c379a000000000000000000000000000000000000000000000000000000000815260206004820152601660248201527f4f6e6c792063616c6c61626c65206279206f776e65720000000000000000000060448201526064016109f2565b565b60005b8251811015612d72576000838281518110612c3157612c31615760565b60200260200101516000015190506000848381518110612c5357612c53615760565b6020026020010151602001519050612c7582600a612f7190919063ffffffff16565b612cb6576040517f73913ebd0000000000000000000000000000000000000000000000000000000081526001600160a01b03831660048201526024016109f2565b6001600160a01b038116612ccb600a84612f86565b6001600160a01b031614612d0b576040517f6cc7b99800000000000000000000000000000000000000000000000000000000815260040160405180910390fd5b612d16600a83614107565b15612d5f57604080516001600160a01b038085168252831660208201527f987eb3c2f78454541205f72f34839b434c306c9eaf4922efd7c0c3060fdb2e4c910160405180910390a15b505080612d6b9061578f565b9050612c14565b5060005b8151811015612f6c576000828281518110612d9357612d93615760565b60200260200101516000015190506000838381518110612db557612db5615760565b602002602001015160200151905060006001600160a01b0316826001600160a01b03161480612deb57506001600160a01b038116155b15612e22576040517f6c2a418000000000000000000000000000000000000000000000000000000000815260040160405180910390fd5b806001600160a01b03166321df0da76040518163ffffffff1660e01b8152600401602060405180830381865afa158015612e60573d6000803e3d6000fd5b505050506040513d601f19601f82011682018060405250810190612e849190615c8d565b6001600160a01b0316826001600160a01b031614612ece576040517f6cc7b99800000000000000000000000000000000000000000000000000000000815260040160405180910390fd5b612eda600a838361411c565b15612f2757604080516001600160a01b038085168252831660208201527f95f865c2808f8b2a85eea2611db7843150ee7835ef1403f9755918a97d76933c910160405180910390a1612f59565b6040517f3caf458500000000000000000000000000000000000000000000000000000000815260040160405180910390fd5b505080612f659061578f565b9050612d76565b505050565b6000610e9e836001600160a01b038416614132565b6000610e9e836001600160a01b03841661413e565b6040805160a08101825260008082526020820181905291810182905260608101829052608081019190915261302982606001516fffffffffffffffffffffffffffffffff1683600001516fffffffffffffffffffffffffffffffff16846020015163ffffffff164261300d9190615caa565b85608001516fffffffffffffffffffffffffffffffff1661414a565b6fffffffffffffffffffffffffffffffff1682525063ffffffff4216602082015290565b6010546040517f70a082310000000000000000000000000000000000000000000000000000000081523060048201526000916bffffffffffffffffffffffff16907f00000000000000000000000000000000000000000000000000000000000000006001600160a01b0316906370a0823190602401602060405180830381865afa1580156130df573d6000803e3d6000fd5b505050506040513d601f19601f8201168201806040525081019061310391906156eb565b610e409190615cbd565b604080516001600160a01b038416602482015260448082018490528251808303909101815260649091019091526020810180517bffffffffffffffffffffffffffffffffffffffffffffffffffffffff167fa9059cbb00000000000000000000000000000000000000000000000000000000179052612f6c908490614172565b805160408111156131ca576040517fb5a10cfa00000000000000000000000000000000000000000000000000000000815260040160405180910390fd5b6010546c01000000000000000000000000900463ffffffff1615801590613218575060105463ffffffff6c010000000000000000000000008204166bffffffffffffffffffffffff90911610155b15613225576132256121e4565b600061323160076135c6565b90505b801561327357600061325261324a600184615caa565b6007906135d1565b509050613260600782614271565b50508061326c90615cdd565b9050613234565b506000805b8281101561338157600084828151811061329457613294615760565b602002602001015160000151905060008583815181106132b6576132b6615760565b60200260200101516020015190507f00000000000000000000000000000000000000000000000000000000000000006001600160a01b0316826001600160a01b0316148061330b57506001600160a01b038216155b1561334d576040517f4de938d10000000000000000000000000000000000000000000000000000000081526001600160a01b03831660048201526024016109f2565b61335d60078361ffff8416614286565b5061336c61ffff821685615c70565b935050508061337a9061578f565b9050613278565b50601080547fffffffffffffffffffffffffffffffff00000000ffffffffffffffffffffffff166c0100000000000000000000000063ffffffff8416021790556040517f8c337bff38141c507abd25c547606bdde78fe8c12e941ab613f3a565fea6cd24906133f39083908690615d12565b60405180910390a1505050565b60005b815181101561359657600082828151811061342057613420615760565b6020908102919091018101516040805160a080820183528385015163ffffffff908116835283850151811683870190815260608087015161ffff9081168688019081526080808a0151861693880193845295890151851695870195865297516001600160a01b03166000908152600e9099529590972093518454915196519751935183166e010000000000000000000000000000027fffffffffffffffffffffffffffff00000000ffffffffffffffffffffffffffff9484166a0100000000000000000000027fffffffffffffffffffffffffffffffffffff00000000ffffffffffffffffffff999097166801000000000000000002989098167fffffffffffffffffffffffffffffffffffff000000000000ffffffffffffffff978416640100000000027fffffffffffffffffffffffffffffffffffffffffffffffff0000000000000000909316919093161717949094169390931791909117919091169190911790555061358f8161578f565b9050613403565b507f555c74101f7a15746d31c6731170310e667bcc607996b2fc0b981a7b26a416e9816040516111c99190615d31565b6000610df58261429c565b60008080806135e086866142a7565b909450925050505b9250929050565b815460009061361890700100000000000000000000000000000000900463ffffffff1642615caa565b905080156136ba5760018301548354613660916fffffffffffffffffffffffffffffffff8082169281169185917001000000000000000000000000000000009091041661414a565b83546fffffffffffffffffffffffffffffffff919091167fffffffffffffffffffffffff0000000000000000000000000000000000000000909116177001000000000000000000000000000000004263ffffffff16021783555b602082015183546136e0916fffffffffffffffffffffffffffffffff90811691166142d2565b83548351151574010000000000000000000000000000000000000000027fffffffffffffffffffffff00ffffffff000000000000000000000000000000009091166fffffffffffffffffffffffffffffffff92831617178455602083015160408085015183167001000000000000000000000000000000000291909216176001850155517f9ea3374b67bf275e6bb9c8ae68f9cae023e1c528b4b27e092f0bb209d3531c19906133f39084908151151581526020808301516fffffffffffffffffffffffffffffffff90811691830191909152604092830151169181019190915260600190565b81516000805b82811015613974576000846001600160a01b031663d02641a08784815181106137f8576137f8615760565b6020908102919091010151516040517fffffffff0000000000000000000000000000000000000000000000000000000060e084901b1681526001600160a01b0390911660048201526024016040805180830381865afa15801561385f573d6000803e3d6000fd5b505050506040513d601f19601f820116820180604052508101906138839190615db6565b5190507bffffffffffffffffffffffffffffffffffffffffffffffffffffffff8116600003613908578582815181106138be576138be615760565b6020908102919091010151516040517f9a655f7b0000000000000000000000000000000000000000000000000000000081526001600160a01b0390911660048201526024016109f2565b61395686838151811061391d5761391d615760565b602002602001015160200151827bffffffffffffffffffffffffffffffffffffffffffffffffffffffff166140ca90919063ffffffff16565b613960908461567c565b9250508061396d9061578f565b90506137cd565b506127bb60038260006142e8565b60008060001b8284602001518560400151866060015187608001518860a001518960c001518a60e001518b6101000151604051602001613a189897969594939291906001600160a01b039889168152968816602088015267ffffffffffffffff95861660408801526060870194909452911515608086015290921660a0840152921660c082015260e08101919091526101000190565b6040516020818303038152906040528051906020012085610120015180519060200120866101400151604051602001613a519190615de9565b60405160208183030381529060405280519060200120876101600151604051602001613a7d9190615dfc565b60408051601f198184030181528282528051602091820120908301979097528101949094526060840192909252608083015260a082015260c081019190915260e00160405160208183030381529060405280519060200120905092915050565b60e08101516001600160a01b0316613b21576040517f35be3ac800000000000000000000000000000000000000000000000000000000815260040160405180910390fd5b80600560008201518160000160006101000a8154816001600160a01b0302191690836001600160a01b0316021790555060208201518160000160146101000a81548161ffff021916908361ffff16021790555060408201518160000160166101000a81548163ffffffff021916908363ffffffff160217905550606082015181600001601a6101000a81548161ffff021916908361ffff160217905550608082015181600001601c6101000a81548163ffffffff021916908363ffffffff16021790555060a08201518160010160006101000a81548161ffff021916908361ffff16021790555060c08201518160010160026101000a81548161ffff021916908361ffff16021790555060e08201518160010160046101000a8154816001600160a01b0302191690836001600160a01b031602179055506101008201518160010160186101000a81548163ffffffff021916908363ffffffff16021790555061012082015181600101601c6101000a81548163ffffffff021916908363ffffffff1602179055509050507f2a57f7c2027cf032c78b77d4d8d2fbd20ad22e5d5e5b5fb23ac7d7820d44adc66040518060e001604052807f00000000000000000000000000000000000000000000000000000000000000006001600160a01b031681526020017f000000000000000000000000000000000000000000000000000000000000000067ffffffffffffffff1681526020017f000000000000000000000000000000000000000000000000000000000000000067ffffffffffffffff1681526020017f000000000000000000000000000000000000000000000000000000000000000067ffffffffffffffff1681526020017f00000000000000000000000000000000000000000000000000000000000000006bffffffffffffffffffffffff1681526020017f00000000000000000000000000000000000000000000000000000000000000006001600160a01b031681526020017f00000000000000000000000000000000000000000000000000000000000000006001600160a01b0316815250826040516111c9929190615e0f565b6000610e9e836001600160a01b038416614637565b60005b8151811015613fa5576000828281518110613e6a57613e6a615760565b60209081029190910181015160408051608080820183528385015163ffffffff90811683528385015167ffffffffffffffff908116848801908152606080880151831686880190815294880151151590860190815296516001600160a01b03166000908152600d9098529490962092518354945192519551151574010000000000000000000000000000000000000000027fffffffffffffffffffffff00ffffffffffffffffffffffffffffffffffffffff9688166c0100000000000000000000000002969096167fffffffffffffffffffffff000000000000000000ffffffffffffffffffffffff93909716640100000000027fffffffffffffffffffffffffffffffffffffffff00000000000000000000000090951691161792909217919091169290921717905550613f9e8161578f565b9050613e4d565b507f067924bf9277d905a9a4631a06d959bc032ace86b3caa835ae7e403d4f39010e816040516111c99190615e99565b336001600160a01b03821603614047576040517f08c379a000000000000000000000000000000000000000000000000000000000815260206004820152601760248201527f43616e6e6f74207472616e7366657220746f2073656c6600000000000000000060448201526064016109f2565b600180547fffffffffffffffffffffffff0000000000000000000000000000000000000000166001600160a01b0383811691821790925560008054604051929316917fed8889f560326eb138920d842192f0eb3dd22b4f139c87a2c57538e05bae12789190a350565b6000610df5826135c6565b60008080806135e086866135d1565b6000670de0b6b3a76400006140fd837bffffffffffffffffffffffffffffffffffffffffffffffffffffffff8616615665565b610e9e919061568f565b6000610e9e836001600160a01b038416614643565b60006121cb846001600160a01b0385168461464f565b6000610e9e8383614637565b6000610e9e8383614665565b60006141698561415a8486615665565b614164908761567c565b6142d2565b95945050505050565b60006141c7826040518060400160405280602081526020017f5361666545524332303a206c6f772d6c6576656c2063616c6c206661696c6564815250856001600160a01b03166146ef9092919063ffffffff16565b805190915015612f6c57808060200190518101906141e591906157c7565b612f6c576040517f08c379a000000000000000000000000000000000000000000000000000000000815260206004820152602a60248201527f5361666545524332303a204552433230206f7065726174696f6e20646964206e60448201527f6f7420737563636565640000000000000000000000000000000000000000000060648201526084016109f2565b6000610e9e836001600160a01b0384166146fe565b60006121cb846001600160a01b0385168461471b565b6000610df582614738565b600080806142b58585614742565b600081815260029690960160205260409095205494959350505050565b60008183106142e15781610e9e565b5090919050565b825474010000000000000000000000000000000000000000900460ff16158061430f575081155b1561431957505050565b825460018401546fffffffffffffffffffffffffffffffff8083169291169060009061435f90700100000000000000000000000000000000900463ffffffff1642615caa565b9050801561441f57818311156143a1576040517f9725942a00000000000000000000000000000000000000000000000000000000815260040160405180910390fd5b60018601546143db9083908590849070010000000000000000000000000000000090046fffffffffffffffffffffffffffffffff1661414a565b86547fffffffffffffffffffffffff00000000ffffffffffffffffffffffffffffffff167001000000000000000000000000000000004263ffffffff160217875592505b848210156144bc576001600160a01b038416614471576040517ff94ebcd100000000000000000000000000000000000000000000000000000000815260048101839052602481018690526044016109f2565b6040517f1a76572a00000000000000000000000000000000000000000000000000000000815260048101839052602481018690526001600160a01b03851660448201526064016109f2565b848310156145b55760018681015470010000000000000000000000000000000090046fffffffffffffffffffffffffffffffff169060009082906145009082615caa565b61450a878a615caa565b614514919061567c565b61451e919061568f565b90506001600160a01b03861661456a576040517f15279c0800000000000000000000000000000000000000000000000000000000815260048101829052602481018690526044016109f2565b6040517fd0c8d23a00000000000000000000000000000000000000000000000000000000815260048101829052602481018690526001600160a01b03871660448201526064016109f2565b6145bf8584615caa565b86547fffffffffffffffffffffffffffffffff00000000000000000000000000000000166fffffffffffffffffffffffffffffffff82161787556040518681529093507f1871cdf8010e63f2eb8384381a68dfa7416dc571a5517e66e88b2d2d0c0a690a9060200160405180910390a1505050505050565b6000610e9e838361474e565b6000610e9e83836146fe565b60006121cb84846001600160a01b03851661471b565b60008181526002830160205260408120548015158061468957506146898484614637565b610e9e576040517f08c379a000000000000000000000000000000000000000000000000000000000815260206004820152601e60248201527f456e756d657261626c654d61703a206e6f6e6578697374656e74206b6579000060448201526064016109f2565b60606121cb8484600085614766565b60008181526002830160205260408120819055610e9e8383614867565b600082815260028401602052604081208290556121cb8484614873565b6000610df5825490565b6000610e9e838361487f565b60008181526001830160205260408120541515610e9e565b6060824710156147f8576040517f08c379a000000000000000000000000000000000000000000000000000000000815260206004820152602660248201527f416464726573733a20696e73756666696369656e742062616c616e636520666f60448201527f722063616c6c000000000000000000000000000000000000000000000000000060648201526084016109f2565b600080866001600160a01b031685876040516148149190615f1a565b60006040518083038185875af1925050503d8060008114614851576040519150601f19603f3d011682016040523d82523d6000602084013e614856565b606091505b5091509150612b90878383876148a9565b6000610e9e838361493c565b6000610e9e8383614a2f565b600082600001828154811061489657614896615760565b9060005260206000200154905092915050565b6060831561493257825160000361492b576001600160a01b0385163b61492b576040517f08c379a000000000000000000000000000000000000000000000000000000000815260206004820152601d60248201527f416464726573733a2063616c6c20746f206e6f6e2d636f6e747261637400000060448201526064016109f2565b50816121cb565b6121cb8383614a7e565b60008181526001830160205260408120548015614a25576000614960600183615caa565b855490915060009061497490600190615caa565b90508181146149d957600086600001828154811061499457614994615760565b90600052602060002001549050808760000184815481106149b7576149b7615760565b6000918252602080832090910192909255918252600188019052604090208390555b85548690806149ea576149ea615f36565b600190038181906000526020600020016000905590558560010160008681526020019081526020016000206000905560019350505050610df5565b6000915050610df5565b6000818152600183016020526040812054614a7657508154600181810184556000848152602080822090930184905584548482528286019093526040902091909155610df5565b506000610df5565b815115614a8e5781518083602001fd5b806040517f08c379a00000000000000000000000000000000000000000000000000000000081526004016109f29190614bd0565b60e08101610df582846001600160a01b03808251168352602082015167ffffffffffffffff808216602086015280604085015116604086015280606085015116606086015250506bffffffffffffffffffffffff60808301511660808401528060a08301511660a08401528060c08301511660c0840152505050565b6001600160a01b03811681146113d557600080fd5b8035614b5e81614b3e565b919050565b600060208284031215614b7557600080fd5b8135610e9e81614b3e565b60005b83811015614b9b578181015183820152602001614b83565b50506000910152565b60008151808452614bbc816020860160208601614b80565b601f01601f19169290920160200192915050565b602081526000610e9e6020830184614ba4565b67ffffffffffffffff811681146113d557600080fd5b600060a08284031215614c0b57600080fd5b50919050565b60008060408385031215614c2457600080fd5b8235614c2f81614be3565b9150602083013567ffffffffffffffff811115614c4b57600080fd5b614c5785828601614bf9565b9150509250929050565b7f4e487b7100000000000000000000000000000000000000000000000000000000600052604160045260246000fd5b6040805190810167ffffffffffffffff81118282101715614cb357614cb3614c61565b60405290565b60405160c0810167ffffffffffffffff81118282101715614cb357614cb3614c61565b604051610140810167ffffffffffffffff81118282101715614cb357614cb3614c61565b60405160a0810167ffffffffffffffff81118282101715614cb357614cb3614c61565b604051601f8201601f1916810167ffffffffffffffff81118282101715614d4c57614d4c614c61565b604052919050565b600067ffffffffffffffff821115614d6e57614d6e614c61565b5060051b60200190565b600082601f830112614d8957600080fd5b81356020614d9e614d9983614d54565b614d23565b82815260069290921b84018101918181019086841115614dbd57600080fd5b8286015b84811015614e0e5760408189031215614dda5760008081fd5b614de2614c90565b8135614ded81614b3e565b815281850135614dfc81614b3e565b81860152835291830191604001614dc1565b509695505050505050565b60008060408385031215614e2c57600080fd5b823567ffffffffffffffff80821115614e4457600080fd5b614e5086838701614d78565b93506020850135915080821115614e6657600080fd5b50614c5785828601614d78565b60008060408385031215614e8657600080fd5b8235614e9181614be3565b91506020830135614ea181614b3e565b809150509250929050565b60008060408385031215614ebf57600080fd5b8235614e9181614b3e565b80516001600160a01b031682526020810151614eec602084018261ffff169052565b506040810151614f04604084018263ffffffff169052565b506060810151614f1a606084018261ffff169052565b506080810151614f32608084018263ffffffff169052565b5060a0810151614f4860a084018261ffff169052565b5060c0810151614f5e60c084018261ffff169052565b5060e0810151614f7960e08401826001600160a01b03169052565b506101008181015163ffffffff81168483015250506101208181015163ffffffff8116848301526127bb565b6101408101610df58284614eca565b60008060208385031215614fc757600080fd5b823567ffffffffffffffff80821115614fdf57600080fd5b818501915085601f830112614ff357600080fd5b81358181111561500257600080fd5b8660208260061b850101111561501757600080fd5b60209290920196919550909350505050565b63ffffffff811681146113d557600080fd5b8035614b5e81615029565b803561ffff81168114614b5e57600080fd5b6000602080838503121561506b57600080fd5b823567ffffffffffffffff81111561508257600080fd5b8301601f8101851361509357600080fd5b80356150a1614d9982614d54565b81815260c091820283018401918482019190888411156150c057600080fd5b938501935b8385101561515c5780858a0312156150dd5760008081fd5b6150e5614cb9565b85356150f081614b3e565b8152858701356150ff81615029565b8188015260408681013561511281615029565b908201526060615123878201615046565b9082015260808681013561513681615029565b9082015260a08681013561514981615029565b90820152835293840193918501916150c5565b50979650505050505050565b600081518084526020808501945080840160005b838110156151b057815180516001600160a01b0316885283015161ffff16838801526040909601959082019060010161517c565b509495945050505050565b6040815260006151ce6040830185615168565b90508260208301529392505050565b80151581146113d557600080fd5b80356fffffffffffffffffffffffffffffffff81168114614b5e57600080fd5b60006060828403121561521d57600080fd5b6040516060810181811067ffffffffffffffff8211171561524057615240614c61565b604052823561524e816151dd565b815261525c602084016151eb565b602082015261526d604084016151eb565b60408201529392505050565b6000806000806080858703121561528f57600080fd5b843561529a81614be3565b9350602085013567ffffffffffffffff8111156152b657600080fd5b6152c287828801614bf9565b9350506040850135915060608501356152da81614b3e565b939692955090935050565b600061014082840312156152f857600080fd5b615300614cdc565b61530983614b53565b815261531760208401615046565b60208201526153286040840161503b565b604082015261533960608401615046565b606082015261534a6080840161503b565b608082015261535b60a08401615046565b60a082015261536c60c08401615046565b60c082015261537d60e08401614b53565b60e082015261010061539081850161503b565b908201526101206153a284820161503b565b908201529392505050565b600060208083850312156153c057600080fd5b823567ffffffffffffffff8111156153d757600080fd5b8301601f810185136153e857600080fd5b80356153f6614d9982614d54565b81815260a0918202830184019184820191908884111561541557600080fd5b938501935b8385101561515c5780858a0312156154325760008081fd5b61543a614d00565b853561544581614b3e565b81528587013561545481615029565b8188015260408681013561546781614be3565b9082015260608681013561547a81614be3565b9082015260808681013561548d816151dd565b908201528352938401939185019161541a565b6000602082840312156154b257600080fd5b8135610e9e81614be3565b6020808252825182820181905260009190848201906040850190845b818110156154fe5783516001600160a01b0316835292840192918401916001016154d9565b50909695505050505050565b60008083357fffffffffffffffffffffffffffffffffffffffffffffffffffffffffffffffe184360301811261553f57600080fd5b83018035915067ffffffffffffffff82111561555a57600080fd5b6020019150368190038213156135e857600080fd5b60008083357fffffffffffffffffffffffffffffffffffffffffffffffffffffffffffffffe18436030181126155a457600080fd5b83018035915067ffffffffffffffff8211156155bf57600080fd5b6020019150600681901b36038213156135e857600080fd5b80517bffffffffffffffffffffffffffffffffffffffffffffffffffffffff81168114614b5e57600080fd5b6000806040838503121561561657600080fd5b61561f836155d7565b915061562d602084016155d7565b90509250929050565b7f4e487b7100000000000000000000000000000000000000000000000000000000600052601160045260246000fd5b8082028115828204841417610df557610df5615636565b80820180821115610df557610df5615636565b6000826156c5577f4e487b7100000000000000000000000000000000000000000000000000000000600052601260045260246000fd5b500490565b67ffffffffffffffff81811683821601908082111561259d5761259d615636565b6000602082840312156156fd57600080fd5b5051919050565b60006040828403121561571657600080fd5b61571e614c90565b823561572981614b3e565b815261573760208401615046565b60208201529392505050565b60006020828403121561575557600080fd5b8151610e9e81614be3565b7f4e487b7100000000000000000000000000000000000000000000000000000000600052603260045260246000fd5b60007fffffffffffffffffffffffffffffffffffffffffffffffffffffffffffffffff82036157c0576157c0615636565b5060010190565b6000602082840312156157d957600080fd5b8151610e9e816151dd565b818352818160208501375060006020828401015260006020601f19601f840116840101905092915050565b6020815260006121cb6020830184866157e4565b60006020828403121561583557600080fd5b5035919050565b60006040828403121561584e57600080fd5b615856614c90565b823561586181614b3e565b81526020928301359281019290925250919050565b6bffffffffffffffffffffffff81811683821601908082111561259d5761259d615636565b600067ffffffffffffffff8083168181036158b8576158b8615636565b6001019392505050565b6001600160a01b038716815260a0602082015260006158e560a0830187896157e4565b85604084015267ffffffffffffffff85166060840152828103608084015261590d8185614ba4565b9998505050505050505050565b60006020828403121561592c57600080fd5b815167ffffffffffffffff8082111561594457600080fd5b818401915084601f83011261595857600080fd5b81518181111561596a5761596a614c61565b61597d6020601f19601f84011601614d23565b915080825285602082850101111561599457600080fd5b6159a5816020840160208601614b80565b50949350505050565b600081518084526020808501945080840160005b838110156151b057815180516001600160a01b0316885283015183880152604090960195908201906001016159c2565b600081518084526020808501808196508360051b8101915082860160005b85811015615a3a578284038952615a28848351614ba4565b98850198935090840190600101615a10565b5091979650505050505050565b60208152615a6260208201835167ffffffffffffffff169052565b60006020830151615a7e60408401826001600160a01b03169052565b5060408301516001600160a01b038116606084015250606083015167ffffffffffffffff8116608084015250608083015160a083015260a0830151615ac760c084018215159052565b5060c083015167ffffffffffffffff811660e08401525060e0830151610100615afa818501836001600160a01b03169052565b840151610120848101919091528401516101a061014080860182905291925090615b286101c0860184614ba4565b9250808601519050601f19610160818786030181880152615b4985846159ae565b945080880151925050610180818786030181880152615b6885846159f2565b970151959092019490945250929392505050565b6bffffffffffffffffffffffff82811682821603908082111561259d5761259d615636565b7fffffffff000000000000000000000000000000000000000000000000000000008135818116916004851015615be15780818660040360031b1b83161692505b505092915050565b60008085851115615bf957600080fd5b83861115615c0657600080fd5b5050820193919092039150565b600060208284031215615c2557600080fd5b6040516020810181811067ffffffffffffffff82111715615c4857615c48614c61565b6040529135825250919050565b600060208284031215615c6757600080fd5b610e9e826155d7565b63ffffffff81811683821601908082111561259d5761259d615636565b600060208284031215615c9f57600080fd5b8151610e9e81614b3e565b81810381811115610df557610df5615636565b818103600083128015838313168383128216171561259d5761259d615636565b600081615cec57615cec615636565b507fffffffffffffffffffffffffffffffffffffffffffffffffffffffffffffffff0190565b63ffffffff831681526040602082015260006121cb6040830184615168565b602080825282518282018190526000919060409081850190868401855b82811015615a3a57815180516001600160a01b031685528681015163ffffffff908116888701528682015181168787015260608083015161ffff169087015260808083015182169087015260a091820151169085015260c09093019290850190600101615d4e565b600060408284031215615dc857600080fd5b615dd0614c90565b615dd9836155d7565b8152602083015161573781615029565b602081526000610e9e60208301846159ae565b602081526000610e9e60208301846159f2565b6102208101615e8c82856001600160a01b03808251168352602082015167ffffffffffffffff808216602086015280604085015116604086015280606085015116606086015250506bffffffffffffffffffffffff60808301511660808401528060a08301511660a08401528060c08301511660c0840152505050565b610e9e60e0830184614eca565b602080825282518282018190526000919060409081850190868401855b82811015615a3a57815180516001600160a01b031685528681015163ffffffff16878601528581015167ffffffffffffffff908116878701526060808301519091169086015260809081015115159085015260a09093019290850190600101615eb6565b60008251615f2c818460208701614b80565b9190910192915050565b7f4e487b7100000000000000000000000000000000000000000000000000000000600052603160045260246000fdfea164736f6c6343000815000a",
    "linkReferences": {}
  },
  "methodIdentifiers": {
    "acceptOwnership()": "79ba5097",
    "applyPoolUpdates((address,address)[],(address,address)[])": "3a87ac53",
    "currentRateLimiterState()": "546719cd",
    "forwardFromRouter(uint64,(bytes,bytes,(address,uint256)[],address,bytes),uint256,address)": "df0aa9e9",
    "getDynamicConfig()": "7437ff9f",
    "getExpectedNextSequenceNumber()": "4120fccd",
    "getFee(uint64,(bytes,bytes,(address,uint256)[],address,bytes))": "20487ded",
    "getFeeTokenConfig(address)": "9a113c36",
    "getNopFeesJuels()": "54b71468",
    "getNops()": "b06d41bc",
    "getPoolBySourceToken(uint64,address)": "48a98aa4",
    "getSenderNonce(address)": "856c8247",
    "getStaticConfig()": "06285c69",
    "getSupportedTokens(uint64)": "fbca3b74",
    "getTokenLimitAdmin()": "599f6431",
    "getTokenTransferFeeConfig(address)": "1772047e",
    "linkAvailableForPayment()": "d09dc339",
    "owner()": "8da5cb5b",
    "payNops()": "eff7cc48",
    "setAdmin(address)": "704b6c02",
    "setDynamicConfig((address,uint16,uint32,uint16,uint32,uint16,uint16,address,uint32,uint32))": "e687b40a",
    "setFeeTokenConfig((address,uint32,uint64,uint64,bool)[])": "f25561fd",
    "setNops((address,uint16)[])": "76f6ae76",
    "setRateLimiterConfig((bool,uint128,uint128))": "c92b2832",
    "setTokenTransferFeeConfig((address,uint32,uint32,uint16,uint32,uint32)[])": "7ec75751",
    "transferOwnership(address)": "f2fde38b",
    "typeAndVersion()": "181f5a77",
    "withdrawNonLinkFees(address,address)": "549e946f"
  },
  "id": 131
}