{
  "abi": [
    {
      "inputs": [
        {
          "components": [
            {
              "internalType": "uint32",
              "name": "version",
              "type": "uint32"
            },
            {
              "internalType": "address",
              "name": "tokenMessenger",
              "type": "address"
            },
            {
              "internalType": "address",
              "name": "messageTransmitter",
              "type": "address"
            }
          ],
          "internalType": "struct USDCTokenPool.USDCConfig",
          "name": "config",
          "type": "tuple"
        },
        {
          "internalType": "contract IBurnMintERC20",
          "name": "token",
          "type": "address"
        },
        {
          "internalType": "address[]",
          "name": "allowlist",
          "type": "address[]"
        },
        {
          "internalType": "address",
          "name": "armProxy",
          "type": "address"
        },
        {
          "internalType": "uint32",
          "name": "localDomainIdentifier",
          "type": "uint32"
        }
      ],
      "stateMutability": "nonpayable",
      "type": "constructor"
    },
    {
      "inputs": [
        {
          "internalType": "uint256",
          "name": "capacity",
          "type": "uint256"
        },
        {
          "internalType": "uint256",
          "name": "requested",
          "type": "uint256"
        }
      ],
      "name": "AggregateValueMaxCapacityExceeded",
      "type": "error"
    },
    {
      "inputs": [
        {
          "internalType": "uint256",
          "name": "minWaitInSeconds",
          "type": "uint256"
        },
        {
          "internalType": "uint256",
          "name": "available",
          "type": "uint256"
        }
      ],
      "name": "AggregateValueRateLimitReached",
      "type": "error"
    },
    {
      "inputs": [],
      "name": "AllowListNotEnabled",
      "type": "error"
    },
    {
      "inputs": [],
      "name": "BadARMSignal",
      "type": "error"
    },
    {
      "inputs": [],
      "name": "BucketOverfilled",
      "type": "error"
    },
    {
      "inputs": [],
      "name": "InvalidConfig",
      "type": "error"
    },
    {
      "inputs": [
        {
          "internalType": "uint32",
          "name": "expected",
          "type": "uint32"
        },
        {
          "internalType": "uint32",
          "name": "got",
          "type": "uint32"
        }
      ],
      "name": "InvalidDestinationDomain",
      "type": "error"
    },
    {
      "inputs": [
        {
          "components": [
            {
              "internalType": "bytes32",
              "name": "allowedCaller",
              "type": "bytes32"
            },
            {
              "internalType": "uint32",
              "name": "domainIdentifier",
              "type": "uint32"
            },
            {
              "internalType": "uint64",
              "name": "destChainSelector",
              "type": "uint64"
            },
            {
              "internalType": "bool",
              "name": "enabled",
              "type": "bool"
            }
          ],
          "internalType": "struct USDCTokenPool.DomainUpdate",
          "name": "domain",
          "type": "tuple"
        }
      ],
      "name": "InvalidDomain",
      "type": "error"
    },
    {
      "inputs": [
        {
          "internalType": "uint32",
          "name": "version",
          "type": "uint32"
        }
      ],
      "name": "InvalidMessageVersion",
      "type": "error"
    },
    {
      "inputs": [
        {
          "internalType": "uint64",
          "name": "expected",
          "type": "uint64"
        },
        {
          "internalType": "uint64",
          "name": "got",
          "type": "uint64"
        }
      ],
      "name": "InvalidNonce",
      "type": "error"
    },
    {
      "inputs": [
        {
          "internalType": "uint32",
          "name": "expected",
          "type": "uint32"
        },
        {
          "internalType": "uint32",
          "name": "got",
          "type": "uint32"
        }
      ],
      "name": "InvalidSourceDomain",
      "type": "error"
    },
    {
      "inputs": [
        {
          "internalType": "uint32",
          "name": "version",
          "type": "uint32"
        }
      ],
      "name": "InvalidTokenMessengerVersion",
      "type": "error"
    },
    {
      "inputs": [
        {
          "internalType": "address",
          "name": "ramp",
          "type": "address"
        }
      ],
      "name": "NonExistentRamp",
      "type": "error"
    },
    {
      "inputs": [],
      "name": "PermissionsError",
      "type": "error"
    },
    {
      "inputs": [
        {
          "internalType": "address",
          "name": "ramp",
          "type": "address"
        }
      ],
      "name": "RampAlreadyExists",
      "type": "error"
    },
    {
      "inputs": [
        {
          "internalType": "address",
          "name": "sender",
          "type": "address"
        }
      ],
      "name": "SenderNotAllowed",
      "type": "error"
    },
    {
      "inputs": [
        {
          "internalType": "uint256",
          "name": "capacity",
          "type": "uint256"
        },
        {
          "internalType": "uint256",
          "name": "requested",
          "type": "uint256"
        },
        {
          "internalType": "address",
          "name": "tokenAddress",
          "type": "address"
        }
      ],
      "name": "TokenMaxCapacityExceeded",
      "type": "error"
    },
    {
      "inputs": [
        {
          "internalType": "uint256",
          "name": "minWaitInSeconds",
          "type": "uint256"
        },
        {
          "internalType": "uint256",
          "name": "available",
          "type": "uint256"
        },
        {
          "internalType": "address",
          "name": "tokenAddress",
          "type": "address"
        }
      ],
      "name": "TokenRateLimitReached",
      "type": "error"
    },
    {
      "inputs": [
        {
          "internalType": "uint64",
          "name": "domain",
          "type": "uint64"
        }
      ],
      "name": "UnknownDomain",
      "type": "error"
    },
    {
      "inputs": [],
      "name": "UnlockingUSDCFailed",
      "type": "error"
    },
    {
      "inputs": [],
      "name": "ZeroAddressNotAllowed",
      "type": "error"
    },
    {
      "anonymous": false,
      "inputs": [
        {
          "indexed": false,
          "internalType": "address",
          "name": "sender",
          "type": "address"
        }
      ],
      "name": "AllowListAdd",
      "type": "event"
    },
    {
      "anonymous": false,
      "inputs": [
        {
          "indexed": false,
          "internalType": "address",
          "name": "sender",
          "type": "address"
        }
      ],
      "name": "AllowListRemove",
      "type": "event"
    },
    {
      "anonymous": false,
      "inputs": [
        {
          "indexed": true,
          "internalType": "address",
          "name": "sender",
          "type": "address"
        },
        {
          "indexed": false,
          "internalType": "uint256",
          "name": "amount",
          "type": "uint256"
        }
      ],
      "name": "Burned",
      "type": "event"
    },
    {
      "anonymous": false,
      "inputs": [
        {
          "components": [
            {
              "internalType": "bool",
              "name": "isEnabled",
              "type": "bool"
            },
            {
              "internalType": "uint128",
              "name": "capacity",
              "type": "uint128"
            },
            {
              "internalType": "uint128",
              "name": "rate",
              "type": "uint128"
            }
          ],
          "indexed": false,
          "internalType": "struct RateLimiter.Config",
          "name": "config",
          "type": "tuple"
        }
      ],
      "name": "ConfigChanged",
      "type": "event"
    },
    {
      "anonymous": false,
      "inputs": [
        {
          "components": [
            {
              "internalType": "uint32",
              "name": "version",
              "type": "uint32"
            },
            {
              "internalType": "address",
              "name": "tokenMessenger",
              "type": "address"
            },
            {
              "internalType": "address",
              "name": "messageTransmitter",
              "type": "address"
            }
          ],
          "indexed": false,
          "internalType": "struct USDCTokenPool.USDCConfig",
          "name": "",
          "type": "tuple"
        }
      ],
      "name": "ConfigSet",
      "type": "event"
    },
    {
      "anonymous": false,
      "inputs": [
        {
          "components": [
            {
              "internalType": "bytes32",
              "name": "allowedCaller",
              "type": "bytes32"
            },
            {
              "internalType": "uint32",
              "name": "domainIdentifier",
              "type": "uint32"
            },
            {
              "internalType": "uint64",
              "name": "destChainSelector",
              "type": "uint64"
            },
            {
              "internalType": "bool",
              "name": "enabled",
              "type": "bool"
            }
          ],
          "indexed": false,
          "internalType": "struct USDCTokenPool.DomainUpdate[]",
          "name": "",
          "type": "tuple[]"
        }
      ],
      "name": "DomainsSet",
      "type": "event"
    },
    {
      "anonymous": false,
      "inputs": [
        {
          "indexed": true,
          "internalType": "address",
          "name": "sender",
          "type": "address"
        },
        {
          "indexed": false,
          "internalType": "uint256",
          "name": "amount",
          "type": "uint256"
        }
      ],
      "name": "Locked",
      "type": "event"
    },
    {
      "anonymous": false,
      "inputs": [
        {
          "indexed": true,
          "internalType": "address",
          "name": "sender",
          "type": "address"
        },
        {
          "indexed": true,
          "internalType": "address",
          "name": "recipient",
          "type": "address"
        },
        {
          "indexed": false,
          "internalType": "uint256",
          "name": "amount",
          "type": "uint256"
        }
      ],
      "name": "Minted",
      "type": "event"
    },
    {
      "anonymous": false,
      "inputs": [
        {
          "indexed": false,
          "internalType": "address",
          "name": "offRamp",
          "type": "address"
        },
        {
          "components": [
            {
              "internalType": "bool",
              "name": "isEnabled",
              "type": "bool"
            },
            {
              "internalType": "uint128",
              "name": "capacity",
              "type": "uint128"
            },
            {
              "internalType": "uint128",
              "name": "rate",
              "type": "uint128"
            }
          ],
          "indexed": false,
          "internalType": "struct RateLimiter.Config",
          "name": "rateLimiterConfig",
          "type": "tuple"
        }
      ],
      "name": "OffRampAdded",
      "type": "event"
    },
    {
      "anonymous": false,
      "inputs": [
        {
          "indexed": false,
          "internalType": "address",
          "name": "offRamp",
          "type": "address"
        },
        {
          "components": [
            {
              "internalType": "bool",
              "name": "isEnabled",
              "type": "bool"
            },
            {
              "internalType": "uint128",
              "name": "capacity",
              "type": "uint128"
            },
            {
              "internalType": "uint128",
              "name": "rate",
              "type": "uint128"
            }
          ],
          "indexed": false,
          "internalType": "struct RateLimiter.Config",
          "name": "rateLimiterConfig",
          "type": "tuple"
        }
      ],
      "name": "OffRampConfigured",
      "type": "event"
    },
    {
      "anonymous": false,
      "inputs": [
        {
          "indexed": false,
          "internalType": "address",
          "name": "offRamp",
          "type": "address"
        }
      ],
      "name": "OffRampRemoved",
      "type": "event"
    },
    {
      "anonymous": false,
      "inputs": [
        {
          "indexed": false,
          "internalType": "address",
          "name": "onRamp",
          "type": "address"
        },
        {
          "components": [
            {
              "internalType": "bool",
              "name": "isEnabled",
              "type": "bool"
            },
            {
              "internalType": "uint128",
              "name": "capacity",
              "type": "uint128"
            },
            {
              "internalType": "uint128",
              "name": "rate",
              "type": "uint128"
            }
          ],
          "indexed": false,
          "internalType": "struct RateLimiter.Config",
          "name": "rateLimiterConfig",
          "type": "tuple"
        }
      ],
      "name": "OnRampAdded",
      "type": "event"
    },
    {
      "anonymous": false,
      "inputs": [
        {
          "indexed": false,
          "internalType": "address",
          "name": "onRamp",
          "type": "address"
        },
        {
          "components": [
            {
              "internalType": "bool",
              "name": "isEnabled",
              "type": "bool"
            },
            {
              "internalType": "uint128",
              "name": "capacity",
              "type": "uint128"
            },
            {
              "internalType": "uint128",
              "name": "rate",
              "type": "uint128"
            }
          ],
          "indexed": false,
          "internalType": "struct RateLimiter.Config",
          "name": "rateLimiterConfig",
          "type": "tuple"
        }
      ],
      "name": "OnRampConfigured",
      "type": "event"
    },
    {
      "anonymous": false,
      "inputs": [
        {
          "indexed": false,
          "internalType": "address",
          "name": "onRamp",
          "type": "address"
        }
      ],
      "name": "OnRampRemoved",
      "type": "event"
    },
    {
      "anonymous": false,
      "inputs": [
        {
          "indexed": true,
          "internalType": "address",
          "name": "from",
          "type": "address"
        },
        {
          "indexed": true,
          "internalType": "address",
          "name": "to",
          "type": "address"
        }
      ],
      "name": "OwnershipTransferRequested",
      "type": "event"
    },
    {
      "anonymous": false,
      "inputs": [
        {
          "indexed": true,
          "internalType": "address",
          "name": "from",
          "type": "address"
        },
        {
          "indexed": true,
          "internalType": "address",
          "name": "to",
          "type": "address"
        }
      ],
      "name": "OwnershipTransferred",
      "type": "event"
    },
    {
      "anonymous": false,
      "inputs": [
        {
          "indexed": true,
          "internalType": "address",
          "name": "sender",
          "type": "address"
        },
        {
          "indexed": true,
          "internalType": "address",
          "name": "recipient",
          "type": "address"
        },
        {
          "indexed": false,
          "internalType": "uint256",
          "name": "amount",
          "type": "uint256"
        }
      ],
      "name": "Released",
      "type": "event"
    },
    {
      "anonymous": false,
      "inputs": [
        {
          "indexed": false,
          "internalType": "uint256",
          "name": "tokens",
          "type": "uint256"
        }
      ],
      "name": "TokensConsumed",
      "type": "event"
    },
    {
      "inputs": [],
      "name": "SUPPORTED_USDC_VERSION",
      "outputs": [
        {
          "internalType": "uint32",
          "name": "",
          "type": "uint32"
        }
      ],
      "stateMutability": "view",
      "type": "function"
    },
    {
      "inputs": [],
      "name": "acceptOwnership",
      "outputs": [],
      "stateMutability": "nonpayable",
      "type": "function"
    },
    {
      "inputs": [
        {
          "internalType": "address[]",
          "name": "removes",
          "type": "address[]"
        },
        {
          "internalType": "address[]",
          "name": "adds",
          "type": "address[]"
        }
      ],
      "name": "applyAllowListUpdates",
      "outputs": [],
      "stateMutability": "nonpayable",
      "type": "function"
    },
    {
      "inputs": [
        {
          "components": [
            {
              "internalType": "address",
              "name": "ramp",
              "type": "address"
            },
            {
              "internalType": "bool",
              "name": "allowed",
              "type": "bool"
            },
            {
              "components": [
                {
                  "internalType": "bool",
                  "name": "isEnabled",
                  "type": "bool"
                },
                {
                  "internalType": "uint128",
                  "name": "capacity",
                  "type": "uint128"
                },
                {
                  "internalType": "uint128",
                  "name": "rate",
                  "type": "uint128"
                }
              ],
              "internalType": "struct RateLimiter.Config",
              "name": "rateLimiterConfig",
              "type": "tuple"
            }
          ],
          "internalType": "struct TokenPool.RampUpdate[]",
          "name": "onRamps",
          "type": "tuple[]"
        },
        {
          "components": [
            {
              "internalType": "address",
              "name": "ramp",
              "type": "address"
            },
            {
              "internalType": "bool",
              "name": "allowed",
              "type": "bool"
            },
            {
              "components": [
                {
                  "internalType": "bool",
                  "name": "isEnabled",
                  "type": "bool"
                },
                {
                  "internalType": "uint128",
                  "name": "capacity",
                  "type": "uint128"
                },
                {
                  "internalType": "uint128",
                  "name": "rate",
                  "type": "uint128"
                }
              ],
              "internalType": "struct RateLimiter.Config",
              "name": "rateLimiterConfig",
              "type": "tuple"
            }
          ],
          "internalType": "struct TokenPool.RampUpdate[]",
          "name": "offRamps",
          "type": "tuple[]"
        }
      ],
      "name": "applyRampUpdates",
      "outputs": [],
      "stateMutability": "nonpayable",
      "type": "function"
    },
    {
      "inputs": [
        {
          "internalType": "address",
          "name": "offRamp",
          "type": "address"
        }
      ],
      "name": "currentOffRampRateLimiterState",
      "outputs": [
        {
          "components": [
            {
              "internalType": "uint128",
              "name": "tokens",
              "type": "uint128"
            },
            {
              "internalType": "uint32",
              "name": "lastUpdated",
              "type": "uint32"
            },
            {
              "internalType": "bool",
              "name": "isEnabled",
              "type": "bool"
            },
            {
              "internalType": "uint128",
              "name": "capacity",
              "type": "uint128"
            },
            {
              "internalType": "uint128",
              "name": "rate",
              "type": "uint128"
            }
          ],
          "internalType": "struct RateLimiter.TokenBucket",
          "name": "",
          "type": "tuple"
        }
      ],
      "stateMutability": "view",
      "type": "function"
    },
    {
      "inputs": [
        {
          "internalType": "address",
          "name": "onRamp",
          "type": "address"
        }
      ],
      "name": "currentOnRampRateLimiterState",
      "outputs": [
        {
          "components": [
            {
              "internalType": "uint128",
              "name": "tokens",
              "type": "uint128"
            },
            {
              "internalType": "uint32",
              "name": "lastUpdated",
              "type": "uint32"
            },
            {
              "internalType": "bool",
              "name": "isEnabled",
              "type": "bool"
            },
            {
              "internalType": "uint128",
              "name": "capacity",
              "type": "uint128"
            },
            {
              "internalType": "uint128",
              "name": "rate",
              "type": "uint128"
            }
          ],
          "internalType": "struct RateLimiter.TokenBucket",
          "name": "",
          "type": "tuple"
        }
      ],
      "stateMutability": "view",
      "type": "function"
    },
    {
      "inputs": [],
      "name": "getAllowList",
      "outputs": [
        {
          "internalType": "address[]",
          "name": "",
          "type": "address[]"
        }
      ],
      "stateMutability": "view",
      "type": "function"
    },
    {
      "inputs": [],
      "name": "getAllowListEnabled",
      "outputs": [
        {
          "internalType": "bool",
          "name": "",
          "type": "bool"
        }
      ],
      "stateMutability": "view",
      "type": "function"
    },
    {
      "inputs": [],
      "name": "getArmProxy",
      "outputs": [
        {
          "internalType": "address",
          "name": "armProxy",
          "type": "address"
        }
      ],
      "stateMutability": "view",
      "type": "function"
    },
    {
      "inputs": [],
      "name": "getConfig",
      "outputs": [
        {
          "components": [
            {
              "internalType": "uint32",
              "name": "version",
              "type": "uint32"
            },
            {
              "internalType": "address",
              "name": "tokenMessenger",
              "type": "address"
            },
            {
              "internalType": "address",
              "name": "messageTransmitter",
              "type": "address"
            }
          ],
          "internalType": "struct USDCTokenPool.USDCConfig",
          "name": "",
          "type": "tuple"
        }
      ],
      "stateMutability": "view",
      "type": "function"
    },
    {
      "inputs": [
        {
          "internalType": "uint64",
          "name": "chainSelector",
          "type": "uint64"
        }
      ],
      "name": "getDomain",
      "outputs": [
        {
          "components": [
            {
              "internalType": "bytes32",
              "name": "allowedCaller",
              "type": "bytes32"
            },
            {
              "internalType": "uint32",
              "name": "domainIdentifier",
              "type": "uint32"
            },
            {
              "internalType": "bool",
              "name": "enabled",
              "type": "bool"
            }
          ],
          "internalType": "struct USDCTokenPool.Domain",
          "name": "",
          "type": "tuple"
        }
      ],
      "stateMutability": "view",
      "type": "function"
    },
    {
      "inputs": [],
      "name": "getOffRamps",
      "outputs": [
        {
          "internalType": "address[]",
          "name": "",
          "type": "address[]"
        }
      ],
      "stateMutability": "view",
      "type": "function"
    },
    {
      "inputs": [],
      "name": "getOnRamps",
      "outputs": [
        {
          "internalType": "address[]",
          "name": "",
          "type": "address[]"
        }
      ],
      "stateMutability": "view",
      "type": "function"
    },
    {
      "inputs": [],
      "name": "getToken",
      "outputs": [
        {
          "internalType": "contract IERC20",
          "name": "token",
          "type": "address"
        }
      ],
      "stateMutability": "view",
      "type": "function"
    },
    {
      "inputs": [],
      "name": "getUSDCInterfaceId",
      "outputs": [
        {
          "internalType": "bytes4",
          "name": "",
          "type": "bytes4"
        }
      ],
      "stateMutability": "pure",
      "type": "function"
    },
    {
      "inputs": [],
      "name": "i_localDomainIdentifier",
      "outputs": [
        {
          "internalType": "uint32",
          "name": "",
          "type": "uint32"
        }
      ],
      "stateMutability": "view",
      "type": "function"
    },
    {
      "inputs": [
        {
          "internalType": "address",
          "name": "offRamp",
          "type": "address"
        }
      ],
      "name": "isOffRamp",
      "outputs": [
        {
          "internalType": "bool",
          "name": "",
          "type": "bool"
        }
      ],
      "stateMutability": "view",
      "type": "function"
    },
    {
      "inputs": [
        {
          "internalType": "address",
          "name": "onRamp",
          "type": "address"
        }
      ],
      "name": "isOnRamp",
      "outputs": [
        {
          "internalType": "bool",
          "name": "",
          "type": "bool"
        }
      ],
      "stateMutability": "view",
      "type": "function"
    },
    {
      "inputs": [
        {
          "internalType": "address",
          "name": "originalSender",
          "type": "address"
        },
        {
          "internalType": "bytes",
          "name": "destinationReceiver",
          "type": "bytes"
        },
        {
          "internalType": "uint256",
          "name": "amount",
          "type": "uint256"
        },
        {
          "internalType": "uint64",
          "name": "destChainSelector",
          "type": "uint64"
        },
        {
          "internalType": "bytes",
          "name": "",
          "type": "bytes"
        }
      ],
      "name": "lockOrBurn",
      "outputs": [
        {
          "internalType": "bytes",
          "name": "",
          "type": "bytes"
        }
      ],
      "stateMutability": "nonpayable",
      "type": "function"
    },
    {
      "inputs": [],
      "name": "owner",
      "outputs": [
        {
          "internalType": "address",
          "name": "",
          "type": "address"
        }
      ],
      "stateMutability": "view",
      "type": "function"
    },
    {
      "inputs": [
        {
          "internalType": "bytes",
          "name": "",
          "type": "bytes"
        },
        {
          "internalType": "address",
          "name": "receiver",
          "type": "address"
        },
        {
          "internalType": "uint256",
          "name": "amount",
          "type": "uint256"
        },
        {
          "internalType": "uint64",
          "name": "",
          "type": "uint64"
        },
        {
          "internalType": "bytes",
          "name": "extraData",
          "type": "bytes"
        }
      ],
      "name": "releaseOrMint",
      "outputs": [],
      "stateMutability": "nonpayable",
      "type": "function"
    },
    {
      "inputs": [
        {
          "components": [
            {
              "internalType": "uint32",
              "name": "version",
              "type": "uint32"
            },
            {
              "internalType": "address",
              "name": "tokenMessenger",
              "type": "address"
            },
            {
              "internalType": "address",
              "name": "messageTransmitter",
              "type": "address"
            }
          ],
          "internalType": "struct USDCTokenPool.USDCConfig",
          "name": "config",
          "type": "tuple"
        }
      ],
      "name": "setConfig",
      "outputs": [],
      "stateMutability": "nonpayable",
      "type": "function"
    },
    {
      "inputs": [
        {
          "components": [
            {
              "internalType": "bytes32",
              "name": "allowedCaller",
              "type": "bytes32"
            },
            {
              "internalType": "uint32",
              "name": "domainIdentifier",
              "type": "uint32"
            },
            {
              "internalType": "uint64",
              "name": "destChainSelector",
              "type": "uint64"
            },
            {
              "internalType": "bool",
              "name": "enabled",
              "type": "bool"
            }
          ],
          "internalType": "struct USDCTokenPool.DomainUpdate[]",
          "name": "domains",
          "type": "tuple[]"
        }
      ],
      "name": "setDomains",
      "outputs": [],
      "stateMutability": "nonpayable",
      "type": "function"
    },
    {
      "inputs": [
        {
          "internalType": "address",
          "name": "offRamp",
          "type": "address"
        },
        {
          "components": [
            {
              "internalType": "bool",
              "name": "isEnabled",
              "type": "bool"
            },
            {
              "internalType": "uint128",
              "name": "capacity",
              "type": "uint128"
            },
            {
              "internalType": "uint128",
              "name": "rate",
              "type": "uint128"
            }
          ],
          "internalType": "struct RateLimiter.Config",
          "name": "config",
          "type": "tuple"
        }
      ],
      "name": "setOffRampRateLimiterConfig",
      "outputs": [],
      "stateMutability": "nonpayable",
      "type": "function"
    },
    {
      "inputs": [
        {
          "internalType": "address",
          "name": "onRamp",
          "type": "address"
        },
        {
          "components": [
            {
              "internalType": "bool",
              "name": "isEnabled",
              "type": "bool"
            },
            {
              "internalType": "uint128",
              "name": "capacity",
              "type": "uint128"
            },
            {
              "internalType": "uint128",
              "name": "rate",
              "type": "uint128"
            }
          ],
          "internalType": "struct RateLimiter.Config",
          "name": "config",
          "type": "tuple"
        }
      ],
      "name": "setOnRampRateLimiterConfig",
      "outputs": [],
      "stateMutability": "nonpayable",
      "type": "function"
    },
    {
      "inputs": [
        {
          "internalType": "bytes4",
          "name": "interfaceId",
          "type": "bytes4"
        }
      ],
      "name": "supportsInterface",
      "outputs": [
        {
          "internalType": "bool",
          "name": "",
          "type": "bool"
        }
      ],
      "stateMutability": "pure",
      "type": "function"
    },
    {
      "inputs": [
        {
          "internalType": "address",
          "name": "to",
          "type": "address"
        }
      ],
      "name": "transferOwnership",
      "outputs": [],
      "stateMutability": "nonpayable",
      "type": "function"
    },
    {
      "inputs": [],
      "name": "typeAndVersion",
      "outputs": [
        {
          "internalType": "string",
          "name": "",
          "type": "string"
        }
      ],
      "stateMutability": "view",
      "type": "function"
    }
  ],
  "bytecode": {
    "object": "0x6101006040523480156200001257600080fd5b5060405162003fd638038062003fd68339810160408190526200003591620008d5565b83838333806000816200008f5760405162461bcd60e51b815260206004820152601860248201527f43616e6e6f7420736574206f776e657220746f207a65726f000000000000000060448201526064015b60405180910390fd5b600080546001600160a01b0319166001600160a01b0384811691909117909155811615620000c257620000c28162000150565b5050506001600160a01b038316620000ed576040516342bcdf7f60e11b815260040160405180910390fd5b6001600160a01b03808416608052811660a052815115801560c0526200012857604080516000815260208101909152620001289083620001fb565b5050506200013c856200036c60201b60201c565b63ffffffff1660e0525062000a8892505050565b336001600160a01b03821603620001aa5760405162461bcd60e51b815260206004820152601760248201527f43616e6e6f74207472616e7366657220746f2073656c66000000000000000000604482015260640162000086565b600180546001600160a01b0319166001600160a01b0383811691821790925560008054604051929316917fed8889f560326eb138920d842192f0eb3dd22b4f139c87a2c57538e05bae12789190a350565b60c0516200021c576040516335f4a7b360e01b815260040160405180910390fd5b60005b8251811015620002b1576000838281518110620002405762000240620009cb565b602090810291909101015190506200025a60028262000643565b156200029d576040516001600160a01b03821681527f800671136ab6cfee9fbe5ed1fb7ca417811aca3cf864800d127b927adedf75669060200160405180910390a15b50620002a981620009f7565b90506200021f565b5060005b815181101562000367576000828281518110620002d657620002d6620009cb565b6020026020010151905060006001600160a01b0316816001600160a01b03160362000302575062000354565b6200030f60028262000663565b1562000352576040516001600160a01b03821681527f2640d4d76caf8bf478aabfa982fa4e1c4eb71a37f93cd15e80dbc657911546d89060200160405180910390a15b505b6200035f81620009f7565b9050620002b5565b505050565b805163ffffffff16156200039f5780516040516334697c6b60e11b815263ffffffff909116600482015260240162000086565b60408101516001600160a01b03161580620003c5575060208101516001600160a01b0316155b15620003e4576040516306b7c75960e31b815260040160405180910390fd5b600081602001516001600160a01b0316639cdbb1816040518163ffffffff1660e01b81526004016020604051808303816000875af11580156200042b573d6000803e3d6000fd5b505050506040513d601f19601f8201168201806040525081019062000451919062000a13565b905063ffffffff81161562000482576040516316ba39c560e31b815263ffffffff8216600482015260240162000086565b600a5464010000000090046001600160a01b0316156200052257608051600a5460405163095ea7b360e01b81526001600160a01b03640100000000909204821660048201526000602482015291169063095ea7b3906044016020604051808303816000875af1158015620004fa573d6000803e3d6000fd5b505050506040513d601f19601f8201168201806040525081019062000520919062000a31565b505b608051602083015160405163095ea7b360e01b81526001600160a01b039182166004820152600019602482015291169063095ea7b3906044016020604051808303816000875af11580156200057b573d6000803e3d6000fd5b505050506040513d601f19601f82011682018060405250810190620005a1919062000a31565b508151600a80546020808601805163ffffffff9095166001600160c01b031990931683176401000000006001600160a01b03968716021790935560408087018051600b80546001600160a01b031916918816919091179055815193845293518516918301919091529151909216908201527f33a7d35707e0c8e46d6fa8dd98b73765c14247a559106927070b1cfd2933f4039060600160405180910390a15050565b60006200065a836001600160a01b0384166200067a565b90505b92915050565b60006200065a836001600160a01b0384166200077e565b6000818152600183016020526040812054801562000773576000620006a160018362000a5c565b8554909150600090620006b79060019062000a5c565b905081811462000723576000866000018281548110620006db57620006db620009cb565b9060005260206000200154905080876000018481548110620007015762000701620009cb565b6000918252602080832090910192909255918252600188019052604090208390555b855486908062000737576200073762000a72565b6001900381819060005260206000200160009055905585600101600086815260200190815260200160002060009055600193505050506200065d565b60009150506200065d565b6000818152600183016020526040812054620007c7575081546001818101845560008481526020808220909301849055845484825282860190935260409020919091556200065d565b5060006200065d565b634e487b7160e01b600052604160045260246000fd5b805163ffffffff81168114620007fb57600080fd5b919050565b6001600160a01b03811681146200081657600080fd5b50565b8051620007fb8162000800565b600082601f8301126200083857600080fd5b815160206001600160401b0380831115620008575762000857620007d0565b8260051b604051601f19603f830116810181811084821117156200087f576200087f620007d0565b6040529384528581018301938381019250878511156200089e57600080fd5b83870191505b84821015620008ca578151620008ba8162000800565b83529183019190830190620008a4565b979650505050505050565b600080600080600085870360e0811215620008ef57600080fd5b6060811215620008fe57600080fd5b50604051606081016001600160401b038082118383101715620009255762000925620007d0565b816040526200093489620007e6565b835260208901519150620009488262000800565b81602084015260408901519150620009608262000800565b8160408401528297506200097760608a0162000819565b965060808901519250808311156200098e57600080fd5b50506200099e8882890162000826565b935050620009af60a0870162000819565b9150620009bf60c08701620007e6565b90509295509295909350565b634e487b7160e01b600052603260045260246000fd5b634e487b7160e01b600052601160045260246000fd5b60006001820162000a0c5762000a0c620009e1565b5060010190565b60006020828403121562000a2657600080fd5b6200065a82620007e6565b60006020828403121562000a4457600080fd5b8151801515811462000a5557600080fd5b9392505050565b818103818111156200065d576200065d620009e1565b634e487b7160e01b600052603160045260246000fd5b60805160a05160c05160e0516134ce62000b08600039600081816102ec01528181610f6b01528181611b5b0152611bb90152600081816105c101528181610d070152611673015260006102b001526000818161026301528181610e86015281816114650152818161153701528181611a7f0152611c7701526134ce6000f3fe608060405234801561001057600080fd5b50600436106101c35760003560e01c80638627fad6116100f9578063b3a3fb4111610097578063d612b94511610071578063d612b9451461050e578063dfadfa3514610521578063e0351e13146105bf578063f2fde38b146105e557600080fd5b8063b3a3fb4114610452578063c3f909d414610465578063c49907b5146104fb57600080fd5b806396875445116100d357806396875445146104275780639fdf13ff1461043a578063a40e69c714610442578063a7cd63b71461044a57600080fd5b80638627fad6146103ee57806387381314146104015780638da5cb5b1461041657600080fd5b806354c8a4f3116101665780636f32b872116101405780636f32b872146103515780637448b3c7146103645780637787e7ab1461037757806379ba5097146103e657600080fd5b806354c8a4f3146102d45780636b716b0d146102e75780636d1081391461032357600080fd5b80631d7a74a0116101a25780631d7a74a01461024e57806321df0da714610261578063263a890a1461029b5780635246492f146102ae57600080fd5b806241d3c1146101c857806301ffc9a7146101dd578063181f5a7714610205575b600080fd5b6101db6101d6366004612813565b6105f8565b005b6101f06101eb366004612888565b61079f565b60405190151581526020015b60405180910390f35b6102416040518060400160405280601381526020017f55534443546f6b656e506f6f6c20312e322e300000000000000000000000000081525081565b6040516101fc9190612938565b6101f061025c366004612967565b6107fb565b7f00000000000000000000000000000000000000000000000000000000000000005b6040516001600160a01b0390911681526020016101fc565b6101db6102a9366004612a5e565b610808565b7f0000000000000000000000000000000000000000000000000000000000000000610283565b6101db6102e2366004612afa565b61081c565b61030e7f000000000000000000000000000000000000000000000000000000000000000081565b60405163ffffffff90911681526020016101fc565b6040517fd6aca1be0000000000000000000000000000000000000000000000000000000081526020016101fc565b6101f061035f366004612967565b610897565b6101db610372366004612be5565b6108a4565b61038a610385366004612967565b610949565b6040516101fc919081516fffffffffffffffffffffffffffffffff908116825260208084015163ffffffff1690830152604080840151151590830152606080840151821690830152608092830151169181019190915260a00190565b6101db610a1a565b6101db6103fc366004612ccb565b610afd565b610409610cb2565b6040516101fc9190612d5e565b6000546001600160a01b0316610283565b610241610435366004612ded565b610cc3565b61030e600081565b610409610fc3565b610409610fcf565b61038a610460366004612967565b610fdb565b6104c260408051606081018252600080825260208201819052918101919091525060408051606081018252600a5463ffffffff811682526001600160a01b0364010000000090910481166020830152600b54169181019190915290565b60408051825163ffffffff1681526020808401516001600160a01b039081169183019190915292820151909216908201526060016101fc565b6101db610509366004612ed1565b6110ac565b6101db61051c366004612be5565b6110c0565b61059561052f366004612f31565b60408051606080820183526000808352602080840182905292840181905267ffffffffffffffff949094168452600c82529282902082519384018352805484526001015463ffffffff811691840191909152640100000000900460ff1615159082015290565b604080518251815260208084015163ffffffff1690820152918101511515908201526060016101fc565b7f00000000000000000000000000000000000000000000000000000000000000006101f0565b6101db6105f3366004612967565b611165565b610600611176565b60005b8181101561076157600083838381811061061f5761061f612f4e565b9050608002018036038101906106359190612f7d565b805190915015806106525750604081015167ffffffffffffffff16155b156106c157604080517fa087bd2900000000000000000000000000000000000000000000000000000000815282516004820152602083015163ffffffff1660248201529082015167ffffffffffffffff1660448201526060820151151560648201526084015b60405180910390fd5b60408051606080820183528351825260208085015163ffffffff9081168285019081529286015115158486019081529585015167ffffffffffffffff166000908152600c90925293902091518255516001909101805493511515640100000000027fffffffffffffffffffffffffffffffffffffffffffffffffffffff0000000000909416919092161791909117905561075a81613028565b9050610603565b507f1889010d2535a0ab1643678d1da87fbbe8b87b2f585b47ddb72ec622aef9ee568282604051610793929190613060565b60405180910390a15050565b60007fffffffff0000000000000000000000000000000000000000000000000000000082167fd6aca1be0000000000000000000000000000000000000000000000000000000014806107f557506107f5826111ec565b92915050565b60006107f5600783611284565b610810611176565b610819816112a9565b50565b610824611176565b6108918484808060200260200160405190810160405280939291908181526020018383602002808284376000920191909152505060408051602080880282810182019093528782529093508792508691829185019084908082843760009201919091525061167192505050565b50505050565b60006107f5600483611284565b6108ac611176565b6108b582610897565b6108f6576040517f498f12f60000000000000000000000000000000000000000000000000000000081526001600160a01b03831660048201526024016106b8565b6001600160a01b03821660009081526006602052604090206109189082611808565b7f578db78e348076074dbff64a94073a83e9a65aa6766b8c75fdc89282b0e30ed682826040516107939291906130e9565b6040805160a0810182526000808252602082018190529181018290526060810182905260808101919091526001600160a01b038216600090815260066020908152604091829020825160a08101845281546fffffffffffffffffffffffffffffffff808216835270010000000000000000000000000000000080830463ffffffff16958401959095527401000000000000000000000000000000000000000090910460ff1615159482019490945260019091015480841660608301529190910490911660808201526107f5906119b7565b6001546001600160a01b03163314610a8e576040517f08c379a000000000000000000000000000000000000000000000000000000000815260206004820152601660248201527f4d7573742062652070726f706f736564206f776e65720000000000000000000060448201526064016106b8565b60008054337fffffffffffffffffffffffff0000000000000000000000000000000000000000808316821784556001805490911690556040516001600160a01b0390921692909183917f8be0079c531659141344cd1fd0a4f28419497f9722a3daafe3b4186f6b6457e091a350565b610b06336107fb565b610b3c576040517f5307f5ab00000000000000000000000000000000000000000000000000000000815260040160405180910390fd5b610b4583611a69565b60008082806020019051810190610b5c9190613181565b91509150600082806020019051810190610b7691906131e5565b9050600082806020019051810190610b8e9190613226565b9050610b9e816000015183611aa3565b600b54815160208301516040517f57ecfd280000000000000000000000000000000000000000000000000000000081526001600160a01b03909316926357ecfd2892610bee9290916004016132b7565b6020604051808303816000875af1158015610c0d573d6000803e3d6000fd5b505050506040513d601f19601f82011682018060405250810190610c3191906132dc565b610c67576040517fbf969f2200000000000000000000000000000000000000000000000000000000815260040160405180910390fd5b6040518781526001600160a01b0389169033907f9d228d69b5fdb8d273a2336f8fb8612d039631024ea9bf09c424a9503aa078f09060200160405180910390a3505050505050505050565b6060610cbe6004611c54565b905090565b6060610cce33610897565b610d04576040517f5307f5ab00000000000000000000000000000000000000000000000000000000815260040160405180910390fd5b877f00000000000000000000000000000000000000000000000000000000000000008015610d3a5750610d38600282611284565b155b15610d7c576040517fd0d259760000000000000000000000000000000000000000000000000000000081526001600160a01b03821660048201526024016106b8565b67ffffffffffffffff85166000908152600c602090815260409182902082516060810184528154815260019091015463ffffffff81169282019290925264010000000090910460ff16151591810182905290610e10576040517fd201c48a00000000000000000000000000000000000000000000000000000000815267ffffffffffffffff871660048201526024016106b8565b610e1987611c61565b6000610e286020828b8d6132f9565b610e3191613323565b600a54602084015184516040517ff856ddb6000000000000000000000000000000000000000000000000000000008152600481018d905263ffffffff9092166024830152604482018490526001600160a01b037f00000000000000000000000000000000000000000000000000000000000000008116606484015260848301919091529293506000926401000000009092049091169063f856ddb69060a4016020604051808303816000875af1158015610eef573d6000803e3d6000fd5b505050506040513d601f19601f82011682018060405250810190610f13919061335f565b6040518a815290915033907f696de425f79f4a40bc6d2122ca50507f0efbeabbff86a84871b7196ab8ea8df79060200160405180910390a260408051808201825267ffffffffffffffff9290921680835263ffffffff7f00000000000000000000000000000000000000000000000000000000000000008116602094850190815283519485019290925290511682820152805180830382018152606090920190529b9a5050505050505050505050565b6060610cbe6007611c54565b6060610cbe6002611c54565b6040805160a0810182526000808252602082018190529181018290526060810182905260808101919091526001600160a01b038216600090815260096020908152604091829020825160a08101845281546fffffffffffffffffffffffffffffffff808216835270010000000000000000000000000000000080830463ffffffff16958401959095527401000000000000000000000000000000000000000090910460ff1615159482019490945260019091015480841660608301529190910490911660808201526107f5906119b7565b6110b4611176565b61089184848484611c9b565b6110c8611176565b6110d1826107fb565b611112576040517f498f12f60000000000000000000000000000000000000000000000000000000081526001600160a01b03831660048201526024016106b8565b6001600160a01b03821660009081526009602052604090206111349082611808565b7fb3ba339cfbb8ef80d7a29ce5493051cb90e64fcfa85d7124efc1adfa4c68399f82826040516107939291906130e9565b61116d611176565b610819816121e3565b6000546001600160a01b031633146111ea576040517f08c379a000000000000000000000000000000000000000000000000000000000815260206004820152601660248201527f4f6e6c792063616c6c61626c65206279206f776e65720000000000000000000060448201526064016106b8565b565b60007fffffffff0000000000000000000000000000000000000000000000000000000082167f317fa3340000000000000000000000000000000000000000000000000000000014806107f557507fffffffff0000000000000000000000000000000000000000000000000000000082167f01ffc9a7000000000000000000000000000000000000000000000000000000001492915050565b6001600160a01b038116600090815260018301602052604081205415155b9392505050565b805163ffffffff16156112f35780516040517f68d2f8d600000000000000000000000000000000000000000000000000000000815263ffffffff90911660048201526024016106b8565b60408101516001600160a01b03161580611318575060208101516001600160a01b0316155b1561134f576040517f35be3ac800000000000000000000000000000000000000000000000000000000815260040160405180910390fd5b600081602001516001600160a01b0316639cdbb1816040518163ffffffff1660e01b81526004016020604051808303816000875af1158015611395573d6000803e3d6000fd5b505050506040513d601f19601f820116820180604052508101906113b9919061337c565b905063ffffffff811615611401576040517fb5d1ce2800000000000000000000000000000000000000000000000000000000815263ffffffff821660048201526024016106b8565b600a5464010000000090046001600160a01b0316156114d457600a546040517f095ea7b30000000000000000000000000000000000000000000000000000000081526401000000009091046001600160a01b039081166004830152600060248301527f0000000000000000000000000000000000000000000000000000000000000000169063095ea7b3906044016020604051808303816000875af11580156114ae573d6000803e3d6000fd5b505050506040513d601f19601f820116820180604052508101906114d291906132dc565b505b60208201516040517f095ea7b30000000000000000000000000000000000000000000000000000000081526001600160a01b0391821660048201527fffffffffffffffffffffffffffffffffffffffffffffffffffffffffffffffff60248201527f00000000000000000000000000000000000000000000000000000000000000009091169063095ea7b3906044016020604051808303816000875af1158015611582573d6000803e3d6000fd5b505050506040513d601f19601f820116820180604052508101906115a691906132dc565b508151600a80546020808601805163ffffffff9095167fffffffffffffffff00000000000000000000000000000000000000000000000090931683176401000000006001600160a01b03968716021790935560408087018051600b80547fffffffffffffffffffffffff000000000000000000000000000000000000000016918816919091179055815193845293518516918301919091529151909216908201527f33a7d35707e0c8e46d6fa8dd98b73765c14247a559106927070b1cfd2933f40390606001610793565b7f00000000000000000000000000000000000000000000000000000000000000006116c8576040517f35f4a7b300000000000000000000000000000000000000000000000000000000815260040160405180910390fd5b60005b82518110156117595760008382815181106116e8576116e8612f4e565b602002602001015190506117068160026122be90919063ffffffff16565b15611748576040516001600160a01b03821681527f800671136ab6cfee9fbe5ed1fb7ca417811aca3cf864800d127b927adedf75669060200160405180910390a15b5061175281613028565b90506116cb565b5060005b815181101561180357600082828151811061177a5761177a612f4e565b6020026020010151905060006001600160a01b0316816001600160a01b0316036117a457506117f3565b6117af6002826122d3565b156117f1576040516001600160a01b03821681527f2640d4d76caf8bf478aabfa982fa4e1c4eb71a37f93cd15e80dbc657911546d89060200160405180910390a15b505b6117fc81613028565b905061175d565b505050565b815460009061183190700100000000000000000000000000000000900463ffffffff1642613399565b905080156118d35760018301548354611879916fffffffffffffffffffffffffffffffff808216928116918591700100000000000000000000000000000000909104166122e8565b83546fffffffffffffffffffffffffffffffff919091167fffffffffffffffffffffffff0000000000000000000000000000000000000000909116177001000000000000000000000000000000004263ffffffff16021783555b602082015183546118f9916fffffffffffffffffffffffffffffffff9081169116612310565b83548351151574010000000000000000000000000000000000000000027fffffffffffffffffffffff00ffffffff000000000000000000000000000000009091166fffffffffffffffffffffffffffffffff92831617178455602083015160408085015183167001000000000000000000000000000000000291909216176001850155517f9ea3374b67bf275e6bb9c8ae68f9cae023e1c528b4b27e092f0bb209d3531c19906119aa9084906133ac565b60405180910390a1505050565b6040805160a081018252600080825260208201819052918101829052606081018290526080810191909152611a4582606001516fffffffffffffffffffffffffffffffff1683600001516fffffffffffffffffffffffffffffffff16846020015163ffffffff1642611a299190613399565b85608001516fffffffffffffffffffffffffffffffff166122e8565b6fffffffffffffffffffffffffffffffff1682525063ffffffff4216602082015290565b33600090815260096020526040902061081990827f0000000000000000000000000000000000000000000000000000000000000000612326565b600482015163ffffffff811615611aee576040517f68d2f8d600000000000000000000000000000000000000000000000000000000815263ffffffff821660048201526024016106b8565b6008830151600c8401516014850151602085015163ffffffff808516911614611b595760208501516040517fe366a11700000000000000000000000000000000000000000000000000000000815263ffffffff918216600482015290841660248201526044016106b8565b7f000000000000000000000000000000000000000000000000000000000000000063ffffffff168263ffffffff1614611bee576040517f77e4802600000000000000000000000000000000000000000000000000000000815263ffffffff7f000000000000000000000000000000000000000000000000000000000000000081166004830152831660248201526044016106b8565b845167ffffffffffffffff828116911614611c4c5784516040517ff917ffea00000000000000000000000000000000000000000000000000000000815267ffffffffffffffff918216600482015290821660248201526044016106b8565b505050505050565b606060006112a283612675565b33600090815260066020526040902061081990827f0000000000000000000000000000000000000000000000000000000000000000612326565b611ca3611176565b60005b83811015611f7f576000858583818110611cc257611cc2612f4e565b905060a00201803603810190611cd891906133e8565b9050806020015115611e96578051611cf2906004906122d3565b15611e56576040805160a08101825282820180516020908101516fffffffffffffffffffffffffffffffff908116845263ffffffff4281168386019081528451511515868801908152855185015184166060880190815286518901518516608089019081528a516001600160a01b031660009081526006909752958990209751885493519251151574010000000000000000000000000000000000000000027fffffffffffffffffffffff00ffffffffffffffffffffffffffffffffffffffff939095167001000000000000000000000000000000009081027fffffffffffffffffffffffff0000000000000000000000000000000000000000909516918716919091179390931791909116929092178655905192518216029116176001909201919091558251905191517f0b594bb0555ff7b252e0c789ccc9d8903fec294172064308727d570505cee1ac92611e4992916130e9565b60405180910390a1611f6e565b80516040517fd3eb6bc50000000000000000000000000000000000000000000000000000000081526001600160a01b0390911660048201526024016106b8565b8051611ea4906004906122be565b15611f2e5780516001600160a01b031660009081526006602052604080822080547fffffffffffffffffffffff00000000000000000000000000000000000000000016815560010191909155815190517f7fd064821314ad863a0714a3f1229375ace6b6427ed5544b7b2ba1c47b1b529491611e49916001600160a01b0391909116815260200190565b80516040517f498f12f60000000000000000000000000000000000000000000000000000000081526001600160a01b0390911660048201526024016106b8565b50611f7881613028565b9050611ca6565b5060005b818110156121dc576000838383818110611f9f57611f9f612f4e565b905060a00201803603810190611fb591906133e8565b9050806020015115612133578051611fcf906007906122d3565b15611e56576040805160a08101825282820180516020908101516fffffffffffffffffffffffffffffffff908116845263ffffffff4281168386019081528451511515868801908152855185015184166060880190815286518901518516608089019081528a516001600160a01b031660009081526009909752958990209751885493519251151574010000000000000000000000000000000000000000027fffffffffffffffffffffff00ffffffffffffffffffffffffffffffffffffffff939095167001000000000000000000000000000000009081027fffffffffffffffffffffffff0000000000000000000000000000000000000000909516918716919091179390931791909116929092178655905192518216029116176001909201919091558251905191517f395b7374909d2b54e5796f53c898ebf41d767c86c78ea86519acf2b805852d889261212692916130e9565b60405180910390a16121cb565b8051612141906007906122be565b15611f2e5780516001600160a01b031660009081526009602052604080822080547fffffffffffffffffffffff00000000000000000000000000000000000000000016815560010191909155815190517fcf91daec21e3510e2f2aea4b09d08c235d5c6844980be709f282ef591dbf420c91612126916001600160a01b0391909116815260200190565b506121d581613028565b9050611f83565b5050505050565b336001600160a01b03821603612255576040517f08c379a000000000000000000000000000000000000000000000000000000000815260206004820152601760248201527f43616e6e6f74207472616e7366657220746f2073656c6600000000000000000060448201526064016106b8565b600180547fffffffffffffffffffffffff0000000000000000000000000000000000000000166001600160a01b0383811691821790925560008054604051929316917fed8889f560326eb138920d842192f0eb3dd22b4f139c87a2c57538e05bae12789190a350565b60006112a2836001600160a01b0384166126d1565b60006112a2836001600160a01b0384166127c4565b6000612307856122f8848661342d565b6123029087613444565b612310565b95945050505050565b600081831061231f57816112a2565b5090919050565b825474010000000000000000000000000000000000000000900460ff16158061234d575081155b1561235757505050565b825460018401546fffffffffffffffffffffffffffffffff8083169291169060009061239d90700100000000000000000000000000000000900463ffffffff1642613399565b9050801561245d57818311156123df576040517f9725942a00000000000000000000000000000000000000000000000000000000815260040160405180910390fd5b60018601546124199083908590849070010000000000000000000000000000000090046fffffffffffffffffffffffffffffffff166122e8565b86547fffffffffffffffffffffffff00000000ffffffffffffffffffffffffffffffff167001000000000000000000000000000000004263ffffffff160217875592505b848210156124fa576001600160a01b0384166124af576040517ff94ebcd100000000000000000000000000000000000000000000000000000000815260048101839052602481018690526044016106b8565b6040517f1a76572a00000000000000000000000000000000000000000000000000000000815260048101839052602481018690526001600160a01b03851660448201526064016106b8565b848310156125f35760018681015470010000000000000000000000000000000090046fffffffffffffffffffffffffffffffff1690600090829061253e9082613399565b612548878a613399565b6125529190613444565b61255c9190613457565b90506001600160a01b0386166125a8576040517f15279c0800000000000000000000000000000000000000000000000000000000815260048101829052602481018690526044016106b8565b6040517fd0c8d23a00000000000000000000000000000000000000000000000000000000815260048101829052602481018690526001600160a01b03871660448201526064016106b8565b6125fd8584613399565b86547fffffffffffffffffffffffffffffffff00000000000000000000000000000000166fffffffffffffffffffffffffffffffff82161787556040518681529093507f1871cdf8010e63f2eb8384381a68dfa7416dc571a5517e66e88b2d2d0c0a690a9060200160405180910390a1505050505050565b6060816000018054806020026020016040519081016040528092919081815260200182805480156126c557602002820191906000526020600020905b8154815260200190600101908083116126b1575b50505050509050919050565b600081815260018301602052604081205480156127ba5760006126f5600183613399565b855490915060009061270990600190613399565b905081811461276e57600086600001828154811061272957612729612f4e565b906000526020600020015490508087600001848154811061274c5761274c612f4e565b6000918252602080832090910192909255918252600188019052604090208390555b855486908061277f5761277f613492565b6001900381819060005260206000200160009055905585600101600086815260200190815260200160002060009055600193505050506107f5565b60009150506107f5565b600081815260018301602052604081205461280b575081546001818101845560008481526020808220909301849055845484825282860190935260409020919091556107f5565b5060006107f5565b6000806020838503121561282657600080fd5b823567ffffffffffffffff8082111561283e57600080fd5b818501915085601f83011261285257600080fd5b81358181111561286157600080fd5b8660208260071b850101111561287657600080fd5b60209290920196919550909350505050565b60006020828403121561289a57600080fd5b81357fffffffff00000000000000000000000000000000000000000000000000000000811681146112a257600080fd5b60005b838110156128e55781810151838201526020016128cd565b50506000910152565b600081518084526129068160208601602086016128ca565b601f017fffffffffffffffffffffffffffffffffffffffffffffffffffffffffffffffe0169290920160200192915050565b6020815260006112a260208301846128ee565b80356001600160a01b038116811461296257600080fd5b919050565b60006020828403121561297957600080fd5b6112a28261294b565b7f4e487b7100000000000000000000000000000000000000000000000000000000600052604160045260246000fd5b6040516060810167ffffffffffffffff811182821017156129d4576129d4612982565b60405290565b6040805190810167ffffffffffffffff811182821017156129d4576129d4612982565b604051601f82017fffffffffffffffffffffffffffffffffffffffffffffffffffffffffffffffe016810167ffffffffffffffff81118282101715612a4457612a44612982565b604052919050565b63ffffffff8116811461081957600080fd5b600060608284031215612a7057600080fd5b612a786129b1565b8235612a8381612a4c565b8152612a916020840161294b565b6020820152612aa26040840161294b565b60408201529392505050565b60008083601f840112612ac057600080fd5b50813567ffffffffffffffff811115612ad857600080fd5b6020830191508360208260051b8501011115612af357600080fd5b9250929050565b60008060008060408587031215612b1057600080fd5b843567ffffffffffffffff80821115612b2857600080fd5b612b3488838901612aae565b90965094506020870135915080821115612b4d57600080fd5b50612b5a87828801612aae565b95989497509550505050565b801515811461081957600080fd5b80356fffffffffffffffffffffffffffffffff8116811461296257600080fd5b600060608284031215612ba657600080fd5b612bae6129b1565b90508135612bbb81612b66565b8152612bc960208301612b74565b6020820152612bda60408301612b74565b604082015292915050565b60008060808385031215612bf857600080fd5b612c018361294b565b9150612c108460208501612b94565b90509250929050565b600067ffffffffffffffff821115612c3357612c33612982565b50601f017fffffffffffffffffffffffffffffffffffffffffffffffffffffffffffffffe01660200190565b600082601f830112612c7057600080fd5b8135612c83612c7e82612c19565b6129fd565b818152846020838601011115612c9857600080fd5b816020850160208301376000918101602001919091529392505050565b67ffffffffffffffff8116811461081957600080fd5b600080600080600060a08688031215612ce357600080fd5b853567ffffffffffffffff80821115612cfb57600080fd5b612d0789838a01612c5f565b9650612d156020890161294b565b95506040880135945060608801359150612d2e82612cb5565b90925060808701359080821115612d4457600080fd5b50612d5188828901612c5f565b9150509295509295909350565b6020808252825182820181905260009190848201906040850190845b81811015612d9f5783516001600160a01b031683529284019291840191600101612d7a565b50909695505050505050565b60008083601f840112612dbd57600080fd5b50813567ffffffffffffffff811115612dd557600080fd5b602083019150836020828501011115612af357600080fd5b600080600080600080600060a0888a031215612e0857600080fd5b612e118861294b565b9650602088013567ffffffffffffffff80821115612e2e57600080fd5b612e3a8b838c01612dab565b909850965060408a0135955060608a01359150612e5682612cb5565b90935060808901359080821115612e6c57600080fd5b50612e798a828b01612dab565b989b979a50959850939692959293505050565b60008083601f840112612e9e57600080fd5b50813567ffffffffffffffff811115612eb657600080fd5b60208301915083602060a083028501011115612af357600080fd5b60008060008060408587031215612ee757600080fd5b843567ffffffffffffffff80821115612eff57600080fd5b612f0b88838901612e8c565b90965094506020870135915080821115612f2457600080fd5b50612b5a87828801612e8c565b600060208284031215612f4357600080fd5b81356112a281612cb5565b7f4e487b7100000000000000000000000000000000000000000000000000000000600052603260045260246000fd5b600060808284031215612f8f57600080fd5b6040516080810181811067ffffffffffffffff82111715612fb257612fb2612982565b604052823581526020830135612fc781612a4c565b60208201526040830135612fda81612cb5565b60408201526060830135612fed81612b66565b60608201529392505050565b7f4e487b7100000000000000000000000000000000000000000000000000000000600052601160045260246000fd5b60007fffffffffffffffffffffffffffffffffffffffffffffffffffffffffffffffff820361305957613059612ff9565b5060010190565b6020808252818101839052600090604080840186845b878110156130dc57813583528482013561308f81612a4c565b63ffffffff1683860152818401356130a681612cb5565b67ffffffffffffffff16838501526060828101356130c381612b66565b1515908401526080928301929190910190600101613076565b5090979650505050505050565b6001600160a01b0383168152608081016112a260208301848051151582526020808201516fffffffffffffffffffffffffffffffff9081169184019190915260409182015116910152565b600082601f83011261314557600080fd5b8151613153612c7e82612c19565b81815284602083860101111561316857600080fd5b6131798260208301602087016128ca565b949350505050565b6000806040838503121561319457600080fd5b825167ffffffffffffffff808211156131ac57600080fd5b6131b886838701613134565b935060208501519150808211156131ce57600080fd5b506131db85828601613134565b9150509250929050565b6000604082840312156131f757600080fd5b6131ff6129da565b825161320a81612cb5565b8152602083015161321a81612a4c565b60208201529392505050565b60006020828403121561323857600080fd5b815167ffffffffffffffff8082111561325057600080fd5b908301906040828603121561326457600080fd5b61326c6129da565b82518281111561327b57600080fd5b61328787828601613134565b82525060208301518281111561329c57600080fd5b6132a887828601613134565b60208301525095945050505050565b6040815260006132ca60408301856128ee565b828103602084015261230781856128ee565b6000602082840312156132ee57600080fd5b81516112a281612b66565b6000808585111561330957600080fd5b8386111561331657600080fd5b5050820193919092039150565b803560208310156107f5577fffffffffffffffffffffffffffffffffffffffffffffffffffffffffffffffff602084900360031b1b1692915050565b60006020828403121561337157600080fd5b81516112a281612cb5565b60006020828403121561338e57600080fd5b81516112a281612a4c565b818103818111156107f5576107f5612ff9565b606081016107f582848051151582526020808201516fffffffffffffffffffffffffffffffff9081169184019190915260409182015116910152565b600060a082840312156133fa57600080fd5b6134026129b1565b61340b8361294b565b8152602083013561341b81612b66565b6020820152612aa28460408501612b94565b80820281158282048414176107f5576107f5612ff9565b808201808211156107f5576107f5612ff9565b60008261348d577f4e487b7100000000000000000000000000000000000000000000000000000000600052601260045260246000fd5b500490565b7f4e487b7100000000000000000000000000000000000000000000000000000000600052603160045260246000fdfea164736f6c6343000815000a",
    "linkReferences": {}
  },
  "methodIdentifiers": {
    "SUPPORTED_USDC_VERSION()": "9fdf13ff",
    "acceptOwnership()": "79ba5097",
    "applyAllowListUpdates(address[],address[])": "54c8a4f3",
    "applyRampUpdates((address,bool,(bool,uint128,uint128))[],(address,bool,(bool,uint128,uint128))[])": "c49907b5",
    "currentOffRampRateLimiterState(address)": "b3a3fb41",
    "currentOnRampRateLimiterState(address)": "7787e7ab",
    "getAllowList()": "a7cd63b7",
    "getAllowListEnabled()": "e0351e13",
    "getArmProxy()": "5246492f",
    "getConfig()": "c3f909d4",
    "getDomain(uint64)": "dfadfa35",
    "getOffRamps()": "a40e69c7",
    "getOnRamps()": "87381314",
    "getToken()": "21df0da7",
    "getUSDCInterfaceId()": "6d108139",
    "i_localDomainIdentifier()": "6b716b0d",
    "isOffRamp(address)": "1d7a74a0",
    "isOnRamp(address)": "6f32b872",
    "lockOrBurn(address,bytes,uint256,uint64,bytes)": "96875445",
    "owner()": "8da5cb5b",
    "releaseOrMint(bytes,address,uint256,uint64,bytes)": "8627fad6",
    "setConfig((uint32,address,address))": "263a890a",
    "setDomains((bytes32,uint32,uint64,bool)[])": "0041d3c1",
    "setOffRampRateLimiterConfig(address,(bool,uint128,uint128))": "d612b945",
    "setOnRampRateLimiterConfig(address,(bool,uint128,uint128))": "7448b3c7",
    "supportsInterface(bytes4)": "01ffc9a7",
    "transferOwnership(address)": "f2fde38b",
    "typeAndVersion()": "181f5a77"
  },
  "id": 137
}