{
  "abi": [
    {
      "inputs": [
        {
          "internalType": "uint256",
          "name": "index",
          "type": "uint256"
        }
      ],
      "name": "at",
      "outputs": [
        {
          "internalType": "address",
          "name": "",
          "type": "address"
        },
        {
          "internalType": "address",
          "name": "",
          "type": "address"
        }
      ],
      "stateMutability": "view",
      "type": "function"
    },
    {
      "inputs": [
        {
          "internalType": "address",
          "name": "key",
          "type": "address"
        }
      ],
      "name": "contains",
      "outputs": [
        {
          "internalType": "bool",
          "name": "",
          "type": "bool"
        }
      ],
      "stateMutability": "view",
      "type": "function"
    },
    {
      "inputs": [
        {
          "internalType": "address",
          "name": "key",
          "type": "address"
        }
      ],
      "name": "get",
      "outputs": [
        {
          "internalType": "address",
          "name": "",
          "type": "address"
        }
      ],
      "stateMutability": "view",
      "type": "function"
    },
    {
      "inputs": [
        {
          "internalType": "address",
          "name": "key",
          "type": "address"
        },
        {
          "internalType": "string",
          "name": "errorMessage",
          "type": "string"
        }
      ],
      "name": "get",
      "outputs": [
        {
          "internalType": "address",
          "name": "",
          "type": "address"
        }
      ],
      "stateMutability": "view",
      "type": "function"
    },
    {
      "inputs": [],
      "name": "length",
      "outputs": [
        {
          "internalType": "uint256",
          "name": "",
          "type": "uint256"
        }
      ],
      "stateMutability": "view",
      "type": "function"
    },
    {
      "inputs": [
        {
          "internalType": "address",
          "name": "key",
          "type": "address"
        }
      ],
      "name": "remove",
      "outputs": [
        {
          "internalType": "bool",
          "name": "",
          "type": "bool"
        }
      ],
      "stateMutability": "nonpayable",
      "type": "function"
    },
    {
      "inputs": [
        {
          "internalType": "address",
          "name": "key",
          "type": "address"
        },
        {
          "internalType": "address",
          "name": "value",
          "type": "address"
        }
      ],
      "name": "set",
      "outputs": [
        {
          "internalType": "bool",
          "name": "",
          "type": "bool"
        }
      ],
      "stateMutability": "nonpayable",
      "type": "function"
    },
    {
      "inputs": [
        {
          "internalType": "address",
          "name": "key",
          "type": "address"
        }
      ],
      "name": "tryGet",
      "outputs": [
        {
          "internalType": "bool",
          "name": "",
          "type": "bool"
        },
        {
          "internalType": "address",
          "name": "",
          "type": "address"
        }
      ],
      "stateMutability": "view",
      "type": "function"
    }
  ],
  "bytecode": {
    "object": "0x608060405234801561001057600080fd5b506109ce806100206000396000f3fe608060405234801561001057600080fd5b50600436106100885760003560e01c806389675cac1161005b57806389675cac1461011d578063c2bc2efc14610130578063e0886f9014610168578063fc2525ab146101a857600080fd5b80631f7b6d321461008d57806329092d0e146100a85780635dbe47e8146100cb578063864083af146100de575b600080fd5b6100956101bb565b6040519081526020015b60405180910390f35b6100bb6100b6366004610747565b6101cc565b604051901515815260200161009f565b6100bb6100d9366004610747565b6101de565b6100f16100ec366004610747565b6101ea565b60408051921515835273ffffffffffffffffffffffffffffffffffffffff90911660208301520161009f565b6100bb61012b366004610762565b610200565b61014361013e366004610747565b610214565b60405173ffffffffffffffffffffffffffffffffffffffff909116815260200161009f565b61017b610176366004610795565b610220565b6040805173ffffffffffffffffffffffffffffffffffffffff93841681529290911660208301520161009f565b6101436101b63660046107dd565b61022d565b60006101c7600061023a565b905090565b60006101d88183610245565b92915050565b60006101d88183610267565b6000806101f78184610289565b91509150915091565b600061020d8184846102b8565b9392505050565b60006101d881836102e3565b6000806101f78184610305565b600061020d818484610321565b60006101d882610344565b600061020d8373ffffffffffffffffffffffffffffffffffffffff841661034f565b600061020d8373ffffffffffffffffffffffffffffffffffffffff841661035b565b6000806102ac8473ffffffffffffffffffffffffffffffffffffffff8516610367565b915091505b9250929050565b60006102db8473ffffffffffffffffffffffffffffffffffffffff851684610376565b949350505050565b600061020d8373ffffffffffffffffffffffffffffffffffffffff8416610399565b600080808061031486866103a5565b9097909650945050505050565b60006102db8473ffffffffffffffffffffffffffffffffffffffff8516846103b4565b60006101d8826103c1565b600061020d83836103cc565b600061020d83836103e9565b600080808061031486866103f5565b60006102db848473ffffffffffffffffffffffffffffffffffffffff851661042f565b600061020d838361044c565b600080808061031486866104db565b60006102db848484610506565b60006101d88261056c565b6000818152600283016020526040812081905561020d8383610576565b600061020d8383610582565b60008181526002830160205260408120548190806104245761041785856103e9565b9250600091506102b19050565b6001925090506102b1565b600082815260028401602052604081208290556102db848461059a565b600081815260028301602052604081205480151580610470575061047084846103e9565b61020d576040517f08c379a000000000000000000000000000000000000000000000000000000000815260206004820152601e60248201527f456e756d657261626c654d61703a206e6f6e6578697374656e74206b6579000060448201526064015b60405180910390fd5b600080806104e985856105a6565b600081815260029690960160205260409095205494959350505050565b60008281526002840160205260408120548015158061052a575061052a85856103e9565b8390610563576040517f08c379a00000000000000000000000000000000000000000000000000000000081526004016104d291906108bd565b50949350505050565b60006101d8825490565b600061020d83836105b2565b6000818152600183016020526040812054151561020d565b600061020d83836106a5565b600061020d83836106f4565b6000818152600183016020526040812054801561069b5760006105d6600183610929565b85549091506000906105ea90600190610929565b905081811461064f57600086600001828154811061060a5761060a610963565b906000526020600020015490508087600001848154811061062d5761062d610963565b6000918252602080832090910192909255918252600188019052604090208390555b855486908061066057610660610992565b6001900381819060005260206000200160009055905585600101600086815260200190815260200160002060009055600193505050506101d8565b60009150506101d8565b60008181526001830160205260408120546106ec575081546001818101845560008481526020808220909301849055845484825282860190935260409020919091556101d8565b5060006101d8565b600082600001828154811061070b5761070b610963565b9060005260206000200154905092915050565b803573ffffffffffffffffffffffffffffffffffffffff8116811461074257600080fd5b919050565b60006020828403121561075957600080fd5b61020d8261071e565b6000806040838503121561077557600080fd5b61077e8361071e565b915061078c6020840161071e565b90509250929050565b6000602082840312156107a757600080fd5b5035919050565b7f4e487b7100000000000000000000000000000000000000000000000000000000600052604160045260246000fd5b600080604083850312156107f057600080fd5b6107f98361071e565b9150602083013567ffffffffffffffff8082111561081657600080fd5b818501915085601f83011261082a57600080fd5b81358181111561083c5761083c6107ae565b604051601f82017fffffffffffffffffffffffffffffffffffffffffffffffffffffffffffffffe0908116603f01168101908382118183101715610882576108826107ae565b8160405282815288602084870101111561089b57600080fd5b8260208601602083013760006020848301015280955050505050509250929050565b600060208083528351808285015260005b818110156108ea578581018301518582016040015282016108ce565b5060006040828601015260407fffffffffffffffffffffffffffffffffffffffffffffffffffffffffffffffe0601f8301168501019250505092915050565b818103818111156101d8577f4e487b7100000000000000000000000000000000000000000000000000000000600052601160045260246000fd5b7f4e487b7100000000000000000000000000000000000000000000000000000000600052603260045260246000fd5b7f4e487b7100000000000000000000000000000000000000000000000000000000600052603160045260246000fdfea164736f6c6343000815000a",
    "linkReferences": {}
  },
  "methodIdentifiers": {
    "at(uint256)": "e0886f90",
    "contains(address)": "5dbe47e8",
    "get(address)": "c2bc2efc",
    "get(address,string)": "fc2525ab",
    "length()": "1f7b6d32",
    "remove(address)": "29092d0e",
    "set(address,address)": "89675cac",
    "tryGet(address)": "864083af"
  },
  "id": 265
}