{
  "abi": [
    {
      "inputs": [
        {
          "internalType": "address",
          "name": "router",
          "type": "address"
        }
      ],
      "stateMutability": "nonpayable",
      "type": "constructor"
    },
    {
      "inputs": [],
      "name": "EmptyArgs",
      "type": "error"
    },
    {
      "inputs": [],
      "name": "EmptySecrets",
      "type": "error"
    },
    {
      "inputs": [],
      "name": "EmptySource",
      "type": "error"
    },
    {
      "inputs": [],
      "name": "NoInlineSecrets",
      "type": "error"
    },
    {
      "inputs": [],
      "name": "OnlyRouterCanFulfill",
      "type": "error"
    },
    {
      "anonymous": false,
      "inputs": [
        {
          "indexed": true,
          "internalType": "address",
          "name": "from",
          "type": "address"
        },
        {
          "indexed": true,
          "internalType": "address",
          "name": "to",
          "type": "address"
        }
      ],
      "name": "OwnershipTransferRequested",
      "type": "event"
    },
    {
      "anonymous": false,
      "inputs": [
        {
          "indexed": true,
          "internalType": "address",
          "name": "from",
          "type": "address"
        },
        {
          "indexed": true,
          "internalType": "address",
          "name": "to",
          "type": "address"
        }
      ],
      "name": "OwnershipTransferred",
      "type": "event"
    },
    {
      "anonymous": false,
      "inputs": [
        {
          "indexed": true,
          "internalType": "bytes32",
          "name": "id",
          "type": "bytes32"
        }
      ],
      "name": "RequestFulfilled",
      "type": "event"
    },
    {
      "anonymous": false,
      "inputs": [
        {
          "indexed": true,
          "internalType": "bytes32",
          "name": "id",
          "type": "bytes32"
        }
      ],
      "name": "RequestSent",
      "type": "event"
    },
    {
      "inputs": [],
      "name": "MAX_CALLBACK_GAS",
      "outputs": [
        {
          "internalType": "uint32",
          "name": "",
          "type": "uint32"
        }
      ],
      "stateMutability": "view",
      "type": "function"
    },
    {
      "inputs": [],
      "name": "acceptOwnership",
      "outputs": [],
      "stateMutability": "nonpayable",
      "type": "function"
    },
    {
      "inputs": [],
      "name": "getStats",
      "outputs": [
        {
          "internalType": "bytes32",
          "name": "",
          "type": "bytes32"
        },
        {
          "internalType": "bytes",
          "name": "",
          "type": "bytes"
        },
        {
          "internalType": "bytes",
          "name": "",
          "type": "bytes"
        },
        {
          "internalType": "uint32",
          "name": "",
          "type": "uint32"
        },
        {
          "internalType": "uint32",
          "name": "",
          "type": "uint32"
        },
        {
          "internalType": "uint32",
          "name": "",
          "type": "uint32"
        },
        {
          "internalType": "uint32",
          "name": "",
          "type": "uint32"
        }
      ],
      "stateMutability": "view",
      "type": "function"
    },
    {
      "inputs": [
        {
          "internalType": "bytes32",
          "name": "requestId",
          "type": "bytes32"
        },
        {
          "internalType": "bytes",
          "name": "response",
          "type": "bytes"
        },
        {
          "internalType": "bytes",
          "name": "err",
          "type": "bytes"
        }
      ],
      "name": "handleOracleFulfillment",
      "outputs": [],
      "stateMutability": "nonpayable",
      "type": "function"
    },
    {
      "inputs": [],
      "name": "lastError",
      "outputs": [
        {
          "internalType": "bytes",
          "name": "",
          "type": "bytes"
        }
      ],
      "stateMutability": "view",
      "type": "function"
    },
    {
      "inputs": [],
      "name": "lastRequestID",
      "outputs": [
        {
          "internalType": "bytes32",
          "name": "",
          "type": "bytes32"
        }
      ],
      "stateMutability": "view",
      "type": "function"
    },
    {
      "inputs": [],
      "name": "lastResponse",
      "outputs": [
        {
          "internalType": "bytes",
          "name": "",
          "type": "bytes"
        }
      ],
      "stateMutability": "view",
      "type": "function"
    },
    {
      "inputs": [],
      "name": "owner",
      "outputs": [
        {
          "internalType": "address",
          "name": "",
          "type": "address"
        }
      ],
      "stateMutability": "view",
      "type": "function"
    },
    {
      "inputs": [],
      "name": "resetStats",
      "outputs": [],
      "stateMutability": "nonpayable",
      "type": "function"
    },
    {
      "inputs": [
        {
          "internalType": "uint32",
          "name": "times",
          "type": "uint32"
        },
        {
          "internalType": "bytes",
          "name": "cborEncodedRequest",
          "type": "bytes"
        },
        {
          "internalType": "uint64",
          "name": "subscriptionId",
          "type": "uint64"
        },
        {
          "internalType": "bytes32",
          "name": "donId",
          "type": "bytes32"
        }
      ],
      "name": "sendEncodedRequest",
      "outputs": [],
      "stateMutability": "nonpayable",
      "type": "function"
    },
    {
      "inputs": [
        {
          "internalType": "uint32",
          "name": "times",
          "type": "uint32"
        },
        {
          "internalType": "string",
          "name": "source",
          "type": "string"
        },
        {
          "internalType": "bytes",
          "name": "encryptedSecretsReferences",
          "type": "bytes"
        },
        {
          "internalType": "string[]",
          "name": "args",
          "type": "string[]"
        },
        {
          "internalType": "uint64",
          "name": "subscriptionId",
          "type": "uint64"
        },
        {
          "internalType": "bytes32",
          "name": "donId",
          "type": "bytes32"
        }
      ],
      "name": "sendRequest",
      "outputs": [],
      "stateMutability": "nonpayable",
      "type": "function"
    },
    {
      "inputs": [
        {
          "internalType": "uint32",
          "name": "times",
          "type": "uint32"
        },
        {
          "internalType": "string",
          "name": "source",
          "type": "string"
        },
        {
          "internalType": "uint8",
          "name": "slotId",
          "type": "uint8"
        },
        {
          "internalType": "uint64",
          "name": "slotVersion",
          "type": "uint64"
        },
        {
          "internalType": "string[]",
          "name": "args",
          "type": "string[]"
        },
        {
          "internalType": "uint64",
          "name": "subscriptionId",
          "type": "uint64"
        },
        {
          "internalType": "bytes32",
          "name": "donId",
          "type": "bytes32"
        }
      ],
      "name": "sendRequestWithDONHostedSecrets",
      "outputs": [],
      "stateMutability": "nonpayable",
      "type": "function"
    },
    {
      "inputs": [],
      "name": "totalEmptyResponses",
      "outputs": [
        {
          "internalType": "uint32",
          "name": "",
          "type": "uint32"
        }
      ],
      "stateMutability": "view",
      "type": "function"
    },
    {
      "inputs": [],
      "name": "totalFailedResponses",
      "outputs": [
        {
          "internalType": "uint32",
          "name": "",
          "type": "uint32"
        }
      ],
      "stateMutability": "view",
      "type": "function"
    },
    {
      "inputs": [],
      "name": "totalRequests",
      "outputs": [
        {
          "internalType": "uint32",
          "name": "",
          "type": "uint32"
        }
      ],
      "stateMutability": "view",
      "type": "function"
    },
    {
      "inputs": [],
      "name": "totalSucceededResponses",
      "outputs": [
        {
          "internalType": "uint32",
          "name": "",
          "type": "uint32"
        }
      ],
      "stateMutability": "view",
      "type": "function"
    },
    {
      "inputs": [
        {
          "internalType": "address",
          "name": "to",
          "type": "address"
        }
      ],
      "name": "transferOwnership",
      "outputs": [],
      "stateMutability": "nonpayable",
      "type": "function"
    }
  ],
  "bytecode": {
    "object": "0x60a06040523480156200001157600080fd5b506040516200234b3803806200234b833981016040819052620000349162000180565b6001600160a01b0381166080523380600081620000985760405162461bcd60e51b815260206004820152601860248201527f43616e6e6f7420736574206f776e657220746f207a65726f000000000000000060448201526064015b60405180910390fd5b600080546001600160a01b0319166001600160a01b0384811691909117909155811615620000cb57620000cb81620000d5565b50505050620001b2565b336001600160a01b038216036200012f5760405162461bcd60e51b815260206004820152601760248201527f43616e6e6f74207472616e7366657220746f2073656c6600000000000000000060448201526064016200008f565b600180546001600160a01b0319166001600160a01b0383811691821790925560008054604051929316917fed8889f560326eb138920d842192f0eb3dd22b4f139c87a2c57538e05bae12789190a350565b6000602082840312156200019357600080fd5b81516001600160a01b0381168114620001ab57600080fd5b9392505050565b608051612176620001d5600039600081816102ac0152610fa001526121766000f3fe608060405234801561001057600080fd5b506004361061011b5760003560e01c806379ba5097116100b2578063954491c111610081578063c59d484711610066578063c59d484714610246578063c9429e2a14610261578063f2fde38b1461028157600080fd5b8063954491c114610220578063b2518e0e1461023357600080fd5b806379ba5097146101cd578063887efe94146101d55780638aea61dc146101e85780638da5cb5b146101f857600080fd5b80635c1d92e9116100ee5780635c1d92e91461019b57806362747e42146101b35780636d9809a0146101bb578063724ec8a2146101c557600080fd5b80630ca761751461012057806329f0de3f146101355780632ab424da1461015357806347c0318614610184575b600080fd5b61013361012e366004611896565b610294565b005b61013d61033e565b60405161014a9190611967565b60405180910390f35b60055461016f9068010000000000000000900463ffffffff1681565b60405163ffffffff909116815260200161014a565b61018d60025481565b60405190815260200161014a565b60055461016f90640100000000900463ffffffff1681565b61013d6103cc565b61016f6203d09081565b6101336103d9565b61013361044b565b6101336101e3366004611a39565b61054d565b60055461016f9063ffffffff1681565b60005460405173ffffffffffffffffffffffffffffffffffffffff909116815260200161014a565b61013361022e366004611afd565b6106bf565b610133610241366004611bc3565b6107d5565b61024e610854565b60405161014a9796959493929190611c29565b60055461016f906c01000000000000000000000000900463ffffffff1681565b61013361028f366004611c86565b6109dc565b3373ffffffffffffffffffffffffffffffffffffffff7f00000000000000000000000000000000000000000000000000000000000000001614610303576040517fc6829f8300000000000000000000000000000000000000000000000000000000815260040160405180910390fd5b61030e8383836109f0565b60405183907f85e1543bf2f84fe80c6badbce3648c8539ad1df4d2b3d822938ca0538be727e690600090a2505050565b6004805461034b90611cbc565b80601f016020809104026020016040519081016040528092919081815260200182805461037790611cbc565b80156103c45780601f10610399576101008083540402835291602001916103c4565b820191906000526020600020905b8154815290600101906020018083116103a757829003601f168201915b505050505081565b6003805461034b90611cbc565b6103e1610afb565b6000600281905560408051602081019091529081526003906104039082611d5d565b506040805160208101909152600081526004906104209082611d5d565b50600580547fffffffffffffffffffffffffffffffff00000000000000000000000000000000169055565b60015473ffffffffffffffffffffffffffffffffffffffff1633146104d1576040517f08c379a000000000000000000000000000000000000000000000000000000000815260206004820152601660248201527f4d7573742062652070726f706f736564206f776e65720000000000000000000060448201526064015b60405180910390fd5b60008054337fffffffffffffffffffffffff00000000000000000000000000000000000000008083168217845560018054909116905560405173ffffffffffffffffffffffffffffffffffffffff90921692909183917f8be0079c531659141344cd1fd0a4f28419497f9722a3daafe3b4186f6b6457e091a350565b610555610afb565b6105966040805160e0810190915280600081526020016000815260200160008152602001606081526020016060815260200160608152602001606081525090565b6105d889898080601f0160208091040260200160405190810160405280939291908181526020018383808284376000920191909152508593925050610b7e9050565b85156106205761062087878080601f0160208091040260200160405190810160405280939291908181526020018383808284376000920191909152508593925050610b8f9050565b831561063a5761063a6106338587611e3b565b8290610bd9565b60005b8a63ffffffff168110156106b25761066261065783610c1c565b856203d09086610f9b565b600255600580546001919060009061068190849063ffffffff16611f02565b92506101000a81548163ffffffff021916908363ffffffff16021790555080806106aa90611f26565b91505061063d565b5050505050505050505050565b6106c7610afb565b6107086040805160e0810190915280600081526020016000815260200160008152602001606081526020016060815260200160608152602001606081525090565b61074a89898080601f0160208091040260200160405190810160405280939291908181526020018383808284376000920191909152508593925050610b7e9050565b61075581888861107a565b8315610768576107686106338587611e3b565b60005b8a63ffffffff168110156106b25761078561065783610c1c565b60025560058054600191906000906107a490849063ffffffff16611f02565b92506101000a81548163ffffffff021916908363ffffffff16021790555080806107cd90611f26565b91505061076b565b6107dd610afb565b60005b8463ffffffff1681101561084d576107fd84846203d09085610f9b565b600255600580546001919060009061081c90849063ffffffff16611f02565b92506101000a81548163ffffffff021916908363ffffffff160217905550808061084590611f26565b9150506107e0565b5050505050565b6000606080600080600080610867610afb565b60025460055460038054909160049163ffffffff808316926801000000000000000081048216926c0100000000000000000000000082048316926401000000009092049091169086906108b990611cbc565b80601f01602080910402602001604051908101604052809291908181526020018280546108e590611cbc565b80156109325780601f1061090757610100808354040283529160200191610932565b820191906000526020600020905b81548152906001019060200180831161091557829003601f168201915b5050505050955084805461094590611cbc565b80601f016020809104026020016040519081016040528092919081815260200182805461097190611cbc565b80156109be5780601f10610993576101008083540402835291602001916109be565b820191906000526020600020905b8154815290600101906020018083116109a157829003601f168201915b50505050509450965096509650965096509650965090919293949596565b6109e4610afb565b6109ed8161113d565b50565b60028390556003610a018382611d5d565b506004610a0e8282611d5d565b508151600003610a59576001600560048282829054906101000a900463ffffffff16610a3a9190611f02565b92506101000a81548163ffffffff021916908363ffffffff1602179055505b805115610aa15760016005600c8282829054906101000a900463ffffffff16610a829190611f02565b92506101000a81548163ffffffff021916908363ffffffff1602179055505b815115801590610ab057508051155b15610af6576001600560088282829054906101000a900463ffffffff16610ad79190611f02565b92506101000a81548163ffffffff021916908363ffffffff1602179055505b505050565b60005473ffffffffffffffffffffffffffffffffffffffff163314610b7c576040517f08c379a000000000000000000000000000000000000000000000000000000000815260206004820152601660248201527f4f6e6c792063616c6c61626c65206279206f776e65720000000000000000000060448201526064016104c8565b565b610b8b8260008084611232565b5050565b8051600003610bca576040517fe889636f00000000000000000000000000000000000000000000000000000000815260040160405180910390fd5b60016020830152608090910152565b8051600003610c14576040517ffe936cb700000000000000000000000000000000000000000000000000000000815260040160405180910390fd5b60a090910152565b60606000610c2b6101006112c9565b9050610c756040518060400160405280600c81526020017f636f64654c6f636174696f6e0000000000000000000000000000000000000000815250826112ea90919063ffffffff16565b8251610c93906002811115610c8c57610c8c611f40565b8290611303565b60408051808201909152600881527f6c616e67756167650000000000000000000000000000000000000000000000006020820152610cd29082906112ea565b6040830151610ce9908015610c8c57610c8c611f40565b60408051808201909152600681527f736f7572636500000000000000000000000000000000000000000000000000006020820152610d289082906112ea565b6060830151610d389082906112ea565b60a08301515115610de55760408051808201909152600481527f61726773000000000000000000000000000000000000000000000000000000006020820152610d829082906112ea565b610d8b8161133c565b60005b8360a0015151811015610ddb57610dcb8460a001518281518110610db457610db4611f6f565b6020026020010151836112ea90919063ffffffff16565b610dd481611f26565b9050610d8e565b50610de581611360565b60808301515115610ee657600083602001516002811115610e0857610e08611f40565b03610e3f576040517fa80d31f700000000000000000000000000000000000000000000000000000000815260040160405180910390fd5b60408051808201909152600f81527f736563726574734c6f636174696f6e00000000000000000000000000000000006020820152610e7e9082906112ea565b610e9783602001516002811115610c8c57610c8c611f40565b60408051808201909152600781527f73656372657473000000000000000000000000000000000000000000000000006020820152610ed69082906112ea565b6080830151610ee690829061137e565b60c08301515115610f935760408051808201909152600981527f62797465734172677300000000000000000000000000000000000000000000006020820152610f309082906112ea565b610f398161133c565b60005b8360c0015151811015610f8957610f798460c001518281518110610f6257610f62611f6f565b60200260200101518361137e90919063ffffffff16565b610f8281611f26565b9050610f3c565b50610f9381611360565b515192915050565b6000807f000000000000000000000000000000000000000000000000000000000000000073ffffffffffffffffffffffffffffffffffffffff1663461d27628688600188886040518663ffffffff1660e01b8152600401611000959493929190611f9e565b6020604051808303816000875af115801561101f573d6000803e3d6000fd5b505050506040513d601f19601f820116820180604052508101906110439190611fe8565b60405190915081907f1131472297a800fee664d1d89cfa8f7676ff07189ecc53f80bbb5f4969099db890600090a295945050505050565b60006110876101006112c9565b90506110d16040518060400160405280600681526020017f736c6f7449440000000000000000000000000000000000000000000000000000815250826112ea90919063ffffffff16565b6110de8160ff851661138b565b60408051808201909152600781527f76657273696f6e00000000000000000000000000000000000000000000000000602082015261111d9082906112ea565b611127818361138b565b6002602085015251516080909301929092525050565b3373ffffffffffffffffffffffffffffffffffffffff8216036111bc576040517f08c379a000000000000000000000000000000000000000000000000000000000815260206004820152601760248201527f43616e6e6f74207472616e7366657220746f2073656c6600000000000000000060448201526064016104c8565b600180547fffffffffffffffffffffffff00000000000000000000000000000000000000001673ffffffffffffffffffffffffffffffffffffffff83811691821790925560008054604051929316917fed8889f560326eb138920d842192f0eb3dd22b4f139c87a2c57538e05bae12789190a350565b805160000361126d576040517f22ce3edd00000000000000000000000000000000000000000000000000000000815260040160405180910390fd5b8383600281111561128057611280611f40565b9081600281111561129357611293611f40565b905250604084018280156112a9576112a9611f40565b908180156112b9576112b9611f40565b9052506060909301929092525050565b6112d161174d565b80516112dd9083611397565b5060006020820152919050565b6112f78260038351611411565b8151610af69082611538565b81516113109060c2611560565b50610b8b828260405160200161132891815260200190565b60405160208183030381529060405261137e565b6113478160046115c9565b60018160200181815161135a9190612001565b90525050565b61136b8160076115c9565b60018160200181815161135a9190612014565b6112f78260028351611411565b610b8b82600083611411565b6040805180820190915260608152600060208201526113b7602083612027565b156113df576113c7602083612027565b6113d2906020612014565b6113dc9083612001565b91505b60208084018390526040518085526000815290818401018181101561140357600080fd5b604052508290505b92915050565b60178167ffffffffffffffff161161143e5782516114389060e0600585901b168317611560565b50505050565b60ff8167ffffffffffffffff1611611480578251611467906018611fe0600586901b1617611560565b5082516114389067ffffffffffffffff831660016115e0565b61ffff8167ffffffffffffffff16116114c35782516114aa906019611fe0600586901b1617611560565b5082516114389067ffffffffffffffff831660026115e0565b63ffffffff8167ffffffffffffffff16116115085782516114ef90601a611fe0600586901b1617611560565b5082516114389067ffffffffffffffff831660046115e0565b825161151f90601b611fe0600586901b1617611560565b5082516114389067ffffffffffffffff831660086115e0565b60408051808201909152606081526000602082015261155983838451611665565b9392505050565b6040805180820190915260608152600060208201528251516000611585826001612001565b9050846020015182106115a6576115a6856115a1836002612062565b611736565b84516020838201018581535080518211156115bf578181525b5093949350505050565b8151610af690601f611fe0600585901b1617611560565b60408051808201909152606081526000602082015283515160006116048285612001565b9050856020015181111561162157611621866115a1836002612062565b600060016116318661010061215d565b61163b9190612014565b90508651828101878319825116178152508051831115611659578281525b50959695505050505050565b604080518082019091526060815260006020820152825182111561168857600080fd5b83515160006116978483612001565b905085602001518111156116b4576116b4866115a1836002612062565b8551805183820160200191600091808511156116ce578482525b505050602086015b6020861061170e57805182526116ed602083612001565b91506116fa602082612001565b9050611707602087612014565b95506116d6565b51815160001960208890036101000a0190811690199190911617905250849150509392505050565b81516117428383611397565b506114388382611538565b6040518060400160405280611775604051806040016040528060608152602001600081525090565b8152602001600081525090565b7f4e487b7100000000000000000000000000000000000000000000000000000000600052604160045260246000fd5b604051601f82017fffffffffffffffffffffffffffffffffffffffffffffffffffffffffffffffe016810167ffffffffffffffff811182821017156117f8576117f8611782565b604052919050565b600067ffffffffffffffff83111561181a5761181a611782565b61184b60207fffffffffffffffffffffffffffffffffffffffffffffffffffffffffffffffe0601f860116016117b1565b905082815283838301111561185f57600080fd5b828260208301376000602084830101529392505050565b600082601f83011261188757600080fd5b61155983833560208501611800565b6000806000606084860312156118ab57600080fd5b83359250602084013567ffffffffffffffff808211156118ca57600080fd5b6118d687838801611876565b935060408601359150808211156118ec57600080fd5b506118f986828701611876565b9150509250925092565b6000815180845260005b818110156119295760208185018101518683018201520161190d565b5060006020828601015260207fffffffffffffffffffffffffffffffffffffffffffffffffffffffffffffffe0601f83011685010191505092915050565b6020815260006115596020830184611903565b803563ffffffff8116811461198e57600080fd5b919050565b60008083601f8401126119a557600080fd5b50813567ffffffffffffffff8111156119bd57600080fd5b6020830191508360208285010111156119d557600080fd5b9250929050565b60008083601f8401126119ee57600080fd5b50813567ffffffffffffffff811115611a0657600080fd5b6020830191508360208260051b85010111156119d557600080fd5b803567ffffffffffffffff8116811461198e57600080fd5b600080600080600080600080600060c08a8c031215611a5757600080fd5b611a608a61197a565b985060208a013567ffffffffffffffff80821115611a7d57600080fd5b611a898d838e01611993565b909a50985060408c0135915080821115611aa257600080fd5b611aae8d838e01611993565b909850965060608c0135915080821115611ac757600080fd5b50611ad48c828d016119dc565b9095509350611ae7905060808b01611a21565b915060a08a013590509295985092959850929598565b600080600080600080600080600060e08a8c031215611b1b57600080fd5b611b248a61197a565b985060208a013567ffffffffffffffff80821115611b4157600080fd5b611b4d8d838e01611993565b909a50985060408c0135915060ff82168214611b6857600080fd5b819750611b7760608d01611a21565b965060808c0135915080821115611b8d57600080fd5b50611b9a8c828d016119dc565b9095509350611bad905060a08b01611a21565b915060c08a013590509295985092959850929598565b60008060008060808587031215611bd957600080fd5b611be28561197a565b9350602085013567ffffffffffffffff811115611bfe57600080fd5b611c0a87828801611876565b935050611c1960408601611a21565b9396929550929360600135925050565b87815260e060208201526000611c4260e0830189611903565b8281036040840152611c548189611903565b63ffffffff97881660608501529587166080840152505091841660a083015290921660c0909201919091529392505050565b600060208284031215611c9857600080fd5b813573ffffffffffffffffffffffffffffffffffffffff8116811461155957600080fd5b600181811c90821680611cd057607f821691505b602082108103611d09577f4e487b7100000000000000000000000000000000000000000000000000000000600052602260045260246000fd5b50919050565b601f821115610af657600081815260208120601f850160051c81016020861015611d365750805b601f850160051c820191505b81811015611d5557828155600101611d42565b505050505050565b815167ffffffffffffffff811115611d7757611d77611782565b611d8b81611d858454611cbc565b84611d0f565b602080601f831160018114611dc05760008415611da85750858301515b600019600386901b1c1916600185901b178555611d55565b6000858152602081207fffffffffffffffffffffffffffffffffffffffffffffffffffffffffffffffe08616915b82811015611e0d57888601518255948401946001909101908401611dee565b5085821015611e2b5787850151600019600388901b60f8161c191681555b5050505050600190811b01905550565b600067ffffffffffffffff80841115611e5657611e56611782565b8360051b6020611e678183016117b1565b868152918501918181019036841115611e7f57600080fd5b865b84811015611ec757803586811115611e995760008081fd5b880136601f820112611eab5760008081fd5b611eb9368235878401611800565b845250918301918301611e81565b50979650505050505050565b7f4e487b7100000000000000000000000000000000000000000000000000000000600052601160045260246000fd5b63ffffffff818116838216019080821115611f1f57611f1f611ed3565b5092915050565b60006000198203611f3957611f39611ed3565b5060010190565b7f4e487b7100000000000000000000000000000000000000000000000000000000600052602160045260246000fd5b7f4e487b7100000000000000000000000000000000000000000000000000000000600052603260045260246000fd5b67ffffffffffffffff8616815260a060208201526000611fc160a0830187611903565b61ffff9590951660408301525063ffffffff92909216606083015260809091015292915050565b600060208284031215611ffa57600080fd5b5051919050565b8082018082111561140b5761140b611ed3565b8181038181111561140b5761140b611ed3565b60008261205d577f4e487b7100000000000000000000000000000000000000000000000000000000600052601260045260246000fd5b500690565b808202811582820484141761140b5761140b611ed3565b600181815b808511156120b457816000190482111561209a5761209a611ed3565b808516156120a757918102915b93841c939080029061207e565b509250929050565b6000826120cb5750600161140b565b816120d85750600061140b565b81600181146120ee57600281146120f857612114565b600191505061140b565b60ff84111561210957612109611ed3565b50506001821b61140b565b5060208310610133831016604e8410600b8410161715612137575081810a61140b565b6121418383612079565b806000190482111561215557612155611ed3565b029392505050565b600061155983836120bc56fea164736f6c6343000815000a",
    "linkReferences": {}
  },
  "methodIdentifiers": {
    "MAX_CALLBACK_GAS()": "6d9809a0",
    "acceptOwnership()": "79ba5097",
    "getStats()": "c59d4847",
    "handleOracleFulfillment(bytes32,bytes,bytes)": "0ca76175",
    "lastError()": "29f0de3f",
    "lastRequestID()": "47c03186",
    "lastResponse()": "62747e42",
    "owner()": "8da5cb5b",
    "resetStats()": "724ec8a2",
    "sendEncodedRequest(uint32,bytes,uint64,bytes32)": "b2518e0e",
    "sendRequest(uint32,string,bytes,string[],uint64,bytes32)": "887efe94",
    "sendRequestWithDONHostedSecrets(uint32,string,uint8,uint64,string[],uint64,bytes32)": "954491c1",
    "totalEmptyResponses()": "5c1d92e9",
    "totalFailedResponses()": "c9429e2a",
    "totalRequests()": "8aea61dc",
    "totalSucceededResponses()": "2ab424da",
    "transferOwnership(address)": "f2fde38b"
  },
  "id": 217
}