{
  "abi": [
    {
      "inputs": [],
      "name": "AlreadySet",
      "type": "error"
    },
    {
      "inputs": [],
      "name": "CannotSelfTransfer",
      "type": "error"
    },
    {
      "inputs": [],
      "name": "EmptyBillingRegistry",
      "type": "error"
    },
    {
      "inputs": [],
      "name": "EmptyPublicKey",
      "type": "error"
    },
    {
      "inputs": [],
      "name": "EmptyRequestData",
      "type": "error"
    },
    {
      "inputs": [],
      "name": "EmptySendersList",
      "type": "error"
    },
    {
      "inputs": [],
      "name": "InconsistentReportData",
      "type": "error"
    },
    {
      "inputs": [],
      "name": "InvalidRequestID",
      "type": "error"
    },
    {
      "inputs": [],
      "name": "NotAllowedToSetSenders",
      "type": "error"
    },
    {
      "inputs": [],
      "name": "NotProposedOwner",
      "type": "error"
    },
    {
      "inputs": [],
      "name": "OnlyCallableByOwner",
      "type": "error"
    },
    {
      "inputs": [],
      "name": "OwnerMustBeSet",
      "type": "error"
    },
    {
      "inputs": [],
      "name": "ReportInvalid",
      "type": "error"
    },
    {
      "inputs": [],
      "name": "UnauthorizedPublicKeyChange",
      "type": "error"
    },
    {
      "inputs": [],
      "name": "UnauthorizedSender",
      "type": "error"
    },
    {
      "anonymous": false,
      "inputs": [
        {
          "indexed": false,
          "internalType": "address",
          "name": "account",
          "type": "address"
        }
      ],
      "name": "AuthorizedSendersActive",
      "type": "event"
    },
    {
      "anonymous": false,
      "inputs": [
        {
          "indexed": false,
          "internalType": "address[]",
          "name": "senders",
          "type": "address[]"
        },
        {
          "indexed": false,
          "internalType": "address",
          "name": "changedBy",
          "type": "address"
        }
      ],
      "name": "AuthorizedSendersChanged",
      "type": "event"
    },
    {
      "anonymous": false,
      "inputs": [
        {
          "indexed": false,
          "internalType": "address",
          "name": "account",
          "type": "address"
        }
      ],
      "name": "AuthorizedSendersDeactive",
      "type": "event"
    },
    {
      "anonymous": false,
      "inputs": [
        {
          "indexed": false,
          "internalType": "uint32",
          "name": "previousConfigBlockNumber",
          "type": "uint32"
        },
        {
          "indexed": false,
          "internalType": "bytes32",
          "name": "configDigest",
          "type": "bytes32"
        },
        {
          "indexed": false,
          "internalType": "uint64",
          "name": "configCount",
          "type": "uint64"
        },
        {
          "indexed": false,
          "internalType": "address[]",
          "name": "signers",
          "type": "address[]"
        },
        {
          "indexed": false,
          "internalType": "address[]",
          "name": "transmitters",
          "type": "address[]"
        },
        {
          "indexed": false,
          "internalType": "uint8",
          "name": "f",
          "type": "uint8"
        },
        {
          "indexed": false,
          "internalType": "bytes",
          "name": "onchainConfig",
          "type": "bytes"
        },
        {
          "indexed": false,
          "internalType": "uint64",
          "name": "offchainConfigVersion",
          "type": "uint64"
        },
        {
          "indexed": false,
          "internalType": "bytes",
          "name": "offchainConfig",
          "type": "bytes"
        }
      ],
      "name": "ConfigSet",
      "type": "event"
    },
    {
      "anonymous": false,
      "inputs": [
        {
          "indexed": false,
          "internalType": "uint8",
          "name": "version",
          "type": "uint8"
        }
      ],
      "name": "Initialized",
      "type": "event"
    },
    {
      "anonymous": false,
      "inputs": [
        {
          "indexed": true,
          "internalType": "bytes32",
          "name": "requestId",
          "type": "bytes32"
        },
        {
          "indexed": false,
          "internalType": "address",
          "name": "requestingContract",
          "type": "address"
        },
        {
          "indexed": false,
          "internalType": "address",
          "name": "requestInitiator",
          "type": "address"
        },
        {
          "indexed": false,
          "internalType": "uint64",
          "name": "subscriptionId",
          "type": "uint64"
        },
        {
          "indexed": false,
          "internalType": "address",
          "name": "subscriptionOwner",
          "type": "address"
        },
        {
          "indexed": false,
          "internalType": "bytes",
          "name": "data",
          "type": "bytes"
        }
      ],
      "name": "OracleRequest",
      "type": "event"
    },
    {
      "anonymous": false,
      "inputs": [
        {
          "indexed": true,
          "internalType": "bytes32",
          "name": "requestId",
          "type": "bytes32"
        }
      ],
      "name": "OracleResponse",
      "type": "event"
    },
    {
      "anonymous": false,
      "inputs": [
        {
          "indexed": true,
          "internalType": "address",
          "name": "from",
          "type": "address"
        },
        {
          "indexed": true,
          "internalType": "address",
          "name": "to",
          "type": "address"
        }
      ],
      "name": "OwnershipTransferRequested",
      "type": "event"
    },
    {
      "anonymous": false,
      "inputs": [
        {
          "indexed": true,
          "internalType": "address",
          "name": "from",
          "type": "address"
        },
        {
          "indexed": true,
          "internalType": "address",
          "name": "to",
          "type": "address"
        }
      ],
      "name": "OwnershipTransferred",
      "type": "event"
    },
    {
      "anonymous": false,
      "inputs": [
        {
          "indexed": false,
          "internalType": "bytes32",
          "name": "configDigest",
          "type": "bytes32"
        },
        {
          "indexed": false,
          "internalType": "uint32",
          "name": "epoch",
          "type": "uint32"
        }
      ],
      "name": "Transmitted",
      "type": "event"
    },
    {
      "anonymous": false,
      "inputs": [
        {
          "indexed": true,
          "internalType": "bytes32",
          "name": "requestId",
          "type": "bytes32"
        },
        {
          "indexed": false,
          "internalType": "string",
          "name": "reason",
          "type": "string"
        }
      ],
      "name": "UserCallbackError",
      "type": "event"
    },
    {
      "anonymous": false,
      "inputs": [
        {
          "indexed": true,
          "internalType": "bytes32",
          "name": "requestId",
          "type": "bytes32"
        },
        {
          "indexed": false,
          "internalType": "bytes",
          "name": "lowLevelData",
          "type": "bytes"
        }
      ],
      "name": "UserCallbackRawError",
      "type": "event"
    },
    {
      "inputs": [],
      "name": "acceptOwnership",
      "outputs": [],
      "stateMutability": "nonpayable",
      "type": "function"
    },
    {
      "inputs": [],
      "name": "activateAuthorizedReceiver",
      "outputs": [],
      "stateMutability": "nonpayable",
      "type": "function"
    },
    {
      "inputs": [
        {
          "internalType": "address[]",
          "name": "senders",
          "type": "address[]"
        }
      ],
      "name": "addAuthorizedSenders",
      "outputs": [],
      "stateMutability": "nonpayable",
      "type": "function"
    },
    {
      "inputs": [],
      "name": "authorizedReceiverActive",
      "outputs": [
        {
          "internalType": "bool",
          "name": "",
          "type": "bool"
        }
      ],
      "stateMutability": "view",
      "type": "function"
    },
    {
      "inputs": [],
      "name": "deactivateAuthorizedReceiver",
      "outputs": [],
      "stateMutability": "nonpayable",
      "type": "function"
    },
    {
      "inputs": [
        {
          "internalType": "address",
          "name": "node",
          "type": "address"
        }
      ],
      "name": "deleteNodePublicKey",
      "outputs": [],
      "stateMutability": "nonpayable",
      "type": "function"
    },
    {
      "inputs": [
        {
          "internalType": "uint64",
          "name": "subscriptionId",
          "type": "uint64"
        },
        {
          "internalType": "bytes",
          "name": "data",
          "type": "bytes"
        },
        {
          "internalType": "uint32",
          "name": "gasLimit",
          "type": "uint32"
        },
        {
          "internalType": "uint256",
          "name": "gasPrice",
          "type": "uint256"
        }
      ],
      "name": "estimateCost",
      "outputs": [
        {
          "internalType": "uint96",
          "name": "",
          "type": "uint96"
        }
      ],
      "stateMutability": "view",
      "type": "function"
    },
    {
      "inputs": [],
      "name": "getAllNodePublicKeys",
      "outputs": [
        {
          "internalType": "address[]",
          "name": "",
          "type": "address[]"
        },
        {
          "internalType": "bytes[]",
          "name": "",
          "type": "bytes[]"
        }
      ],
      "stateMutability": "view",
      "type": "function"
    },
    {
      "inputs": [],
      "name": "getAuthorizedSenders",
      "outputs": [
        {
          "internalType": "address[]",
          "name": "",
          "type": "address[]"
        }
      ],
      "stateMutability": "view",
      "type": "function"
    },
    {
      "inputs": [],
      "name": "getDONPublicKey",
      "outputs": [
        {
          "internalType": "bytes",
          "name": "",
          "type": "bytes"
        }
      ],
      "stateMutability": "view",
      "type": "function"
    },
    {
      "inputs": [],
      "name": "getRegistry",
      "outputs": [
        {
          "internalType": "address",
          "name": "",
          "type": "address"
        }
      ],
      "stateMutability": "view",
      "type": "function"
    },
    {
      "inputs": [
        {
          "internalType": "bytes",
          "name": "",
          "type": "bytes"
        },
        {
          "components": [
            {
              "internalType": "uint64",
              "name": "subscriptionId",
              "type": "uint64"
            },
            {
              "internalType": "address",
              "name": "client",
              "type": "address"
            },
            {
              "internalType": "uint32",
              "name": "gasLimit",
              "type": "uint32"
            },
            {
              "internalType": "uint256",
              "name": "gasPrice",
              "type": "uint256"
            }
          ],
          "internalType": "struct FunctionsBillingRegistryInterface.RequestBilling",
          "name": "",
          "type": "tuple"
        }
      ],
      "name": "getRequiredFee",
      "outputs": [
        {
          "internalType": "uint96",
          "name": "",
          "type": "uint96"
        }
      ],
      "stateMutability": "pure",
      "type": "function"
    },
    {
      "inputs": [],
      "name": "initialize",
      "outputs": [],
      "stateMutability": "nonpayable",
      "type": "function"
    },
    {
      "inputs": [
        {
          "internalType": "address",
          "name": "sender",
          "type": "address"
        }
      ],
      "name": "isAuthorizedSender",
      "outputs": [
        {
          "internalType": "bool",
          "name": "",
          "type": "bool"
        }
      ],
      "stateMutability": "view",
      "type": "function"
    },
    {
      "inputs": [],
      "name": "latestConfigDetails",
      "outputs": [
        {
          "internalType": "uint32",
          "name": "configCount",
          "type": "uint32"
        },
        {
          "internalType": "uint32",
          "name": "blockNumber",
          "type": "uint32"
        },
        {
          "internalType": "bytes32",
          "name": "configDigest",
          "type": "bytes32"
        }
      ],
      "stateMutability": "view",
      "type": "function"
    },
    {
      "inputs": [],
      "name": "latestConfigDigestAndEpoch",
      "outputs": [
        {
          "internalType": "bool",
          "name": "scanLogs",
          "type": "bool"
        },
        {
          "internalType": "bytes32",
          "name": "configDigest",
          "type": "bytes32"
        },
        {
          "internalType": "uint32",
          "name": "epoch",
          "type": "uint32"
        }
      ],
      "stateMutability": "view",
      "type": "function"
    },
    {
      "inputs": [],
      "name": "owner",
      "outputs": [
        {
          "internalType": "address",
          "name": "",
          "type": "address"
        }
      ],
      "stateMutability": "view",
      "type": "function"
    },
    {
      "inputs": [
        {
          "internalType": "address[]",
          "name": "senders",
          "type": "address[]"
        }
      ],
      "name": "removeAuthorizedSenders",
      "outputs": [],
      "stateMutability": "nonpayable",
      "type": "function"
    },
    {
      "inputs": [
        {
          "internalType": "uint64",
          "name": "subscriptionId",
          "type": "uint64"
        },
        {
          "internalType": "bytes",
          "name": "data",
          "type": "bytes"
        },
        {
          "internalType": "uint32",
          "name": "gasLimit",
          "type": "uint32"
        }
      ],
      "name": "sendRequest",
      "outputs": [
        {
          "internalType": "bytes32",
          "name": "",
          "type": "bytes32"
        }
      ],
      "stateMutability": "nonpayable",
      "type": "function"
    },
    {
      "inputs": [
        {
          "internalType": "address[]",
          "name": "_signers",
          "type": "address[]"
        },
        {
          "internalType": "address[]",
          "name": "_transmitters",
          "type": "address[]"
        },
        {
          "internalType": "uint8",
          "name": "_f",
          "type": "uint8"
        },
        {
          "internalType": "bytes",
          "name": "_onchainConfig",
          "type": "bytes"
        },
        {
          "internalType": "uint64",
          "name": "_offchainConfigVersion",
          "type": "uint64"
        },
        {
          "internalType": "bytes",
          "name": "_offchainConfig",
          "type": "bytes"
        }
      ],
      "name": "setConfig",
      "outputs": [],
      "stateMutability": "nonpayable",
      "type": "function"
    },
    {
      "inputs": [
        {
          "internalType": "bytes",
          "name": "donPublicKey",
          "type": "bytes"
        }
      ],
      "name": "setDONPublicKey",
      "outputs": [],
      "stateMutability": "nonpayable",
      "type": "function"
    },
    {
      "inputs": [
        {
          "internalType": "address",
          "name": "node",
          "type": "address"
        },
        {
          "internalType": "bytes",
          "name": "publicKey",
          "type": "bytes"
        }
      ],
      "name": "setNodePublicKey",
      "outputs": [],
      "stateMutability": "nonpayable",
      "type": "function"
    },
    {
      "inputs": [
        {
          "internalType": "address",
          "name": "registryAddress",
          "type": "address"
        }
      ],
      "name": "setRegistry",
      "outputs": [],
      "stateMutability": "nonpayable",
      "type": "function"
    },
    {
      "inputs": [
        {
          "internalType": "address",
          "name": "to",
          "type": "address"
        }
      ],
      "name": "transferOwnership",
      "outputs": [],
      "stateMutability": "nonpayable",
      "type": "function"
    },
    {
      "inputs": [
        {
          "internalType": "bytes32[3]",
          "name": "reportContext",
          "type": "bytes32[3]"
        },
        {
          "internalType": "bytes",
          "name": "report",
          "type": "bytes"
        },
        {
          "internalType": "bytes32[]",
          "name": "rs",
          "type": "bytes32[]"
        },
        {
          "internalType": "bytes32[]",
          "name": "ss",
          "type": "bytes32[]"
        },
        {
          "internalType": "bytes32",
          "name": "rawVs",
          "type": "bytes32"
        }
      ],
      "name": "transmit",
      "outputs": [],
      "stateMutability": "nonpayable",
      "type": "function"
    },
    {
      "inputs": [],
      "name": "transmitters",
      "outputs": [
        {
          "internalType": "address[]",
          "name": "",
          "type": "address[]"
        }
      ],
      "stateMutability": "view",
      "type": "function"
    },
    {
      "inputs": [],
      "name": "typeAndVersion",
      "outputs": [
        {
          "internalType": "string",
          "name": "",
          "type": "string"
        }
      ],
      "stateMutability": "pure",
      "type": "function"
    }
  ],
  "bytecode": {
    "object": "0x608060405234801561001057600080fd5b50613c9d806100206000396000f3fe608060405234801561001057600080fd5b50600436106101b95760003560e01c80638129fc1c116100f9578063b1dc65a411610097578063e3d0e71211610071578063e3d0e712146103df578063f1e14a21146103f2578063f2fde38b14610409578063fa00763a1461041c57600080fd5b8063b1dc65a414610394578063d227d245146103a7578063d328a91e146103d757600080fd5b80638da5cb5b116100d35780638da5cb5b1461034257806391bb64eb14610359578063a91ee0dc14610361578063afcb95d71461037457600080fd5b80638129fc1c14610302578063814118341461030a57806381ff70481461031257600080fd5b80634b4fa0c1116101665780635ab1bd53116101405780635ab1bd53146102af57806379ba5097146102d45780637f15e166146102dc57806380756031146102ef57600080fd5b80634b4fa0c11461026f5780634dcef40414610286578063533989871461029957600080fd5b80632408afaa116101975780632408afaa1461022657806326ceabac1461023b57806328242b041461024e57600080fd5b806303e1bf23146101be578063110254c8146101d3578063181f5a77146101db575b600080fd5b6101d16101cc366004612c78565b61042f565b005b6101d1610544565b60408051808201909152601581527f46756e6374696f6e734f7261636c65203f2e3f2e3f000000000000000000000060208201525b60405161021d9190612d00565b60405180910390f35b61022e61060e565b60405161021d9190612d57565b6101d1610249366004612d7f565b61061f565b61026161025c366004612e0f565b6106b2565b60405190815260200161021d565b60085460ff165b604051901515815260200161021d565b6101d1610294366004612c78565b6108d7565b6102a16109ac565b60405161021d929190612e74565b600d546001600160a01b03165b6040516001600160a01b03909116815260200161021d565b6101d1610b78565b6101d16102ea366004612ee6565b610c51565b6101d16102fd366004612f1c565b610ca6565b6101d1610d4e565b61022e610eb8565b6004546002546040805163ffffffff8085168252640100000000909404909316602084015282015260600161021d565b6000546201000090046001600160a01b03166102bc565b6101d1610f1a565b6101d161036f366004612d7f565b610fda565b60408051600181526000602082018190529181019190915260600161021d565b6101d16103a2366004612f71565b61105c565b6103ba6103b5366004613028565b61167f565b6040516bffffffffffffffffffffffff909116815260200161021d565b6102106117bc565b6101d16103ed36600461320e565b611845565b6103ba6104003660046132db565b60019392505050565b6101d1610417366004612d7f565b6120c2565b61027661042a366004612d7f565b6120d3565b6000546201000090046001600160a01b03163314610479576040517fad77f06100000000000000000000000000000000000000000000000000000000815260040160405180910390fd5b60008190036104b4576040517f75158c3b00000000000000000000000000000000000000000000000000000000815260040160405180910390fd5b60005b81811015610504576104f18383838181106104d4576104d4613398565b90506020020160208101906104e99190612d7f565b6009906120fe565b50806104fc816133f6565b9150506104b7565b507ff263cfb3e4298332e776194610cf9fdc09ccb3ada8b9aa39764d882e11fbf0a08282336040516105389392919061342e565b60405180910390a15050565b6000546201000090046001600160a01b0316331461058e576040517fad77f06100000000000000000000000000000000000000000000000000000000815260040160405180910390fd5b60085460ff16156105cb576040517fa741a04500000000000000000000000000000000000000000000000000000000815260040160405180910390fd5b6008805460ff191660011790556040513381527fae51766a982895b0c444fc99fc1a560762b464d709e6c78376c85617f7eeb5ce906020015b60405180910390a1565b606061061a600961211a565b905090565b6000546201000090046001600160a01b03166001600160a01b0316336001600160a01b031614806106585750336001600160a01b038216145b61068e576040517fed6dd19b00000000000000000000000000000000000000000000000000000000815260040160405180910390fd5b6001600160a01b0381166000908152600e602052604081206106af91612bba565b50565b600d546000906001600160a01b03166106f7576040517f9c5fe32400000000000000000000000000000000000000000000000000000000815260040160405180910390fd5b6106ff612127565b6000839003610739576040517ec1cfc000000000000000000000000000000000000000000000000000000000815260040160405180910390fd5b600d546040805160808101825267ffffffffffffffff8816815233602082015263ffffffff8516818301523a606082015290517fa9d03c050000000000000000000000000000000000000000000000000000000081526000926001600160a01b03169163a9d03c05916107b39189918991906004016134b9565b6020604051808303816000875af11580156107d2573d6000803e3d6000fd5b505050506040513d601f19601f820116820180604052508101906107f69190613515565b600d546040517fb2a489ff00000000000000000000000000000000000000000000000000000000815267ffffffffffffffff8916600482015291925082917fa1ec73989d79578cd6f67d4f593ac3e0a4d1020e5c0164db52108d7ff785406c91339132918b916001600160a01b039091169063b2a489ff90602401602060405180830381865afa15801561088e573d6000803e3d6000fd5b505050506040513d601f19601f820116820180604052508101906108b2919061352e565b8a8a6040516108c69695949392919061354b565b60405180910390a295945050505050565b6000546201000090046001600160a01b03163314610921576040517fad77f06100000000000000000000000000000000000000000000000000000000815260040160405180910390fd5b600081900361095c576040517f75158c3b00000000000000000000000000000000000000000000000000000000815260040160405180910390fd5b60005b818110156105045761099983838381811061097c5761097c613398565b90506020020160208101906109919190612d7f565b600990612168565b50806109a4816133f6565b91505061095f565b6060806000306001600160a01b031663814118346040518163ffffffff1660e01b8152600401600060405180830381865afa1580156109ef573d6000803e3d6000fd5b505050506040513d6000823e601f3d908101601f19168201604052610a17919081019061359c565b90506000815167ffffffffffffffff811115610a3557610a35613095565b604051908082528060200260200182016040528015610a6857816020015b6060815260200190600190039081610a535790505b50905060005b8251811015610b6e57600e6000848381518110610a8d57610a8d613398565b60200260200101516001600160a01b03166001600160a01b031681526020019081526020016000208054610ac090613636565b80601f0160208091040260200160405190810160405280929190818152602001828054610aec90613636565b8015610b395780601f10610b0e57610100808354040283529160200191610b39565b820191906000526020600020905b815481529060010190602001808311610b1c57829003601f168201915b5050505050828281518110610b5057610b50613398565b60200260200101819052508080610b66906133f6565b915050610a6e565b5090939092509050565b6001546001600160a01b03163314610bbc576040517f0f22ca5f00000000000000000000000000000000000000000000000000000000815260040160405180910390fd5b6000805433620100008181027fffffffffffffffffffff0000000000000000000000000000000000000000ffff8416178455600180547fffffffffffffffffffffffff00000000000000000000000000000000000000001690556040516001600160a01b03919093041692909183917f8be0079c531659141344cd1fd0a4f28419497f9722a3daafe3b4186f6b6457e091a350565b610c5961217d565b6000819003610c94576040517f4f42be3d00000000000000000000000000000000000000000000000000000000815260040160405180910390fd5b600c610ca18284836136d7565b505050565b6000546201000090046001600160a01b03166001600160a01b0316336001600160a01b03161480610cef5750610cdb336121c7565b8015610cef5750336001600160a01b038416145b610d25576040517fed6dd19b00000000000000000000000000000000000000000000000000000000815260040160405180910390fd5b6001600160a01b0383166000908152600e60205260409020610d488284836136d7565b50505050565b600054610100900460ff1615808015610d6e5750600054600160ff909116105b80610d885750303b158015610d88575060005460ff166001145b610dff5760405162461bcd60e51b815260206004820152602e60248201527f496e697469616c697a61626c653a20636f6e747261637420697320616c72656160448201527f647920696e697469616c697a656400000000000000000000000000000000000060648201526084015b60405180910390fd5b6000805460ff191660011790558015610e3f57600080547fffffffffffffffffffffffffffffffffffffffffffffffffffffffffffff00ff166101001790555b610e496001612296565b610e536001612368565b80156106af57600080547fffffffffffffffffffffffffffffffffffffffffffffffffffffffffffff00ff169055604051600181527f7f26b83ff96e1f2b6a682f133852f6798a09c465da95921460cefb38474024989060200160405180910390a150565b60606007805480602002602001604051908101604052809291908181526020018280548015610f1057602002820191906000526020600020905b81546001600160a01b03168152600190910190602001808311610ef2575b5050505050905090565b6000546201000090046001600160a01b03163314610f64576040517fad77f06100000000000000000000000000000000000000000000000000000000815260040160405180910390fd5b60085460ff16610fa0576040517fa741a04500000000000000000000000000000000000000000000000000000000815260040160405180910390fd5b6008805460ff191690556040513381527fea3828816a323b8d7ff49d755efd105e7719166d6c76fad97a28eee5eccc3d9a90602001610604565b610fe261217d565b6001600160a01b038116611022576040517f9c5fe32400000000000000000000000000000000000000000000000000000000815260040160405180910390fd5b600d80547fffffffffffffffffffffffff0000000000000000000000000000000000000000166001600160a01b0392909216919091179055565b60005a604080516020601f8b018190048102820181019092528981529192508a3591818c0135916110b291849163ffffffff851691908e908e908190840183828082843760009201919091525061040092505050565b6110e8576040517f0be3632800000000000000000000000000000000000000000000000000000000815260040160405180910390fd5b6040805183815262ffffff600884901c1660208201527fb04e63db38c49950639fa09d29872f21f5d49d614f3a969d8adf3d4b52e41a62910160405180910390a16040805160608101825260025480825260035460ff808216602085015261010090910416928201929092529083146111a35760405162461bcd60e51b815260206004820152601560248201527f636f6e666967446967657374206d69736d6174636800000000000000000000006044820152606401610df6565b6111b18b8b8b8b8b8b6123f8565b60015460009074010000000000000000000000000000000000000000900460ff161561120c576002826020015183604001516111ed91906137d4565b6111f7919061381c565b6112029060016137d4565b60ff169050611222565b602082015161121c9060016137d4565b60ff1690505b8881146112715760405162461bcd60e51b815260206004820152601a60248201527f77726f6e67206e756d626572206f66207369676e6174757265730000000000006044820152606401610df6565b8887146112c05760405162461bcd60e51b815260206004820152601e60248201527f7369676e617475726573206f7574206f6620726567697374726174696f6e00006044820152606401610df6565b3360009081526005602090815260408083208151808301909252805460ff808216845292939192918401916101009091041660028111156113035761130361383e565b60028111156113145761131461383e565b90525090506002816020015160028111156113315761133161383e565b14801561136b57506007816000015160ff168154811061135357611353613398565b6000918252602090912001546001600160a01b031633145b6113b75760405162461bcd60e51b815260206004820152601860248201527f756e617574686f72697a6564207472616e736d697474657200000000000000006044820152606401610df6565b50505050506113c4612bf4565b6000808a8a6040516113d792919061386d565b6040519081900381206113ee918e9060200161387d565b60408051601f198184030181528282528051602091820120838301909252600080845290830152915060005b8981101561166157600060018489846020811061143957611439613398565b61144691901a601b6137d4565b8e8e8681811061145857611458613398565b905060200201358d8d8781811061147157611471613398565b90506020020135604051600081526020016040526040516114ae949392919093845260ff9290921660208401526040830152606082015260800190565b6020604051602081039080840390855afa1580156114d0573d6000803e3d6000fd5b505060408051601f198101516001600160a01b03811660009081526005602090815290849020838501909452835460ff808216855292965092945084019161010090041660028111156115255761152561383e565b60028111156115365761153661383e565b90525092506001836020015160028111156115535761155361383e565b146115a05760405162461bcd60e51b815260206004820152601e60248201527f61646472657373206e6f7420617574686f72697a656420746f207369676e00006044820152606401610df6565b8251600090879060ff16601f81106115ba576115ba613398565b60200201516001600160a01b0316146116155760405162461bcd60e51b815260206004820152601460248201527f6e6f6e2d756e69717565207369676e61747572650000000000000000000000006044820152606401610df6565b8086846000015160ff16601f811061162f5761162f613398565b6001600160a01b03909216602092909202015261164d6001866137d4565b9450508061165a906133f6565b905061141a565b505050611672833383858e8e612495565b5050505050505050505050565b600d546000906001600160a01b03166116c4576040517f9c5fe32400000000000000000000000000000000000000000000000000000000815260040160405180910390fd5b6040805160808101825267ffffffffffffffff8816815233602082015263ffffffff8516918101919091526060810183905260006001905060006001600d546040517fa1a6d04100000000000000000000000000000000000000000000000000000000815263ffffffff89166004820152602481018890526bffffffffffffffffffffffff8086166044830152831660648201529192506001600160a01b03169063a1a6d04190608401602060405180830381865afa15801561178b573d6000803e3d6000fd5b505050506040513d601f19601f820116820180604052508101906117af9190613891565b9998505050505050505050565b6060600c80546117cb90613636565b80601f01602080910402602001604051908101604052809291908181526020018280546117f790613636565b8015610f105780601f1061181957610100808354040283529160200191610f10565b820191906000526020600020905b81548152906001019060200180831161182757509395945050505050565b855185518560ff16601f83111561189e5760405162461bcd60e51b815260206004820152601060248201527f746f6f206d616e79207369676e657273000000000000000000000000000000006044820152606401610df6565b600081116118ee5760405162461bcd60e51b815260206004820152601260248201527f66206d75737420626520706f73697469766500000000000000000000000000006044820152606401610df6565b8183146119625760405162461bcd60e51b8152602060048201526024808201527f6f7261636c6520616464726573736573206f7574206f6620726567697374726160448201527f74696f6e000000000000000000000000000000000000000000000000000000006064820152608401610df6565b61196d8160036138bf565b83116119bb5760405162461bcd60e51b815260206004820152601860248201527f6661756c74792d6f7261636c65206620746f6f206869676800000000000000006044820152606401610df6565b6119c361217d565b6040805160c0810182528a8152602081018a905260ff8916918101919091526060810187905267ffffffffffffffff8616608082015260a081018590525b60065415611b9c57600654600090611a1b906001906138d6565b9050600060068281548110611a3257611a32613398565b6000918252602082200154600780546001600160a01b0390921693509084908110611a5f57611a5f613398565b60009182526020808320909101546001600160a01b0385811684526005909252604080842080547fffffffffffffffffffffffffffffffffffffffffffffffffffffffffffff000090811690915592909116808452922080549091169055600680549192509080611ad257611ad26138e9565b60008281526020902081017fffffffffffffffffffffffffffffffffffffffffffffffffffffffffffffffff90810180547fffffffffffffffffffffffff00000000000000000000000000000000000000001690550190556007805480611b3b57611b3b6138e9565b60008281526020902081017fffffffffffffffffffffffffffffffffffffffffffffffffffffffffffffffff90810180547fffffffffffffffffffffffff000000000000000000000000000000000000000016905501905550611a01915050565b60005b815151811015611f435760006005600084600001518481518110611bc557611bc5613398565b6020908102919091018101516001600160a01b0316825281019190915260400160002054610100900460ff166002811115611c0257611c0261383e565b14611c4f5760405162461bcd60e51b815260206004820152601760248201527f7265706561746564207369676e657220616464726573730000000000000000006044820152606401610df6565b6040805180820190915260ff82168152600160208201528251805160059160009185908110611c8057611c80613398565b6020908102919091018101516001600160a01b03168252818101929092526040016000208251815460ff90911660ff1982168117835592840151919283917fffffffffffffffffffffffffffffffffffffffffffffffffffffffffffff00001617610100836002811115611cf657611cf661383e565b021790555060009150611d069050565b6005600084602001518481518110611d2057611d20613398565b6020908102919091018101516001600160a01b0316825281019190915260400160002054610100900460ff166002811115611d5d57611d5d61383e565b14611daa5760405162461bcd60e51b815260206004820152601c60248201527f7265706561746564207472616e736d69747465722061646472657373000000006044820152606401610df6565b6040805180820190915260ff821681526020810160028152506005600084602001518481518110611ddd57611ddd613398565b6020908102919091018101516001600160a01b03168252818101929092526040016000208251815460ff90911660ff1982168117835592840151919283917fffffffffffffffffffffffffffffffffffffffffffffffffffffffffffff00001617610100836002811115611e5357611e5361383e565b021790555050825180516006925083908110611e7157611e71613398565b602090810291909101810151825460018101845560009384529282902090920180547fffffffffffffffffffffffff0000000000000000000000000000000000000000166001600160a01b039093169290921790915582015180516007919083908110611ee057611ee0613398565b60209081029190910181015182546001810184556000938452919092200180547fffffffffffffffffffffffff0000000000000000000000000000000000000000166001600160a01b03909216919091179055611f3c816133f6565b9050611b9f565b5060408101516003805460ff191660ff909216919091179055600480547fffffffffffffffffffffffffffffffffffffffffffffffff00000000ffffffff811664010000000063ffffffff438116820292831785559083048116936001939092600092611fb7928692908216911617613918565b92506101000a81548163ffffffff021916908363ffffffff1602179055506120164630600460009054906101000a900463ffffffff1663ffffffff16856000015186602001518760400151886060015189608001518a60a001516127a8565b6002819055825180516003805460ff909216610100027fffffffffffffffffffffffffffffffffffffffffffffffffffffffffffff00ff90921691909117905560045460208501516040808701516060880151608089015160a08a015193517f1591690b8638f5fb2dbec82ac741805ac5da8b45dc5263f4875b0496fdce4e05986120b5988b98919763ffffffff909216969095919491939192613935565b60405180910390a1611672565b6120ca61217d565b6106af81612835565b60006120e160085460ff1690565b6120ed57506001919050565b6120f86009836128e7565b92915050565b6000612113836001600160a01b038416612909565b9392505050565b6060600061211383612a03565b612130326120d3565b612166576040517f0809490800000000000000000000000000000000000000000000000000000000815260040160405180910390fd5b565b6000612113836001600160a01b038416612a5f565b6000546201000090046001600160a01b03163314612166576040517f2b5c74de00000000000000000000000000000000000000000000000000000000815260040160405180910390fd5b600080306001600160a01b031663814118346040518163ffffffff1660e01b8152600401600060405180830381865afa158015612208573d6000803e3d6000fd5b505050506040513d6000823e601f3d908101601f19168201604052612230919081019061359c565b905060005b815181101561228c57836001600160a01b031682828151811061225a5761225a613398565b60200260200101516001600160a01b03160361227a575060019392505050565b80612284816133f6565b915050612235565b5060009392505050565b600054610100900460ff166123135760405162461bcd60e51b815260206004820152602b60248201527f496e697469616c697a61626c653a20636f6e7472616374206973206e6f74206960448201527f6e697469616c697a696e670000000000000000000000000000000000000000006064820152608401610df6565b61231e336000612aae565b6001805491151574010000000000000000000000000000000000000000027fffffffffffffffffffffff00ffffffffffffffffffffffffffffffffffffffff909216919091179055565b600054610100900460ff166123e55760405162461bcd60e51b815260206004820152602b60248201527f496e697469616c697a61626c653a20636f6e7472616374206973206e6f74206960448201527f6e697469616c697a696e670000000000000000000000000000000000000000006064820152608401610df6565b6008805460ff1916911515919091179055565b60006124058260206138bf565b6124108560206138bf565b61241c886101446139cb565b61242691906139cb565b61243091906139cb565b61243b9060006139cb565b905036811461248c5760405162461bcd60e51b815260206004820152601860248201527f63616c6c64617461206c656e677468206d69736d6174636800000000000000006044820152606401610df6565b50505050505050565b600d546001600160a01b03166124d7576040517f9c5fe32400000000000000000000000000000000000000000000000000000000815260040160405180910390fd5b606080806124e784860186613a5e565b8251929550909350915015806124ff57508151835114155b8061250c57508051835114155b15612543576040517f0be3632800000000000000000000000000000000000000000000000000000000815260040160405180910390fd5b600083515a612552908c6138d6565b61255c9190613b3b565b905060005b845181101561167257600d5485516001600160a01b0390911690630739e4f19087908490811061259357612593613398565b60200260200101518684815181106125ad576125ad613398565b60200260200101518685815181106125c7576125c7613398565b60200260200101518e8d8f895a6040518963ffffffff1660e01b81526004016125f7989796959493929190613b4f565b6020604051808303816000875af1925050508015612632575060408051601f3d908101601f1916820190925261262f91810190613be6565b60015b6126bd573d808015612660576040519150601f19603f3d011682016040523d82523d6000602084013e612665565b606091505b5085828151811061267857612678613398565b60200260200101517fe0b838ffe6ee22a0d3acf19a85db6a41b34a1ab739e2d6c759a2e42d95bdccb2826040516126af9190612d00565b60405180910390a250612792565b801561270e578582815181106126d5576126d5613398565b60200260200101517f9e9bc7616d42c2835d05ae617e508454e63b30b934be8aa932ebc125e0e58a6460405160405180910390a2612790565b85828151811061272057612720613398565b60200260200101517fb2931868c372fe17a25643458add467d60ec5c51125a99b7309f41f5bcd2da6c6040516127879060208082526011908201527f6572726f7220696e2063616c6c6261636b000000000000000000000000000000604082015260600190565b60405180910390a25b505b8061279c816133f6565b915050612561565b5050565b6000808a8a8a8a8a8a8a8a8a6040516020016127cc99989796959493929190613c08565b60408051601f1981840301815291905280516020909101207dffffffffffffffffffffffffffffffffffffffffffffffffffffffffffff167e01000000000000000000000000000000000000000000000000000000000000179150509998505050505050505050565b336001600160a01b03821603612877576040517f282010c300000000000000000000000000000000000000000000000000000000815260040160405180910390fd5b600180547fffffffffffffffffffffffff0000000000000000000000000000000000000000166001600160a01b038381169182179092556000805460405192936201000090910416917fed8889f560326eb138920d842192f0eb3dd22b4f139c87a2c57538e05bae12789190a350565b6001600160a01b03811660009081526001830160205260408120541515612113565b600081815260018301602052604081205480156129f257600061292d6001836138d6565b8554909150600090612941906001906138d6565b90508181146129a657600086600001828154811061296157612961613398565b906000526020600020015490508087600001848154811061298457612984613398565b6000918252602080832090910192909255918252600188019052604090208390555b85548690806129b7576129b76138e9565b6001900381819060005260206000200160009055905585600101600086815260200190815260200160002060009055600193505050506120f8565b60009150506120f8565b5092915050565b606081600001805480602002602001604051908101604052809291908181526020018280548015612a5357602002820191906000526020600020905b815481526020019060010190808311612a3f575b50505050509050919050565b6000818152600183016020526040812054612aa6575081546001818101845560008481526020808220909301849055845484825282860190935260409020919091556120f8565b5060006120f8565b600054610100900460ff16612b2b5760405162461bcd60e51b815260206004820152602b60248201527f496e697469616c697a61626c653a20636f6e7472616374206973206e6f74206960448201527f6e697469616c697a696e670000000000000000000000000000000000000000006064820152608401610df6565b6001600160a01b038216612b6b576040517fb6b515fa00000000000000000000000000000000000000000000000000000000815260040160405180910390fd5b600080546001600160a01b0380851662010000027fffffffffffffffffffff0000000000000000000000000000000000000000ffff909216919091179091558116156127a4576127a481612835565b508054612bc690613636565b6000825580601f10612bd6575050565b601f0160209004906000526020600020908101906106af9190612c13565b604051806103e00160405280601f906020820280368337509192915050565b5b80821115612c285760008155600101612c14565b5090565b60008083601f840112612c3e57600080fd5b50813567ffffffffffffffff811115612c5657600080fd5b6020830191508360208260051b8501011115612c7157600080fd5b9250929050565b60008060208385031215612c8b57600080fd5b823567ffffffffffffffff811115612ca257600080fd5b612cae85828601612c2c565b90969095509350505050565b6000815180845260005b81811015612ce057602081850181015186830182015201612cc4565b506000602082860101526020601f19601f83011685010191505092915050565b6020815260006121136020830184612cba565b600081518084526020808501945080840160005b83811015612d4c5781516001600160a01b031687529582019590820190600101612d27565b509495945050505050565b6020815260006121136020830184612d13565b6001600160a01b03811681146106af57600080fd5b600060208284031215612d9157600080fd5b813561211381612d6a565b803567ffffffffffffffff81168114612db457600080fd5b919050565b60008083601f840112612dcb57600080fd5b50813567ffffffffffffffff811115612de357600080fd5b602083019150836020828501011115612c7157600080fd5b803563ffffffff81168114612db457600080fd5b60008060008060608587031215612e2557600080fd5b612e2e85612d9c565b9350602085013567ffffffffffffffff811115612e4a57600080fd5b612e5687828801612db9565b9094509250612e69905060408601612dfb565b905092959194509250565b604081526000612e876040830185612d13565b6020838203818501528185518084528284019150828160051b85010183880160005b83811015612ed757601f19878403018552612ec5838351612cba565b94860194925090850190600101612ea9565b50909998505050505050505050565b60008060208385031215612ef957600080fd5b823567ffffffffffffffff811115612f1057600080fd5b612cae85828601612db9565b600080600060408486031215612f3157600080fd5b8335612f3c81612d6a565b9250602084013567ffffffffffffffff811115612f5857600080fd5b612f6486828701612db9565b9497909650939450505050565b60008060008060008060008060e0898b031215612f8d57600080fd5b606089018a811115612f9e57600080fd5b8998503567ffffffffffffffff80821115612fb857600080fd5b612fc48c838d01612db9565b909950975060808b0135915080821115612fdd57600080fd5b612fe98c838d01612c2c565b909750955060a08b013591508082111561300257600080fd5b5061300f8b828c01612c2c565b999c989b50969995989497949560c00135949350505050565b60008060008060006080868803121561304057600080fd5b61304986612d9c565b9450602086013567ffffffffffffffff81111561306557600080fd5b61307188828901612db9565b9095509350613084905060408701612dfb565b949793965091946060013592915050565b7f4e487b7100000000000000000000000000000000000000000000000000000000600052604160045260246000fd5b604051601f8201601f1916810167ffffffffffffffff811182821017156130ed576130ed613095565b604052919050565b600067ffffffffffffffff82111561310f5761310f613095565b5060051b60200190565b600082601f83011261312a57600080fd5b8135602061313f61313a836130f5565b6130c4565b82815260059290921b8401810191818101908684111561315e57600080fd5b8286015b8481101561318257803561317581612d6a565b8352918301918301613162565b509695505050505050565b803560ff81168114612db457600080fd5b600082601f8301126131af57600080fd5b813567ffffffffffffffff8111156131c9576131c9613095565b6131dc6020601f19601f840116016130c4565b8181528460208386010111156131f157600080fd5b816020850160208301376000918101602001919091529392505050565b60008060008060008060c0878903121561322757600080fd5b863567ffffffffffffffff8082111561323f57600080fd5b61324b8a838b01613119565b9750602089013591508082111561326157600080fd5b61326d8a838b01613119565b965061327b60408a0161318d565b9550606089013591508082111561329157600080fd5b61329d8a838b0161319e565b94506132ab60808a01612d9c565b935060a08901359150808211156132c157600080fd5b506132ce89828a0161319e565b9150509295509295509295565b600080600083850360a08112156132f157600080fd5b843567ffffffffffffffff8082111561330957600080fd5b61331588838901612db9565b90965094508491506080601f198401121561332f57600080fd5b6040519250608083019150828210818311171561334e5761334e613095565b5060405261335e60208601612d9c565b8152604085013561336e81612d6a565b602082015261337f60608601612dfb565b6040820152608094909401356060850152509093909250565b7f4e487b7100000000000000000000000000000000000000000000000000000000600052603260045260246000fd5b7f4e487b7100000000000000000000000000000000000000000000000000000000600052601160045260246000fd5b60007fffffffffffffffffffffffffffffffffffffffffffffffffffffffffffffffff8203613427576134276133c7565b5060010190565b6040808252810183905260008460608301825b8681101561347157823561345481612d6a565b6001600160a01b0316825260209283019290910190600101613441565b5080925050506001600160a01b0383166020830152949350505050565b818352818160208501375060006020828401015260006020601f19601f840116840101905092915050565b60a0815260006134cd60a08301858761348e565b905067ffffffffffffffff83511660208301526001600160a01b03602084015116604083015263ffffffff604084015116606083015260608301516080830152949350505050565b60006020828403121561352757600080fd5b5051919050565b60006020828403121561354057600080fd5b815161211381612d6a565b60006001600160a01b038089168352808816602084015267ffffffffffffffff8716604084015280861660608401525060a0608083015261359060a08301848661348e565b98975050505050505050565b600060208083850312156135af57600080fd5b825167ffffffffffffffff8111156135c657600080fd5b8301601f810185136135d757600080fd5b80516135e561313a826130f5565b81815260059190911b8201830190838101908783111561360457600080fd5b928401925b8284101561362b57835161361c81612d6a565b82529284019290840190613609565b979650505050505050565b600181811c9082168061364a57607f821691505b602082108103613683577f4e487b7100000000000000000000000000000000000000000000000000000000600052602260045260246000fd5b50919050565b601f821115610ca157600081815260208120601f850160051c810160208610156136b05750805b601f850160051c820191505b818110156136cf578281556001016136bc565b505050505050565b67ffffffffffffffff8311156136ef576136ef613095565b613703836136fd8354613636565b83613689565b6000601f841160018114613755576000851561371f5750838201355b7fffffffffffffffffffffffffffffffffffffffffffffffffffffffffffffffff600387901b1c1916600186901b1783556137cd565b600083815260209020601f19861690835b828110156137865786850135825560209485019460019092019101613766565b50868210156137c1577fffffffffffffffffffffffffffffffffffffffffffffffffffffffffffffffff60f88860031b161c19848701351681555b505060018560011b0183555b5050505050565b60ff81811683821601908111156120f8576120f86133c7565b7f4e487b7100000000000000000000000000000000000000000000000000000000600052601260045260246000fd5b600060ff83168061382f5761382f6137ed565b8060ff84160491505092915050565b7f4e487b7100000000000000000000000000000000000000000000000000000000600052602160045260246000fd5b8183823760009101908152919050565b828152606082602083013760800192915050565b6000602082840312156138a357600080fd5b81516bffffffffffffffffffffffff8116811461211357600080fd5b80820281158282048414176120f8576120f86133c7565b818103818111156120f8576120f86133c7565b7f4e487b7100000000000000000000000000000000000000000000000000000000600052603160045260246000fd5b63ffffffff8181168382160190808211156129fc576129fc6133c7565b600061012063ffffffff808d1684528b6020850152808b166040850152508060608401526139658184018a612d13565b905082810360808401526139798189612d13565b905060ff871660a084015282810360c08401526139968187612cba565b905067ffffffffffffffff851660e08401528281036101008401526139bb8185612cba565b9c9b505050505050505050505050565b808201808211156120f8576120f86133c7565b600082601f8301126139ef57600080fd5b813560206139ff61313a836130f5565b82815260059290921b84018101918181019086841115613a1e57600080fd5b8286015b8481101561318257803567ffffffffffffffff811115613a425760008081fd5b613a508986838b010161319e565b845250918301918301613a22565b600080600060608486031215613a7357600080fd5b833567ffffffffffffffff80821115613a8b57600080fd5b818601915086601f830112613a9f57600080fd5b81356020613aaf61313a836130f5565b82815260059290921b8401810191818101908a841115613ace57600080fd5b948201945b83861015613aec57853582529482019490820190613ad3565b97505087013592505080821115613b0257600080fd5b613b0e878388016139de565b93506040860135915080821115613b2457600080fd5b50613b31868287016139de565b9150509250925092565b600082613b4a57613b4a6137ed565b500490565b60006104c08a835260208181850152613b6a8285018c612cba565b91508382036040850152613b7e828b612cba565b92506001600160a01b0391508189166060850152608084018860005b601f811015613bb9578151851683529183019190830190600101613b9a565b5050505050613bce61046083018660ff169052565b6104808201939093526104a001529695505050505050565b600060208284031215613bf857600080fd5b8151801515811461211357600080fd5b60006101208b83526001600160a01b038b16602084015267ffffffffffffffff808b166040850152816060850152613c428285018b612d13565b91508382036080850152613c56828a612d13565b915060ff881660a085015283820360c0850152613c738288612cba565b90861660e085015283810361010085015290506139bb8185612cba56fea164736f6c6343000815000a",
    "linkReferences": {}
  },
  "methodIdentifiers": {
    "acceptOwnership()": "79ba5097",
    "activateAuthorizedReceiver()": "110254c8",
    "addAuthorizedSenders(address[])": "4dcef404",
    "authorizedReceiverActive()": "4b4fa0c1",
    "deactivateAuthorizedReceiver()": "91bb64eb",
    "deleteNodePublicKey(address)": "26ceabac",
    "estimateCost(uint64,bytes,uint32,uint256)": "d227d245",
    "getAllNodePublicKeys()": "53398987",
    "getAuthorizedSenders()": "2408afaa",
    "getDONPublicKey()": "d328a91e",
    "getRegistry()": "5ab1bd53",
    "getRequiredFee(bytes,(uint64,address,uint32,uint256))": "f1e14a21",
    "initialize()": "8129fc1c",
    "isAuthorizedSender(address)": "fa00763a",
    "latestConfigDetails()": "81ff7048",
    "latestConfigDigestAndEpoch()": "afcb95d7",
    "owner()": "8da5cb5b",
    "removeAuthorizedSenders(address[])": "03e1bf23",
    "sendRequest(uint64,bytes,uint32)": "28242b04",
    "setConfig(address[],address[],uint8,bytes,uint64,bytes)": "e3d0e712",
    "setDONPublicKey(bytes)": "7f15e166",
    "setNodePublicKey(address,bytes)": "80756031",
    "setRegistry(address)": "a91ee0dc",
    "transferOwnership(address)": "f2fde38b",
    "transmit(bytes32[3],bytes,bytes32[],bytes32[],bytes32)": "b1dc65a4",
    "transmitters()": "81411834",
    "typeAndVersion()": "181f5a77"
  },
  "id": 197
}