{
  "abi": [
    {
      "inputs": [
        {
          "internalType": "string",
          "name": "name_",
          "type": "string"
        },
        {
          "internalType": "string",
          "name": "symbol_",
          "type": "string"
        },
        {
          "internalType": "uint256",
          "name": "totalSupply_",
          "type": "uint256"
        },
        {
          "internalType": "address",
          "name": "forwarder",
          "type": "address"
        },
        {
          "internalType": "address",
          "name": "ccipRouter",
          "type": "address"
        },
        {
          "internalType": "address",
          "name": "ccipFeeProvider",
          "type": "address"
        },
        {
          "internalType": "uint64",
          "name": "ccipChainId",
          "type": "uint64"
        }
      ],
      "stateMutability": "nonpayable",
      "type": "constructor"
    },
    {
      "inputs": [
        {
          "internalType": "address",
          "name": "sender",
          "type": "address"
        }
      ],
      "name": "MustBeCCIPFeeProvider",
      "type": "error"
    },
    {
      "inputs": [
        {
          "internalType": "address",
          "name": "sender",
          "type": "address"
        }
      ],
      "name": "MustBeTrustedForwarder",
      "type": "error"
    },
    {
      "inputs": [],
      "name": "WithdrawFailure",
      "type": "error"
    },
    {
      "inputs": [],
      "name": "ZeroAddress",
      "type": "error"
    },
    {
      "anonymous": false,
      "inputs": [
        {
          "indexed": true,
          "internalType": "address",
          "name": "owner",
          "type": "address"
        },
        {
          "indexed": true,
          "internalType": "address",
          "name": "spender",
          "type": "address"
        },
        {
          "indexed": false,
          "internalType": "uint256",
          "name": "value",
          "type": "uint256"
        }
      ],
      "name": "Approval",
      "type": "event"
    },
    {
      "anonymous": false,
      "inputs": [
        {
          "indexed": true,
          "internalType": "address",
          "name": "from",
          "type": "address"
        },
        {
          "indexed": true,
          "internalType": "address",
          "name": "to",
          "type": "address"
        }
      ],
      "name": "OwnershipTransferRequested",
      "type": "event"
    },
    {
      "anonymous": false,
      "inputs": [
        {
          "indexed": true,
          "internalType": "address",
          "name": "from",
          "type": "address"
        },
        {
          "indexed": true,
          "internalType": "address",
          "name": "to",
          "type": "address"
        }
      ],
      "name": "OwnershipTransferred",
      "type": "event"
    },
    {
      "anonymous": false,
      "inputs": [
        {
          "indexed": true,
          "internalType": "address",
          "name": "from",
          "type": "address"
        },
        {
          "indexed": true,
          "internalType": "address",
          "name": "to",
          "type": "address"
        },
        {
          "indexed": false,
          "internalType": "uint256",
          "name": "value",
          "type": "uint256"
        }
      ],
      "name": "Transfer",
      "type": "event"
    },
    {
      "inputs": [],
      "name": "acceptOwnership",
      "outputs": [],
      "stateMutability": "nonpayable",
      "type": "function"
    },
    {
      "inputs": [
        {
          "internalType": "address",
          "name": "owner",
          "type": "address"
        },
        {
          "internalType": "address",
          "name": "spender",
          "type": "address"
        }
      ],
      "name": "allowance",
      "outputs": [
        {
          "internalType": "uint256",
          "name": "",
          "type": "uint256"
        }
      ],
      "stateMutability": "view",
      "type": "function"
    },
    {
      "inputs": [
        {
          "internalType": "address",
          "name": "spender",
          "type": "address"
        },
        {
          "internalType": "uint256",
          "name": "amount",
          "type": "uint256"
        }
      ],
      "name": "approve",
      "outputs": [
        {
          "internalType": "bool",
          "name": "",
          "type": "bool"
        }
      ],
      "stateMutability": "nonpayable",
      "type": "function"
    },
    {
      "inputs": [
        {
          "internalType": "address",
          "name": "account",
          "type": "address"
        }
      ],
      "name": "balanceOf",
      "outputs": [
        {
          "internalType": "uint256",
          "name": "",
          "type": "uint256"
        }
      ],
      "stateMutability": "view",
      "type": "function"
    },
    {
      "inputs": [],
      "name": "decimals",
      "outputs": [
        {
          "internalType": "uint8",
          "name": "",
          "type": "uint8"
        }
      ],
      "stateMutability": "view",
      "type": "function"
    },
    {
      "inputs": [
        {
          "internalType": "address",
          "name": "spender",
          "type": "address"
        },
        {
          "internalType": "uint256",
          "name": "subtractedValue",
          "type": "uint256"
        }
      ],
      "name": "decreaseAllowance",
      "outputs": [
        {
          "internalType": "bool",
          "name": "",
          "type": "bool"
        }
      ],
      "stateMutability": "nonpayable",
      "type": "function"
    },
    {
      "inputs": [],
      "name": "getCCIPChainId",
      "outputs": [
        {
          "internalType": "uint64",
          "name": "",
          "type": "uint64"
        }
      ],
      "stateMutability": "view",
      "type": "function"
    },
    {
      "inputs": [],
      "name": "getCCIPFeeProvider",
      "outputs": [
        {
          "internalType": "address",
          "name": "",
          "type": "address"
        }
      ],
      "stateMutability": "view",
      "type": "function"
    },
    {
      "inputs": [],
      "name": "getCCIPRouter",
      "outputs": [
        {
          "internalType": "contract IRouterClient",
          "name": "",
          "type": "address"
        }
      ],
      "stateMutability": "view",
      "type": "function"
    },
    {
      "inputs": [],
      "name": "getForwarder",
      "outputs": [
        {
          "internalType": "address",
          "name": "",
          "type": "address"
        }
      ],
      "stateMutability": "view",
      "type": "function"
    },
    {
      "inputs": [],
      "name": "getTrustedForwarder",
      "outputs": [
        {
          "internalType": "address",
          "name": "forwarder",
          "type": "address"
        }
      ],
      "stateMutability": "view",
      "type": "function"
    },
    {
      "inputs": [
        {
          "internalType": "address",
          "name": "spender",
          "type": "address"
        },
        {
          "internalType": "uint256",
          "name": "addedValue",
          "type": "uint256"
        }
      ],
      "name": "increaseAllowance",
      "outputs": [
        {
          "internalType": "bool",
          "name": "",
          "type": "bool"
        }
      ],
      "stateMutability": "nonpayable",
      "type": "function"
    },
    {
      "inputs": [
        {
          "internalType": "address",
          "name": "forwarder",
          "type": "address"
        }
      ],
      "name": "isTrustedForwarder",
      "outputs": [
        {
          "internalType": "bool",
          "name": "",
          "type": "bool"
        }
      ],
      "stateMutability": "view",
      "type": "function"
    },
    {
      "inputs": [
        {
          "internalType": "address",
          "name": "receiver",
          "type": "address"
        },
        {
          "internalType": "uint256",
          "name": "amount",
          "type": "uint256"
        },
        {
          "internalType": "uint64",
          "name": "destinationChainId",
          "type": "uint64"
        }
      ],
      "name": "metaTransfer",
      "outputs": [
        {
          "internalType": "bytes32",
          "name": "",
          "type": "bytes32"
        }
      ],
      "stateMutability": "nonpayable",
      "type": "function"
    },
    {
      "inputs": [],
      "name": "name",
      "outputs": [
        {
          "internalType": "string",
          "name": "",
          "type": "string"
        }
      ],
      "stateMutability": "view",
      "type": "function"
    },
    {
      "inputs": [],
      "name": "owner",
      "outputs": [
        {
          "internalType": "address",
          "name": "",
          "type": "address"
        }
      ],
      "stateMutability": "view",
      "type": "function"
    },
    {
      "inputs": [],
      "name": "symbol",
      "outputs": [
        {
          "internalType": "string",
          "name": "",
          "type": "string"
        }
      ],
      "stateMutability": "view",
      "type": "function"
    },
    {
      "inputs": [],
      "name": "totalSupply",
      "outputs": [
        {
          "internalType": "uint256",
          "name": "",
          "type": "uint256"
        }
      ],
      "stateMutability": "view",
      "type": "function"
    },
    {
      "inputs": [
        {
          "internalType": "address",
          "name": "recipient",
          "type": "address"
        },
        {
          "internalType": "uint256",
          "name": "amount",
          "type": "uint256"
        }
      ],
      "name": "transfer",
      "outputs": [
        {
          "internalType": "bool",
          "name": "",
          "type": "bool"
        }
      ],
      "stateMutability": "nonpayable",
      "type": "function"
    },
    {
      "inputs": [
        {
          "internalType": "address",
          "name": "sender",
          "type": "address"
        },
        {
          "internalType": "address",
          "name": "recipient",
          "type": "address"
        },
        {
          "internalType": "uint256",
          "name": "amount",
          "type": "uint256"
        }
      ],
      "name": "transferFrom",
      "outputs": [
        {
          "internalType": "bool",
          "name": "",
          "type": "bool"
        }
      ],
      "stateMutability": "nonpayable",
      "type": "function"
    },
    {
      "inputs": [
        {
          "internalType": "address",
          "name": "to",
          "type": "address"
        }
      ],
      "name": "transferOwnership",
      "outputs": [],
      "stateMutability": "nonpayable",
      "type": "function"
    },
    {
      "inputs": [],
      "name": "withdrawNative",
      "outputs": [],
      "stateMutability": "nonpayable",
      "type": "function"
    },
    {
      "stateMutability": "payable",
      "type": "receive"
    }
  ],
  "bytecode": {
    "object": "0x6101006040523480156200001257600080fd5b5060405162001f0438038062001f048339810160408190526200003591620003fc565b838383833380600081620000905760405162461bcd60e51b815260206004820152601860248201527f43616e6e6f7420736574206f776e657220746f207a65726f000000000000000060448201526064015b60405180910390fd5b600080546001600160a01b0319166001600160a01b0384811691909117909155811615620000c357620000c38162000185565b5050506001600160a01b0384161580620000e457506001600160a01b038316155b80620000f757506001600160a01b038216155b15620001165760405163d92e233d60e01b815260040160405180910390fd5b6001600160a01b0393841660805291831660a05290911660c0526001600160401b031660e05260056200014a888262000551565b50600662000159878262000551565b5062000178620001716000546001600160a01b031690565b8662000230565b5050505050505062000645565b336001600160a01b03821603620001df5760405162461bcd60e51b815260206004820152601760248201527f43616e6e6f74207472616e7366657220746f2073656c66000000000000000000604482015260640162000087565b600180546001600160a01b0319166001600160a01b0383811691821790925560008054604051929316917fed8889f560326eb138920d842192f0eb3dd22b4f139c87a2c57538e05bae12789190a350565b6001600160a01b038216620002885760405162461bcd60e51b815260206004820152601f60248201527f45524332303a206d696e7420746f20746865207a65726f206164647265737300604482015260640162000087565b80600460008282546200029c91906200061d565b90915550506001600160a01b03821660009081526002602052604081208054839290620002cb9084906200061d565b90915550506040518181526001600160a01b038316906000907fddf252ad1be2c89b69c2b068fc378daa952ba7f163c4a11628f55a4df523b3ef9060200160405180910390a35050565b505050565b634e487b7160e01b600052604160045260246000fd5b600082601f8301126200034257600080fd5b81516001600160401b03808211156200035f576200035f6200031a565b604051601f8301601f19908116603f011681019082821181831017156200038a576200038a6200031a565b81604052838152602092508683858801011115620003a757600080fd5b600091505b83821015620003cb5785820183015181830184015290820190620003ac565b600093810190920192909252949350505050565b80516001600160a01b0381168114620003f757600080fd5b919050565b600080600080600080600060e0888a0312156200041857600080fd5b87516001600160401b03808211156200043057600080fd5b6200043e8b838c0162000330565b985060208a01519150808211156200045557600080fd5b620004638b838c0162000330565b975060408a015196506200047a60608b01620003df565b95506200048a60808b01620003df565b94506200049a60a08b01620003df565b935060c08a015191508082168214620004b257600080fd5b508091505092959891949750929550565b600181811c90821680620004d857607f821691505b602082108103620004f957634e487b7160e01b600052602260045260246000fd5b50919050565b601f8211156200031557600081815260208120601f850160051c81016020861015620005285750805b601f850160051c820191505b81811015620005495782815560010162000534565b505050505050565b81516001600160401b038111156200056d576200056d6200031a565b62000585816200057e8454620004c3565b84620004ff565b602080601f831160018114620005bd5760008415620005a45750858301515b600019600386901b1c1916600185901b17855562000549565b600085815260208120601f198616915b82811015620005ee57888601518255948401946001909101908401620005cd565b50858210156200060d5787850151600019600388901b60f8161c191681555b5050505050600190811b01905550565b808201808211156200063f57634e487b7160e01b600052601160045260246000fd5b92915050565b60805160a05160c05160e051611846620006be6000396000818161035f01526106680152600081816104f601528181610b140152610b8c0152600081816102ff015281816107e90152818161084e01526108ca0152600081816102b301528181610430015281816105ee0152610e6501526118466000f3fe6080604052600436106101795760003560e01c806370a08231116100cb578063a457c2d71161007f578063dd62ed3e11610059578063dd62ed3e14610494578063ef76fb3e146104e7578063f2fde38b1461051a57600080fd5b8063a457c2d714610454578063a9059cbb14610474578063ce1b815f1461042157600080fd5b80638da5cb5b116100b05780638da5cb5b146103e157806395d89b411461040c578063a00425261461042157600080fd5b806370a082311461038957806379ba5097146103cc57600080fd5b8063313ce5671161012d578063572b6c0511610107578063572b6c0514610296578063588cbd0e146102f0578063593a61b01461034457600080fd5b8063313ce56714610243578063395093511461025f57806350431ce41461027f57600080fd5b8063178293441161015e57806317829344146101e057806318160ddd1461020e57806323b872dd1461022357600080fd5b806306fdde0314610185578063095ea7b3146101b057600080fd5b3661018057005b600080fd5b34801561019157600080fd5b5061019a61053a565b6040516101a79190611515565b60405180910390f35b3480156101bc57600080fd5b506101d06101cb366004611551565b6105cc565b60405190151581526020016101a7565b3480156101ec57600080fd5b506102006101fb36600461157b565b6105ea565b6040519081526020016101a7565b34801561021a57600080fd5b50600454610200565b34801561022f57600080fd5b506101d061023e3660046115c8565b610974565b34801561024f57600080fd5b50604051601281526020016101a7565b34801561026b57600080fd5b506101d061027a366004611551565b610a9b565b34801561028b57600080fd5b50610294610afc565b005b3480156102a257600080fd5b506101d06102b1366004611604565b7f000000000000000000000000000000000000000000000000000000000000000073ffffffffffffffffffffffffffffffffffffffff90811691161490565b3480156102fc57600080fd5b507f00000000000000000000000000000000000000000000000000000000000000005b60405173ffffffffffffffffffffffffffffffffffffffff90911681526020016101a7565b34801561035057600080fd5b5060405167ffffffffffffffff7f00000000000000000000000000000000000000000000000000000000000000001681526020016101a7565b34801561039557600080fd5b506102006103a4366004611604565b73ffffffffffffffffffffffffffffffffffffffff1660009081526002602052604090205490565b3480156103d857600080fd5b50610294610c2b565b3480156103ed57600080fd5b5060005473ffffffffffffffffffffffffffffffffffffffff1661031f565b34801561041857600080fd5b5061019a610d28565b34801561042d57600080fd5b507f000000000000000000000000000000000000000000000000000000000000000061031f565b34801561046057600080fd5b506101d061046f366004611551565b610d37565b34801561048057600080fd5b506101d061048f366004611551565b610e2d565b3480156104a057600080fd5b506102006104af36600461161f565b73ffffffffffffffffffffffffffffffffffffffff918216600090815260036020908152604080832093909416825291909152205490565b3480156104f357600080fd5b507f000000000000000000000000000000000000000000000000000000000000000061031f565b34801561052657600080fd5b50610294610535366004611604565b610e41565b60606005805461054990611652565b80601f016020809104026020016040519081016040528092919081815260200182805461057590611652565b80156105c25780601f10610597576101008083540402835291602001916105c2565b820191906000526020600020905b8154815290600101906020018083116105a557829003601f168201915b5050505050905090565b60006105e06105d9610e55565b8484610ed2565b5060015b92915050565b60007f000000000000000000000000000000000000000000000000000000000000000073ffffffffffffffffffffffffffffffffffffffff163314610662576040517fa2f64cc50000000000000000000000000000000000000000000000000000000081523360048201526024015b60405180910390fd5b61069a827f000000000000000000000000000000000000000000000000000000000000000067ffffffffffffffff9081169116141590565b6106b8576106b06106a9610e55565b8585611085565b50600061096d565b604080516001808252818301909252600091816020015b60408051808201909152600080825260208201528152602001906001900390816106cf57905050905060405180604001604052803073ffffffffffffffffffffffffffffffffffffffff1681526020018581525081600081518110610736576107366116a5565b60209081029190910101526040805160a0810190915273ffffffffffffffffffffffffffffffffffffffff861660c08201526000908060e081016040516020818303038152906040528152602001604051806020016040528060008152508152602001838152602001600073ffffffffffffffffffffffffffffffffffffffff1681526020016040518060200160405280600081525081525090506107e36107dc610e55565b3087611085565b61080e307f000000000000000000000000000000000000000000000000000000000000000087610ed2565b6040517f20487ded00000000000000000000000000000000000000000000000000000000815260009073ffffffffffffffffffffffffffffffffffffffff7f000000000000000000000000000000000000000000000000000000000000000016906320487ded9061088590889086906004016116d4565b602060405180830381865afa1580156108a2573d6000803e3d6000fd5b505050506040513d601f19601f820116820180604052508101906108c691906117e6565b90507f000000000000000000000000000000000000000000000000000000000000000073ffffffffffffffffffffffffffffffffffffffff166396f4e9f98287856040518463ffffffff1660e01b81526004016109249291906116d4565b60206040518083038185885af1158015610942573d6000803e3d6000fd5b50505050506040513d601f19601f8201168201806040525081019061096791906117e6565b93505050505b9392505050565b6000610981848484611085565b73ffffffffffffffffffffffffffffffffffffffff84166000908152600360205260408120816109af610e55565b73ffffffffffffffffffffffffffffffffffffffff1673ffffffffffffffffffffffffffffffffffffffff16815260200190815260200160002054905082811015610a7c576040517f08c379a000000000000000000000000000000000000000000000000000000000815260206004820152602860248201527f45524332303a207472616e7366657220616d6f756e742065786365656473206160448201527f6c6c6f77616e63650000000000000000000000000000000000000000000000006064820152608401610659565b610a9085610a88610e55565b858403610ed2565b506001949350505050565b60006105e0610aa8610e55565b848460036000610ab6610e55565b73ffffffffffffffffffffffffffffffffffffffff908116825260208083019390935260409182016000908120918b1681529252902054610af791906117ff565b610ed2565b3373ffffffffffffffffffffffffffffffffffffffff7f00000000000000000000000000000000000000000000000000000000000000001614610b6d576040517fb0c9d2e7000000000000000000000000000000000000000000000000000000008152336004820152602401610659565b604051479060009073ffffffffffffffffffffffffffffffffffffffff7f0000000000000000000000000000000000000000000000000000000000000000169083908381818185875af1925050503d8060008114610be7576040519150601f19603f3d011682016040523d82523d6000602084013e610bec565b606091505b5050905080610c27576040517f1a0263ed00000000000000000000000000000000000000000000000000000000815260040160405180910390fd5b5050565b60015473ffffffffffffffffffffffffffffffffffffffff163314610cac576040517f08c379a000000000000000000000000000000000000000000000000000000000815260206004820152601660248201527f4d7573742062652070726f706f736564206f776e6572000000000000000000006044820152606401610659565b60008054337fffffffffffffffffffffffff00000000000000000000000000000000000000008083168217845560018054909116905560405173ffffffffffffffffffffffffffffffffffffffff90921692909183917f8be0079c531659141344cd1fd0a4f28419497f9722a3daafe3b4186f6b6457e091a350565b60606006805461054990611652565b60008060036000610d46610e55565b73ffffffffffffffffffffffffffffffffffffffff90811682526020808301939093526040918201600090812091881681529252902054905082811015610e0f576040517f08c379a000000000000000000000000000000000000000000000000000000000815260206004820152602560248201527f45524332303a2064656372656173656420616c6c6f77616e63652062656c6f7760448201527f207a65726f0000000000000000000000000000000000000000000000000000006064820152608401610659565b610e23610e1a610e55565b85858403610ed2565b5060019392505050565b60006105e0610e3a610e55565b8484611085565b610e49611339565b610e52816113bc565b50565b600060143610801590610e9d57507f000000000000000000000000000000000000000000000000000000000000000073ffffffffffffffffffffffffffffffffffffffff1633145b15610ecd57507fffffffffffffffffffffffffffffffffffffffffffffffffffffffffffffffec36013560601c90565b503390565b73ffffffffffffffffffffffffffffffffffffffff8316610f74576040517f08c379a0000000000000000000000000000000000000000000000000000000008152602060048201526024808201527f45524332303a20617070726f76652066726f6d20746865207a65726f2061646460448201527f72657373000000000000000000000000000000000000000000000000000000006064820152608401610659565b73ffffffffffffffffffffffffffffffffffffffff8216611017576040517f08c379a000000000000000000000000000000000000000000000000000000000815260206004820152602260248201527f45524332303a20617070726f766520746f20746865207a65726f20616464726560448201527f73730000000000000000000000000000000000000000000000000000000000006064820152608401610659565b73ffffffffffffffffffffffffffffffffffffffff83811660008181526003602090815260408083209487168084529482529182902085905590518481527f8c5be1e5ebec7d5bd14f71427d1e84f3dd0314c0f7b2291e5b200ac8c7c3b925910160405180910390a3505050565b73ffffffffffffffffffffffffffffffffffffffff8316611128576040517f08c379a000000000000000000000000000000000000000000000000000000000815260206004820152602560248201527f45524332303a207472616e736665722066726f6d20746865207a65726f20616460448201527f64726573730000000000000000000000000000000000000000000000000000006064820152608401610659565b73ffffffffffffffffffffffffffffffffffffffff82166111cb576040517f08c379a000000000000000000000000000000000000000000000000000000000815260206004820152602360248201527f45524332303a207472616e7366657220746f20746865207a65726f206164647260448201527f65737300000000000000000000000000000000000000000000000000000000006064820152608401610659565b73ffffffffffffffffffffffffffffffffffffffff831660009081526002602052604090205481811015611281576040517f08c379a000000000000000000000000000000000000000000000000000000000815260206004820152602660248201527f45524332303a207472616e7366657220616d6f756e742065786365656473206260448201527f616c616e636500000000000000000000000000000000000000000000000000006064820152608401610659565b73ffffffffffffffffffffffffffffffffffffffff8085166000908152600260205260408082208585039055918516815290812080548492906112c59084906117ff565b925050819055508273ffffffffffffffffffffffffffffffffffffffff168473ffffffffffffffffffffffffffffffffffffffff167fddf252ad1be2c89b69c2b068fc378daa952ba7f163c4a11628f55a4df523b3ef8460405161132b91815260200190565b60405180910390a350505050565b60005473ffffffffffffffffffffffffffffffffffffffff1633146113ba576040517f08c379a000000000000000000000000000000000000000000000000000000000815260206004820152601660248201527f4f6e6c792063616c6c61626c65206279206f776e6572000000000000000000006044820152606401610659565b565b3373ffffffffffffffffffffffffffffffffffffffff82160361143b576040517f08c379a000000000000000000000000000000000000000000000000000000000815260206004820152601760248201527f43616e6e6f74207472616e7366657220746f2073656c660000000000000000006044820152606401610659565b600180547fffffffffffffffffffffffff00000000000000000000000000000000000000001673ffffffffffffffffffffffffffffffffffffffff83811691821790925560008054604051929316917fed8889f560326eb138920d842192f0eb3dd22b4f139c87a2c57538e05bae12789190a350565b6000815180845260005b818110156114d7576020818501810151868301820152016114bb565b5060006020828601015260207fffffffffffffffffffffffffffffffffffffffffffffffffffffffffffffffe0601f83011685010191505092915050565b60208152600061096d60208301846114b1565b803573ffffffffffffffffffffffffffffffffffffffff8116811461154c57600080fd5b919050565b6000806040838503121561156457600080fd5b61156d83611528565b946020939093013593505050565b60008060006060848603121561159057600080fd5b61159984611528565b925060208401359150604084013567ffffffffffffffff811681146115bd57600080fd5b809150509250925092565b6000806000606084860312156115dd57600080fd5b6115e684611528565b92506115f460208501611528565b9150604084013590509250925092565b60006020828403121561161657600080fd5b61096d82611528565b6000806040838503121561163257600080fd5b61163b83611528565b915061164960208401611528565b90509250929050565b600181811c9082168061166657607f821691505b60208210810361169f577f4e487b7100000000000000000000000000000000000000000000000000000000600052602260045260246000fd5b50919050565b7f4e487b7100000000000000000000000000000000000000000000000000000000600052603260045260246000fd5b6000604067ffffffffffffffff8516835260208181850152845160a08386015261170160e08601826114b1565b9050818601517fffffffffffffffffffffffffffffffffffffffffffffffffffffffffffffffc08087840301606088015261173c83836114b1565b88860151888203830160808a01528051808352908601945060009350908501905b8084101561179c578451805173ffffffffffffffffffffffffffffffffffffffff1683528601518683015293850193600193909301929086019061175d565b50606089015173ffffffffffffffffffffffffffffffffffffffff1660a08901526080890151888203830160c08a015295506117d881876114b1565b9a9950505050505050505050565b6000602082840312156117f857600080fd5b5051919050565b808201808211156105e4577f4e487b7100000000000000000000000000000000000000000000000000000000600052601160045260246000fdfea164736f6c6343000815000a",
    "linkReferences": {}
  },
  "methodIdentifiers": {
    "acceptOwnership()": "79ba5097",
    "allowance(address,address)": "dd62ed3e",
    "approve(address,uint256)": "095ea7b3",
    "balanceOf(address)": "70a08231",
    "decimals()": "313ce567",
    "decreaseAllowance(address,uint256)": "a457c2d7",
    "getCCIPChainId()": "593a61b0",
    "getCCIPFeeProvider()": "ef76fb3e",
    "getCCIPRouter()": "588cbd0e",
    "getForwarder()": "a0042526",
    "getTrustedForwarder()": "ce1b815f",
    "increaseAllowance(address,uint256)": "39509351",
    "isTrustedForwarder(address)": "572b6c05",
    "metaTransfer(address,uint256,uint64)": "17829344",
    "name()": "06fdde03",
    "owner()": "8da5cb5b",
    "symbol()": "95d89b41",
    "totalSupply()": "18160ddd",
    "transfer(address,uint256)": "a9059cbb",
    "transferFrom(address,address,uint256)": "23b872dd",
    "transferOwnership(address)": "f2fde38b",
    "withdrawNative()": "50431ce4"
  },
  "id": 239
}