{
  "abi": [
    {
      "inputs": [],
      "name": "InvalidInitialization",
      "type": "error"
    },
    {
      "inputs": [],
      "name": "NotInitializing",
      "type": "error"
    },
    {
      "inputs": [
        {
          "internalType": "address",
          "name": "owner",
          "type": "address"
        }
      ],
      "name": "OwnableInvalidOwner",
      "type": "error"
    },
    {
      "inputs": [
        {
          "internalType": "address",
          "name": "account",
          "type": "address"
        }
      ],
      "name": "OwnableUnauthorizedAccount",
      "type": "error"
    },
    {
      "anonymous": false,
      "inputs": [
        {
          "indexed": true,
          "internalType": "address",
          "name": "_userAddress",
          "type": "address"
        },
        {
          "indexed": true,
          "internalType": "bool",
          "name": "_isFrozen",
          "type": "bool"
        },
        {
          "indexed": true,
          "internalType": "address",
          "name": "_owner",
          "type": "address"
        }
      ],
      "name": "AddressFrozen",
      "type": "event"
    },
    {
      "anonymous": false,
      "inputs": [
        {
          "indexed": true,
          "internalType": "address",
          "name": "_agent",
          "type": "address"
        }
      ],
      "name": "AgentAdded",
      "type": "event"
    },
    {
      "anonymous": false,
      "inputs": [
        {
          "indexed": true,
          "internalType": "address",
          "name": "_agent",
          "type": "address"
        }
      ],
      "name": "AgentRemoved",
      "type": "event"
    },
    {
      "anonymous": false,
      "inputs": [
        {
          "indexed": true,
          "internalType": "address",
          "name": "owner",
          "type": "address"
        },
        {
          "indexed": true,
          "internalType": "address",
          "name": "spender",
          "type": "address"
        },
        {
          "indexed": false,
          "internalType": "uint256",
          "name": "value",
          "type": "uint256"
        }
      ],
      "name": "Approval",
      "type": "event"
    },
    {
      "anonymous": false,
      "inputs": [
        {
          "indexed": true,
          "internalType": "address",
          "name": "_compliance",
          "type": "address"
        }
      ],
      "name": "ComplianceAdded",
      "type": "event"
    },
    {
      "anonymous": false,
      "inputs": [
        {
          "indexed": true,
          "internalType": "address",
          "name": "_identityRegistry",
          "type": "address"
        }
      ],
      "name": "IdentityRegistryAdded",
      "type": "event"
    },
    {
      "anonymous": false,
      "inputs": [
        {
          "indexed": false,
          "internalType": "uint64",
          "name": "version",
          "type": "uint64"
        }
      ],
      "name": "Initialized",
      "type": "event"
    },
    {
      "anonymous": false,
      "inputs": [
        {
          "indexed": true,
          "internalType": "address",
          "name": "previousOwner",
          "type": "address"
        },
        {
          "indexed": true,
          "internalType": "address",
          "name": "newOwner",
          "type": "address"
        }
      ],
      "name": "OwnershipTransferred",
      "type": "event"
    },
    {
      "anonymous": false,
      "inputs": [
        {
          "indexed": false,
          "internalType": "address",
          "name": "_userAddress",
          "type": "address"
        }
      ],
      "name": "Paused",
      "type": "event"
    },
    {
      "anonymous": false,
      "inputs": [
        {
          "indexed": true,
          "internalType": "address",
          "name": "_lostWallet",
          "type": "address"
        },
        {
          "indexed": true,
          "internalType": "address",
          "name": "_newWallet",
          "type": "address"
        },
        {
          "indexed": true,
          "internalType": "address",
          "name": "_investorOnchainID",
          "type": "address"
        }
      ],
      "name": "RecoverySuccess",
      "type": "event"
    },
    {
      "anonymous": false,
      "inputs": [
        {
          "indexed": true,
          "internalType": "address",
          "name": "_userAddress",
          "type": "address"
        },
        {
          "indexed": false,
          "internalType": "uint256",
          "name": "_amount",
          "type": "uint256"
        }
      ],
      "name": "TokensFrozen",
      "type": "event"
    },
    {
      "anonymous": false,
      "inputs": [
        {
          "indexed": true,
          "internalType": "address",
          "name": "_userAddress",
          "type": "address"
        },
        {
          "indexed": false,
          "internalType": "uint256",
          "name": "_amount",
          "type": "uint256"
        }
      ],
      "name": "TokensUnfrozen",
      "type": "event"
    },
    {
      "anonymous": false,
      "inputs": [
        {
          "indexed": true,
          "internalType": "address",
          "name": "from",
          "type": "address"
        },
        {
          "indexed": true,
          "internalType": "address",
          "name": "to",
          "type": "address"
        },
        {
          "indexed": false,
          "internalType": "uint256",
          "name": "value",
          "type": "uint256"
        }
      ],
      "name": "Transfer",
      "type": "event"
    },
    {
      "anonymous": false,
      "inputs": [
        {
          "indexed": false,
          "internalType": "address",
          "name": "_userAddress",
          "type": "address"
        }
      ],
      "name": "Unpaused",
      "type": "event"
    },
    {
      "anonymous": false,
      "inputs": [
        {
          "indexed": true,
          "internalType": "string",
          "name": "_newName",
          "type": "string"
        },
        {
          "indexed": true,
          "internalType": "string",
          "name": "_newSymbol",
          "type": "string"
        },
        {
          "indexed": false,
          "internalType": "uint8",
          "name": "_newDecimals",
          "type": "uint8"
        },
        {
          "indexed": false,
          "internalType": "string",
          "name": "_newVersion",
          "type": "string"
        },
        {
          "indexed": true,
          "internalType": "address",
          "name": "_newOnchainID",
          "type": "address"
        }
      ],
      "name": "UpdatedTokenInformation",
      "type": "event"
    },
    {
      "inputs": [
        {
          "internalType": "address",
          "name": "_agent",
          "type": "address"
        }
      ],
      "name": "addAgent",
      "outputs": [],
      "stateMutability": "nonpayable",
      "type": "function"
    },
    {
      "inputs": [
        {
          "internalType": "address",
          "name": "_owner",
          "type": "address"
        },
        {
          "internalType": "address",
          "name": "_spender",
          "type": "address"
        }
      ],
      "name": "allowance",
      "outputs": [
        {
          "internalType": "uint256",
          "name": "",
          "type": "uint256"
        }
      ],
      "stateMutability": "view",
      "type": "function"
    },
    {
      "inputs": [
        {
          "internalType": "address",
          "name": "_spender",
          "type": "address"
        },
        {
          "internalType": "uint256",
          "name": "_amount",
          "type": "uint256"
        }
      ],
      "name": "approve",
      "outputs": [
        {
          "internalType": "bool",
          "name": "",
          "type": "bool"
        }
      ],
      "stateMutability": "nonpayable",
      "type": "function"
    },
    {
      "inputs": [
        {
          "internalType": "address",
          "name": "_Addr",
          "type": "address"
        },
        {
          "internalType": "uint256",
          "name": "_value",
          "type": "uint256"
        }
      ],
      "name": "approveExternal",
      "outputs": [],
      "stateMutability": "nonpayable",
      "type": "function"
    },
    {
      "inputs": [
        {
          "internalType": "address",
          "name": "_userAddress",
          "type": "address"
        }
      ],
      "name": "balanceOf",
      "outputs": [
        {
          "internalType": "uint256",
          "name": "",
          "type": "uint256"
        }
      ],
      "stateMutability": "view",
      "type": "function"
    },
    {
      "inputs": [
        {
          "internalType": "address[]",
          "name": "_userAddresses",
          "type": "address[]"
        },
        {
          "internalType": "uint256[]",
          "name": "_amounts",
          "type": "uint256[]"
        }
      ],
      "name": "batchBurn",
      "outputs": [],
      "stateMutability": "nonpayable",
      "type": "function"
    },
    {
      "inputs": [
        {
          "internalType": "address[]",
          "name": "_fromList",
          "type": "address[]"
        },
        {
          "internalType": "address[]",
          "name": "_toList",
          "type": "address[]"
        },
        {
          "internalType": "uint256[]",
          "name": "_amounts",
          "type": "uint256[]"
        }
      ],
      "name": "batchForcedTransfer",
      "outputs": [],
      "stateMutability": "nonpayable",
      "type": "function"
    },
    {
      "inputs": [
        {
          "internalType": "address[]",
          "name": "_userAddresses",
          "type": "address[]"
        },
        {
          "internalType": "uint256[]",
          "name": "_amounts",
          "type": "uint256[]"
        }
      ],
      "name": "batchFreezePartialTokens",
      "outputs": [],
      "stateMutability": "nonpayable",
      "type": "function"
    },
    {
      "inputs": [
        {
          "internalType": "address[]",
          "name": "_toList",
          "type": "address[]"
        },
        {
          "internalType": "uint256[]",
          "name": "_amounts",
          "type": "uint256[]"
        }
      ],
      "name": "batchMint",
      "outputs": [],
      "stateMutability": "nonpayable",
      "type": "function"
    },
    {
      "inputs": [
        {
          "internalType": "address[]",
          "name": "_userAddresses",
          "type": "address[]"
        },
        {
          "internalType": "bool[]",
          "name": "_freeze",
          "type": "bool[]"
        }
      ],
      "name": "batchSetAddressFrozen",
      "outputs": [],
      "stateMutability": "nonpayable",
      "type": "function"
    },
    {
      "inputs": [
        {
          "internalType": "address[]",
          "name": "_toList",
          "type": "address[]"
        },
        {
          "internalType": "uint256[]",
          "name": "_amounts",
          "type": "uint256[]"
        }
      ],
      "name": "batchTransfer",
      "outputs": [],
      "stateMutability": "nonpayable",
      "type": "function"
    },
    {
      "inputs": [
        {
          "internalType": "address[]",
          "name": "_userAddresses",
          "type": "address[]"
        },
        {
          "internalType": "uint256[]",
          "name": "_amounts",
          "type": "uint256[]"
        }
      ],
      "name": "batchUnfreezePartialTokens",
      "outputs": [],
      "stateMutability": "nonpayable",
      "type": "function"
    },
    {
      "inputs": [
        {
          "internalType": "address",
          "name": "_userAddress",
          "type": "address"
        },
        {
          "internalType": "uint256",
          "name": "_amount",
          "type": "uint256"
        }
      ],
      "name": "burn",
      "outputs": [],
      "stateMutability": "nonpayable",
      "type": "function"
    },
    {
      "inputs": [],
      "name": "compliance",
      "outputs": [
        {
          "internalType": "contract IModularCompliance",
          "name": "",
          "type": "address"
        }
      ],
      "stateMutability": "view",
      "type": "function"
    },
    {
      "inputs": [],
      "name": "decimals",
      "outputs": [
        {
          "internalType": "uint8",
          "name": "",
          "type": "uint8"
        }
      ],
      "stateMutability": "view",
      "type": "function"
    },
    {
      "inputs": [
        {
          "internalType": "address",
          "name": "_spender",
          "type": "address"
        },
        {
          "internalType": "uint256",
          "name": "_subtractedValue",
          "type": "uint256"
        }
      ],
      "name": "decreaseAllowance",
      "outputs": [
        {
          "internalType": "bool",
          "name": "",
          "type": "bool"
        }
      ],
      "stateMutability": "nonpayable",
      "type": "function"
    },
    {
      "inputs": [
        {
          "internalType": "address",
          "name": "_from",
          "type": "address"
        },
        {
          "internalType": "address",
          "name": "_to",
          "type": "address"
        },
        {
          "internalType": "uint256",
          "name": "_amount",
          "type": "uint256"
        }
      ],
      "name": "forcedTransfer",
      "outputs": [
        {
          "internalType": "bool",
          "name": "",
          "type": "bool"
        }
      ],
      "stateMutability": "nonpayable",
      "type": "function"
    },
    {
      "inputs": [
        {
          "internalType": "address",
          "name": "_userAddress",
          "type": "address"
        },
        {
          "internalType": "uint256",
          "name": "_amount",
          "type": "uint256"
        }
      ],
      "name": "freezePartialTokens",
      "outputs": [],
      "stateMutability": "nonpayable",
      "type": "function"
    },
    {
      "inputs": [
        {
          "internalType": "address",
          "name": "_userAddress",
          "type": "address"
        }
      ],
      "name": "getFrozenTokens",
      "outputs": [
        {
          "internalType": "uint256",
          "name": "",
          "type": "uint256"
        }
      ],
      "stateMutability": "view",
      "type": "function"
    },
    {
      "inputs": [],
      "name": "identityRegistry",
      "outputs": [
        {
          "internalType": "contract IIdentityRegistry",
          "name": "",
          "type": "address"
        }
      ],
      "stateMutability": "view",
      "type": "function"
    },
    {
      "inputs": [
        {
          "internalType": "address",
          "name": "_spender",
          "type": "address"
        },
        {
          "internalType": "uint256",
          "name": "_addedValue",
          "type": "uint256"
        }
      ],
      "name": "increaseAllowance",
      "outputs": [
        {
          "internalType": "bool",
          "name": "",
          "type": "bool"
        }
      ],
      "stateMutability": "nonpayable",
      "type": "function"
    },
    {
      "inputs": [
        {
          "internalType": "address",
          "name": "_identityRegistry",
          "type": "address"
        },
        {
          "internalType": "address",
          "name": "_compliance",
          "type": "address"
        },
        {
          "internalType": "address",
          "name": "_onchainID",
          "type": "address"
        }
      ],
      "name": "init",
      "outputs": [],
      "stateMutability": "nonpayable",
      "type": "function"
    },
    {
      "inputs": [
        {
          "internalType": "address",
          "name": "_agent",
          "type": "address"
        }
      ],
      "name": "isAgent",
      "outputs": [
        {
          "internalType": "bool",
          "name": "",
          "type": "bool"
        }
      ],
      "stateMutability": "view",
      "type": "function"
    },
    {
      "inputs": [
        {
          "internalType": "address",
          "name": "_userAddress",
          "type": "address"
        }
      ],
      "name": "isFrozen",
      "outputs": [
        {
          "internalType": "bool",
          "name": "",
          "type": "bool"
        }
      ],
      "stateMutability": "view",
      "type": "function"
    },
    {
      "inputs": [
        {
          "internalType": "address",
          "name": "_to",
          "type": "address"
        },
        {
          "internalType": "uint256",
          "name": "_amount",
          "type": "uint256"
        }
      ],
      "name": "mint",
      "outputs": [],
      "stateMutability": "nonpayable",
      "type": "function"
    },
    {
      "inputs": [
        {
          "internalType": "address",
          "name": "_to",
          "type": "address"
        },
        {
          "internalType": "uint256",
          "name": "_amount",
          "type": "uint256"
        }
      ],
      "name": "mintTest",
      "outputs": [],
      "stateMutability": "nonpayable",
      "type": "function"
    },
    {
      "inputs": [],
      "name": "name",
      "outputs": [
        {
          "internalType": "string",
          "name": "",
          "type": "string"
        }
      ],
      "stateMutability": "view",
      "type": "function"
    },
    {
      "inputs": [],
      "name": "onchainID",
      "outputs": [
        {
          "internalType": "address",
          "name": "",
          "type": "address"
        }
      ],
      "stateMutability": "view",
      "type": "function"
    },
    {
      "inputs": [],
      "name": "owner",
      "outputs": [
        {
          "internalType": "address",
          "name": "",
          "type": "address"
        }
      ],
      "stateMutability": "view",
      "type": "function"
    },
    {
      "inputs": [],
      "name": "pause",
      "outputs": [],
      "stateMutability": "nonpayable",
      "type": "function"
    },
    {
      "inputs": [],
      "name": "paused",
      "outputs": [
        {
          "internalType": "bool",
          "name": "",
          "type": "bool"
        }
      ],
      "stateMutability": "view",
      "type": "function"
    },
    {
      "inputs": [
        {
          "internalType": "address",
          "name": "_lostWallet",
          "type": "address"
        },
        {
          "internalType": "address",
          "name": "_newWallet",
          "type": "address"
        },
        {
          "internalType": "address",
          "name": "_investorOnchainID",
          "type": "address"
        }
      ],
      "name": "recoveryAddress",
      "outputs": [
        {
          "internalType": "bool",
          "name": "",
          "type": "bool"
        }
      ],
      "stateMutability": "nonpayable",
      "type": "function"
    },
    {
      "inputs": [
        {
          "internalType": "address",
          "name": "_agent",
          "type": "address"
        }
      ],
      "name": "removeAgent",
      "outputs": [],
      "stateMutability": "nonpayable",
      "type": "function"
    },
    {
      "inputs": [],
      "name": "renounceOwnership",
      "outputs": [],
      "stateMutability": "nonpayable",
      "type": "function"
    },
    {
      "inputs": [
        {
          "internalType": "address",
          "name": "_userAddress",
          "type": "address"
        },
        {
          "internalType": "bool",
          "name": "_freeze",
          "type": "bool"
        }
      ],
      "name": "setAddressFrozen",
      "outputs": [],
      "stateMutability": "nonpayable",
      "type": "function"
    },
    {
      "inputs": [
        {
          "internalType": "address",
          "name": "_compliance",
          "type": "address"
        }
      ],
      "name": "setCompliance",
      "outputs": [],
      "stateMutability": "nonpayable",
      "type": "function"
    },
    {
      "inputs": [
        {
          "internalType": "address",
          "name": "_identityRegistry",
          "type": "address"
        }
      ],
      "name": "setIdentityRegistry",
      "outputs": [],
      "stateMutability": "nonpayable",
      "type": "function"
    },
    {
      "inputs": [
        {
          "internalType": "string",
          "name": "_name",
          "type": "string"
        }
      ],
      "name": "setName",
      "outputs": [],
      "stateMutability": "nonpayable",
      "type": "function"
    },
    {
      "inputs": [
        {
          "internalType": "address",
          "name": "_onchainID",
          "type": "address"
        }
      ],
      "name": "setOnchainID",
      "outputs": [],
      "stateMutability": "nonpayable",
      "type": "function"
    },
    {
      "inputs": [
        {
          "internalType": "string",
          "name": "_symbol",
          "type": "string"
        }
      ],
      "name": "setSymbol",
      "outputs": [],
      "stateMutability": "nonpayable",
      "type": "function"
    },
    {
      "inputs": [],
      "name": "symbol",
      "outputs": [
        {
          "internalType": "string",
          "name": "",
          "type": "string"
        }
      ],
      "stateMutability": "view",
      "type": "function"
    },
    {
      "inputs": [],
      "name": "totalSupply",
      "outputs": [
        {
          "internalType": "uint256",
          "name": "",
          "type": "uint256"
        }
      ],
      "stateMutability": "view",
      "type": "function"
    },
    {
      "inputs": [
        {
          "internalType": "address",
          "name": "_to",
          "type": "address"
        },
        {
          "internalType": "uint256",
          "name": "_amount",
          "type": "uint256"
        }
      ],
      "name": "transfer",
      "outputs": [
        {
          "internalType": "bool",
          "name": "",
          "type": "bool"
        }
      ],
      "stateMutability": "nonpayable",
      "type": "function"
    },
    {
      "inputs": [
        {
          "internalType": "address",
          "name": "_from",
          "type": "address"
        },
        {
          "internalType": "address",
          "name": "_to",
          "type": "address"
        },
        {
          "internalType": "uint256",
          "name": "_amount",
          "type": "uint256"
        }
      ],
      "name": "transferFrom",
      "outputs": [
        {
          "internalType": "bool",
          "name": "",
          "type": "bool"
        }
      ],
      "stateMutability": "nonpayable",
      "type": "function"
    },
    {
      "inputs": [
        {
          "internalType": "address",
          "name": "newOwner",
          "type": "address"
        }
      ],
      "name": "transferOwnership",
      "outputs": [],
      "stateMutability": "nonpayable",
      "type": "function"
    },
    {
      "inputs": [
        {
          "internalType": "address",
          "name": "_userAddress",
          "type": "address"
        },
        {
          "internalType": "uint256",
          "name": "_amount",
          "type": "uint256"
        }
      ],
      "name": "unfreezePartialTokens",
      "outputs": [],
      "stateMutability": "nonpayable",
      "type": "function"
    },
    {
      "inputs": [],
      "name": "unpause",
      "outputs": [],
      "stateMutability": "nonpayable",
      "type": "function"
    },
    {
      "inputs": [],
      "name": "version",
      "outputs": [
        {
          "internalType": "string",
          "name": "",
          "type": "string"
        }
      ],
      "stateMutability": "pure",
      "type": "function"
    }
  ],
  "bytecode": {
    "object": "0x60806040526009805460ff1916905534801561001a57600080fd5b506140088061002a6000396000f3fe608060405234801561001057600080fd5b50600436106103205760003560e01c8063715018a6116101a7578063aba63705116100ee578063dd62ed3e11610097578063f2fde38b11610071578063f2fde38b14610730578063f898178914610743578063fc7e5fa81461075657600080fd5b8063dd62ed3e146106b8578063e5839836146106f1578063f0f142f21461071d57600080fd5b8063c69c09cf116100c8578063c69c09cf1461067f578063cbf3f86114610692578063d7699698146106a557600080fd5b8063aba6370514610643578063b84c824614610659578063c47f00271461066c57600080fd5b806395d89b41116101505780639fc1d0e71161012a5780639fc1d0e71461060a578063a457c2d71461061d578063a9059cbb1461063057600080fd5b806395d89b41146105dc57806397a6278e146105e45780639dc29fac146105f757600080fd5b806388d695b21161018157806388d695b2146105865780638da5cb5b146105995780639285948a146105c957600080fd5b8063715018a6146105635780638456cb591461056b57806384e798421461057357600080fd5b8063395093511161026b5780634a6cc677116102145780636290865d116101ee5780636290865d14610516578063685731071461052757806370a082311461053a57600080fd5b80634a6cc677146104bf57806354fd4d50146104d25780635c975abb1461050b57600080fd5b806340c10f191161024557806340c10f191461048657806342a47abc146104995780634710362d146104ac57600080fd5b806339509351146104585780633d1ddc5b1461046b5780633f4ba83a1461047e57600080fd5b8063184b9559116102cd5780631ffbb064116102a75780631ffbb0641461041d57806323b872dd14610430578063313ce5671461044357600080fd5b8063184b9559146103e45780631a7af379146103f75780631fe56f7d1461040a57600080fd5b8063134e18f4116102fe578063134e18f41461037b578063158b1a57146103a557806318160ddd146103dc57600080fd5b806306fdde0314610325578063095ea7b314610343578063125c4a3314610366575b600080fd5b61032d610769565b60405161033a91906137cf565b60405180910390f35b6103566103513660046137fe565b6107fb565b604051901515815260200161033a565b6103796103743660046137fe565b610812565b005b60095461010090046001600160a01b03165b6040516001600160a01b03909116815260200161033a565b6103ce6103b3366004613828565b6001600160a01b031660009081526008602052604090205490565b60405190815260200161033a565b6003546103ce565b6103796103f2366004613843565b610991565b6103796104053660046138d2565b610d99565b6103796104183660046137fe565b610e0e565b61035661042b366004613828565b610f96565b61035661043e36600461393e565b610fa2565b60065460405160ff909116815260200161033a565b6103566104663660046137fe565b611358565b610379610479366004613828565b61138f565b61037961147c565b6103796104943660046137fe565b611589565b6103796104a736600461397a565b61184b565b6103796104ba3660046138d2565b6118e1565b6103796104cd3660046138d2565b611946565b60408051808201909152600581527f342e312e31000000000000000000000000000000000000000000000000000000602082015261032d565b60095460ff16610356565b600a546001600160a01b031661038d565b6103796105353660046138d2565b6119ab565b6103ce610548366004613828565b6001600160a01b031660009081526001602052604090205490565b610379611a10565b610379611a24565b610379610581366004613828565b611b2f565b6103796105943660046138d2565b611bcf565b7f9016d09d72d40fdae2fd8ceac6b6234c7706214fd39c1cd1e609a0528c199300546001600160a01b031661038d565b6103566105d7366004613843565b611c35565b61032d61209d565b6103796105f2366004613828565b6120ac565b6103796106053660046137fe565b61214c565b61035661061836600461393e565b61237e565b61035661062b3660046137fe565b61265b565b61035661063e3660046137fe565b612692565b60065461010090046001600160a01b031661038d565b610379610667366004613a14565b6129a8565b61037961067a366004613a14565b612b1c565b61037961068d366004613a94565b612bd8565b6103796106a0366004613828565b612ca8565b6103796106b33660046137fe565b612d19565b6103ce6106c6366004613acb565b6001600160a01b03918216600090815260026020908152604080832093909416825291909152205490565b6103566106ff366004613828565b6001600160a01b031660009081526007602052604090205460ff1690565b61037961072b3660046137fe565b6117be565b61037961073e366004613828565b612d28565b610379610751366004613828565b612d7f565b6103796107643660046138d2565b612ee3565b60606004805461077890613afe565b80601f01602080910402602001604051908101604052809291908181526020018280546107a490613afe565b80156107f15780601f106107c6576101008083540402835291602001916107f1565b820191906000526020600020905b8154815290600101906020018083116107d457829003601f168201915b5050505050905090565b6000610808338484612f48565b5060015b92915050565b61081b33610f96565b6108925760405162461bcd60e51b815260206004820152602e60248201527f4167656e74526f6c653a2063616c6c657220646f6573206e6f7420686176652060448201527f746865204167656e7420726f6c6500000000000000000000000000000000000060648201526084015b60405180910390fd5b6001600160a01b0382166000908152600160209081526040808320546008909252909120546108c2908390613b80565b8110156109115760405162461bcd60e51b815260206004820181905260248201527f416d6f756e74206578636565647320617661696c61626c652062616c616e63656044820152606401610889565b6001600160a01b038316600090815260086020526040902054610935908390613b80565b6001600160a01b038416600081815260086020526040908190209290925590517fa065e63c631c86f1b9f66a4a2f63f2093bf1c2168d23290259dbd969e0222a45906109849085815260200190565b60405180910390a2505050565b7ff0c57e16840df040f15088dc2f81fe391c3923bec73e23a9662efc9c229c6a00805468010000000000000000810460ff16159067ffffffffffffffff166000811580156109dc5750825b905060008267ffffffffffffffff1660011480156109f95750303b155b905081158015610a07575080155b15610a3e576040517ff92ee8a900000000000000000000000000000000000000000000000000000000815260040160405180910390fd5b84547fffffffffffffffffffffffffffffffffffffffffffffffff00000000000000001660011785558315610a9f5784547fffffffffffffffffffffffffffffffffffffffffffffff00ffffffffffffffff16680100000000000000001785555b6000610ad27f9016d09d72d40fdae2fd8ceac6b6234c7706214fd39c1cd1e609a0528c199300546001600160a01b031690565b6001600160a01b031614610b285760405162461bcd60e51b815260206004820152601360248201527f616c726561647920696e697469616c697a6564000000000000000000000000006044820152606401610889565b6001600160a01b03881615801590610b4857506001600160a01b03871615155b610b945760405162461bcd60e51b815260206004820152601f60248201527f696e76616c696420617267756d656e74202d207a65726f2061646472657373006044820152606401610889565b610b9d336130a1565b60408051808201909152600e81527f44524558636f6d706c69616e63650000000000000000000000000000000000006020820152600490610bde9082613c08565b506040805180820190915260058082527f4452455863000000000000000000000000000000000000000000000000000000602083015290610c1f9082613c08565b50600680546001600160a01b038816610100027fffffffffffffffffffffff0000000000000000000000000000000000000000009091161760021790556009805460ff19166001179055610c7288612ca8565b610c7b87612d7f565b6006546040516101009091046001600160a01b031690610c9d90600590613d22565b60405180910390206004604051610cb49190613d22565b604080519182900382206006548383018352600584527f342e312e310000000000000000000000000000000000000000000000000000006020850152915190927f6a1105ac8148a3c319adbc369f9072573e8a11d3a3d195e067e7c40767ec54d192610d269260ff9091169190613d98565b60405180910390a48315610d8f5784547fffffffffffffffffffffffffffffffffffffffffffffff00ffffffffffffffff168555604051600181527fc7f505b2f371ae2175ee4913f4499e1f2633a7b5936321eed1cdaeb6115181d29060200160405180910390a15b5050505050505050565b60005b83811015610e0757610df5858583818110610db957610db9613dbc565b9050602002016020810190610dce9190613828565b848484818110610de057610de0613dbc565b905060200201602081019061068d9190613deb565b80610dff81613e08565b915050610d9c565b5050505050565b610e1733610f96565b610e895760405162461bcd60e51b815260206004820152602e60248201527f4167656e74526f6c653a2063616c6c657220646f6573206e6f7420686176652060448201527f746865204167656e7420726f6c650000000000000000000000000000000000006064820152608401610889565b6001600160a01b038216600090815260086020526040902054811115610f175760405162461bcd60e51b815260206004820152603460248201527f416d6f756e742073686f756c64206265206c657373207468616e206f7220657160448201527f75616c20746f2066726f7a656e20746f6b656e730000000000000000000000006064820152608401610889565b6001600160a01b038216600090815260086020526040902054610f3b908290613e40565b6001600160a01b038316600081815260086020526040908190209290925590517f9bed35cb62ad0dba04f9d5bfee4b5bc91443e77da8a65c4c84834c51bb08b0d690610f8a9084815260200190565b60405180910390a25050565b600061080c81836130b2565b60095460009060ff1615610ff85760405162461bcd60e51b815260206004820152601060248201527f5061757361626c653a20706175736564000000000000000000000000000000006044820152606401610889565b6001600160a01b03831660009081526007602052604090205460ff1615801561103a57506001600160a01b03841660009081526007602052604090205460ff16155b6110865760405162461bcd60e51b815260206004820152601060248201527f77616c6c65742069732066726f7a656e000000000000000000000000000000006044820152606401610889565b6001600160a01b0384166000908152600860209081526040808320546001909252909120546110b59190613e40565b8211156111045760405162461bcd60e51b815260206004820152601460248201527f496e73756666696369656e742042616c616e63650000000000000000000000006044820152606401610889565b6009546040517fb9209e330000000000000000000000000000000000000000000000000000000081526001600160a01b0385811660048301526101009092049091169063b9209e3390602401602060405180830381865afa15801561116d573d6000803e3d6000fd5b505050506040513d601f19601f820116820180604052508101906111919190613e53565b801561122e5750600a546040517fe46638e60000000000000000000000000000000000000000000000000000000081526001600160a01b0386811660048301528581166024830152604482018590529091169063e46638e690606401602060405180830381865afa15801561120a573d6000803e3d6000fd5b505050506040513d601f19601f8201168201806040525081019061122e9190613e53565b15611309576001600160a01b03841660009081526002602090815260408083203380855292529091205461126e918691611269908690613e40565b612f48565b611279848484613150565b600a546040517f8baf29b40000000000000000000000000000000000000000000000000000000081526001600160a01b03868116600483015285811660248301526044820185905290911690638baf29b490606401600060405180830381600087803b1580156112e857600080fd5b505af11580156112fc573d6000803e3d6000fd5b5050505060019050611351565b60405162461bcd60e51b815260206004820152601560248201527f5472616e73666572206e6f7420706f737369626c6500000000000000000000006044820152606401610889565b9392505050565b3360008181526002602090815260408083206001600160a01b03871684529091528120549091610808918590611269908690613b80565b6113976132f0565b600680547fffffffffffffffffffffff0000000000000000000000000000000000000000ff166101006001600160a01b0384811682029290921792839055604051920416906113e890600590613d22565b604051809103902060046040516113ff9190613d22565b604080519182900382206006548383018352600584527f342e312e310000000000000000000000000000000000000000000000000000006020850152915190927f6a1105ac8148a3c319adbc369f9072573e8a11d3a3d195e067e7c40767ec54d1926114719260ff9091169190613d98565b60405180910390a450565b61148533610f96565b6114f75760405162461bcd60e51b815260206004820152602e60248201527f4167656e74526f6c653a2063616c6c657220646f6573206e6f7420686176652060448201527f746865204167656e7420726f6c650000000000000000000000000000000000006064820152608401610889565b60095460ff166115495760405162461bcd60e51b815260206004820152601460248201527f5061757361626c653a206e6f74207061757365640000000000000000000000006044820152606401610889565b6009805460ff191690556040513381527f5db9ee0a495bf2e6ff9c91a7834c1ba4fdd244a5e8aa4e537bd38aeae4b073aa906020015b60405180910390a1565b61159233610f96565b6116045760405162461bcd60e51b815260206004820152602e60248201527f4167656e74526f6c653a2063616c6c657220646f6573206e6f7420686176652060448201527f746865204167656e7420726f6c650000000000000000000000000000000000006064820152608401610889565b6009546040517fb9209e330000000000000000000000000000000000000000000000000000000081526001600160a01b0384811660048301526101009092049091169063b9209e3390602401602060405180830381865afa15801561166d573d6000803e3d6000fd5b505050506040513d601f19601f820116820180604052508101906116919190613e53565b6116dd5760405162461bcd60e51b815260206004820152601960248201527f4964656e74697479206973206e6f742076657269666965642e000000000000006044820152606401610889565b600a546040517fe46638e6000000000000000000000000000000000000000000000000000000008152600060048201526001600160a01b038481166024830152604482018490529091169063e46638e690606401602060405180830381865afa15801561174e573d6000803e3d6000fd5b505050506040513d601f19601f820116820180604052508101906117729190613e53565b6117be5760405162461bcd60e51b815260206004820152601760248201527f436f6d706c69616e6365206e6f7420666f6c6c6f7765640000000000000000006044820152606401610889565b6117c88282613364565b600a546040517f5f8dead30000000000000000000000000000000000000000000000000000000081526001600160a01b0384811660048301526024820184905290911690635f8dead390604401600060405180830381600087803b15801561182f57600080fd5b505af1158015611843573d6000803e3d6000fd5b505050505050565b60005b858110156118d8576118c587878381811061186b5761186b613dbc565b90506020020160208101906118809190613828565b86868481811061189257611892613dbc565b90506020020160208101906118a79190613828565b8585858181106118b9576118b9613dbc565b9050602002013561237e565b50806118d081613e08565b91505061184e565b50505050505050565b60005b83811015610e075761193485858381811061190157611901613dbc565b90506020020160208101906119169190613828565b84848481811061192857611928613dbc565b90506020020135610e0e565b8061193e81613e08565b9150506118e4565b60005b83811015610e075761199985858381811061196657611966613dbc565b905060200201602081019061197b9190613828565b84848481811061198d5761198d613dbc565b9050602002013561214c565b806119a381613e08565b915050611949565b60005b83811015610e07576119fe8585838181106119cb576119cb613dbc565b90506020020160208101906119e09190613828565b8484848181106119f2576119f2613dbc565b90506020020135611589565b80611a0881613e08565b9150506119ae565b611a186132f0565b611a22600061344c565b565b611a2d33610f96565b611a9f5760405162461bcd60e51b815260206004820152602e60248201527f4167656e74526f6c653a2063616c6c657220646f6573206e6f7420686176652060448201527f746865204167656e7420726f6c650000000000000000000000000000000000006064820152608401610889565b60095460ff1615611af25760405162461bcd60e51b815260206004820152601060248201527f5061757361626c653a20706175736564000000000000000000000000000000006044820152606401610889565b6009805460ff191660011790556040513381527f62e78cea01bee320cd4e420270b5ea74000d11b0c9f74754ebdbfc544b05a2589060200161157f565b611b376132f0565b6001600160a01b038116611b8d5760405162461bcd60e51b815260206004820152601f60248201527f696e76616c696420617267756d656e74202d207a65726f2061646472657373006044820152606401610889565b611b986000826134d5565b6040516001600160a01b038216907ff68e73cec97f2d70aa641fb26e87a4383686e2efacb648f2165aeb02ac562ec590600090a250565b60005b83811015610e0757611c22858583818110611bef57611bef613dbc565b9050602002016020810190611c049190613828565b848484818110611c1657611c16613dbc565b90506020020135612692565b5080611c2d81613e08565b915050611bd2565b6000611c4033610f96565b611cb25760405162461bcd60e51b815260206004820152602e60248201527f4167656e74526f6c653a2063616c6c657220646f6573206e6f7420686176652060448201527f746865204167656e7420726f6c650000000000000000000000000000000000006064820152608401610889565b6001600160a01b038416600090815260016020526040902054600003611d1a5760405162461bcd60e51b815260206004820152601460248201527f6e6f20746f6b656e7320746f207265636f7665720000000000000000000000006044820152606401610889565b604080516001600160a01b0385166020820152839160009101604080518083037fffffffffffffffffffffffffffffffffffffffffffffffffffffffffffffffe00181529082905280516020909101207fd202158d000000000000000000000000000000000000000000000000000000008252600482018190526001602483015291506001600160a01b0383169063d202158d90604401602060405180830381865afa158015611dce573d6000803e3d6000fd5b505050506040513d601f19601f82011682018060405250810190611df29190613e53565b15612055576001600160a01b0386811660008181526001602090815260408083205460088352928190205460095482517f7e42683b0000000000000000000000000000000000000000000000000000000081526004810196909652915193959094610100909204169263454a03e0928b9289928692637e42683b92602480820193918290030181865afa158015611e8d573d6000803e3d6000fd5b505050506040513d601f19601f82011682018060405250810190611eb19190613e70565b6040517fffffffff0000000000000000000000000000000000000000000000000000000060e086901b1681526001600160a01b03938416600482015292909116602483015261ffff166044820152606401600060405180830381600087803b158015611f1c57600080fd5b505af1158015611f30573d6000803e3d6000fd5b50505050611f3f88888461237e565b508015611f5057611f508782610812565b6001600160a01b03881660009081526007602052604090205460ff161515600103611f8057611f80876001612bd8565b6009546040517fa8d29d1d0000000000000000000000000000000000000000000000000000000081526001600160a01b038a811660048301526101009092049091169063a8d29d1d90602401600060405180830381600087803b158015611fe657600080fd5b505af1158015611ffa573d6000803e3d6000fd5b50505050856001600160a01b0316876001600160a01b0316896001600160a01b03167ff0c9129a94f30f1caaceb63e44b9811d0a3edf1d6c23757f346093af5553fed060405160405180910390a46001945050505050611351565b60405162461bcd60e51b815260206004820152601560248201527f5265636f76657279206e6f7420706f737369626c6500000000000000000000006044820152606401610889565b60606005805461077890613afe565b6120b46132f0565b6001600160a01b03811661210a5760405162461bcd60e51b815260206004820152601f60248201527f696e76616c696420617267756d656e74202d207a65726f2061646472657373006044820152606401610889565b612115600082613551565b6040516001600160a01b038216907fed9c8ad8d5a0a66898ea49d2956929c93ae2e8bd50281b2ed897c5d1a6737e0b90600090a250565b61215533610f96565b6121c75760405162461bcd60e51b815260206004820152602e60248201527f4167656e74526f6c653a2063616c6c657220646f6573206e6f7420686176652060448201527f746865204167656e7420726f6c650000000000000000000000000000000000006064820152608401610889565b806121e7836001600160a01b031660009081526001602052604090205490565b10156122355760405162461bcd60e51b815260206004820152601d60248201527f63616e6e6f74206275726e206d6f7265207468616e2062616c616e63650000006044820152606401610889565b6001600160a01b03821660009081526008602090815260408083205460019092528220546122639190613e40565b9050808211156122f95760006122798284613e40565b6001600160a01b0385166000908152600860205260409020549091506122a0908290613e40565b6001600160a01b038516600081815260086020526040908190209290925590517f9bed35cb62ad0dba04f9d5bfee4b5bc91443e77da8a65c4c84834c51bb08b0d6906122ef9084815260200190565b60405180910390a2505b61230383836135ef565b600a546040517f8d2ea7720000000000000000000000000000000000000000000000000000000081526001600160a01b0385811660048301526024820185905290911690638d2ea77290604401600060405180830381600087803b15801561236a57600080fd5b505af11580156118d8573d6000803e3d6000fd5b600061238933610f96565b6123fb5760405162461bcd60e51b815260206004820152602e60248201527f4167656e74526f6c653a2063616c6c657220646f6573206e6f7420686176652060448201527f746865204167656e7420726f6c650000000000000000000000000000000000006064820152608401610889565b8161241b856001600160a01b031660009081526001602052604090205490565b10156124695760405162461bcd60e51b815260206004820152601660248201527f73656e6465722062616c616e636520746f6f206c6f77000000000000000000006044820152606401610889565b6001600160a01b03841660009081526008602090815260408083205460019092528220546124979190613e40565b90508083111561252d5760006124ad8285613e40565b6001600160a01b0387166000908152600860205260409020549091506124d4908290613e40565b6001600160a01b038716600081815260086020526040908190209290925590517f9bed35cb62ad0dba04f9d5bfee4b5bc91443e77da8a65c4c84834c51bb08b0d6906125239084815260200190565b60405180910390a2505b6009546040517fb9209e330000000000000000000000000000000000000000000000000000000081526001600160a01b0386811660048301526101009092049091169063b9209e3390602401602060405180830381865afa158015612596573d6000803e3d6000fd5b505050506040513d601f19601f820116820180604052508101906125ba9190613e53565b15611309576125ca858585613150565b600a546040517f8baf29b40000000000000000000000000000000000000000000000000000000081526001600160a01b03878116600483015286811660248301526044820186905290911690638baf29b490606401600060405180830381600087803b15801561263957600080fd5b505af115801561264d573d6000803e3d6000fd5b505050506001915050611351565b3360008181526002602090815260408083206001600160a01b03871684529091528120549091610808918590611269908690613e40565b60095460009060ff16156126e85760405162461bcd60e51b815260206004820152601060248201527f5061757361626c653a20706175736564000000000000000000000000000000006044820152606401610889565b6001600160a01b03831660009081526007602052604090205460ff1615801561272157503360009081526007602052604090205460ff16155b61276d5760405162461bcd60e51b815260206004820152601060248201527f77616c6c65742069732066726f7a656e000000000000000000000000000000006044820152606401610889565b336000908152600860209081526040808320546001909252909120546127939190613e40565b8211156127e25760405162461bcd60e51b815260206004820152601460248201527f496e73756666696369656e742042616c616e63650000000000000000000000006044820152606401610889565b6009546040517fb9209e330000000000000000000000000000000000000000000000000000000081526001600160a01b0385811660048301526101009092049091169063b9209e3390602401602060405180830381865afa15801561284b573d6000803e3d6000fd5b505050506040513d601f19601f8201168201806040525081019061286f9190613e53565b801561290a5750600a546040517fe46638e60000000000000000000000000000000000000000000000000000000081523360048201526001600160a01b038581166024830152604482018590529091169063e46638e690606401602060405180830381865afa1580156128e6573d6000803e3d6000fd5b505050506040513d601f19601f8201168201806040525081019061290a9190613e53565b156113095761291a338484613150565b600a546040517f8baf29b40000000000000000000000000000000000000000000000000000000081523360048201526001600160a01b0385811660248301526044820185905290911690638baf29b490606401600060405180830381600087803b15801561298757600080fd5b505af115801561299b573d6000803e3d6000fd5b505050506001905061080c565b6129b06132f0565b6040516020016129cb90602080825260009082015260400190565b6040516020818303038152906040528051906020012082826040516020016129f4929190613e94565b6040516020818303038152906040528051906020012003612a575760405162461bcd60e51b815260206004820152601f60248201527f696e76616c696420617267756d656e74202d20656d70747920737472696e67006044820152606401610889565b6005612a64828483613ee1565b506006546040516101009091046001600160a01b031690612a8790600590613d22565b60405180910390206004604051612a9e9190613d22565b604080519182900382206006548383018352600584527f342e312e310000000000000000000000000000000000000000000000000000006020850152915190927f6a1105ac8148a3c319adbc369f9072573e8a11d3a3d195e067e7c40767ec54d192612b109260ff9091169190613d98565b60405180910390a45050565b612b246132f0565b604051602001612b3f90602080825260009082015260400190565b604051602081830303815290604052805190602001208282604051602001612b68929190613e94565b6040516020818303038152906040528051906020012003612bcb5760405162461bcd60e51b815260206004820152601f60248201527f696e76616c696420617267756d656e74202d20656d70747920737472696e67006044820152606401610889565b6004612a64828483613ee1565b612be133610f96565b612c535760405162461bcd60e51b815260206004820152602e60248201527f4167656e74526f6c653a2063616c6c657220646f6573206e6f7420686176652060448201527f746865204167656e7420726f6c650000000000000000000000000000000000006064820152608401610889565b6001600160a01b038216600081815260076020526040808220805460ff19168515159081179091559051339391927f7fa523c84ab8d7fc5b72f08b9e46dbbf10c39e119a075b3e317002d14bc9f43691a45050565b612cb06132f0565b600980547fffffffffffffffffffffff0000000000000000000000000000000000000000ff166101006001600160a01b038416908102919091179091556040517fd2be862d755bca7e0d39772b2cab3a5578da9c285f69199f4c063c2294a7f36c90600090a250565b612d24308383612f48565b5050565b612d306132f0565b6001600160a01b038116612d73576040517f1e4fbdf700000000000000000000000000000000000000000000000000000000815260006004820152602401610889565b612d7c8161344c565b50565b612d876132f0565b600a546001600160a01b031615612e0f57600a546040517f40db3b500000000000000000000000000000000000000000000000000000000081523060048201526001600160a01b03909116906340db3b5090602401600060405180830381600087803b158015612df657600080fd5b505af1158015612e0a573d6000803e3d6000fd5b505050505b600a80547fffffffffffffffffffffffff0000000000000000000000000000000000000000166001600160a01b0383169081179091556040517f3ff5aa02000000000000000000000000000000000000000000000000000000008152306004820152633ff5aa0290602401600060405180830381600087803b158015612e9457600080fd5b505af1158015612ea8573d6000803e3d6000fd5b50506040516001600160a01b03841692507f7f3a888862559648ec01d97deb7b5012bff86dc91e654a1de397170db40e35b69150600090a250565b60005b83811015610e0757612f36858583818110612f0357612f03613dbc565b9050602002016020810190612f189190613828565b848484818110612f2a57612f2a613dbc565b90506020020135610812565b80612f4081613e08565b915050612ee6565b6001600160a01b038316612fc35760405162461bcd60e51b8152602060048201526024808201527f45524332303a20617070726f76652066726f6d20746865207a65726f2061646460448201527f72657373000000000000000000000000000000000000000000000000000000006064820152608401610889565b6001600160a01b03821661303f5760405162461bcd60e51b815260206004820152602260248201527f45524332303a20617070726f766520746f20746865207a65726f20616464726560448201527f73730000000000000000000000000000000000000000000000000000000000006064820152608401610889565b6001600160a01b0383811660008181526002602090815260408083209487168084529482529182902085905590518481527f8c5be1e5ebec7d5bd14f71427d1e84f3dd0314c0f7b2291e5b200ac8c7c3b92591015b60405180910390a3505050565b6130a96136f7565b612d7c8161375e565b60006001600160a01b0382166131305760405162461bcd60e51b815260206004820152602260248201527f526f6c65733a206163636f756e7420697320746865207a65726f20616464726560448201527f73730000000000000000000000000000000000000000000000000000000000006064820152608401610889565b506001600160a01b03166000908152602091909152604090205460ff1690565b6001600160a01b0383166131cc5760405162461bcd60e51b815260206004820152602560248201527f45524332303a207472616e736665722066726f6d20746865207a65726f20616460448201527f64726573730000000000000000000000000000000000000000000000000000006064820152608401610889565b6001600160a01b0382166132485760405162461bcd60e51b815260206004820152602360248201527f45524332303a207472616e7366657220746f20746865207a65726f206164647260448201527f65737300000000000000000000000000000000000000000000000000000000006064820152608401610889565b6001600160a01b03831660009081526001602052604090205461326c908290613e40565b6001600160a01b03808516600090815260016020526040808220939093559084168152205461329c908290613b80565b6001600160a01b0380841660008181526001602052604090819020939093559151908516907fddf252ad1be2c89b69c2b068fc378daa952ba7f163c4a11628f55a4df523b3ef906130949085815260200190565b336133227f9016d09d72d40fdae2fd8ceac6b6234c7706214fd39c1cd1e609a0528c199300546001600160a01b031690565b6001600160a01b031614611a22576040517f118cdaa7000000000000000000000000000000000000000000000000000000008152336004820152602401610889565b6001600160a01b0382166133ba5760405162461bcd60e51b815260206004820152601f60248201527f45524332303a206d696e7420746f20746865207a65726f2061646472657373006044820152606401610889565b806003546133c89190613b80565b6003556001600160a01b0382166000908152600160205260409020546133ef908290613b80565b6001600160a01b0383166000818152600160205260408082209390935591519091907fddf252ad1be2c89b69c2b068fc378daa952ba7f163c4a11628f55a4df523b3ef906134409085815260200190565b60405180910390a35050565b7f9016d09d72d40fdae2fd8ceac6b6234c7706214fd39c1cd1e609a0528c19930080547fffffffffffffffffffffffff000000000000000000000000000000000000000081166001600160a01b03848116918217845560405192169182907f8be0079c531659141344cd1fd0a4f28419497f9722a3daafe3b4186f6b6457e090600090a3505050565b6134df82826130b2565b1561352c5760405162461bcd60e51b815260206004820152601f60248201527f526f6c65733a206163636f756e7420616c72656164792068617320726f6c65006044820152606401610889565b6001600160a01b0316600090815260209190915260409020805460ff19166001179055565b61355b82826130b2565b6135cd5760405162461bcd60e51b815260206004820152602160248201527f526f6c65733a206163636f756e7420646f6573206e6f74206861766520726f6c60448201527f65000000000000000000000000000000000000000000000000000000000000006064820152608401610889565b6001600160a01b0316600090815260209190915260409020805460ff19169055565b6001600160a01b03821661366b5760405162461bcd60e51b815260206004820152602160248201527f45524332303a206275726e2066726f6d20746865207a65726f2061646472657360448201527f73000000000000000000000000000000000000000000000000000000000000006064820152608401610889565b6001600160a01b03821660009081526001602052604090205461368f908290613e40565b6001600160a01b0383166000908152600160205260409020556003546136b6908290613e40565b6003556040518181526000906001600160a01b038416907fddf252ad1be2c89b69c2b068fc378daa952ba7f163c4a11628f55a4df523b3ef90602001613440565b7ff0c57e16840df040f15088dc2f81fe391c3923bec73e23a9662efc9c229c6a005468010000000000000000900460ff16611a22576040517fd7e6bcf800000000000000000000000000000000000000000000000000000000815260040160405180910390fd5b612d306136f7565b505050565b6000815180845260005b8181101561379157602081850181015186830182015201613775565b5060006020828601015260207fffffffffffffffffffffffffffffffffffffffffffffffffffffffffffffffe0601f83011685010191505092915050565b602081526000611351602083018461376b565b80356001600160a01b03811681146137f957600080fd5b919050565b6000806040838503121561381157600080fd5b61381a836137e2565b946020939093013593505050565b60006020828403121561383a57600080fd5b611351826137e2565b60008060006060848603121561385857600080fd5b613861846137e2565b925061386f602085016137e2565b915061387d604085016137e2565b90509250925092565b60008083601f84011261389857600080fd5b50813567ffffffffffffffff8111156138b057600080fd5b6020830191508360208260051b85010111156138cb57600080fd5b9250929050565b600080600080604085870312156138e857600080fd5b843567ffffffffffffffff8082111561390057600080fd5b61390c88838901613886565b9096509450602087013591508082111561392557600080fd5b5061393287828801613886565b95989497509550505050565b60008060006060848603121561395357600080fd5b61395c846137e2565b925061396a602085016137e2565b9150604084013590509250925092565b6000806000806000806060878903121561399357600080fd5b863567ffffffffffffffff808211156139ab57600080fd5b6139b78a838b01613886565b909850965060208901359150808211156139d057600080fd5b6139dc8a838b01613886565b909650945060408901359150808211156139f557600080fd5b50613a0289828a01613886565b979a9699509497509295939492505050565b60008060208385031215613a2757600080fd5b823567ffffffffffffffff80821115613a3f57600080fd5b818501915085601f830112613a5357600080fd5b813581811115613a6257600080fd5b866020828501011115613a7457600080fd5b60209290920196919550909350505050565b8015158114612d7c57600080fd5b60008060408385031215613aa757600080fd5b613ab0836137e2565b91506020830135613ac081613a86565b809150509250929050565b60008060408385031215613ade57600080fd5b613ae7836137e2565b9150613af5602084016137e2565b90509250929050565b600181811c90821680613b1257607f821691505b602082108103613b4b577f4e487b7100000000000000000000000000000000000000000000000000000000600052602260045260246000fd5b50919050565b7f4e487b7100000000000000000000000000000000000000000000000000000000600052601160045260246000fd5b8082018082111561080c5761080c613b51565b7f4e487b7100000000000000000000000000000000000000000000000000000000600052604160045260246000fd5b601f82111561376657600081815260208120601f850160051c81016020861015613be95750805b601f850160051c820191505b8181101561184357828155600101613bf5565b815167ffffffffffffffff811115613c2257613c22613b93565b613c3681613c308454613afe565b84613bc2565b602080601f831160018114613c895760008415613c535750858301515b7fffffffffffffffffffffffffffffffffffffffffffffffffffffffffffffffff600386901b1c1916600185901b178555611843565b6000858152602081207fffffffffffffffffffffffffffffffffffffffffffffffffffffffffffffffe08616915b82811015613cd657888601518255948401946001909101908401613cb7565b5085821015613d1257878501517fffffffffffffffffffffffffffffffffffffffffffffffffffffffffffffffff600388901b60f8161c191681555b5050505050600190811b01905550565b6000808354613d3081613afe565b60018281168015613d485760018114613d5d57613d8c565b60ff1984168752821515830287019450613d8c565b8760005260208060002060005b85811015613d835781548a820152908401908201613d6a565b50505082870194505b50929695505050505050565b60ff83168152604060208201526000613db4604083018461376b565b949350505050565b7f4e487b7100000000000000000000000000000000000000000000000000000000600052603260045260246000fd5b600060208284031215613dfd57600080fd5b813561135181613a86565b60007fffffffffffffffffffffffffffffffffffffffffffffffffffffffffffffffff8203613e3957613e39613b51565b5060010190565b8181038181111561080c5761080c613b51565b600060208284031215613e6557600080fd5b815161135181613a86565b600060208284031215613e8257600080fd5b815161ffff8116811461135157600080fd5b60208152816020820152818360408301376000818301604090810191909152601f9092017fffffffffffffffffffffffffffffffffffffffffffffffffffffffffffffffe0160101919050565b67ffffffffffffffff831115613ef957613ef9613b93565b613f0d83613f078354613afe565b83613bc2565b6000601f841160018114613f5f5760008515613f295750838201355b7fffffffffffffffffffffffffffffffffffffffffffffffffffffffffffffffff600387901b1c1916600186901b178355610e07565b6000838152602090207fffffffffffffffffffffffffffffffffffffffffffffffffffffffffffffffe0861690835b82811015613fae5786850135825560209485019460019092019101613f8e565b5086821015613fe9577fffffffffffffffffffffffffffffffffffffffffffffffffffffffffffffffff60f88860031b161c19848701351681555b505060018560011b018355505050505056fea164736f6c6343000815000a",
    "linkReferences": {}
  },
  "methodIdentifiers": {
    "addAgent(address)": "84e79842",
    "allowance(address,address)": "dd62ed3e",
    "approve(address,uint256)": "095ea7b3",
    "approveExternal(address,uint256)": "d7699698",
    "balanceOf(address)": "70a08231",
    "batchBurn(address[],uint256[])": "4a6cc677",
    "batchForcedTransfer(address[],address[],uint256[])": "42a47abc",
    "batchFreezePartialTokens(address[],uint256[])": "fc7e5fa8",
    "batchMint(address[],uint256[])": "68573107",
    "batchSetAddressFrozen(address[],bool[])": "1a7af379",
    "batchTransfer(address[],uint256[])": "88d695b2",
    "batchUnfreezePartialTokens(address[],uint256[])": "4710362d",
    "burn(address,uint256)": "9dc29fac",
    "compliance()": "6290865d",
    "decimals()": "313ce567",
    "decreaseAllowance(address,uint256)": "a457c2d7",
    "forcedTransfer(address,address,uint256)": "9fc1d0e7",
    "freezePartialTokens(address,uint256)": "125c4a33",
    "getFrozenTokens(address)": "158b1a57",
    "identityRegistry()": "134e18f4",
    "increaseAllowance(address,uint256)": "39509351",
    "init(address,address,address)": "184b9559",
    "isAgent(address)": "1ffbb064",
    "isFrozen(address)": "e5839836",
    "mint(address,uint256)": "40c10f19",
    "mintTest(address,uint256)": "f0f142f2",
    "name()": "06fdde03",
    "onchainID()": "aba63705",
    "owner()": "8da5cb5b",
    "pause()": "8456cb59",
    "paused()": "5c975abb",
    "recoveryAddress(address,address,address)": "9285948a",
    "removeAgent(address)": "97a6278e",
    "renounceOwnership()": "715018a6",
    "setAddressFrozen(address,bool)": "c69c09cf",
    "setCompliance(address)": "f8981789",
    "setIdentityRegistry(address)": "cbf3f861",
    "setName(string)": "c47f0027",
    "setOnchainID(address)": "3d1ddc5b",
    "setSymbol(string)": "b84c8246",
    "symbol()": "95d89b41",
    "totalSupply()": "18160ddd",
    "transfer(address,uint256)": "a9059cbb",
    "transferFrom(address,address,uint256)": "23b872dd",
    "transferOwnership(address)": "f2fde38b",
    "unfreezePartialTokens(address,uint256)": "1fe56f7d",
    "unpause()": "3f4ba83a",
    "version()": "54fd4d50"
  },
  "id": 58
}