{
  "abi": [
    {
      "inputs": [],
      "stateMutability": "nonpayable",
      "type": "constructor"
    },
    {
      "inputs": [
        {
          "internalType": "address",
          "name": "spender",
          "type": "address"
        },
        {
          "internalType": "uint256",
          "name": "allowance",
          "type": "uint256"
        },
        {
          "internalType": "uint256",
          "name": "needed",
          "type": "uint256"
        }
      ],
      "name": "ERC20InsufficientAllowance",
      "type": "error"
    },
    {
      "inputs": [
        {
          "internalType": "address",
          "name": "sender",
          "type": "address"
        },
        {
          "internalType": "uint256",
          "name": "balance",
          "type": "uint256"
        },
        {
          "internalType": "uint256",
          "name": "needed",
          "type": "uint256"
        }
      ],
      "name": "ERC20InsufficientBalance",
      "type": "error"
    },
    {
      "inputs": [
        {
          "internalType": "address",
          "name": "approver",
          "type": "address"
        }
      ],
      "name": "ERC20InvalidApprover",
      "type": "error"
    },
    {
      "inputs": [
        {
          "internalType": "address",
          "name": "receiver",
          "type": "address"
        }
      ],
      "name": "ERC20InvalidReceiver",
      "type": "error"
    },
    {
      "inputs": [
        {
          "internalType": "address",
          "name": "sender",
          "type": "address"
        }
      ],
      "name": "ERC20InvalidSender",
      "type": "error"
    },
    {
      "inputs": [
        {
          "internalType": "address",
          "name": "spender",
          "type": "address"
        }
      ],
      "name": "ERC20InvalidSpender",
      "type": "error"
    },
    {
      "anonymous": false,
      "inputs": [
        {
          "indexed": true,
          "internalType": "address",
          "name": "owner",
          "type": "address"
        },
        {
          "indexed": true,
          "internalType": "address",
          "name": "spender",
          "type": "address"
        },
        {
          "indexed": false,
          "internalType": "uint256",
          "name": "value",
          "type": "uint256"
        }
      ],
      "name": "Approval",
      "type": "event"
    },
    {
      "anonymous": false,
      "inputs": [
        {
          "indexed": true,
          "internalType": "address",
          "name": "from",
          "type": "address"
        },
        {
          "indexed": true,
          "internalType": "address",
          "name": "to",
          "type": "address"
        },
        {
          "indexed": false,
          "internalType": "uint256",
          "name": "value",
          "type": "uint256"
        }
      ],
      "name": "Transfer",
      "type": "event"
    },
    {
      "inputs": [
        {
          "internalType": "address",
          "name": "owner",
          "type": "address"
        },
        {
          "internalType": "address",
          "name": "spender",
          "type": "address"
        }
      ],
      "name": "allowance",
      "outputs": [
        {
          "internalType": "uint256",
          "name": "",
          "type": "uint256"
        }
      ],
      "stateMutability": "view",
      "type": "function"
    },
    {
      "inputs": [
        {
          "internalType": "address",
          "name": "spender",
          "type": "address"
        },
        {
          "internalType": "uint256",
          "name": "value",
          "type": "uint256"
        }
      ],
      "name": "approve",
      "outputs": [
        {
          "internalType": "bool",
          "name": "",
          "type": "bool"
        }
      ],
      "stateMutability": "nonpayable",
      "type": "function"
    },
    {
      "inputs": [
        {
          "internalType": "address",
          "name": "_Addr",
          "type": "address"
        },
        {
          "internalType": "uint256",
          "name": "_value",
          "type": "uint256"
        }
      ],
      "name": "approveExternal",
      "outputs": [],
      "stateMutability": "nonpayable",
      "type": "function"
    },
    {
      "inputs": [
        {
          "internalType": "address",
          "name": "account",
          "type": "address"
        }
      ],
      "name": "balanceOf",
      "outputs": [
        {
          "internalType": "uint256",
          "name": "",
          "type": "uint256"
        }
      ],
      "stateMutability": "view",
      "type": "function"
    },
    {
      "inputs": [],
      "name": "decimals",
      "outputs": [
        {
          "internalType": "uint8",
          "name": "",
          "type": "uint8"
        }
      ],
      "stateMutability": "view",
      "type": "function"
    },
    {
      "inputs": [
        {
          "internalType": "address",
          "name": "_addr",
          "type": "address"
        },
        {
          "internalType": "uint256",
          "name": "_amount",
          "type": "uint256"
        }
      ],
      "name": "mint",
      "outputs": [],
      "stateMutability": "nonpayable",
      "type": "function"
    },
    {
      "inputs": [
        {
          "internalType": "uint256",
          "name": "_amount",
          "type": "uint256"
        }
      ],
      "name": "mintInternal",
      "outputs": [],
      "stateMutability": "nonpayable",
      "type": "function"
    },
    {
      "inputs": [],
      "name": "name",
      "outputs": [
        {
          "internalType": "string",
          "name": "",
          "type": "string"
        }
      ],
      "stateMutability": "view",
      "type": "function"
    },
    {
      "inputs": [],
      "name": "symbol",
      "outputs": [
        {
          "internalType": "string",
          "name": "",
          "type": "string"
        }
      ],
      "stateMutability": "view",
      "type": "function"
    },
    {
      "inputs": [],
      "name": "totalSupply",
      "outputs": [
        {
          "internalType": "uint256",
          "name": "",
          "type": "uint256"
        }
      ],
      "stateMutability": "view",
      "type": "function"
    },
    {
      "inputs": [
        {
          "internalType": "address",
          "name": "to",
          "type": "address"
        },
        {
          "internalType": "uint256",
          "name": "value",
          "type": "uint256"
        }
      ],
      "name": "transfer",
      "outputs": [
        {
          "internalType": "bool",
          "name": "",
          "type": "bool"
        }
      ],
      "stateMutability": "nonpayable",
      "type": "function"
    },
    {
      "inputs": [
        {
          "internalType": "address",
          "name": "from",
          "type": "address"
        },
        {
          "internalType": "address",
          "name": "to",
          "type": "address"
        },
        {
          "internalType": "uint256",
          "name": "value",
          "type": "uint256"
        }
      ],
      "name": "transferFrom",
      "outputs": [
        {
          "internalType": "bool",
          "name": "",
          "type": "bool"
        }
      ],
      "stateMutability": "nonpayable",
      "type": "function"
    }
  ],
  "bytecode": {
    "object": "0x60806040523480156200001157600080fd5b506040805180820182526005808252640ee88a48ab60db1b60208084018290528451808601909552918452908301529060036200004f83826200029b565b5060046200005e82826200029b565b5050506200007b33678ac7230489e800006200008160201b60201c565b6200038f565b6001600160a01b038216620000b15760405163ec442f0560e01b8152600060048201526024015b60405180910390fd5b620000bf60008383620000c3565b5050565b6001600160a01b038316620000f2578060026000828254620000e6919062000367565b90915550620001669050565b6001600160a01b03831660009081526020819052604090205481811015620001475760405163391434e360e21b81526001600160a01b03851660048201526024810182905260448101839052606401620000a8565b6001600160a01b03841660009081526020819052604090209082900390555b6001600160a01b0382166200018457600280548290039055620001a3565b6001600160a01b03821660009081526020819052604090208054820190555b816001600160a01b0316836001600160a01b03167fddf252ad1be2c89b69c2b068fc378daa952ba7f163c4a11628f55a4df523b3ef83604051620001e991815260200190565b60405180910390a3505050565b634e487b7160e01b600052604160045260246000fd5b600181811c908216806200022157607f821691505b6020821081036200024257634e487b7160e01b600052602260045260246000fd5b50919050565b601f8211156200029657600081815260208120601f850160051c81016020861015620002715750805b601f850160051c820191505b8181101562000292578281556001016200027d565b5050505b505050565b81516001600160401b03811115620002b757620002b7620001f6565b620002cf81620002c884546200020c565b8462000248565b602080601f831160018114620003075760008415620002ee5750858301515b600019600386901b1c1916600185901b17855562000292565b600085815260208120601f198616915b82811015620003385788860151825594840194600190910190840162000317565b5085821015620003575787850151600019600388901b60f8161c191681555b5050505050600190811b01905550565b808201808211156200038957634e487b7160e01b600052601160045260246000fd5b92915050565b610a12806200039f6000396000f3fe608060405234801561001057600080fd5b50600436106100d45760003560e01c806370a0823111610081578063a9059cbb1161005b578063a9059cbb146101b4578063d7699698146101c7578063dd62ed3e146101da57600080fd5b806370a082311461016357806395d89b4114610199578063990be248146101a157600080fd5b806323b872dd116100b257806323b872dd1461012c578063313ce5671461013f57806340c10f191461014e57600080fd5b806306fdde03146100d9578063095ea7b3146100f757806318160ddd1461011a575b600080fd5b6100e1610220565b6040516100ee919061080f565b60405180910390f35b61010a6101053660046108a4565b6102b2565b60405190151581526020016100ee565b6002545b6040519081526020016100ee565b61010a61013a3660046108ce565b6102cc565b604051601281526020016100ee565b61016161015c3660046108a4565b6102f0565b005b61011e61017136600461090a565b73ffffffffffffffffffffffffffffffffffffffff1660009081526020819052604090205490565b6100e16102fe565b6101616101af36600461092c565b61030d565b61010a6101c23660046108a4565b61031a565b6101616101d53660046108a4565b610328565b61011e6101e8366004610945565b73ffffffffffffffffffffffffffffffffffffffff918216600090815260016020908152604080832093909416825291909152205490565b60606003805461022f90610978565b80601f016020809104026020016040519081016040528092919081815260200182805461025b90610978565b80156102a85780601f1061027d576101008083540402835291602001916102a8565b820191906000526020600020905b81548152906001019060200180831161028b57829003601f168201915b5050505050905090565b6000336102c081858561032f565b60019150505b92915050565b6000336102da858285610341565b6102e5858585610415565b506001949350505050565b6102fa82826104c0565b5050565b60606004805461022f90610978565b61031730826104c0565b50565b6000336102c0818585610415565b6102fa3083835b61033c838383600161051c565b505050565b73ffffffffffffffffffffffffffffffffffffffff8381166000908152600160209081526040808320938616835292905220547fffffffffffffffffffffffffffffffffffffffffffffffffffffffffffffffff811461040f5781811015610400576040517ffb8f41b200000000000000000000000000000000000000000000000000000000815273ffffffffffffffffffffffffffffffffffffffff8416600482015260248101829052604481018390526064015b60405180910390fd5b61040f8484848403600061051c565b50505050565b73ffffffffffffffffffffffffffffffffffffffff8316610465576040517f96c6fd1e000000000000000000000000000000000000000000000000000000008152600060048201526024016103f7565b73ffffffffffffffffffffffffffffffffffffffff82166104b5576040517fec442f05000000000000000000000000000000000000000000000000000000008152600060048201526024016103f7565b61033c838383610664565b73ffffffffffffffffffffffffffffffffffffffff8216610510576040517fec442f05000000000000000000000000000000000000000000000000000000008152600060048201526024016103f7565b6102fa60008383610664565b73ffffffffffffffffffffffffffffffffffffffff841661056c576040517fe602df05000000000000000000000000000000000000000000000000000000008152600060048201526024016103f7565b73ffffffffffffffffffffffffffffffffffffffff83166105bc576040517f94280d62000000000000000000000000000000000000000000000000000000008152600060048201526024016103f7565b73ffffffffffffffffffffffffffffffffffffffff8085166000908152600160209081526040808320938716835292905220829055801561040f578273ffffffffffffffffffffffffffffffffffffffff168473ffffffffffffffffffffffffffffffffffffffff167f8c5be1e5ebec7d5bd14f71427d1e84f3dd0314c0f7b2291e5b200ac8c7c3b9258460405161065691815260200190565b60405180910390a350505050565b73ffffffffffffffffffffffffffffffffffffffff831661069c57806002600082825461069191906109cb565b9091555061074e9050565b73ffffffffffffffffffffffffffffffffffffffff831660009081526020819052604090205481811015610722576040517fe450d38c00000000000000000000000000000000000000000000000000000000815273ffffffffffffffffffffffffffffffffffffffff8516600482015260248101829052604481018390526064016103f7565b73ffffffffffffffffffffffffffffffffffffffff841660009081526020819052604090209082900390555b73ffffffffffffffffffffffffffffffffffffffff8216610777576002805482900390556107a3565b73ffffffffffffffffffffffffffffffffffffffff821660009081526020819052604090208054820190555b8173ffffffffffffffffffffffffffffffffffffffff168373ffffffffffffffffffffffffffffffffffffffff167fddf252ad1be2c89b69c2b068fc378daa952ba7f163c4a11628f55a4df523b3ef8360405161080291815260200190565b60405180910390a3505050565b600060208083528351808285015260005b8181101561083c57858101830151858201604001528201610820565b5060006040828601015260407fffffffffffffffffffffffffffffffffffffffffffffffffffffffffffffffe0601f8301168501019250505092915050565b803573ffffffffffffffffffffffffffffffffffffffff8116811461089f57600080fd5b919050565b600080604083850312156108b757600080fd5b6108c08361087b565b946020939093013593505050565b6000806000606084860312156108e357600080fd5b6108ec8461087b565b92506108fa6020850161087b565b9150604084013590509250925092565b60006020828403121561091c57600080fd5b6109258261087b565b9392505050565b60006020828403121561093e57600080fd5b5035919050565b6000806040838503121561095857600080fd5b6109618361087b565b915061096f6020840161087b565b90509250929050565b600181811c9082168061098c57607f821691505b6020821081036109c5577f4e487b7100000000000000000000000000000000000000000000000000000000600052602260045260246000fd5b50919050565b808201808211156102c6577f4e487b7100000000000000000000000000000000000000000000000000000000600052601160045260246000fdfea164736f6c6343000815000a",
    "linkReferences": {}
  },
  "methodIdentifiers": {
    "allowance(address,address)": "dd62ed3e",
    "approve(address,uint256)": "095ea7b3",
    "approveExternal(address,uint256)": "d7699698",
    "balanceOf(address)": "70a08231",
    "decimals()": "313ce567",
    "mint(address,uint256)": "40c10f19",
    "mintInternal(uint256)": "990be248",
    "name()": "06fdde03",
    "symbol()": "95d89b41",
    "totalSupply()": "18160ddd",
    "transfer(address,uint256)": "a9059cbb",
    "transferFrom(address,address,uint256)": "23b872dd"
  },
  "id": 94
}